:020000040800F2
:1000000050B10120FD0200083B1D0008331D00080F
:10001000371D000815090008A12200080000000093
:100020000000000000000000000000003D02000889
:100030001909000800000000990200081B1E0008B2
:100040002103000821030008210300082103000800
:1000500021030008210300082103000821030008F0
:1000600021030008210300082103000821030008E0
:1000700021030008210300082103000821030008D0
:1000800021030008210300082103000821030008C0
:1000900021030008210300082103000821030008B0
:1000A00021030008210300082103000821030008A0
:1000B00021030008451E0008210300082103000851
:1000C0002103000821030008210300082103000880
:1000D0002103000851220008210300082103000821
:1000E0002103000821030008210300082103000860
:1000F0002103000821030008210300082103000850
:10010000210300082103000821030008210300083F
:10011000210300082103000821030008210300082F
:10012000210300082103000821030008210300081F
:10013000210300082103000821030008210300080F
:1001400021030008210300082103000821030008FF
:1001500021030008210300082103000821030008EF
:1001600021030008210300082103000821030008DF
:1001700021030008210300082103000800000000FB
:10018000210300082103000800F002F800F047F8FE
:100190000AA090E8000C82448344AAF10107DA45E2
:1001A00001D100F03CF8AFF2090EBAE80F0013F0ED
:1001B000010F18BFFB1A43F00103184758BA00009B
:1001C00078BA0000103A24BF78C878C1FAD852072C
:1001D00024BF30C830C144BF04680C6070470000C1
:1001E0000023002400250026103A28BF78C1FBD840
:1001F000520728BF30C148BF0B607047642900F028
:100200008581782900F0BE81732900F0E382002007
:1002100070471FB508F006FD1FBD10B510BD00F0FA
:1002200047FB1146FFF7F5FF05F054FB00F065FBB7
:1002300003B4FFF7F2FF03BC02F068F82C4B196817
:100240000868B0E8F04F80F30988BFF36F8F4FF074
:10025000000080F311887047000000000848006823
:10026000006880F308884FF0000080F3148862B6BD
:1002700061B6BFF34F8FBFF36F8F00DF00BF00BFCA
:1002800008ED00E0DFF80C00016841F47001016046
:10029000704700BF88ED00E0EFF30980BFF36F8F78
:1002A000134B1A681EF0100F08BF20ED108A20E9CA
:1002B000F04F106009B44FF0500080F31188BFF385
:1002C0004F8FBFF36F8F07F039FA4FF0000080F3C4
:1002D000118809BC19680868B0E8F04F1EF0100FCB
:1002E00008BFB0EC108A80F30988BFF36F8F7047A6
:1002F00074000020EFF30580704700000C4801688F
:1003000041F4700101600B4880470B480047FEE74D
:10031000FEE7FEE7FEE7FEE7FEE7FEE7FEE7FEE7B5
:10032000FEE7000005480649044A064B70470000F6
:1003300088ED00E0311E00088901000850AD012061
:1003400050B1012050AD0120704753EA020C00F07B
:1003500069802DE9F04B4FF00006002B1FBFB3FA68
:1003600083F503FA05F424FA05F65E4012BF16433E
:10037000B2FA82F502FA05F4C5F120051EBF22FA91
:1003800005FC44EA0C04203556EA044C4FEA1444B8
:1003900018BF641C4FF000084FF00009904271EB49
:1003A000030C39D3002919BFB1FA81F701FA07F616
:1003B000B0FA80F700FA07F6C7F120071EBF20FA4F
:1003C00007FC46EA0C062037B6FBF4FCA7EB050752
:1003D000103F07F01F0BCBF120060CFA0BFB2CFA99
:1003E00006F644BFB3460026202FA4BF5E464FF05A
:1003F000000B5BEA060C08BF4FF0010B19EB0B0971
:10040000ABFB027C48EB0608C01B06FB02CC0BFBD7
:1004100003CC71EB0C01C1E70B460246414648464E
:10042000BDE8F08B13B54FF000004FF00001AFF3C3
:100430000080BDE81C4070470FB4044910B503AA02
:10044000029800F0CBF910BC5DF814FB30000020DE
:100450002DE9F0410E460446002020622046E16866
:10046000884730B3252805D0D4E901219047206A78
:10047000401CF2E7E168204600278847050018D0B5
:10048000A5F14100192802D820354FF40067324603
:10049000294620462760FFF7B1FE40B1012804D06D
:1004A000F61D26F007060836D8E7361DD6E728469B
:1004B000DAE7206ABDE8F08170B50C460546012AEE
:1004C00005D02878800600D5EA69002302E00123E0
:1004D00005E05B1C934202D2E05C0028F9D1A869D8
:1004E000E618C01AA861286A184428622846AFF3A3
:1004F000008004E0D5E9012114F8010B9047B442D3
:10050000F8D32846AFF3008070BD00002DE9F0411C
:100510000646002410687529314616A510D0AFF3A1
:100520000080002802DA404213A507E031688A07FC
:1005300001D512A502E0490704D511A5012401E067
:10054000AFF3008000210A2206F1240709E0B0FB86
:10055000F2FCB0FBF2F302FB1C003030785418467A
:10056000491C0028F3D123462A463046BDE8F04115
:1005700000F0ACB8000000002D0000002B000000CF
:100580002000000070B504460D4621461068AFF308
:1005900000802188090502D50F4A7A4402E00E4AFC
:1005A0007A440E32002104F1240305E000F00F0626
:1005B0000009965D5E54491C0028F7D1207800237D
:1005C000000704D5702D02D009B102231132204654
:1005D000BDE8704000F07AB84EB60000032A40F241
:1005E000308010F0030C00F0158011F8013BBCF1D5
:1005F000020F624498BF11F801CB00F8013B38BFED
:1006000011F8013BA2F1040298BF00F801CB38BFFA
:1006100000F8013B11F0030300F0F280083AC0F04B
:10062000088051F8043B083A51F804CBA0E80810C0
:10063000F5E7121D5CBF51F8043B40F8043BAFF3F3
:100640000080D20724BF11F8013B11F801CB48BF4D
:1006500011F8012B24BF00F8013B00F801CB48BF83
:1006600000F8012B704702F0FF0343EA032242EA3D
:10067000024200F0F9B84FF0000200B5134694466C
:100680009646203922BFA0E80C50A0E80C50B1F1EA
:100690002001BFF4F7AF090728BFA0E80C5048BFFE
:1006A0000CC05DF804EB890028BF40F8042B08BF9C
:1006B000704748BF20F8022B11F0804F18BF00F898
:1006C000012B704770477047704770472DE9F0471E
:1006D0000D4699469246044600F1240801688806B2
:1006E00004D5E06921F01001216000E00120A8425A
:1006F00001DD471B00E00027A1697A1902EB090020
:10070000081AA0612078C00602D42046AFF300800A
:10071000002608E0D4E901211AF806009047206A73
:10072000401C761C20624E45F4DB2078C0060AD5BA
:100730002046AFF3008006E0D4E901213020904745
:10074000206A401C2062381EA7F10107F4DC07E094
:10075000D4E9012118F805009047206A401C206266
:10076000281EA5F10105F3DC2046AFF300802078B8
:10077000000602D50220BDE8F0870120FBE700005B
:1007800001694A1C02610878704700B58FB0CDE955
:1007900001310021059105497944CDE90310114645
:1007A0006846FFF755FE0FB000BD0000E5FFFFFFF4
:1007B00010B5436913B1AFF3008001E0FFF77CFE91
:1007C000012010BD127800F124010A7000224A7045
:1007D0000122EDE711684FF0FF32E9E7074B70B5F2
:1007E0000D467B44FFF7D1FF0446284600F05CF835
:1007F00010B14FF0FF3070BD204670BD931C00005B
:1008000010B5203AC0F00B80B1E81850203AA0E8AB
:100810001850B1E81850A0E81850BFF4F5AF5FEADF
:10082000027C24BFB1E81850A0E8185044BF18C992
:1008300018C0BDE810405FEA827C24BF51F8043B39
:1008400040F8043B08BF7047D20728BF31F8023B8D
:1008500048BF11F8012B28BF20F8023B48BF00F821
:10086000012B70474FF000020429C0F0128010F0F5
:10087000030C3FF402AFCCF1040CBCF1020F18BF23
:1008800000F8012BA8BF20F8022BA1EB0C01FFF709
:10089000F4BE5FEAC17C24BF00F8012B00F8012BF5
:1008A00048BF00F8012B7047007B00F080007047C4
:1008B000754600F02BF8AE4605006946534620F019
:1008C0000700854618B020B5FFF72CFDBDE8204095
:1008D0004FF000064FF000074FF000084FF0000BFC
:1008E00021F00701AC46ACE8C009ACE8C009ACE8AF
:1008F000C009ACE8C0098D46704710B50446AFF397
:1009000000802046BDE81040FFF792BC00487047C9
:10091000ECAC012000BFFEE77047000070B5044654
:100920001D460023B5F5804F13D154F822300C48F2
:100930000340D1E9000640EA06108E6840EA06202E
:100940008E8940EA06408E693043034344F82230E2
:1009500003E06FF0704044F82200002070BD0000FA
:100960000000F0CF10B503460022086853F820209D
:1009700012480240D1E901042043CC6820430C69AD
:1009800020434C6920438C692043CC6920430C6A86
:1009900020434C6A20438C6A2043CC6A2043CC6BB2
:1009A00020430C6B204302438868082801D142F0A1
:1009B0004002086843F82020002010BD8000F0FFAE
:1009C00030B503460024501C53F8204004F0404446
:1009D000D1E9000540EA05108D6840EA05208D89BF
:1009E00040EA0545088A401E45EA0055087D801EFC
:1009F00045EA00608D6928430443501C43F82040B9
:100A0000002030BD70B50446A56D00F085F906469E
:100A100094F83500022808D08020606500BF0020CF
:100A200084F8340000BF012070BD2068006820F009
:100A30001600216808602068406920F08000216865
:100A40004861206C08B9A06C28B12068006820F0CB
:100A50000800216808602068006820F00100216813
:100A600008600FE000F058F9801B05280AD9202003
:100A7000606500BF002084F8340000BF032084F8C4
:100A80003500D1E72068006800F001000028E9D1B6
:100A900094F85C103F208840A86000BF002084F8D4
:100AA000340000BF012084F835000020BCE7014677
:100AB00091F83500022803D0802048650120704756
:100AC000052081F835000868006820F001000A68F8
:100AD00010600020F3E70000F8B502460B46002541
:100AE000002400200021DEE0012606FA01F51E6840
:100AF00006EA0504AC4275D11E7906F00306012E04
:100B000004D01E7906F00306022E13D190684F0020
:100B10000326BE40B0434F00DE68BE4030439060C5
:100B2000506801268E40B0431E79C6F300168E40F1
:100B3000304350601E7906F00306032E09D0D068BA
:100B40004F000326BE40B0434F009E68BE40304376
:100B5000D0601E7906F00306022E13D1CF0802F1F1
:100B6000200656F827004E07F70E0F26BE40B0436A
:100B70004F07FF0E1E69BE403043CF0802F120062A
:100B800046F8270010684F000326BE40B0431E7988
:100B900006F003064F00BE40304310605E6806F06A
:100BA0008056B6F1805F7DD100BF00260096404E92
:100BB000366846F480463E4F3E603E46366806F450
:100BC0008046009600BF00BF3A4E8F0856F82700B7
:100BD0008E07370F0F26BE40B043374EB24202D1C8
:100BE000002624E05EE0354EB24201D101261EE02F
:100BF000334EB24201D1022619E0324EB24201D147
:100C0000032614E0304EB24201D104260FE02F4EED
:100C1000B24201D105260AE02D4EB24201D106268C
:100C200005E02C4EB24201D1072600E008268F07CE
:100C30003F0FBE4030431F4E8F0846F82700264E18
:100C40003068A0435E6806F48036B6F5803F00D178
:100C50002043214E3060361D3068A0435E6806F4A4
:100C60000036B6F5003F00D120431B4E361D3060E4
:100C7000361D3068A0435E6806F48016B6F5801F06
:100C800000D12043144E08363060361D3068A04332
:100C90005E6806F40016B6F5001F00D120430E4E24
:100CA0000C363060491C1029FFF41EAFF8BD00005F
:100CB000443802400838014000000240000402406D
:100CC00000080240000C02400010024000140240E4
:100CD00000180240001C0240003C0140024613691B
:100CE0000B400BB1012000E00020704710B54269B5
:100CF00021EA020302EA010443EA0443836110BDCE
:100D00000AB1816101E00B0483617047014800680A
:100D1000000C7047002004E00148006870470000A4
:100D20003800002003480068034909780844014955
:100D300008607047380000204000002010B50A48C5
:100D4000006840F40070084908600846006840F4F4
:100D500080600860032000F07FF80F2000F006F8A4
:100D600000F02AF8002010BD003C024070B5044697
:100D70000E4800784FF47A71B1FBF0F00C49096825
:100D8000B1FBF0F5284600F09BFC08B1012070BDD6
:100D9000102C07D200222146501E00F01EF80548F4
:100DA000046001E00120F2E70020F0E740000020AD
:100DB000000000203C000020704701460846002843
:100DC00009DB00F01F0301229A4043099B0003F155
:100DD000E023C3F8002100BF70472DE9F05F804693
:100DE0000D461646002701F075FA074639462A4691
:100DF000334601F00700C0F1070ABAF1040F02D927
:100E00004FF0040A01E0C0F1070AD14600F1040ADC
:100E1000BAF1070F02D24FF0000A01E0A0F1030A75
:100E2000D4464FF0010A0AFA09FAAAF1010A0AEABD
:100E3000020A0AFA0CFA4FF0010B0BFA0CFBABF1A9
:100E4000010B0BEA030B4AEA0B042146404601F072
:100E500049FABDE8F09F000000BF00F00702064B12
:100E600019684FF6FF031940044B0B4343EA022174
:100E7000014B196000BF70470CED00E00000FA055F
:100E800070B504460D460CB9012070BD5848006885
:100E900000F00700A84209D255490D7008460068C5
:100EA00000F00700A84201D00120EEE7207800F012
:100EB000020002281DD1207800F00400042805D18A
:100EC0004C48006840F4E0504A490860207800F03F
:100ED0000800082805D14748006840F460404549AB
:100EE00008604448006820F0F000A16808434149C8
:100EF0000860207800F00100A8B36068012807D1DD
:100F00003C4808380068C0F34040B8B90120BCE74D
:100F10006068022802D06068032807D13548083885
:100F20000068C0F3406048B90120AEE73148083896
:100F30000068C0F3400008B90120A6E72D4800680A
:100F400020F00300616808432A490860FFF7E4FEC7
:100F5000064609E0FFF7E0FE801B41F28831884237
:100F600002D9032091E707E02248006800F00C0056
:100F70006168B0EB810FEDD11D48006800F00700FB
:100F8000A84209D91A490D700846006800F0070008
:100F9000A84201D0012078E7207800F0040004285E
:100FA00007D11448006820F4E050E1680843114973
:100FB0000860207800F00800082808D10D48006873
:100FC00020F46040216940EAC1000A49086000F04D
:100FD0003FF808490968C1F30311074A515CC8404A
:100FE0000649086006480068FFF7C0FE00204CE78D
:100FF000003C0240083802402E8C0008000000200F
:101000003C000020014800687047000000000020FC
:1010100000B5FFF7F7FF04490968C1F38221034ACD
:10102000515CC84000BD0000083802403E8C0008FA
:1010300000B5FFF7E7FF04490968C1F34231034AED
:10104000515CC84000BD0000083802403E8C0008DA
:101050002DE9F047002400250026A1462548006818
:1010600000F00C0020B1042805D008283AD105E092
:10107000DFF8849039E0DFF8849036E01D48001FE7
:10108000006800F03F041B48001F006800F4800067
:1010900078B11A481749091F0968C1F38811A0FBE4
:1010A00001700146224600233846FFF74EF90546F7
:1010B0000EE011480F49091F0968C1F38811A0FB10
:1010C00001700146224600233846FFF73EF90546E7
:1010D0000848001F0068C0F30140401C4600B5FBF3
:1010E000F6F902E0DFF8109000BF00BF4846BDE807
:1010F000F0870000083802400024F40000127A0053
:10110000F8B504460CB90120F8BD207800F00100C4
:10111000002874D0F948006800F00C0004280DD0B5
:10112000F648006800F00C00082813D1F348001FAF
:10113000006800F48000B0F5800F0BD1EF4808384C
:101140000068C0F34040002859D06068002856D19C
:101150000120D9E700BF6068B0F5803F08D1E748BB
:101160000838006840F48030E449083908601EE01F
:101170006068B0F5A02F0DD1E0480838006840F451
:101180008020DE49083908600846006840F4803055
:1011900008600CE0D9480838006820F48030D7494E
:1011A000083908600846006820F48020086000BF05
:1011B000606890B1FFF7B0FD054606E0FFF7ACFDB3
:1011C000401B642801D903209EE7CC4808380068FA
:1011D000C0F340400028F1D011E0FFF79DFD054627
:1011E00006E0FFF799FD401B642801D903208BE737
:1011F000C24808380068C0F340400028F1D1207888
:1012000000F0020002285FD1BC48006800F00C002A
:1012100058B1BA48006800F00C0008281CD1B74843
:10122000001F006800F48000B0B9B44808380068B6
:10123000C0F3400020B1E068012801D0012063E73D
:10124000AE480838006820F0F800216940EAC10083
:10125000AA490839086037E0E06800B30120A849CE
:101260000860FFF759FD054606E0FFF755FD401BF6
:10127000022801D9032047E7A04808380068C0F3D6
:1012800040000028F1D09D480838006820F0F800A0
:10129000216940EAC10099490839086014E000203A
:1012A00097490860FFF738FD054606E0FFF734FD73
:1012B000401B022801D9032026E79048083800681F
:1012C000C0F340000028F1D1207800F00800082881
:1012D0002CD16069A8B101208A490860FFF71CFD84
:1012E000054606E0FFF718FD401B022801D9032040
:1012F0000AE782486C300068C0F340000028F1D053
:1013000014E000207F490860FFF706FD054606E06F
:10131000FFF702FD401B022801D90320F4E67748BD
:101320006C300068C0F340000028F1D1207800F054
:101330000400042870D1002770483830006800F09D
:10134000805090B900BF002000906C483830006891
:1013500040F080506949383108600846006800F064
:101360008050009000BF00BF01276748006800F46C
:101370008070B0B96448006840F4807062490860C9
:10138000FFF7CAFC054606E0FFF7C6FC401B022833
:1013900001D90320B8E65C48006800F4807000289A
:1013A000F2D000BFA068012808D154486830006816
:1013B00040F001005149683108601DE0A06805282F
:1013C0000DD14E486830006840F004004B49683148
:1013D00008600846006840F0010008600CE04748DB
:1013E0006830006820F00100444968310860084610
:1013F000006820F00400086000BFA068A8B1FFF7F3
:101400008BFC054609E0FFF787FC401B41F2883161
:10141000884202D9032077E626E038486830006821
:10142000C0F340000028EED013E0FFF775FC05463E
:1014300008E0FFF771FC401B41F28831884201D976
:10144000032061E62D4868300068C0F340000028A2
:10145000EFD1012F07D129483830006820F08050A3
:1014600026493831086000BFA069002845D02348CC
:10147000006800F00C0008285DD0A069022845D162
:1014800000201F490866FFF747FC054606E0FFF706
:1014900043FC401B022801D9032035E617480838D1
:1014A0000068C0F340600028F1D1D4E90701084387
:1014B000616A40EA81110122A06AC2EB500041EA50
:1014C00000412C20005D41EA00600C49091F0860C2
:1014D00001200B490866FFF71FFC054606E0FFF7F1
:1014E0001BFC401B022801D903200DE603480838E5
:1014F0000068C0F340600028F1D049E0083802409D
:1015000000004742800E4742007000400020214901
:101510000866FFF701FC054606E0FFF7FDFB401BF0
:10152000022801D90320EFE51B480068C0F34060A2
:101530000028F2D12CE0A069012800D1E4E516488A
:10154000001D0668A069012820D006F48001E0692A
:1015500081421BD106F03F01206A814216D147F635
:10156000C0703040616AB0EB811F0FD106F440318A
:101570000122A06AC2EB5000B1EB004F06D106F089
:1015800070612C20005DB1EB006F01D00120BBE544
:101590000020B9E5000047420038024070B504461B
:1015A0000E4615460CB9012070BD94F8490028B9C3
:1015B000002084F84800204600F01CF804F10801DF
:1015C0002068FFF7CFF93146A2682068FFF7F8F9E5
:1015D0002946236BD4E90102FFF7A0F9A16820682E
:1015E00050F8210040F00100A268216841F8220073
:1015F0000020D9E710B586B0044600BF0020009057
:101600002248006840F00100204908600846006850
:1016100000F00100009000BF00BF00BF002000905C
:101620001A480838006840F008001849083908606E
:101630000846006800F00800009000BF00BF00BF2F
:10164000002000900846006840F01000086008463E
:10165000006800F01000009000BF00BF4CF2037063
:1016600001900220029001200390022004900C209F
:10167000059001A90648FFF72FFA4FF680700190F8
:1016800001A90448FFF728FA06B010BD3838024017
:10169000000C024000100240042808D14FF0E02165
:1016A000096941F004014FF0E022116107E04FF0B9
:1016B000E021096921F004014FF0E0221161704737
:1016C00070B504462546681EB0F1807F01D3012025
:1016D0000FE0681E4FF0E02148610F214FF0FF300E
:1016E00000F000FE00204FF0E02188610720086133
:1016F000002070BD70477047704710B504462068E1
:101700000069C0F34000D8B12068C068C0F3400051
:10171000B0B16FF0020021680861012020772068D5
:10172000806900F0030018B12046FFF7E5FF05E0EF
:10173000204600F0ADF8204600F0ABF800202077FE
:1017400020680069C0F38000D8B12068C068C0F389
:101750008000B0B16FF0040021680861022020779A
:101760002068806900F4407018B12046FFF7C4FF7C
:1017700005E0204600F08CF8204600F08AF80020B2
:10178000207720680069C0F3C000D8B12068C06825
:10179000C0F3C000B0B16FF00800216808610420F8
:1017A00020772068C06900F0030018B12046FFF7D9
:1017B000A3FF05E0204600F06BF8204600F069F832
:1017C0000020207720680069C0F30010D8B120689D
:1017D000C068C0F30010B0B16FF01000216808615C
:1017E000082020772068C06900F4407018B12046B6
:1017F000FFF782FF05E0204600F04AF8204600F09F
:1018000048F8002020772068006900F0010058B1F6
:101810002068C06800F0010030B16FF0010021685D
:101820000861204600F036F820680069C0F3C01057
:1018300058B12068C068C0F3C01030B16FF08000AC
:10184000216808612046FFF755FF20680069C0F352
:10185000801058B12068C068C0F3801030B16FF0BC
:10186000400021680861204600F026F820680069E1
:10187000C0F3401058B12068C068C0F3401030B1C8
:101880006FF02000216808612046FFF734FF10BD8B
:101890007047704710B504460548844206D100BF22
:1018A0004FF480610348FFF721FA00BF10BD00002C
:1018B000BC02002000140240704770477047014688
:1018C0000022002391F83D2091F83E3042EA0300C7
:1018D000704700002DE9F84F04462068056820682D
:1018E000C668206847694FF00009CA4605F00F092D
:1018F000B9F1000F0AD105F0200038B106F0200040
:1019000020B1204600F0DBFABDE8F88FB9F1000FF6
:1019100072D007F0010018B906F4907000286BD05F
:1019200005F0010030B106F4807018B1206C40F071
:101930000100206405F0040030B107F0010018B187
:10194000206C40F00200206405F0020030B107F086
:10195000010018B1206C40F00400206405F008007C
:1019600048B106F0200010B907F0010018B1206C52
:1019700040F008002064206C70B305F0200028B10E
:1019800006F0200010B1204600F099FA2068406966
:10199000C0F3801A206C00F0080010B9BAF1000FF3
:1019A00023D0204600F060FA2068406900F0400033
:1019B000402816D12068406920F040002168486125
:1019C000A06B50B15648A16B0865A06BFFF76FF88C
:1019D00010B1A06B016D88470CE02046FFF76EFF49
:1019E00008E02046FFF76AFF04E02046FFF766FFA5
:1019F0000020206488E7FFE7206B012879D105F0FB
:101A00001000002875D006F01000002871D000BF2B
:101A100000200090206800680090206840680090D6
:101A200000BF00BF2068406900F04000402839D165
:101A3000A06B006840681FFA80F8B8F1000F30D042
:101A4000A08D40452DDDA4F82E80A06BC069B0F5B7
:101A5000807F1FD02068C06820F480702168C86033
:101A60002068406920F001002168486120684069D1
:101A700020F0400021684861202084F83E000020CA
:101A800020632068C06820F010002168C860A06B47
:101A9000FEF7B8FFA08DE28D801A81B22046FFF7D5
:101AA0000CFF31E7A08DE18D401A1FFA80F8E08D20
:101AB000E8B1B8F1000F1AD02068C06820F4907027
:101AC0002168C8602068406920F0010021684861F1
:101AD000202084F83E00002020632068C06820F0A9
:101AE00010002168C86041462046FFF7E6FE0BE77C
:101AF000FFE705F0800030B106F0800018B1204605
:101B000000F075FB00E705F0400030B106F0400042
:101B100018B1204600F0C3F9F6E600BFF4E6000075
:101B2000551E000810B504460CB9012010BDA0696F
:101B300000B100E000BF94F83D0028B9002084F80F
:101B40003C00204600F028F8242084F83D0020685E
:101B5000C06820F400502168C860204600F00EFAEA
:101B60002068006920F4904021680861206840697D
:101B700020F02A00216848612068C06840F40050C5
:101B80002168C86000202064202084F83D0084F88B
:101B90003E000020CAE7000010B586B004462E497A
:101BA0002068884255D100BF00BF002000902B481C
:101BB000006840F01000294908600846006800F0FD
:101BC0001000009000BF00BF00BF00BF00BF00209A
:101BD000009022481438006840F001001F49143971
:101BE00008600846006800F00100009000BF00BFD8
:101BF00000BF00BF00BF002000900846006840F012
:101C0000010008600846006800F00100009000BF75
:101C100000BF00BF481501900220029001200390F0
:101C2000022004900720059001A90D48FEF754FFFB
:101C30004FF4806001900720059001A90848FEF745
:101C40004BFF2520FFF7B9F8032211462520FFF7A7
:101C5000C4F806B010BD0000001001404438024036
:101C60000000024070B504460D46164694F83E004A
:101C7000202816D105B10EB9012070BD00BF94F81F
:101C80003C00012801D10220F7E7012084F83C0044
:101C900000BF0020206332462946204600F084FA27
:101CA000EBE70220E9E700001D4A0168914236D1C6
:101CB0001C49098801F4004189BB1A49098801F4CB
:101CC000804171B1184909780A2903D00021154AC9
:101CD000118024E01349098841F40041114A118020
:101CE0001DE0114909780D2906D10E49098841F4F2
:101CF00080410C4A118012E00B490978094A128888
:101D0000C2F30D02094B995406490988491C054A3A
:101D1000118011460988C72901DD00211180704713
:101D20000010014034000020360000200001002097
:101D3000704700BFFEE700BFFEE770472DE9F047A0
:101D40000C46DDE90867002100258C4600BF60E0F5
:101D50004FF0010808FA01F504EA050CAC4557D12B
:101D6000D0F800804FEA410A4FF0030909FA0AF956
:101D700028EA0908C0F80080D0F800804FEA41093D
:101D800002FA09F948EA0908C0F80080012A01D0DE
:101D9000022A27D1D0F808804FEA410A4FF0030900
:101DA00009FA0AF928EA0908C0F80880D0F808807A
:101DB0004FEA410906FA09F948EA0908C0F808801B
:101DC000D0F804904FF0010808FA01F829EA080950
:101DD000C0F80490D0F8048003FA01F948EA090831
:101DE000C0F80480D0F80C804FEA410A4FF0030994
:101DF00009FA0AF928EA0908C0F80C80D0F80C8022
:101E00004FEA410907FA09F948EA0908C0F80C80C5
:101E1000491C10299CD3BDE8F08710B5FEF782FF5E
:101E200006F0FCF9012801D005F0BAFD10BD000054
:101E30000348006840F470000149086070470000E2
:101E400088ED00E010B50248FFF757FC10BD000018
:101E5000BC02002070B50546AC6B0020E085E08434
:101E60002046FFF72BFD70BD0168C96821F4907111
:101E70000268D1600168496921F00101026851617D
:101E8000016B012905D10168C96821F010010268C0
:101E9000D160202180F83E1000210163704710B509
:101EA00004462068C06820F040002168C8602020F7
:101EB00084F83D002046FFF73BFF002010BD70B5C1
:101EC000044694F83E00222856D1A068B0F5805F01
:101ED0000CD1206950B90025A66A20684068C0F37B
:101EE00008003080A06A801CA06215E0A56A002668
:101EF000A068B0F5805F03D0A06828B9206918B940
:101F000020684068287004E02068406800F07F0086
:101F10002870A06A401CA062E08D401E80B2E0855F
:101F200040BB2068C06820F020002168C86020689D
:101F3000C06820F480702168C8602068406920F083
:101F4000010021684861202084F83E00206B0128B0
:101F50000AD12068C06820F010002168C860A18DF7
:101F60002046FFF7AAFC02E02046FFF79DFE002076
:101F7000206370BD0020FCE70220FAE72DE9F84F4E
:101F800004462068006920F44050E1680843216855
:101F900008612169A068084361690843E169084351
:101FA00000902068C06849F20C618843009908439A
:101FB0002168C8602068406920F44070A169084326
:101FC0002168486176492068884203D075492068B5
:101FD000884203D1FFF72CF8814602E0FFF718F89A
:101FE0008146E069B0F5004F6CD102206168A0FB2A
:101FF000015003461920A9FB007001462A463846C5
:10200000FEF7A3F96421B0FBF1F04FEA001A0220B9
:102010006168A0FB01510B461920A9FB00712A46FB
:102020003846FEF792F9834602206168A0FB015012
:1020300003461920A9FB00712A463846FEF785F9A8
:102040006421B0FBF1F000EBC00101EB0010ABEB41
:102050008000322101EBC0006421B0FBF1F000F000
:10206000F8000AEB400A02206168A0FB0150034619
:102070001920A9FB007001462A463846FEF765F98B
:10208000834602206168A0FB015003461920A9FB8A
:1020900000712A463846FEF758F96421B0FBF1F08A
:1020A00000EBC00101EB0010ABEB8000322101EB33
:1020B000C0006421B0FBF1F000F00700504421683B
:1020C00088606AE004206168A0FB01500346192083
:1020D000A9FB007001462A463846FEF736F98246CB
:1020E00004206168A0FB015003461920A9FB007081
:1020F00001462A463846FEF728F96421B0FBF1F084
:1021000000EBC00101EB0010AAEB8000322101EBD3
:1021100000106421B0FBF1F000F0F00A04206168C7
:10212000A0FB017003461920A9FB00513A4628463E
:10213000FEF70BF96421B0FBF1F00AEB001A042062
:102140006168A0FB01510B461920A9FB00712A46CA
:102150003846FEF7FAF8834604206168A0FB015078
:1021600003461920A9FB007001462A463846FEF7AF
:10217000ECF86421B0FBF1F000EBC00101EB0010C2
:10218000ABEB8000322101EB00106421B0FBF1F0D9
:1021900000F00F00504421688860BDE8F88F00000F
:1021A000001001400014014010B5034699629A8561
:1021B000DA8500201864222083F83E0000BF00204A
:1021C00083F83C0000BF1868C06840F480701C6849
:1021D000E0601868406940F001001C6860611868A0
:1021E000C06840F020001C68E060002010BD01467F
:1021F00091F83D00212828D18868B0F5805F0BD187
:10220000086948B90A6A1088C0F308000B6858606A
:10221000086A801C086205E00B6A581C086218787E
:102220000B685860C88C401E80B2C88458B90868D2
:10223000C06820F080000B68D8600868C06840F073
:1022400040000B68D860002070470220FCE70000C7
:1022500070B500240F4D1048FFF73CFB00BF03E0B2
:10226000641CAC4200D904E00B48FFF728FB20288F
:10227000F6D100BF002403E0641CAC4200D906E0A4
:10228000012206490448FFF7EDFC0028F4D100BF05
:1022900070BD0000FFFF0100C801002036000020D3
:1022A00000BFFEE770B50621302004F067FC302047
:1022B00004F074FB0546062D03D00621302004F0FF
:1022C0005DFC002403E006F067FB601C84B2C82CB0
:1022D000F9DB70BD02480068C0F3022070470000BF
:1022E0000CED00E010B5002804DB0A07130E054AC8
:1022F000135406E00A07140E034A00F00F031B1FD5
:10230000D45410BD00E400E018ED00E000BF7047B9
:1023100000F00101194A1160C0F34001184AC2F8E7
:102320008412C0F38001154A08321160C0F3001115
:10233000121F1160C0F34011104A3C321160C0F30B
:102340008011104A1160C0F3C0110C4A383211607C
:10235000C0F300210B4A121D1160C0F34021074A4F
:1023600034321160C0F38021044A14321160C0F38A
:10237000C021024A0C321160704700008082424244
:10238000000043429002434200F00101104A1160F4
:10239000C0F340010F4AC2F8BC12C0F380010C4ADE
:1023A000383A1160C0F3C001121D1160C0F3001172
:1023B000094A1160C0F34011121D1160C0F3801171
:1023C000121D1160C109054AC2F8A8127047000029
:1023D000B8824142008041429C0242420000424297
:1023E00070B504460420FFF757F90A4804602546F3
:1023F0004FF47A7045434FF0E020006940F002004E
:102400004FF0E021086108464561006940F0010095
:10241000086170BD2C00002030B50446002504E0A2
:102420004FF47A7000F004F86D1CA542F8D330BD6B
:1024300070B5034600224FF0E02675690D4E3668F0
:1024400003FB06F44FF0E026B16910E04FF0E02600
:10245000B06988420BD0884202D20E1A324402E0A0
:102460002E1A0E4432440146A24200D300E0EDE7AA
:1024700000BF70BD2C00002000BF054A126802F0AA
:102480004002002AF9D0C2B2014B5A6070470000E6
:10249000001001400EB54FF4784027A120221346CA
:1024A000CDE900210290DC220A21084603F0D2F88F
:1024B0004FF4784022A118221346CDE90021029062
:1024C000DC222F210A2003F0C5F84FF4784020A128
:1024D00010221346CDE900210290DC224C210A2073
:1024E00003F0B8F81F201EA110221346CDE90021E9
:1024F0000290C8226F21362003F0ACF800204FF480
:102500009D73EA226E210090052000F035FA00202C
:102510008223EA2219460090052000F0C7F91548E9
:10252000012100238022CDE9001013A1154805F0F8
:1025300045FE05F099F80EBD53544D3332000000AE
:10254000436F756E742053656D6170686F726500BE
:1025500041544F4D40414C49454E54454B000000BD
:102560004E6F746966792056616C75653A2020302B
:10257000000000000400002073746172745F7461D5
:10258000736B0000616C000800B587B000BF00BF2E
:10259000002001903848006840F01000364908607B
:1025A0000846006800F01000019000BF00BF00BFA7
:1025B00000BF00BF002001900846006840F01000F6
:1025C00008600846006800F01000019000BF00BFDE
:1025D00000BF00BF00BF002001900846006840F027
:1025E000100008600846006800F01000019000BF6D
:1025F00000BF00BF00BF00BF002001900846006878
:1026000040F0010008600846006800F001000190F9
:1026100000BF00BF00BF10200290002003900120E7
:1026200004900220059002A91448FEF755FA0820EC
:10263000029000200390012004900220059002A93E
:102640000E48FEF749FA0420029000200390012072
:1026500004900220059002A90848FEF73DFA0120E7
:1026600002900020039002200490059002A90448E3
:10267000FEF732FA07B000BD3038024000100240C9
:102680000000024070B50446002514B101202B491A
:1026900008702A480078002834D010212848FEF716
:1026A0001DFB78B108212648FEF718FB50B1042124
:1026B0002348FEF713FB28B101212248FEF70EFB49
:1026C00001281FD10A20FFF7A7FE00201B49087030
:1026D00010211B48FEF702FB00B90125082118480C
:1026E000FEF7FCFA00B9022504211548FEF7F6FAB8
:1026F00000B9032501211348FEF7F0FA01281BD188
:10270000042519E010210E48FEF7E8FA012813D13C
:1027100008210B48FEF7E2FA01280DD104210848F0
:10272000FEF7DCFA012807D101210648FEF7D6FAA8
:1027300010B9012001490870284670BD4C000020E6
:10274000001002400000024070B50446002609480F
:102750000588408845430021084602F04BFE03F0FF
:1027600059F800BF02E004480480761CAE42FAD358
:1027700070BD00005C0200208000006C10B50446B3
:1027800049488471002C45D1F020474908804FF416
:10279000A07048800846808845F21051884210D1C8
:1027A0004FF43050404908814FF4285048814FF48D
:1027B0002C5088814FF4F07008804FF448704880A6
:1027C0001AE03948808841F6631188420DD12C20E7
:1027D000354908812B2048812A2088814FF4F070E8
:1027E00008804FF44870488006E02C202E4908816C
:1027F0002A2048812B2088812B48808845F210317F
:1028000088424CD14FF4A070274908804FF4F070F3
:10281000488044E04FF4A07023490880F0204880AD
:102820000846808845F21051884210D14FF430504C
:102830001D4908814FF4285048814FF42C5088815D
:102840004FF4487008804FF4F07048801AE0164842
:10285000808841F6631188420DD12C2012490881ED
:102860002A2048812B2088814FF4487008804FF43B
:10287000F070488006E02C200B4908812A2048810E
:102880002B2088810848808845F21031884206D183
:102890004FF4F070044908804FF4A0704880002085
:1028A00002F090FC10BD00005C0200202DE9FF4FFB
:1028B00084B081468A460020029083460698A0EBA9
:1028C00009050798A0EB0A06CDF80490CDF800A002
:1028D000002D01DD012705E00DB9002702E04FF0D2
:1028E000FF376D42002E02DD4FF0010806E016B9F9
:1028F0004FF0000802E04FF0FF387642B54201DDAC
:102900002C4600E03446002003901EE0009A91B26D
:10291000019A90B2119A00F01FF802982844029090
:10292000B3440298A04205DD0298001B0290019872
:1029300038440190A34504DDABEB040B0098404400
:1029400000900398401C80B20390611C0398884259
:10295000DCDD08B0BDE8F08F70B505460E461446C4
:102960003146284602F046FD02F054FF01490C8032
:1029700070BD00008000006C2DE9F84105460E4650
:1029800017469846079C33463A46314628460094F7
:10299000FFF78CFF43462A46314628460094FFF74E
:1029A00085FF43463A46414628460094FFF77EFF9E
:1029B00043463A46314638460094FFF777FFBDE874
:1029C000F88110B5CF2002F019FF002002F00AFFB5
:1029D000C12002F007FF302002F004FFED2002F0DA
:1029E0000DFF642002F0FEFE032002F0FBFE122029
:1029F00002F0F8FE812002F0F5FEE82002F0FEFE73
:102A0000852002F0EFFE102002F0ECFE7A2002F0AA
:102A1000E9FECB2002F0F2FE392002F0E3FE2C208A
:102A200002F0E0FE002002F0DDFE342002F0DAFECB
:102A3000022002F0D7FEF72002F0E0FE202002F094
:102A4000D1FEEA2002F0DAFE002002F0CBFE0020E8
:102A500002F0C8FEC02002F0D1FE1B2002F0C2FE30
:102A6000C12002F0CBFE012002F0BCFEC52002F026
:102A7000C5FE302002F0B6FE302002F0B3FEC720C3
:102A800002F0BCFEB72002F0ADFE362002F0B6FE2A
:102A9000482002F0A7FE3A2002F0B0FE552002F0D6
:102AA000A1FEB12002F0AAFE002002F09BFE1A2037
:102AB00002F098FEB62002F0A1FE0A2002F092FE7B
:102AC000A22002F08FFEF22002F098FE002002F019
:102AD00089FE262002F092FE012002F083FEE02013
:102AE00002F08CFE0F2002F07DFE2A2002F07AFE1A
:102AF000282002F077FE082002F074FE0E2002F07B
:102B000071FE082002F06EFE542002F06BFEA92038
:102B100002F068FE432002F065FE0A2002F062FE29
:102B20000F2002F05FFE002002F05CFE002002F0A9
:102B300059FE002002F056FE002002F053FEE12074
:102B400002F05CFE002002F04DFE152002F04AFE6D
:102B5000172002F047FE072002F044FE112002F089
:102B600041FE062002F03EFE2B2002F03BFE5620E6
:102B700002F038FE3C2002F035FE052002F032FE65
:102B8000102002F02FFE0F2002F02CFE3F2002F05A
:102B900029FE3F2002F026FE0F2002F023FE2B200C
:102BA00002F02CFE002002F01DFE002002F01AFEB2
:102BB000012002F017FE3F2002F014FE2A2002F04E
:102BC0001DFE002002F00EFE002002F00BFE002091
:102BD00002F008FEEF2002F005FE112002F00EFECA
:102BE0007820FFF719FC292002F008FE10BD10B56F
:102BF000ED2002F003FE012002F0F4FDFE2002F0C1
:102C0000F1FDEE2002F0FAFDDE2002F0EBFD2120C6
:102C100002F0E8FDF12002F0F1FD012002F0E2FDFA
:102C2000DF2002F0EBFD102002F0DCFDC42002F0FA
:102C3000E5FD8F2002F0D6FDC62002F0DFFD00206A
:102C400002F0D0FDE22002F0CDFDE22002F0CAFD4C
:102C5000E22002F0C7FDBF2002F0D0FDAA2002F062
:102C6000C1FDB02002F0CAFD0D2002F0BBFD002026
:102C700002F0B8FD0D2002F0B5FD002002F0B2FD1B
:102C8000112002F0AFFD002002F0ACFD192002F08F
:102C9000A9FD002002F0A6FD212002F0A3FD0020E6
:102CA00002F0A0FD2D2002F09DFD002002F09AFD13
:102CB0003D2002F097FD002002F094FD5D2002F01F
:102CC00091FD002002F08EFD5D2002F08BFD0020C2
:102CD00002F088FDB12002F091FD802002F082FD1B
:102CE000002002F07FFD8B2002F07CFD002002F02E
:102CF00079FD962002F076FD002002F073FDB220EF
:102D000002F07CFD002002F06DFD002002F06AFD63
:102D1000022002F067FD002002F064FD032002F0B3
:102D200061FD002002F05EFDB32002F067FD00208F
:102D300002F058FD002002F055FD002002F052FD87
:102D4000002002F04FFD002002F04CFD002002F0B8
:102D500049FD002002F046FD002002F043FD002066
:102D600002F040FD002002F03DFD002002F03AFD9F
:102D7000002002F037FD002002F034FD002002F0B8
:102D800031FD002002F02EFD002002F02BFD00207E
:102D900002F028FD002002F025FD002002F022FDB7
:102DA000002002F01FFD002002F01CFD002002F0B8
:102DB00019FD002002F016FD002002F013FDB420E2
:102DC00002F01CFD8B2002F00DFD002002F00AFD38
:102DD000962002F007FD002002F004FDA12002F081
:102DE00001FD002002F0FEFCB52002F007FD0220EC
:102DF00002F0F8FC002002F0F5FC032002F0F2FCE7
:102E0000002002F0EFFC042002F0ECFC002002F0B5
:102E1000E9FCB62002F0F2FC002002F0E3FC002006
:102E200002F0E0FCB72002F0E9FC002002F0DAFC3E
:102E3000002002F0D7FC3F2002F0D4FC002002F07A
:102E4000D1FC5E2002F0CEFC002002F0CBFC64201E
:102E500002F0C8FC002002F0C5FC8C2002F0C2FC8D
:102E6000002002F0BFFCAC2002F0BCFC002002F00D
:102E7000B9FCDC2002F0B6FC002002F0B3FC7020AC
:102E800002F0B0FC002002F0ADFC902002F0AAFCA1
:102E9000002002F0A7FCEB2002F0A4FC002002F0CE
:102EA000A1FCDC2002F09EFC002002F09BFCB8207C
:102EB00002F0A4FC002002F095FC002002F092FC3D
:102EC000002002F08FFC002002F08CFC002002F0B9
:102ED00089FC002002F086FC002002F083FC002028
:102EE00002F080FCBA2002F089FC242002F07AFC77
:102EF000002002F077FC002002F074FC002002F0B9
:102F000071FCC12002F07AFC202002F06BFC002052
:102F100002F068FC542002F065FC002002F062FC24
:102F2000FF2002F05FFC002002F05CFCC22002F0F7
:102F300065FC0A2002F056FC002002F053FC04203D
:102F400002F050FC002002F04DFCC32002F056FCC1
:102F50003C2002F047FC002002F044FC3A2002F042
:102F600041FC002002F03EFC392002F03BFC002036
:102F700002F038FC372002F035FC002002F032FC71
:102F80003C2002F02FFC002002F02CFC362002F046
:102F900029FC002002F026FC322002F023FC002055
:102FA00002F020FC2F2002F01DFC002002F01AFC91
:102FB0002C2002F017FC002002F014FC292002F063
:102FC00011FC002002F00EFC262002F00BFC002079
:102FD00002F008FC242002F005FC002002F002FCB4
:102FE000242002F0FFFB002002F0FCFB232002F073
:102FF000F9FB002002F0F6FB3C2002F0F3FB00207E
:1030000002F0F0FB362002F0EDFB002002F0EAFBBC
:10301000322002F0E7FB002002F0E4FB2F2002F058
:10302000E1FB002002F0DEFB2C2002F0DBFB0020A5
:1030300002F0D8FB292002F0D5FB002002F0D2FBE1
:10304000262002F0CFFB002002F0CCFB242002F06F
:10305000C9FB002002F0C6FB242002F0C3FB0020C5
:1030600002F0C0FB232002F0BDFB002002F0BAFBFF
:10307000C42002F0C3FB622002F0B4FB002002F087
:10308000B1FB052002F0AEFB002002F0ABFB842078
:1030900002F0A8FB002002F0A5FBF02002F0A2FB4A
:1030A000002002F09FFB182002F09CFB002002F0A1
:1030B00099FBA42002F096FB002002F093FB18205D
:1030C00002F090FB002002F08DFB502002F08AFB02
:1030D000002002F087FB0C2002F084FB002002F0AD
:1030E00081FB172002F07EFB002002F07BFB952085
:1030F00002F078FB002002F075FBF32002F072FB77
:10310000002002F06FFBE62002F06CFB002002F0D2
:1031100069FBC52002F072FB322002F063FB002045
:1031200002F060FB442002F05DFB002002F05AFB3D
:10313000652002F057FB002002F054FB762002F0DD
:1031400051FB002002F04EFB882002F04BFB0020D8
:1031500002F048FBC62002F051FB202002F042FBA7
:10316000002002F03FFB172002F03CFB002002F0A1
:1031700039FB012002F036FB002002F033FBC720B0
:1031800002F03CFB002002F02DFB002002F02AFBA5
:10319000002002F027FB002002F024FBC82002F0F0
:1031A0002DFB002002F01EFB002002F01BFB002084
:1031B00002F018FB002002F015FBC92002F01EFBF4
:1031C000002002F00FFB002002F00CFB002002F0B8
:1031D00009FB002002F006FB002002F003FB0020A8
:1031E00002F000FB002002F0FDFA002002F0FAFAE3
:1031F000002002F0F7FA002002F0F4FA002002F0BA
:10320000F1FA002002F0EEFA002002F0EBFA0020C2
:1032100002F0E8FA002002F0E5FA002002F0E2FAFB
:10322000E02002F0EBFA162002F0DCFA002002F0B7
:10323000D9FA1C2002F0D6FA002002F0D3FA21209D
:1032400002F0D0FA002002F0CDFA362002F0CAFADD
:10325000002002F0C7FA462002F0C4FA002002F073
:10326000C1FA522002F0BEFA002002F0BBFA64203C
:1032700002F0B8FA002002F0B5FA7A2002F0B2FAB1
:10328000002002F0AFFA8B2002F0ACFA002002F02E
:10329000A9FA992002F0A6FA002002F0A3FAA820C9
:1032A00002F0A0FA002002F09DFAB92002F09AFA8A
:1032B000002002F097FAC42002F094FA002002F0F5
:1032C00091FACA2002F08EFA002002F08BFAD22086
:1032D00002F088FA002002F085FAD92002F082FA82
:1032E000002002F07FFAE02002F07CFA002002F0D9
:1032F00079FAF32002F076FA002002F073FAE12066
:1033000002F07CFA162002F06DFA002002F06AFA50
:103310001C2002F067FA002002F064FA222002F07A
:1033200061FA002002F05EFA362002F05BFA00201B
:1033300002F058FA452002F055FA002002F052FA45
:10334000522002F04FFA002002F04CFA642002F002
:1033500049FA002002F046FA7A2002F043FA0020EF
:1033600002F040FA8B2002F03DFA002002F03AFA17
:10337000992002F037FA002002F034FAA82002F077
:1033800031FA002002F02EFAB92002F02BFA0020C8
:1033900002F028FAC42002F025FA002002F022FAF6
:1033A000CA2002F01FFA002002F01CFAD22002F01C
:1033B00019FA002002F016FAD82002F013FA0020C1
:1033C00002F010FAE02002F00DFA002002F00AFAF2
:1033D000F32002F007FA002002F004FAE22002F0E3
:1033E0000DFA052002F0FEF9002002F0FBF90B2097
:1033F00002F0F8F9002002F0F5F91B2002F0F2F9D2
:10340000002002F0EFF9342002F0ECF9002002F085
:10341000E9F9442002F0E6F9002002F0E3F94F2038
:1034200002F0E0F9002002F0DDF9612002F0DAF9A3
:10343000002002F0D7F9792002F0D4F9002002F040
:10344000D1F9882002F0CEF9002002F0CBF99720C4
:1034500002F0C8F9002002F0C5F9A62002F0C2F976
:10346000002002F0BFF9B72002F0BCF9002002F002
:10347000B9F9C22002F0B6F9002002F0B3F9C72072
:1034800002F0B0F9002002F0ADF9D12002F0AAF963
:10349000002002F0A7F9D62002F0A4F9002002F0E3
:1034A000A1F9DD2002F09EF9002002F09BF9F32043
:1034B00002F098F9002002F095F9E32002F09EF95D
:1034C000052002F08FF9002002F08CF90A2002F0AA
:1034D00089F9002002F086F91C2002F083F900200F
:1034E00002F080F9332002F07DF9002002F07AF931
:1034F000442002F077F9002002F074F9502002F025
:1035000071F9002002F06EF9622002F06BF90020E0
:1035100002F068F9782002F065F9002002F062F903
:10352000882002F05FF9002002F05CF9972002F099
:1035300059F9002002F056F9A62002F053F90020B4
:1035400002F050F9B72002F04DF9002002F04AF9DC
:10355000C22002F047F9002002F044F9C72002F02F
:1035600041F9002002F03EF9D12002F03BF90020A1
:1035700002F038F9D52002F035F9002002F032F9D6
:10358000DD2002F02FF9002002F02CF9F32002F0E8
:1035900029F9002002F026F9E42002F02FF9012099
:1035A00002F020F9002002F01DF9012002F01AF9C2
:1035B000002002F017F9022002F014F9002002F0B6
:1035C00011F92A2002F00EF9002002F00BF93C203C
:1035D00002F008F9002002F005F94B2002F002F990
:1035E000002002F0FFF85D2002F0FCF8002002F05D
:1035F000F9F8742002F0F6F8002002F0F3F88420C5
:1036000002F0F0F8002002F0EDF8932002F0EAF862
:10361000002002F0E7F8A22002F0E4F8002002F017
:10362000E1F8B32002F0DEF8002002F0DBF8BE2063
:1036300002F0D8F8002002F0D5F8C42002F0D2F849
:10364000002002F0CFF8CD2002F0CCF8002002F0EC
:10365000C9F8D32002F0C6F8002002F0C3F8DD203C
:1036600002F0C0F8002002F0BDF8F32002F0BAF832
:10367000002002F0B7F8E52002F0C0F8002002F0C8
:10368000B1F8002002F0AEF8002002F0ABF8002004
:1036900002F0A8F8022002F0A5F8002002F0A2F83B
:1036A000292002F09FF8002002F09CF83C2002F054
:1036B00099F8002002F096F84B2002F093F80020D1
:1036C00002F090F85D2002F08DF8002002F08AF8F8
:1036D000742002F087F8002002F084F8842002F0C1
:1036E00081F8002002F07EF8932002F07BF80020A1
:1036F00002F078F8A22002F075F8002002F072F8CB
:10370000B32002F06FF8002002F06CF8BE2002F047
:1037100069F8002002F066F8C42002F063F8002087
:1037200002F060F8CD2002F05DF8002002F05AF8B7
:10373000D32002F057F8002002F054F8DC2002F009
:1037400051F8002002F04EF8F32002F04BF8002070
:1037500002F048F8E62002F051F8112002F042F899
:10376000002002F03FF8342002F03CF8002002F084
:1037700039F8562002F036F8002002F033F87620AF
:1037800002F030F8002002F02DF8772002F02AF83D
:10379000002002F027F8662002F024F8002002F052
:1037A00021F8882002F01EF8002002F01BF8992072
:1037B00002F018F8002002F015F8BB2002F012F811
:1037C000002002F00FF8992002F00CF8002002F01F
:1037D00009F8662002F006F8002002F003F85520F0
:1037E00002F000F8002001F0FDFF552001F0FAFF83
:1037F000002001F0F7FF452001F0F4FF002001F068
:10380000F1FF432001F0EEFF002001F0EBFF442028
:1038100001F0E8FF002001F0E5FFE72001F0EEFFF6
:10382000322001F0DFFF002001F0DCFF552001F025
:10383000D9FF002001F0D6FF762001F0D3FF002051
:1038400001F0D0FF662001F0CDFF002001F0CAFF9B
:10385000672001F0C7FF002001F0C4FF672001F0DE
:10386000C1FF002001F0BEFF872001F0BBFF002058
:1038700001F0B8FF992001F0B5FF002001F0B2FF80
:10388000BB2001F0AFFF002001F0ACFF992001F058
:10389000A9FF002001F0A6FF772001F0A3FF002080
:1038A00001F0A0FF442001F09DFF002001F09AFFED
:1038B000562001F097FF002001F094FF232001F033
:1038C00091FF002001F08EFF332001F08BFF0020DC
:1038D00001F088FF452001F085FF002001F082FF04
:1038E000E82001F08BFF002001F07CFF002001F0B8
:1038F00079FF992001F076FF002001F073FF872007
:1039000001F070FF002001F06DFF882001F06AFFD8
:10391000002001F067FF772001F064FF002001F034
:1039200061FF662001F05EFF002001F05BFF882050
:1039300001F058FF002001F055FFAA2001F052FFCE
:10394000002001F04FFFBB2001F04CFF002001F0F0
:1039500049FF992001F046FF002001F043FF662057
:1039600001F040FF002001F03DFF552001F03AFF3B
:10397000002001F037FF552001F034FF002001F056
:1039800031FF442001F02EFF002001F02BFF4420E6
:1039900001F028FF002001F025FF552001F022FF53
:1039A000002001F01FFFE92001F028FFAA2001F00C
:1039B00019FF002001F016FF002001F013FF002086
:1039C00001F010FF002001F019FFAA2001F00AFF0A
:1039D000CF2001F013FF002001F004FF002001F0D0
:1039E00001FF002001F0FEFE002001F0FBFE0020A0
:1039F00001F0F8FE002001F0F5FE002001F0F2FEDB
:103A0000002001F0EFFE002001F0ECFE002001F0AC
:103A1000E9FE002001F0E6FE002001F0E3FE0020B8
:103A200001F0E0FE002001F0DDFE002001F0DAFEF2
:103A3000002001F0D7FE002001F0D4FEF02001F0BC
:103A4000DDFE002001F0CEFE502001F0CBFE002074
:103A500001F0C8FE002001F0C5FE002001F0C2FE0A
:103A6000F32001F0CBFE002001F0BCFEF92001F0B4
:103A7000C5FE062001F0B6FE102001F0B3FE29209D
:103A800001F0B0FE002001F0ADFE3A2001F0B6FEDC
:103A9000552001F0A7FE112001F0B0FE6420FEF7D2
:103AA000BBFC292001F0AAFE352001F0A7FE002072
:103AB00001F098FE512001F0A1FEFF2001F092FEDE
:103AC000532001F09BFE2C2001F08CFE552001F0CC
:103AD00095FE822001F086FE2C2001F08FFE10BDA5
:103AE00010B555214FF4704001F09EFEAA214FF20F
:103AF000010001F099FE52214FF2020001F094FE04
:103B000008214FF2030001F08FFE01214FF2040063
:103B100001F08AFE0D214FF4304001F085FE0D21A9
:103B20004BF2010001F080FE0D214BF2020001F08A
:103B30007BFE34214FF4364001F076FE34214BF207
:103B4000016001F071FE34214BF2026001F06CFE65
:103B50000D214FF4314001F067FE0D214BF20110B1
:103B600001F062FE0D214BF2021001F05DFE3421E6
:103B70004FF4374001F058FE34214BF2017001F050
:103B800053FE34214BF2027001F04EFE00214FF43F
:103B9000324001F049FE00214BF2012001F044FEC9
:103BA00000214BF2022001F03FFE24214FF4384067
:103BB00001F03AFE24214BF6010001F035FE2421EC
:103BC0004BF6020001F030FE01214FF43F4001F0BE
:103BD0002BFE0F214FF4334001F026FE0F214BF254
:103BE000013001F021FE0F214BF2023001F01CFEEA
:103BF00034214FF4394001F017FE34214BF6011007
:103C000001F012FE34214BF6021001F00DFE0821E6
:103C10004FF4354001F008FE08214BF2015001F04D
:103C200003FE08214BF2025001F0FEFD03214FF488
:103C3000424001F0F9FD24214FF43A4001F0F4FD37
:103C400024214BF6012001F0EFFD24214BF6022048
:103C500001F0EAFD00214FF43C4001F0E5FD782140
:103C60004BF6014001F0E0FD00214BF6024001F06F
:103C7000DBFD00214FF43D4001F0D6FD78214BF6ED
:103C8000015001F0D1FD00214BF6025001F0CCFDB6
:103C900000214FF43E4001F0C7FD64214BF6016066
:103CA00001F0C2FD00214FF4514001F0BDFD332170
:103CB0004DF2011001F0B8FD00214DF2021001F0AB
:103CC000B3FD34214DF2031001F0AEFD00214DF2A1
:103CD000041001F0A9FD3A214DF2051001F0A4FDF8
:103CE00000214DF2061001F09FFD4A214DF2071010
:103CF00001F09AFD00214DF2081001F095FD5C21C4
:103D00004DF2091001F090FD00214DF20A1001F072
:103D10008BFD81214DF20B1001F086FD00214DF24B
:103D20000C1001F081FDA6214DF20D1001F07CFD7B
:103D300000214DF20E1001F077FDE5214DF20F103C
:103D400001F072FD01214DF2101001F06DFD132103
:103D50004DF2111001F068FD01214DF2121001F039
:103D600063FD54214DF2131001F05EFD01214DF26F
:103D7000141001F059FD82214DF2151001F054FD8F
:103D800001214DF2161001F04FFDCA214DF217101E
:103D900001F04AFD02214DF2181001F045FD00210D
:103DA0004DF2191001F040FD02214DF21A1001F000
:103DB0003BFD01214DF21B1001F036FD02214DF2B9
:103DC0001C1001F031FD34214DF21D1001F02CFDCD
:103DD00002214DF21E1001F027FD67214DF21F1048
:103DE00001F022FD02214DF2201001F01DFD842181
:103DF0004DF2211001F018FD02214DF2221001F0C8
:103E000013FDA4214DF2231001F00EFD02214DF20D
:103E1000241001F009FDB7214DF2251001F004FD39
:103E200002214DF2261001F0FFFCCF214DF22710A8
:103E300001F0FAFC02214DF2281001F0F5FCDE2120
:103E40004DF2291001F0F0FC02214DF22A1001F090
:103E5000EBFCF2214DF22B1001F0E6FC02214DF2B9
:103E60002C1001F0E1FCFE214DF22D1001F0DCFCE4
:103E700003214DF22E1001F0D7FC10214DF22F102E
:103E800001F0D2FC03214DF2301001F0CDFC3321C2
:103E90004DF2311001F0C8FC03214DF2321001F057
:103EA000C3FC6D214DF2331001F0BEFC00214FF434
:103EB000524001F0B9FC33214DF2012001F0B4FC75
:103EC00000214DF2022001F0AFFC34214DF203201D
:103ED00001F0AAFC00214DF2042001F0A5FC3A21DA
:103EE0004DF2052001F0A0FC00214DF2062001F06A
:103EF0009BFC4A214DF2072001F096FC00214DF277
:103F0000082001F091FC5C214DF2092001F08CFCAD
:103F100000214DF20A2001F087FC81214DF20B2097
:103F200001F082FC00214DF20C2001F07DFCA62165
:103F30004DF20D2001F078FC00214DF20E2001F031
:103F400073FCE5214DF20F2001F06EFC01214DF2D2
:103F5000102001F069FC13214DF2112001F064FCE6
:103F600001214DF2122001F05FFC54214DF213208B
:103F700001F05AFC01214DF2142001F055FC822180
:103F80004DF2152001F050FC01214DF2162001F0F8
:103F90004BFCCA214DF2172001F046FC02214DF2E4
:103FA000182001F041FC00214DF2192001F03CFCE9
:103FB00002214DF21A2001F037FC01214DF21B20A5
:103FC00001F032FC02214DF21C2001F02DFC3421C5
:103FD0004DF21D2001F028FC02214DF21E2001F0BF
:103FE00023FC67214DF21F2001F01EFC02214DF23F
:103FF000202001F019FC84214DF2212001F014FC55
:1040000002214DF2222001F00FFCA4214DF22320C9
:1040100001F00AFC02214DF2242001F005FCB72139
:104020004DF2252001F000FC02214DF2262001F086
:10403000FBFBCF214DF2272001F0F6FB02214DF2D0
:10404000282001F0F1FBDE214DF2292001F0ECFBEC
:1040500002214DF22A2001F0E7FBF2214DF22B2044
:1040600001F0E2FB02214DF22C2001F0DDFBFE21EC
:104070004DF22D2001F0D8FB03214DF22E2001F04E
:10408000D3FB10214DF22F2001F0CEFB03214DF286
:10409000302001F0C9FB33214DF2312001F0C4FB87
:1040A00003214DF2322001F0BFFB6D214DF2332090
:1040B00001F0BAFB00214FF4534001F0B5FB33216E
:1040C0004DF2013001F0B0FB00214DF2023001F061
:1040D000ABFB34214DF2033001F0A6FB00214DF281
:1040E000043001F0A1FB3A214DF2053001F09CFBB8
:1040F00000214DF2063001F097FB4A214DF20730C6
:1041000001F092FB00214DF2083001F08DFB5C21A3
:104110004DF2093001F088FB00214DF20A3001F028
:1041200083FB81214DF20B3001F07EFB00214DF22B
:104130000C3001F079FBA6214DF20D3001F074FB3B
:1041400000214DF20E3001F06FFBE5214DF20F30F2
:1041500001F06AFB01214DF2103001F065FB1321E3
:104160004DF2113001F060FB01214DF2123001F0EF
:104170005BFB54214DF2133001F056FB01214DF24F
:10418000143001F051FB82214DF2153001F04CFB4F
:1041900001214DF2163001F047FBCA214DF21730D4
:1041A00001F042FB02214DF2183001F03DFB0021ED
:1041B0004DF2193001F038FB02214DF21A3001F0B6
:1041C00033FB01214DF21B3001F02EFB02214DF299
:1041D0001C3001F029FB34214DF21D3001F024FB8D
:1041E00002214DF21E3001F01FFB67214DF21F30FE
:1041F00001F01AFB02214DF2203001F015FB842161
:104200004DF2213001F010FB02214DF2223001F07D
:104210000BFBA4214DF2233001F006FB02214DF2ED
:10422000243001F001FBB7214DF2253001F0FCFAFA
:1042300002214DF2263001F0F7FACF214DF227305E
:1042400001F0F2FA02214DF2283001F0EDFADE2100
:104250004DF2293001F0E8FA02214DF22A3001F046
:10426000E3FAF2214DF22B3001F0DEFA02214DF299
:104270002C3001F0D9FAFE214DF22D3001F0D4FAA4
:1042800003214DF22E3001F0CFFA10214DF22F30E4
:1042900001F0CAFA03214DF2303001F0C5FA3321A2
:1042A0004DF2313001F0C0FA03214DF2323001F00D
:1042B000BBFA6D214DF2333001F0B6FA00214FF414
:1042C000544001F0B1FA33214DF2014001F0ACFA53
:1042D00000214DF2024001F0A7FA34214DF20340D3
:1042E00001F0A2FA00214DF2044001F09DFA3A21BA
:1042F0004DF2054001F098FA00214DF2064001F020
:1043000093FA4A214DF2074001F08EFA00214DF256
:10431000084001F089FA5C214DF2094001F084FA6D
:1043200000214DF20A4001F07FFA81214DF20B404D
:1043300001F07AFA00214DF20C4001F075FAA62145
:104340004DF20D4001F070FA00214DF20E4001F0E7
:104350006BFAE5214DF20F4001F066FA01214DF2B2
:10436000104001F061FA13214DF2114001F05CFAA6
:1043700001214DF2124001F057FA54214DF2134041
:1043800001F052FA01214DF2144001F04DFA822160
:104390004DF2154001F048FA01214DF2164001F0AE
:1043A00043FACA214DF2174001F03EFA02214DF2C4
:1043B000184001F039FA00214DF2194001F034FAA9
:1043C00002214DF21A4001F02FFA01214DF21B405B
:1043D00001F02AFA02214DF21C4001F025FA3421A5
:1043E0004DF21D4001F020FA02214DF21E4001F075
:1043F0001BFA67214DF21F4001F016FA02214DF21F
:10440000204001F011FA84214DF2214001F00CFA14
:1044100002214DF2224001F007FAA4214DF223407F
:1044200001F002FA02214DF2244001F0FDF9B7211A
:104430004DF2254001F0F8F902214DF2264001F03D
:10444000F3F9CF214DF2274001F0EEF902214DF2B0
:10445000284001F0E9F9DE214DF2294001F0E4F9AC
:1044600002214DF22A4001F0DFF9F2214DF22B40FA
:1044700001F0DAF902214DF22C4001F0D5F9FE21CC
:104480004DF22D4001F0D0F903214DF22E4001F004
:10449000CBF910214DF22F4001F0C6F903214DF266
:1044A000304001F0C1F933214DF2314001F0BCF947
:1044B00003214DF2324001F0B7F96D214DF2334046
:1044C00001F0B2F900214FF4554001F0ADF933216C
:1044D0004DF2015001F0A8F900214DF2025001F017
:1044E000A3F934214DF2035001F09EF900214DF261
:1044F000045001F099F93A214DF2055001F094F978
:1045000000214DF2065001F08FF94A214DF207507B
:1045100001F08AF900214DF2085001F085F95C2183
:104520004DF2095001F080F900214DF20A5001F0DE
:104530007BF981214DF20B5001F076F900214DF20B
:104540000C5001F071F9A6214DF20D5001F06CF9FB
:1045500000214DF20E5001F067F9E5214DF20F50A8
:1045600001F062F901214DF2105001F05DF91321C3
:104570004DF2115001F058F901214DF2125001F0A5
:1045800053F954214DF2135001F04EF901214DF22F
:10459000145001F049F982214DF2155001F044F90F
:1045A00001214DF2165001F03FF9CA214DF217508A
:1045B00001F03AF902214DF2185001F035F90021CD
:1045C0004DF2195001F030F902214DF21A5001F06C
:1045D0002BF901214DF21B5001F026F902214DF279
:1045E0001C5001F021F934214DF21D5001F01CF94D
:1045F00002214DF21E5001F017F967214DF21F50B4
:1046000001F012F902214DF2205001F00DF9842140
:104610004DF2215001F008F902214DF2225001F033
:1046200003F9A4214DF2235001F0FEF802214DF2CE
:10463000245001F0F9F8B7214DF2255001F0F4F8BB
:1046400002214DF2265001F0EFF8CF214DF2275014
:1046500001F0EAF802214DF2285001F0E5F8DE21E0
:104660004DF2295001F0E0F802214DF22A5001F0FC
:10467000DBF8F2214DF22B5001F0D6F802214DF279
:104680002C5001F0D1F8FE214DF22D5001F0CCF864
:1046900003214DF22E5001F0C7F810214DF22F509A
:1046A00001F0C2F803214DF2305001F0BDF8332182
:1046B0004DF2315001F0B8F803214DF2325001F0C3
:1046C000B3F86D214DF2335001F0AEF800214FF4F4
:1046D000564001F0A9F833214DF2016001F0A4F831
:1046E00000214DF2026001F09FF834214DF2036089
:1046F00001F09AF800214DF2046001F095F83A219A
:104700004DF2056001F090F800214DF2066001F0D5
:104710008BF84A214DF2076001F086F800214DF236
:10472000086001F081F85C214DF2096001F07CF82D
:1047300000214DF20A6001F077F881214DF20B6003
:1047400001F072F800214DF20C6001F06DF8A62125
:104750004DF20D6001F068F800214DF20E6001F09D
:1047600063F8E5214DF20F6001F05EF801214DF292
:10477000106001F059F813214DF2116001F054F866
:1047800001214DF2126001F04FF854214DF21360F7
:1047900001F04AF801214DF2146001F045F8822140
:1047A0004DF2156001F040F801214DF2166001F064
:1047B0003BF8CA214DF2176001F036F802214DF2A4
:1047C000186001F031F800214DF2196001F02CF869
:1047D00002214DF21A6001F027F801214DF21B6011
:1047E00001F022F802214DF21C6001F01DF8342185
:1047F0004DF21D6001F018F802214DF21E6001F02B
:1048000013F867214DF21F6001F00EF802214DF2FE
:10481000206001F009F884214DF2216001F004F8D4
:1048200002214DF2226000F0FFFFA4214DF223602F
:1048300000F0FAFF02214DF2246000F0F5FFB721ED
:104840004DF2256000F0F0FF02214DF2266000F0ED
:10485000EBFFCF214DF2276000F0E6FF02214DF281
:10486000286000F0E1FFDE214DF2296000F0DCFF5E
:1048700002214DF22A6000F0D7FFF2214DF22B60A9
:1048800000F0D2FF02214DF22C6000F0CDFFFE219E
:104890004DF22D6000F0C8FF03214DF22E6000F0B4
:1048A000C3FF10214DF22F6000F0BEFF03214DF237
:1048B000306000F0B9FF33214DF2316000F0B4FFF9
:1048C00003214DF2326000F0AFFF6D214DF23360F5
:1048D00000F0AAFF55214FF4704000F0A5FFAA2177
:1048E0004FF2010000F0A0FF52214FF2020000F051
:1048F0009BFF08214FF2030000F096FF00214FF2CA
:10490000040000F091FFCC214FF4314000F08CFF07
:1049100000214BF2011000F087FF05214FF43640D3
:1049200000F082FF70214FF4374000F07DFF7021CE
:104930004BF2017000F078FF01214FF4384000F095
:1049400073FF03214BF6010000F06EFF03214BF6CD
:10495000020000F069FF03214BF6030000F064FF42
:1049600002214FF43C4000F05FFF00214BF6014074
:1049700000F05AFF00214BF6024000F055FFD02115
:104980004FF4494000F050FF02214CF6011000F0B6
:104990004BFF50214CF6021000F046FF50214CF620
:1049A000031000F041FF50214CF6041000F03CFFD2
:1049B00000214FF4545000F037FF55214FF4685058
:1049C00000F032FF4FF4885000F018FF7820FDF718
:1049D0002FFD4FF4245000F011FF10BD10B5E22060
:1049E00000F00CFF1D2000F0FDFE022000F0FAFE9A
:1049F000042000F0F7FE6420FDF71AFDE02000F02F
:104A0000FDFE012000F0EEFE0A20FDF705FDE0208E
:104A100000F0F4FE032000F0E5FE0C20FDF7FCFCA6
:104A2000012000F0EBFE0A20FDF7F6FCE62000F086
:104A3000E5FE2F2000F0D6FEFF2000F0D3FEFF2081
:104A400000F0D0FEB02000F0D9FE202000F0CAFE19
:104A5000002000F0C7FE032000F0C4FE40F21F302B
:104A600000F0C0FE012000F0BDFE40F2DF1000F0BB
:104A7000B9FE002000F0B6FEB42000F0BFFE042016
:104A800000F0B0FE40F21F4000F0ACFE002000F04D
:104A9000A9FE2E2000F0A6FE002000F0A3FE0020BC
:104AA00000F0A0FE002000F09DFE002000F09AFE25
:104AB000B62000F0A3FE022000F094FE4FF4037035
:104AC00000F090FE002000F08DFE172000F08AFE1E
:104AD000152000F087FE002000F084FE002000F08A
:104AE00081FEF02000F08AFE032000F07BFE2920EA
:104AF00000F084FED02000F081FE002000F072FE65
:104B0000BE2000F07BFE052000F06CFEFE2000F0D1
:104B100069FE012000F066FE002000F063FE002028
:104B200000F060FE002000F05DFEB82000F066FEA0
:104B3000032000F057FE012000F054FEBA2000F0E0
:104B40005DFE012000F04EFE10BD10B5112000F0FA
:104B500055FE7820FDF760FC362000F04FFE002067
:104B600000F040FE3A2000F049FE052000F03AFE39
:104B7000B22000F043FE0C2000F034FE0C2000F0C8
:104B800031FE002000F02EFE332000F02BFE3320FB
:104B900000F028FEB72000F031FE352000F022FEA4
:104BA000BB2000F02BFE322000F01CFEC02000F0E5
:104BB00025FE0C2000F016FEC22000F01FFE012092
:104BC00000F010FEC32000F019FE102000F00AFED5
:104BD000C42000F013FE202000F004FEC62000F0E8
:104BE0000DFE0F2000F0FEFDD02000F007FEA420F7
:104BF00000F0F8FDA12000F0F5FDE02000F0FEFD42
:104C0000D02000F0EFFD002000F0ECFD022000F0CD
:104C1000E9FD072000F0E6FD0A2000F0E3FD282072
:104C200000F0E0FD322000F0DDFD442000F0DAFD70
:104C3000422000F0D7FD062000F0D4FD0E2000F049
:104C4000D1FD122000F0CEFD142000F0CBFD172086
:104C500000F0C8FDE12000F0D1FDD02000F0C2FD41
:104C6000002000F0BFFD022000F0BCFD072000F096
:104C7000B9FD0A2000F0B6FD282000F0B3FD312078
:104C800000F0B0FD542000F0ADFD472000F0AAFD7B
:104C90000E2000F0A7FD1C2000F0A4FD172000F05E
:104CA000A1FD1B2000F09EFD1E2000F09BFD2A2090
:104CB00000F0A4FD002000F095FD002000F092FD22
:104CC000002000F08FFDEF2000F08CFD2B2000F085
:104CD00095FD002000F086FD002000F083FD0120FE
:104CE00000F080FD3F2000F07DFD292000F086FDD2
:104CF00010BD00002DE9F04F05460E4617469846B8
:104D0000DDF824A04FF0000B781B401C1FFA80FB3D
:104D1000344613E02146284600F06CFB00F07AFD93
:104D20004FF0000906E00749A1F800A009F10100D1
:104D30001FFA80F9D945F6DB601C84B24445E9DDF1
:104D4000BDE8F08F8000006C00B595B000BF00BFDB
:104D500000200190FE48006840F04000FC490860D7
:104D60000846006800F04000019000BF00BF00BF8F
:104D700000BF00BF002001900846006840F0080016
:104D800008600846006800F00800019000BF00BFFE
:104D900000BF00BF00BF002001900846006840F03F
:104DA000080008600846006800F00800019000BF95
:104DB00000BF00BF00BF00BF002001900846006890
:104DC00040F0400008600846006800F04000019094
:104DD00000BF00BF00BF00BF00BF00200190084619
:104DE000006840F0020008600846006800F0020019
:104DF000019000BF00BF00BF8814109002201190E6
:104E000001201290022013900C20149010A9D14878
:104E1000FBF762FE2020109010A9CF48FBF75CFE44
:104E20001020109010A9CC48FBF756FE4FF480508C
:104E3000109010A9C948FBF74FFE4FF400401090A6
:104E40000120119010A9C648FBF746FE4FF0204004
:104E5000C4490860C4484860062088600021C148F1
:104E6000C1601021416100218161C16141624FF443
:104E7000805181620021C1624FF4804101630021B1
:104E8000416381630F20099000200A903C200B9021
:104E900000200F9005900920029000200390082028
:104EA00004900020089002AA09A9AE48FCF776FBFE
:104EB0003220FDF7B1FAD32000F0A0FC00F078F921
:104EC000AA49888000F074F9A849888000F070F938
:104ED000A6498880084680884FF6FF7101EA0020C5
:104EE000A249888000F064F9A049898808439F4955
:104EF00088800846808849F2413188427DD004206C
:104F000000F07CFC00F054F99849888000F050F9DA
:104F10009649888000F04CF994498880084680883A
:104F20004FF6FF7101EA00209049888000F040F9B7
:104F30008E49898808438D4988800846808848F2D0
:104F40005251884203D147F2897088498880874846
:104F5000808847F289718842D0D0D42000F04EFC7E
:104F600000F026F98149888000F022F97F49888085
:104F700000F01EF97D498880084680884FF6FF7151
:104F800001EA00207949888000F012F97749898880
:104F90000843764988800846808845F21031884267
:104FA0006BD055214FF4704000F03EFCAA214FF227
:104FB000010000F039FC52214FF2020000F034FCF5
:104FC00008214FF2030000F02FFC01214FF20400F2
:104FD00000F02AFC4FF4454000F010FC00F0E8F827
:104FE00062498880084680884FF6FF7101EA0020F8
:104FF0005E4988804CF2015000E03EE000F0FEFB8C
:1050000000F0D6F859498988084358498880052016
:10501000FDF702FA55488088B0F5004F03D145F2FC
:105020001050524988805148808845F2105188427A
:1050300023D0A12000F0E2FB00F0BAF84B498880B1
:1050400000F0B6F849498880084680884FF6FF711D
:1050500001EA00204549888000F0AAF84349898880
:105060000843424988800846808845F26171884239
:1050700003D141F663103D4988803C4881883CA0BB
:10508000FBF7DAF93948808847F28971884202D102
:10509000FFF75BFD25E03548808849F241318842C1
:1050A00002D1FDF78EFC1CE03048808845F21031BB
:1050B000884202D1FDF79BFD13E02C48808845F221
:1050C0001051884202D1FEF70BFD0AE02748808884
:1050D00041F66311884204D1FFF780FC642000F0A0
:1050E00051FB2248808849F2413188420BD01F4849
:1050F000808841F66311884205D01C48808847F2B9
:105100008971884209D103200290049015490B6BE4
:105110008A68486802A9FBF701FC1448808845F2B8
:105120001031884205D01148808845F210518842DC
:1051300009D10220029004900A490B6B8A684868E2
:1051400002A9FBF7EBFB0020FDF718FB00BF15E001
:105150003038024000180240000C024000140240A7
:10516000000402400C020020040100A05C020020A8
:105170004C43442049443A25780D0A000122D103CA
:105180000448FBF7BDFD00BF4FF6FF70FDF7DCFAEA
:1051900015B000BD0004024010B50246012000E039
:1051A00050430B1EA1F10104E1B2F9D110BD000082
:1051B00008B5034800880090BDF8000008BD000055
:1051C0008000006CF0B505460024002788488079EF
:1051D000012805D18648808841F66311884208D1AC
:1051E00083488079F0B98248808841F6631188420B
:1051F00018D1082D15D2DFE805F00406080A0C0EB8
:10520000101206250DE007250BE0042509E0052511
:1052100007E0012505E0002503E0032501E0022564
:1052200000BF00BF082D1CD2DFE805F00406090C02
:105230000F12151800BF14E044F0800411E044F090
:1052400040040EE044F0C0040BE044F0200408E009
:1052500044F0600405E044F0A00402E044F0E004FF
:1052600000BF00BF36276248808845F2105188424F
:1052700000D13F025E48808849F24131884205D022
:105280005B48808847F28971884201D144F0080464
:105290002146384600F0C8FA5548808841F6631127
:1052A00088421DD004F0200068B151480088504960
:1052B0004988884214DA4E48068840884C4908805C
:1052C000084646800CE04A48008849494988884297
:1052D00006DD4748068840884549088008464680DC
:1052E0004348808845F21051884252D1404948894C
:1052F00000F084FA002000F075FA3D494989491C04
:1053000088B200F07BFA002000F06CFA3849498935
:10531000891C88B200F072FA35490988491EC1F328
:105320000F2000F05FFA32494989C91C88B200F0A9
:1053300065FA2F490978491EC8B200F053FA2C4982
:10534000888900F05BFA002000F04CFA284989892E
:10535000491C88B200F052FA002000F043FA2449B8
:105360008989891C88B200F049FA21494988491E77
:10537000C1F30F2000F036FA1D498989C91C88B293
:1053800000F03CFA1A498978491EC8B200F02AFA9E
:105390002DE01749488900F031FA002000F022FA88
:1053A000002000F01FFA12490988491EC1F30F209E
:1053B00000F018FA0E490978491EC8B200F012FA36
:1053C0000B49888900F01AFA002000F00BFA00203F
:1053D00000F008FA06494988491EC1F30F2000F081
:1053E00001FA03498978491EC8B200F0FBF9F0BD03
:1053F0005C02002010B502460C464548808841F604
:105400006311884247D142488079A8B94048008852
:10541000401E801A82B23E49488900F0EFF9002010
:1054200000F0E0F9002000F0DDF9101200F0DAF9E8
:10543000D0B200F0D7F916E03549488900F0DEF91E
:10544000101200F0CFF9D0B200F0CCF93049098841
:10545000491EC1F30F2000F0C5F92D490978491EF6
:10546000C8B200F0BFF92A49888900F0C7F92012B4
:1054700000F0B8F9E0B200F0B5F925494988491EB5
:10548000C1F30F2000F0AEF921498978491EC8B256
:1054900000F0A8F93AE01E48808845F21051884291
:1054A00020D11B49488900F0A9F9101200F09AF99F
:1054B00017494989491C88B200F0A0F9D0B200F020
:1054C00091F91349888900F099F9201200F08AF9BE
:1054D0000F498989491C88B200F090F9E0B200F0C8
:1054E00081F913E00A49488900F088F9101200F0A8
:1054F00079F9D0B200F076F90549888900F07EF993
:10550000201200F06FF9E0B200F06CF910BD00005D
:105510005C0200202DE9FC4F80460E4615461C46D5
:10552000B3460020019000902046E31704EB53732C
:10553000DB1021464FEAE47C04EB5C7C4FEAEC0C88
:10554000A4EBCC0CBCF1000F02D04FF0010C01E039
:105550004FF0000C6344224604EBD27C4FEA6C0C03
:1055600003FB0CF3DBB20193A5F12000C5B20C2CB8
:1055700006D0102C0BD0182C0ED0202C18D112E0F5
:1055800005EB45002D4901EB8000009012E02C480E
:1055900000EB051000900DE005EBC500294901EB7B
:1055A0008000009006E0284800EB8510009001E0A4
:1055B000BDE8FC8F00BF00273AE0009810F8079084
:1055C0004FF0000A2EE009F0800028B13146404635
:1055D0000C9AFDF7C1F907E00B9828B91B48314632
:1055E00002684046FDF7B8F94FEA49604FEA106992
:1055F000701C86B216484088B04200DCD8E7A6EBA3
:105600000B00A0420AD15E4608F101001FFA80F8A3
:105610000F480088404500DCCAE706E00AF10100B7
:1056200000F0FF0ABAF1080FCDDB00BF781CC7B24B
:1056300001988742C1DB00BFBAE70000468C000832
:10564000BA900008AA96000806A4000848000020A6
:105650005C0200202DE9FC4F04460D469046994619
:10566000DDE90C7A0B9E04F0FF0B08EB04001FFA37
:1056700080F809EB05001FFA80F917E0444502DBCA
:105680005C46A81985B24D4500DB15E00020CDE948
:10569000000A3A78334629462046FFF73BFF30465A
:1056A00006EBD07104EB61018CB27F1C38787E2848
:1056B00002DC38782028E1DA00BFBDE8FC8F2DE954
:1056C000FF4F85B0064693461F46DDE91389129CBD
:1056D00000200490002550E0781B401EC1B20A2033
:1056E000FFF75AFDBBFBF0F00A21B0FBF1F201FB22
:1056F000120A049860BB781EA84229DDBAF1000F97
:1057000024D108F0800080B108F0010004EBD471CE
:10571000491001FB0561CDE90009039488B22346D5
:1057200030220699FFF7F6FE0FE008F0010004EBC7
:10573000D471491001FB0561CDE90009039488B2D9
:10574000234620220699FFF7E5FE14E0012004908D
:1057500008F0010004EBD471491001FB0561CDE9AB
:105760000009039488B20AF13001CAB223460699AF
:10577000FFF7D0FE00BF681CC5B2BD42ACDB09B06C
:10578000BDE8F08F70B52DED048B0446BE2000F00F
:1057900035F8052000F026F8204603F032F941ECF8
:1057A000190B9FED0E0B53EC102B03F03DF941EC60
:1057B000180B03F0F9F885B2284600F013F8012021
:1057C00000F010F8FF2000F00DF8002000F00AF8BB
:1057D000002000F007F8BDEC048B70BD66666666BD
:1057E0006666044001B5BDF800000090BDF80000F9
:1057F0000149088008BD00008000006C01B5BDF8BB
:1058000000000090BDF800000149088008BD0000BC
:105810007E00006C02480089024908807047000041
:105820005C0200207E00006C034A10804FF0D842DA
:10583000A2F88010704700007E00006C00B587B0B1
:1058400000BF00BF002001902048006840F0200009
:105850001E4908600846006800F02000019000BF63
:1058600000BF00BF00BF00BF0020019008460068D5
:1058700040F0200008600846006800F02000019019
:1058800000BF00BF00BF48150290012003900490A4
:105890000220059002A90E48FBF71EF94FF4806024
:1058A000029002A90A48FBF717F900BF0122510232
:1058B0000748FBF725FA00BF00BF01229102044808
:1058C000FBF71EFA00BF07B000BD000030380240F1
:1058D0000014024010B5FBF731FA07230222082119
:1058E0004FF4A87001F0F6F9A820FCF779FD4FF409
:1058F000E13001F0B7FAFFF7A1FFFFF725FAFCF757
:1059000043FE00F001FF002000F00AF8022000F042
:1059100007F8012000F004F8FCF7BCFD002010BDE2
:1059200010B504460C4951F824104A000B4951F8AF
:105930002400002100F036F8094951F824200749D5
:105940000C3951F82400002100F02CF80121034803
:105950000C30015510BD0000C8BB000864000020D9
:10596000E0BB000810B501460023002207E00B4809
:1059700050F8210030F8120000B15B1C521C08489E
:1059800050F821009042F2D84FF47A705843044CFA
:1059900054F82140B0FBF4F080B210BD6400002048
:1059A000C8BB000830B5034601E003F8011B141E14
:1059B000A2F10102F9D130BD2DE9F04105460E46B4
:1059C0002948076800202949096881F859002748B3
:1059D0000068001D01F062FA50B92448006890F890
:1059E0002C10012088402249096881432048016029
:1059F000681CD8B9D6B11F4948681C490968886035
:105A00001A4982680968CA6018490968091D8268CC
:105A1000516016490968091D8160164A13490968D1
:105A20004A6111460968491C11601AE07C190F4847
:105A300000684460BC4207D20C480168091D0E484A
:105A4000006801F079FA0CE008480168091D0B486C
:105A5000006801F071FA0A480068844201D20848DF
:105A60000460BDE8F0810000880000207400002080
:105A70008C000020B08401207C00002078000020F1
:105A8000A400002010B5044601F07CFA31480068FB
:105A9000401C304908603048006840B92E48046016
:105AA0000846006801280DD100F020FA0AE02B48D2
:105AB000006838B928480068C06AE16A884201D89D
:105AC0002548046026480068401C254908600846AF
:105AD0000068606494F82C1001208840214909680E
