:020000040800F2
:100000009006002089020008970200089902000863
:100010009B0200089D0200089F02000800000000EB
:10002000000000000000000000000000A102000825
:10003000A302000800000000A5020008A7020008B3
:10004000A9020008A9020008A9020008A9020008E4
:10005000A9020008A9020008A9020008A9020008D4
:10006000A9020008A9020008A9020008A9020008C4
:10007000A9020008A9020008A9020008A9020008B4
:10008000A9020008A9020008A9020008A9020008A4
:10009000A9020008A9020008A9020008A902000894
:1000A000A9020008A9020008A9020008A902000884
:1000B000A9020008A902000889070008A90200088F
:1000C000A9020008A9020008A9020008A902000864
:1000D000A9020008C5070008A9020008A902000833
:1000E000A9020008A9020008A9020008A902000844
:1000F000A9020008A9020008A9020008A902000834
:10010000A9020008A9020008A9020008A902000823
:10011000A9020008A9020008A9020008A902000813
:10012000A9020008A9020008A9020008A902000803
:10013000A9020008A9020008A9020008A9020008F3
:10014000A9020008A9020008A9020008A9020008E3
:10015000A9020008A9020008A9020008A9020008D3
:10016000A9020008A9020008A9020008A9020008C3
:10017000A9020008A9020008A90200080000000066
:10018000A9020008A902000800F002F800F06DF8CA
:100190000AA090E8000C82448344AAF10107DA45E2
:1001A00001D100F062F8AFF2090EBAE80F0013F0C7
:1001B000010F18BFFB1A43F001031847008E00001F
:1001C000208E00000A444FF0000C10F8013B13F0A1
:1001D000070408BF10F8014B1D1108BF10F8015BA0
:1001E000641E05D010F8016B641E01F8016BF9D193
:1001F00013F0080F1EBF10F8014BAD1C0C1B09D1EA
:100200006D1E58BF01F801CBFAD505E014F8016B5B
:1002100001F8016B6D1EF9D59142D6D370470000ED
:100220000023002400250026103A28BF78C1FBD8FF
:10023000520728BF30C148BF0B607047642900F0E7
:10024000A380752900F0A080782900F0D980632967
:1002500000F02D82732900F03282002070471FB514
:1002600005F034FE1FBD10B510BD00F05BFA11465D
:10027000FFF7F5FF03F02AFF00F079FA03B4FFF768
:10028000F2FF03BC00F0E5FA0B48016841F470018D
:1002900001600A480047FEE7FEE7FEE7FEE7FEE7EB
:1002A000FEE7FEE7FEE7FEE7FEE70000044805493B
:1002B000034A054B7047000088ED00E08901000803
:1002C000900200209006002090020020704700005D
:1002D0000FB4044910B503AA029800F0F5F910BC58
:1002E0005DF814FB0400002070B5044685690068C1
:1002F000C10601D5302600E02026C00707D070BD1A
:10030000D4E9012130469047206A401C20626D1ECE
:10031000F6D570BD70B5044685690078C00707D171
:1003200070BDD4E9012120209047206A401C206242
:100330006D1EF6D570BD70B50C460546012A05D078
:100340002878800600D5EA69002302E0012305E051
:100350005B1C934202D2E05C0028F9D1A869E61840
:10036000C01AA861286A184428622846FFF7BCFF13
:1003700004E0D5E9012114F8010B9047B442F8D309
:100380002846FFF7C7FF70BD2DE9F041064600245F
:1003900010687529314616A510D0AFF300800028EB
:1003A00002DA404213A507E031688A0701D512A599
:1003B00002E0490704D511A5012401E0AFF3008054
:1003C00000210A2206F1240709E0B0FBF2FCB0FB91
:1003D000F2F302FB1C00303078541846491C002808
:1003E000F3D123462A463046BDE8F04100F0FCB880
:1003F000000000002D0000002B0000002000000085
:1004000070B504460D4621461068AFF30080218880
:10041000090502D50F4A7A4402E00E4A7A440E32A8
:10042000002104F1240305E000F00F060009965DA9
:100430005E54491C0028F7D120780023000704D51A
:10044000702D02D009B1022311322046BDE8704060
:1004500000F0CAB84D8A00002DE9F05F89460446D5
:100460004FF0000ADFF874B1FB44C0F820A020462A
:10047000E1688847002874D0252806D0D4E90121F6
:100480009047206A401C2062F1E700265F46204624
:10049000E16888472028054607DB312D05D2781909
:1004A00010F8200C08B10643F1E7B00701D526F09B
:1004B0000406C4F81CA00027C4F818A02A2D09D0EF
:1004C000284600F0BFF938B304EB8708303DC8F880
:1004D000185019E059F8041B204604EB870291617B
:1004E000E1688847012F054618D1E069002820DA25
:1004F00026F020061DE0D8F8180000EB800005EB80
:1005000040003038C8F818002046E16888470546A2
:1005100000F098F90028EED1012F0AD02E2D08D135
:100520002046E16888477F1C0546022F46F02006DA
:10053000C4DBA069002803DA404246F00106A0614E
:10054000F00701D026F010066C2D0BD0682D09D0D5
:100550004C2D39D06A2D35D0742D35D07A2D33D02D
:1005600016E038E0E1682F4620468847B842054645
:1005700009D16C2F26D04FF48060E16806432046F5
:100580008847054604E06C2F1AD04FF4807006436C
:100590000DB3A5F14100192802D8203546F40066B4
:1005A0004A462946204626604E46FFF747FE80B160
:1005B00001280BD0F61D26F0070000F1080956E7C8
:1005C0004020E4E78020D8E70020D6E706F10409C0
:1005D0004DE7284652E7206ABDE8F09F238A0000D5
:1005E00070477047704770472DE9F0470D469946B0
:1005F0009246044600F124080168880604D5E069A3
:1006000021F01001216000E00120A84201DD471B1C
:1006100000E00027A1697A1902EB0900081AA0611D
:100620002078C00602D42046FFF75EFE002608E0D0
:10063000D4E901211AF806009047206A401C761C74
:1006400020624E45F4DB2078C0060AD52046FFF72D
:100650004BFE06E0D4E9012130209047206A401C7F
:100660002062381EA7F10107F4DC07E0D4E901217C
:1006700018F805009047206A401C2062281EA5F14A
:100680000105F3DC2046FFF745FE2078000602D581
:100690000220BDE8F0870120FBE710B5436913B1E4
:1006A000AFF3008001E0FFF746FE012010BD127895
:1006B00000F124010A7000224A700122EDE711685E
:1006C0004FF0FF32E9E70000074B70B50D467B4461
:1006D00000F011F80446284600F020F810B14FF061
:1006E000FF3070BD204670BD0F02000001694A1C3A
:1006F00002610878704700B58FB0CDE90131002163
:10070000059105497944CDE9031011466846FFF784
:10071000A3FE0FB000BD0000E5FFFFFF007B00F06F
:1007200080007047754600F02BF8AE46050069461C
:10073000534620F00700854618B020B5FFF7B6FDF8
:10074000BDE820404FF000064FF000074FF00008D2
:100750004FF0000B21F00701AC46ACE8C009ACE853
:10076000C009ACE8C009ACE8C0098D46704710B5B7
:100770000446AFF300802046BDE81040FFF77EBD81
:10078000004870473002002010B50C48006800F0A7
:10079000010058B10A49086980470020074914310F
:1007A00008604FF47A7005491C31086003480068FE
:1007B00020F001000149086010BD00001008004051
:1007C000640000201C49096801F0200109B31A499E
:1007D0004968C8B21949098801F40041C9B91749E3
:1007E000098801F4804161B10A2803D00021134A2D
:1007F000118020E01149098841F400410F4A11801D
:1008000019E00D2806D10D49098841F480410B4AB1
:10081000118010E009490988C1F30D01084A5054BC
:1008200006490988491C054A118011460988C729CB
:1008300001DD0021118070470010014008000020F8
:100840005801002030380A2801D2012070470020CA
:10085000704700BF704700004FF0E021096941F088
:1008600004014FF0E0221161054908601146096951
:1008700041F0010111616FF070415161704700005A
:100880000000002010B504464FF47A7104FB01F01B
:1008900000F002F810BD000070B5034600224FF0D2
:1008A000E02675690D4E366803FB06F44FF0E0262E
:1008B000B16910E04FF0E026B06988420BD0884261
:1008C00002D20E1A324402E02E1A0E44324401467D
:1008D000A24200D300E0EDE700BF70BD00000020A1
:1008E00000BF054A126802F04002002AF9D0C2B2E5
:1008F000014B5A6070470000001001401CB500BF5A
:100900002048006840F010001E49086000BF00BF8A
:100910000846006840F01000086000BF00BF0846AD
:10092000006840F01000086000BF00BF0846006883
:1009300040F00100086000BF0120009000231A462B
:1009400010210190104803F047FF01200090002380
:100950001A46082101900C4803F03EFF0120009048
:1009600000231A4604210190074803F035FF0220B6
:10097000012100231A46CDE90010044803F02CFFA2
:100980001CBD000030380240001002400000024050
:1009900070B50446002514B101202B4908702A487F
:1009A0000078002834D01021284803F001FF78B1E6
:1009B0000821264803F0FCFE50B10421234803F02F
:1009C000F7FE28B10121224803F0F2FE01281FD1D1
:1009D0000A20FFF757FF00201B49087010211B4811
:1009E00003F0E6FE00B901250821184803F0E0FEF7
:1009F00000B902250421154803F0DAFE00B90325E9
:100A00000121134803F0D4FE01281BD1042519E06D
:100A100010210E4803F0CCFE012813D108210B4809
:100A200003F0C6FE01280DD10421084803F0C0FEE2
:100A3000012807D10121064803F0BAFE10B90120B0
:100A400001490870284670BD1400002000100240C3
:100A50000000024070B50446002609480588408819
:100A600045430021084603F03DF903F0E9FA00BFD1
:100A700002E004480480761CAE42FAD370BD000048
:100A8000200200208000006C10B504465848847194
:100A9000002C58D1F020564908804FF4A0704880AF
:100AA0000846808845F21051884210D14FF43050EA
:100AB0004F4908814FF4285048814FF42C508881C9
:100AC0004FF4F07008804FF4487048801AE04848AE
:100AD000808841F6631188420DD12C204449088159
:100AE0002B2048812A2088814FF4F07008804FF431
:100AF0004870488006E02C203D4908812A20488122
:100B00002B2088813A48808845F21031884205D0F0
:100B10003748808847F29671884206D14FF4A0701A
:100B2000334908804FF4F07048803148808849F696
:100B30000601884258D14FF4F0702D4908804FF4D7
:100B40004870488050E04FF4A07029490880F02098
:100B500048800846808845F21051884210D14FF4F1
:100B60003050234908814FF4285048814FF42C50CD
:100B700088814FF4487008804FF4F070488020E07E
:100B80001B48808841F66311884205D01848808848
:100B900049F6060188420DD12C20154908812A20EA
:100BA00048812B2088814FF4487008804FF4F07002
:100BB000488006E02C200E4908812A2048812B20FD
:100BC00088810B48808845F21031884205D008485A
:100BD000808847F29671884206D14FF4F07004493C
:100BE00008804FF4A0704880002002F05DFF10BD27
:100BF0002002002070B505460E46144631462846B0
:100C000003F070F803F01CFA01490C8070BD00007D
:100C10008000006C10B5CF2003F006FA002003F02E
:100C2000F7F9C12003F0F4F9302003F0F1F9ED20D9
:100C300003F0FAF9642003F0EBF9032003F0E8F97C
:100C4000122003F0E5F9812003F0E2F9E82003F037
:100C5000EBF9852003F0DCF9102003F0D9F97A20B4
:100C600003F0D6F9CB2003F0DFF9392003F0D0F9F7
:100C70002C2003F0CDF9002003F0CAF9342003F052
:100C8000C7F9022003F0C4F9F72003F0CDF92020C2
:100C900003F0BEF9EA2003F0C7F9002003F0B8F929
:100CA000002003F0B5F9C02003F0BEF91B2003F0CB
:100CB000AFF9C12003F0B8F9012003F0A9F9C5206C
:100CC00003F0B2F9302003F0A3F9302003F0A0F9CB
:100CD000C72003F0A9F9B72003F09AF9362003F0F2
:100CE000A3F9482003F094F93A2003F09DF9552028
:100CF00003F08EF9B12003F097F9002003F088F992
:100D00001A2003F085F9B62003F08EF90A2003F0CB
:100D10007FF9A22003F07CF9F22003F085F900208E
:100D200003F076F9262003F07FF9012003F070F933
:100D3000E02003F079F90F2003F06AF92A2003F08C
:100D400067F9282003F064F9082003F061F90E2008
:100D500003F05EF9082003F05BF9542003F058F922
:100D6000A92003F055F9432003F052F90A2003F0BB
:100D70004FF90F2003F04CF9002003F049F900204F
:100D800003F046F9002003F043F9002003F040F996
:100D9000E12003F049F9002003F03AF9152003F0AF
:100DA00037F9172003F034F9072003F031F9112047
:100DB00003F02EF9062003F02BF92B2003F028F97D
:100DC000562003F025F93C2003F022F9052003F01A
:100DD0001FF9102003F01CF90F2003F019F93F2030
:100DE00003F016F93F2003F013F90F2003F010F978
:100DF0002B2003F019F9002003F00AF9002003F07A
:100E000007F9012003F004F93F2003F001F92A203B
:100E100003F00AF9002003F0FBF8002003F0F8F8D3
:100E2000002003F0F5F8EF2003F0F2F8112003F0B2
:100E3000FBF87820FFF726FD292003F0F5F810BD18
:100E400010B5FF2003F0F0F8FF2003F0E1F8982040
:100E500003F0DEF8062003F0DBF8BC2003F0E4F832
:100E6000012003F0D5F80F2003F0D2F8612003F041
:100E7000CFF8FF2003F0CCF8012003F0C9F80120DF
:100E800003F0C6F80B2003F0C3F8102003F0C0F8FD
:100E9000372003F0BDF8632003F0BAF8FF2003F019
:100EA000B7F8FF2003F0B4F8012003F0B1F80120F7
:100EB00003F0AEF8002003F0ABF8002003F0A8F830
:100EC000FF2003F0A5F8522003F0A2F8012003F060
:100ED0009FF8002003F09CF8402003F099F8BD2013
:100EE00003F0A2F8012003F093F8232003F090F818
:100EF000452003F08DF8672003F08AF8012003F005
:100F000087F8232003F084F8452003F081F8672058
:100F100003F07EF8BE2003F087F8002003F078F895
:100F2000012003F075F8AB2003F072F8602003F0A5
:100F30006FF8222003F06CF8222003F069F82220D9
:100F400003F066F8222003F063F8222003F060F833
:100F5000C72003F069F8362003F05AF8ED2003F0BB
:100F600063F87F2003F054F80F2003F051F8C020FD
:100F700003F05AF80F2003F04BF80B2003F048F869
:100F80000A2003F045F8FC2003F04EF8082003F097
:100F90003FF8DF2003F048F8002003F039F8002084
:100FA00003F036F8002003F033F8002003F030F8A7
:100FB000002003F02DF8202003F02AF8F32003F09E
:100FC00033F8742003F024F8B42003F02DF8002047
:100FD00003F01EF8002003F01BF8002003F018F8BF
:100FE000F72003F021F8822003F012F8B12003F07B
:100FF0001BF8002003F00CF8132003F009F813206D
:1010000003F006F8F22003F00FF8802003F000F858
:10101000042002F0FDFF402002F0FAFF282002F039
:10102000F7FFC12003F000F8172002F0F1FF88203D
:1010300002F0EEFF882002F0EBFF202002F0E8FF34
:10104000E02002F0F1FF002002F0E2FF0A2002F0AF
:10105000DFFF122002F0DCFF102002F0D9FF0E208B
:1010600002F0D6FF202002F0D3FFCC2002F0D0FF08
:10107000072002F0CDFF062002F0CAFF0B2002F08D
:10108000C7FF0E2002F0C4FF0F2002F0C1FF0D20A9
:1010900002F0BEFF152002F0BBFF102002F0B8FFE7
:1010A000002002F0B5FFE12002F0BEFF002002F0B8
:1010B000AFFF0B2002F0ACFF132002F0A9FF0D20C0
:1010C00002F0A6FF0E2002F0A3FF1B2002F0A0FFFB
:1010D000712002F09DFF062002F09AFF062002F028
:1010E00097FF0A2002F094FF0F2002F091FF0E20DC
:1010F00002F08EFF0F2002F08BFF152002F088FF18
:101100000C2002F085FF002002F082FF2A2002F06E
:101110008BFF002002F07CFF002002F079FF01200D
:1011200002F076FFDF2002F073FF2B2002F07CFF3D
:10113000002002F06DFF002002F06AFF032002F0A1
:1011400067FF1F2002F064FF3A2002F06DFF552078
:1011500002F05EFF362002F067FF002002F058FF29
:10116000112002F061FF7820FFF78CFB292002F0AC
:101170005BFF1420FFF786FB2C2002F055FF10BD0B
:1011800010B5ED2002F050FF012002F041FFFE20DB
:1011900002F03EFFEE2002F047FFDE2002F038FFB3
:1011A000212002F035FFF12002F03EFF012002F085
:1011B0002FFFDF2002F038FF102002F029FFC420AB
:1011C00002F032FF8F2002F023FFC62002F02CFF36
:1011D000002002F01DFFE22002F01AFFE22002F0E0
:1011E00017FFE22002F014FFBF2002F01DFFAA202B
:1011F00002F00EFFB02002F017FF0D2002F008FFF2
:10120000002002F005FF0D2002F002FF002002F096
:10121000FFFE112002F0FCFE002002F0F9FE192072
:1012200002F0F6FE002002F0F3FE212002F0F0FEB4
:10123000002002F0EDFE2D2002F0EAFE002002F078
:10124000E7FE3D2002F0E4FE002002F0E1FE5D201A
:1012500002F0DEFE002002F0DBFE5D2002F0D8FE90
:10126000002002F0D5FEB12002F0DEFE802002F068
:10127000CFFE002002F0CCFE8B2002F0C9FE002041
:1012800002F0C6FE962002F0C3FE002002F0C0FE6F
:10129000B22002F0C9FE002002F0BAFE002002F0E7
:1012A000B7FE022002F0B4FE002002F0B1FE0320DF
:1012B00002F0AEFE002002F0ABFEB32002F0B4FE5E
:1012C000002002F0A5FE002002F0A2FE002002F0A5
:1012D0009FFE002002F09CFE002002F099FE0020FC
:1012E00002F096FE002002F093FE002002F090FE35
:1012F000002002F08DFE002002F08AFE002002F0A5
:1013000087FE002002F084FE002002F081FE002013
:1013100002F07EFE002002F07BFE002002F078FE4C
:10132000002002F075FE002002F072FE002002F0A4
:101330006FFE002002F06CFE002002F069FE00202B
:1013400002F066FE002002F063FE002002F060FE64
:10135000B42002F069FE8B2002F05AFE002002F059
:1013600057FE962002F054FE002002F051FEA1200C
:1013700002F04EFE002002F04BFEB52002F054FEBB
:10138000022002F045FE002002F042FE032002F09F
:101390003FFE002002F03CFE042002F039FE002057
:1013A00002F036FEB62002F03FFE002002F030FED2
:1013B000002002F02DFEB72002F036FE002002F0E1
:1013C00027FE002002F024FE3F2002F021FE002034
:1013D00002F01EFE5E2002F01BFE002002F018FE4E
:1013E000642002F015FE002002F012FE8C2002F0B4
:1013F0000FFE002002F00CFEAC2002F009FE0020DF
:1014000002F006FEDC2002F003FE002002F000FEE7
:10141000702002F0FDFD002002F0FAFD902002F0A5
:10142000F7FD002002F0F4FDEB2002F0F1FD0020BA
:1014300002F0EEFDDC2002F0EBFD002002F0E8FD02
:10144000B82002F0F1FD002002F0E2FD002002F0E1
:10145000DFFD002002F0DCFD002002F0D9FD0020BD
:1014600002F0D6FD002002F0D3FD002002F0D0FDF6
:10147000002002F0CDFDBA2002F0D6FD242002F0BB
:10148000C7FD002002F0C4FD002002F0C1FD0020D5
:1014900002F0BEFDC12002F0C7FD202002F0B8FD21
:1014A000002002F0B5FD542002F0B2FD002002F051
:1014B000AFFDFF2002F0ACFD002002F0A9FDC2202C
:1014C00002F0B2FD0A2002F0A3FD002002F0A0FD10
:1014D000042002F09DFD002002F09AFDC32002F0DE
:1014E000A3FD3C2002F094FD002002F091FD3A2083
:1014F00002F08EFD002002F08BFD392002F088FD05
:10150000002002F085FD372002F082FD002002F06D
:101510007FFD3C2002F07CFD002002F079FD3620AA
:1015200002F076FD002002F073FD322002F070FD23
:10153000002002F06DFD2F2002F06AFD002002F075
:1015400067FD2C2002F064FD002002F061FD2920DF
:1015500002F05EFD002002F05BFD262002F058FD47
:10156000002002F055FD242002F052FD002002F080
:101570004FFD242002F04CFD002002F049FD232005
:1015800002F046FD002002F043FD3C2002F040FD49
:10159000002002F03DFD362002F03AFD002002F06E
:1015A00037FD322002F034FD002002F031FD2F2003
:1015B00002F02EFD002002F02BFD2C2002F028FD71
:1015C000002002F025FD292002F022FD002002F07B
:1015D0001FFD262002F01CFD002002F019FD242032
:1015E00002F016FD002002F013FD242002F010FD91
:1015F000002002F00DFD232002F00AFD002002F081
:1016000007FDC42002F010FD622002F001FD002061
:1016100002F0FEFC052002F0FBFC002002F0F8FCCA
:10162000842002F0F5FC002002F0F2FCF02002F031
:10163000EFFC002002F0ECFC182002F0E9FC002096
:1016400002F0E6FCA42002F0E3FC002002F0E0FC43
:10165000182002F0DDFC002002F0DAFC502002F03D
:10166000D7FC002002F0D4FC0C2002F0D1FC0020BA
:1016700002F0CEFC172002F0CBFC002002F0C8FCE8
:10168000952002F0C5FC002002F0C2FCF32002F01D
:10169000BFFC002002F0BCFCE62002F0B9FC0020F8
:1016A00002F0B6FCC52002F0BFFC322002F0B0FC14
:1016B000002002F0ADFC442002F0AAFC002002F061
:1016C000A7FC652002F0A4FC002002F0A1FC76201B
:1016D00002F09EFC002002F09BFC882002F098FCA7
:1016E000002002F095FCC62002F09EFC202002F0B3
:1016F0008FFC002002F08CFC172002F089FC0020F7
:1017000002F086FC012002F083FC002002F080FC45
:10171000C72002F089FC002002F07AFC002002F0D1
:1017200077FC002002F074FC002002F071FCC8205D
:1017300002F07AFC002002F06BFC002002F068FC52
:10174000002002F065FC002002F062FCC92002F0DB
:101750006BFC002002F05CFC002002F059FC002031
:1017600002F056FC002002F053FC002002F050FC76
:10177000002002F04DFC002002F04AFC002002F0A4
:1017800047FC002002F044FC002002F041FC002055
:1017900002F03EFC002002F03BFC002002F038FC8E
:1017A000002002F035FC002002F032FC002002F0A4
:1017B0002FFCE02002F038FC162002F029FC00206B
:1017C00002F026FC1C2002F023FC002002F020FC8A
:1017D000212002F01DFC002002F01AFC362002F04D
:1017E00017FC002002F014FC462002F011FC00203F
:1017F00002F00EFC522002F00BFC002002F008FC6C
:10180000642002F005FC002002F002FC7A2002F0C5
:10181000FFFB002002F0FCFB8B2002F0F9FB002014
:1018200002F0F6FB992002F0F3FB002002F0F0FB3F
:10183000A82002F0EDFB002002F0EAFBB92002F044
:10184000E7FB002002F0E4FBC42002F0E1FB0020F3
:1018500002F0DEFBCA2002F0DBFB002002F0D8FB26
:10186000D22002F0D5FB002002F0D2FBD92002F0FA
:10187000CFFB002002F0CCFBE02002F0C9FB0020EF
:1018800002F0C6FBF32002F0C3FB002002F0C0FB15
:10189000E12002F0C9FB162002F0BAFB002002F0A2
:1018A000B7FB1C2002F0B4FB002002F0B1FB2220A9
:1018B00002F0AEFB002002F0ABFB362002F0A8FBEA
:1018C000002002F0A5FB452002F0A2FB002002F060
:1018D0009FFB522002F09CFB002002F099FB642049
:1018E00002F096FB002002F093FB7A2002F090FBBE
:1018F000002002F08DFB8B2002F08AFB002002F01A
:1019000087FB992002F084FB002002F081FBA820D5
:1019100002F07EFB002002F07BFBB92002F078FB96
:10192000002002F075FBC42002F072FB002002F0E0
:101930006FFBCA2002F06CFB002002F069FBD22092
:1019400002F066FB002002F063FBD82002F060FB8F
:10195000002002F05DFBE02002F05AFB002002F0C4
:1019600057FBF32002F054FB002002F051FBE22071
:1019700002F05AFB052002F04BFB002002F048FB6E
:101980000B2002F045FB002002F042FB1B2002F07E
:101990003FFB002002F03CFB342002F039FB00202A
:1019A00002F036FB442002F033FB002002F030FB53
:1019B0004F2002F02DFB002002F02AFB612002F0F4
:1019C00027FB002002F024FB792002F021FB0020FD
:1019D00002F01EFB882002F01BFB002002F018FB27
:1019E000972002F015FB002002F012FBA62002F067
:1019F0000FFB002002F00CFBB72002F009FB0020D7
:101A000002F006FBC22002F003FB002002F000FB04
:101A1000C72002F0FDFA002002F0FAFAD12002F00D
:101A2000F7FA002002F0F4FAD62002F0F1FA0020D2
:101A300002F0EEFADD2002F0EBFA002002F0E8FA04
:101A4000F32002F0E5FA002002F0E2FAE32002F0CF
:101A5000EBFA052002F0DCFA002002F0D9FA0A20A5
:101A600002F0D6FA002002F0D3FA1C2002F0D0FADD
:101A7000002002F0CDFA332002F0CAFA002002F072
:101A8000C7FA442002F0C4FA002002F0C1FA502044
:101A900002F0BEFA002002F0BBFA622002F0B8FAAF
:101AA000002002F0B5FA782002F0B2FA002002F02D
:101AB000AFFA882002F0ACFA002002F0A9FA9720D1
:101AC00002F0A6FA002002F0A3FAA62002F0A0FA83
:101AD000002002F09DFAB72002F09AFA002002F0EE
:101AE00097FAC22002F094FA002002F091FAC7207F
:101AF00002F08EFA002002F08BFAD12002F088FA70
:101B0000002002F085FAD52002F082FA002002F0CF
:101B10007FFADD2002F07CFA002002F079FAF3204F
:101B200002F076FA002002F073FAE42002F07CFA68
:101B3000012002F06DFA002002F06AFA012002F0A2
:101B400067FA002002F064FA022002F061FA002035
:101B500002F05EFA2A2002F05BFA002002F058FA46
:101B60003C2002F055FA002002F052FA4B2002F01D
:101B70004FFA002002F04CFA5D2002F049FA0020F2
:101B800002F046FA742002F043FA002002F040FA14
:101B9000842002F03DFA002002F03AFA932002F08D
:101BA00037FA002002F034FAA22002F031FA0020C5
:101BB00002F02EFAB32002F02BFA002002F028FAED
:101BC000BE2002F025FA002002F022FAC42002F022
:101BD0001FFA002002F01CFACD2002F019FA0020B2
:101BE00002F016FAD32002F013FA002002F010FAE5
:101BF000DD2002F00DFA002002F00AFAF32002F0D4
:101C000007FA002002F004FAE52002F00DFA0020A5
:101C100002F0FEF9002002F0FBF9002002F0F8F9D2
:101C2000002002F0F5F9022002F0F2F9002002F0A3
:101C3000EFF9292002F0ECF9002002F0E9F93C204C
:101C400002F0E6F9002002F0E3F94B2002F0E0F99F
:101C5000002002F0DDF95D2002F0DAF9002002F048
:101C6000D7F9742002F0D4F9002002F0D1F98420D1
:101C700002F0CEF9002002F0CBF9932002F0C8F96F
:101C8000002002F0C5F9A22002F0C2F9002002F003
:101C9000BFF9B32002F0BCF9002002F0B9F9BE2070
:101CA00002F0B6F9002002F0B3F9C42002F0B0F956
:101CB000002002F0ADF9CD2002F0AAF9002002F0D8
:101CC000A7F9D32002F0A4F9002002F0A1F9DC204A
:101CD00002F09EF9002002F09BF9F32002F098F93F
:101CE000002002F095F9E62002F09EF9112002F0A2
:101CF0008FF9002002F08CF9342002F089F90020DD
:101D000002F086F9562002F083F9002002F080F9F3
:101D1000762002F07DF9002002F07AF9772002F0B7
:101D200077F9002002F074F9662002F071F90020C2
:101D300002F06EF9882002F06BF9002002F068F9D9
:101D4000992002F065F9002002F062F9BB2002F050
:101D50005FF9002002F05CF9992002F059F90020A7
:101D600002F056F9662002F053F9002002F050F913
:101D7000552002F04DF9002002F04AF9552002F0FA
:101D800047F9002002F044F9452002F041F9002013
:101D900002F03EF9432002F03BF9002002F038F94E
:101DA000442002F035F9002002F032F9E72002F079
:101DB0003BF9322002F02CF9002002F029F95520DD
:101DC00002F026F9002002F023F9762002F020F933
:101DD000002002F01DF9662002F01AF9002002F03E
:101DE00017F9672002F014F9002002F011F96720BA
:101DF00002F00EF9002002F00BF9872002F008F93A
:101E0000002002F005F9992002F002F9002002F00A
:101E1000FFF8BB2002F0FCF8002002F0F9F899204E
:101E200002F0F6F8002002F0F3F8772002F0F0F864
:101E3000002002F0EDF8442002F0EAF8002002F061
:101E4000E7F8562002F0E4F8002002F0E1F8232041
:101E500002F0DEF8002002F0DBF8332002F0D8F8C0
:101E6000002002F0D5F8452002F0D2F8002002F060
:101E7000CFF8E82002F0D8F8002002F0C9F80020DE
:101E800002F0C6F8992002F0C3F8002002F0C0F872
:101E9000872002F0BDF8002002F0BAF8882002F096
:101EA000B7F8002002F0B4F8772002F0B1F8002073
:101EB00002F0AEF8662002F0ABF8002002F0A8F8BD
:101EC000882002F0A5F8002002F0A2F8AA2002F073
:101ED0009FF8002002F09CF8BB2002F099F8002047
:101EE00002F096F8992002F093F8002002F090F8A2
:101EF000662002F08DF8002002F08AF8552002F0EA
:101F000087F8002002F084F8552002F081F80020C4
:101F100002F07EF8442002F07BF8002002F078F80E
:101F2000442002F075F8002002F072F8552002F00B
:101F30006FF8002002F06CF8E92002F075F8AA2092
:101F400002F066F8002002F063F8002002F060F86A
:101F5000002002F05DF8002002F066F8AA2002F0EE
:101F600057F8CF2002F060F8002002F051F800206E
:101F700002F04EF8002002F04BF8002002F048F882
:101F8000002002F045F8002002F042F8002002F0A4
:101F90003FF8002002F03CF8002002F039F8002061
:101FA00002F036F8002002F033F8002002F030F89A
:101FB000002002F02DF8002002F02AF8002002F0A4
:101FC00027F8002002F024F8002002F021F8F02089
:101FD00002F02AF8002002F01BF8502002F018F856
:101FE000002002F015F8002002F012F8002002F0A4
:101FF0000FF8F32002F018F8002002F009F8F92099
:1020000002F012F8062002F003F8102002F000F8A7
:10201000292001F0FDFF002001F0FAFF3A2002F034
:1020200003F8552001F0F4FF112001F0FDFF6420BA
:10203000FEF728FC292001F0F7FF352001F0F4FF1E
:10204000002001F0E5FF512001F0EEFFFF2001F03C
:10205000DFFF532001F0E8FF2C2001F0D9FF5520CD
:1020600001F0E2FF822001F0D3FF2C2001F0DCFF21
:1020700010BD10B555214FF4704001F0EBFFAA21BF
:102080004FF2010001F0E6FF52214FF2020001F091
:10209000E1FF08214FF2030001F0DCFF01214FF2C4
:1020A000040001F0D7FF0D214FF4304001F0D2FFC2
:1020B0000D214BF2010001F0CDFF0D214BF202008A
:1020C00001F0C8FF34214FF4364001F0C3FF342142
:1020D0004BF2016001F0BEFF34214BF2026001F0CF
:1020E000B9FF0D214FF4314001F0B4FF0D214BF247
:1020F000011001F0AFFF0D214BF2021001F0AAFF19
:1021000034214FF4374001F0A5FF34214BF2017028
:1021100001F0A0FF34214BF2027001F09BFF00217F
:102120004FF4324001F096FF00214BF2012001F004
:1021300091FF00214BF2022001F08CFF24214FF48B
:10214000384001F087FF24214BF6010001F082FFA7
:1021500024214BF6020001F07DFF01214FF43F40A6
:1021600001F078FF0F214FF4334001F073FF0F218E
:102170004BF2013001F06EFF0F214BF2023001F003
:1021800069FF34214FF4394001F064FF34214BF6EC
:10219000011001F05FFF34214BF6021001F05AFFED
:1021A00008214FF4354001F055FF08214BF2015052
:1021B00001F050FF08214BF2025001F04BFF0321C8
:1021C0004FF4424001F046FF24214FF43A4001F021
:1021D00041FF24214BF6012001F03CFF24214BF666
:1021E000022001F037FF00214FF43C4001F032FFA4
:1021F00078214BF6014001F02DFF00214BF6024003
:1022000001F028FF00214FF43D4001F023FF782129
:102210004BF6015001F01EFF00214BF6025001F079
:1022200019FF00214FF43E4001F014FF64214BF6EA
:10223000016001F00FFF00214FF4514001F00AFF4F
:1022400033214DF2011001F005FF00214DF2021083
:1022500001F000FF34214DF2031001F0FBFE0021DC
:102260004DF2041001F0F6FE3A214DF2051001F096
:10227000F1FE00214DF2061001F0ECFE4A214DF274
:10228000071001F0E7FE00214DF2081001F0E2FE18
:102290005C214DF2091001F0DDFE00214DF20A1023
:1022A00001F0D8FE81214DF20B1001F0D3FE002188
:1022B0004DF20C1001F0CEFEA6214DF20D1001F0F2
:1022C000C9FE00214DF20E1001F0C4FEE5214DF2D1
:1022D0000F1001F0BFFE01214DF2101001F0BAFE07
:1022E00013214DF2111001F0B5FE01214DF2121033
:1022F00001F0B0FE54214DF2131001F0ABFE0121AC
:102300004DF2141001F0A6FE82214DF2151001F0DD
:10231000A1FE01214DF2161001F09CFECA214DF2E2
:10232000171001F097FE02214DF2181001F092FEF5
:1023300000214DF2191001F08DFE02214DF21A100C
:1023400001F088FE01214DF21B1001F083FE0221F5
:102350004DF21C1001F07EFE34214DF21D1001F0F3
:1023600079FE02214DF21E1001F074FE67214DF23C
:102370001F1001F06FFE02214DF2201001F06AFEE5
:1023800084214DF2211001F065FE02214DF2221050
:1023900001F060FEA4214DF2231001F05BFE02214A
:1023A0004DF2241001F056FEB7214DF2251001F038
:1023B00051FE02214DF2261001F04CFECF214DF2CC
:1023C000271001F047FE02214DF2281001F042FED5
:1023D000DE214DF2291001F03DFE02214DF22A10BE
:1023E00001F038FEF2214DF22B1001F033FE0221F4
:1023F0004DF22C1001F02EFEFE214DF22D1001F0B9
:1024000029FE03214DF22E1001F024FE10214DF281
:102410002F1001F01FFE03214DF2301001F01AFEC3
:1024200033214DF2311001F015FE03214DF232102F
:1024300001F010FE6D214DF2331001F00BFE002172
:102440004FF4524001F006FE33214DF2012001F01D
:1024500001FE00214DF2022001F0FCFD34214DF27D
:10246000032001F0F7FD00214DF2042001F0F2FD00
:102470003A214DF2052001F0EDFD00214DF206203C
:1024800001F0E8FD4A214DF2072001F0E3FD0021B3
:102490004DF2082001F0DEFD5C214DF2092001F033
:1024A000D9FD00214DF20A2001F0D4FD81214DF229
:1024B0000B2001F0CFFD00214DF20C2001F0CAFDF0
:1024C000A6214DF20D2001F0C5FD00214DF20E2098
:1024D00001F0C0FDE5214DF20F2001F0BBFD01210F
:1024E0004DF2102001F0B6FD13214DF2112001F044
:1024F000B1FD01214DF2122001F0ACFD54214DF24D
:10250000132001F0A7FD01214DF2142001F0A2FDDE
:1025100082214DF2152001F09DFD01214DF2162082
:1025200001F098FDCA214DF2172001F093FD022120
:102530004DF2182001F08EFD00214DF2192001F01E
:1025400089FD02214DF21A2001F084FD01214DF296
:102550001B2001F07FFD02214DF21C2001F07AFDCD
:1025600034214DF21D2001F075FD02214DF21E2097
:1025700001F070FD67214DF21F2001F06BFD02217B
:102580004DF2202001F066FD84214DF2212001F062
:1025900061FD02214DF2222001F05CFDA4214DF2EB
:1025A000232001F057FD02214DF2242001F052FDBD
:1025B000B7214DF2252001F04DFD02214DF22620DC
:1025C00001F048FDCF214DF2272001F043FD02210B
:1025D0004DF2282001F03EFDDE214DF2292001F0D0
:1025E00039FD02214DF22A2001F034FDF2214DF295
:1025F0002B2001F02FFD02214DF22C2001F02AFDAD
:10260000FE214DF22D2001F025FD03214DF22E205B
:1026100001F020FD10214DF22F2001F01BFD0321C0
:102620004DF2302001F016FD33214DF2312001F042
:1026300011FD03214DF2322001F00CFD6D214DF210
:10264000332001F007FD00214FF4534001F002FD5B
:1026500033214DF2013001F0FDFC00214DF202303A
:1026600001F0F8FC34214DF2033001F0F3FC0021BD
:102670004DF2043001F0EEFC3A214DF2053001F04C
:10268000E9FC00214DF2063001F0E4FC4A214DF254
:10269000073001F0DFFC00214DF2083001F0DAFCD8
:1026A0005C214DF2093001F0D5FC00214DF20A30D9
:1026B00001F0D0FC81214DF20B3001F0CBFC002168
:1026C0004DF20C3001F0C6FCA6214DF20D3001F0A8
:1026D000C1FC00214DF20E3001F0BCFCE5214DF2B1
:1026E0000F3001F0B7FC01214DF2103001F0B2FCC7
:1026F00013214DF2113001F0ADFC01214DF21230E9
:1027000001F0A8FC54214DF2133001F0A3FC01218B
:102710004DF2143001F09EFC82214DF2153001F093
:1027200099FC01214DF2163001F094FCCA214DF2C2
:10273000173001F08FFC02214DF2183001F08AFCB5
:1027400000214DF2193001F085FC02214DF21A30C2
:1027500001F080FC01214DF21B3001F07BFC0221D5
:102760004DF21C3001F076FC34214DF21D3001F0A9
:1027700071FC02214DF21E3001F06CFC67214DF21C
:102780001F3001F067FC02214DF2203001F062FCA5
:1027900084214DF2213001F05DFC02214DF2223006
:1027A00001F058FCA4214DF2233001F053FC02212A
:1027B0004DF2243001F04EFCB7214DF2253001F0EE
:1027C00049FC02214DF2263001F044FCCF214DF2AC
:1027D000273001F03FFC02214DF2283001F03AFC95
:1027E000DE214DF2293001F035FC02214DF22A3074
:1027F00001F030FCF2214DF22B3001F02BFC0221D4
:102800004DF22C3001F026FCFE214DF22D3001F06E
:1028100021FC03214DF22E3001F01CFC10214DF261
:102820002F3001F017FC03214DF2303001F012FC83
:1028300033214DF2313001F00DFC03214DF23230E5
:1028400001F008FC6D214DF2333001F003FC002152
:102850004FF4544001F0FEFB33214DF2014001F0F2
:10286000F9FB00214DF2024001F0F4FB34214DF25E
:10287000034001F0EFFB00214DF2044001F0EAFBC0
:102880003A214DF2054001F0E5FB00214DF20640F2
:1028900001F0E0FB4A214DF2074001F0DBFB002193
:1028A0004DF2084001F0D6FB5C214DF2094001F0E9
:1028B000D1FB00214DF20A4001F0CCFB81214DF209
:1028C0000B4001F0C7FB00214DF20C4001F0C2FBB0
:1028D000A6214DF20D4001F0BDFB00214DF20E404E
:1028E00001F0B8FBE5214DF20F4001F0B3FB0121EF
:1028F0004DF2104001F0AEFB13214DF2114001F0FA
:10290000A9FB01214DF2124001F0A4FB54214DF22C
:10291000134001F09FFB01214DF2144001F09AFB9E
:1029200082214DF2154001F095FB01214DF2164038
:1029300001F090FBCA214DF2174001F08BFB022100
:102940004DF2184001F086FB00214DF2194001F0D4
:1029500081FB02214DF21A4001F07CFB01214DF276
:102960001B4001F077FB02214DF21C4001F072FB8D
:1029700034214DF21D4001F06DFB02214DF21E404D
:1029800001F068FB67214DF21F4001F063FB02215B
:102990004DF2204001F05EFB84214DF2214001F018
:1029A00059FB02214DF2224001F054FBA4214DF2CB
:1029B000234001F04FFB02214DF2244001F04AFB7D
:1029C000B7214DF2254001F045FB02214DF2264092
:1029D00001F040FBCF214DF2274001F03BFB0221EB
:1029E0004DF2284001F036FBDE214DF2294001F086
:1029F00031FB02214DF22A4001F02CFBF2214DF275
:102A00002B4001F027FB02214DF22C4001F022FB6C
:102A1000FE214DF22D4001F01DFB03214DF22E4011
:102A200001F018FB10214DF22F4001F013FB0321A0
:102A30004DF2304001F00EFB33214DF2314001F0F8
:102A400009FB03214DF2324001F004FB6D214DF2F0
:102A5000334001F0FFFA00214FF4554001F0FAFA3B
:102A600033214DF2015001F0F5FA00214DF20250F0
:102A700001F0F0FA34214DF2035001F0EBFA00219D
:102A80004DF2045001F0E6FA3A214DF2055001F002
:102A9000E1FA00214DF2065001F0DCFA4A214DF234
:102AA000075001F0D7FA00214DF2085001F0D2FA98
:102AB0005C214DF2095001F0CDFA00214DF20A508F
:102AC00001F0C8FA81214DF20B5001F0C3FA002148
:102AD0004DF20C5001F0BEFAA6214DF20D5001F05E
:102AE000B9FA00214DF20E5001F0B4FAE5214DF291
:102AF0000F5001F0AFFA01214DF2105001F0AAFA87
:102B000013214DF2115001F0A5FA01214DF212509E
:102B100001F0A0FA54214DF2135001F09BFA01216B
:102B20004DF2145001F096FA82214DF2155001F049
:102B300091FA01214DF2165001F08CFACA214DF2A2
:102B4000175001F087FA02214DF2185001F082FA75
:102B500000214DF2195001F07DFA02214DF21A5078
:102B600001F078FA01214DF21B5001F073FA0221B5
:102B70004DF21C5001F06EFA34214DF21D5001F05F
:102B800069FA02214DF21E5001F064FA67214DF2FC
:102B90001F5001F05FFA02214DF2205001F05AFA65
:102BA00084214DF2215001F055FA02214DF22250BC
:102BB00001F050FAA4214DF2235001F04BFA02210A
:102BC0004DF2245001F046FAB7214DF2255001F0A4
:102BD00041FA02214DF2265001F03CFACF214DF28C
:102BE000275001F037FA02214DF2285001F032FA55
:102BF000DE214DF2295001F02DFA02214DF22A502A
:102C000001F028FAF2214DF22B5001F023FA0221B3
:102C10004DF22C5001F01EFAFE214DF22D5001F024
:102C200019FA03214DF22E5001F014FA10214DF241
:102C30002F5001F00FFA03214DF2305001F00AFA43
:102C400033214DF2315001F005FA03214DF232509B
:102C500001F000FA6D214DF2335001F0FBF9002133
:102C60004FF4564001F0F6F933214DF2016001F0C6
:102C7000F1F900214DF2026001F0ECF934214DF23E
:102C8000036001F0E7F900214DF2046001F0E2F980
:102C90003A214DF2056001F0DDF900214DF20660A8
:102CA00001F0D8F94A214DF2076001F0D3F9002173
:102CB0004DF2086001F0CEF95C214DF2096001F09F
:102CC000C9F900214DF20A6001F0C4F981214DF2E9
:102CD0000B6001F0BFF900214DF20C6001F0BAF970
:102CE000A6214DF20D6001F0B5F900214DF20E6004
:102CF00001F0B0F9E5214DF20F6001F0ABF90121CF
:102D00004DF2106001F0A6F913214DF2116001F0AF
:102D1000A1F901214DF2126001F09CF954214DF20C
:102D2000136001F097F901214DF2146001F092F95E
:102D300082214DF2156001F08DF901214DF21660EE
:102D400001F088F9CA214DF2176001F083F90221E0
:102D50004DF2186001F07EF900214DF2196001F08A
:102D600079F902214DF21A6001F074F901214DF256
:102D70001B6001F06FF902214DF21C6001F06AF94D
:102D800034214DF21D6001F065F902214DF21E6003
:102D900001F060F967214DF21F6001F05BF902213B
:102DA0004DF2206001F056F984214DF2216001F0CE
:102DB00051F902214DF2226001F04CF9A4214DF2AB
:102DC000236001F047F902214DF2246001F042F93D
:102DD000B7214DF2256001F03DF902214DF2266048
:102DE00001F038F9CF214DF2276001F033F90221CB
:102DF0004DF2286001F02EF9DE214DF2296001F03C
:102E000029F902214DF22A6001F024F9F2214DF254
:102E10002B6001F01FF902214DF22C6001F01AF92C
:102E2000FE214DF22D6001F015F903214DF22E60C7
:102E300001F010F910214DF22F6001F00BF9032180
:102E40004DF2306001F006F933214DF2316001F0AE
:102E500001F903214DF2326001F0FCF86D214DF2D1
:102E6000336001F0F7F855214FF4704001F0F2F8AB
:102E7000AA214FF2010001F0EDF852214FF20200B9
:102E800001F0E8F808214FF2030001F0E3F8002117
:102E90004FF2040001F0DEF8CC214FF4314001F094
:102EA000D9F800214BF2011001F0D4F805214FF4BC
:102EB000364001F0CFF870214FF4374001F0CAF8E6
:102EC00070214BF2017001F0C5F801214FF4384038
:102ED00001F0C0F803214BF6010001F0BBF803211B
:102EE0004BF6020001F0B6F803214BF6030001F0A7
:102EF000B1F802214FF43C4001F0ACF800214BF650
:102F0000014001F0A7F800214BF6024001F0A2F8C1
:102F1000D0214FF4494001F09DF802214CF60110F8
:102F200001F098F850214CF6021001F093F850216E
:102F30004CF6031001F08EF850214CF6041001F00D
:102F400089F800214FF4545001F084F855214FF4D2
:102F5000685001F07FF84FF4885001F065F8782050
:102F6000FDF79AFC4FF4245001F05EF810BD10B547
:102F7000E22001F059F81D2001F04AF8022001F08A
:102F800047F8042001F044F86420FDF785FCE020B8
:102F900001F04AF8012001F03BF80A20FDF772FC2D
:102FA000E02001F041F8032001F032F80C20FDF799
:102FB00069FC012001F038F80A20FDF763FCE620E7
:102FC00001F032F82F2001F023F8FF2001F020F863
:102FD000FF2001F01DF8B02001F026F8202001F0BC
:102FE00017F8002001F014F8032001F011F840F266
:102FF0001F3001F00DF8012001F00AF840F2DF1057
:1030000001F006F8002001F003F8B42001F00CF8FC
:10301000042000F0FDFF40F21F4000F0F9FF002007
:1030200000F0F6FF2E2000F0F3FF002000F0F0FF8C
:10303000002000F0EDFF002000F0EAFF002000F08B
:10304000E7FFB62000F0F0FF022000F0E1FF4FF4B0
:10305000037000F0DDFF002000F0DAFF172000F021
:10306000D7FF152000F0D4FF002000F0D1FF002092
:1030700000F0CEFFF02000F0D7FF032000F0C8FFE3
:10308000292000F0D1FFD02000F0CEFF002000F07A
:10309000BFFFBE2000F0C8FF052000F0B9FFFE20F2
:1030A00000F0B6FF012000F0B3FF002000F0B0FFF9
:1030B000002000F0ADFF002000F0AAFFB82000F0D3
:1030C000B3FF032000F0A4FF012000F0A1FFBA200D
:1030D00000F0AAFF012000F09BFF10BD10B51120E9
:1030E00000F0A2FF7820FDF7CDFB362000F09CFF1A
:1030F000002000F08DFF3A2000F096FF052000F040
:1031000087FFB22000F090FF0C2000F081FF0C2020
:1031100000F07EFF002000F07BFF332000F078FFFE
:10312000332000F075FFB72000F07EFF352000F05F
:103130006FFFBB2000F078FF322000F069FFC02055
:1031400000F072FF0C2000F063FFC22000F06CFF63
:10315000012000F05DFFC32000F066FF102000F0AA
:1031600057FFC42000F060FF202000F051FFC62070
:1031700000F05AFF0F2000F04BFFD02000F054FF6A
:10318000A42000F045FFA12000F042FFE02000F065
:103190004BFFD02000F03CFF002000F039FF022060
:1031A00000F036FF072000F033FF0A2000F030FF68
:1031B000282000F02DFF322000F02AFF442000F0EC
:1031C00027FF422000F024FF062000F021FF0E2000
:1031D00000F01EFF122000F01BFF142000F018FF6B
:1031E000172000F015FFE12000F01EFFD02000F0B6
:1031F0000FFF002000F00CFF022000F009FF072065
:1032000000F006FF0A2000F003FF282000F000FF76
:10321000312000F0FDFE542000F0FAFE472000F0BF
:10322000F7FE0E2000F0F4FE1C2000F0F1FE172047
:1032300000F0EEFE1B2000F0EBFE1E2000F0E8FE8A
:103240002A2000F0F1FE002000F0E2FE002000F055
:10325000DFFE002000F0DCFEEF2000F0D9FE2B2086
:1032600000F0E2FE002000F0D3FE002000F0D0FECF
:10327000012000F0CDFE3F2000F0CAFE292000F022
:10328000D3FE10BD10B5112000F0CEFE7820FDF762
:10329000F9FA362000F0C8FE482000F0B9FE3A20C6
:1032A00000F0C2FE552000F0B3FEF02000F0BCFE9E
:1032B000C32000F0ADFEF02000F0B6FE962000F036
:1032C000A7FEB42000F0B0FE012000F0A1FEB62061
:1032D00000F0AAFE0A2000F09BFEA22000F098FE5B
:1032E000B72000F0A1FEC62000F092FEB92000F049
:1032F0009BFE022000F08CFEE02000F089FEC02042
:1033000000F092FE802000F083FE162000F080FE88
:10331000C12000F089FE192000F07AFEC22000F0E2
:1033200083FEA72000F074FEC52000F07DFE16206D
:1033300000F06EFEE82000F077FE402000F068FE0E
:103340008A2000F065FE002000F062FE002000F000
:103350005FFE292000F05CFE192000F059FEA52038
:1033600000F056FE332000F053FEE02000F05CFE3B
:10337000F02000F04DFE072000F04AFE0D2000F086
:1033800047FE042000F044FE052000F041FE14201A
:1033900000F03EFE362000F03BFE542000F038FEE8
:1033A0004C2000F035FE382000F032FE132000F0F3
:1033B0002FFE142000F02CFE2E2000F029FE3420D9
:1033C00000F026FEE12000F02FFEF02000F020FEAD
:1033D000102000F01DFE142000F01AFE0E2000F058
:1033E00017FE0C2000F014FE082000F011FE35201E
:1033F00000F00EFE442000F00BFE4C2000F008FE12
:10340000262000F005FE102000F002FE122000F041
:10341000FFFD2C2000F0FCFD322000F0F9FDF02033
:1034200000F002FE3C2000F0F3FDF02000F0FCFD77
:10343000692000F0EDFD7820FDF724FA212000F04E
:10344000F3FD292000F0F0FD10BD00002DE9F04F44
:1034500005460E4617469846DDF824A04FF0000BAF
:10346000781B401C1FFA80FB344613E02146284697
:1034700000F038FC00F0E4FD4FF0000906E00749D9
:10348000A1F800A009F101001FFA80F9D945F6DB87
:10349000601C84B24445E9DDBDE8F08F8000006C1B
:1034A0001CB500BFFE48006840F04000FC490860C1
:1034B00000BF00BF0846006840F00800086000BF79
:1034C00000BF0846006840F00800086000BF00BF69
:1034D0000846006840F02000086000BF00BF0846B2
:1034E000006840F00200086000BF0846006840F035
:1034F00018000860EA480830006840F00100E84918
:10350000083108600120032100230222CDE90010C8
:103510000103E44801F060F90120032100230222A5
:10352000CDE900102021E04801F056F901200321E7
:1035300000230222CDE900101021DB4801F04CF9F4
:103540000120032100230222CDE900100103D74806
:1035500001F042F90120032100230246CDE90010C9
:10356000C103D34801F038F90C224FF48051CD4803
:1035700001F0EAF80C222021CB4801F0E5F80C22FA
:103580001021C94801F0E0F80C224FF48051C748DF
:1035900001F0DAF80120032100230222CDE9001016
:1035A0004CF20371C04801F017F9012003210023F8
:1035B0000222CDE900104FF68071BE4801F00CF9EF
:1035C0000C224CF20371B84801F0BEF80C224FF601
:1035D0008071B84801F0B8F800204FF020418861B0
:1035E000C861B54908604FF02040806940F48050C0
:1035F0004FF0204188610846806940F4804088612E
:103600000846806940F0100088610846C069C861BA
:103610000846C06940F00F00C8610846C06940F420
:103620007050C861A4480068C1F81C010846D0F871
:103630001C0140F00900C1F81C010846D0F81C012B
:1036400040F40060C1F81C010846806940F00100A8
:1036500088619A4800F016FAD32000F0E5FC00F0EB
:1036600017FA9749888000F013FA9549888000F08E
:103670000FFA93498880084680884FF6FF7101EA67
:1036800000208F49888000F003FA8D49898808431B
:103690008B4988800846808849F2413188427CD035
:1036A000042000F0C1FC00F0F3F98549888000F0A7
:1036B000EFF98349888000F0EBF98149888008465A
:1036C00080884FF6FF7101EA00207D49888000F074
:1036D000DFF97B49898808437949888008468088D2
:1036E00048F25251884203D147F289707449888068
:1036F0007348808847F289718842D0D0D42000F086
:1037000093FC00F0C5F96E49888000F0C1F96C495E
:10371000888000F0BDF96A498880084680884FF6A5
:10372000FF7101EA00206649888000F0B1F9644920
:1037300089880843624988800846808845F21031AC
:103740008842ACD0D32000F06FFC00F0A1F95C49B6
:10375000888000F09DF95A49888000F099F958490D
:103760008880084680884FF6FF7101EA002054499E
:10377000888000F08DF95249898808435049888033
:103780000846808847F29671884288D055214FF4C8
:10379000704000F05FFCAA2100E07EE04FF20100E3
:1037A00000F058FC52214FF2020000F053FC0821B7
:1037B0004FF2030000F04EFC01214FF2040000F034
:1037C00049FC4FF4454000F02FFC00F061F93C4902
:1037D0008880084680884FF6FF7101EA002038494A
:1037E00088804CF2015000F01FFC00F051F9344980
:1037F00089880843324988800520FDF743F830481E
:10380000808845F21051884247D0D32000F00CFC4C
:1038100000F03EF92A49888000F03AF9284988806A
:1038200000F036F926498880084680884FF6FF71F7
:1038300001EA00202249888000F02AF9204989887D
:1038400008431F4988800846808849F60601884257
:1038500023D0A12000F0E8FB00F01AF91849888075
:1038600000F016F916498880084680884FF6FF71E7
:1038700001EA00201249888000F00AF9104989887D
:1038800008430F4988800846808845F26171884264
:1038900003D141F663100A4988800948818811E004
:1038A0003038024000180240000C02400014024070
:1038B00000040240001002401C0100A0FFFF0100B4
:1038C0002002002069A0FCF703FD6B48808847F2C6
:1038D0008971884202D1FFF701FC37E06648808891
:1038E00049F24131884202D1FDF794F92EE0624855
:1038F000808845F21031884202D1FDF741FC25E075
:103900005D48808847F29671884202D1FFF7BAFC81
:103910001CE05948808845F21051884202D1FEF7D8
:10392000A8FB13E05448808849F60601884202D17A
:10393000FDF786FA0AE05048808841F66311884214
:1039400004D1FFF714FB642000F032FB4A48808862
:1039500047F2897188421DD14848006820F00F0065
:103960004FF02041C1F81C010846D0F81C0120F49A
:103970007060C1F81C010846D0F81C0140F003003B
:10398000C1F81C010846D0F81C0140F44070C1F891
:103990001C015EE03848808849F6060188420BD059
:1039A0003548808849F24131884205D032488088C4
:1039B00045F2105188421DD13048006820F00F00B8
:1039C0004FF02041C1F81C010846D0F81C0120F43A
:1039D0007060C1F81C010846D0F81C0140F00200DC
:1039E000C1F81C010846D0F81C0140F40070C1F871
:1039F0001C012EE02048808845F2103188420BD00F
:103A00001D48808847F29671884205D01A48808800
:103A100041F6631188421CD11848006820F00F005D
:103A20004FF02041C1F81C010846D0F81C0120F4D9
:103A30007060C1F81C010846D0F81C0140F001007C
:103A4000C1F81C010846D0F81C0140F48070C1F890
:103A50001C010020FDF718F80122D103084800F0EE
:103A6000AFFE4FF6FF70FCF7F5FF1CBD4C43442042
:103A700049443A25780D0A00200200201C0100A0CC
:103A80000004024000BF011EA0F10100FBD17047FD
:103A900008B50220FFF7F6FF024800880090BDF845
:103AA000000008BD8000006CF0B50546002400272A
:103AB0008B488079012805D18948808841F66311B7
:103AC000884208D186488079F0B98548808841F6D7
:103AD0006311884218D1082D15D2DFE805F00406DD
:103AE000080A0C0E101206250DE007250BE0042530
:103AF00009E0052507E0012505E0002503E0032591
:103B000001E0022500BF00BF082D1CD2DFE805F050
:103B10000406090C0F12151800BF14E044F08004CD
:103B200011E044F040040EE044F0C0040BE044F027
:103B3000200408E044F0600405E044F0A00402E042
:103B400044F0E00400BF00BF36276548808845F296
:103B50001051884200D13F026148808849F24131CA
:103B600088420BD05E48808847F28971884205D030
:103B70005B48808847F29671884201D144F008047E
:103B80002146384600F066FA5548808841F66311B0
:103B900088421DD004F0200068B151480088504987
:103BA0004988884214DA4E48068840884C49088083
:103BB000084646800CE04A480088494949888842BE
:103BC00006DD474806884088454908800846468003
:103BD0004348808845F21051884252D14049488973
:103BE00000F022FA002000F013FA3D494989491CEF
:103BF00088B200F019FA002000F00AFA3849498921
:103C0000891C88B200F010FA35490988491EC1F3B1
:103C10000F2000F0FDF932494989C91C88B200F033
:103C200003FA2F490978491EC8B200F0F1F92C496E
:103C3000888900F0F9F9002000F0EAF9284989891B
:103C4000491C88B200F0F0F9002000F0E1F92449A5
:103C50008989891C88B200F0E7F921494988491E01
:103C6000C1F30F2000F0D4F91D498989C91C88B21D
:103C700000F0DAF91A498978491EC8B200F0C8F98B
:103C80002DE01749488900F0CFF9002000F0C0F975
:103C9000002000F0BDF912490988491EC1F30F2028
:103CA00000F0B6F90E490978491EC8B200F0B0F923
:103CB0000B49888900F0B8F9002000F0A9F900202C
:103CC00000F0A6F906494988491EC1F30F2000F00B
:103CD0009FF903498978491EC8B200F099F9F0BDEF
:103CE0002002002010B502460C464548808841F667
:103CF0006311884247D142488079A8B9404800887A
:103D0000401E801A82B23E49488900F08DF9002099
:103D100000F07EF9002000F07BF9101200F078F935
:103D2000D0B200F075F916E03549488900F07CF909
:103D3000101200F06DF9D0B200F06AF9304909882C
:103D4000491EC1F30F2000F063F92D490978491E7F
:103D5000C8B200F05DF92A49888900F065F920129F
:103D600000F056F9E0B200F053F925494988491EA0
:103D7000C1F30F2000F04CF921498978491EC8B2DF
:103D800000F046F93AE01E48808845F2105188421A
:103D900020D11B49488900F047F9101200F038F98A
:103DA00017494989491C88B200F03EF9D0B200F0A9
:103DB0002FF91349888900F037F9201200F028F90B
:103DC0000F498989491C88B200F02EF9E0B200F051
:103DD0001FF913E00A49488900F026F9101200F093
:103DE00017F9D0B200F014F90549888900F01CF9E0
:103DF000201200F00DF9E0B200F00AF910BD000049
:103E0000200200202DE9FC4F80460E4615461C4638
:103E1000B3460020019000902046E31704EB537353
:103E2000DB1021464FEAE47C04EB5C7C4FEAEC0CAF
:103E3000A4EBCC0CBCF1000F02D04FF0010C01E060
:103E40004FF0000C6344224604EBD27C4FEA6C0C2A
:103E500003FB0CF3DBB20193A5F12000C5B20C2CDF
:103E600006D0102C0BD0182C0ED0202C18D112E01C
:103E700005EB45002D4901EB8000009012E02C4835
:103E800000EB051000900DE005EBC500294901EBA2
:103E90008000009006E0284800EB8510009001E0CB
:103EA000BDE8FC8F00BF00273AE0009810F80790AB
:103EB0004FF0000A2EE009F0800028B1314640465C
:103EC0000C9AFCF797FE07E00B9828B91B4831467F
:103ED00002684046FCF78EFE4FEA49604FEA1069DF
:103EE000701C86B216484088B04200DCD8E7A6EBCA
:103EF0000B00A0420AD15E4608F101001FFA80F8CB
:103F00000F480088404500DCCAE706E00AF10100DE
:103F100000F0FF0ABAF1080FCDDB00BF781CC7B272
:103F200001988742C1DB00BFBAE70000E75E0008E6
:103F30005B6300084B690008A776000810000020AA
:103F4000200200202DE9FC4F04460D46904699467C
:103F5000DDE90C7A0B9E04F0FF0B08EB04001FFA5E
:103F600080F809EB05001FFA80F917E0444502DBF1
:103F70005C46A81985B24D4500DB15E00020CDE96F
:103F8000000A3A78334629462046FFF73BFF304681
:103F900006EBD07104EB61018CB27F1C38787E286F
:103FA00002DC38782028E1DA00BFBDE8FC8F000091
:103FB00070B52DED048B0446BE2000F035F80520C9
:103FC00000F026F8204601F070FE41EC190B9FED41
:103FD0000E0B53EC102B01F07BFE41EC180B01F0A3
:103FE00037FE85B2284600F013F8012000F010F8E3
:103FF000FF2000F00DF8002000F00AF8002000F08B
:1040000007F8BDEC048B70BD6666666666660440A4
:1040100001B5BDF800000090BDF80000014908801E
:1040200008BD00008000006C01B5BDF800000090E4
:10403000BDF800000149088008BD00007E00006C4A
:1040400002480089024908807047000020020020D1
:104050007E00006C034A10804FF0D842A2F8801016
:10406000704700007E00006C1CB500BF154800685A
:1040700040F020001349086000BF00BF08460068F8
:1040800040F02000086000BF01200090002302469D
:10409000410201900C4800F09FFB0120009000239A
:1040A000024681020190084800F096FB012251026D
:1040B000054800F085FB01229102034800F080FBD7
:1040C0001CBD0000303802400014024086B00024BD
:1040D00000250723022208214FF4A87000F044FCB9
:1040E000A820FCF7B9FB4FF4E131542000F064FC48
:1040F000FFF7BAFFFFF7D4F9FCF700FC4FF4784064
:104100004FA110221346CDE900210290C82232218E
:104110001E20FFF717FF4FF478404BA110221346E3
:10412000CDE900210290C82246211E20FFF70AFF98
:104130004FF4784049A110221346CDE900210290A6
:10414000C8225A211E20FFF7FDFE4FF4784047A1F8
:1041500010221346CDE900210290C8226E211E20B4
:10416000FFF7F0FE6BE00020FCF712FC0446022C87
:1041700028D14FF6FF7040F23F13EF2296210090B6
:104180000020FFF763F94FF478403EA11022134658
:10419000CDE900210290C82296211E20FFF7D2FE11
:1041A00005223E493E4800F089F94FF478403DA190
:1041B00010221346CDE900210290C82296211E202C
:1041C000FFF7C0FE012C2AD14FF478403BA110220A
:1041D0001346CDE900210290C82296211E20FFF748
:1041E000B1FE052204A92E4800F038F94FF47840BA
:1041F00038A110221346CDE900210290C822962151
:104200001E20FFF79FFE1F2004A910221346CDE9B0
:1042100000210290C822AA211E20FFF793FE681CED
:1042200085B20A20FCF72EFB142D08D100BF2F48C1
:10423000006880F400702D49086000BF002592E7F7
:1042400053544D3332000000464C415348204545FD
:1042500050524F4D205445535400000041544F4D8F
:1042600040414C49454E54454B0000004B455931A7
:104270003A577269746520204B4559303A5265614E
:104280006400000053746172742057726974652071
:10429000464C4153482E2E2E2E000000D65E0008BC
:1042A00000000108464C415348205772697465204C
:1042B00046696E6973686564210000005374617219
:1042C00074205265616420464C4153482E2E2E2E98
:1042D00020000000546865204461746120526561CB
:1042E0006465642049733A202000000014140240E1
:1042F000014608687047000070B505460024601E3E
:1043000000F0CCF804465CBB1648006820F440700E
:10431000144908600846006840F4007008600846C8
:10432000006820F0F80008600846006840EAC50010
:1043300008600846006840F002000860084600680F
:1043400040F4803008604FF0FF3000F0A7F80446DA
:10435000012C05D00348006820F0020001490860E4
:10436000204670BD103C024000210E48016801F457
:10437000803008B10120704701F0800008B10220B0
:10438000F9E701F0400008B10320F4E701F0200054
:1043900008B10420EFE701F0100008B10520EAE7BA
:1043A0000020E8E70C3C024001461C48814201D253
:1043B000002070471A48814201D20120F9E71948CC
:1043C000814201D20220F4E71748814201D2032042
:1043D000EFE71648814201D20420EAE714488142FF
:1043E00001D20520E5E71348814201D20620E0E72B
:1043F0001148814201D20720DBE71048814201D2F7
:104400000820D6E70E48814201D20920D1E70D48A5
:10441000814201D20A20CCE70B20CAE70040000805
:104420000080000800C00008000001080000020829
:1044300000000408000006080000080800000A0840
:1044400000000C0800000E080348006840F000401F
:104450000149086070470000103C024030B5034637
:104460000C461546002206E0184600F007F844F80E
:1044700022001B1D521CAA42F6D330BD014608681B
:10448000704700000248034908600348086070470D
:1044900023016745043C0240AB89EFCD10B50446CB
:1044A00000BFFFF761FF012800D002E0641E002C6E
:1044B000F7D100BF04B9FF2010BD00002DE9F0477F
:1044C00004460E4617464FF000080025A946B4F1F1
:1044D000006F05D304F0030010B9B4F1016F01D9E6
:1044E000BDE8F087FFF7CEFF1C48006820F480602D
:1044F0001A490860254604EB87091948854214D2F9
:1045000010E02846FFF7BAFF401C50B12846FFF7DD
:104510004BFF8246FFF7F0FE8046B8F1000F01D056
:1045200002E02D1D4D45ECD300BFB8F1000F0BD1BB
:1045300007E02046316800F015F800B103E0241DC3
:10454000361D4C45F5D300BF0448006840F4806038
:1045500002490860FFF778FF00BFC1E7003C024056
:104560000000FF1F70B505460E461248FFF796FF84
:104570000446E4B91048006820F440700E49086011
:104580000846006840F4007008600846006840F083
:10459000010008602E600748FFF780FF0446012CE9
:1045A00005D00548006820F0010003490860204656
:1045B00070BD0000FFFF0F00103C0240F0B5044644
:1045C0000D460021002000265C4F3F6847F48037ED
:1045D000DFF868C1CCF8007000E0491C574F3F6815
:1045E00007F400371FB947F6FF77B942F5D347F60E
:1045F000FF77B94201D101209EE0504F40373F681C
:1046000047F08057DFF834C10CF1400CCCF8007053
:104610004B4F3F6847F44047DFF824C1CCF80070A7
:10462000464F3F1D3F6805F03F0C47EA0C07DFF897
:104630000CC10CF1040CCCF8007067463F6847EAE7
:104640008417CCF8007067463F684FF0010CCCEB44
:10465000520C47EA0C47DFF8E4C00CF1040CCCF82C
:10466000007067463F6847EA0367CCF8007067460A
:104670003F6847F48007CCF800700CF104073F68EE
:104680000CF1040CCCF8007067463F6847F4A05763
:10469000CCF8007067463F6847F40047CCF80070DC
:1046A000264F3F6847F08077DFF890C0CCF8007065
:1046B000002105E0491CB1F5001F01D3022005E0EF
:1046C0001E4F3F6807F00077002FF3D000BF1D4F4B
:1046D0003F6847F48077DFF86CC0CCF8007067461D
:1046E0003F6847F40077CCF8007067463F6847F4AE
:1046F0008067CCF8007067463F6847F00507CCF844
:1047000000700E4F08373F6847F00207DFF82CC0F3
:104710000CF1080CCCF8007000210AE0074F0837B4
:104720003F68C7F38106491CB1F5001F01D304207F
:1047300001E0032EF2D100BFF0BD000000380240BE
:1047400000700040003C0240F0B503460020002409
:10475000002500BF29E0012606FA00F401EA04055D
:10476000A54221D1C70803F1200656F82760470764
:104770004FEAD76C0F2707FA0CF7BE434FEAD00C6D
:1047800003F1200747F82C60C70803F1200656F80C
:1047900027604707FF0E02FA07F73E434FEAD00CA7
:1047A00003F1200747F82C60401C1028D3D3F0BD3C
:1047B00002461069084008B1012070470020FCE75C
:1047C00002F001031BB183690B43836103E083693A
:1047D00043EA0143836170472DE9F0470C46DDE968
:1047E0000867002100258C4600BF60E04FF00108FB
:1047F00008FA01F504EA050CAC4557D1D0F8008061
:104800004FEA410A4FF0030909FA0AF928EA0908B0
:10481000C0F80080D0F800804FEA410902FA09F997
:1048200048EA0908C0F80080012A01D0022A27D1ED
:10483000D0F808804FEA410A4FF0030909FA0AF953
:1048400028EA0908C0F80880D0F808804FEA410932
:1048500006FA09F948EA0908C0F80880D0F8049077
:104860004FF0010808FA01F829EA0809C0F8049095
:10487000D0F8048003FA01F948EA0908C0F8048076
:10488000D0F80C804FEA410A4FF0030909FA0AF9FF
:1048900028EA0908C0F80C80D0F80C804FEA4109DA
:1048A00007FA09F948EA0908C0F80C80491C1029E0
:1048B0009CD3BDE8F08700002DE9F041074688460B
:1048C00014461D46284600F033F8C5F1040007FAE7
:1048D00000F60F20284100EA0800064306F00F0604
:1048E000E21704EBD2625211920002F1E022D2F8F8
:1048F00000212146E31704EBD3635B11A4EB431CB7
:10490000012303FA0CF31A432046E31704EBD363A5
:104910005B119B0003F1E023C3F800210348005D15
:1049200040EA061001490855BDE8F08100E400E0C6
:104930000146072323EA01021202054B18684FF6CD
:10494000FF031840034B18431043014B1860704796
:104950000CED00E00000FA054A0A52020243014B46
:104960001A60704708ED00E0F0B504460D461646A3
:104970001F4601200B49086000200A4908310860E1
:10498000091F086007490C3108603B46324629463A
:104990002046FFF713FE00214FF00060FFF7DCFF19
:1049A000F0BD00000038024013B50446012201A901
:1049B0002046FFF783FD1CBD7CB506460C4600BFB4
:1049C0003148006840F001002F49086000BF00BF77
:1049D0000846006840F00100086000BF00BF2A4898
:1049E0001430006840F0100027491431086000BFFF
:1049F0000120009000230222410201902348FFF78A
:104A0000EBFE0120009000230222810201901F484A
:104A1000FFF7E2FE07224FF400711C48FFF794FEF7
:104A200007224FF480611948FFF78EFE1848704343
:104A300000EB5400B0FBF4F51648856000201549E2
:104A4000C8600846C068C8600846C068C8600846B4
:104A5000C06840F00800C8600846C06840F0040024
:104A6000C8600846C06840F02000C86002232522C4
:104A700003210846FFF720FF0648C06840F40050B5
:104A80000449C8607CBD000030380240000002408C
:104A900040420F000010014030B595B0054613AB01
:104AA00012AA09A9284600F03FFA044614B120468C
:104AB00015B030BD0020149026E0224909689DF809
:104AC000502001EBC20113AB11AA486801A900F004
:104AD0002BFA04460CB12046EAE709A901A800F028
:104AE000A7FC60B99DF844009DF84810884201DD9C
:104AF0000220DDE79DF85000124988750AE09DF814
:104B00005000401CC0B214900E48007D9DF850101B
:104B10008842D2DC00BF0B48007D9DF850108842CF
:104B200001D10420C4E714A9284600F0DDFA0446A8
:104B30000CB12046BCE79DF85000024948750020A2
:104B4000B6E70000640000202DE9F0419AB09C48CF
:104B5000847D007DA04202DC1AB0BDE8F081984956
:104B6000096801EBC40106AB07AA486808A900F070
:104B7000DBF908A993A0FBF7ABFB002644E09048C3
:104B8000008B0121B1400840D8B122218FA0FBF752
:104B90009FFB304600F042FB8949243147183946D3
:104BA0008BA0FBF795FB222188A0FBF791FB3046F9
:104BB00000F034FB82492431084410A941F8260052
:104BC00018E0304600F02AFB7D492431085810A92E
:104BD00041F826007A48C07D30B910A850F8261058
:104BE0007CA0FBF775FB05E010A850F826107AA012
:104BF000FBF76EFB9DF81C00401EB04202D078A06F
:104C0000FBF766FB701CC6B29DF81C008642B6DB43
:104C100074A0FBF75DFB01F001F86948407D0B28AB
:104C20000DD2DFE800F0060D151E27323F4E5F72F1
:104C300087006349096851F834008047054690E0D1
:104C40005F4A126852F8341010988847054688E089
:104C50005B4B1B6853F83420DDE910019047054693
:104C60007FE0574F3F6857F8343010A807C898477F
:104C7000054676E0DFF848C1DCF800C05CF8347027
:104C800010A80FC8B84705466BE01498DFF830C18C
:104C90000090DCF800C05CF8347010A80FC8B8476A
:104CA00005465EE0DDE91401DFF814C1CDE900013D
:104CB000DCF800C05CF8347010A80FC8B84705468F
:104CC0004FE0DDE914121698DFF8F4C0CDE90012C8
:104CD0000290DCF800C05CF8347010A80FC8B84728
:104CE00005463EE0DDE91423DDE91610DFF8D0C00B
:104CF000CDE90023CDE90210DCF800C05CF8347087
:104D000010A80FC8B84705462BE0DDE91523DDE9FB
:104D10001710CDE90123CDE903101498DFF8A0C0E6
:104D20000090DCF800C05CF8347010A80FC8B847D9
:104D3000054616E0DDE91623DDE91810CDE902236A
:104D4000CDE90410DDE91401DFF874C0CDE90001FC
:104D5000DCF800C05CF8347010A80FC8B8470546EE
:104D600000BF00BF00F006FF9DF8180001280CD11D
:104D70001348C07D20B929461BA0FBF7A9FA07E01C
:104D800029461BA0FBF7A4FA02E018A0FBF7A0FA43
:104D90000B4890F8EC0088B10948D0F8F0000A21DF
:104DA000B0FBF1F201FB12070548D0F8F000B0FBB0
:104DB000F1F83A46414611A0FBF78AFA00BFCBE66C
:104DC000640000200D0A2573280000002563000000
:104DD00025730000256C6400305825580000000041
:104DE0002C000000290000003D256C753B0D0A00D9
:104DF0003D305825583B0D0A0000000046756E6393
:104E000074696F6E2052756E2054696D653A256421
:104E10002E2531646D730D0A00000000F0B50346C5
:104E2000154600200022002600245BE01F782C2F6E
:104E300001D104B901221F78292F01D01F780FB9A1
:104E400004B950E0002E3AD11F78302F02DB1F78D2
:104E5000392F17DD1F782D2F14D01F782B2F11D04D
:104E60001F78612F02DB1F78662F0BDD1F78412F23
:104E700002DB1F78462F05DD1F78582F02D01F78E0
:104E8000782F0CD102B12EE01F78612F03DB1F7841
:104E9000203F0F7001E01F780F70491C1FE01F7842
:104EA000222F04D102B11EE00126012417E01F7851
:104EB000202F14D01F782C2F11D0FF2613E01F783D
:104EC000222F00D1002402B10DE044B11F785C2FE5
:104ED00002D15B1C471CF8B21F780F70491C471C9D
:104EE000F8B25B1CA2E700BF00270F702E70F0BD68
:104EF00010B50446002010700BE020780870641C88
:104F0000491C1078401C10701078984201DB012079
:104F100010BD2078202802D020780028EDD1002074
:104F2000087000BFF4E700002DE9FF4F85B0804610
:104F300089460027002004900390012002904FF042
:104F4000000B002544461DE02078202816D005F0EF
:104F50007F00052812DA0DB945F0800505F07F00C5
:104F6000042803D120782A2800D00EE0207805F00C
:104F70007F010DF80100681CC5B202E0852D00D14B
:104F800003E0641C20780028DED100BF8DB1002032
:104F900005F07F010DF8010051A1684600F048FAC4
:104FA00018B900210898017002E0012108980170E9
:104FB00000254FF0000A444614E0641C0AF1010089
:104FC00000F0FF0A2078202802D020782A2809D172
:104FD000204600F09FF90646282E03D02A2E01D045
:104FE000CDF810A02078282802D020780028E4D11D
:104FF0004446049810B10498401C04444FF0000A41
:10500000002654E0207810B94FF0010A50E02078D3
:10501000282803D116B9781CC7B213E020782928B4
:1050200008D13EB917B1781EC7B201E04FF0010AAE
:1050300047B93DE02078222804D10EB9012000E0D4
:105040000020064647B9207820282FD0207889F8FC
:10505000000009F1010929E020782C2804D1012061
:105060000290681CC5B214E02078202811D0207866
:1050700028280ED04DB9BBF1050F06DA20780DF8BF
:105080000B000BF1010000F0FF0B0298401CC0B2B6
:105090000290012F0AD10298022807D10298401CE1
:1050A000C0B202900398401CC0B20390641CA9E7F0
:1050B00000BF0398012809D100200DF80B0008A1BA
:1050C000684600F0B5F908B90020039007990398E5
:1050D0000870002089F80000504609B0BDE8F08F44
:1050E000766F6964000000002DE9F043B5B0054615
:1050F0000F460024002604E000213D488155701C25
:10510000C6B20A2EF8DB06E06D1C287818B901201B
:1051100035B0BDE8F08328782828F5D16D1C61E012
:1051200034AA69462846FFF779FE064635449DF8BD
:10513000D00020B1012827D0FF284CD149E09DF8AC
:10514000000000B333A9684600F0EFF806460EB140
:105150000220DDE7204600F061F825490A31339A44
:105160000A50A1F12400008B0121A140884320496D
:105170001A39088304211E480155601CC4B20A2C48
:1051800001DD0320C4E726E0684600F06DF9401C0D
:1051900000F0FF08204600F041F815490A3100EB05
:1051A00001094946684600F054F911481A38018B44
:1051B0000120A040014388B20D491A3908830C48E8
:1051C00000F80480601CC4B20A2C01DD03209FE7B4
:1051D00001E002209CE700BF2878292801D0287828
:1051E00000B900E09CE700BF3C70002090E70000A1
:1051F0007E0000200020074A128802F400423AB1E3
:10520000044A11780022044B5A541846014B1A8064
:1052100070470000080000205801002002460020CE
:10522000002105E0044B5B5C0344D8B24B1CD9B2AF
:105230009142F7DB704700007E00002010B5044665
:10524000204600F0B7FC01200149C87510BD0000E0
:105250006400002010B50246012000E050430B1E00
:10526000A1F10104E1B2F9D110BD000070B5002632
:10527000FFF7C0FF064606B970BD17488168304683
:10528000884704461CB91449C868804721E0304665
:1052900000F0F6F80546012D00D02C46CCB1012CCB
:1052A00006D0022C08D0032C0AD0042C10D10BE01D
:1052B0000AA0FBF70DF80BE00BA0FBF709F807E0DD
:1052C0000CA0FBF705F803E00DA0FBF701F800BF09
:1052D00000BF00BFD0E7000064000020BAAFCAFDE5
:1052E000B4EDCEF3210D0A00B2CECAFDB4EDCEF37B
:1052F000210D0A00B2CECAFDCCABB6E0210D0A00EA
:10530000CEB4D5D2B5BDC6A5C5E4B5C4BAAFCAFD45
:10531000210D0A000146491C00E0491C087820289C
:1053200001D10029F9D1087870472DE9F04F0546E1
:105330000F4600264FF00A09B3462C46002038607D
:1053400034E02078392802DC2078302811DA2878F7
:105350002D2802D028782B2800D156B12078462855
:1053600002DC2078412804DA2078582817D1012E51
:1053700015D12078412801DB4FF0100928782D281D
:1053800003D14FF0020B6D1C0FE028782B2803D1BE
:105390004FF0010B6D1C08E0701CC6B205E02078D0
:1053A00000B904E00120BDE8F08F641CC9E700BF2C
:1053B0002C46B9F1100F0FD1032E01DA0220F2E7CB
:1053C0002078302806D16078582803D1A41CB01E5C
:1053D000C6B204E00320E6E70EB90420E3E71BE0D1
:1053E0000EB1701EC6B22078392806DC207830282D
:1053F00003DB2078A0F1300A02E02078A0F1370A20
:1054000031464846FFF726FF39680AFB001038602E
:10541000641C207800B900E0E2E700BFBBF1020F96
:1054200004D13868C0F10008C7F800800020BAE74E
:1054300002460AE010780B78984201D001207047AC
:10544000107800B902E0521C491CF3E700BF0020AD
:10545000F5E706E002780A70027802B902E0401C23
:10546000491CF7E700BF70470146002005E00A78B5
:1054700002B903E0421CD0B2491CF8E700BF7047F4
:1054800010B58CB004461E230BAA03A92046FFF7D3
:105490002FFD0090009810B101200CB010BD9DF8B8
:1054A0002C00044400200B900EE040489DF82C2076
:1054B00050F8221003A8FFF7BBFF00B908E09DF8E1
:1054C0002C00401CC0B20B909DF82C000728ECD398
:1054D00000BF9DF82C00072863D2DFE800F0040528
:1054E0003C5E6564630000BF31A0FAF7F1FE31A0B5
:1054F000FAF7EEFE3FA0FAF7EBFE4EA0FAF7E8FE51
:105500005CA0FAF7E5FE6BA0FAF7E2FE79A0FAF7E5
:10551000DFFE87A0FAF7DCFE8CA0FAF7D9FE94A094
:10552000FAF7D6FE98A0FAF7D3FE9DA0FAF7D0FEC0
:10553000A2A0FAF7CDFEA8A0FAF7CAFEB4A0FAF727
:10554000C7FEC1A0FAF7C4FECCA0FAF7C1FED8A0EE
:10555000FAF7BEFEA2E216A0FAF7BAFEE4A0FAF746
:10556000B7FE00200B900EE0F14800689DF82C205B
:1055700000EBC2004168EFA0FAF7AAFE9DF82C00EC
:10558000401CC0B20B90EA48007D9DF82C10884268
:10559000EADC07A0FAF79CFE80E205A0FAF798FE85
:1055A000CCE179E24DE221E2F4E1000018000020B4
:1055B0000D0A00002D2D2D2D2D2D2D2D2D2D2D2DB8
:1055C0002D2D2D2D2D2D2D2D2D2D2D2D55534D4189
:1055D00052542056332E342D2D2D2D2D2D2D2D2D85
:1055E0002D2D2D2D2D2D2D2D2D2D2D2D2D2D2D20F8
:1055F0000D0A00002020202055534D415254CAC7A7
:10560000D3C9414C49454E54454BBFAAB7A2B5C476
:10561000D2BBB8F6C1E9C7C9B5C4B4AEBFDAB5F7F5
:10562000CAD4BBA5BDBBD7E9BCFE2CCDA8B9FD2013
:105630000D0A0000CBFC2CC4E3BFC9D2D4CDA8B95D
:10564000FDB4AEBFDAD6FACAD6B5F7D3C3B3CCD061
:10565000F2C0EFC3E6B5C4C8CEBACEBAAFCAFD2C0D
:10566000B2A2D6B4D0D02ED2F2B4CB2CC4E3BFC9F0
:105670000D0A0000D2D4CBE6D2E2B8FCB8C4BAAF6F
:10568000CAFDB5C4CAE4C8EBB2CECAFD28D6A7B3DA
:10569000D6CAFDD7D62831302F3136BDF8D6C62C24
:1056A000D6A7B3D6B8BACAFD29A1A2D7D6B7FBB43C
:1056B000AE0D0A00A1A2BAAFCAFDC8EBBFDAB5D8D9
:1056C000D6B7B5C8D7F7CEAAB2CECAFD292CB5A594
:1056D000B8F6BAAFCAFDD7EEB6E0D6A7B3D631302A
:1056E000B8F6CAE4C8EBB2CECAFD2CB2A2D6A7B3B4
:1056F000D60D0A00BAAFCAFDB7B5BBD8D6B5CFD460
:10570000CABE2ED6A7B3D6B2CECAFDCFD4CABEBDAE
:10571000F8D6C6C9E8D6C3B9A6C4DC2CD6A7B3D67A
:10572000BDF8D6C6D7AABBBBB9A6C4DC2E0D0A00ED
:10573000BCBCCAF5D6A7B3D63A7777772E6F70651B
:105740006E6564762E636F6D0D0A000055534D41F2
:105750005254D3D037B8F6CFB5CDB3C3FCC1EE2881
:10576000B1D8D0EBD0A1D0B4293A0D0A0000000086
:105770003F3A202020202020BBF1C8A1B0EFD6FA6C
:10578000D0C5CFA20D0A000068656C703A202020B9
:10579000BBF1C8A1B0EFD6FAD0C5CFA20D0A000068
:1057A0006C6973743A202020BFC9D3C3B5C4BAAFA3
:1057B000CAFDC1D0B1ED0D0A0A00000069643A20AB
:1057C00020202020BFC9D3C3BAAFCAFDB5C4494405
:1057D000C1D0B1ED0D0A0A006865783A202020207A
:1057E000B2CECAFD3136BDF8D6C6CFD4CABE2CBAA9
:1057F000F3B8FABFD5B8F12BCAFDD7D6BCB4D6B42E
:10580000D0D0BDF8D6C6D7AABBBB0D0A0A0000008F
:105810006465633A20202020B2CECAFD3130BDF845
:10582000D6C6CFD4CABE2CBAF3B8FABFD5B8F12BBE
:10583000CAFDD7D6BCB4D6B4D0D0BDF8D6C6D7AA88
:10584000BBBB0D0A0A00000072756E74696D653A83
:10585000312CBFAAC6F4BAAFCAFDD4CBD0D0BCC6D7
:10586000CAB13B302CB9D8B1D5BAAFCAFDD4CBD070
:10587000D0BCC6CAB13B0D0A0A000000C7EBB0B4E9
:10588000D5D5B3CCD0F2B1E0D0B4B8F1CABDCAE43A
:10589000C8EBBAAFCAFDC3FBBCB0B2CECAFDB2A260
:1058A000D2D4BBD8B3B5BCFCBDE1CAF82E0D0A00FA
:1058B0002D2D2D2D2D2D2D2D2D2D2D2D2D2D2D2D18
:1058C0002D2D2D2D2D2D2D2D2D2DD5FDB5E3D4AD2B
:1058D000D7D32D2D2D2D2D2D2D2D2D2D2D2D2D2DA8
:1058E0002D2D2D2D2D2D2D2D2D2D2D200D0A000092
:1058F0002D2D2D2D2D2D2D2D2D2D2D2D2D2D2D2DD8
:105900002D2D2D2D2D2D2D2D2DBAAFCAFDC7E5B571
:10591000A52D2D2D2D2D2D2D2D2D2D2D2D2D2D2D3F
:105920002D2D2D2D2D2D2D2D2D2D2D2D200D0A0024
:105930006400002025730D0A0000000059A0FAF74A
:10594000C7FC00200B901AE0664909689DF82C20DE
:1059500001EBC20101AB02AA486803A9FFF7E4FA10
:10596000604800689DF82C1050F8312003A95EA013
:10597000FAF7AEFC9DF82C00401CC0B20B905948C1
:10598000007D9DF82C108842DEDCAFF2DC30FAF7A7
:105990009FFC83E0AFF2E830FAF79AFC0BAA03A968
:1059A0002046FFF73BFA9DF82C00C8B9694603A8CA
:1059B000FFF7BBFC0B909DF82C0020B94FA000997D
:1059C000FAF786FC0EE09DF82C00042801D0022096
:1059D00063E54DA0FAF77CFC01204249C87501E05F
:1059E00002205AE547A0FAF773FC57E045A0FAF702
:1059F0006FFC0BAA03A92046FFF710FA9DF82C00B4
:105A0000C8B9694603A8FFF790FC0B909DF82C00DD
:105A100020B942A00099FAF75BFC0EE09DF82C003B
:105A2000042801D0022038E53FA0FAF751FC0020FD
:105A30002C49C87501E002202FE532A0FAF748FC96
:105A40002CE030A0FAF744FC0BAA03A92046FFF78C
:105A5000E5F99DF82C00C8B9694603A8FFF765FC75
:105A60000B909DF82C0078B91E49009881F8EC0045
:105A7000084690F8EC0018B130A0FAF729FC07E0CE
:105A800035A0FAF725FC03E0022006E5022004E534
:105A90001CA0FAF71DFC01E00120FEE400BF00207D
:105AA000FBE400002D2D2D2D2D2D2D2D2D2D2D2DFB
:105AB0002D2D2D2D2D2D2D2D2D2D2D2D2DBAAFCA6A
:105AC000FD204944202D2D2D2D2D2D2D2D2D2D2D1D
:105AD0002D2D2D2D2D2D2D2D2D2D2D2D2D2D2D2DF6
