:020000040800F2
:1000000078B30120D10200087DDA000899B9000810
:1000100079DA0008C5200008510701080000000037
:10002000000000000000000000000000B3FA00081B
:1000300057210008000000005D1B0008B5FA000809
:10004000F5020008F5020008F5020008F5020008B4
:10005000F5020008F5020008F5020008F5020008A4
:10006000F5020008F5020008F5020008F502000894
:10007000F5020008F5020008F5020008F502000884
:10008000F5020008F5020008F5020008F502000874
:10009000F5020008F5020008F5020008F502000864
:1000A000F5020008F5020008F5020008F502000854
:1000B000F5020008F5020008F5020008F502000844
:1000C000F5020008F5020008F5020008F502000834
:1000D000F502000839070108F5020008F5020008DA
:1000E000F5020008F5020008F5020008F502000814
:1000F000F5020008F5020008F5020008F502000804
:10010000F5020008F5020008F5020008F5020008F3
:10011000F5020008F5020008F5020008F5020008E3
:10012000F5020008F5020008F5020008F5020008D3
:10013000F5020008F5020008F5020008F5020008C3
:10014000F5020008F5020008F5020008F5020008B3
:10015000F5020008F5020008F5020008F5020008A3
:10016000F5020008F5020008F5020008F502000893
:10017000F5020008F5020008F50200080000000082
:10018000F5020008F502000800F002F800F077F828
:100190000AA090E8000C82448344AAF10107DA45E2
:1001A00001D100F06CF8AFF2090EBAE80F0013F0BD
:1001B000010F18BFFB1A43F001031847F0A807000E
:1001C00010A907000A444FF0000C10F8013B13F08F
:1001D000070408BF10F8014B1D1108BF10F8015BA0
:1001E000641E05D010F8016B641E01F8016BF9D193
:1001F00013F0080F1EBF10F8014BAD1C0C1B09D1EA
:100200006D1E58BF01F801CBFAD505E014F8016B5B
:1002100001F8016B6D1EF9D59142D6D370470000ED
:100220000023002400250026103A28BF78C1FBD8FF
:10023000520728BF30C148BF0B60704766292CF0B9
:100240006280692900F05681642900F05381782981
:1002500000F08C81732900F0C886002070471FB51C
:100260002CF047F800F05FFA00F036FF04000020A1
:1002700000212BF0B3F9E0601FBD10B510BD01F0F7
:1002800033F81146FFF7EBFF2AF0D0F801F051F8F0
:1002900003B4FFF7F2FF03BC25F019FC0B49D1F8BA
:1002A00000C04A685CF8043B1068184442F8040B2C
:1002B0008C4528BFA1F1DC0C8A4228BFA1F1DC02E9
:1002C000C1F800C04A6020F00040704710A3012030
:1002D0000C48016841F4700101600B4880470B48ED
:1002E0000047FEE7FEE7FEE7FEE7FEE7FEE7FEE784
:1002F000FEE7FEE7FEE7000005480649044A064B14
:100300007047000088ED00E0CDFA00088901000880
:1003100078A3012078B3012078A3012072B670473A
:1003200062B6704772B602B4EFF3118180F31188A0
:10033000BFF34F8FBFF36F8F084602BC62B67047A2
:1003400072B680F31188BFF34F8FBFF36F8F62B621
:10035000704730BF704720BF7047B0FA80F07047D9
:1003600090FAA0F0B0FA80F0704790FAA0F07047D1
:10037000704753EA020C00F069802DE9F04B4FF012
:100380000006002B1FBFB3FA83F503FA05F424FA25
:1003900005F65E4012BF1643B2FA82F502FA05F482
:1003A000C5F120051EBF22FA05FC44EA0C042035E5
:1003B00056EA044C4FEA144418BF641C4FF000087E
:1003C0004FF00009904271EB030C39D3002919BF9B
:1003D000B1FA81F701FA07F6B0FA80F700FA07F6EA
:1003E000C7F120071EBF20FA07FC46EA0C0620379B
:1003F000B6FBF4FCA7EB0507103F07F01F0BCBF192
:1004000020060CFA0BFB2CFA06F644BFB346002676
:10041000202FA4BF5E464FF0000B5BEA060C08BF1E
:100420004FF0010B19EB0B09ABFB027C48EB060804
:10043000C01B06FB02CC0BFB03CC71EB0C01C1E72C
:100440000B46024641464846BDE8F08B13B54FF0D7
:1004500000004FF00001AFF30080BDE81C40704782
:100460000FB4044910B503AA029800F0C3FD10BCF4
:100470005DF814FB080000200FB41CB5074B06AA5A
:100480007B4469460090059800F085FD0020694690
:1004900000F094FD1CBC5DF814FB0000390B00005B
:1004A00070B50C460546012A05D02878800600D58F
:1004B000EA69002302E0012305E05B1C934202D2BB
:1004C000E05C0028F9D1A869E618C01AA861286A7A
:1004D000184428622846AFF3008004E0D5E90121E2
:1004E00014F8010B9047B442F8D32846AFF30080CC
:1004F00070BD00002DE9F041064600241068752902
:10050000314616A510D0AFF30080002802DA404231
:1005100013A507E031688A0701D512A502E0490753
:1005200004D511A5012401E0AFF3008000210A22C7
:1005300006F1240709E0B0FBF2FCB0FBF2F302FB8A
:100540001C00303078541846491C0028F3D123464B
:100550002A463046BDE8F04100F0AFBA0000000086
:100560002D0000002B0000002000000070B50446A4
:100570000D4621461068AFF300802188090502D599
:100580000F4A7A4402E00E4A7A440E32002104F106
:10059000240305E000F00F060009965D5E54491C37
:1005A0000028F7D120780023000704D5702D02D051
:1005B00009B1022311322046BDE8704000F07DBA37
:1005C0003A9807002DE9F05F894604464FF0000A8B
:1005D000DFF824B1FB44C0F820A02046E16888473A
:1005E00000287DD0252806D0D4E901219047206A33
:1005F000401C2062F1E700255F462046E1688847FD
:100600002028064607DB312E05D2B81910F8200C39
:1006100008B10543F1E7A80701D525F00405C4F8A2
:100620001CA00027C4F818A02A2E09D0304625F0B7
:1006300047FA38B304EB8708303EC8F8186019E071
:1006400059F8041B204604EB87029161E168884752
:10065000012F064618D1E069002820DA25F0200590
:100660001DE0D8F8180000EB800006EB40003038A1
:10067000C8F818002046E1688847064625F020FAA9
:100680000028EED1012F0AD02E2E08D12046E16895
:1006900088477F1C0646022F45F02005C4DBA06971
:1006A000002803DA404245F00105A061E80701D0C7
:1006B00025F01005A6B1A6F14100192802D8203670
:1006C00045F400654A463146204625604D46FFF711
:1006D000B5FD60B1012807D0ED1D25F0070000E051
:1006E00007E000F1080978E705F1040975E73046ED
:1006F0007AE7206ABDE8F09F109807000B4910B513
:10070000A1F17C020A4CC2E93712372106E000EB66
:10071000104342F82130074B00FB03400B1EA1F1B0
:100720000101F4DC10BD0120E8E70000B0A20120C7
:10073000E119D666CD0D010040EA010310B59B0713
:100740000FD1042A0DD310C808C9121F9C42F8D03B
:1007500020BA19BA884201D9012010BD4FF0FF30EC
:1007600010BD1AB1D30703D0521C07E0002010BD02
:1007700010F8013B11F8014B1B1B07D110F8013B8E
:1007800011F8014B1B1B01D1921EF1D1184610BD6F
:1007900040EA0103024630B59B0710D14FF0013407
:1007A00000E008C208C91D1B9D4315EAC41FF8D00C
:1007B00013F0FF0102F8011B0DD01B0AF8E711F836
:1007C000013B002B02F8013B05D011F8013B002B47
:1007D00002F8013BF3D130BD10B5431C02E010F824
:1007E000011B71B18107FAD14FF0013202C88C1A96
:1007F0008C4314EAC211F9D0C01A0A0603D0C01EF5
:1008000010BDC01A10BD0A0401D0801E10BD09021F
:10081000FCD0401E10BD421E12F8013F002BFBD140
:1008200011F8013B002B02F8013BF9D17047032A74
:1008300040F2308010F0030C00F0158011F8013BFD
:10084000BCF1020F624498BF11F801CB00F8013BE4
:1008500038BF11F8013BA2F1040298BF00F801CBA8
:1008600038BF00F8013B11F0030300F06B80083A39
:10087000C0F0088051F8043B083A51F804CBA0E8D6
:100880000810F5E7121D5CBF51F8043B40F8043B2B
:10089000AFF30080D20724BF11F8013B11F801CB60
:1008A00048BF11F8012B24BF00F8013B00F801CB31
:1008B00048BF00F8012B7047431A28BF9A427FF6C1
:1008C000B6AF032A1044114440F2268010F0030F03
:1008D0001EBF11F8013D521E00F8013D10F0030F3C
:1008E0007FF4F6AF11F0030300F0A983083AC0F0DB
:1008F0000B8051F8043D083A51F804CD40F8043D0E
:1009000040F804CDFFF7F3BF121D5CBF51F8043D62
:1009100040F8043DAFF30080D20724BF11F8013D39
:1009200011F801CD48BF11F8012C24BF00F8013D9A
:1009300000F801CD48BF00F8012C704701B5FFF762
:1009400076FF01BD10B5203AC0F00B80B1E8185019
:10095000203AA0E81850B1E81850A0E81850BFF4A9
:10096000F5AF5FEA027C24BFB1E81850A0E8185048
:1009700044BF18C918C0BDE810405FEA827C24BF9C
:1009800051F8043B40F8043B08BF7047D20728BF2A
:1009900031F8023B48BF11F8012B28BF20F8023B79
:1009A00048BF00F8012B704701F0FF03114601B565
:1009B00043EA032242EA024200F06DFB01BD02F06D
:1009C000FF0343EA032242EA024200F064BB4FF015
:1009D000000200B5134694469646203922BFA0E88F
:1009E0000C50A0E80C50B1F12001BFF4F7AF09079B
:1009F00028BFA0E80C5048BF0CC05DF804EB89008C
:100A000028BF40F8042B08BF704748BF20F8022BCE
:100A100011F0804F18BF00F8012B70474FF0013CD8
:100A200050F8042B51F8043B9A4221D1A2EB0C035D
:100A3000934313EACC1317D150F8042B51F8043B1D
:100A40009A4215D1A2EB0C03934313EACC130BD1BA
:100A500050F8042B51F8043B9A4209D1A2EB0C0345
:100A6000934313EACC13DBD04FF00000704700BF74
:100A7000D01A01BAB1FA81F101F0180122FA01F09D
:100A8000CB40C1F12001DBB2C0B2C01A2CFA01F395
:100A9000D11A914311EAC311E6D1704770477047EC
:100AA0007047704710B500F01BFB006810BD10B513
:100AB000044600F015FB046010BD2DE9F0470D461B
:100AC00099469246044600F124080168880604D538
:100AD000E06921F01001216000E00120A84201DD61
:100AE000471B00E00027A1697A1902EB0900081AE8
:100AF000A0612078C00602D42046AFF30080002613
:100B000008E0D4E901211AF806009047206A401C49
:100B1000761C20624E45F4DB2078C0060AD52046BC
:100B2000AFF3008006E0D4E9012130209047206A2D
:100B3000401C2062381EA7F10107F4DC07E0D4E96D
:100B4000012118F805009047206A401C2062281EE9
:100B5000A5F10105F3DC2046AFF300802078000604
:100B600002D50220BDE8F0870120FBE770472DE9A0
:100B7000FF4F0C461E464FF0FF378BB0D2E9000105
:100B8000DDF860800A908A46C1F30A5505B93D46F2
:100B9000002108464FF00000BAF1000F00F44000B9
:100BA00005DA00EB80004FF4400101EA50004FEA03
:100BB0009059B9F1010F00DDB9460A9850EA4A0090
:100BC0000ED044F61050A5F2FF3545432F14B8F16E
:100BD000000F1ED07542291E1EDDC9F100021CE067
:100BE000B8F1010F4FF0000001D0302103E0F243D3
:100BF00005E02154401CB042FBDB304600220021BE
:100C000021540B99C1F80880C1E900200FB0BDE85C
:100C1000F08FBD1B6D1CDEE74A4600DA694206A86C
:100C200000F0E8FA06AB93E8070003AB83E807009F
:100C300050460A9900F086FB8DE80700A0F50050A9
:100C40001F3800900398002D0ADD42F21F014A462A
:100C50000844002303A90390684600F0EFFD09E073
:100C6000A0F500504A461F38002303A903906846A8
:100C700000F0F9FD8DE807000004000C03D04FF0F0
:100C8000FF30410800E01046B8F1000F03D0002209
:100C9000009215461EE0751E05D400F025FA30328C
:100CA00062556D1EF9D5B3460122084302D00022D9
:100CB0007F1C04E02078302801D100227F1E002A0A
:100CC000099784D01DE0112D07DA00F00DFA3032BB
:100CD00062556D1C50EA0102F5D1084302D000981C
:100CE000C8B10EE00021681E05E0235C625C63541D
:100CF0002254401E491C8142F7DBAB46A81B401E14
:100D00000990002004F80B000B98099AC0F808809D
:100D1000C0E9002B7AE711264FF0000857E72DE9CC
:100D2000F04F88460446D21D22F0070191B0D1E968
:100D30000001CDE90A0124F035F802460B98C00FF6
:100D400001D02D2007E02068810701D52B2002E08B
:100D5000202101EAC000032A099001D0072A05DBFF
:100D600003464146204600F005FA0BE12078800654
:100D700001D5E06900E00620B8F1650F814606D094
:100D8000B8F1660F18D0B8F1670F70D131E00020CC
:100D9000B9F1110F009001DB112301E009F101030A
:100DA0000AAA01A90CA8FFF7E2FEDDE90C700026F3
:100DB00009F10105834647E001204B4600904FF0C2
:100DC00000470AAA01A90CA8FFF7D1FEDDE90DB082
:100DD0000C995D46002610B909F101000D18B9EB18
:100DE000050003D4C0F1FF3609F10105A5EB0900A8
:100DF0002BE0B9F1010F01DA4FF001090020B9F140
:100E0000110F0090484601DD112300E003460AAAB5
:100E100001A90CA8FFF7ABFEDDE90C704D460026DA
:100E20008346207800070AD4AB4500DA5D4601A866
:100E3000012D04DD411911F8011C302907D04F455F
:100E400002DA17F1040F04DA012082460FE06D1E6A
:100E5000EEE7002F02DCED1B3E4403E0781CA842C5
:100E600000DD7D1CB81B00F1010A4FF0004720781F
:100E7000000703D4AA4501DB4FF0FF3A0021B7F188
:100E8000004F0DF143088DF8431024D002202B238E
:100E9000002F01DA7F422D230A21021EA0F101005A
:100EA00000DC5FB197FBF1FC97FBF1F201FB1C7CCE
:100EB00017460CF1300C08F801CDEEE7A8F101005F
:100EC00003702188090501D5452100E06521A0F1C5
:100ED000010800F8011C09980FA9A1EB0807FF1DE4
:100EE00000B10120411901EBEA70A1693844081AE8
:100EF000401EA0612078C00602D42046AFF30080D7
:100F0000099828B1D4E901219047206A401C206249
:100F10002078C00622D52046AFF300801EE0002EC8
:100F200004DBB34502DD01A8805D00E03020D4E998
:100F300001219047206A401C2062761CAAF1010022
:100F40005FEA000A0AD100F0C7F8C0680168405C97
:100F5000D4E901219047206A401C2062281EA5F197
:100F60000105DCDC07E0D4E9012118F8010B90470A
:100F7000206A401C2062381EA7F10107F3DC2046DE
:100F8000AFF30080032011B041E6000001694A1C64
:100F900002610878704700B58FB0CDE901310021BA
:100FA000059105497944CDE9031011466846FFF7DC
:100FB00009FB0FB000BD0000E5FFFFFF0A6802F863
:100FC000010B0A60704710B5436913B1AFF300809D
:100FD00001E0FFF765FA012010BD127800F124014D
:100FE0000A7000224A700122EDE711684FF0FF32CB
:100FF000E9E70000074B70B50D467B44FFF7CBFFD8
:101000000446284600F068F910B14FF0FF3070BD7B
:10101000204670BD8F4F0200431A28BF9A427FF6C8
:1010200091AC104410F0030F11441EBF11F8013DA4
:10103000521E00F8013D10F0030F7FF4F6AF103A96
:10104000C0F00A8010B531E91850103A20E9185064
:10105000BFF4F9AFBDE81040530724BF31E90810D1
:1010600020E9081044BF51F8043D40F8043D12F057
:10107000030F08BF7047D20728BF31F8023D48BFB1
:1010800011F8012C28BF20F8023D48BF00F8012CC0
:1010900070474FF000020429C0F0128010F0030CDA
:1010A0003FF497ACCCF1040CBCF1020F18BF00F870
:1010B000012BA8BF20F8022BA1EB0C01FFF789BC84
:1010C0005FEAC17C24BF00F8012B00F8012B48BF68
:1010D00000F8012B704700000048704738A301203A
:1010E0000048704718A3012030B5B0F10A024FEA5A
:1010F000900E71F100034EEA817EB0EB0E0061EBC1
:1011000091014FEA101E4EEA017E10EB0E0041EBFA
:1011100011114FEA102E4EEA016E10EB0E0041EB5A
:1011200011214FEA104E4EEA014E10EB0E0041EB3A
:101130001141401841F100014FEAD00040EA4170EE
:101140004FEAD10110EB80054FEA810444EA907424
:1011500044EB01046D1944EB0404521BA3414FF00E
:10116000000348BF0A3200D530BD401C41F10001E8
:1011700030BD00002DE9F0411F46044603260168FA
:10118000072A01F4006004DB08B116A505E016A5E6
:1011900003E008B115A500E015A521F010002060BE
:1011A000A069C01EA0610FB1401EA0612046AFF330
:1011B00000804FB1D4E9012138469047206A401C95
:1011C0002062C01C206206E0206AFAE7D4E901210F
:1011D00015F8010B9047761EF8D22046AFF3008039
:1011E000BDE8F0814E414E006E616E00494E4600F2
:1011F000696E66002DE9F047814616468AB035488B
:1012000078440DC88DE80D0032487844801C03AC4A
:101210000DC884E80D0041F69B300844372190FB4F
:10122000F1F290FBF1F5A5F1800501FB12041B3CE6
:1012300002D56442012000E00020DFF898A080463B
:101240000027FA44AAF1BE0A0EE0E0070AD03246AF
:10125000684607EB470101230AEB810100F003FB1D
:101260008DE8070064107F1C002CEED1194F7F44DD
:10127000AE3F19E0E80715D007EB04100DF1180A8E
:1012800090E80E008AE80E00C068F04201D198197B
:1012900008903246012306A903A800F0E4FA03AB44
:1012A00083E807006D10641C002DE3D14FF00103AB
:1012B00032466946B8F1000F03A802D000F0BEFA2A
:1012C00001E000F0D0FAC9E90001C9F808200AB02D
:1012D000BDE8F087748C0700007B00F08000704749
:1012E0000048704718A301207546FFF7F9FFAE4686
:1012F00005006946534620F00700854618B020B522
:10130000FEF7FAFFBDE820404FF000064FF000075F
:101310004FF000084FF0000B21F00701AC46ACE89D
:10132000C009ACE8C009ACE8C009ACE8C0098D460A
:10133000704710B50446AFF300802046BDE810406A
:10134000FEF7A6BF5FEA400C08BF91F0000F4FEA1E
:101350008C234FEAC12243EA51514FEA1C5018BF77
:1013600000F5F0404FEA300018BF41F000415FEA5D
:101370006C5C00F02980BCF1FF3F08BF40F080406A
:101380007047130C06BF12044FF0100C4FF0000C06
:10139000130E04BF12020CF1080C130F04BF12014C
:1013A0000CF1040C930F04BF92000CF1020CD30F4C
:1013B00004BF52000CF1010C11464FF00002A0F1E5
:1013C0001F00A0EB0C00704711F0004F08BF7047E2
:1013D00031F000413FF4D5AF0B0C06BF09044FF0CC
:1013E000100C4FF0000C0B0E04BF09020CF1080C9E
:1013F0000B0F04BF09010CF1040C8B0F04BF890013
:101400000CF1020CCB0F04BF49000CF1010CCCF124
:101410002003A0EB0C0022FA03F302FA0CF241EADB
:10142000030100F10100704720F07F4C80EA0300C7
:1014300023F07F47ACEB070303F57C5300F000403B
:1014400003F1FF032DE980494FEA154B09B44FEA38
:10145000144325EA0B4E24EA03480FF2042606EB58
:10146000132749083E785FEA320203FB0667C7F597
:10147000000707FB06F64FEA54374FEAD64606F157
:10148000020607FB066CCCF1005C4FEA1C472CEA15
:10149000074C07FB06F40CFB06F504EB15464FEA78
:1014A000961634BF00204FF000404FEAD13706FBBC
:1014B00007FC4FEA1C4C0CFB0BF7D21B03FB0CF791
:1014C00061EB07010CFB0EF7B0EB074072EB174224
:1014D0000CFB08F734BFA2EB0742B2EB074261EB0B
:1014E00017414FEA0C444FEA910706FB07FC4FEA0D
:1014F0001C4C0CFB0BF7B0EBC74072EB573203FBF5
:101500000CF734BFA2EBC742B2EBC74261EB5731D5
:101510000CFB0EF7B0EBC70072EB57720CFB08F731
:1015200034BFA2EBC702B2EBC70261EB5771039F56
:101530004FEA816141EA921104EBCC044FEAD137C2
:101540004FEA826206FB07FC42EA90124FEA806093
:101550004FEA1C4C0CFB0BF7D21B03FB0CF761EBA7
:1015600007010CFB0EF7B0EB074072EB17420CFBC8
:1015700008F734BFA2EB0742B2EB074261EB174119
:101580004FEA8C554FEA910704EB9C2406FB07FCBD
:101590004FEA1C4C0CFB0BF7B0EBC74072EB573219
:1015A00003FB0CF734BFA2EBC742B2EBC74261EBBF
:1015B00057310CFB0EF7B0EBC70072EB57720CFB08
:1015C00008F734BFA2EBC702B2EBC70261EB577159
:1015D00015EB4C254FEA816141EA92114FEA826294
:1015E0004FEAD13742EA901206FB07FC44F10004AF
:1015F0004FEA80604FEA1C4C0CFB0BF7D21B03FB3D
:101600000CF761EB07010CFB0EF7B0EB074072EB38
:1016100017420CFB08F734BFA2EB0742B2EB0742BC
:1016200061EB174115EB1C154FEA813141EA9241FC
:101630004FEA823242EA90424FEA80304FEA0C761B
:1016400044F1000448EA03434EEA0B484FF0000E11
:10165000B2EB080C71EB030724BF624639464EEB30
:101660000E0E4FF0000B0018524149414BEB0B0B93
:10167000B2EB080C71EB03077BF1000B24BF624651
:1016800039464EEB0E0E4FF0000B00185241494107
:101690004BEB0B0BB2EB080C71EB03077BF1000B70
:1016A00024BF624639464EEB0E0E51EA020718BFC0
:1016B00046F0010616EB0E7655F1000254F10001DA
:1016C00003D5BDE88901BDE80088BDE88901BDE812
:1016D0000048B619524141EB0101A3F101037047E3
:1016E00080807F7E7D7C7B7A79787776767574735F
:1016F000727171706F6E6E6D6C6C6B6A6A6968681E
:10170000676666656464636362616160605F5F5EB3
:101710005E5D5D5C5C5B5B5A5A5959585857575629
:10172000565555555454535352525251515050508E
:101730004F4F4F4E4E4D4D4D4C4C4C4B4B4B4A4AE0
:101740004A49494948484847474747464646454524
:10175000454444444443434343424242424141415D
:10176000002B9C4630D477002BD01CB54FEA3707AE
:1017700003B44FF010004FF01001BAF1000F06D083
:10178000BCF1000FDCBF40F0080040F008014FF052
:1017900000000FBCBDE810400BF1010BBBF1010FC5
:1017A00008BF5FEA170722BF12F1010211F1010120
:1017B0004FF0004143F1000300F0004043EA000015
:1017C0007047F9D35708D0E746EA064613F1400FB1
:1017D0004FEA16461FDD13F1200FDFBF16430A46FE
:1017E000002120335B42BED0C3F1200746EA064603
:1017F00002FA07F74FEA164646EA0706C3F1200742
:1018000022FA03F201FA07F721FA03F14FF000037D
:1018100042EA0702A7E746EA020646EA06464FEA18
:10182000164646EA0106BCBF46EA0646360C4FF0AD
:1018300000034FF000024FF0000194E72DE9804CC7
:101840009A46934670B491E8380007C831EA400CD4
:1018500048BF34EA430C03D5FFF7E6FDFFF780FFEE
:10186000F0BCBDE8008C2DE9804C9A46934670B4DC
:1018700091E8380007C810F0804F08BF13F0804F80
:1018800003D100F005F8FFF76BFFF0BCBDE8008C5A
:1018900020F07F4780EA030023F07F4C07EB0C0326
:1018A000A3F57C5300F00040A3F1FE0392F0000F7B
:1018B00000F0B38095F0000F00F077802DE901492A
:1018C0004FEA11404FEA144621EA004800FB06FCAB
:1018D00024EA064708FB06F607FB08F800FB07F7B3
:1018E00018EB06484CEB164C4FEA124B18EB074826
:1018F0004FEA15464CEB174022EA0B4E0BFB06FC59
:1019000025EA06470EFB06F607FB0EFE0BFB07F764
:101910001EEB064E4CEB164C4FF000061EEB074E2E
:101920004CEB174B18EB0B0840F1000018EB0E0BBB
:1019300058EB000840F100008F1A4FF000013CBF47
:10194000C943661B14BFB5EB040C00213CBFC9435F
:10195000F61B4FEA17444EEA8E0E27EA04454FEA7B
:101960001C4704FB07622CEA074C05FB07F70CFB3E
:1019700005F604FB0CFC16EB074642EB174216EB90
:101980000C4642EB1C421BEB060658EB020241419F
:1019900046EA9E0601D5BDE80189B619524141EBE0
:1019A0000101A3F10103BDE801894FEA14454FEAA3
:1019B000114724EA054621EA074C05FB07F406FB1C
:1019C00007F70CFB06F105FB0CFC11EB074144EBA0
:1019D00017444FEA124711EB0C4144EB1C4422EA36
:1019E000074C05FB07F206FB07F70CFB06F605FBA9
:1019F0000CFC16EB074642EB174216EB0C4642EB8B
:101A00001C456A1854F1000148BF7047B61952418D
:101A100041EB0101A3F10103704795F0000F37D0AE
:101A20004FEA11424FEA144721EA024624EA074CE2
:101A300002FB07F106FB07F70CFB06F402FB0CFCAC
:101A400014EB074441EB17414FEA154714EB0C44E4
:101A500041EB1C4125EA074C02FB07F506FB07F7A3
:101A60000CFB06F602FB0CFC16EB074645EB174594
:101A700016EB0C4645EB1C42121951F1000148BF10
:101A80007047B619524141EB0101A3F101037047C0
:101A90004FEA14454FEA114724EA054621EA074C6C
:101AA00005FB07F106FB07F70CFB06F24FF00006FB
:101AB00005FB0CFC12EB074241EB174112EB0C4209
:101AC00051EB1C4148BF7047921841EB0101A3F153
:101AD0000103704772B64EF62250CEF2000040F27B
:101AE000FF01C0F200010170002080F3098840F27C
:101AF0002870C2F20000016881F308880CF06AFCCB
:101B000040F23370C2F2000040F23471C2F20001C0
:101B10000A78027040F25070C2F2000040F2547134
:101B2000C2F200010A680260106880F30988EFF3CE
:101B3000148040F0020020F0040080F31488BFF30A
:101B40006F8FBDE8F04F0FBCBDE8005006BC62B619
:101B5000084726484FF080510160704772B640F246
:101B60002C72C2F20002116881F31188BFF34F8F0B
:101B7000BFF36F8F62B6EFF309801EF0100F08BF3E
:101B800020ED108A20E9F04F40F25075C2F20005B6
:101B90002968086074460CF01DFC40F23370C2F2F4
:101BA000000040F23471C2F200010A78027040F283
:101BB0005471C2F200010A682A6044F0040E1068F1
:101BC000B0E8F04F1EF0100F08BFB0EC108A80F3A1
:101BD000098840F20002C0F2000272B682F3118856
:101BE000BFF34F8FBFF36F8F62B6704704ED00E015
:101BF000002800DC40427047FEB5456804460146B7
:101C000028460EF0C7FD002817D02068364A112854
:101C10000DD006DC0B2823D00E2831D00F285ED142
:101C200010E0282855D0B0F5107F58D106E0926812
:101C3000002A02D0214628469047FEBD214628466C
:101C40005268F9E7284603F0B7FB0290406E04683B
:101C500002A803F00FFC002CEFD02846A047FEBDE1
:101C6000284603F0A9FB0090683003F0F1FA0098D1
:101C700003216C3003F0FAFA684603F0FBFB2EE018
:101C8000E06841C80D2802D0202822D105E0002EAE
:101C90001FDD28461DF05BFD16E0284603F08CFB97
:101CA0000190408E00F4007401A803F0E3FB2CB116
:101CB000002ED4DD284600F0E6F9FEBD002E03DD3F
:101CC00028461DF044FDFEBD022128461DF055FDAD
:101CD000FEBDE06818B90021284600F091F92046C1
:101CE0000FF066F8FEBD00006C090020F0B5044658
:101CF00085B08069B4F90850668A0027CDE902658D
:101D0000CDE900170490B4F90C00B4F91060C118C3
:101D1000B4F90A00B4F90E50104433462A4600F0D4
:101D200007F80546616800F081F905B02846F0BD66
:101D30002DE9F04F85B01F46DDE911B4DDE90E56FF
:101D400090468946824605F099F916484C34CDE90B
:101D50000204CDE900563B464246494650460EF045
:101D60006FFF040018D003F027FB1022594604909F
:101D70000EF06CFE049830220B493430FEF7E2FD81
:101D8000094D04990C3D2868486604A803F072FBCD
:101D9000286841682046884707F08EF805B020463D
:101DA000BDE8F08FF91B000878090020F0B5044663
:101DB00080688B4989B051F82050606800287DD038
:101DC000052804D006287AD0122879D1AEE0E86937
:101DD00000284FD095E80E008DE80F0004F11001A7
:101DE0000FC907F079FD002655F8260006F077F9AF
:101DF000A169E8690A1A216901446069304404F064
:101E0000E9FDA169E8690A1A21690144E069801BBA
:101E100004F0E0FDE169E8690A1A6169014420699A
:101E2000304404F0A9FEE169E8690A1A61690144D5
:101E3000A069801B04F0A0FE761C022ED4DBA868EB
:101E400006F04DF9E069E9696669431A20694218AC
:101E50003144801C521E04F037FFE169E869A26931
:101E60000B1A61690144101A401C921E04F02CFFE9
:101E7000EE6913E05FF0000655F8260006F02FF932
:101E8000E069831BA069821B606981192069304465
:101E900004F016FE761C022EEEDB0226D5E90301C5
:101EA000CDE900016169E06908444310A069891C1B
:101EB000821B2069304404F027FD02E089E012E033
:101EC0008AE0D5E90501CDE90001E36960690121F6
:101ED000184401EB6001A0699B1E821B20693044FD
:101EE00004F012FD78E0206803F066FA04902068A0
:101EF00010F0F4FC40B1A06808B1002008E004989C
:101F0000006F28B1012003E00498406F00B1022067
:101F1000049901EB8000C56E04A803F0ABFA00231E
:101F20001A462846216803F073FF55E0206803F045
:101F300043FA0490866EEEB3B0F95C70A168D1B339
:101F4000032942D05FF0000100EB8101406D0C6C71
:101F500006F0F6F8204606F0C2F805A804F076FF71
:101F6000BDF81410A88B0144ADF81410BDF818107A
:101F7000081AADF81800BDF81600801CADF8160060
:101F8000BDF81A00801EADF81A000498B0F9602060
:101F9000B0F95E1005A805F000FE04A803F06AFA87
:101FA000022006F057F9304603F006FA3A4605A932
:101FB000079001E00BE006E004F0A6F80DF11C002C
:101FC00003F058FA08E00121BEE70221BCE704A8AB
:101FD000F6E7206810F0AEF809B00020F0BD000070
:101FE000CC8E0708044A0349116004494A6A4862D2
:101FF00010467047A80900206C09002078090020CD
:102000004FF480720029114601D00EF058BC0EF03A
:10201000A1BB000003480249416003498160704749
:10202000B91102086C090020810B02082DE9FF415B
:102030000E4605004FF0010421D005F01FF8284698
:1020400003F0BAF90190876E01A8009703F012FA25
:102050003146684608F026F878B100980024B84266
:1020600008D0284603F0A8F901900099816601A8DC
:1020700003F000FA28460FF079FC06F01DFF04B0CB
:102080002046BDE8F08138B505464FF0FF3404F036
:10209000F5FF284603F090F9009078B1408EC00516
:1020A00004D428461DF053FB012404E002212846F5
:1020B0001DF063FB0024684603F0DCF906F0FCFE2B
:1020C000204638BD00BFFEE77CB5214C054621689F
:1020D00031F8220FCA8C1044088048884A8D104479
:1020E0004880284604F08CFE2168498CADF8001029
:1020F0004618284607F0F6FD3044401EADF80400AF
:1021000004F0CEFE2168898CADF802100844401E10
:10211000ADF80600684610F069FA04E0284600F0C1
:10212000EFFD10F0D9F90028F8D10A2D04D0BDF840
:1021300004002168401C4884206830F8221FC28CAB
:10214000891A01804188428D891A41807CBD000036
:10215000CC070020704770472DE9F04704464068DF
:102160008EB00027804603F027F90090B0F87CA0DD
:10217000D0F86890D0F88060D0F88850C06D00B179
:102180000768684603F076F905E0696820468847E5
:10219000002843D12D68002DF7D12068172853D08F
:1021A0000CDC0F283DD004DC0B2877D00D2825D17E
:1021B0008BE0112810D0142820D13BE0262846D0EF
:1021C00004DC1E2851D0202818D18AE02A2816D0F5
:1021D000B0F5107F12D128E04046E56803F0ECF836
:1021E0000290697A39B9297A012904D130F87C1F23
:1021F00041F48071018002A803F03CF975E040468B
:1022000003F0DAF80090E16811B1C0F8841002E040
:10221000D0F88400E060684603F02CF90EB0BDE809
:10222000F087D7B34046B8475FE0214640461EF0EE
:1022300035FDF3E705A9404600F0A1FBE0680699EB
:10224000016007994160E9E7C4F80C90E6E7E068AF
:102250000228E3D1CDF83080E0680D9027200A9065
:102260000AA9A06810F04AFDD8E7E068012804D068
:102270000021404600F0C8FAD0E730460FF000FCDD
:1022800068B130460FF0ACFE30460FF097FA98B1C7
:10229000012130460EF013FB0EE026E02FE0484609
:1022A0000FF0F0FE0646404603F086F80090C0F8B6
:1022B0008060684603F0DEF80121404600F0A4FA91
:1022C000002EABD10020E060A8E75FEA0A700CD4D2
:1022D000E068C06848B1007A38B140460FF080FE2F
:1022E00003E0214640461DF065FA214640460EF0C7
:1022F00051FA002892D020460EF05AFD8EE7404653
:1023000003F05AF80090703002F0A2FF684673E7BD
:10231000F0B587B0B0F908400DF10C0C0C9E876940
:1023200045688CE8F000448A0025CDE90015029448
:10233000B0F90C10B0F91050B0F90E40B0F90A0025
:10234000194410442B46224600F002F807B0F0BDB5
:102350002DE9F04F8BB09846DDE9155691468A4637
:102360008346149F1A9C04F089FE3348603445F478
:102370008055CDE90204CDE9007543464A465146F1
:1023800058460EF05DFC04004FD003F015F83022E3
:10239000049017990EF05AFB0498282227493430EC
:1023A000FEF7D0FA04981999244F4166A0F87C6092
:1023B0000026C0F88060C666083FC0F8886079686B
:1023C000C16504A803F056F805A9204600F0D7FA25
:1023D0001B4841F2827103960094CDE90110BDF9CA
:1023E0001E00BDF91A10BDF91C20431ABDF91800D2
:1023F0005B1C121A521C0EF023FC064678684168DA
:1024000020468847204602F0D7FF0490866604A83D
:1024100003F030F842F20400054202D120460EF0EB
:1024200079FD2046189900F053FA06F045FD0BB0EF
:102430002046BDE8F08F0000592100083C0A00202A
:10244000392B00082DE9F041044696B0006800F0F1
:10245000B7F908B1D94D01E0D84D2C356068152881
:102460001ED00CDC0B281FD004DC00287ED00528F1
:102470007DD12FE10E287BD01228F9D141E1162819
:1024800006D0172808D0182808D01C28F0D109E059
:10249000E86916B0BDE8F081286AFAE7686AF8E7EB
:1024A000A86AF6E76869F4E720680B901C200C9096
:1024B000206802F081FF0390016D0BA88847064653
:1024C00003A802F0D7FF022E0FDB95E807008DE886
:1024D0000700D4E904023346A16907F0C3F9206973
:1024E0008719A069A0EB06082CE0286805F0F7FD25
:1024F0002169E8690A18521E606904F06BFAA26942
:10250000E869111A491C606904F064FAD4E9040707
:102510007F1C394604F0AEFA3946A06904F0AAFAE5
:10252000686805F0DCFD20693946401C04F0A2FA19
:10253000A0693946401E04F09DFAA0692769A0F100
:102540000208BF1C286805F0CAFD4246394660698A
:1025500004F040FA686805F0C2FD606942463946F9
:10256000401C04F037FA686A022802E015E1B0E086
:1025700000E10BDDA86805F0B2FD61696A6A881C9C
:102580008B180146424638465B1E27E0296AB14255
:1025900026DD6069022E074600F1020801DB3744A0
:1025A00001E007F10207206901DB304401E000F19E
:1025B000020022693B460A444146A2F1010204F0AE
:1025C00083FB022E02DBA069821B01E0A269921E3E
:1025D000A069E9693B46401A4146401C04F074FB7F
:1025E000022E02DB6069064401E06669B61CE769F9
:1025F00028687F1E05F073FD3A463146206904F0D5
:10260000BBFA3A463146A06904F0B6FAE769686851
:10261000BF1E05F064FD20693A463146401C04F0B7
:10262000ABFAA0693A463146401E04F0A5FAE869C3
:10263000022802DC286A022823DDA86A022802DDBB
:10264000E1690F1A01E0E769BF1EA86805F047FDC0
:10265000E969022909DD20693B46421800F1020CB4
:1026600031466046521E04F02FFB286A022808DD1E
:10267000A269E8693B46101A3146401C921E04F0DC
:1026800023FB286805F02BFDD4E90620216904F01E
:10269000A1F9686805F023FDD4E906202169401EF0
:1026A000491C521E04F096F9A86A022811DDA1699E
:1026B0002669E469A1F10208271AA41EB61C7F1C32
:1026C000A86805F00CFD234642463946304604F022
:1026D000FBFA71E0208A00B2ADF81400A18A09B2B9
:1026E000ADF81610228B12B2ADF81820A38B1BB2D6
:1026F000ADF81A302C69ED68CDE9005404F004F906
:102700005AE0208A298B0844ADF81400A08AADF85D
:102710001600208B298B401AADF81800A08BADF85D
:102720001A00206802F048FE0390006FF0B102200A
:1027300005F090FD039890F87C10C1F3C00100EB08
:102740008100006C05F0CBFC0398406B05F0F8FCB1
:102750000398006F02F030FE03990990B1F95A20F6
:1027600005A903F0D1FC09A802F084FE03A802F039
:1027700081FE21E0208AADF81400A08AADF8160091
:10278000208BADF81800A08BADF81A00A86805F0F2
:10279000A6FC05A804F0C4FA0EE0206802F00CFEC6
:1027A000039030F85A1F41F00C01018003A802F099
:1027B00061FE20680FF0BEFC00206AE6780A002067
:1027C00038B505004FF000040FD004F057FC284640
:1027D00002F0F2FD009090F87C00000700D5012483
:1027E000684602F047FE06F067FB204638BD000051
:1027F000022905D2034A52F821102C22FEF7A2B872
:1028000070470000DC8E070870B50D46040009D043
:1028100004F034FC294620461FF09DFDBDE87040C1
:1028200006F04ABB70BD0000022803D2024A02EB48
:1028300080004160704700003C0A002001490860A8
:10284000704700003C0A0020074A0649054B11600A
:10285000064A083BD16958601B68C2E90630084641
:10286000704700006C0A0020380A00203C0A002053
:10287000024AB2F92610D084084670473C0A00206C
:1028800070B50D460146022D1ED2104C2C2254F874
:102890002500FEF757F854F825100220CA69022ACD
:1028A00000DAC86154F825100A6A022A00DA0862C0
:1028B00054F825104A6A022A00DA486254F82510B2
:1028C0008A6A022A00DA886270BD0000DC8E07087E
:1028D0007CB50D4604001DD004F0D0FB204602F06C
:1028E0006BFD0090006F0190684602F0C3FD294621
:1028F00001A807F0D7FB58B1204602F05DFD00901B
:1029000001990167684602F0B5FD20460FF02EF8E8
:1029100006F0D2FA7CBD38B50C46050013D004F0A1
:10292000ADFB284602F048FD0090B0F95A10A142D4
:1029300004D0A0F85A4028460FF018F8684602F074
:1029400099FD06F0B9FA38BD38B50C46050015D02A
:1029500004F094FB284602F02FFD0022CDF8000081
:1029600000EB8201521C0C64022AF9D3684602F083
:1029700081FD28460EF0FAFF06F09EFA38BD2DE9DB
:10298000F34F85B000270C46B846059802F014FDB9
:102990000090C06D0121856805982A68904782469D
:1029A0002A6803210598904704902A680221059817
:1029B000904703902A6800210598904706460098A2
:1029C0000FF006FE834600980FF009FE814600983E
:1029D00090F83210890601D5B0F9588000F036F829
:1029E00005460098C06E10B10EF0F1FC0746258038
:1029F0006780A4F804A0049AABEB020006EB08027F
:102A0000401E2A4420813A44E280039BA9EB030242
:102A1000521E6281A4F80CA020827019E681401E2B
:102A20006082684602F026FDB4F90C000190B4F90A
:102A30001000029002AA01A9059800F039F8019847
:102A4000A0810298208207B0BDE8F08F10B5014642
:102A5000002091F83220920607D5B1F954000028E1
:102A600003D1486B04F0A6FA801C10BD70B58CB081
:102A70000C46054602F0A0FC0A90C06D86680AA8C4
:102A800002F0F8FC009534B1012C06D0022C0BD0DA
:102A9000032C04D10AE0182000E016200190716890
:102AA000684688470CB070BD1520F7E71720F5E79A
:102AB0002DE9FC4117468846044602F07DFC009053
:102AC000C16D056868468E6802F0D4FC326800214A
:102AD00020469047064620460EF002FB27E000BF46
:102AE00002F06AFC0190B0F900102AB2B0F904308B
:102AF000891A9A1AB0F90230A3EB2543B34210D1D8
:102B000090F82800000605D53868884209DB491E80
:102B1000396006E0D8F80000904202DC521CC8F888
:102B2000002001A802F0A6FC20460EF07FFB040066
:102B3000D6D1BDE8FC8100002DE9F0430446406891
:102B400089B005460EF090FB814602F035FC0290FC
:102B5000D0F84880D0F88070466E02A802F08AFC57
:102B60002068172852D008DC0E2839D00F2811D041
:102B700014284BD015283CD148E01E281DD01F2812
:102B800029D022283FD0312833D10020E06009B07D
:102B9000BDE8F0831F494046884503D009F0C2FBD9
:102BA00002F0B2FF002EF2D0D4E902122068CDE983
:102BB0000405CDE9061204A81FE0E0680028E6D06D
:102BC0002FB1AF4203D038460FF00AFADFE72846AC
:102BD0000FF058FADBE7214648460DF0DBFDD6E75B
:102BE000E0684168002904DD00680928EFD00A2860
:102BF00005D05EB12046C4F80490B047C7E7284628
:102C00000FF074FAC3E7C4F80C80C0E720460EF05A
:102C1000CFF8BCE7EFCDABFF70B504461D460023EF
:102C2000B5F5804F13D154F822300C480340D1E958
:102C3000000640EA06108E6840EA06208E8940EAC7
:102C400006408E693043034344F8223003E06FF0BE
:102C5000704044F82200002070BD00000000F0CF5A
:102C600010B503460022086853F82020124802409D
:102C7000D1E901042043CC6820430C6920434C690E
:102C800020438C692043CC6920430C6A20434C6A62
:102C900020438C6A2043CC6A2043CC6B20430C6BCE
:102CA000204302438868082801D142F040020868A6
:102CB00043F82020002010BD8000F0FF30B503460F
:102CC0000024501C53F8204004F04044D1E9000592
:102CD00040EA05108D6840EA05208D8940EA0545E7
:102CE000088A401E45EA0055087D801E45EA0060BE
:102CF0008D6928430443501C43F82040002030BD18
:102D000010B504460A2812D00D2C14D004F0B6F9E0
:102D100009480068C069016820468847074801687B
:102D200009B120468847BDE8104006F0C5B8BDE8A7
:102D3000104003F00FB910BDCC0700201808002088
:102D40002DE9F0430446C56887B0904689460020C7
:102D500005F0EAF9064625B1287910B146F00200DF
:102D600001E026F0020005F0DFF92069012558B1E5
:102D7000D4E902128DE8260003956388228804684E
:102D800041464846A0471EE0124F134B2146386883
:102D90001B68427CE068984730B9E088012801D080
:102DA000002001E03868806BA288E388A168009564
:102DB000CDE90410CDE902320195638822884146AD
:102DC000484608F035FE07B03046BDE8F04305F050
:102DD000ABB90000CC070020BC0700202DE9F0476C
:102DE0008146884640F2C32050434FF47A7190FBED
:102DF000F1F502FB02F002EBD27100EB610617461F
:102E00000023414648466D1C12F00EFA012413E0DF
:102E100004FB04F007FB0700B04206DD3B462246F8
:102E20004146484612F000FA7F1E3B462246414684
:102E3000484612F0F9F9641CAC42E9DDBDE8F087C0
:102E40001CB50024019401AC009400F001F81CBDF5
:102E50002DE9F0478046444886B0164600680E9C2F
:102E60001D46027E0F46012A1CD0A8EB0600791BE6
:102E700050EA010323D0A2F1010922F01FF900F565
:102E80008060824607F010FA00FB09F4504607F014
:102E90000FFA00FB09F1002C14DAC4F5007080125F
:102EA000404212E0012006F081FF2B4632463946AF
:102EB0004046009417F00EF8002006F077FF06B0A9
:102EC000BDE8F08704F50074A012002904DAC1F50A
:102ED000007189124C4202E001F500718C12002849
:102EE00004DD411C01EBD171491003E000EBD0710E
:102EF0004910401E00EBD0704210002C04DD601C15
:102F000000EBD070401003E004EBD4704010641E5E
:102F100004EBD47308EB0104ADF804403C18ADF8A1
:102F20000640A8EB02045B10B21AADF80840ADF8F9
:102F30000C203144FC1AEA1AADF810102844ADF800
:102F40000E20ADF812000023ADF80A401A46042105
:102F500001A800F08BF83946404617F0A1F8294641
:102F6000304617F09DF8AAE7CC070020064A136800
:102F70001A7E012A05D0521E02EBD272521000F0C6
:102F800005B81A6E52681047CC0700202DE9F05F93
:102F90000646884640F2C32002FB00F14FF47A70E7
:102FA00091FBF0F702FB02F102EBD27001EB600B38
:102FB0001446B118234A301B7F1C1268126E136826
:102FC0000A4641469847012538E000BF05FB05F059
:102FD00004FB040159451CDDBC4219DD194B06EB0D
:102FE000050AA6EB05091B68AAF1010208EB04011A
:102FF0001B6E09F101001B689847124BAAF10102F0
:10300000A8EB04011B6809F101001B6E1B689847BF
:10301000641E0C4B3219301B1B68924608EB0501ED
:103020001B6E81461B689847064B5246A8EB05016C
:103030001B6848461B6E1B6898476D1CBD42C5DD6A
:10304000BDE8F09FCC07002070B514460E4605463B
:103050000119001B02F044F822463146284618F0B8
:1030600021FDBDE8704001F017BF00002DE9FF4FC2
:1030700043F6FF740F46664283B09B4681460021AB
:103080000BE000BF09EB8100B0F90200A04200DABA
:103090000446B04200DD0646491CB942F2DB6748EF
:1030A0000068406900280DD0B0F906101A46A1EB5F
:1030B0000B01B14200DA0E46B0F90200801AA042BC
:1030C00000DD0446B4E0DFF878A100200546CAF828
:1030D000000088E0781E854201DA6B1C00E00023C6
:1030E00009EB850C09EB8302BCF90200B2F902106E
:1030F000A04244D1A14215D139F92330059A39F9BA
:10310000251003EB020C4D4A05981268084404EBA5
:103110000B01126E6045136801DA62462AE002462E
:10312000604627E02846A4464FF000087A1E0BE0D0
:1031300008B1401E00E0781E09EB8003B3F90230AD
:10314000634504D108F101089045F1DB2346A34211
:1031500048D01A1B39F92500A1EB040C059B92EA13
:103160000C0F09D4354A184404EB0B011268126E97
:1031700013680246984735E010F018F832E0A14293
:1031800030D001DBA04203DDA0422BDBA14229DCD1
:10319000E04688420ADC0346A04223DC0846A142FE
:1031A00020DBB8F900C0B2F9001008E00B46A142DC
:1031B00018DCA04216DBB2F900C0B8F90010E21A20
:1031C000A1EB0C0151430029A0EB030202DD01EB4E
:1031D000620102E0A1EB6201491CC01A91FBF0F010
:1031E0006044C9E76D1CBD42FFF674AF05980090BE
:1031F00004EB0B00019000208046054613E01149C6
:10320000B8F1000F31F915A009D0009901EB0A02BD
:1032100008440A490968096E0B680199984788F0C3
:10322000010850466D1C064909688D42E7DB641CA5
:10323000B4427FF748AF07B0BDE8F08FCC0700205D
:10324000900E002040A10120104810B5006804F045
:103250002FFF0F48006804F042FF012004F0DCFF5C
:10326000002004F0E7FF002004F0F4FF00210846EE
:1032700003F0B6FE002004F057FF0648006804F093
:103280005FFFBDE81040002004F098BFC807002091
:10329000C4070020C007002033B583B004001BD052
:1032A00003F0ECFE204602F087F80190456E01A87D
:1032B00002F0E0F8049802F07FF80090846068461D
:1032C00002F0D8F8042204A9284602F0F5F82046B6
:1032D0000EF04CFB05F0F0FD05B030BD33B583B00A
:1032E00004001BD003F0CAFE204602F065F80190EE
:1032F000856E01A802F0BEF8049802F05DF8009017
:103300008460684602F0B6F8042204A9284602F058
:10331000D3F820460EF02AFB05F0CEFD05B030BDF7
:103320002DE9F04104460025D4E90007B0F5407FBF
:1033300000D10125214638460DF02CFA064615B17C
:1033400038461BF083FE002E2FD02068052806D0BB
:103350000B280ED00F2806D0262821D10EE03846A3
:103360001BF074FE1CE03846E168BDE8F0411CF03B
:1033700073BE3846BDE8F0411CF04BBAE068052842
:103380000ED138460DF0AAFFA168884205D0384614
:103390000DF094FFA168884202D160681DF01EFC08
:1033A0002046BDE8F0410DF003BDBDE8F081F0B569
:1033B00085B00DF1280C9CE8F0004FF0000C8DE872
:1033C000F01000F003F805B0F0BD00002DE9F04F5B
:1033D00085B09846DDE90E5691468A468346109F91
:1033E000129C03F04BFE19487034CDE90204CDE97C
:1033F000005643464A46514658460DF021FC04000B
:103400001ED002F096F8054602F093F806462046D4
:1034100001F0D2FF0490C0E91956002211990DF075
:1034200015FB049830220A493430FDF78BFA0498D2
:10343000002120F8787F4177017704A802F01AF87C
:1034400005F03AFD05B02046BDE8F08F21330008B5
:10345000D00A002013B582B0044603F00FFE2046C8
:1034600001F0AAFF009060B1406A01F0A5FF01469B
:103470000190022303AA009800F0CAF901A801F004
:10348000F9FF684601F0F6FF05F016FD1FBD0000CC
:103490002DE9F04385B01D4690460F46814603F066
:1034A000EDFD2C2001F08CFE060025D0780001F007
:1034B00087FE04000FD0B8F1000F0CD05DB120469C
:1034C00001F07AFF0F4B00906A001B684146984755
:1034D000684601F0CFFF304601F06EFF0A490290C6
:1034E00000F10C02446282E8A20208490160084926
:1034F000416002A801F0BEFF05F0DEFC05B03046D9
:10350000BDE8F083640E002065E90108310202087D
:10351000A3F8010810B5044603F0B0FD20461CF0E6
:10352000C0F9BDE8104005F0C7BC2DE9FC4789464D
:1035300007002BD003F0A2FD384601F03DFF0190BB
:10354000466E01A801F096FF304602F04AF80546A3
:10355000002414E02146304602F04FF870B101F02B
:103560002BFF0090D0F80080684601F083FFC8452B
:1035700004D12146304602F007F802E0641CAC4258
:10358000E8DB38460EF0F2F905F096FCBDE8FC8762
:103590002DE9FC47894607002BD003F06FFD384624
:1035A00001F00AFF0190866E01A801F063FF30462A
:1035B00002F017F80546002414E02146304602F0D8
:1035C0001CF870B101F0F8FE0090D0F80080684659
:1035D00001F050FFC84504D12146304601F0D4FF28
:1035E00002E0641CAC42E8DB38460EF0BFF905F09F
:1035F00063FCBDE8FC8700002DE9F84398461546BA
:103600000E46074603F03AFD302001F0D9FD0400D4
:1036100015D001F0D1FE0090C0E9057685840A4AF4
:10362000B7EE000AC0F81C8080ED0A0AD2E9001249
:10363000C0E9031205490160684601F01BFF05F06F
:103640003BFC2046BDE8F883000B0020090302087C
:1036500001F0D8BDF8B50D4606004FF0000411D0BA
:1036600003F00CFD304601F0A7FE0090046AAC4266
:1036700003D0056280680EF079F9684601F0FAFE21
:1036800005F01AFC2046F8BDF8B50D4606004FF0CF
:10369000000411D003F0F2FC304601F08DFE0090E2
:1036A0004469AC4203D0456180680EF05FF968461A
:1036B00001F0E0FE05F000FC2046F8BD2DE9F843DE
:1036C0001D46DDF8208016460F46040015D003F095
:1036D000D5FC204601F070FE0090C0F86080476580
:1036E000C0E91665684601F0C5FE20461BF0AEFC39
:1036F00020460EF03BF905F0DFFBBDE8F883F8B596
:1037000015460E4607004FF0000415D003F0B6FC36
:10371000384601F051FE0090042D08D200EB8500E0
:10372000446BB44203D0466338460EF01FF9684636
:1037300001F0A0FE05F0C0FB2046F8BDF8B50D462F
:1037400006004FF0000411D003F098FC304601F061
:1037500033FE0090446CAC4203D0456430460EF01A
:1037600005F9684601F086FE05F0A6FB2046F8BD87
:10377000F8B50D4606004FF0000411D003F07EFCB2
:10378000304601F019FE0090846CAC4203D0856491
:1037900030460EF0EBF8684601F06CFE05F08CFB4D
:1037A0002046F8BDF8B50D4606004FF0000411D0D4
:1037B00003F064FC304601F0FFFD0090046DAC4264
:1037C00003D00565304600F05EF8684601F052FE11
:1037D00005F072FB2046F8BDF8B50D4606004FF027
:1037E000000413D003F04AFC304601F0E5FD0090E0
:1037F00090F86C40AC4204D080F86C5030460EF02B
:10380000B5F8684601F036FE05F056FB2046F8BDD7
:10381000F8B5044680681D4617460E4600282BD092
:10382000D4E9040290420ED1521E6A437119304607
:10383000FDF742F820692A46401E05FB0060394624
:10384000FDF73AF81BE005FB0013401C20612A46F7
:1038500039461846FDF730F8A06801F0ADFD00903C
:10386000D0F8980048B10025684601F003FEE168F1
:1038700029B125B120468847F8BD0125F4E7A068A5
:1038800000F001F8F8BD10B58AB0044601F094FDCF
:1038900009A904AACDE9002105AB089006AA07A949
:1038A00019F09EFF08A801F0E5FD02A920460DF0E1
:1038B0006BFCBDF8080007990844ADF80800BDF896
:1038C0000A0006990844ADF80A00BDF80C000599F5
:1038D000401AADF80C00BDF80E000499401AADF87E
:1038E0000E0002A920460EF001F80AB010BD70B516
:1038F0000246002300E05B1CD55C002DFBD10124B7
:10390000012003E004EB84056C00401CB1FBF4F5DE
:103910000A2DF7D20025D61835540DE00A25B1FB43
:10392000F5F605FB16153035D618064406F8015C89
:103930000A25B1FBF5F1401E0028EFD170BD10B58E
:1039400002460020002300E0401C145C002CFBD148
:1039500003E0CC5C1454401C5B1CCC5C002CF8D104
:10396000145410BD10B50AA116A000F01BFD0120D3
:1039700000F0E0FA012003F027F9044616F0FCFD00
:103980004FF47A6000F020FF204603F01DF910BDCF
:103990004F757470757420616E7469616C696173C0
:1039A000656420746578740A6F6E20646966666564
:1039B00072656E74206261636B67726F756E64739B
:1039C0002E000000416E7469616C6961736564204A
:1039D00054657874000000002DE9F04100262AA10A
:1039E00033A000F0DFFC08F08BFA044608F09CFAE4
:1039F0000546A5F1C400032190FBF1F031490860B0
:103A000031480088401D31490988611AB0EB610FC7
:103A100006DB2D484088401D2A490968884200DAA3
:103A200001262BA003F080FA28490988611AB0EB1F
:103A3000610F07DB2348006862304100A5F12800D0
:103A4000814202DA012026490860264804F078FB0A
:103A5000074603F017FA401C1A490968884202DA3F
:103A6000012021490860384604F06AFB304615F011
:103A700009F901F009FA032001F03EFB0FF0CEFD39
:103A800001F0FAF9BDE8F0814578616D706C6573FD
:103A900020666F72207468650A6175746F6D6F744B
:103AA00069766520696E64757374726965000000DB
:103AB0004175746F6D6F746976652073616D706C9C
:103AC00065730000E800002094CA0508A82D0308CB
:103AD0006D7365632F706963747572653A0A0000CF
:103AE000EC000020C4BC0408F000002010B508A1C0
:103AF00015A000F057FC00F04DFC002000F01AFA71
:103B00000FF0C2FE4FF47A6000F05EFE10BD0000C0
:103B100053686F77696E670A646966666572656E79
:103B200074206269746D61707320776974680A61CA
:103B30006E6420776974686F757420636F6D70723E
:103B4000657373696F6E00004269746D6170730014
:103B500010B502E00A2002F093F907480068012836
:103B6000F8D006480068012804D100200349086005
:103B7000012010BD0020FCE7B0000020B4000020B0
:103B80002DE9F04F99B0502105A8FCF720FF08F06F
:103B9000B7F9824608F0C8F903908E498EA000F06C
:103BA00001FC012000F0C6F96FF07F4004F097FAA5
:103BB0008C4804F0C5FA4FEA6A010C228AA002F090
:103BC00089FA8C4804F0BCFA2B2201218AA002F069
:103BD0006DFA3F22012189A002F068FA53220121E7
:103BE00088A002F063FA6222012188A002F05EFA46
:103BF0007122012187A002F059FA8522012187A0B4
:103C000002F054FA9922012186A002F04FFA874867
:103C100004F096FA08F0C4F8049005A80499FFF798
:103C200066FE83A105A8FFF78AFE092008F0D4F8F4
:103C30008146B9F1000F0BD07FA105A8FFF77FFEE9
:103C4000494605A8FFF753FE7CA105A8FFF777FEBC
:103C50000398A0F119020C2105A802F027FA00F040
:103C60007FF90746A6E000F07BF9C01B4FF4FA612C
:103C700090FBF1F201FB1206481096FBF0F808EBFE
:103C80004800C0EBC810A6EBC006B6F5FA7F00DD11
:103C900090E0C6EB06204FF4FA7190FBF1F0C8EB10
:103CA000082180EA010B0BEB0B2000EB0B446FF0BB
:103CB0007F40051BFF20342352462B21CDE9000411
:103CC0003C2002F0E5FDFF203E2352463521CDE9A0
:103CD00000053C2002F0DCFD4FF47F4048235246B3
:103CE0003F21CDE900043C2002F0D2FD4FF47F409B
:103CF000522352464921CDE900053C2002F0C8FD7F
:103D00004FF47F005C2352465321CDE900043C2050
:103D100002F0BEFD4FF47F00662352465D21CDE9DF
:103D200000053C2002F0B4FD46487023524667214E
:103D3000CDE900043C2002F0ABFD4FF6FF707A2382
:103D400052467121CDE900053C2002F0A1FD4FF65D
:103D5000FF70842352467B21CDE900043C2002F011
:103D600097FD39488E2352468521CDE900053C2038
:103D700002F08EFD3448982352468F21CDE900048D
:103D80003C2002F085FD4FF0FF10A22352469921FE
:103D9000CDE900053C2002F07BFD4FF0FF10AC2385
:103DA0005246A321CDE900043C2002F071FD02F04F
:103DB00063FF00BF00F0D4F8C01B41F2707188426D
:103DC00004DAFFF7C5FE00283FF44DAF19B0BDE897
:103DD000F08F0000389F0708436F6C6F722062619C
:103DE00072000000C4BC0408436F6C6F72206261F3
:103DF00072730000C46A0708526564004772656503
:103E00006E000000426C7565000000004772657925
:103E10000000000059656C6C6F7700004379616E9B
:103E2000000000004D6167656E746100644807081A
:103E300020627070000000002C20000020636F6C76
:103E40006F7273008080800000FFFF0003490160F3
:103E50000D214160052101817047000018010020FB
:103E600010B50CA114A000F09DFA012000F062F83A
:103E700001F020FD10F066FF4FF47A6000F0A4FC22
:103E800001F0FEFD0021084601F0B6FD0C4801F0EE
:103E900043FD10BD5354656D57696E207375707086
:103EA0006F7274730A736F667477617265206375DD
:103EB00072736F7200000000437572736F720000BE
:103EC000543007082DE9F04104464FF404711848B6
:103ED00000680DF0DDF88046642C01DD1FF020FC49
:103EE000002140460BF04FF82246002140460BF0DF
:103EF00017F803F031F8064600BF00F031F8871BD1
:103F0000642C03DD394640460BF03DF8052001F0F6
:103F1000B7FFFFF71DFE0546A74201D2002DECD0EA
:103F2000642C01DD1AF02AF902F0A6FEBDE8F0814A
:103F30009400002010B504462046024909688847CD
:103F400010BD00009C000020014604480089084084
:103F500008B1012070470020FCE7000040990120D3
:103F600010B50648006810B10548006810BD02F0A1
:103F7000F3FF04490968401AF8E70000B000002088
:103F8000AC000020A800002010B505A111A000F091
:103F900009FA00F0FFF919F049FF00F0ABF910BD84
:103FA0004F7074696D697A65642064726177696EB7
:103FB0006720726F7574696E650A666F722064722D
:103FC0006177696E672067726170682064617461EF
:103FD0000000000044726177696E6720612067729B
:103FE0006170680010B5054800680DF0F7FB0DF032
:103FF00039F804460EF052F910BD00009800002078
:10400000F0B589B020223A4901A8FCF79BFC07F0E3
:1040100077FF054607F088FF04466E100020FFF783
:1040200089FF022004F016F96FF07F4004F057F882
:10403000304804F085F844F3191231462EA002F0FE
:1040400049F82F4804F07CF804EB440000EBC4006E
:10405000821131462BA002F03DF8384804F03FF8B9
:10406000162060438211314635A002F033F84048F3
:1040700004F066F816206043122101EBA0123146CD
:104080003CA002F027F86FF07F4004F028F81C48AD
:1040900004F056F802F062FF0746394601A8FCF723
:1040A000BAFBC4EB44108211314601A802F012F8A9
:1040B00026206043821137480088281A411036486C
:1040C00002F0B8FA6FF07F4004F009F8094804F0F4
:1040D00037F8C4EBC40040F3D90231462FA001F0F9
:1040E000F9FF41F28830FFF7EDFE09B0F0BD0000A6
:1040F00068410308C4BC04085354656D57696E00D9
:10410000C46A0708556E6976657273616C206772C0
:10411000617068696320736F6674776172650A669F
:104120006F7220656D626564646564206170706C97
:1041300069636174696F6E7300000000FF8822007C
:10414000466F722053544D3332204D4355205072E8
:104150006F6475637473202D20436F7274657820CB
:104160004D33202D20436F72746578204D3400004C
:104170004C4F0708436F6D70696C6564204A756E1B
:1041800020203620323032332031343A34393A313B
:104190003100000050FD040838A405087777772E19
:1041A00073742E636F6D2F73746D333200000000D3
:1041B00010B506A110A000F0F5F80120FFF7BAFE37
:1041C00000F0E8F810F02EFC10BD000053686F7787
:1041D0007320736F6D6520666561747572657320F9
:1041E0006F660A746865204C4953545645572077CA
:1041F00069646765740000004C697374766965775B
:104200002064656D6F0000008CB02C492C4803F0D1
:104210005FFB0CF027FF06462A490DF048FEFDF72C
:10422000F9FE002101A8FEF7E3FA00200690002124
:1042300001A8FEF725FB012101A8FEF7D9FA00200D
:104240000690012101A8FEF71BFB1F48FEF7FCFAB0
:104250001E480AF043FE1E48FDF7C4FE1D480BF041
:10426000E1F91D480BF0C8FB1C4807F0FBFA0220DF
:1042700003F0F0FF1A48FFF7E9FD07F091FD05464E
:10428000102D11DB0420FFF75FFE68B101F074F818
:104290000446B4F5001F03DD12481349086006E028
:1042A00012481149086002E011480F4908600120D6
:1042B00000F046F801E01AF047FDFCE7B8000020E6
:1042C00079550208915102087BBA010859EE00089D
:1042D000AD1D000865F4000869F800085DB7000826
:1042E00040990120358D01089C000020498C01086F
:1042F000718E010810B505480068401C034908602C
:104300000FF0A2FE00F0EAF910BD0000A4000020AA
:1043100010B5FFF767FE064906A000F043F801203C
:104320000DF0BAFB1DF0A8FC00200DF0B5FB10BD90
:1043300088A8070852616469616C204D656E75003C
:1043400008B1012100E00021014A1170704700000E
:10435000BC00002010B5034800680DF087FF02F094
:104360008BFC10BD9400002070B50446084800681E
:104370000DF074FB50B14FF4B071054800680CF0BB
:1043800087FE0546214628460BF07BFC70BD0000E9
:104390009800002010B5024800680DF067FF10BDBE
:1043A000980000202DE9F84F07460C4607F0A8FDBD
:1043B000824607F0B9FD83464FEA6A0000904FEA53
:1043C0006B09FFF70FFEFFF7C5FF02F055FC012058
:1043D000FFF7B0FD6FF07F4003F081FE022003F095
:1043E00039FF124803F0ACFE3C223846009901F038
:1043F00071FE0F4803F0A4FE02F044FD8046A9EBD5
:10440000080000F10A022046009901F063FE002531
:1044100000E06D1C605D0028FBD105EB8500060106
:10442000304600F0D1F9BDE8F88F0000C4BC0408A4
:10443000C46A07082DE9F04796B028216846FCF7C2
:10444000C6FA07F05DFD054607F06EFD044607F06D
:104450004BFD804601F02EFAA0450DDD0020ADF8A1
:104460002800ADF82A0028B2ADF82C0020B2ADF833
:104470002E000AA803F027FE5EA16AA0FFF792FFB4
:10448000002608E06A4951F8260001F089FB0EA9D0
:1044900041F82600761C082EF4DBFFF761FD074685
:1044A000002667E006F007010EAA52F8210003F08B
:1044B00021FEFBF7F3FE90FBF5F105FB1100A94689
:1044C00005EBD971A0EB610000B2ADF83000FBF74D
:1044D000E5FE90FBF4F104FB1100A14604EBD97159
:1044E000A0EB610000B2ADF83200FBF7D7FE90FB05
:1044F000F5F105FB1101BDF830001430084400B29D
:10450000ADF83400FBF7CAFE90FBF4F104FB110197
:10451000BDF832001430084400B2ADF83600BDF9E1
:104520003630BDF93420BDF93210BDF9300002F04B
:10453000CBFBBDF93400A84203DB681E00B2ADF826
:104540003400BDF93600A04203DB601E00B2ADF8B6
:104550003600BDF93000002802DA0020ADF8300046
:10456000BDF93600002802DA0020ADF8360002F06E
:1045700083FB761CFFF7F4FCC01B41F288318842B4
:1045800003DAFFF7E5FA00288CD0FFF7B3FE19F045
:104590008DF98246002003F096FD0020FFF7CAFC4B
:1045A0006FF07F4003F09BFD022003F053FE214893
:1045B00003F0C6FD052211461F4802F03BF81FA17B
:1045C0006846FFF7BCF951466846FFF790F902F0DC
:1045D00067FC201A4FEA600969104A46684601F0F4
:1045E00079FD4FF47A60FFF76DFC01F049FA16B0DF
:1045F000BDE8F0874D756C7469206C617965722037
:10460000636C697070696E670A486967686C7920C5
:104610006F7074696D697A65642064726976657219
:104620007300000048696768207370656564000066
:10463000A8CA0508C4BC040894CA0508506978656E
:104640006C732F7365633A200000000010B504A15D
:104650000EA0FFF7A7FEFFF7C5FC1FF0D5FB10BDAE
:104660005573657320616C70686120626C656E645F
:10467000696E670A666F72207472616E7370617220
:10468000656E637920656666656374005472616E59
:1046900073706172656E74206469616C6F6700008D
:1046A00010B5094909A0FFF77DFEFFF773FE002052
:1046B000FFF740FC01F0FEF810F0EEF901F0E0F930
:1046C000FFF718FE10BD00005CAA0708547265656C
:1046D000766965772064656D6F00000010B586B05F
:1046E000142101A8FCF773F94FF4B0711348006866
:1046F0000CF0CEFC044612A101A8FFF720F91248E5
:104700000168491C01A8FFF7F2F810A101A8FFF702
:1047100016F90F48016801A8FFF7E9F80DA101A8F3
:10472000FFF70DF90C484068411E01A8FFF7DFF8BC
:1047300001A920460BF0A5FA06B010BD9400002098
:1047400044656D6F20000000A00000202E000000D6
:10475000A40000202F0000004099012070B507F050
:10476000E3FB044607F0C0FB0546B5EB440F00DA57
:1047700070BD07A110A0FFF715FE0120FFF7DAFBBF
:1047800010F00EFA0021084603F026FD00BFEFE707
:1047900044656D6F6E7374726174657320686F77B2
:1047A00020746F207573650A7669727475616C2068
:1047B00073637265656E73005653637265656E2030
:1047C00064656D6F0000000010B504462046FFF7D9
:1047D00079FBFFF78FFD10BD2DE9F04FDFF828B111
:1047E00091B04FF0FF35DBF80030B3F9221006919D
:1047F000DE69B3F92490F469A189814206D8E2897F
:10480000824203D3471AD4F8008012E0D4E9018130
:1048100000296FD00A8882426CD84D88854269D3BE
:10482000801A82B2486800EB8200B0F90070B0F9DB
:104830000250781C5ED0307EA17C10FB01FA217CF6
:10484000CDE90701B3F92A60304607F0BBFDC0B2DD
:104850000E90DBF8000007FB0A81A37C826B012726
:10486000CDE90412CDE90273C069089AC17E807E49
:10487000CDE90001DDE90603494607F0D9F8681CD7
:1048800018D046F0020007F09DFDDBF80000A37C85
:1048900005FB0A81826BCDE90273CDE90412C06980
:1048A000089AC17E807ECDE90001DDE90603494614
:1048B00007F0BEF8DBF800005D46C069417E007E6F
:1048C000814214D9022E12D086F0040007F07AFD3E
:1048D0002868C069027EC37E12FB0391437E857EF9
:1048E000089A06984B4412FB050207F02DFA0E9821
:1048F00007F068FDDBF80000627C418C11444184C4
:1049000011B0BDE8F08F0000CC070020044800681B
:10491000C069C06909B1027C0A60407C7047000030
:10492000CC070020022008807047C06982898A4233
:1049300002D8C2898A4210D2806880B102888A4235
:104940000DD843888B420AD3406800EB8100A0EB6E
:104950008200B0F90000002801DB01207047002030
:1049600070470000F0B52F4D044687B028682146F7
:10497000B0F92A60C069C06900F0E0F9F0B341689D
:104980000088201A00EB400001EB80042078C01C56
:104990008708304607F016FD06462348D0F800C0C9
:1049A000BCF1000F1AD00021A068CDE90401022259
:1049B000012001A9009081E88500286894F903206E
:1049C000DCF80070B0F92410B0F92200114494F919
:1049D0000220637810442278B84713E0A068CDE93C
:1049E0000070286894F903206378B0F92410B0F9B6
:1049F0002200114494F90220104400E00CE02278D7
:104A000000F082FB304607F0DDFC28682279418CFB
:104A10001144418407B0F0BD07B03046BDE8F04016
:104A200004F01ABFCC0700202C080020F0B52F4D51
:104A3000044687B028682146B0F92A60C069C06979
:104A400000F07CF9F0B341680088201A00EB4000C8
:104A500001EB80042078401C4708304607F0B2FC88
:104A600006462348D0F800C0BCF1000F1AD0002140
:104A7000A068CDE904010422012001A9009081E889
:104A80008500286894F90320DCF80070B0F9241040
:104A9000B0F92200114494F902206378104422787E
:104AA000B84713E0A068CDE90070286894F90320A6
:104AB0006378B0F92410B0F92200114494F902206F
:104AC000104400E00CE0227800F030FB304607F0A4
:104AD00079FC28682279418C1144418407B0F0BDEB
:104AE00007B03046BDE8F04004F0B6BECC07002069
:104AF0002C0800202DE9F043334C034687B0206892
:104B00001946B0F92A60C069C06900F054F900285C
:104B100053D041680088181A01EBC0053046AF78C1
:104B200007F050FC814620686A680123816BCDE95B
:104B30000237CDE90421C169CB7E8A7ECDE900230D
:104B40000B7EB0F924102A78B0F9220006F070FF2D
:104B50002068C069417E027E91421FD9C07E11FB50
:104B600000F812FB00F7022E18D002F074F9064686
:104B700002F03AF903F0B3FA21682A78CB69B1F967
:104B80002200DB7E12FB0302B1F9241001EB0803C3
:104B9000394407F0D9F8304603F0A1FA484607F047
:104BA00011FC20686A78C369B0F922109B7E12FB61
:104BB0000311418407B0BDE8F08307B03046BDE87B
:104BC000F04304F049BE0000CC07002070B5124C41
:104BD00005460B4620682946C069C06900F0AEF85A
:104BE000A8B1416800882468281A00EB400204201C
:104BF000E46900EB8200085CA47E10FB04F0002B4B
:104C000004D011F8221011FB04F1196070BDBDE849
:104C1000704005F045B80000CC07002003460C4862
:104C200010B500680C461946C069C06900F086F8E6
:104C300058B141680088181A00EB400001EB800071
:104C400007C884E80700002010BD012010BD000047
:104C5000CC07002001200880704700B5C06900F033
:104C60006DF8002800D0012000BD00002DE9F341BF
:104C70001E4E0F46002530682C46C069417EC07E1E
:104C800011FB00F821E0684603F0EEFF05463068AE
:104C90002946C069C06900F051F898B141680088A0
:104CA000281A00EB400001EB800090F90210007917
:104CB00008443168C969897E10FB01F0002804DDD1
:104CC000044402E004F0ECFF04447F1EDBD51DB178
:104CD000284605F007F80444414620460FF0C2F983
:104CE000034901200870BDE8FC810000CC070020CA
:104CF000900800202DE9F3410D4E0E4F0D4630680F
:104D0000B0F92A40A00702D17A6800989047DFF8EE
:104D100028806D1E05D4D8F80020694628469047A3
:104D2000F7E70020387030684485BDE8FC8100005A
:104D3000CC070020900800200C08002006E0028824
:104D40008A4202D842888A4202D280680028F6D17C
:104D50007047000070B5114C05460B462068294687
:104D6000C069C06900F027F898B1416800882468DC
:104D70002A1A0120E46900EBC200085CA47E10FB43
:104D800004F0002B04D011F8321011FB04F119606B
:104D900070BDBDE8704004F083BF0000CC07002068
:104DA00001200880704700B5C06900F004F80028B1
:104DB00000D0012000BD06E002888A4202D8428865
:104DC0008A4202D280680028F6D170472DE9F0416E
:104DD0000025144E144C17E02069C5EB051700EBB5
:104DE000C7007022001D3168FBF7ACFD206900216F
:104DF00040F8371000EBC70000F10C018161011D84
:104E0000C163091D6D1C0164A0688542E4DB18F0D4
:104E1000B3FE2169C0EB001001EBC000001D306043
:104E2000BDE8F081CC070020AC0E002070B5104921
:104E30000E480860084605F0F3F80D4C143CA068D5
:104E4000C0EB0010C500284600F01EFA094B206197
:104E50002A461B68002198474FF0FF30206004F07D
:104E60008DF8BDE8704018F087BE00008DFA01088B
:104E7000C00E0020600E002002490020096881F861
:104E800065007047CC07002002490120096881F8BD
:104E900065007047CC07002010B517F0F9FA0448F8
:104EA000016A04480068016600F10801416110BD13
:104EB00060070020CC0700202DE9FC4714460D4672
:104EC000064602F0DBF8284FDFF8A0803868B0B162
:104ED000D8F80000816CC06C0E44054400200DF031
:104EE00085FB60B13B68224629463046984781469B
:104EF0000DF0F2FA0028F5D1B9F1000F30D00DF025
:104F00000BFB06440DF016FB0544D8F8000090F8A2
:104F1000651021B990F864104E434D434C43301B4B
:104F200000F07EF8ADF80000301900F079F8ADF827
:104F30000400281B00F074F8ADF80200281900F0F6
:104F40006FF8ADF8060068460DF050FB06E022460B
:104F500029463046FEF778F80DF0BEFA0028F6D163
:104F600003F0AAFFBDE8FC8758070020CC0700200B
:104F70002DE9FC471D4616468946824602F07EF81A
:104F8000244F254C3868B8B12068816CC06C0E4441
:104F9000054400200DF02AFB70B1D7F800C02B4665
:104FA000324649465046E04780460DF095FA0028C3
:104FB000F3D1B8F1000F28D00DF0AEFA06440DF091
:104FC000B9FA054400200DF011FBF0B1134F206831
:104FD0001221407C57F820000190C068426A01A865
:104FE00090475FEA000C06D033464A46514600958A
:104FF0000198E04705E02B4632464946504616F0F8
:10500000C1FD0DF069FA0028E1D103F055FFBDE8BC
:10501000FC8700009C070020CC070020040800202B
:105020000449096891F8641009B190FBF1F000B2ED
:1050300070470000CC0700202DE9F041224C0546C6
:105040000E462068002788B920480068E06110B942
:1050500006F047FFE06100F017F9206080B31A49BD
:105060001B4824310860084604F0DAFF194800683C
:10507000854200DA0546E169731B4A1E20469342C9
:1050800001DD6E18761EAE4201DA2E460127124C63
:105090002268116E4B68836301620B490F4B3431F8
:1050A0000B60116602C880E862000EF0B5FF0EF0DA
:1050B00069FC054821682C3048613846BDE8F0811C
:1050C000FFE70127D2E7000060070020200800204A
:1050D000C9F8010824080020CC070020019B010822
:1050E000044A126892F8642090FBF2F091FBF2F10E
:1050F000FFF7A2BFCC0700200249096881F86400CD
:105100000EF040BCCC0700207CB5074EDDE906540C
:105110003668367CCDE90054B60702D413F05EFF42
:105120007CBD13F0ADFF7CBDCC0700207CB5084EE4
:10513000DDE906543668367CCDE90054B60702D462
:1051400014F000F87CBD034C2468A0477CBD00002F
:10515000CC070020E80D0020F8B50C0005460ED065
:1051600001F08CFF204600F01BF8060010D000F084
:1051700023F92246009025B12946074B03E0002081
:10518000F8BD064B00211B689847684600F072F98D
:1051900003F092FE3046F8BD640E0020600E002041
:1051A00010B5040009D001F069FF20460EF0DAF9CD
:1051B000044603F081FE204610BD002010BD000013
:1051C00038B5054601F05AFF2846FFF7E9FF04000D
:1051D0000AD000F0F1F8064B00902A461B68002127
:1051E0009847684600F046F903F066FE204638BD51
:1051F000600E0020024A106021F0030050607047EA
:10520000289F012010B5040011D001F037FF084895
:10521000042101EBC401406B415848680EF03AF894
:1052200020461CF015FDBDE8104003F045BE10BD42
:10523000689E0120002808D00449CA6B0260002241
:105240004260026802B15060C8637047689E0120E6
:1052500010B5044601F012FF2068FFF7D3FF0020CD
:105260002060BDE8104003F027BE000070B50D4679
:105270000646002405E000BF06EB8400FFF7E8FFC8
:10528000641CAC42F8DB70BD2DE9F041044619F016
:1052900079F92848E41C24F00305016C2D1DA9426E
:1052A00000D90D46C46B13E054F8042CAA420ED169
:1052B00084B1216809B162684A60616809B12268F5
:1052C0000A60C26BA24231D12168C1632EE024681A
:1052D000002CE9D18046816BC0680F1857F8040C88
:1052E0003E1A306838B100201CF032FF57F8040C29
:1052F0003E1A3068D0B97068A84217DB3044441BAE
:105300003046241D1CF0DCFED8F80C10491BC8F8F0
:105310000C10D8F814102944C8F814107068401BF9
:1053200002D031460DF0B6FF44F8045C2046BDE8DB
:10533000F0810000689E012010B5002419F022F9C8
:105340000C490F2001EBC002526C1AB101EBC000F6
:10535000406C08E0401EF5D508E04168A14200D944
:105360000C46806810B180680028F6D1A4F10C00CA
:1053700010BD0000689E0120034800680C3800281A
:1053800000DC002070470000689E0120002138B139
:105390000449042202EBC000496B085841680C39EB
:1053A00008467047689E012002488169491C816156
:1053B00070470000689E01200549CA69521CCA61F5
:1053C000496B01EBC0010A78521C0A7000F06AB800
:1053D000689E01207CB506460C460846FFF7E0FEB5
:1053E000050021D006B33046FFF7D0FFA04200DA17
:1053F000044601F043FE2846FFF7DEFF00903046EA
:10540000FFF7DAFF094B019001461B68224600981E
:105410009847684600F02EF801A800F02BF83046B7
:10542000FFF7F0FE03F048FD28467CBD640E002027
:1054300010B501F023FEFFF77FFF64220849B0F5A5
:10544000800F04D990FBF2F4086A444303E0096A30
:105450004143B1FBF2F403F02FFD204610BD0000E4
:10546000689E012002488169491E816170470000E1
:10547000689E01200A4902684B6B52F8082C03EB26
:10548000C2021378022B03D3CB690BB15B1ECB6135
:105490001178491E11700021016008467047000014
:1054A000689E01200349042202EBC000496B0858A2
:1054B00008307047689E01202DE9FC414FF000063E
:1054C0000B465FEA000834462BD032B1114618462D
:1054D000FFF742FE060000D101244046FFF76CFFB3
:1054E0000090078845686846FFF7C4FFCCB9B9004B
:1054F0002846091DFFF76EFF050015D0FFF75CFF7A
:10550000019040F8276001A8FFF7B4FF4046FFF77D
:1055100053FF009045600188491C01806846FFF7F1
:10552000A9FF2046BDE8FC813046FFF76BFE012451
:10553000F7E70820FFF744BE7CB5050023D0FFF74E
:105540003BFF00904068C0B1FFF736FF0024019098
:1055500005E0019800EB8400FFF77AFE641C0098D8
:105560000088A042F5DC01A8FFF784FF0098001D29
:10557000FFF76EFE0099002008806846FFF77AFF6B
:105580002846FFF73FFE7CBD7CB50C46FFF714FFB5
:1055900000900188A14220D94568F5B101F06EFD67
:1055A0002846FFF709FF019000EB8400FFF750FE4B
:1055B00000990888401E80B20880401E019905E0CD
:1055C00001EB8402526841F82420641C8442F7DD18
:1055D00001A8FFF74FFF03F06FFC6846FFF74AFF93
:1055E0007CBD38B5002430B1FFF7E6FE009004889A
:1055F0006846FFF73FFF204638BD38B50D4600240A
:1056000048B1FFF7D9FE2946009000F0BDF80446E6
:105610006846FFF72FFF204638BD38B50D460024F9
:1056200048B1FFF7C9FE2946009000F0BFF80446D4
:105630006846FFF71FFF204638BD00002DE9FE43F6
:105640000C465FEA00093FD0FFF7B6FE00900688DF
:10565000D0F804806846FFF70DFFB44234D2B000A2
:10566000001DFFF7ADFD05002ED0FFF7A5FE019050
:105670004046FFF7A1FE154F029001463B68A2008D
:1056800001989847301B820002983B6800EB840128
:10569000019800EB8400001D984701A8FFF7EAFE7F
:1056A00002A8FFF7E7FE4046FFF7ACFD4846FFF7CC
:1056B00083FE009045600188491C01806846FFF721
:1056C000D9FE0120BDE8FE830020FBE7640E002028
:1056D0002DE9F04115460E4607460024FFF7AEFFC0
:1056E00030B12B4600223146384600F005F804461A
:1056F0002046BDE8F08100002DE9FE439846914622
:105700000D460024D8B3FFF757FE0190078846687E
:1057100001A8FFF7AFFEBD4231D286B33046FFF796
:105720004BFE009050F825406846FFF7A3FE24B1D9
:105730002046FFF72BFE404511D04046FFF740FDC5
:1057400004000CD03046FFF737FE00EB85050090D3
:105750002846FFF77DFD68462C60FFF78BFEB9F108
:10576000000F0CD05CB12046FFF726FE054B0290DF
:1057700042461B684946984702A8FFF77BFE204631
:10578000BDE8FE83640E002038B50D460188002474
:10579000A94209D9406838B1FFF70EFE009050F8D1
:1057A00025406846FFF766FE204638BD10B5002448
:1057B000FFF7EAFF10B1FFF7FFFD0446204610BDDA
:1057C00070B50C46054601F08FFCC1B22346284651
:1057D000BDE87040002200F001B80000F0B52D27B0
:1057E0001C68B0F1004F08D0002600280DDA651CB7
:1057F0001D6027704042012408E0651C01261D60E1
:105800006FF000402770491E01E00024091BC9B257
:105810002AB3491EC9B222E00C46491EC9B29442BD
:1058200005D1124C27781C68651C1D602770104C30
:1058300054F8215090FBF5F4E4B20A2C11D804FB83
:10584000150011B90EB1641CE4B20A2C02D1012476
:10585000491CC9B21D686F1C30341F602C700029B0
:10586000DAD1196800200870F0BD0000B8070020E8
:10587000CC2E0708524204F0C6BB10B5002807DD45
:105880000A682B24531C0B601470096800220A70EC
:1058900010BD000010B5044601F0F0FB044904EB14
:1058A000840001EB8000047903F006FB204610BD64
:1058B000A49F012002480068407C00F003B800006B
:1058C000CC07002070B5054601F0D8FB114805EB68
:1058D000850100EB810400222271236953B150F845
:1058E0002100E26881684068521AA168091A1846C6
:1058F00002F0DBFA284601F0BBFA18B1002102F0F1
:105900004FFC02E0206902F07AFABDE8704003F033
:10591000D3BA0000A49F012002490968497C00F025
:1059200003B80000CC0700202DE9FC5F894604463F
:1059300001F0A4FB484601F09BFA2C4E09EB8907C5
:10594000824656F82700019029484FF00108016867
:1059500041B92749C0F80080091D2648086008465B
:1059600004F05EFB214A09EB8901BAF1000002EB69
:1059700081051BD002F044FB83464FF07F4002F0CC
:1059800097FB00F0C1F800221146206800F052FE9B
:10599000206842880188504602F0F2FB46F8274012
:1059A00085F80480584602F02BFB17E046F82740A4
:1059B00085F804802869464618B102F0FBF90020FA
:1059C000286174B10096E868A1684B46421AA8683D
:1059D0006168411A206802F09DFA286148461DF06E
:1059E00081FD03F069FA0198BDE8FC9FA49F0120A6
:1059F0003808002015F90108024A1268527C00F0AC
:105A000003B80000CC07002070B514460D460646CA
:105A100001F034FB204601F02BFA0300174804EB99
:105A2000840109D050F8210041688068711A2A1A4F
:105A3000184602F095FB1CE000EB8104A268B2421C
:105A400001D0012200E00022E368AB4201D0012333
:105A500000E000231A430CD0236943B150F8210021
:105A6000816840686A1A311A184602F01EFAC4E9C1
:105A70000265BDE8704003F01FBA0000A49F01203A
:105A800002480068407C00F003B80000CC0700200A
:105A900010B5044601F0F2FA0A4804EB840100EB69
:105AA000810301221A7150F8210030B120461DF007
:105AB00019FDBDE8104003F0FFB921460248FFF789
:105AC00033FFF6E7A49F01205430070810B5C2B297
:105AD000CBB2D21A00D5524293B25B43C0F3072235
