:020000040800F2
:1000000030DE01205503000831440008673F000836
:100010002D440008CD1C00084D56000800000000CB
:100020000000000000000000000000009502000831
:10003000D11C000800000000F1020008C9510008AE
:1000400079030008790300087903000879030008A0
:100050007903000879030008790300087903000890
:100060007903000879030008790300087903000880
:100070007903000879030008790300087903000870
:100080007903000879030008790300087903000860
:100090007903000879030008790300087903000850
:1000A0007903000879030008790300087903000840
:1000B0007903000879030008790300087903000830
:1000C0007903000879030008790300087903000820
:1000D00079030008FD55000879030008790300083A
:1000E0007903000879030008790300087903000800
:1000F00079030008790300087903000879030008F0
:1001000079030008790300087903000879030008DF
:100110007903000879030008F15100087903000809
:1001200079030008790300087903000879030008BF
:1001300079030008790300087903000879030008AF
:10014000790300087903000879030008790300089F
:10015000790300087903000879030008790300088F
:10016000790300087903000879030008790300087F
:1001700079030008790300087903000800000000F3
:10018000790300087903000800F002F800F072F823
:100190000AA090E8000C82448344AAF10107DA45E2
:1001A00001D100F067F8AFF2090EBAE80F0013F0C2
:1001B000010F18BFFB1A43F001031847F04A07006C
:1001C000104B07000A444FF0000C10F8013B13F0ED
:1001D000070408BF10F8014B1D1108BF10F8015BA0
:1001E000641E05D010F8016B641E01F8016BF9D193
:1001F00013F0080F1EBF10F8014BAD1C0C1B09D1EA
:100200006D1E58BF01F801CBFAD505E014F8016B5B
:1002100001F8016B6D1EF9D59142D6D370470000ED
:100220000023002400250026103A28BF78C1FBD8FF
:10023000520728BF30C148BF0B607047662902F0E3
:10024000E6A1642900F09281782900F0CB8173291E
:1002500000F01187002070471FB542F0D3F900F07D
:1002600021FF04000020002141F07EFEE0601FBD60
:1002700010B510BD00F0D4FF1146FFF7EDFF36F0CA
:100280000BFE00F0F2FF03B4FFF7F2FF03BC07F030
:100290002FFB00002C4B19680868B0E8F04F80F382
:1002A0000988BFF36F8F4FF0000080F3118870470B
:1002B0000000000008480068006880F308884FF0DC
:1002C000000080F3148862B661B6BFF34F8FBFF3AE
:1002D0006F8F00DF00BF00BF08ED00E0DFF80C000B
:1002E000016841F470010160704700BF88ED00E0D3
:1002F000EFF30980BFF36F8F134B1A681EF0100FD6
:1003000008BF20ED108A20E9F04F106009B44FF0CB
:10031000500080F31188BFF34F8FBFF36F8F40F011
:10032000D9FD4FF0000080F3118809BC19680868F6
:10033000B0E8F04F1EF0100F08BFB0EC108A80F349
:100340000988BFF36F8F7047A4000020EFF305808A
:10035000704700000C48016841F4700101600B48CF
:1003600080470B480047FEE7FEE7FEE7FEE7FEE7B3
:10037000FEE7FEE7FEE7FEE7FEE700000548064968
:10038000044A064B7047000088ED00E0DD5100088C
:100390008901000830CE012030DE012030CE01205E
:1003A000704753EA020C00F069802DE9F04B4FF0E2
:1003B0000006002B1FBFB3FA83F503FA05F424FAF5
:1003C00005F65E4012BF1643B2FA82F502FA05F452
:1003D000C5F120051EBF22FA05FC44EA0C042035B5
:1003E00056EA044C4FEA144418BF641C4FF000084E
:1003F0004FF00009904271EB030C39D3002919BF6B
:10040000B1FA81F701FA07F6B0FA80F700FA07F6B9
:10041000C7F120071EBF20FA07FC46EA0C0620376A
:10042000B6FBF4FCA7EB0507103F07F01F0BCBF161
:1004300020060CFA0BFB2CFA06F644BFB346002646
:10044000202FA4BF5E464FF0000B5BEA060C08BFEE
:100450004FF0010B19EB0B09ABFB027C48EB0608D4
:10046000C01B06FB02CC0BFB03CC71EB0C01C1E7FC
:100470000B46024641464846BDE8F08B13B54FF0A7
:1004800000004FF00001AFF30080BDE81C40704752
:1004900010B54C1084EA530404D54042C1F1000168
:1004A00038BF491E1B4204D55242C3F1000338BF76
:1004B0005B1EFFF776FF14F0804F04D04042C1F17D
:1004C000000138BF491E14F0004F04D05242C3F15E
:1004D000000338BF5B1E10BD0FB4044910B503AA5A
:1004E000029800F0CDFD10BC5DF814FB1400002054
:1004F0000FB41CB5074B06AA7B44694600900598CB
:1005000000F08FFD0020694600F09EFD1CBC5DF8E8
:1005100014FB00004D0B000070B50C460546012A87
:1005200005D02878800600D5EA69002302E001237F
:1005300005E05B1C934202D2E05C0028F9D1A86977
:10054000E618C01AA861286A184428622846AFF342
:10055000008004E0D5E9012114F8010B9047B44272
:10056000F8D32846AFF3008070BD00002DE9F041BC
:100570000646002410687529314616A510D0AFF341
:100580000080002802DA404213A507E031688A079C
:1005900001D512A502E0490704D511A5012401E007
:1005A000AFF3008000210A2206F1240709E0B0FB26
:1005B000F2FCB0FBF2F302FB1C003030785418461A
:1005C000491C0028F3D123462A463046BDE8F041B5
:1005D00000F0B9BA000000002D0000002B00000060
:1005E0002000000070B504460D4621461068AFF3A8
:1005F00000802188090502D50F4A7A4402E00E4A9C
:100600007A440E32002104F1240305E000F00F06C5
:100610000009965D5E54491C0028F7D1207800231C
:10062000000704D5702D02D009B1022311322046F3
:10063000BDE8704000F087BA404007002DE9F05F48
:10064000894604464FF0000ADFF874B1FB44C0F855
:1006500020A02046E1688847002874D0252806D0CD
:10066000D4E901219047206A401C2062F1E700266E
:100670005F462046E16888472028054607DB312D84
:1006800005D2781910F8200C08B10643F1E7B0073D
:1006900001D526F00406C4F81CA00027C4F818A051
:1006A0002A2D09D0284605F025F838B304EB870831
:1006B000303DC8F8185019E059F8041B204604EBE7
:1006C00087029161E1688847012F054618D1E069EA
:1006D000002820DA26F020061DE0D8F8180000EBEC
:1006E000800005EB40003038C8F818002046E1686B
:1006F0008847054604F0FEFF0028EED1012F0AD0FE
:100700002E2D08D12046E16888477F1C0546022F20
:1007100046F02006C4DBA069002803DA404246F018
:100720000106A061F00701D026F010066C2D0BD059
:10073000682D09D04C2D39D06A2D35D0742D35D087
:100740007A2D33D016E038E0E1682F4620468847FE
:10075000B842054609D16C2F26D04FF48060E1687D
:10076000064320468847054604E06C2F1AD04FF414
:10077000807006430DB3A5F14100192802D8203539
:1007800046F400664A462946204626604E46FFF754
:1007900055FD80B101280BD0F61D26F0070000F1B1
:1007A000080956E74020E4E78020D8E70020D6E794
:1007B00006F104094DE7284652E7206ABDE8F09F9C
:1007C0001640070040EA010310B59B070FD1042A29
:1007D0000DD310C808C9121F9C42F8D020BA19BA0C
:1007E000884201D9012010BD4FF0FF3010BD1AB171
:1007F000D30703D0521C07E0002010BD10F8013BC6
:1008000011F8014B1B1B07D110F8013B11F8014BEC
:100810001B1B01D1921EF1D1184610BD40EA010305
:10082000024630B59B0710D14FF0013400E008C2FA
:1008300008C91D1B9D4315EAC41FF8D013F0FF0122
:1008400002F8011B0DD01B0AF8E711F8013B002B41
:1008500002F8013B05D011F8013B002B02F8013BE7
:10086000F3D130BD10B5431C02E010F8011B71B18B
:100870008107FAD14FF0013202C88C1A8C4314EA76
:10088000C211F9D0C01A0A0603D0C01E10BDC01A8A
:1008900010BD0A0401D0801E10BD0902FCD0401E0C
:1008A00010BD032A40F2308010F0030C00F01580D8
:1008B00011F8013BBCF1020F624498BF11F801CB63
:1008C00000F8013B38BF11F8013BA2F1040298BFC8
:1008D00000F801CB38BF00F8013B11F0030300F032
:1008E0002580083AC0F0088051F8043B083A51F8D6
:1008F00004CBA0E80810F5E7121D5CBF51F8043BDB
:1009000040F8043BAFF30080D20724BF11F8013B4D
:1009100011F801CB48BF11F8012B24BF00F8013BAF
:1009200000F801CB48BF00F8012B704710B5203A02
:10093000C0F00B80B1E81850203AA0E81850B1E898
:100940001850A0E81850BFF4F5AF5FEA027C24BF4E
:10095000B1E81850A0E8185044BF18C918C0BDE845
:1009600010405FEA827C24BF51F8043B40F8043B0E
:1009700008BF7047D20728BF31F8023B48BF11F8C3
:10098000012B28BF20F8023B48BF00F8012B70471D
:1009900002F0FF0343EA032242EA024200F002B8F7
:1009A0004FF000020429C0F0128010F0030C00F098
:1009B0001B80CCF1040CBCF1020F18BF00F8012B16
:1009C000A8BF20F8022BA1EB0C0100F00DB85FEAE4
:1009D000C17C24BF00F8012B00F8012B48BF00F8B0
:1009E000012B70474FF0000200B51346944696461F
:1009F000203922BFA0E80C50A0E80C50B1F1200132
:100A0000BFF4F7AF090728BFA0E80C5048BF0CC0DF
:100A10005DF804EB890028BF40F8042B08BF70473D
:100A200048BF20F8022B11F0804F18BF00F8012BAF
:100A3000704700004FF0013C50F8042B51F8043B84
:100A40009A4221D1A2EB0C03934313EACC1317D1A2
:100A500050F8042B51F8043B9A4215D1A2EB0C0339
:100A6000934313EACC130BD150F8042B51F8043BF9
:100A70009A4209D1A2EB0C03934313EACC13DBD0C7
:100A80004FF00000704700BFD01A01BAB1FA81F1EF
:100A900001F0180122FA01F0CB40C1F12001DBB2D4
:100AA000C0B2C01A2CFA01F3D11A914311EAC31152
:100AB000E6D17047704770477047704730B5B0F166
:100AC0000A024FEA900E71F100034EEA817EB0EB0C
:100AD0000E0061EB91014FEA101E4EEA017E10EB11
:100AE0000E0041EB11114FEA102E4EEA016E10EB91
:100AF0000E0041EB11214FEA104E4EEA014E10EB71
:100B00000E0041EB1141401841F100014FEAD000C5
:100B100040EA41704FEAD10110EB80054FEA8104B1
:100B200044EA907444EB01046D1944EB0404521B35
:100B3000A3414FF0000348BF0A3200D530BD401C2E
:100B400041F1000130BD2DE9F0470D46994692462E
:100B5000044600F124080168880604D5E06921F004
:100B60001001216000E00120A84201DD471B00E0E8
:100B70000027A1697A1902EB0900081AA061207800
:100B8000C00602D42046AFF30080002608E0D4E976
:100B900001211AF806009047206A401C761C20624A
:100BA0004E45F4DB2078C0060AD52046AFF300801E
:100BB00006E0D4E9012130209047206A401C2062E1
:100BC000381EA7F10107F4DC07E0D4E9012118F889
:100BD00005009047206A401C2062281EA5F10105EF
:100BE000F3DC2046AFF300802078000602D5022017
:100BF000BDE8F0870120FBE770472DE9FF4F0C4669
:100C00001E464FF0FF378BB0D2E90001DDF860805F
:100C10000A908A46C1F30A5505B93D4600210846A7
:100C20004FF00000BAF1000F00F4400005DA00EBCD
:100C300080004FF4400101EA50004FEA9059B9F1A9
:100C4000010F00DDB9460A9850EA4A000ED044F67A
:100C50001050A5F2FF3545432F14B8F1000F1ED0F8
:100C60007542291E1EDDC9F100021CE0B8F1010F1A
:100C70004FF0000001D0302103E0F24305E02154A1
:100C8000401CB042FBDB30460022002121540B996E
:100C9000C1F80880C1E900200FB0BDE8F08FBD1B8E
:100CA0006D1CDEE74A4600DA694206A800F03EFA0B
:100CB00006AB93E8070003AB83E8070050460A99A8
:100CC00000F0DCFA8DE80700A0F500501F38009016
:100CD0000398002D0ADD42F21F014A460844002312
:100CE00003A90390684600F045FD09E0A0F5005017
:100CF0004A461F38002303A90390684600F04FFDC1
:100D00008DE807000004000C03D04FF0FF304108CD
:100D100000E01046B8F1000F03D000220092154603
:100D20001EE0751E05D4FFF7C9FE303262556D1EF8
:100D3000F9D5B3460122084302D000227F1C04E00B
:100D40002078302801D100227F1E002A099784D004
:100D50001DE0112D07DAFFF7B1FE303262556D1C30
:100D600050EA0102F5D1084302D00098C8B10EE064
:100D70000021681E05E0235C625C63542254401E1F
:100D8000491C8142F7DBAB46A81B401E099000209E
:100D900004F80B000B98099AC0F80880C0E9002BF2
:100DA0007AE711264FF0000857E72DE9F04F884603
:100DB0000446D21D22F0070191B0D1E90001CDE92E
:100DC0000A0104F045FC02460B98C00F01D02D200B
:100DD00007E02068810701D52B2002E0202101EAED
:100DE000C000032A099001D0072A05DB03464146CB
:100DF000204600F05BF90BE12078800601D5E06920
:100E000000E00620B8F1650F814606D0B8F1660F04
:100E100018D0B8F1670F70D131E00020B9F1110F8F
:100E2000009001DB112301E009F101030AAA01A9E5
:100E30000CA8FFF7E2FEDDE90C70002609F10105C0
:100E4000834647E001204B4600904FF000470AAA36
:100E500001A90CA8FFF7D1FEDDE90DB00C995D46A4
:100E6000002610B909F101000D18B9EB050003D4F3
:100E7000C0F1FF3609F10105A5EB09002BE0B9F13E
:100E8000010F01DA4FF001090020B9F1110F0090B4
:100E9000484601DD112300E003460AAA01A90CA877
:100EA000FFF7ABFEDDE90C704D4600268346207847
:100EB00000070AD4AB4500DA5D4601A8012D04DD28
:100EC000411911F8011C302907D04F4502DA17F1FA
:100ED000040F04DA012082460FE06D1EEEE7002FBA
:100EE00002DCED1B3E4403E0781CA84200DD7D1CC3
:100EF000B81B00F1010A4FF000472078000703D427
:100F0000AA4501DB4FF0FF3A0021B7F1004F0DF188
:100F100043088DF8431024D002202B23002F01DA40
:100F20007F422D230A21021EA0F1010000DC5FB1E7
:100F300097FBF1FC97FBF1F201FB1C7C17460CF1CF
:100F4000300C08F801CDEEE7A8F10100037021880C
:100F5000090501D5452100E06521A0F1010800F84F
:100F6000011C09980FA9A1EB0807FF1D00B1012082
:100F7000411901EBEA70A1693844081A401EA061CA
:100F80002078C00602D42046AFF30080099828B12B
:100F9000D4E901219047206A401C20622078C006D5
:100FA00022D52046AFF300801EE0002E04DBB345BF
:100FB00002DD01A8805D00E03020D4E901219047E6
:100FC000206A401C2062761CAAF101005FEA000A38
:100FD0000AD100F067F8C0680168405CD4E90121DB
:100FE0009047206A401C2062281EA5F10105DCDC28
:100FF00007E0D4E9012118F8010B9047206A401C52
:101000002062381EA7F10107F3DC2046AFF3008011
:10101000032011B041E6000001694A1C0261087812
:10102000704700B58FB0CDE9013100210591054928
:101030007944CDE9031011466846FFF7FFFA0FB077
:1010400000BD0000E5FFFFFF0A6802F8010B0A601F
:10105000704710B5436913B1AFF3008001E0FFF7AB
:101060005BFA012010BD127800F124010A70002201
:101070004A700122EDE711684FF0FF32E9E7000006
:10108000074B70B50D467B44FFF7CBFF044628465F
:1010900000F0BEF810B14FF0FF3070BD204670BDBB
:1010A000475F010000487047F0CD01202DE9F04175
:1010B0001F46044603260168072A01F4006004DB8A
:1010C00008B116A505E016A503E008B115A500E0D6
:1010D00015A521F010002060A069C01EA0610FB10D
:1010E000401EA0612046AFF300804FB1D4E901213A
:1010F00038469047206A401C2062C01C206206E0EF
:10110000206AFAE7D4E9012115F8010B9047761E11
:10111000F8D22046AFF30080BDE8F0814E414E008A
:101120006E616E00494E4600696E66002DE9F0471B
:10113000814616468AB0354878440DC88DE80D00C2
:1011400032487844801C03AC0DC884E80D0041F699
:101150009B300844372190FBF1F290FBF1F5A5F1AB
:10116000800501FB12041B3C02D56442012000E013
:101170000020DFF898A080460027FA44AAF1BE0AB2
:101180000EE0E0070AD03246684607EB470101232C
:101190000AEB810100F003FB8DE8070064107F1C5F
:1011A000002CEED1194F7F44AE3F19E0E80715D06F
:1011B00007EB04100DF1180A90E80E008AE80E0003
:1011C000C068F04201D1981908903246012306A95F
:1011D00003A800F0E4FA03AB83E807006D10641C79
:1011E000002DE3D14FF0010332466946B8F1000FFC
:1011F00003A802D000F0BEFA01E000F0D0FAC9E97D
:101200000001C9F808200AB0BDE8F087B83507002A
:10121000007B00F08000704700487047D0CD01206F
:101220007546FFF7F9FFAE4605006946534620F0C4
:101230000700854618B020B5FFF7A0F8BDE82040AC
:101240004FF000064FF000074FF000084FF0000B82
:1012500021F00701AC46ACE8C009ACE8C009ACE835
:10126000C009ACE8C0098D46704710B50446AFF31D
:1012700000802046BDE81040FFF705B85FEA400C4B
:1012800008BF91F0000F4FEA8C234FEAC12243EAD6
:1012900051514FEA1C5018BF00F5F0404FEA3000A2
:1012A00018BF41F000415FEA6C5C00F02980BCF19E
:1012B000FF3F08BF40F080407047130C06BF120488
:1012C0004FF0100C4FF0000C130E04BF12020CF183
:1012D000080C130F04BF12010CF1040C930F04BF90
:1012E00092000CF1020CD30F04BF52000CF1010C60
:1012F00011464FF00002A0F11F00A0EB0C00704758
:1013000011F0004F08BF704731F000413FF4D5AFF6
:101310000B0C06BF09044FF0100C4FF0000C0B0E25
:1013200004BF09020CF1080C0B0F04BF09010CF1FA
:10133000040C8B0F04BF89000CF1020CCB0F04BF0F
:1013400049000CF1010CCCF12003A0EB0C0022FAB7
:1013500003F302FA0CF241EA030100F101007047C5
:1013600020F07F4C80EA030023F07F47ACEB0703BB
:1013700003F57C5300F0004003F1FF032DE98049A1
:101380004FEA154B09B44FEA144325EA0B4E24EA01
:1013900003480FF2042606EB132749083E785FEA5C
:1013A000320203FB0667C7F5000707FB06F64FEAA4
:1013B00054374FEAD64606F1020607FB066CCCF11D
:1013C000005C4FEA1C472CEA074C07FB06F40CFBB9
:1013D00006F504EB15464FEA961634BF00204FF091
:1013E00000404FEAD13706FB07FC4FEA1C4C0CFBD0
:1013F0000BF7D21B03FB0CF761EB07010CFB0EF79D
:10140000B0EB074072EB17420CFB08F734BFA2EBBE
:101410000742B2EB074261EB17414FEA0C444FEA37
:10142000910706FB07FC4FEA1C4C0CFB0BF7B0EBDB
:10143000C74072EB573203FB0CF734BFA2EBC74235
:10144000B2EBC74261EB57310CFB0EF7B0EBC700B4
:1014500072EB57720CFB08F734BFA2EBC702B2EB7A
:10146000C70261EB5771039F4FEA816141EA921114
:1014700004EBCC044FEAD1374FEA826206FB07FC4B
:1014800042EA90124FEA80604FEA1C4C0CFB0BF7CB
:10149000D21B03FB0CF761EB07010CFB0EF7B0EB63
:1014A000074072EB17420CFB08F734BFA2EB074270
:1014B000B2EB074261EB17414FEA8C554FEA9107B7
:1014C00004EB9C2406FB07FC4FEA1C4C0CFB0BF7BF
:1014D000B0EBC74072EB573203FB0CF734BFA2EB03
:1014E000C742B2EBC74261EB57310CFB0EF7B0EBD2
:1014F000C70072EB57720CFB08F734BFA2EBC702B0
:10150000B2EBC70261EB577115EB4C254FEA8161D5
:1015100041EA92114FEA82624FEAD13742EA9012D1
:1015200006FB07FC44F100044FEA80604FEA1C4CC4
:101530000CFB0BF7D21B03FB0CF761EB07010CFB59
:101540000EF7B0EB074072EB17420CFB08F734BF05
:10155000A2EB0742B2EB074261EB174115EB1C15FA
:101560004FEA813141EA92414FEA823242EA9042A7
:101570004FEA80304FEA0C7644F1000448EA034316
:101580004EEA0B484FF0000EB2EB080C71EB03076C
:1015900024BF624639464EEB0E0E4FF0000B00188A
:1015A000524149414BEB0B0BB2EB080C71EB0307BB
:1015B0007BF1000B24BF624639464EEB0E0E4FF016
:1015C000000B0018524149414BEB0B0BB2EB080CDE
:1015D00071EB03077BF1000B24BF624639464EEBEB
:1015E0000E0E51EA020718BF46F0010616EB0E7602
:1015F00055F1000254F1000103D5BDE88901BDE8B1
:101600000088BDE88901BDE80048B619524141EBA8
:101610000101A3F10103704780807F7E7D7C7B7A8E
:101620007978777676757473727171706F6E6E6D8E
:101630006C6C6B6A6A696868676666656464636334
:1016400062616160605F5F5E5E5D5D5C5C5B5B5ABA
:101650005A59595858575756565555555454535327
:1016600052525251515050504F4F4F4E4E4D4D4D82
:101670004C4C4C4B4B4B4A4A4A49494948484847CD
:10168000474747464646454545444444444343430B
:101690004342424242414141002B9C4630D47700B4
:1016A0002BD01CB54FEA370703B44FF010004FF0B2
:1016B0001001BAF1000F06D0BCF1000FDCBF40F002
:1016C000080040F008014FF000000FBCBDE81040DA
:1016D0000BF1010BBBF1010F08BF5FEA170722BF37
:1016E00012F1010211F101014FF0004143F1000339
:1016F00000F0004043EA00007047F9D35708D0E7F4
:1017000046EA064613F1400F4FEA16461FDD13F175
:10171000200FDFBF16430A46002120335B42BED0B4
:10172000C3F1200746EA064602FA07F74FEA1646D3
:1017300046EA0706C3F1200722FA03F201FA07F787
:1017400021FA03F14FF0000342EA0702A7E746EA55
:10175000020646EA06464FEA164646EA0106BCBFBE
:1017600046EA0646360C4FF000034FF000024FF0F9
:10177000000194E72DE9804C9A46934670B491E8B5
:10178000380007C831EA400C48BF34EA430C03D59F
:10179000FFF7E6FDFFF780FFF0BCBDE8008C2DE908
:1017A000804C9A46934670B491E8380007C810F010
:1017B000804F08BF13F0804F03D100F005F8FFF70A
:1017C0006BFFF0BCBDE8008C20F07F4780EA03008F
:1017D00023F07F4C07EB0C03A3F57C5300F0004093
:1017E000A3F1FE0392F0000F00F0B38095F0000F1C
:1017F00000F077802DE901494FEA11404FEA144685
:1018000021EA004800FB06FC24EA064708FB06F62E
:1018100007FB08F800FB07F718EB06484CEB164CE3
:101820004FEA124B18EB07484FEA15464CEB1740AE
:1018300022EA0B4E0BFB06FC25EA06470EFB06F6DA
:1018400007FB0EFE0BFB07F71EEB064E4CEB164C90
:101850004FF000061EEB074E4CEB174B18EB0B0836
:1018600040F1000018EB0E0B58EB000840F10000AF
:101870008F1A4FF000013CBFC943661B14BFB5EB84
:10188000040C00213CBFC943F61B4FEA17444EEA43
:101890008E0E27EA04454FEA1C4704FB07622CEA38
:1018A000074C05FB07F70CFB05F604FB0CFC16EBDD
:1018B000074642EB174216EB0C4642EB1C421BEB71
:1018C000060658EB0202414146EA9E0601D5BDE8F4
:1018D0000189B619524141EB0101A3F10103BDE8B1
:1018E00001894FEA14454FEA114724EA054621EAE7
:1018F000074C05FB07F406FB07F70CFB06F105FB9D
:101900000CFC11EB074144EB17444FEA124711EB73
:101910000C4144EB1C4422EA074C05FB07F206FB92
:1019200007F70CFB06F605FB0CFC16EB074642EB33
:10193000174216EB0C4642EB1C456A1854F10001A5
:1019400048BF7047B619524141EB0101A3F10103B1
:10195000704795F0000F37D04FEA11424FEA144715
:1019600021EA024624EA074C02FB07F106FB07F7CF
:101970000CFB06F402FB0CFC14EB074441EB174193
:101980004FEA154714EB0C4441EB1C4125EA074C88
:1019900002FB07F506FB07F70CFB06F602FB0CFC47
:1019A00016EB074645EB174516EB0C4645EB1C427C
:1019B000121951F1000148BF7047B619524141EB6D
:1019C0000101A3F1010370474FEA14454FEA1147A3
:1019D00024EA054621EA074C05FB07F106FB07F759
:1019E0000CFB06F24FF0000605FB0CFC12EB074265
:1019F00041EB174112EB0C4251EB1C4148BF7047C1
:101A0000921841EB0101A3F1010370472DE9FF4F4B
:101A1000ABB081468A461646389D05A92E980DAB77
:101A200015AACDE90016CDE902051DA924A800F0EC
:101A3000A7F8082D48D3002443E0EB08002139E043
:101A4000002031E00DF1140858F824800DF1900BBE
:101A50005BF824B001FB0B0B0BFB0387DFF8108155
:101A600058F82480DFF80CB15BF824B001FB0B8838
:101A7000DFF804B15BF824B008FB06B8DFF8FCB06F
:101A80005BF824B000FB0B8808FB03FC002208E095
:101A900007EB02081AF808800CEB020B09F80B8020
:101AA000521C9A42F4D3401C24AF57F8247087424A
:101AB000C8D8491C1DAF57F824708F42C0D8601C8D
:101AC0000446072CB9D150E000244CE024A850F87B
:101AD00024006843049005FB06F003904FF00008D3
:101AE0003BE0002732E0049808FB00F007FB05000C
:101AF00005A951F82410082202FB010001901C489E
:101B000050F824001B4951F8241008FB01000399E8
:101B10004843194951F82410184A52F8242007FB69
:101B2000021101FB050002904FF0000B0BE0514643
:101B300001A837F0C3FE0090494602A8009A39F088
:101B400015FD0BF1010BAB45F1D37F1C24A850F818
:101B50002400B842C7D808F101081DA850F8240095
:101B60004045BED8641C072CB0D12FB0BDE8F08F23
:101B7000CC990408049A0408B0990408E899040868
:101B80002DE9F0470446DDE9097C0B9E089D002005
:101B90003CE0DFF8288158F82080B844DFF8209135
:101BA00059F82090A8EB0908A8F10108DFF80C917A
:101BB00059F82090B8FBF9F844F82080DFF8048148
:101BC00058F82080E044DFF8009159F82090A8EB05
:101BD0000908A8F10108DFF8EC9059F82090B8FB4B
:101BE000F9F841F8208054F82080B8F1000F03D1B3
:101BF0004FF0000841F8208051F82080B8F1000F24
:101C000003D14FF0000844F82080401C0728C0D1C1
:101C10004FF00008C5F80080C3F80080C2F80080CB
:101C2000002046E054F82080B8F1000F13D051F89E
:101C30002080B8F1000F0ED051F8209054F8208089
:101C400008FB06F808F107084FF0010A0AEBD8086C
:101C500009FB08F801E04FF0000852F82090C14459
:101C600000F1010842F8289053F8209051F820A084
:101C700054F8208008FB06F808F107084FEAD80856
:101C80000AFB089900F1010843F8289051F82080D8
:101C900054F8209008FB09F808FB06F808F107083B
:101CA00055F8209009EBD80900F1010845F8289073
:101CB000401C0728B6D1BDE8F0870000E899040869
:101CC000B0990408049A0408CC99040800BFFEE700
:101CD0007047000070B504461D460023B5F5804FDF
:101CE00013D154F822300C480340D1E9000640EAF1
:101CF00006108E6840EA06208E8940EA06408E690A
:101D00003043034344F8223003E06FF0704044F85E
:101D10002200002070BD00000000F0CF10B5034687
:101D20000022086853F8202012480240D1E901043B
:101D30002043CC6820430C6920434C6920438C69C4
:101D40002043CC6920430C6A20434C6A20438C6AB0
:101D50002043CC6A2043CC6B20430C6B20430243CE
:101D60008868082801D142F04002086843F8202022
:101D7000002010BD8000F0FF30B503460024501C49
:101D800053F8204004F04044D1E9000540EA051032
:101D90008D6840EA05208D8940EA0545088A401E85
:101DA00045EA0055087D801E45EA00608D6928439C
:101DB0000443501C43F82040002030BD70B5044659
:101DC000A56D00F099F9064694F83500022808D070
:101DD0008020606500BF002084F8340000BF01202F
:101DE00070BD2068006820F0160021680860206837
:101DF000406920F0800021684861206C08B9A06C1F
:101E000028B12068006820F0080021680860206878
:101E1000006820F00100216808600FE000F06CF914
:101E2000801B05280AD92020606500BF002084F8A7
:101E3000340000BF032084F83500D1E72068006833
:101E400000F001000028E9D194F85C103F208840A0
:101E5000A86000BF002084F8340000BF012084F88F
:101E600035000020BCE7014691F83500022803D078
:101E70008020486501207047052081F835000868FA
:101E8000006820F001000A6810600020F3E70000FD
:101E900070B5044600F030F906462546681C10B1BE
:101EA00004480078054400BF00F026F9801BA842D2
:101EB000FAD370BD24000020F8B502460B46002579
:101EC000002400200021DEE0012606FA01F51E684C
:101ED00006EA0504AC4275D11E7906F00306012E10
:101EE00004D01E7906F00306022E13D190684F002D
:101EF0000326BE40B0434F00DE68BE4030439060D2
:101F0000506801268E40B0431E79C6F300168E40FD
:101F1000304350601E7906F00306032E09D0D068C6
:101F20004F000326BE40B0434F009E68BE40304382
:101F3000D0601E7906F00306022E13D1CF0802F1FD
:101F4000200656F827004E07F70E0F26BE40B04376
:101F50004F07FF0E1E69BE403043CF0802F1200636
:101F600046F8270010684F000326BE40B0431E7994
:101F700006F003064F00BE40304310605E6806F076
:101F80008056B6F1805F7DD100BF00260096404E9E
:101F9000366846F480463E4F3E603E46366806F45C
:101FA0008046009600BF00BF3A4E8F0856F82700C3
:101FB0008E07370F0F26BE40B043374EB24202D1D4
:101FC000002624E05EE0354EB24201D101261EE03B
:101FD000334EB24201D1022619E0324EB24201D153
:101FE000032614E0304EB24201D104260FE02F4EFA
:101FF000B24201D105260AE02D4EB24201D1062699
:1020000005E02C4EB24201D1072600E008268F07DA
:102010003F0FBE4030431F4E8F0846F82700264E24
:102020003068A0435E6806F48036B6F5803F00D184
:102030002043214E3060361D3068A0435E6806F4B0
:102040000036B6F5003F00D120431B4E361D3060F0
:10205000361D3068A0435E6806F48016B6F5801F12
:1020600000D12043144E08363060361D3068A0433E
:102070005E6806F40016B6F5001F00D120430E4E30
:102080000C363060491C1029FFF41EAFF8BD00006B
:102090004438024008380140000002400004024079
:1020A00000080240000C02400010024000140240F0
:1020B00000180240001C0240003C01400246136927
:1020C0000B400BB1012000E00020704710B54269C1
:1020D00021EA020302EA010443EA0443836110BDDA
:1020E0000AB1816101E00B04836170470148006817
:1020F000000C7047002004E00148006870470000B1
:102100001C0000200348006803490978084401497D
:10211000086070471C0000202400002010B50A4809
:10212000006840F40070084908600846006840F400
:1021300080600860032000F07FF80F2000F006F8B0
:1021400000F02AF8002010BD003C024070B50446A3
:102150000E4800784FF47A71B1FBF0F00C49096831
:10216000B1FBF0F5284601F0D7FB08B1012070BDA6
:10217000102C07D200222146501E00F01EF8054800
:10218000046001E00120F2E70020F0E724000020D5
:10219000000000202000002070470146084600286B
:1021A00009DB00F01F0301229A4043099B0003F161
:1021B000E023C3F8002100BF70472DE9F05F80469F
:1021C0000D461646002703F05BFA074639462A46B5
:1021D000334601F00700C0F1070ABAF1040F02D933
:1021E0004FF0040A01E0C0F1070AD14600F1040AE9
:1021F000BAF1070F02D24FF0000A01E0A0F1030A82
:10220000D4464FF0010A0AFA09FAAAF1010A0AEAC9
:10221000020A0AFA0CFA4FF0010B0BFA0CFBABF1B5
:10222000010B0BEA030B4AEA0B042146404603F07C
:102230002FFABDE8F09F000000BF00F00702064B38
:1022400019684FF6FF031940044B0B4343EA022180
:10225000014B196000BF70470CED00E00000FA056B
:1022600070B504460D460CB9012070BD5848006891
:1022700000F00700A84209D255490D7008460068D1
:1022800000F00700A84201D00120EEE7207800F01E
:10229000020002281DD1207800F00400042805D196
:1022A0004C48006840F4E0504A490860207800F04B
:1022B0000800082805D14748006840F460404549B7
:1022C00008604448006820F0F000A16808434149D4
:1022D0000860207800F00100A8B36068012807D1E9
:1022E0003C4808380068C0F34040B8B90120BCE75A
:1022F0006068022802D06068032807D13548083892
:102300000068C0F3406048B90120AEE731480838A2
:102310000068C0F3400008B90120A6E72D48006816
:1023200020F00300616808432A490860FFF7E4FED3
:10233000064609E0FFF7E0FE801B41F28831884243
:1023400002D9032091E707E02248006800F00C0062
:102350006168B0EB810FEDD11D48006800F0070007
:10236000A84209D91A490D700846006800F0070014
:10237000A84201D0012078E7207800F0040004286A
:1023800007D11448006820F4E050E168084311497F
:102390000860207800F00800082808D10D4800687F
:1023A00020F46040216940EAC1000A49086000F059
:1023B0003FF808490968C1F30311074A515CC84056
:1023C0000649086006480068FFF7C0FE00204CE799
:1023D000003C024008380240122604080000002099
:1023E0002000002001480068704700000000002025
:1023F00000B5FFF7F7FF04490968C1F38221034ADA
:10240000515CC84000BD0000083802402226040884
:1024100000B5FFF7E7FF04490968C1F34231034AF9
:10242000515CC84000BD0000083802402226040864
:102430002DE9F047002400250026A1462548006824
:1024400000F00C0020B1042805D008283AD105E09E
:10245000DFF8849039E0DFF8849036E01D48001FF3
:10246000006800F03F041B48001F006800F4800073
:1024700078B11A481749091F0968C1F38811A0FBF0
:1024800001700146224600233846FDF78AFF0546C3
:102490000EE011480F49091F0968C1F38811A0FB1C
:1024A00001700146224600233846FDF77AFF0546B3
:1024B0000848001F0068C0F30140401C4600B5FBFF
:1024C000F6F902E0DFF8109000BF00BF4846BDE813
:1024D000F0870000083802400024F40000127A005F
:1024E000F8B504460CB90120F8BD207800F00100D1
:1024F000002874D0F948006800F00C0004280DD0C2
:10250000F648006800F00C00082813D1F348001FBB
:10251000006800F48000B0F5800F0BD1EF48083858
:102520000068C0F34040002859D06068002856D1A8
:102530000120D9E700BF6068B0F5803F08D1E748C7
:102540000838006840F48030E449083908601EE02B
:102550006068B0F5A02F0DD1E0480838006840F45D
:102560008020DE49083908600846006840F4803061
:1025700008600CE0D9480838006820F48030D7495A
:10258000083908600846006820F48020086000BF11
:10259000606890B1FFF7B0FD054606E0FFF7ACFDBF
:1025A000401B642801D903209EE7CC480838006806
:1025B000C0F340400028F1D011E0FFF79DFD054633
:1025C00006E0FFF799FD401B642801D903208BE743
:1025D000C24808380068C0F340400028F1D1207894
:1025E00000F0020002285FD1BC48006800F00C0037
:1025F00058B1BA48006800F00C0008281CD1B74850
:10260000001F006800F48000B0B9B44808380068C2
:10261000C0F3400020B1E068012801D0012063E749
:10262000AE480838006820F0F800216940EAC1008F
:10263000AA490839086037E0E06800B30120A849DA
:102640000860FFF759FD054606E0FFF755FD401B02
:10265000022801D9032047E7A04808380068C0F3E2
:1026600040000028F1D09D480838006820F0F800AC
:10267000216940EAC10099490839086014E0002046
:1026800097490860FFF738FD054606E0FFF734FD7F
:10269000401B022801D9032026E79048083800682B
:1026A000C0F340000028F1D1207800F0080008288D
:1026B0002CD16069A8B101208A490860FFF71CFD90
:1026C000054606E0FFF718FD401B022801D903204C
:1026D0000AE782486C300068C0F340000028F1D05F
:1026E00014E000207F490860FFF706FD054606E07C
:1026F000FFF702FD401B022801D90320F4E67748CA
:102700006C300068C0F340000028F1D1207800F060
:102710000400042870D1002770483830006800F0A9
:10272000805090B900BF002000906C48383000689D
:1027300040F080506949383108600846006800F070
:102740008050009000BF00BF01276748006800F478
:102750008070B0B96448006840F4807062490860D5
:10276000FFF7CAFC054606E0FFF7C6FC401B02283F
:1027700001D90320B8E65C48006800F480700028A6
:10278000F2D000BFA068012808D154486830006822
:1027900040F001005149683108601DE0A06805283B
:1027A0000DD14E486830006840F004004B49683154
:1027B00008600846006840F0010008600CE04748E7
:1027C0006830006820F0010044496831086008461C
:1027D000006820F00400086000BFA068A8B1FFF7FF
:1027E0008BFC054609E0FFF787FC401B41F288316E
:1027F000884202D9032077E626E03848683000682E
:10280000C0F340000028EED013E0FFF775FC05464A
:1028100008E0FFF771FC401B41F28831884201D982
:10282000032061E62D4868300068C0F340000028AE
:10283000EFD1012F07D129483830006820F08050AF
:1028400026493831086000BFA069002845D02348D8
:10285000006800F00C0008285DD0A069022845D16E
:1028600000201F490866FFF747FC054606E0FFF712
:1028700043FC401B022801D9032035E617480838DD
:102880000068C0F340600028F1D1D4E90701084393
:10289000616A40EA81110122A06AC2EB500041EA5C
:1028A00000412C20005D41EA00600C49091F0860CE
:1028B00001200B490866FFF71FFC054606E0FFF7FD
:1028C0001BFC401B022801D903200DE603480838F1
:1028D0000068C0F340600028F1D049E008380240A9
:1028E00000004742800E474200700040002021490E
:1028F0000866FFF701FC054606E0FFF7FDFB401BFD
:10290000022801D90320EFE51B480068C0F34060AE
:102910000028F2D12CE0A069012800D1E4E5164896
:10292000001D0668A069012820D006F48001E06936
:1029300081421BD106F03F01206A814216D147F641
:10294000C0703040616AB0EB811F0FD106F4403196
:102950000122A06AC2EB5000B1EB004F06D106F095
:1029600070612C20005DB1EB006F01D00120BBE550
:102970000020B9E50000474200380240F0B589B0B8
:1029800004460E460027032084F83400606C0328B8
:1029900020D0B6F5805F04D1A06B40F08050A063DA
:1029A0001CE0B6F5006F07D1204602F037FB054664
:1029B000A06B2843A06311E03EB9204602F0FAFA6A
:1029C0000546A06B2843A06308E0A06B40F00060C0
:1029D000A06303E0A06B40F08050A063A06B38B10F
:1029E000174821688863012084F83400012713E028
:1029F00060680390A0680490E0680590069660699E
:102A00000790A069089006A807C88DE8070020680D
:102A100003A90EC901F032FD4FF40071206801F0E6
:102A2000A9FD054635B1064821688863A06B284397
:102A3000A0630127012084F83400384609B0F0BDB6
:102A4000FF05400010B50246506E800F0870506EB2
:102A5000C0F383604870506EC0F301608870506EA0
:102A6000000CC870B2F86400000A087192F86400A3
:102A70004871906E000DC880906EC0F303400872DC
:102A80006820805AC0F3C03048726820805AC0F372
:102A9000803088726820805AC0F34030C872682045
:102AA000805AC0F30030087300204873506C00282F
:102AB00036D16820805A8005030DD06E43EA9070AD
:102AC0000861D06EC0F3C2600875D06EC0F30260BA
:102AD0004875D06EC0F342508875D06EC0F3824006
:102AE000C875D06EC0F3C23008760869401C5065C6
:102AF0000B7E506D03F007039B1C01249C40604338
:102B00005065087A00F00F03012098409065D2E9E3
:102B100015035B0A5843D0654FF40073136621E038
:102B2000506C012813D16820805C8006830AD06E27
:102B300043EA104008610869401C83025365536DE5
:102B4000D3654FF400739365936D13660AE02E48C6
:102B500013689863906B40F080509063012082F876
:102B6000340010BD6C20805AC0F3803001F8190F7A
:102B70006C20805AC0F3C61048706C20805C00F056
:102B80007F008870106FC00FC870106FC0F3417065
:102B90000871106FC0F382604871106FC0F38350EA
:102BA0008871106FC0F34050C87100200872106F18
:102BB000C0F3004048727020805AC0F3C030887261
:102BC0007020805AC0F38030C8727020805AC0F3E1
:102BD000403008737020805AC0F300304873702072
:102BE000805AC0F3812088737020805AC0F301207E
:102BF000C8737020805CC0F34600087401204874DC
:102C000019390020ADE70000FF0540000246506C76
:102C10000860906C4860D06C8860106DC860506D22
:102C20000861906D4861D06D8861106EC8610020A8
:102C30007047F8B50446002000906946204602F02F
:102C4000A1F9054615B1A06B2843A0630098C0F315
:102C500043263046F8BD10B504460CB9012010BD1E
:102C600094F8340020B900202077204600F068F85E
:102C7000032084F83400204600F00CF808B101204D
:102C8000EDE70020A0632063012084F834000020D9
:102C9000E5E7000070B58AB0044600200490059076
:102CA0000690079008907620099007A807C88DE83D
:102CB0000700206804A90EC901F0E0FB064616B122
:102CC00001200AB070BD00201B490860206801F097
:102CD000EFFB01201849A039C1F8A000204602F0FE
:102CE000EBF805463DB1012084F83400A06B284381
:102CF000A0630120E5E7204602F05DF805463DB1FE
:102D0000012084F83400A06B2843A0630120D8E799
:102D10004FF40071206801F02DFC05464DB10748C5
:102D200021688863A06B2843A063012084F83400E5
:102D3000C7E70020C5E70000A0802542FF0540004E
:102D400010B586B004465949206888427ED100BF3C
:102D5000002000905648006840F400605449086024
:102D60000846006800F40060009000BF00BF00BF8C
:102D700000BF002000904E481438006840F0040066
:102D80004B49143908600846006800F004000090C0
:102D900000BF00BF00BF00BF00BF0020009008467A
:102DA000006840F0040008600846006800F0040075
:102DB000009000BF00BF00BF00BF00BF0020009018
:102DC0000846006840F0040008600846006800F00B
:102DD0000400009000BF00BF00BF00BF00BF002084
:102DE00000900846006840F004000860084600684B
:102DF00000F00400009000BF00BF00BF00BF00BF94
:102E0000002000900846006840F004000860084672
:102E1000006800F00400009000BF00BF00BF00BFCA
:102E200000BF002000900846006840F008000860DD
:102E30000846006800F00800009000BF00BF00BF17
:102E40008815019002200290012000E02BE0039001
:102E5000022004900C20059001A91648FFF72CF8D9
:102E60004FF40070019001A91248FFF725F84FF4C4
:102E70008060019001A90F48FFF71EF84FF4006031
:102E8000019001A90B48FFF717F84FF4805001900B
:102E900001A90848FFF710F80420019001A906488D
:102EA000FFF70AF800BF06B010BD0000002C01407B
:102EB0004438024000080240000C02402DE9FF4F58
:102EC00089B004468B469946DDF858A0FFF714F9FF
:102ED00002900B9800905D46BBF1000F07D1A06BEC
:102EE00040F00060A06301200DB0BDE8F08F94F8C1
:102EF000340001287ED10020A063009800EB090176
:102F0000E06D814205D9A06B40F00070A063012004
:102F1000EAE7032084F8340000202168C862606C6E
:102F2000012802D00098400200904FF0FF3003903B
:102F30004FEA49200490902005900220069000203E
:102F400007900120089003A9206801F072FAB9F1F6
:102F5000010F07D9022020632068009901F072FB5D
:102F6000804606E0012020632068009901F086FB7E
:102F70008046B8F1000F0DD0754821688863A06BBA
:102F800040EA0800A063012084F834000020206398
:102F90000120A9E7049E3AE02068406B00F400405D
:102FA000E0B1DEB10020019015E0206801F089FA5F
:102FB00007462F706D1C761E380A28706D1C761E11
:102FC000380C28706D1C761E380E28706D1C761E0D
:102FD0000198401C019001980828E6D3FFF78CF86F
:102FE0000299401A504502D2BAF1000F0FD1584849
:102FF000216800E0A6E08863A06B40F00040A06379
:10300000012084F834000020206303206CE720684E
:10301000406B40F22A3108400028BDD02068406B48
:1030200000F48070D0B1B9F1010F17D9606C03289A
:1030300014D0206801F0E2FB8046B8F1000F0DD0FB
:10304000434821688863A06B40EA0800A063012020
:1030500084F8340000202063012045E72068406B9D
:1030600000F0080068B13A4821688863A06B40F01E
:103070000800A063012084F83400002020630120B0
:1030800032E72068406B00F0020068B130482168E8
:103090008863A06B40F00200A063012084F8340034
:1030A0000020206301201FE72068406B00F0200013
:1030B00068B1274821688863A06B40F02000A063B6
:1030C000012084F834000020206301200CE729E06F
:1030D000206801F0F6F907462F706D1C761E380A3D
:1030E00028706D1C761E380C28706D1C761E380EEC
:1030F00028706D1C761EFEF7FFFF0299401A50459E
:1031000002D2BAF1000F0DD1114821688863A06B7B
:1031100040F00040A063012084F8340000202063C8
:103120000120E1E62068406B00F4001008B1002E99
:10313000CED140F23A5021688863012084F83400EF
:103140000020D1E6A06B40F00050A0630120CBE648
:10315000FF0540002DE9F04F89B0044689469346AB
:103160009846FEF7C9FF0290DA464D46B9F1000FC6
:1031700007D1A06B40F00060A063012009B0BDE85A
:10318000F08F94F8340001287ED10020A0630AEB70
:103190000801E06D814205D9A06B40F00070A0638A
:1031A0000120EBE7032084F8340000202168C86286
:1031B000606C012801D04FEA4A2A4FF0FF3003909B
:1031C0004FEA482004909020059000200690079038
:1031D0000120089003A9206801F02BF9B8F1010F34
:1031E00007D9202020635146206801F025FB0646C0
:1031F00006E0102020635146206801F039FB0646A6
:1032000066B15F4821688863A06B3043A0630120EA
:1032100084F83400002020630120AFE7049F43E0DE
:103220002068406B00F4804030B32FB30020019041
:103230001FE0287800906D1C7F1E2878009941EAD5
:10324000002000906D1C7F1E2878009941EA004004
:1032500000906D1C7F1E2878009941EA0060009064
:103260006D1C7F1E6946206801F043F90198401CDF
:10327000019001980828DCD3FEF73EFF0299411A1D
:103280001298814203D200E074E0129860B93C4881
:1032900021688863A06B3043A063012084F8340068
:1032A00000202063032069E72068406B40F21A3158
:1032B00008400028B4D02068406B00F48070B8B19A
:1032C000B8F1010F14D9606C032811D0206801F007
:1032D00095FA064666B12A4821688863A06B304398
:1032E000A063012084F8340000202063012045E71A
:1032F0002068406B00F0080068B1214821688863AD
:10330000A06B40F00800A063012084F83400002086
:103310002063012032E72068406B00F0020068B1B2
:10332000174821688863A06B40F00200A063012069
:1033300084F834000020206301201FE72068406BE0
:1033400000F0100068B10E4821688863A06B40F05F
:103350001000A063012084F83400002020630120C5
:103360000CE740F23A5021688863012084F8340069
:10337000002003E7A06B40F00050A0630120FDE6B1
:10338000FF05400010B504460CB9012010BD606A6D
:1033900038B96068B0F5827F00D105E00021E161B5
:1033A00002E0002121616161A06AB0F5005F00D1F7
:1033B00000BF94F8510028B9002084F8500020463E
:1033C00000F050F8022084F851002068006820F0D6
:1033D000400021680860A08800F48270218901F40F
:1033E00004410843A18901F400610843217C01F0F4
:1033F00002010843217D01F001010843218B01F402
:1034000000710843217F01F0380108432021095D44
:1034100001F080010843218D01F400510843216827
:1034200008600421A06901EA104094F8241001F01A
:103430001001084321684860A06AB0F5005F03D11D
:10344000A08D80B2216808612068C06920F4006006
:103450002168C86100206065012084F851000020C7
:1034600094E7000010B586B004462A4920688842D7
:103470004DD100BF00BF002000902748006840F0F9
:103480000200254908600846006800F0020000902C
:1034900000BF00BF00BF00BF00BF00200090084673
:1034A000006840F0020008600846006800F0020072
:1034B000009000BF00BF00BF00BF00BF0020009011
:1034C0000846006840F0020008600846006800F006
:1034D0000200009000BF00BF00BF08200190022042
:1034E000029001200390022004900520059001A97C
:1034F0000A48FEF7E1FC1020019001A90748FEF7F9
:10350000DBFC2020019001A90448FEF7D5FC06B0A1
:1035100010BD00000030014030380240000402407D
:103520002DE9F04F85B00446884691461D460E9E13
:1035300000200490012002900020019000BF94F828
:103540005000012803D1022005B0BDE8F08F012012
:1035500084F8500000BFFEF7CFFD074694F851B045
:1035600060680390AA46BBF1010F0BD00398B0F539
:10357000827F04D1A06810B9BBF1040F02D00220F1
:1035800001902CE1B8F1000F03D0B9F1000F00D089
:1035900015B90120019022E194F85100042802D0CD
:1035A000052084F8510000206065C4F83890E58754
:1035B000A587C4F83080E586A58620646064A06A8B
:1035C000B0F5005F0DD100BF2068006820F4005006
:1035D000216808602068006840F400502168086095
:1035E00000BF2068006800F04000402805D0206837
:1035F000006840F0400021680860E068B0F5006FA6
:1036000056D1606810B1BAF1010F09D1206B008862
:103610002168C860206B801C2063E08E401EE0861D
:103620003FE02068806800F0020002281CD1E08E94
:10363000D0B10298012817D1206B00882168C8609A
:10364000206B801C2063E08E401EE08600200290EC
:10365000E08E48B9A06AB0F5005F05D12068006827
:1036600040F48050216808602068806800F0010004
:1036700068B1E08F58B12068C068A16B0880A06B6A
:10368000801CA063E08F401EE08701200290FEF7BF
:1036900033FDC01BB04204D3701C10B10320019055
:1036A0009DE0E08E0028BCD1E08F0028B9D156E023
:1036B000606810B1BAF1010F09D1206B0078216860
:1036C0000873206B401C2063E08E401EE08640E0C3
:1036D0002068806800F0020002281CD1E08ED0B182
:1036E0000298012817D1206B007821680873206B9D
:1036F000401C2063E08E401EE08600200290E08E99
:1037000048B9A06AB0F5005F05D12068006840F4B0
:103710008050216808602068806800F0010068B16E
:10372000E08F58B12068C068A16B0870A06B401C86
:10373000A063E08F401EE08701200290FEF7DCFCD2
:10374000C01BB04201D3701C00B916B90320019010
:1037500045E0E08E0028BBD1E08F0028B8D1A06AF8
:10376000B0F5005F12D13346012211462046009782
:1037700001F0BEFC30B1606D40F0020060650320D6
:1037800001902CE02068C068049000BF2068806829
:1037900000F01000102809D1606D40F00200606553
:1037A0004FF6EF7021688860012001903A4631465B
:1037B000204601F067FC20B10120019020206065C7
:1037C0000DE0A06850B900BF002000902068C068DC
:1037D000009020688068009000BF00BF00BF0120FB
:1037E00084F8510000BF002084F8500000BF019809
:1037F000AAE670B504460E4615460CB9012070BD08
:1038000094F8490028B9002084F84800204600F0C8
:103810001DF804F108012068FEF780FA3146A2681D
:103820002068FEF7A9FA2946236BD4E90102FEF7C6
:1038300051FAA168206850F8210040F00100A26808
:10384000216841F822000020D9E7000010B586B0B9
:10385000044600BF002000902248006840F00100AC
:10386000204908600846006800F00100009000BF91
:1038700000BF00BF002000901A480838006840F0E0
:1038800008001849083908600846006800F0080078
:10389000009000BF00BF00BF0020009008460068F5
:1038A00040F0100008600846006800F0100000902A
:1038B00000BF00BF4CF20370019002200290012073
:1038C0000390022004900C20059001A90648FEF701
:1038D000F3FA4FF68070019001A90448FEF7ECFA64
:1038E00006B010BD38380240000C02400010024003
:1038F000042808D14FF0E021096941F004014FF09C
:10390000E022116107E04FF0E021096921F0040194
:103910004FF0E0221161704770B504462546681EDD
:10392000B0F1807F01D301200FE0681E4FF0E0214D
:1039300048610F214FF0FF3001F0AAFE00204FF048
:10394000E021886107200861002070BD7047704742
:10395000704710B5044620680069C0F34000D8B134
:103960002068C068C0F34000B0B16FF00200216869
:103970000861012020772068806900F0030018B1F9
:103980002046FFF7E5FF05E0204600F0ADF82046B1
:1039900000F0ABF80020207720680069C0F38000B9
:1039A000D8B12068C068C0F38000B0B16FF00400E7
:1039B00021680861022020772068806900F4407047
:1039C00018B12046FFF7C4FF05E0204600F08CF850
:1039D000204600F08AF80020207720680069C0F3B4
:1039E000C000D8B12068C068C0F3C000B0B16FF0AB
:1039F000080021680861042020772068C06900F071
:103A0000030018B12046FFF7A3FF05E0204600F0B1
:103A10006BF8204600F069F80020207720680069E4
:103A2000C0F30010D8B12068C068C0F30010B0B176
:103A30006FF0100021680861082020772068C069B5
:103A400000F4407018B12046FFF782FF05E02046E1
:103A500000F04AF8204600F048F80020207720685F
:103A6000006900F0010058B12068C06800F0010052
:103A700030B16FF0010021680861204600F036F88F
:103A800020680069C0F3C01058B12068C068C0F356
:103A9000C01030B16FF08000216808612046FFF748
:103AA00055FF20680069C0F3801058B12068C068D5
:103AB000C0F3801030B16FF04000216808612046EB
:103AC00000F015F820680069C0F3401058B1206874
:103AD000C068C0F3401030B16FF020002168086169
:103AE0002046FFF734FF10BD70477047704770479E
:103AF0007047704701460022002391F83D2091F85D
:103B00003E3042EA030070472DE9F84F0446206832
:103B100005682068C668206847694FF00009CA46F2
:103B200005F00F09B9F1000F0AD105F0200038B1F6
:103B300006F0200020B1204601F097FBBDE8F88F89
:103B4000B9F1000F72D007F0010018B906F49070B7
:103B500000286BD005F0010030B106F4807018B178
:103B6000206C40F00100206405F0040030B107F043
:103B7000010018B1206C40F00200206405F0020042
:103B800030B107F0010018B1206C40F0040020644F
:103B900005F0080048B106F0200010B907F0010058
:103BA00018B1206C40F008002064206C70B305F060
:103BB000200028B106F0200010B1204601F055FB8E
:103BC00020684069C0F3801A206C00F0080010B92A
:103BD000BAF1000F23D0204601F01CFB2068406999
:103BE00000F04000402816D12068406920F04000D5
:103BF00021684861A06B50B15648A16B0865A06B65
:103C0000FEF731F910B1A06B016D88470CE020463A
:103C1000FFF76FFF08E02046FFF76BFF04E0204648
:103C2000FFF767FF0020206488E7FFE7206B01288B
:103C300079D105F01000002875D006F0100000289A
:103C400071D000BF002000902068006800902068BC
:103C50004068009000BF00BF2068406900F040004D
:103C6000402839D1A06B006840681FFA80F8B8F18D
:103C7000000F30D0A08D40452DDDA4F82E80A06B24
:103C8000C069B0F5807F1FD02068C06820F48070C4
:103C90002168C8602068406920F0010021684861FF
:103CA0002068406920F0400021684861202084F8A5
:103CB0003E00002020632068C06820F010002168CA
:103CC000C860A06BFEF77AF8A08DE28D801A81B2F1
:103CD0002046FFF70DFF31E7A08DE18D401A1FFA56
:103CE00080F8E08DE8B1B8F1000F1AD02068C06804
:103CF00020F490702168C8602068406920F00100BD
:103D000021684861202084F83E000020206320685C
:103D1000C06820F010002168C86041462046FFF7C7
:103D2000E7FE0BE7FFE705F0800030B106F080000A
:103D300018B1204601F031FC00E705F0400030B139
:103D400006F0400018B1204601F07FFAF6E600BF09
:103D5000F4E600000152000810B504460CB9012039
:103D600010BDA06900B100E000BF94F83D0028B983
:103D7000002084F83C00204600F028F8242084F835
:103D80003D002068C06820F400502168C8602046CB
:103D900001F0CAFA2068006920F4904021680861A7
:103DA0002068406920F02A00216848612068C068C6
:103DB00040F400502168C86000202064202084F86E
:103DC0003D0084F83E000020CAE7000010B586B030
:103DD00004462E492068884255D100BF00BF00200C
:103DE00000902B48006840F0100029490860084600
:103DF000006800F01000009000BF00BF00BF00BFCF
:103E000000BF0020009022481438006840F00100F4
:103E10001F49143908600846006800F0010000904E
:103E200000BF00BF00BF00BF00BF002000900846D9
:103E3000006840F0010008600846006800F00100DA
:103E4000009000BF00BF00BF481501900220029003
:103E500001200390022004900720059001A90D483D
:103E6000FEF72AF84FF4806001900720059001A921
:103E70000848FEF721F82520FEF78FF903221146A6
:103E80002520FEF79AF906B010BD00000010014091
:103E9000443802400000024070B504460D46164604
:103EA00094F83E00202816D105B10EB9012070BD4E
:103EB00000BF94F83C00012801D10220F7E701205F
:103EC00084F83C0000BF002020633246294620468B
:103ED00001F040FBEBE70220E9E700001D4A016822
:103EE000914236D11C49098801F4004189BB1A4925
:103EF000098801F4804171B1184909780A2903D071
:103F00000021154A118024E01349098841F4004139
:103F1000114A11801DE0114909780D2906D10E4979
:103F2000098841F480410C4A118012E00B4909785C
:103F3000094A1288C2F30D02094B995406490988AF
:103F4000491C054A118011460988C72901DD002155
:103F50001180704700100140180000201A00002056
:103F60002C070020704700BFFEE710B5044620680C
:103F70001CF008FE60681CF005FE20691CF002FEC3
:103F800060691CF0FFFD10BD00210160416001610E
:103F9000416170472DE9F04104460F4616469846A8
:103FA000B0001CF09CFF6060606810B95320BDE851
:103FB000F081002505E057F82500616841F82500EB
:103FC0006D1CB542F7D1E660C4F80880204600F0C9
:103FD00001F8ECE72DE9F04704464FF00009E168ED
:103FE00088001CF07CFF2060A168491C88001CF040
:103FF00076FF8046A168491C88001CF070FF0746C8
:10400000206818B1B8F1000F00D00FB94FF0530974
:10401000B9F1000F55D1002505E0002047F8250033
:1040200048F825006D1CA068401CA842F5D1002668
:104030000BE0606850F8260058F82000401C6168CA
:1040400051F8261048F82100761CE068B042F0D103
:10405000012609E0701E57F8201058F82000084487
:10406000400047F82600761CA068B042F2D2002536
:1040700024E0606850F82500F8B1606850F8250029
:1040800057F82000216841F82500606850F82500A5
:1040900057F82000401C616851F8251047F82100AE
:1040A000206850F82510606810F825200120904005
:1040B000401E0140206840F825106D1CE068A842B1
:1040C000D7D140461CF05EFD38461CF05BFDB9F1CF
:1040D000000F03D1204600F004F881464846BDE8B1
:1040E000F0872DE9F04F85B005464FF400601CF0D5
:1040F000F6FE8046B8F1000F03D1532005B0BDE8AD
:10410000F08F4FF40062002140461CF0F8FE0024BE
:104110001FE0286850F824000490686850F824B024
:10412000BBF1090F00D813E0ABF10902049921FAA1
:1041300002F0092136F07DFC064658F82600584565
:1041400002D958F8260000E0584648F8260000BF7B
:10415000641CE868A042DCD84FF40077002409E032
:1041600058F82400092804D9A0F1090101228A4045
:104170001744641CB4F5007FF2D338461CF0AFFE40
:10418000286178001CF0ABFE6861286908B1686995
:1041900020B940461CF0F6FC5320AFE7002403E0B2
:1041A000102029690855641CBC42F9D34FF4007AE9
:1041B000002410E058F82400092800D80AE02A69F1
:1041C00010556A6922F814A0A0F1090101228A4061
:1041D000924400BF641CB4F5007FEBD340461CF052
:1041E000D1FC4FF00009002468E0686850F82460B2
:1041F000286850F8240004903146049836F019FCE1
:10420000834606B959E009F10109092E1CD8C6F107
:104210000902012000FA02F3002112E001FA06F07F
:1042200040EA0B022869805C102801D0372065E73E
:10423000D5F810C00CF80260D5F814C02CF8124064
:10424000491C9942EAD337E0CBF308022869835C22
:10425000A3F109000390686930F812000290A6F1FA
:104260000900DDF80CC0ACEB000C012000FA0CF0EA
:104270000190B34201D2372040E7002118E04FEA15
:104280005B2CCDF800C0A6F1090C01FA0CFCDDF89E
:1042900000E04CEA0E0CDDF808E00CEB0E00D5F85F
:1042A00010E00EF80060D5F814E02EF81040491C1C
:1042B00001988142E3D300BF00BF641CE868A042BC
:1042C00093D8B9F1020F16D2002411E02869005DDD
:1042D00010280CD1B4F5007F01D2012000E00A20A3
:1042E000296908554FF6FF70696921F81400641CAC
:1042F000BC42EBD30AE0002406E02869005D1028E8
:1043000001D13720FAE6641CBC42F6D30020F5E662
:10431000F8B504460E4615462660656004F10802AD
:10432000082128461CF0F4FD08B16920F8BD6A4652
:104330004021A0681CF08FF808B16920F6E7002042
:10434000E060206100BFF1E770B50446002514E08D
:10435000E16C01EB850037F08AFD216D01EB8500F2
:1043600037F085FD616D01EB850037F080FDA16DB3
:1043700001EB850037F07BFD6D1CA06CA842E7D1F6
:10438000E06C1CF0FFFB206D1CF0FCFB606D1CF072
:10439000F9FBA06D1CF0F6FB70BD00218164C164C7
:1043A000016541658165704770B5044600250AE0E6
:1043B000216C01EB850037F05AFD616C01EB850043
:1043C00037F055FD6D1CE06BA842F1D1206C1CF05C
:1043D000D9FB606C1CF0D6FB70BD0021C163016489
:1043E0004164704770B50546002406E005F1CC0134
:1043F00051F824001CF0C6FB641C032CF6D170BDE0
:104400000146002005E0002301F1CC0242F82030F3
:10441000401C0328F7D1002005E0002301F1D80259
:1044200042F82030401C0328F7D1704700BFFEE758
:10443000704710B5024600230868506248689062D1
:10444000D1E9020420430C6920434C692043034313
:10445000D06A20F0F7001843D062002010BD01465A
:104460000869C0B270470146086800F00300704751
:10447000024602F114004318186870470FB410B5D3
:1044800004460021DDE903021043059A1043069A11
:104490001043079A1043089A10430143606847F697
:1044A000FF62904308436060002010BC5DF814FB7D
:1044B00010B50446032020600220FDF7E9FC00202F
:1044C00010BD0146D1F88000704710B502460023A8
:1044D00008689060D1E901042043CC6820430C694E
:1044E00020430343D0686FF30B001843D0600020D3
:1044F00010BD02460868C2F880000020704770B501
:1045000086B005460C460194372002904020039067
:10451000002004904FF48060059001A92846FFF721
:10452000D4FF41F288323721284600F0DDF90646F3
:10453000304606B070BD000070B586B005460C462A
:104540000B48204301902920029040200390002036
:1045500004904FF48060059001A92846FFF7B5FF4D
:10456000284600F0C9FA0646304606B070BD000085
:104570000000108070B586B005460C4601941020EE
:10458000029040200390002004904FF4806005903A
:1045900001A92846FFF799FF41F2883210212846E9
:1045A00000F0A2F90646304606B070BD70B586B080
:1045B00005460C46019406200290402003900020FE
:1045C00004904FF48060059001A92846FFF77DFF15
:1045D00041F288320621284600F086F90646304628
:1045E00006B070BD30B585B0044600200090019043
:1045F000029003904FF48060049069462046FFF7D4
:1046000064FF204600F050F90546284605B030BD4D
:1046100030B585B004464FF4D57000900820019065
:1046200040200290002003904FF48060049069467F
:104630002046FFF74AFF204600F0E6FA05462846E6
:1046400005B030BD70B586B005460C460194122009
:10465000029040200390002004904FF48060059069
:1046600001A92846FFF731FF41F28832122128467E
:1046700000F03AF90646304606B070BD70B586B017
:1046800005460C4601941120029040200390002022
:1046900004904FF48060059001A92846FFF715FFAC
:1046A00041F288321121284600F01EF906463046B4
:1046B00006B070BDF0B585B0064614461D460094A0
:1046C0000720019040200290002003904FF480606A
:1046D000049069463046FFF7F8FE41F28832072120
:1046E000304600F001F90746384605B0F0BD30B558
:1046F00085B004460020009002200190C020029066
:10470000002003904FF48060049069462046FFF734
:10471000DCFE204600F0BEF90546284605B030BD57
:1047200070B586B005460C46019409200290C02061
:104730000390002004904FF48060059001A9284662
:10474000FFF7C3FE284600F0A5F90646304606B03E
:1047500070BD30B585B00446002000903320019034
:1047600040200290002003904FF48060049069463E
:104770002046FFF7AAFE41F288323321204600F09E
:10478000B3F80546284605B030BD70B586B005467D
:104790000C4601940D2002904020039000200490CC
:1047A0004FF48060059001A92846FFF78EFE41F284
:1047B00088320D21284600F097F80646304606B0AC
:1047C00070BD70B586B005460C46002001900320F0
:1047D000029040200390002004904FF480600590E8
:1047E00001A92846FFF771FE22460321284600F062
:1047F000AFF90646304606B070BD000030B585B052
:104800000446002000900C200190402002900020DF
:1048100003904FF48060049069462046FFF755FEF0
:10482000044A0C21204600F05FF80546284605B0F2
:1048300030BD000000E1F50570B586B005460C46B8
:1048400001941920029040200390002004904FF41E
:104850008060059001A92846FFF737FE41F28832B3
:104860001921284600F040F80646304606B070BDD3
:1048700070B586B005460C46019418200290402081
:104880000390002004904FF48060059001A9284611
:10489000FFF71BFE41F288321821284600F024F869
:1048A0000646304606B070BD01460E480068C00896
:1048B0004FF47A73B0FBF3F041F2883300FB03F25C
:1048C00000BF101EA2F1010202D14FF0004070475C
:1048D000486B00F080000028F3D0C52088630020DA
:1048E000F5E70000000000202DE9F04305460F46E3
:1048F000904666480068C0084FF47A71B0FBF1F04A
:1049000000FB08F900BFB9F10000A9F1010903D1CA
:104910004FF00040BDE8F0836E6B06F045000028C4
:10492000F1D006F400600028EDD1686B00F00400BF
:1049300010B10420A863EDE7686B00F0010010B12E
:104940000120A863E6E7C520A8632846FFF787FD96
:10495000B84201D00120DDE700212846FFF788FD9D
:1049600004464B48204008B90020D3E704F000403B
:10497000B0F1004F02D14FF00070CBE704F080405F
:10498000B0F1804F01D14020C4E704F00050B0F1F5
:10499000005F01D18020BDE704F08050B0F1805F5E
:1049A00002D14FF48070B5E704F00060B0F1006F01
:1049B00002D14FF40070ADE704F08060B0F1806F79
:1049C00002D14FF48060A5E704F08070B0F1807FE1
:1049D00002D14FF400609DE704F40000B0F5000F31
:1049E00002D14FF4805095E704F48000B0F5800FB9
:1049F00002D14FF400508DE704F40010B0F5001F11
:104A000002D14FF4804085E704F48010B0F5801F98
:104A100002D14FF400407DE704F48020B0F5802FF0
:104A200002D14FF4003075E704F40030B0F5003FD8
:104A300002D14FF480206DE704F48030B0F5803F60
:104A400002D14FF4002065E704F40040B0F5004FB8
:104A500002D14FF480105DE704F48040B0F5804F40
:104A600002D14FF4001055E704F40050B0F5005F98
:104A700002D14FF480004DE704F00800082801D16E
:104A8000000547E74FF4803044E7000000000020B5
:104A900008E0FFFD10B5014616480068C0084FF455
:104AA0007A74B0FBF4F041F2883400FB04F300BFE9
:104AB000181EA3F1010302D14FF0004010BD4A6B54
:104AC00002F045000028F3D002F400600028EFD186
:104AD000486B00F0040010B104208863EEE7486BD7
:104AE00000F0010010B101208863E7E7C52088636A
:104AF0000020E3E70000002010B5014613480068DD
:104B0000C0084FF47A74B0FBF4F041F2883400FB33
:104B100004F300BF181EA3F1010302D14FF00040BF
:104B200010BD4A6B02F045000028F3D002F400608B
:104B30000028EFD1486B00F0040010B10420886316
:104B4000EEE7C52088630020EAE7000000000020AF
:104B50002DE9F04304460F4690462A480068C008F5
:104B60004FF47A71B0FBF1F041F2883100FB01F9AA
:104B700000BFB9F10000A9F1010903D14FF00040D5
:104B8000BDE8F083666B06F045000028F1D006F41E
:104B900000600028EDD1606B00F0040010B104202B
:104BA000A063EDE7606B00F0010010B10120A0638D
:104BB000E6E72046FFF753FCB84201D00120DFE7CB
:104BC000C520A06300212046FFF752FC054605F4EE
:104BD000604020B9280CA8F800000020D0E705F4B8
:104BE0008040B0F5804F02D14FF40050C8E705F483
:104BF0000040B0F5004F02D14FF48050C0E74FF4B1
:104C00008030BDE70000002010B50146184800685C
:104C1000C0084FF47A74B0FBF4F041F2883400FB22
:104C200004F300BF181EA3F1010302D14FF00040AE
:104C300010BD4A6B02F045000028F3D002F400607A
:104C40000028EFD1486B00F0040010B10420886305
:104C5000EEE7486B00F0010010B101208863E7E740
:104C6000486B00F0400008B1402088630020DFE777
:104C7000000000202DE9F04389B004460F46FDF7FF
:104C80003BFA81464FF000080020019002903E461A
:104C900008212068FFF76EFC05461DB1284609B0C3
:104CA000BDE8F0835022125B11042068FFF727FC57
:104CB00005460DB12846F2E74FF0FF30039008207B
:104CC00004903020059002200690002007900120DB
:104CD000089003A92068FFF7ACFB2068FFF739FDB7
:104CE00005460DB12846DAE71CE02068406B00F469
:104CF000001040B12068FFF7E4FB01A941F828004B
:104D000008F1010805E02068406B00F4005000B98C
:104D10000EE0FDF7F1F9A0EB0900401C10B94FF0CF
:104D20000040BCE72068406B00F02A000028DCD07F
:104D300000BF2068406B00F0080018B1082021680F
:104D40008863ACE72068406B00F0020018B10220D5
:104D500021688863A3E72068406B00F0200018B149
:104D60002020216888639AE740F23A5021688863DE
:104D700002980006029901F47F4140EA012002995D
:104D800001F47F0140EA1120029940EA116030608D
:104D9000361D01980006019901F47F4140EA012087
:104DA000019901F47F0140EA1120019940EA116064
:104DB0003060002073E730B58FB0044601200390C7
:104DC0002068FFF750FB18B94FF080600FB030BD7E
:104DD000606C03281BD02068FFF789FC05460DB1E5
:104DE0002846F3E700212068FFF742FB60670421B3
:104DF0002068FFF73DFBA06708212068FFF738FB1C
:104E0000E0670C212068FFF733FB80210851606CBC
:104E1000032807D003A92068FFF7D3FC05460DB18E
:104E20002846D3E7606C032820D0BDF80C1021651C
:104E30005022125B11042068FFF772FC05460DB189
:104E40002846C3E700212068FFF712FB60660421B3
:104E50002068FFF70DFBA06608212068FFF708FB1C
:104E6000E0660C212068FFF703FB2067042120681F
:104E7000FFF7FEFA010DE16404A92046FDF7E2FD0B
:104E800010B14FF08050A1E75020005B01040A46AA
:104E900000232068FFF70EFC05460DB1284695E774
:104EA000D4E90412A069CDE90012029094E80F0041
:104EB000FFF7E4FA002089E7F8B5044600200090E7
:104EC000002600272068FFF78DFB05460DB1284618
:104ED000F8BD2068FFF79CFB054645B10021A164A1
:104EE0002068FFF77FFB05461DB12846F0E701214A
:104EF000A164A06C012808D100212068FFF7FFFA07
:104F0000054615B14FF08050E2E71DE00021206812
:104F1000FFF7F5FA05460DB12846D9E7184920688C
:104F2000FFF70AFB054615B14FF08050D0E700218E
:104F30002068FFF79DFA0646012080EAD67080F0CF
:104F400001070098401C00904FF6FF7100988842BE
:104F500001D2002FDAD04FF6FF710098884202D3B9
:104F60004FF08070B4E706F08040B0F1804F02D17E
:104F70000120606401E0002060640020A8E70000D8
:104F8000000010C170B504460D4615B94FF0006021
:104F900070BD5022125B11042068FFF7F6FB064635
:104FA0000EB13046F4E700212068FFF761FA28606F
:104FB0000020EDE77CB50446002000900190002120
:104FC0002068FFF755FA00F00070B0F1007F02D1C1
:104FD0004FF400607CBD69462046FFF74BFE054656
:104FE0000DB12846F6E7019800F4803098B15022C0
:104FF000125B11042068FFF782FA05460DB12846BE
:10500000E8E700212068FFF7D1FA05460DB12846F0
:10501000E0E70020DEE74FF08060DBE77CB5044688
:1050200000200090019000212068FFF721FA00F095
:105030000070B0F1007F02D14FF400607CBD694682
:105040002046FFF717FE05460DB12846F6E7019802
:1050500000F4802098B15022125B11042068FFF701
:105060004EFA05460DB12846E8E702212068FFF711
:105070009DFA05460DB12846E0E70020DEE74FF037
:105080008060DBE77CB504460D461646164800688E
:105090001821B0FBF1F01549B0FBF1F04FF47A7133
:1050A000484301906068B0F5827F0DD12B46002205
:1050B00080212046009600F01BF898B1606D40F00A
:1050C0002000606503207CBD00BF019800B908E0A6
:1050D0000198401E019020688068C0F3C01000282D
:1050E000F3D100BF0020EEE70000002040420F0097
:1050F0002DE9F84F04460D4690461E46DDF82890EF
:10510000FCF7FAFFA0EB0900371AFCF7F5FF82461F
:105110002C480068C0F3CB307843009045E0701C09
:10512000002842D0FCF7E8FFA0EB0A00B84200D20A
:10513000A7BB2068406820F0E000216848606068F4
:10514000B0F5827F0DD1A068B0F5004F03D0A06804
:10515000B0F5806F05D12068006820F0400021681C
:105160000860A06AB0F5005F0DD100BF206800683C
:1051700020F40050216808602068006840F4005066
:105180002168086000BF012084F8510000BF0020A2
:1051900084F8500000BF0320BDE8F88FFFE70098B7
:1051A00000B900270098401E0090206880682840C1
:1051B000A84201D1012000E000204045AFD10020ED
:1051C000EAE700000000002010B5FCF79BFF3CF070
:1051D000DFFA012801D03CF0A5F810BD03480068B3
:1051E00040F47000014908607047000088ED00E05D
:1051F00010B50248FEF7ADFB10BD00009808002076
:1052000070B50546AC6B0020E085E0842046FEF7D3
:1052100070FC70BD0168C96821F490710268D160AA
:105220000168496921F0010102685161016B01299E
:1052300005D10168C96821F010010268D160202100
:1052400080F83E1000210163704710B504462068C5
:10525000C06820F040002168C860202084F83D002C
:105260002046FEF77FFE002010BD70B5044694F87E
:105270003E00222856D1A068B0F5805F0CD120698D
:1052800050B90025A66A20684068C0F30800308045
:10529000A06A801CA06215E0A56A0026A068B0F58F
:1052A000805F03D0A06828B9206918B920684068D9
:1052B000287004E02068406800F07F002870A06A31
:1052C000401CA062E08D401E80B2E08540BB20689B
:1052D000C06820F020002168C8602068C06820F401
:1052E00080702168C8602068406920F00100216852
:1052F0004861202084F83E00206B01280AD12068F4
:10530000C06820F010002168C860A18D2046FEF71B
:10531000EFFB02E02046FEF7E1FD0020206370BDB8
:105320000020FCE70220FAE72DE9F84F0446206848
:10533000006920F44050E168084321680861216950
:10534000A068084361690843E16908430090206848
:10535000C06849F20C618843009908432168C8601D
:105360002068406920F44070A169084321684861C1
:1053700076492068884203D075492068884203D165
:10538000FDF746F8814602E0FDF732F88146E06914
:10539000B0F5004F6CD102206168A0FB01500346BC
:1053A0001920A9FB007001462A463846FAF7F9FF92
:1053B0006421B0FBF1F04FEA001A02206168A0FB03
:1053C00001510B461920A9FB00712A463846FAF70D
:1053D000E8FF834602206168A0FB015003461920C4
:1053E000A9FB00712A463846FAF7DBFF6421B0FBBF
:1053F000F1F000EBC00101EB0010ABEB80003221BB
:1054000001EBC0006421B0FBF1F000F0F8000AEB02
:10541000400A02206168A0FB015003461920A9FB45
:10542000007001462A463846FAF7BBFF8346022041
:105430006168A0FB015003461920A9FB00712A46B0
:105440003846FAF7AEFF6421B0FBF1F000EBC00183
:1054500001EB0010ABEB8000322101EBC0006421B6
:10546000B0FBF1F000F007005044216888606AE06A
:1054700004206168A0FB015003461920A9FB0070BD
:1054800001462A463846FAF78CFF824604206168B6
:10549000A0FB015003461920A9FB007001462A46D3
:1054A0003846FAF77EFF6421B0FBF1F000EBC00153
:1054B00001EB0010AAEB8000322101EB0010642107
:1054C000B0FBF1F000F0F00A04206168A0FB01706D
:1054D00003461920A9FB00513A462846FAF761FF16
:1054E0006421B0FBF1F00AEB001A04206168A0FB14
:1054F00001510B461920A9FB00712A463846FAF7DC
:1055000050FF834604206168A0FB01500346192028
:10551000A9FB007001462A463846FAF742FF64218B
:10552000B0FBF1F000EBC00101EB0010ABEB800031
:10553000322101EB00106421B0FBF1F000F00F000C
:10554000504421688860BDE8F88F000000100140D9
:105550000014014010B5034699629A85DA8500204F
:105560001864222083F83E0000BF002083F83C002E
:1055700000BF1868C06840F480701C68E06018685C
:10558000406940F001001C6860611868C06840F024
:1055900020001C68E060002010BD014691F83D002D
:1055A000212828D18868B0F5805F0BD1086948B9F7
:1055B0000A6A1088C0F308000B685860086A801CEB
:1055C000086205E00B6A581C086218780B6858607E
:1055D000C88C401E80B2C88458B90868C06820F0E2
:1055E00080000B68D8600868C06840F040000B6815
:1055F000D860002070470220FCE7000070B500244E
:105600000F4D1048FEF780FA00BF03E0641CAC4267
:1056100000D904E00B48FEF76DFA2028F6D100BF50
:10562000002403E0641CAC4200D906E001220649D4
:105630000448FEF731FC0028F4D100BF70BD000023
:10564000FFFF0100F40700201A00002000BFFEE762
:1056500003B401984100009850EAC12018BF04200B
:105660004A0D18BF40F0010040F2FF72B2EB515FEB
:1056700008BF40F00200012808BF052002B07047B3
:1056800002480068C0F30220704700000CED00E003
:1056900010B5002804DB0A07130E054A135406E070
:1056A0000A07140E034A00F00F031B1FD45410BD49
:1056B00000E400E018ED00E070B50446002508E0C5
:1056C0002168481C20600878303805EB850100EB24
:1056D00041052168087800F004F80028F0D1284638
:1056E00070BD0146302903DB392901DC01207047F8
:1056F0000020FCE730380A2801D201207047002042
:105700007047000010B54021074801F0E3FA00227D
:105710000421064830F05EFD0549086002F056FE9F
:1057200000200449087010BD50B200209984000880
:10573000980200209402002030B50346B1F90040E1
:10574000B2F90050AC4202DDB1F9004001E0B2F91B
:1057500000401C80B1F90240B2F90250AC4202DDB7
:10576000B1F9024001E0B2F902405C80B1F90440B5
:10577000B2F90450AC4202DAB1F9044001E0B2F9E6
:1057800004409C80B1F90640B2F90650AC4202DAFE
:10579000B1F9064001E0B2F90640DC800120B3F91E
:1057A0000040B3F90450AC4205DCB3F90240B3F950
:1057B0000650AC4200DD002030BDF8B504460D4671
:1057C00016460027B4F90000B5F90010884212DB34
:1057D000B4F90200B5F9021088420CDBB4F90400F8
:1057E000B5F90410884206DCB4F90600B5F90610D4
:1057F000884200DC01270FB90020F8BD0EB9012056
:10580000FBE72088ADF800006088ADF80200324662
:105810006946284600F0A7F808B90020EDE7A088FF
:10582000ADF800006088ADF80200324669462846AF
:1058300000F099F808B90020DFE72088ADF80000F3
:10584000E088ADF8020032466946284600F08BF841
:1058500008B90020D1E7A088ADF80000E088ADF8D5
:10586000020032466946284600F07DF808B900205B
:10587000C3E70120C1E70246B2F90000B1F90430E4
:10588000984213DCB2F90400B1F9003098420DDB04
:10589000B2F90200B1F90630984207DCB2F906000D
:1058A000B1F90230984201DB012070470020FCE78B
:1058B000F8B504460D461646B4F90400B5F90010D3
:1058C000884211DBB4F90600B5F9021088420BDBFF
:1058D000B4F90000B5F90410884205DCB4F90200FF
:1058E000B5F90610884201DD0120F8BD0EB900208F
:1058F000FBE72088ADF800006088ADF80200324672
:105900006946284600F02FF808B10020EDE7A0888E
:10591000ADF800006088ADF80200324669462846BE
:1059200000F021F808B10020DFE72088ADF8000082
:10593000E088ADF8020032466946284600F013F8C8
:1059400008B10020D1E7A088ADF80000E088ADF8EC
:10595000020032466946284600F005F808B10020EA
:10596000C3E70120C1E72DE9FC5F05460E4614465A
:105970004FF0000AB6F90000B5F90010884213DBB9
:10598000B6F90000B5F9041088420DDCB6F9020042
:10599000B5F90210884207DBB6F90200B5F9061026
:1059A000884201DC4FF0010ABAF1000F02D1002059
:1059B000BDE8FC9F002C01DC0120F9E728461CF023
:1059C00034FB834600EBDB70471028461CF0A5FA39
:1059D000834600EBDB704FEA6008474501DA384642
:1059E00000E0404681464C4500DD4C462888ADF835
:1059F00000002888204400B2ADF804006888ADF8A3
:105A000002006888204400B2ADF80600002231464A
:105A10006846FFF7A8FF80B1BDF80400204400B23B
:105A2000ADF80400BDF80600204400B2ADF8060051
:105A3000314668462CF098FFBAE7E888001B00B2B0
:105A4000ADF80200E888ADF806000022314668464D
:105A5000FFF789FF80B1BDF80400204400B2ADF823
:105A60000400BDF80200001B00B2ADF80200314690
:105A700068462CF079FF9BE7A888001B00B2ADF8C0
:105A80000000A888ADF80400002231466846FFF700
:105A90006AFF80B1BDF80000001B00B2ADF8000045
:105AA000BDF80200001B00B2ADF8020031466846A6
:105AB0002CF05AFF7CE76888ADF802006888204423
:105AC00000B2ADF80600002231466846FFF74BFFF2
:105AD00080B1BDF80000001B00B2ADF80000BDF8B9
