:020000040800F2
:10000000E88E002095020008AF7700088769000895
:10001000AB770008491B0008E98D000800000000CC
:10002000000000000000000000000000A58900089A
:100030004F1B000800000000AD1A0008A989000845
:10004000B9020008B9020008B9020008B9020008A4
:10005000B9020008B9020008B9020008B902000894
:10006000B9020008B9020008B9020008B902000884
:10007000B9020008B9020008B9020008B902000874
:10008000B9020008B9020008B9020008B902000864
:10009000B9020008B9020008B9020008B902000854
:1000A000B9020008B9020008B9020008B902000844
:1000B000B9020008B9020008B9020008B902000834
:1000C000B9020008B9020008B9020008B902000824
:1000D000B9020008D18D0008B9020008B902000871
:1000E000B9020008B9020008B9020008B902000804
:1000F000B9020008B9020008B9020008B9020008F4
:10010000B9020008B9020008B9020008B9020008E3
:10011000B9020008B9020008B9020008B9020008D3
:10012000B9020008B9020008B9020008B9020008C3
:10013000B9020008B9020008B9020008B9020008B3
:10014000B9020008B9020008B9020008B9020008A3
:10015000B9020008B9020008B9020008B902000893
:10016000B9020008B9020008B9020008B902000883
:10017000B9020008B9020008B90200080000000036
:10018000B9020008B902000800F002F800F072F8A5
:100190000AA090E8000C82448344AAF10107DA45E2
:1001A00001D100F067F8AFF2090EBAE80F0013F0C2
:1001B000010F18BFFB1A43F0010318476CBC010084
:1001C0008CBC01000A444FF0000C10F8013B13F006
:1001D000070408BF10F8014B1D1108BF10F8015BA0
:1001E000641E05D010F8016B641E01F8016BF9D193
:1001F00013F0080F1EBF10F8014BAD1C0C1B09D1EA
:100200006D1E58BF01F801CBFAD505E014F8016B5B
:1002100001F8016B6D1EF9D59142D6D370470000ED
:100220000023002400250026103A28BF78C1FBD8FF
:10023000520728BF30C148BF0B607047662915F0D0
:100240002487642900F03881782900F071817329AE
:1002500000F03386002070471FB515F011FF00F045
:10026000E7FE04000020002115F0BCFBE0601FBD8C
:1002700010B510BD00F0E0FF1146FFF7EDFF14F0E0
:1002800067FA00F0FEFF03B4FFF7F2FF03BC0FF0C4
:10029000BEFC00000C48016841F4700101600B488D
:1002A00080470B480047FEE7FEE7FEE7FEE7FEE774
:1002B000FEE7FEE7FEE7FEE7FEE700000548064929
:1002C000044A064B7047000088ED00E0C189000831
:1002D00089010008E87E0020E88E0020E87E0020EA
:1002E00072B6704762B6704772B602B4EFF311810E
:1002F00080F31188BFF34F8FBFF36F8F084602BCA6
:1003000062B6704772B680F31188BFF34F8FBFF3A8
:100310006F8F62B6704730BF704720BF7047B0FA2A
:1003200080F0704790FAA0F0B0FA80F0704790FA31
:10033000A0F07047704753EA020C00F069802DE985
:10034000F04B4FF00006002B1FBFB3FA83F503FA02
:1003500005F424FA05F65E4012BF1643B2FA82F5A0
:1003600002FA05F4C5F120051EBF22FA05FC44EA95
:100370000C04203556EA044C4FEA144418BF641CA0
:100380004FF000084FF00009904271EB030C39D395
:10039000002919BFB1FA81F701FA07F6B0FA80F720
:1003A00000FA07F6C7F120071EBF20FA07FC46EA4D
:1003B0000C062037B6FBF4FCA7EB0507103F07F04F
:1003C0001F0BCBF120060CFA0BFB2CFA06F644BFF0
:1003D000B3460026202FA4BF5E464FF0000B5BEA19
:1003E000060C08BF4FF0010B19EB0B09ABFB027CAD
:1003F00048EB0608C01B06FB02CC0BFB03CC71EBE1
:100400000C01C1E70B46024641464846BDE8F08B69
:1004100013B54FF000004FF00001AFF30080BDE8CE
:100420001C4070470FB4044910B503AA029800F0AD
:1004300049FD10BC5DF814FB080000200FB41CB58A
:10044000074B06AA7B4469460090059800F00BFD17
:100450000020694600F01AFD1CBC5DF814FB00008A
:10046000450A000070B50C460546012A05D02878DB
:10047000800600D5EA69002302E0012305E05B1C49
:10048000934202D2E05C0028F9D1A869E618C01AAC
:10049000A861286A184428622846AFF3008004E067
:1004A000D5E9012114F8010B9047B442F8D328464E
:1004B000AFF3008070BD00002DE9F0410646002436
:1004C00010687529314616A510D0AFF300800028BA
:1004D00002DA404213A507E031688A0701D512A568
:1004E00002E0490704D511A5012401E0AFF3008023
:1004F00000210A2206F1240709E0B0FBF2FCB0FB60
:10050000F2F302FB1C00303078541846491C0028D6
:10051000F3D123462A463046BDE8F04100F036BA12
:10052000000000002D0000002B0000002000000053
:1005300070B504460D4621461068AFF3008021884F
:10054000090502D50F4A7A4402E00E4A7A440E3277
:10055000002104F1240305E000F00F060009965D78
:100560005E54491C0028F7D120780023000704D5E9
:10057000702D02D009B1022311322046BDE870402F
:1005800000F004BA92B701002DE9F05F89460446F5
:100590004FF0000ADFF824B1FB44C0F820A0204649
:1005A000E168884700287DD0252806D0D4E90121BC
:1005B0009047206A401C2062F1E700255F462046F4
:1005C000E16888472028064607DB312E05D2B81996
:1005D00010F8200C08B10543F1E7A80701D525F074
:1005E0000405C4F81CA00027C4F818A02A2E09D0BE
:1005F00030460FF005FB38B304EB8708303EC8F8EF
:10060000186019E059F8041B204604EB8702916139
:10061000E1688847012F064618D1E069002820DAF2
:1006200025F020051DE0D8F8180000EB800006EB4F
:1006300040003038C8F818002046E1688847064670
:100640000FF0DEFA0028EED1012F0AD02E2E08D1AD
:100650002046E16888477F1C0646022F45F02005AA
:10066000C4DBA069002803DA404245F00105A0611F
:10067000E80701D025F01005A6B1A6F14100192820
:1006800002D8203645F400654A46314620462560AA
:100690004D46FFF7D3FD60B1012807D0ED1D25F0D1
:1006A000070000E007E000F1080978E705F1040918
:1006B00075E730467AE7206ABDE8F09F68B7010029
:1006C00040EA010310B59B070FD1042A0DD310C8CF
:1006D00008C9121F9C42F8D020BA19BA884201D921
:1006E000012010BD4FF0FF3010BD1AB1D30703D069
:1006F000521C07E0002010BD10F8013B11F8014B1F
:100700001B1B07D110F8013B11F8014B1B1B01D13A
:10071000921EF1D1184610BD40EA0103024630B5E1
:100720009B0710D14FF0013400E008C208C91D1B1F
:100730009D4315EAC41FF8D013F0FF0102F8011B16
:100740000DD01B0AF8E711F8013B002B02F8013B22
:1007500005D011F8013B002B02F8013BF3D130BD6D
:1007600010B5431C02E010F8011B71B18107FAD1EA
:100770004FF0013202C88C1A8C4314EAC211F9D02E
:10078000C01A0A0603D0C01E10BDC01A10BD0A044C
:1007900001D0801E10BD0902FCD0401E10BD431ABE
:1007A00028BF9A4240F2A083032A1044114440F229
:1007B000268010F0030F1EBF11F8013D521E00F8F5
:1007C000013D10F0030F7FF4F6AF11F0030300F0CA
:1007D000E383083AC0F00B8051F8043D083A51F821
:1007E00004CD40F8043D40F804CDFFF7F3BF121DDF
:1007F0005CBF51F8043D40F8043DAFF30080D207E0
:1008000024BF11F8013D11F801CD48BF11F8012CAA
:1008100024BF00F8013D00F801CD48BF00F8012CCD
:10082000704701B500F060FB01BD10B5203AC0F083
:100830000B80B1E81850203AA0E81850B1E81850E1
:10084000A0E81850BFF4F5AF5FEA027C24BFB1E81E
:100850001850A0E8185044BF18C918C0BDE810408F
:100860005FEA827C24BF51F8043B40F8043B08BF98
:100870007047D20728BF31F8023B48BF11F8012B5F
:1008800028BF20F8023B48BF00F8012B704701F059
:10089000FF03114601B543EA032242EA024200F097
:1008A000A7FB01BD02F0FF0343EA032242EA024232
:1008B00000F09EBB4FF0000200B5134694469646EA
:1008C000203922BFA0E80C50A0E80C50B1F1200163
:1008D000BFF4F7AF090728BFA0E80C5048BF0CC011
:1008E0005DF804EB890028BF40F8042B08BF70476F
:1008F00048BF20F8022B11F0804F18BF00F8012BE1
:10090000704700004FF0013C50F8042B51F8043BB5
:100910009A4221D1A2EB0C03934313EACC1317D1D3
:1009200050F8042B51F8043B9A4215D1A2EB0C036A
:10093000934313EACC130BD150F8042B51F8043B2A
:100940009A4209D1A2EB0C03934313EACC13DBD0F8
:100950004FF00000704700BFD01A01BAB1FA81F120
:1009600001F0180122FA01F0CB40C1F12001DBB205
:10097000C0B2C01A2CFA01F3D11A914311EAC31183
:10098000E6D1704770477047704770472DE9F047D0
:100990000D4699469246044600F1240801688806EF
:1009A00004D5E06921F01001216000E00120A84297
:1009B00001DD471B00E00027A1697A1902EB09005D
:1009C000081AA0612078C00602D42046AFF3008048
:1009D000002608E0D4E901211AF806009047206AB1
:1009E000401C761C20624E45F4DB2078C0060AD5F8
:1009F0002046AFF3008006E0D4E901213020904783
:100A0000206A401C2062381EA7F10107F4DC07E0D1
:100A1000D4E9012118F805009047206A401C2062A3
:100A2000281EA5F10105F3DC2046AFF300802078F5
:100A3000000602D50220BDE8F0870120FBE77047E1
:100A40002DE9FF4F0C461E464FF0FF378BB0D2E921
:100A50000001DDF860800A908A46C1F30A5505B9A5
:100A60003D46002108464FF00000BAF1000F00F4A7
:100A7000400005DA00EB80004FF4400101EA50002D
:100A80004FEA9059B9F1010F00DDB9460A9850EAD2
:100A90004A000ED044F61050A5F2FF3545432F14FE
:100AA000B8F1000F1ED07542291E1EDDC9F10002EB
:100AB0001CE0B8F1010F4FF0000001D0302103E03D
:100AC000F24305E02154401CB042FBDB30460022DB
:100AD000002121540B99C1F80880C1E900200FB012
:100AE000BDE8F08FBD1B6D1CDEE74A4600DA6942A7
:100AF00006A800F027FB06AB93E8070003AB83E8EA
:100B0000070050460A9900F0C5FB8DE80700A0F5E4
:100B100000501F3800900398002D0ADD42F21F019B
:100B20004A460844002303A90390684600F02EFEBD
:100B300009E0A0F500504A461F38002303A903909E
:100B4000684600F038FE8DE807000004000C03D072
:100B50004FF0FF30410800E01046B8F1000F03D01D
:100B60000022009215461EE0751E05D400F064FABE
:100B7000303262556D1EF9D5B3460122084302D0CA
:100B800000227F1C04E02078302801D100227F1E43
:100B9000002A099784D01DE0112D07DA00F04CFAE5
:100BA000303262556D1C50EA0102F5D1084302D083
:100BB0000098C8B10EE00021681E05E0235C625C6D
:100BC00063542254401E491C8142F7DBAB46A81BEC
:100BD000401E0990002004F80B000B98099AC0F8F9
:100BE0000880C0E9002B7AE711264FF0000857E78C
:100BF0002DE9F04F88460446D21D22F0070191B03E
:100C0000D1E90001CDE90A010EF03AFF02460B9846
:100C1000C00F01D02D2007E02068810701D52B20CF
:100C200002E0202101EAC000032A099001D0072A2E
:100C300005DB03464146204600F044FA0BE12078EC
:100C4000800601D5E06900E00620B8F1650F814615
:100C500006D0B8F1660F18D0B8F1670F70D131E047
:100C60000020B9F1110F009001DB112301E009F11F
:100C700001030AAA01A90CA8FFF7E2FEDDE90C7046
:100C8000002609F10105834647E001204B4600900C
:100C90004FF000470AAA01A90CA8FFF7D1FEDDE931
:100CA0000DB00C995D46002610B909F101000D1830
:100CB000B9EB050003D4C0F1FF3609F10105A5EB3E
:100CC00009002BE0B9F1010F01DA4FF00109002012
:100CD000B9F1110F0090484601DD112300E00346F1
:100CE0000AAA01A90CA8FFF7ABFEDDE90C704D467E
:100CF00000268346207800070AD4AB4500DA5D461B
:100D000001A8012D04DD411911F8011C302907D07B
:100D10004F4502DA17F1040F04DA012082460FE092
:100D20006D1EEEE7002F02DCED1B3E4403E0781C55
:100D3000A84200DD7D1CB81B00F1010A4FF00047FE
:100D40002078000703D4AA4501DB4FF0FF3A0021C9
:100D5000B7F1004F0DF143088DF8431024D0022065
:100D60002B23002F01DA7F422D230A21021EA0F13E
:100D7000010000DC5FB197FBF1FC97FBF1F201FB96
:100D80001C7C17460CF1300C08F801CDEEE7A8F1F9
:100D9000010003702188090501D5452100E0652186
:100DA000A0F1010800F8011C09980FA9A1EB0807A0
:100DB000FF1D00B10120411901EBEA70A16938441F
:100DC000081A401EA0612078C00602D42046AFF366
:100DD0000080099828B1D4E901219047206A401C7D
:100DE00020622078C00622D52046AFF300801EE0A6
:100DF000002E04DBB34502DD01A8805D00E0302059
:100E0000D4E901219047206A401C2062761CAAF197
:100E100001005FEA000A0AD100F00AF9C06801681F
:100E2000405CD4E901219047206A401C2062281EC2
:100E3000A5F10105DCDC07E0D4E9012118F8010B7C
:100E40009047206A401C2062381EA7F10107F3DC9E
:100E50002046AFF30080032011B041E601694A1C2F
:100E600002610878704700B58FB0CDE901310021EB
:100E7000059105497944CDE9031011466846FFF70D
:100E800083FB0FB000BD0000E5FFFFFF0A6802F81A
:100E9000010B0A60704710B5436913B1AFF30080CE
:100EA00001E0FFF7DFFA012010BD127800F1240104
:100EB0000A7000224A700122EDE711684FF0FF32FC
:100EC000E9E70000074B70B50D467B44FFF7CBFF09
:100ED0000446284600F0A8F910B14FF0FF3070BD6D
:100EE000204670BDBBF30000032A40F2308010F0B2
:100EF000030C00F0158011F8013BBCF1020F6244B5
:100F000098BF11F801CB00F8013B38BF11F8013B45
:100F1000A2F1040298BF00F801CB38BF00F8013BF2
:100F200011F003033FF481AC083AC0F0088051F897
:100F3000043B083A51F804CBA0E80810F5E7121D6D
:100F40005CBF51F8043B40F8043BAFF30080D2078C
:100F500024BF11F8013B11F801CB48BF11F8012B58
:100F600024BF00F8013B00F801CB48BF00F8012B7B
:100F70007047431A28BF9A427FF657AC104410F0CE
:100F8000030F11441EBF11F8013D521E00F8013D30
:100F900010F0030F7FF4F6AF103AC0F00A8010B5DE
:100FA00031E91850103A20E91850BFF4F9AFBDE804
:100FB0001040530724BF31E9081020E9081044BF4E
:100FC00051F8043D40F8043D12F0030F08BF70478C
:100FD000D20728BF31F8023D48BF11F8012C28BFC5
:100FE00020F8023D48BF00F8012C70474FF0000286
:100FF0000429C0F0128010F0030C3FF45DACCCF17A
:10100000040CBCF1020F18BF00F8012BA8BF20F898
:10101000022BA1EB0C01FFF74FBC5FEAC17C24BFA0
:1010200000F8012B00F8012B48BF00F8012B704796
:1010300000487047A47E002030B5B0F10A024FEAA4
:10104000900E71F100034EEA817EB0EB0E0061EB71
:1010500091014FEA101E4EEA017E10EB0E0041EBAB
:1010600011114FEA102E4EEA016E10EB0E0041EB0B
:1010700011214FEA104E4EEA014E10EB0E0041EBEB
:101080001141401841F100014FEAD00040EA41709F
:101090004FEAD10110EB80054FEA810444EA9074D5
:1010A00044EB01046D1944EB0404521BA3414FF0BF
:1010B000000348BF0A3200D530BD401C41F1000199
:1010C00030BD00002DE9F0411F46044603260168AB
:1010D000072A01F4006004DB08B116A505E016A597
:1010E00003E008B115A500E015A521F0100020606F
:1010F000A069C01EA0610FB1401EA0612046AFF3E1
:1011000000804FB1D4E9012138469047206A401C45
:101110002062C01C206206E0206AFAE7D4E90121BF
:1011200015F8010B9047761EF8D22046AFF30080E9
:10113000BDE8F0814E414E006E616E00494E4600A2
:10114000696E66002DE9F047814616468AB035483B
:1011500078440DC88DE80D0032487844801C03ACFB
:101160000DC884E80D0041F69B300844372190FB00
:10117000F1F290FBF1F5A5F1800501FB12041B3C97
:1011800002D56442012000E00020DFF898A08046EC
:101190000027FA44AAF1BE0A0EE0E0070AD0324660
:1011A000684607EB470101230AEB810100F003FBCE
:1011B0008DE8070064107F1C002CEED1194F7F448E
:1011C000AE3F19E0E80715D007EB04100DF1180A3F
:1011D00090E80E008AE80E00C068F04201D198192C
:1011E00008903246012306A903A800F0E4FA03ABF5
:1011F00083E807006D10641C002DE3D14FF001035C
:1012000032466946B8F1000F03A802D000F0BEFADA
:1012100001E000F0D0FAC9E90001C9F808200AB0DD
:10122000BDE8F08740AC0100007B00F08000704713
:1012300000487047847E00207546FFF7F9FFAE46F0
:1012400005006946534620F00700854618B020B5D2
:10125000FFF734F8BDE820404FF000064FF00007DC
:101260004FF000084FF0000B21F00701AC46ACE84E
:10127000C009ACE8C009ACE8C009ACE8C0098D46BB
:10128000704710B50446AFF300802046BDE810401B
:10129000FEF7F9BF5FEA400C08BF91F0000F4FEA7C
:1012A0008C234FEAC12243EA51514FEA1C5018BF28
:1012B00000F5F0404FEA300018BF41F000415FEA0E
:1012C0006C5C00F02980BCF1FF3F08BF40F080401B
:1012D0007047130C06BF12044FF0100C4FF0000CB7
:1012E000130E04BF12020CF1080C130F04BF1201FD
:1012F0000CF1040C930F04BF92000CF1020CD30FFD
:1013000004BF52000CF1010C11464FF00002A0F195
:101310001F00A0EB0C00704711F0004F08BF704792
:1013200031F000413FF4D5AF0B0C06BF09044FF07C
:10133000100C4FF0000C0B0E04BF09020CF1080C4E
:101340000B0F04BF09010CF1040C8B0F04BF8900C3
:101350000CF1020CCB0F04BF49000CF1010CCCF1D5
:101360002003A0EB0C0022FA03F302FA0CF241EA8C
:10137000030100F10100704720F07F4C80EA030078
:1013800023F07F47ACEB070303F57C5300F00040EC
:1013900003F1FF032DE980494FEA154B09B44FEAE9
:1013A000144325EA0B4E24EA03480FF2042606EB09
:1013B000132749083E785FEA320203FB0667C7F548
:1013C000000707FB06F64FEA54374FEAD64606F108
:1013D000020607FB066CCCF1005C4FEA1C472CEAC6
:1013E000074C07FB06F40CFB06F504EB15464FEA29
:1013F000961634BF00204FF000404FEAD13706FB6D
:1014000007FC4FEA1C4C0CFB0BF7D21B03FB0CF741
:1014100061EB07010CFB0EF7B0EB074072EB1742D4
:101420000CFB08F734BFA2EB0742B2EB074261EBBB
:1014300017414FEA0C444FEA910706FB07FC4FEABD
:101440001C4C0CFB0BF7B0EBC74072EB573203FBA5
:101450000CF734BFA2EBC742B2EBC74261EB573186
:101460000CFB0EF7B0EBC70072EB57720CFB08F7E2
:1014700034BFA2EBC702B2EBC70261EB5771039F07
:101480004FEA816141EA921104EBCC044FEAD13773
:101490004FEA826206FB07FC42EA90124FEA806044
:1014A0004FEA1C4C0CFB0BF7D21B03FB0CF761EB58
:1014B00007010CFB0EF7B0EB074072EB17420CFB79
:1014C00008F734BFA2EB0742B2EB074261EB1741CA
:1014D0004FEA8C554FEA910704EB9C2406FB07FC6E
:1014E0004FEA1C4C0CFB0BF7B0EBC74072EB5732CA
:1014F00003FB0CF734BFA2EBC742B2EBC74261EB70
:1015000057310CFB0EF7B0EBC70072EB57720CFBB8
:1015100008F734BFA2EBC702B2EBC70261EB577109
:1015200015EB4C254FEA816141EA92114FEA826244
:101530004FEAD13742EA901206FB07FC44F100045F
:101540004FEA80604FEA1C4C0CFB0BF7D21B03FBED
:101550000CF761EB07010CFB0EF7B0EB074072EBE9
:1015600017420CFB08F734BFA2EB0742B2EB07426D
:1015700061EB174115EB1C154FEA813141EA9241AD
:101580004FEA823242EA90424FEA80304FEA0C76CC
:1015900044F1000448EA03434EEA0B484FF0000EC2
:1015A000B2EB080C71EB030724BF624639464EEBE1
:1015B0000E0E4FF0000B0018524149414BEB0B0B44
:1015C000B2EB080C71EB03077BF1000B24BF624602
:1015D00039464EEB0E0E4FF0000B001852414941B8
:1015E0004BEB0B0BB2EB080C71EB03077BF1000B21
:1015F00024BF624639464EEB0E0E51EA020718BF71
:1016000046F0010616EB0E7655F1000254F100018A
:1016100003D5BDE88901BDE80088BDE88901BDE8C2
:101620000048B619524141EB0101A3F10103704793
:1016300080807F7E7D7C7B7A79787776767574730F
:10164000727171706F6E6E6D6C6C6B6A6A696868CE
:10165000676666656464636362616160605F5F5E64
:101660005E5D5D5C5C5B5B5A5A59595858575756DA
:10167000565555555454535352525251515050503F
:101680004F4F4F4E4E4D4D4D4C4C4C4B4B4B4A4A91
:101690004A494949484848474747474646464545D5
:1016A000454444444443434343424242424141410E
:1016B000002B9C4630D477002BD01CB54FEA37075F
:1016C00003B44FF010004FF01001BAF1000F06D034
:1016D000BCF1000FDCBF40F0080040F008014FF003
:1016E00000000FBCBDE810400BF1010BBBF1010F76
:1016F00008BF5FEA170722BF12F1010211F10101D1
:101700004FF0004143F1000300F0004043EA0000C5
:101710007047F9D35708D0E746EA064613F1400F61
:101720004FEA16461FDD13F1200FDFBF16430A46AE
:10173000002120335B42BED0C3F1200746EA0646B3
:1017400002FA07F74FEA164646EA0706C3F12007F2
:1017500022FA03F201FA07F721FA03F14FF000032E
:1017600042EA0702A7E746EA020646EA06464FEAC9
:10177000164646EA0106BCBF46EA0646360C4FF05E
:1017800000034FF000024FF0000194E72DE9804C78
:101790009A46934670B491E8380007C831EA400C85
:1017A00048BF34EA430C03D5FFF7E6FDFFF780FF9F
:1017B000F0BCBDE8008C2DE9804C9A46934670B48D
:1017C00091E8380007C810F0804F08BF13F0804F31
:1017D00003D100F005F8FFF76BFFF0BCBDE8008C0B
:1017E00020F07F4780EA030023F07F4C07EB0C03D7
:1017F000A3F57C5300F00040A3F1FE0392F0000F2C
:1018000000F0B38095F0000F00F077802DE90149DA
:101810004FEA11404FEA144621EA004800FB06FC5B
:1018200024EA064708FB06F607FB08F800FB07F763
:1018300018EB06484CEB164C4FEA124B18EB0748D6
:101840004FEA15464CEB174022EA0B4E0BFB06FC09
:1018500025EA06470EFB06F607FB0EFE0BFB07F715
:101860001EEB064E4CEB164C4FF000061EEB074EDF
:101870004CEB174B18EB0B0840F1000018EB0E0B6C
:1018800058EB000840F100008F1A4FF000013CBFF8
:10189000C943661B14BFB5EB040C00213CBFC94310
:1018A000F61B4FEA17444EEA8E0E27EA04454FEA2C
:1018B0001C4704FB07622CEA074C05FB07F70CFBEF
:1018C00005F604FB0CFC16EB074642EB174216EB41
:1018D0000C4642EB1C421BEB060658EB0202414150
:1018E00046EA9E0601D5BDE80189B619524141EB91
:1018F0000101A3F10103BDE801894FEA14454FEA54
:10190000114724EA054621EA074C05FB07F406FBCC
:1019100007F70CFB06F105FB0CFC11EB074144EB50
:1019200017444FEA124711EB0C4144EB1C4422EAE6
:10193000074C05FB07F206FB07F70CFB06F605FB59
:101940000CFC16EB074642EB174216EB0C4642EB3B
:101950001C456A1854F1000148BF7047B61952413E
:1019600041EB0101A3F10103704795F0000F37D05F
:101970004FEA11424FEA144721EA024624EA074C93
:1019800002FB07F106FB07F70CFB06F402FB0CFC5D
:1019900014EB074441EB17414FEA154714EB0C4495
:1019A00041EB1C4125EA074C02FB07F506FB07F754
:1019B0000CFB06F602FB0CFC16EB074645EB174545
:1019C00016EB0C4645EB1C42121951F1000148BFC1
:1019D0007047B619524141EB0101A3F10103704771
:1019E0004FEA14454FEA114724EA054621EA074C1D
:1019F00005FB07F106FB07F70CFB06F24FF00006AC
:101A000005FB0CFC12EB074241EB174112EB0C42B9
:101A100051EB1C4148BF7047921841EB0101A3F103
:101A20000103704772B64EF62250CEF2000040F22B
:101A3000FF01C0F200010170002080F3098840F22C
:101A40009400C2F20000016881F3088806F05CFB94
:101A500040F29F00C2F2000040F2A001C2F2000179
:101A60000A78027040F2BC00C2F2000040F2C001ED
:101A7000C2F200010A680260106880F30988EFF37F
:101A8000148040F0020020F0040080F31488BFF3BB
:101A90006F8FBDE8F04F0FBCBDE8005006BC62B6CA
:101AA000084726484FF080510160704772B640F2F7
:101AB0009802C2F20002116881F31188BFF34F8FC0
:101AC000BFF36F8F62B6EFF309801EF0100F08BFEF
:101AD00020ED108A20E9F04F40F2BC05C2F200056B
:101AE00029680860744606F00FFB40F29F00C2F2BE
:101AF000000040F2A001C2F200010A78027040F238
:101B0000C001C2F200010A682A6044F0040E1068A5
:101B1000B0E8F04F1EF0100F08BFB0EC108A80F351
:101B2000098840F20002C0F2000272B682F3118806
:101B3000BFF34F8FBFF36F8F62B6704704ED00E0C5
:101B4000002800DC4042704700BFFEE77047704746
:101B500070B504461D460023B5F5804F13D154F8E7
:101B600022300C480340D1E9000640EA06108E6896
:101B700040EA06208E8940EA06408E6930430343DE
:101B800044F8223003E06FF0704044F82200002057
:101B900070BD00000000F0CF10B5034600220868B9
:101BA00053F8202012480240D1E901042043CC68B8
:101BB00020430C6920434C6920438C692043CC6945
:101BC00020430C6A20434C6A20438C6A2043CC6A31
:101BD0002043CC6B20430C6B2043024388680828C9
:101BE00001D142F04002086843F82020002010BDD7
:101BF0008000F0FF30B503460024501C53F820400D
:101C000004F04044D1E9000540EA05108D6840EA3F
:101C100005208D8940EA0545088A401E45EA0055A1
:101C2000087D801E45EA00608D6928430443501CEE
:101C300043F82040002030BD2DE9F0430446C5683C
:101C400087B090468946002002F08EF8064625B1FE
:101C5000287910B146F0020001E026F0020002F0FF
:101C600083F82069012558B1D4E902128DE82600D5
:101C7000039563882288046841464846A0471EE0D1
:101C8000124F134B214638681B68427CE068984726
:101C900030B9E088012801D0002001E03868806B6D
:101CA000A288E388A1680095CDE90410CDE902324D
:101CB0000195638822884146484604F0A5FE07B096
:101CC0003046BDE8F04302F04FB80000DC000020D1
:101CD000CC0000201CB50024019401AC009400F05D
:101CE00001F81CBD2DE9F0478046444886B01646F1
:101CF00000680E9C1D46027E0F46012A1CD0A8EBF0
:101D00000600791B50EA010323D0A2F101090DF06E
:101D1000EBFE00F58060824603F051FD00FB09F404
:101D2000504603F051FD00FB09F1002C14DAC4F514
:101D300000708012404212E0012003F0A5FB2B4608
:101D400032463946404600940AF054FB002003F026
:101D50009BFB06B0BDE8F08704F50074A0120029D3
:101D600004DAC1F5007189124C4202E001F50071FC
:101D70008C12002804DD411C01EBD171491003E0F5
:101D800000EBD0714910401E00EBD0704210002CC7
:101D900004DD601C00EBD070401003E004EBD47055
:101DA0004010641E04EBD47308EB0104ADF804404A
:101DB0003C18ADF80640A8EB02045B10B21AADF86F
:101DC0000840ADF80C203144FC1AEA1AADF81010A6
:101DD0002844ADF80E20ADF812000023ADF80A40FB
:101DE0001A46042101A800F079F8394640460AF065
:101DF000E7FB294630460AF0E3FBAAE7DC000020B7
:101E0000064A13681A7E012A05D0521E02EBD272CE
:101E1000521000F005B81A6E52681047DC0000201E
:101E20002DE9F05F0646884640F2C32002FB00F130
:101E30004FF47A7091FBF0F702FB02F102EBD270E3
:101E400001EB600B1446B118234A301B7F1C12684B
:101E5000126E13680A4641469847012538E000BFD4
:101E600005FB05F004FB040159451CDDBC4219DDEE
:101E7000194B06EB050AA6EB05091B68AAF101023E
:101E800008EB04011B6E09F101001B689847124B17
:101E9000AAF10102A8EB04011B6809F101001B6E05
:101EA0001B689847641E0C4B3219301B1B68924606
:101EB00008EB05011B6E81461B689847064B52468E
:101EC000A8EB05011B6848461B6E1B6898476D1CF4
:101ED000BD42C5DDBDE8F09FDC0000202DE9FF4FCD
:101EE00043F6FF740F46664283B09B46814600214D
:101EF0000BE000BF09EB8100B0F90200A04200DA5C
:101F00000446B04200DD0646491CB942F2DB674890
:101F10000068406900280DD0B0F906101A46A1EB00
:101F20000B01B14200DA0E46B0F90200801AA0425D
:101F300000DD0446B4E0DFF878A100200546CAF8C9
:101F4000000088E0781E854201DA6B1C00E0002367
:101F500009EB850C09EB8302BCF90200B2F902100F
:101F6000A04244D1A14215D139F92330059A39F95B
:101F7000251003EB020C4D4A05981268084404EB47
:101F80000B01126E6045136801DA62462AE00246D0
:101F9000604627E02846A4464FF000087A1E0BE072
:101FA00008B1401E00E0781E09EB8003B3F902304F
:101FB000634504D108F101089045F1DB2346A342B3
:101FC00048D01A1B39F92500A1EB040C059B92EAB5
:101FD0000C0F09D4354A184404EB0B011268126E39
:101FE00013680246984735E008F084FA32E0A142CF
:101FF00030D001DBA04203DDA0422BDBA14229DC73
:10200000E04688420ADC0346A04223DC0846A1429F
:1020100020DBB8F900C0B2F9001008E00B46A1427D
:1020200018DCA04216DBB2F900C0B8F90010E21AC1
:10203000A1EB0C0151430029A0EB030202DD01EBEF
:10204000620102E0A1EB6201491CC01A91FBF0F0B1
:102050006044C9E76D1CBD42FFF674AF059800905F
:1020600004EB0B00019000208046054613E0114967
:10207000B8F1000F31F915A009D0009901EB0A025F
:1020800008440A490968096E0B680199984788F065
:10209000010850466D1C064909688D42E7DB641C47
:1020A000B4427FF748AF07B0BDE8F08FDC000020F6
:1020B000E4010020247D0020104810B5006801F0E4
:1020C00037FE0F48006801F03EFE012001F0C4FE1B
:1020D000002001F0CFFE002001F0DCFE00210846C8
:1020E00001F06CF8002001F03FFE0648006801F0A6
:1020F00047FEBDE81040002001F080BED80000205F
:10210000D4000020D00000202DE9F04FDFF828B1E6
:1021100091B04FF0FF35DBF80030B3F92210069193
:10212000DE69B3F92490F469A189814206D8E28975
:10213000824203D3471AD4F8008012E0D4E9018127
:1021400000296FD00A8882426CD84D88854269D3B5
:10215000801A82B2486800EB8200B0F90070B0F9D2
:102160000250781C5ED0307EA17C10FB01FA217CED
:10217000CDE90701B3F92A60304605F0BDF8C0B2D9
:102180000E90DBF8000007FB0A81A37C826B01271D
:10219000CDE90412CDE90273C069089AC17E807E40
:1021A000CDE90001DDE90603494604F02DFC681C79
:1021B00018D046F0020005F09FF8DBF80000A37C81
:1021C00005FB0A81826BCDE90273CDE90412C06977
:1021D000089AC17E807ECDE90001DDE9060349460B
:1021E00004F012FCDBF800005D46C069417E007E11
:1021F000814214D9022E12D086F0040005F07CF83A
:102200002868C069027EC37E12FB0391437E857EEF
:10221000089A06984B4412FB050204F081FD0E98C3
:1022200005F06AF8DBF80000627C418C11444184BF
:1022300011B0BDE8F08F0000DC0000200448006809
:10224000C069C06909B1027C0A60407C7047000027
:10225000DC000020022008807047C06982898A4221
:1022600002D8C2898A4210D2806880B102888A422C
:102270000DD843888B420AD3406800EB8100A0EB65
:102280008200B0F90000002801DB01207047002027
:10229000704700002DE9F043334C034687B02068B7
:1022A0001946B0F92A60C069C06900F090F80028AA
:1022B00053D041680088181A01EBC0053046AF784A
:1022C00005F01AF8814620686A680123816BCDE920
:1022D0000237CDE90421C169CB7E8A7ECDE9002396
:1022E0000B7EB0F924102A78B0F9220004F08CFBA0
:1022F0002068C069417E027E91421FD9C07E11FBD9
:1023000000F812FB00F7022E18D000F0E3FE06469C
:1023100000F0AEFE01F017FD21682A78CB69B1F913
:102320002200DB7E12FB0302B1F9241001EB08034B
:10233000394404F0F5FC304601F005FD484604F050
:10234000DBFF20686A78C369B0F922109B7E12FB1C
:102350000311418407B0BDE8F08307B03046BDE803
:10236000F04302F081BE0000DC00002070B5114C8B
:1023700005460B4620682946C069C06900F027F869
:1023800098B14168008824682A1A0120E46900EBAA
:10239000C200085CA47E10FB04F0002B04D011F8EE
:1023A000321011FB04F1196070BDBDE8704003F0FC
:1023B00005B80000DC00002001200880704700B54F
:1023C000C06900F004F8002800D0012000BD06E03C
:1023D00002888A4202D842888A4202D28068002853
:1023E000F6D170472DE9F0410025144E144C17E04A
:1023F0002069C5EB051700EBC7007022001D31688E
:10240000FEF713FA2069002140F8371000EBC700EF
:1024100000F10C018161011DC163091D6D1C016486
:10242000A0688542E4DB0BF075FA2169C0EB00106F
:1024300001EBC000001D3060BDE8F081DC00002031
:102440000002002070B510490E480860084603F0ED
:1024500055F90D4C143CA068C0EB0010C50028468F
:1024600000F06EF8094B20612A461B68002198474E
:102470004FF0FF30206002F0F1FABDE870400BF041
:1024800049BA0000D1DD000814020020B801002084
:1024900010B5040009D000F0DFFE204608F090F8E7
:1024A000044602F075FA204610BD002010BD000061
:1024B00038B5054600F0D0FE2846FFF7E9FF0400D6
:1024C0000AD000F0BDF8064B00902A461B68002198
:1024D0009847684600F0E4F802F05AFA204638BD02
:1024E000B8010020024A106021F0030050607047DC
:1024F000687C002010B5040011D000F0ADFE084843
:10250000042101EBC401406B4158486808F010F801
:1025100020460BF0C1FDBDE8104002F039BA10BDF5
:10252000A87B0020002808D00449CA6B0260002262
:102530004260026802B15060C8637047A87B002007
:102540002DE9F04104460BF0CBFA2848E41C24F0B6
:102550000305016C2D1DA94200D90D46C46B13E083
:1025600054F8042CAA420ED184B1216809B16268E2
:102570004A60616809B122680A60C26BA24231D127
:102580002168C1632EE02468002CE9D18046816B6C
:10259000C0680F1857F8040C3E1A306838B1002094
:1025A0000BF082FE57F8040C3E1A3068D0B9706800
:1025B000A84217DB3044441B3046241D0BF02CFE90
:1025C000D8F80C10491BC8F80C10D8F8141029447E
:1025D000C8F814107068401B02D0314607F0A8FFFD
:1025E00044F8045C2046BDE8F0810000A87B002090
:1025F00010B500240BF074FA0C490F2001EBC00257
:10260000526C1AB101EBC000406C08E0401EF5D5D9
:1026100008E04168A14200D90C46806810B180688A
:102620000028F6D1A4F10C0010BD0000A87B00200A
:1026300002488169491C816170470000A87B002025
:102640000549CA69521CCA61496B01EBC0010A788D
:10265000521C0A7000F03CB8A87B002010B500F0B6
:10266000FBFDFFF7C5FF64220849B0F5800F04D9D0
:1026700090FBF2F4086A444303E0096A4143B1FB6A
:10268000F2F402F085F9204610BD0000A87B00207E
:1026900002488169491E816170470000A87B0020C3
:1026A0000A4902684B6B52F8082C03EBC2021378FC
:1026B000022B03D3CB690BB15B1ECB611178491E92
:1026C000117000210160084670470000A87B0020BF
:1026D0000349042202EBC000496B085808307047D8
:1026E000A87B0020524202F0FCBF00002DE9FC5FF5
:1026F0008946044600F0B0FD484600F0F7FC2C4E39
:1027000009EB8907824656F82700019029484FF0C7
:102710000108016841B92749C0F80080091D264811
:102720000860084602F0EAFF214A09EB8901BAF184
:10273000000002EB81051BD001F0DEFA83464FF06A
:102740007F4001F0F5FA00F0B9F800221146206848
:1027500000F086FB206842880188504601F030FB7B
:1027600046F8274085F80480584601F0C5FA17E07E
:1027700046F8274085F804802869464618B101F0DC
:10278000EBF90020286174B10096E868A1684B4617
:10279000421AA8686168411A206801F037FA286176
:1027A00048460CF02BFA02F0F3F80198BDE8FC9FC4
:1027B000E47C002044010020B1DD000870B514461F
:1027C0000D46064600F048FD204600F08FFC030051
:1027D000174804EB840109D050F821004168806853
:1027E000711A2A1A184601F0DBFA1CE000EB81048A
:1027F000A268B24201D0012200E00022E368AB42AD
:1028000001D0012300E000231A430CD0236943B117
:1028100050F82100816840686A1A311A184601F0A0
:10282000C0F9C4E90265BDE8704002F0B1B800002B
:10283000E47C002002480068407C00F003B80000FF
:10284000DC00002010B5044600F006FD0A4804EB49
:10285000840100EB810301221A7150F8210030B18C
:1028600020460CF0CBF9BDE8104002F091B82146AB
:102870000248FFF73BFFF6E7E47C0020BCBA010802
:1028800010B5C2B2CBB2D21A00D5524293B25B435A
:10289000C0F30722C1F30724121B00D55242000CDB
:1028A00092B2A0EB114002FB023200B2002801DA22
:1028B000404200B280B200FB002010BD10B50021E4
:1028C000084600F07BFC43F6FF725042BDE8104022
:1028D00013460146AFF300802DE9FC411C46154626
:1028E0000E46074600F0B8FC042004F005FD8046C3
:1028F00012484069816CC06C0F4406440D44044486
:10290000ADF80070ADF80450ADF80260ADF80640C7
:10291000684607F0B1F907E023462A4631463846B3
:1029200004F0FEF907F06AF90028F5D1404604F0FA
:10293000E3FC02F02DF8BDE8FC810000C800002097
:102940002DE9F0411C4616460D460746022B02DBD8
:102950000020BDE8F0811C20FFF7F2FD0028F8D030
:102960000DB105610AE0094A52F8241009B905E0E1
:1029700011460A68002AFBD10969016184618682D7
:10298000002101604160C0E90217E2E71401002064
:1029900070B51D46FFF7D4FF040009D000F00EF813
:1029A000E068006820B90348006800EB85004465D2
:1029B000204670BDDC000020FFF7B4BD70B5C0B389
:1029C0008269022A36DA2149531C0C789C4200DACB
:1029D0000B701F4C54F8221019B944F8220032E051
:1029E00019464B68002BFBD106E0CB68C5681B6815
:1029F0002D68AB4203DD09680029F6D11AE0C1B1A8
:102A0000CB68C6681B683668B3420CD1838A012B39
:102A100005D008E01946DB681B68AB4203DB0B6896
:102A2000002BF7D129B14B6833B118604A68426076
:102A300004E0FFE7012070BD44F8220048608842AE
:102A400000D100210160002070BD00003A0100208B
:102A50001401002010B503E00468FFF7AFFF204623
:102A60000028F9D110BD000010B50C4B826900217F
:102A700053F82240844205D1046843F8224002689A
:102A800002B1516042680AB10368136002680AB17A
:102A9000436853600160416010BD000014010020D4
:102AA00000207047022801DB00207047054951F8DB
:102AB000200004E0C16809680029F6D000680028F9
:102AC000F8D17047140100202DE9F041044601F0CF
:102AD000B1FF0619164F1FE000F012FA3868844261
:102AE00000DD0446A04600F0B7FB12480568FFF77A
:102AF0009FFD2C0017D000BF01F04AFF641EFBD1E0
:102B0000404601F077FF1DB100F0A6FB6D1EFBD122
:102B1000FFF7BEFD01F03CFF01F08CFF341A002CE2
:102B2000DADCBDE8F081404601F064FFF0E7000028
:102B3000540100200C0200202DE9FC4706005FD064
:102B400000F08AFB00F0DCFA3C4C81462068B0F9CA
:102B5000228000F005FB216807468A8CD01B888400
:102B600041E000BF47F6FF71304602F00BFC8246A1
:102B70000146304602F0D8FB2168054691F82C004A
:102B800000F00300012841D002283BD000204A8CED
:102B9000101A4884ADF800006A1E1044ADF8040015
:102BA000888CADF80200A9F101010844ADF80600D7
:102BB0006A465146304602F00BF92168BDF8020022
:102BC00088845146304601F0D1FD064430780A2809
:102BD0001ED00D281CD0BDF8000021682844488470
:102BE000307818B1761C30780028BBD12068818CF1
:102BF00039448184818D21F00301818501F0C8FE73
:102C0000BDE8FC8705EBD5704010C0E72846BEE75D
:102C1000206890F82C1001F0030101290BD0022943
:102C200009D0018C418431780A29D9D1828C02EBF8
:102C300009018184D4E7A0F82280F4E7DC000020B9
:102C400070B514460D46064600F006FB05480068C0
:102C5000458484843046FFF76FFFBDE8704001F083
:102C600097BE0000DC0000202DE9F04107460A482D
:102C700015460E460068B0F92C0040F0020001F045
:102C8000F9F804462A4631463846FFF7D9FF204670
:102C9000BDE8F04101F0EEB8DC0000202DE9FF4F67
:102CA00087B006004FF0000091460C46029003905A
:102CB0007ED000F0D1FA2568676829B238B2401A90
:102CC000401CB346019000F01BFA804619F00C0F2F
:102CD0001ED030460A9A019901F064FE09F00C01F9
:102CE000042904D0082902D00C2911D104E03A1497
:102CF00000FB1820401C09E02914C1EB274300FB0E
:102D00001830401C00EBD07001EB600060F31F45F1
:102D1000204606F0A5FE009048B1CDE904570246D2
:102D2000214604A802F087FB04A806F099FEA8F14A
:102D3000010A30460A9A019902F0F2FC06900AEB69
:102D4000254060F31F47CDE902573046069902F04F
:102D5000EBFA19F003010FD0012978D002290ED126
:102D6000B4F90420B4F90010521A101A401C00EBF8
:102D7000D07001EB600000E02088ADF8080002AAE6
:102D80003046069902F024F83348007888B3334877
:102D9000006890F82A0080072BD45E450ED1BDF95B
:102DA0000A30B4F902108B4208DDB4F9042000E0C7
:102DB00049E0B4F900005B1EFFF78EFDBDF9082065
:102DC000B4F90000824206DDBDF90E30BDF90A10EB
:102DD000521EFFF781FD2148B4F904200068B0F9C4
:102DE0002200904205DCBDF90E30BDF90A10FFF754
:102DF00073FD30460A9A019902F088FC064408EBFC
:102E0000254060F31F453078002892D112480078A1
:102E1000A0B11248006890F82A0080070ED45E45E1
:102E20000CD0BDF90E10B4F90630994206DAB4F9A7
:102E30000420B4F90000491CFFF74EFD009806F08D
:102E40000FFE01F0A5FD0BB0BDE8F08FFFE7A188F4
:102E5000081A401C91E7000050010020DC0000200F
:102E60007CB514460D46064600F0F6F91148006898
:102E7000816CC06C0D4404443188681E0844ADF870
:102E80000400ADF800507188601E0844ADF80600DB
:102E9000ADF80240684606F0EFFE06E022462946FD
:102EA0003046FEF7C9FE06F0A9FE0028F6D101F073
:102EB0006FFD7CBDDC0000202DE9F0411C4615466D
:102EC0000E46074600F0C8F90C480168886CC96CCA
:102ED000074405440E440C44002006F0CDFE07E0F4
:102EE00023462A4631463846FEF7F4FE06F086FEB3
:102EF0000028F5D1BDE8F04101F04ABDDC0000201A
:102F000010B5002400E0012400F004F80028FAD1F4
:102F1000204610BD0B4810B50068002410B1804752
:102F200000B1012406F01AF900B101240648006836
:102F300010B1804700B101240448006800B1804707
:102F4000204610BDE800002020010020E000002005
:102F50002DE9FC411C4615460E46074600F07CF95B
:102F600010480068816CC06C0F4406440D44044452
:102F7000ADF80070ADF80450ADF80260ADF8064051
:102F8000684606F079FE07E023462A463146384671
:102F900003F0C6FE06F032FE0028F5D101F0F8FC81
:102FA000BDE8FC81DC000020B0F90630B0F9042057
:102FB000B0F90210B0F90000FFF7CABF08B50B4620
:102FC000002805D0009281888268C08800F001F84E
:102FD00008BD10B50828029C30D008DC04FB01F4C1
:102FE00001280AD0022813D0042804D11CE010289C
:102FF00028D020282CD0002010BD04EBD30003F0F3
:103000000701105CC1F10701C84000F0010010BDCC
:1030100004EB93000621105C01EA4301C1F10601B3
:10302000C84000F0030010BD04EB5300D907105C4A
:1030300002D000F00F0010BD000910BD04FB0130EC
:10304000105C10BD481004FB003032F8100010BDB9
:10305000881004FB003052F8200010BD034951F8DD
:103060002000C1688A6A082110470000140100206E
:1030700010B500F0F1F803F083FE03F035FF0446CD
:1030800001F086FC204610BD10B5044600F0E4F8BF
:10309000054800210068C069426820469047044600
:1030A00001F076FC204610BDDC00002070B50C4617
:1030B000054600F0D1F8064821460068C06942681C
:1030C00028469047044601F063FC204670BD00008E
:1030D000DC00002010B500F0BFF803F059FE03F04B
:1030E00003FF044601F054FC204610BD00210228D5
:1030F00002D2024951F8201008467047F80100201A
:1031000010B500F0A9F804480068C069447E01F0D9
:103110003FFC204610BD0000DC00002070B51546C5
:103120000E46044600F098F82A463146204603F041
:1031300063FE040002D000203060286001F028FC0B
:10314000204670BD70B50C46054600F085F8214656
:10315000284602F039F9BDE8704001F019BC0000C2
:1031600010B5002400F078F80B48006890F82C1097
:1031700001F00C01042904D0082906D00C2907D13C
:1031800003E0C069047E641E02E0C069007E44085A
:1031900001F0FEFB204610BDDC000020024951F882
:1031A000200000690068704714010020024951F8AE
:1031B00020000069406870471401002070B50C467B
:1031C000054600F049F8044800684584848401F00D
:1031D000DFFB002070BD0000DC00002070B501F0B6
:1031E00027FD1B4C2E20207001F02AFC19480AF004
:1031F0001DFC03F09FFE054603F026FEC0B100262D
:1032000003F036FEB0B10020064307D003F039FECC
:10321000064603F022FE314604F068F80021084615
:1032200000F0FAFD06F0EAF9FFF7DCF8606B09E060
:103230000126E5E70120E7E7006800B18047606B01
:10324000406860630028F7D10120A070284670BD57
:10325000C8000020747C002070B5184CE06820B1D4
:1032600001F0E0FB6168884204D001F015FC01F038
:10327000D9FB6060E068401CE06001281CD10AF0C6
:1032800049FB05462068854216D0002813DBFFF76E
:1032900007FC01462068C0EB0012206900EBC20267
:1032A0005167C5EB0511064A00EBC100011D116015
:1032B000406FFFF7CFFB256070BD000000020020CB
:1032C000DC0000201CB5040004D10E480068C46D69
:1032D000002C16D0FFF7C0FF2046FFF7B1F9009091
:1032E00044696846FFF7DCF94CB12046FFF7A8F9BE
:1032F000019081688968884701A8FFF7D1F901F03A
:1033000047FB1CBDDC00002001490A4600F002B862
:1033100001F0FFFF2DE9F04387B015460C465FEA48
:10332000000846D0FFF798FF002000F01DFD814601
:1033300021480068C66D4046FFF782F9009000689A
:10334000806900F0D9FC074640F6FF70C44204D102
:103350000098B0F90440B0F906500098611E028947
:10336000ADF804401144ADF808104189681E0844C6
:10337000ADF80650ADF80A0005F038FD6846FFF7D5
:103380008FF901A806F078FC06E02A46214640465F
:1033900000F0D0FA06F032FC0028F6D1384600F0F2
:1033A000ABFC304600F090F9484600F0DDFC01F03F
:1033B000EFFA07B0BDE8F083DC0000202DE9FE4FF6
:1033C000984691468A46834600270C9EFFF744FFA5
:1033D000184819490068407C51F82040E1680968A4
:1033E000042903D02468002CF8D100E01CB9FFF7B1
:1033F00059FB041E1BD0E0680121C26A2046904799
:10340000050011D02469A0688047401C02D10B4CF4
:1034100046F001060096CDE9015443464A4651461E
:10342000584600F0E5F9074601F0B2FA3846BDE823
:10343000FE8F0000DC0000201401002038BC0108D1
:1034400038B504001CD0FFF707FF0E480068C06DB8
:10345000A04201D100F042FC2046FFF7F1F80090B5
:10346000406908B101F07DFA00980068FFF7A4FAFE
:103470006846FFF715F92046FFF73CF801F088FA97
:1034800038BD0000DC0000202DE9FF4F83B09A46D4
:103490008B460746FFF7E0FEDFF83891D9F80000C9
:1034A000447C4D4800570128204606DD03F0D2FC3D
:1034B0000546204603F0E2FC05E003F0B3FC0546B8
:1034C000204603F0B5FC04461FB302A901A8FFF78C
:1034D00039FEB7F90000002800DA0020B7F90260D1
:1034E0008046002E00DA002601984119B7F9040041
:1034F000491E0AF0EBFB054602980119B7F90600D0
:10350000491E0AF0E3FBA5EB0802841B521C641C55
:1035100003E04FF0000846462A46BAF1000F01D1F9
:10352000C4F1000A002A51DD002C4FDD10980090F4
:10353000534631464046FFF741FF5FEA000A10D08C
:1035400000F07CF80746A04206D0D9F80000406C95
:1035500010B1322106F00CFF504600F0B5F80025FE
:1035600023E059460598884701F012FA012007B078
:10357000BDE8F08F611BB94202DA504600F088F8CE
:103580003DB172194146504600F0C6F85046FFF76B
:1035900099FE5946059888471048016809B10020EE
:1035A00088475046FFF7B0FE3D44A542E2DB504657
:1035B000FFF746FF002000F087F8A74206D0D9F8B1
:1035C0000000406C10B1332106F0D2FE01F0E0F9AA
:1035D0000020CCE7DC000020380100204C03002054
:1035E00038B505004FF0000411D0FFF735FE28462E
:1035F000FFF726F80090006800698068804704F0B3
:10360000BBF804466846FFF74BF801F0C1F92046C5
:1036100038BD38B504000ED0FFF71EFE2046FFF778
:103620000FF800F1180400906846FFF739F801F030
:10363000AFF9204638BD002038BD000038B504463B
:103640000025FFF709FE1CB908480068C46D44B1A5
:103650002046FEF7F5FF0090B0F90A506846FFF7E4
:103660001FF801F095F9284638BD0000DC00002065
:1036700070B505460024284607F00AF9641C18B105
:10368000BDE8704000F07AB8052CF4DB70BD000096
:1036900038B50C46050004D10A480068C56D002DF8
:1036A0000FD0FFF7D9FD2846FEF7CAFF0090B0F90A
:1036B0000A10A14200DD44816846FEF7F1FF01F0E7
:1036C00067F938BDDC000020F8B50546FFF7C4FDFA
:1036D000104E3068C46DCDB10CB100F0FFFA05F0AA
:1036E0007BFC2846FEF7ACFF00903168CD65006892
:1036F000FFF764F96846FEF7D3FF03F06FFE03F0AF
:10370000D5FD00BF01F044F92046F8BD00F0E6FA0F
:10371000F8E70000DC0000207CB515460E460400EA
:1037200004D115480068C46D002C24D0FFF794FD27
:103730002046FEF785FF2DB20090C58034B284800C
:1037400003F0B4FD0098406980B1FEF779FF009A5C
:103750000190B2F908108180B2F90A20C28011B13B
:103760000AB10480458001A8FEF79AFF6846FEF77B
:1037700097FF01F00DF97CBDDC00002001490A46ED
:1037800000F002B801F0FFFF7FB515460C460600B9
:103790002DD0FFF761FD3046FEF752FF40F6FF7176
:1037A0000190CC4203D1B0F90440B0F9065002892F
:1037B000611E1144ADF80840ADF80C104189681E37
:1037C0000844ADF80E00ADF80A5001A8FEF768FFF6
:1037D00002A806F051FA06E02A462146304600F0DB
:1037E00091F806F00BFA0028F6D101F0D1F87FBD70
:1037F0002DE9FF4FDFF8E8B083B01C46DBF800107E
:10380000DDE9106092464FF000084B7C4246129969
:10381000FFF796F8050060D028698068804703F0BC
:10382000ABFF81460AFB09F1C91DCF08FEF716FF61
:10383000F10705D1C11700EB9170801000EB40003B
:10384000002C09DC1FB11838B0FBF7F000E00020B5
:103850006442A04200DC0446F00707D10090DDE995
:1038600003012346524601F001F88046002C03DC98
:103870002846FFF7A1F830E004FB07F01830F10705
:1038800002D0FEF705FE01E0FEF712FE06001CD096
:10389000FEF7D6FE01900560039981800499C180EE
:1038A000A0F808A04481C0F81480C0E9037901A8F9
:1038B000FEF7F6FE1298AE602861DBF80000407C4F
:1038C000A861304607B0BDE8F08F2846FFF774F8CE
:1038D000B8F1000001D0FEF70DFE0020F2E7000075
:1038E000DC000020054B30B41B68054C5B7C54F8B1
:1038F00023301B6930BC0BF09FBB0000DC000020B4
:1039000014010020F8B515460E460746FEF798FE4E
:10391000009000681621C068426A00209047044663
:103920006846FEF7BDFE002C03D02A4631463846D5
:10393000A047F8BDF8B516460F46050012D0FEF7B1
:103940007FFE009044696846FEF7AAFE2846FFF70E
:1039500047FE0346082800DD2CB13246394628468A
:103960000BF034FCF8BD3246394628460BF0CEFD4C
:10397000F8BD10B5002821D009B30AB3B1F9004051
:10398000B2F900309C4200DA23460380B1F90240CC
:10399000B2F902309C4200DA23464380B1F9044078
:1039A000B2F904309C4200DD23468380B1F9061051
:1039B000B2F90620914200DC1146C18010BD1146CB
:1039C0000A6802604968416010BD00280BD0038876
:1039D0000B440380838819448180418811444180CD
:1039E000C1881144C180704770B50E4D0446D5E9B9
:1039F0000001884209D10C49884201D13C3000E0E5
:103A00000C3807C884E8070006E090E80E0084E858
:103A10000E0009F0ABFF2860207A002800D00120BA
:103A200070BD000000030020DC7D00200448D0E9C8
:103A30000010814201D10120704700207047000032
:103A40000003002010B509490446086820B9084859
:103A50000860084601F052FE074906480860204603
:103A60000BF0E4F9BDE8104000F024BA1003002088
:103A7000ADDE00085D9200082401002070B500252D
:103A8000FFF7EAFB094CD4E9002082420AD0D2E9D0
:103A90000056104609F074FF20603146284605F0B4
:103AA000B1FE012500F074FF284670BDE80100203A
:103AB0002DE9FC41154DDDE908742D68B5F9086064
:103AC000864200DD3046B5F90C60964200DA324697
:103AD000824219DBB5F90A608E4200DD3146B5F944
:103AE0000E509D4200DA2B468B420DDB00E02C4647
:103AF000E5682D6825B1042D02D02568002DF6D18A
:103B0000CDE9007403F0BCFABDE8FC81DC000020C4
:103B1000B0F90220B1F906309A4213DCB1F9022063
:103B2000B0F906309A420DDCB0F90020B1F904304A
:103B30009A4207DCB1F90010B0F90400814201DCBF
:103B4000012070470020704701460248702200683B
:103B5000FCF76BBEDC00002038B5040020D0FFF776
:103B60007BFB20460BF0A0F920460BF015FA20460F
:103B7000FEF766FD00900068FEF7D4FC0098C06870
:103B8000FEF7B8FC0098C069FEF7B4FC6846FEF783
:103B900087FD2046FEF7AEFCBDE8384000F0F8BED9
:103BA00038BD70B515460E4604000AD0FFF754FB29
:103BB0002A46314620460AF0ADFDBDE8704000F0CF
:103BC000E7BE70BD38B504001ED0FFF745FB2046A8
:103BD000FEF736FD0090007C800710D420460AF0E6
:103BE0000DF86846FEF75CFD20460BF021F82046F4
:103BF000FEF726FD0090018A41F00201018268462D
:103C0000FEF74EFD00F0C4FE38BD00002DE9F8437C
:103C100004460088089F91468846E8B36088D8B378
:103C2000E06818B1806800283BD002E0E0882028D6
:103C300036D107F0010200212348FEF781FE05007E
:103C40002ED02088860060884643FFF705FB06F1EA
:103C50002000FEF72DFC060025D03046AE60FEF7B2
:103C6000EFFC009007824461A0F80480A0F8069061
:103C7000238808EB0301491E018161884944491EDC
:103C8000418105606846FEF70BFDE06878B121468A
:103C9000304606F013FF00E002E040B100F078FE8D
:103CA0000020BDE8F8832846FEF786FEF6E7B80751
:103CB00005D5304609F0A2FF30460AF0B9FF00F002
:103CC00067FE3046EDE70000C8BA010802497022DD
:103CD0000968FCF7AABD0000DC00002010B5FFF762
:103CE000BBFA03F099FA03F079FB05F07FF8BDE821
:103CF000104000F04DBE000070B50B4D0446286822
:103D0000467CFFF7A9FA022C09D22046FEF7CAFE2C
:103D100028B128684474FFF7E1FF0448046000F00C
:103D200037FE304670BD0000DC000020700200202D
:103D300010B50446FFF790FA204603F08DFABDE86F
:103D4000104000F025BE10B50446FFF785FA204666
:103D500003F0BAFABDE8104000F01ABE01498860CD
:103D600070470000C800002010B50446FFF774FA41
:103D7000204603F0C1FA044600F00AFE204610BDBA
:103D800070B50446FFF768FA04480068C56904B1D5
:103D9000C46100F0FDFD284670BD0000DC0000207D
:103DA00070B514460D460646FFF756FA22462946D8
:103DB000304603F0BDFA044600F0EAFD204670BD2F
:103DC00070B514460D460646FFF746FA22462946C8
:103DD000304603F0C3FA044600F0DAFD204670BD19
:103DE00070B50C460546FFF737FA2146284603F022
:103DF000E1FA044600F0CCFD204670BD70B50546E2
:103E0000FFF72AFA03480068847E857600F0C0FD3B
:103E1000204670BDDC00002070B50C460546FFF75B
:103E20001BFA0948224605800848048008480068B3
:103E3000417C084850F82100C1680B6A2946984720
:103E4000BDE8704000F0A4BD400100204201002008
:103E5000DC0000201401002070B50546FFF7FCF9D6
:103E600003480068047E057600F092FD204670BD90
:103E7000DC00002070B50446FFF7EEF90448006846
:103E8000B0F92C50848500F083FD284670BD0000F9
:103E9000DC00002070B50446FFF7DEF90448006836
:103EA000B0F92A50448500F073FD284670BD00002B
:103EB000DC00002002480068002800D0004770475E
:103EC0003C0200200249CA6802B9C860FFF7F2BF8D
:103ED000E801002010B504000ED0FFF7BDF9204620
:103EE0000AF0B4F920460BF063F82046FEF702FB17
:103EF000BDE8104000F04CBD10BD38B50C460500C3
:103F000011D0FFF7A9F92846FEF79AFB00908089A7
:103F1000204201D0012400E000246846FEF7C0FBE7
:103F200000F036FD00E00124204638BD38B50546D6
:103F3000002028600648046844B12046FEF780FB54
:103F40000090006928606846FEF7AAFB204638BD4D
:103F50002003002038B504004FF000000D46086033
:103F600011D02046FEF76CFB0090846844B168468F
:103F7000FEF796FB2046FEF763FB00900069286081
:103F80006846FEF78DFB204638BD00002DE9F04F56
:103F900000242DED028B9BB0DFF800B4DDE9266A2A
:103FA000DDF8A090A6469FEDFE0ACBF8004002285F
:103FB00039D009AD6F460DF10C0C03287EDB00BF34
:103FC0004FF0000469D100BF53F8248000EE108A3E
:103FD0000DF1180808EB8408B8EEC00A88ED000A55
:103FE00056F8248000EE108A05EB8408B8EEC00A6B
:103FF00088ED000A51F8248000EE108A07EB84084F
:10400000B8EEC00A88ED000A52F8248000EE108A4B
:104010000CEB840804F10104B8EEC00A844288ED78
:10402000000AD1DB42E148680968401A00EE900AB4
:10403000D3E90010F8EEE01A401A00EE900AD948D1
:10404000F8EEE00A81EEA01A00EE901AF8EEE00A0F
:1040500080ED001A61EE600A80ED010AC0ED020AEF
:1040600080ED030A51681268891A00EE101AD6E929
:104070000012B8EEC01A521A00EE102AB8EEC00AAA
:10408000C1EE000A00EE101AB8EEC00AC0ED040A34
:1040900020EEC00A80ED050A92E10CEB840888ED61
:1040A000000A07EB840888ED000A05EB840888ED18
:1040B000000A0DF1180808EB840800E0B5E1641C63
:1040C00088ED000A032CE8DB002794E053F8275022
:1040D000DDED080A00EE105AB8EEC00A30EE800A94
:1040E0008DED080A56F82740DDED0B0A00EE104A68
:1040F000B8EEC00A30EE800A8DED0B0A51F8278029
:10410000DDED020A00EE108AB8EEC00A30EE800A39
:104110008DED020A52F827C0DDED050A00EE10CA47
:104120007F1CB8EEC00A30EE800A8DED050A00EE65
:10413000105ADDED060AB8EEC01A00EE105AB8EEBD
:10414000C00A41EE000A00EE105AB8EEC01A00EEA6
:10415000104ACDED060ADDED070AB8EEC00A41EEC1
:10416000000A00EE104AB8EEC01A00EE104ACDED7B
:10417000070ACDED090AB8EEC00ADDED0A0A41EEE4
:10418000000A00EE105AB8EEC01A00EE108ACDED0B
:104190000A0ADDED000AB8EEC00A41EE000A00EEA0
:1041A000104AB8EEC01A00EE108ACDED000ADDED1F
:1041B000010AB8EEC00A41EE000A00EE105AB8EE4D
:1041C000C01A00EE10CACDED010ADDED030AB8EE0B
:1041D000C00A41EE000A00EE104AB8EEC01A00EE26
:1041E00010CACDED030ADDED040AB8EEC00A41EEB7
:1041F000000ACDED040A8742FFF668AFDDED060A3E
:104200009DED080A80EE801A8DED061A9DED071AC5
:10421000DDED0B0AC1EE201ACDED071A9DED091A4E
:10422000C1EE001ACDED091A9DED0A1AC1EE201A51
:10423000CDED0A1A9DED001AC1EE001ACDED001A5F
:104240009DED011AC1EE201ACDED011A9DED031A64
:10425000C1EE001ACDED031A9DED041AC1EE201A2D
:1042600001EE100AB8EEC11ACDED041AC0EE011A23
:1042700000EE100AB8EEC00A80EE801A00EE100AB6
:10428000CDED081AB8EEC00A8DED0B1ADDED020A6D
:1042900080EE801A00EE100AB8EEC00A8DED021A08
:1042A000DDED050A80EE801A8DED051ADDED061AAA
:1042B000DDED080A9DED0A5A9DED0B2A71EEE05ADC
:1042C0009DED071A75EE424A9DED093A31EE604ABE
:1042D00025EEA40A73EE423A04EE630AB5EEC00A74
:1042E000F1EE10FA04D3B5EEC00AF1EE10FA6BDD70
:1042F000DDED006ADDED022A9DED016A294836EE0A
:10430000E27A76EE627A27EE248A07EEE38A67EE97
:10431000A57A47EE447AC8EE008A87EE807AC0ED2F
:10432000008A80ED017A20EE867A01EE627A61EEF3
:10433000A22A40EEE62A27EE037A05EE227A61EE03
:10434000262A41EEC62A02EE227AC7EE002AC0EDE6
:10435000022A9DED036ADDED052A76EE626A66EEBD
:10436000A47ADDED044A34EEE27A47EE637AC7EED2
:10437000803AC0ED033A67EE253A46EEC43A83EE42
:10438000804A60EEA43A41EE623A61EEA22A40EE23
:10439000C62A23EE833A80ED044A05E0200200207D
:1043A00000000000A07D002061EE060A05EE223A22
:1043B00041EEE40A02EE203AC3EE000AC0ED050A1F
:1043C0000120CBF8000002E0BEF1000F2DD05C46CA
:1043D0000021C4E901A9084609F01CFC0021E060A5
:1043E000084609F045FC2061A9F10101AAF101008C
:1043F00009F010FC6061A9F10101AAF1010009F0C6
:1044000037FCA0616269E168914201DDE2606161AF
:104410002169814201DDA1612061206828B100206D
:104420001BB0BDEC028BBDE8F08F0120F8E7000067
:104430002DE9FE43DFF8B89005000A9ED9F814C0B4
:104440004FF00000CCF3410709F1300439D0012DC1
:1044500002D00120BDE8FE83DFF8948008F1200837
:10446000C8E90012052131EA0C013ED0012F3CD0F1
:10447000C4E90036012199F80030A9404A461942A2
:1044800001D00023137013781943C9B289F80010C2
:104490000329DFD1174E3068407C02F0DBFC054673
:1044A0003068407C02F0EAFC114B0094CDE90150E9
:1044B0002833A3F10802A2F108010220FFF766FDEC
:1044C000C8E7DFF82C80032F08F11808C8E90012AC
:1044D00008F1100106D00CF00502012A02D0C1E952
:1044E0000036C7E7C1E90063C4E7C4E90063C1E778
:1044F00058010020DC00002010B50B46044600F0F7
:1045000097F8216800290BDB1A68002A08DB054BA5
:104510005C68A14204DA99688A4201DA002800D076
:10452000012010BD2002002070B5254C86B06078B7
:10453000F8B100F0BFF8E06000F0BAF8E06803906E
:104540002069049000F03EF88DF8090004A903A842
:10455000FFF7D2FF0025B0B1A07870B3606800907B
:10456000A06801908DF80850684600F037F8A570F3
:1045700023E000F0C5F8206100F09BF86078401C53
:10458000607006B070BD039A6068111A00D5494288
:10459000049BA068181A00D54042A67816B10844BA
:1045A00002280ADD62600092A360012601938DF863
:1045B0000860684600F012F8A6706570E1E7000038
:1045C000580100200148407A70470000B87D002063
:1045D0000149486170470000580100203EB504467B
:1045E0000C221149FCF76CF8002813D00F480E4D2F
:1045F000026882B194E80B008DE80B00684601A9BF
:1046000090479DE80E0085E80E00002802D168461C
:10461000FFF718FA3EBD2046FFF714FA94E80700AA
:1046200085E807003EBD0000947D00201C020020AC
:104630001D4A1268A2B390ED000A1C4AD1ED000A8F
:10464000F8EEC01A92ED001AB8EEE02AB8EEC00AF1
:1046500021EE211AD2ED011AF8EEE00A01EE821ADB
:10466000D2ED021A71EE211AB6EE001A71EE811A1D
:10467000FDEEE11AC0ED001AD2ED031A002021EE82
:10468000800AD2ED041A01EEA00AD2ED050A30EE3E
:10469000200A30EE010ABDEEC00A81ED000A704723
:1046A000FFE70120FBE7000020020020A07D0020A2
:1046B000704770471CB5114890F8440000F0800026
:1046C00090B90E484168002088470C48808E00F45D
:1046D000004088B1694601A810F0FEFFBDF8040053
:1046E00040F6FF71081A1CBD044841680020884745
:1046F000024884892046F6E70020F4E728000020DD
:104700001CB50E4890F8440000F0800078B90B48C2
:104710004168002088470948808E00F4004050B16D
:10472000694601A810F0D8FFBDF800001CBD034881
:10473000048C2046FAE70020F8E70000280000205B
:104740002DE9F041084E04460568306801682846A6
:1047500088470746306841682846884728442060D3
:104760003846BDE8F0810000E40000202DE9F0416A
:104770000C4606460025064F05E03868416830467D
:10478000884706440544641EF7D22846BDE8F081F8
:10479000E40000202DE9F0411E46069C174688469D
:1047A00005463A46A8687F1C3346D0F804C0414607
:1047B0002846E047641EF4D1BDE8F08170B5B0F939
:1047C0000040091BB0F904408C422CDD00F11404B8
:1047D000B0F902500069521B02FB0040CA1800EBFE
:1047E000E104521ED010B0EBE10501F007034FF0D9
:1047F000FF0102F0070221FA03F0C2F1070201FAF9
:1048000002F1CEB221780FD001436D1E04F8011BD6
:10481000002D05DDFF2229462046FCF743F82C44F5
:1048200020783043207070BD30400143217070BD4E
:1048300010B5B0F90030B0F90240C91A00F1140304
:104840000069121B02FB003000EBE10001F00703DE
:1048500002788021D9400A43027010BDB0F90610D9
:10486000026951431430FCF725B800002DE9F843E4
:10487000804602F10F000011470003FB07F01C46C1
:10488000154689461430FDF713FE060018D0FEF7D2
:10489000E3FC3046FDF7D4FE0090A0F80080A0F8BD
:1048A00002908580C4800749816001218181076170
:1048B0006846FDF7F5FE00F06BF83046BDE8F8837A
:1048C0000020FBE7C4BC010870B5B0F90660B0F980
:1048D00004400B6800F1140596421BDD0069A342F9
:1048E00002FB005000EBE30214DA641EE010A0EBC0
:1048F000E30512F8010B03F00704A040C4B206E080
:1049000045B1083312F8014B23F007036D1E002C4C
:10491000F6D004E0002070BD6006040E5B1C20068B
:10492000FAD5FF2C07D0184602E06406240E401C7E
:104930006606FAD400E0D81DC443640705D006E03B
:1049400012F8014BFF2C09D108306D1EF8D5C01AA2
:10495000401C0B6070BD6206140E401C2206FAD487
:10496000F5E738B50546FEF777FC2846FDF768FE03
:1049700000908189491E0CB284816846FDF790FE43
:1049800014B92846FDF7B6FD00F002F838BD000066
:104990000348C168491EC16001D100F089B8704761
:1049A000000200202DE9F04116460F46054600247E
:1049B000FEF752FC32463946284600F0A7FE054471
:1049C00008B1641CF6E7FFF7E3FF2046BDE8F0817D
:1049D00010B54FF48C3102200FF07AFF04464FF4EB
:1049E0008C312046FDF77EFD0148FFF7B7F910BD79
:1049F0006498010838B504464FF47A70604305495D
:104A00000968B0FBF1F56A460821284603F07EFBF1
:104A100038BD0000EC90010810B50120FFF7EAFF57
:104A200010BD00000248006890F82B00704700009D
:104A3000BC00002008B5684603F0B4FB08BD0000C8
:104A400008B56B46002202A1034803F085F808BDB3
:104A50004B65795F53454D005877002008B56B468C
:104A6000012205A1074803F077F86B46002206A152
:104A7000084803F071F808BD446973705F53454DF1
:104A800000000000407700204576656E745F534556
:104A90004D0000004C7700201CB501A800231A46E9
:104AA00019460090014803F075F81CBD40770020BE
:104AB00008B56A460021024803F0FCF808BD000072
:104AC000407700200EB508B102AA00E000220023C2
:104AD00001A9684600F0DAFB0EBD0000074910B5D9
:104AE0000C7818B101200870801E03E000200870C7
:104AF0006FF07F4001F072FF204610BDC90000201A
:104B000010B5082A0EDC0346012A18D0022A56D016
:104B1000042A76D010F8042B03F8012B491EF9D192
:104B2000012010BD102A08DC4FEA000230F8043BD7
:104B300022F8023B491EF9D1F2E7002010BD10F81F
:104B4000042BD207120E491E34D010F8044B491E14
:104B500004F0010442EA84122CD010F8044B491EE0
:104B600004F0010442EA441224D010F8044B491E18
:104B700004F0010442EA04121CD010F8044B491E50
:104B800004F0010442EAC40214D010F8044B491E98
:104B900004F0010442EA84020CD010F8044B491ED0
:104BA00004F0010442EA440204D010F8044B04F07B
:104BB0000104224303F8012B0029C0D1B0E710F80B
:104BC000042B9207120E491E15D010F8044B491EF3
:104BD00004F0030442EA04120DD010F8044B491EFD
:104BE00004F0030442EA840205D010F8044B04F0F8
:104BF00003042243491E03F8012B0029DFD18FE76C
:104C0000FFE710F8042B1207120E491E05D010F80A
:104C1000044B04F00F042243491E03F8012B002922
:104C2000EFD17DE738B50024009400F01DF838BDC1
:104C30000B4810B5816B002910D101218163FFF76A
:104C4000C7FEFDF7FFFB02F0DBFB054905483C31E1
:104C50000860BDE81040084600F050BD10BD0000DF
:104C6000C800002079DD00082DE9F0410D460699C5
:104C7000044601B901461F68082A09DC0E46012ACC
:104C80001AD0022A5BD0042A7DD0082A13D18DE0E5
:104C9000102A07DCD3F810C00E46BCF1000F04D078
:104CA000022389E00020BDE8F08101CCB84726F856
:104CB000020B6D1EF9D189E001CCB847C0074FEA5D
:104CC00010686D1E36D001CCB84748EA801000F05D
:104CD000FF086D1E2ED001CCB84748EA401000F006
:104CE000FF086D1E26D001CCB84748EA001000F03E
:104CF000FF086D1E1ED001CCB84748EAC00000F086
:104D0000FF086D1E16D001CCB84748EA800000F0BD
:104D1000FF086D1E0ED001CCB84748EA400000F0F5
:104D2000FF086D1E06D001CCB84740EA080000F02D
:104D3000FF086D1E06F8018B002DBDD146E001CCA9
:104D4000B84780074FEA10686D1E16D001CCB847EF
:104D500048EA001000F0FF086D1E0ED001CCB847E5
:104D600048EA800000F0FF086D1E06D001CCB8476D
:104D700040EA080000F0FF086D1E06F8018B002DC8
:104D8000DDD123E0FFE701CCB84700074FEA106808
:104D90006D1E06D001CCB84740EA080000F0FF08BD
:104DA0006D1E06F8018B002DEDD10FE0D3F810C079
:104DB000BCF1000F04D001232A462046E04705E05D
:104DC00001CCB84706F8010B6D1EF9D101206AE746
:104DD0007CB5064628480D46006868B1002004F0FE
:104DE0004BFF06E06A462946304605F01DFE04F0FA
:104DF00005FF0028F6D17CBD106800901F4C50685C
:104E000001902268BDF8000032F8481F0844ADF850
:104E10000000BDF8020091880844ADF80200BDF81A
:104E2000040011880844ADF80400BDF8060091881C
:104E30000844ADF80600684604F01EFF0EE000BF0F
:104E40002068BDF800106A464184BDF802108184D4
:104E50002946304605F0E8FD04F0D0FE0028EFD1E9
:104E6000206830F8221FC28C891A01804188428D47
:104E7000891A41807CBD00003C010020DC0000203C
:104E80002DE9FF4F8DB00020DDF86C9016460090A4
:104E90001D4604460246C9F8000008AB03A902A853
:104EA00000F0F4F918B1002011B0BDE8F08F0898B7
:104EB000854200DD0546604F0B9560493868407CAF
:104EC00051F82010049109690691FEF7C7F8059082
:104ED0003868407CFEF76AF959498346884201D018
:104EE000012000E000200A9001CE1A9988478246EE
:104EF000000E079077D0009870BB0D9800EB040867
:104F00004D480068B0F90800404503DDA0EB0807F4
:104F1000804600E000270299049801EB840101EB30
:104F20008701CDE900100B990D98421809920E9B4C
:104F300040461946521EFEF7BBFD01200090059821
:104F400018280ADA0298DDE9052300EB840000EB5B
:104F50008700E91B00F0F8F812E00A9880B1029887
:104F600000EB840000EB87070998A0EB080859467E
:104F70003868884701C7A8F101005FEA0008F6D148
:104F8000304BD86980B3DDE9020700EB840007EB02
:104F90008402CDE902022B4C361F2B46E4693046D1
:104FA0000299A047FF203168B0EB116F02D102993E
:104FB000096804E0029A1268B0EB126F01D1039AFB
:104FC0001160029906F10406091D02910399091D59
:104FD00003916D1EE7D10397D9F8000040F001005E
:104FE000C9F8000021E022E0FFE70798FF2812D06F
:104FF000C0F1FF0202981B6850F824102AF07F408D
:105000009847039941F82400D9F8000040F00101C5
:10501000C9F8001005E00298039950F8240041F8FF
:105020002400641C6D1E7FF45FAF03983CE7039976
:1050300041F824A0E8E70000DC0000201401002073
:10504000056F0008D002002010B50846FFF778FB76
:10505000044604480068C069016820468847204625
:1050600010BD0000DC0000200149096849680847BC
:10507000DC010020F0B500EB8103082A0ADC0125E1
:105080004C1E092A10D2DFE802F00F10263E3E55D2
:1050900055555500102A07DC00EB4100491E30F839
:1050A000022D43F8042DF9D1F0BD04F00702C2F13E
:1050B000070200EBE40005FA02F604783440D4401D
:1050C000521C43F8044DA0EBE20022F007042241F9
:1050D000491EF0D1F0BD04F0030200EBA400C2F1C0
:1050E000030203240578560004FA06F73D40F54014
:1050F000521C43F8045DA0EBA20022F003052A41F4
:10510000491EEFD1F0BD8D4300EB6400C5F10102F3
:105110000F240578960004FA06F73D40F540521C2E
:1051200043F8045DA0EB620022F001052A41491E0C
:10513000EFD1F0BD00EB0100491E10F8012D43F83E
:10514000042DF9D1F0BD00002DE9F05F0C1E16DD35
:105150005E68014600EB8405082A12DC611E012A04
:1051600026D0022A47D0042A6AD0082A07D1071974
:1051700017F8010DB04745F8040D641EF8D1BDE8DD
:10518000F09F102AFBDC5F693FB12246BC46BDE8B8
:10519000F04F02235DF804EB604701EB440700BFCA
:1051A00037F8020DB04745F8040D641EF8D1E6E764
:1051B00000EBE10001F0070710F801A9814680200B
:1051C00020FA07F8B5F104050AEA0800C7F107015B
:1051D000C840B04745F804093FB14FEA48604FEA7C
:1051E00010687F1E641EEFD1C9E719F801A90727CF
:1051F0004FF00108F6E700EBA10001F0030710F8FB
:1052000001A981467900C02020FA01F84FF0060B71
:10521000B5F104050AEA0800ABEB4701C840B04706
:1052200045F804093FB14FEA88604FEA10687F1ED5
:10523000641EEFD1A3E7032719F801A9B846F7E7E1
:1052400000EB6100012710F801A9A7438146B900CE
:10525000F02020FA01F84FF0040B2D1F0AEA080095
:10526000ABEB8701C840B04745F804093FB14FEAAE
:1052700008704FEA10687F1E641EEFD17FE719F8AF
:1052800001A901274FF00F08F6E700002DE9F047CC
:10529000224C06461F46A06990468946002540B923
:1052A0000120A06104F128011D480860084600F0B3
:1052B00025FA606930B91B480068606110B901F0D7
:1052C000B4FD606107B138604EB1A06830B9606963
:1052D0008000FDF735F9A06000B901253060B9F113
:1052E000000F0AD0E06830B960698000FDF728F946
:1052F000E06000B90125C9F80000B8F1000F0AD03C
:10530000206930B960698000FDF71AF9206100B9A1
:105310000125C8F800002846BDE8F087D00200202B
:1053200085DE00083001002073B5144B002201A96E
:105330001B680098984700240090E0B110490025B0
:105340000968C9694A6922B1126812B10199904786
:105350007CBD486838B90EE06846FFF7F1F90546AC
:10536000FDF792FE04440198401E0190F4D52846B2
:1053700000F038F8044420467CBD0000E001002025
:10538000DC00002073B50D460098002490B10A4956
:105390000968C969496959B14A684AB129469047BB
:1053A0007CBD6846FFF7CCF920B10A2802D0641C06
:1053B000AC42F6DB20467CBDDC00002001480068E2
:1053C00000680047DC010020044AB2F900200260B6
:1053D0000348B0F900000860704700004001002059
:1053E0004201002038B5002469460094FDF75EFEB6
:1053F0000099814200DD0C1A204638BDB0F900301A
:10540000B1F90020934200DA0280B0F90230B1F91C
:105410000220934200DA4280B0F90430B1F904204E
:10542000934200DD8280B0F90620B1F906108A426D
:1054300000DDC180704770B5B1F90040B2F90030AD
:105440009C4200DD23460380B1F90250B2F90240CC
:10545000A54200DD2C464480B1F90460B2F9045045
:10546000AE4200DA35468580B1F90610B2F9062061
:10547000914200DB1146C1809D4201DBA14201DA6D
:10548000002070BD012070BD014602480068407CCC
:1054900000F002B8DC0000202DE9F843012689461F
:1054A000044602285DDA304F7A6802B190472E4DEB
:1054B0005FEA090005F1100532D0012803D0B9F1E7
:1054C000020F4ED118E055F8240088B92046FDF7A8
:1054D000E9FA009018B3C0680D21426A6846904707
:1054E00002003ED049460098904755F82400002617
:1054F000401C45F8240034E02046FDF7D3FA009024
:1055000068B1C0680D21426A68469047040028D0FF
:10551000386800B1804749460098A047002620E03F
:1055200055F82400A846012812D12046FDF7BAFA02
:10553000009068B1C0680D21426A68469047050036
:1055400006D0386800B1804749460098A847002631
:1055500058F8241009B1012200E00022891A48F805
:1055600024103046BDE8F883A001002030B581F05A
:105570007F43FF2480F07F4094EA116101D120F045
:105580007F43010E11FB02F1B1FBF4F100F0FF15B6
:10559000C1F1FF0203F0FF14544301FB05444FF037
:1055A000FF15240A05EA1323C0F30720534340F0F4
:1055B000807001FB003104F0FF1001F0FF2108436F
:1055C00080F07F4030BD00002DE9F05F0646DDF839
:1055D000389015460C4600200D99804688421ED210
:1055E000DFF840B00C9F4FF0FF0A02CE08CCAAEBC8
:1055F000116202FB09F2B2FBFAF0C2B221F07F4065
:105600001946DBF80030984720F07F4001C57F1E27
:10561000EBD10A9804EB800408F10100DCE7BDE857
:10562000F09F0000D00200202DE9F34100240E4637
:10563000254608E0FDF728FD05440CB1B54207DC1E
:105640000A2F05D0641C6846FFF77AF80700F1D1ED
:105650002046BDE8FC8100002DE9F74F0024A0465C
:1056600046462546DFF874B091463746AA46684656
:10567000FFF766F805B9054648B10A2807D0202883
:1056800008D0202D05D0DBE9022300210BE02646BF
:1056900014E00025264608E032F802CB844501D10B
:1056A000661C02E0491C9942F6DB8246FDF7ECFCE1
:1056B000804601984744874202DD0CB116B102E0F2
:1056C000641CD4E72646B9F1000F03D0A7EB08000D
:1056D000C9F800003046BDE8FE8F0000CC01002074
:1056E00070470B88134403808B889B1A83804B88F8
:1056F00013444380C988891AC180704702490A6BE4
:105700004260086370470000C800002010B50446DE
:1057100000F009F801462046BDE81040FFF726B822
:10572000002309F06DBC77B581B015460E466B4677
:10573000019809F065FC044601460198FFF716F848
:1057400001990844019001A8FEF7FAFF0A2802D047
:10575000012D02D012E0641C10E020280ED1FDF7CC
:1057600093FC054607E02844009001A8641CFEF75E
:10577000E7FF202802D100988642F4DA04B02046E0
:1057800070BD10B5830702D520F8021B521E5308C6
:1057900011D001EB0144042B09DB10C01B1F10C00A
:1057A000042B40F8084B40F8044CF6DA01E010C036
:1057B0005B1E002BFBD1D20700D0018010BD00F58D
:1057C000806000F001B8000010B50023C0F30B00AA
:1057D000B0F5006F02DD0123A0F50060B0F5806F29
:1057E00001DDC0F5006081110C4C00F03F00C0F1FC
:1057F000400234F811005043402A08D0102906DA3C
:1058000004EB4101C2F14002498801FB0200203053
:105810008009002B00D0404210BD00001491010807
:1058200070B50446A56D00F085F9064694F835007C
:10583000022808D08020606500BF002084F8340072
:1058400000BF012070BD2068006820F016002168AC
:1058500008602068406920F0800021684861206C61
:1058600008B9A06C28B12068006820F00800216801
:1058700008602068006820F00100216808600FE0DF
:1058800000F058F9801B05280AD92020606500BF68
:10589000002084F8340000BF032084F83500D1E7ED
:1058A0002068006800F001000028E9D194F85C103D
:1058B0003F208840A86000BF002084F8340000BF6B
:1058C000012084F835000020BCE7014691F835003E
:1058D000022803D08020486501207047052081F808
:1058E00035000868006820F001000A681060002098
:1058F000F3E70000F8B502460B460025002400201F
:105900000021DEE0012606FA01F51E6806EA05041C
:10591000AC4275D11E7906F00306012E04D01E7923
:1059200006F00306022E13D190684F000326BE40F6
:10593000B0434F00DE68BE4030439060506801269F
:105940008E40B0431E79C6F300168E40304350603F
:105950001E7906F00306032E09D0D0684F000326F7
:10596000BE40B0434F009E68BE403043D0601E79B9
:1059700006F00306022E13D1CF0802F1200656F8D6
:1059800027004E07F70E0F26BE40B0434F07FF0E0D
:105990001E69BE403043CF0802F1200646F82700BA
:1059A00010684F000326BE40B0431E7906F0030680
:1059B0004F00BE40304310605E6806F08056B6F17E
:1059C000805F7DD100BF00260096404E366846F4C9
:1059D00080463E4F3E603E46366806F4804600965E
:1059E00000BF00BF3A4E8F0856F827008E07370FCA
:1059F0000F26BE40B043374EB24202D1002624E00B
:105A00005EE0354EB24201D101261EE0334EB24275
:105A100001D1022619E0324EB24201D1032614E030
:105A2000304EB24201D104260FE02F4EB24201D1D6
:105A300005260AE02D4EB24201D1062605E02C4E85
:105A4000B24201D1072600E008268F073F0FBE4073
:105A500030431F4E8F0846F82700264E3068A0437B
:105A60005E6806F48036B6F5803F00D12043214EB3
:105A70003060361D3068A0435E6806F40036B6F527
:105A8000003F00D120431B4E361D3060361D30686C
:105A9000A0435E6806F48016B6F5801F00D120434F
:105AA000144E08363060361D3068A0435E6806F438
:105AB0000016B6F5001F00D120430E4E0C363060A4
:105AC000491C1029FFF41EAFF8BD00004438024005
:105AD0000838014000000240000402400008024073
