:020000040800F2
:1000000070C7012029020008991800082B18000861
:100010002F180008410500083D4A000800000000B4
:10002000000000000000000000000000B9450008CA
:10003000ED05000800000000AD040008BD45000803
:100040004D0200084D0200084D0200084D02000854
:100050004D0200084D0200084D0200084D02000844
:100060004D0200084D0200084D0200084D02000834
:100070004D0200084D0200084D0200084D02000824
:100080004D0200084D0200084D0200084D02000814
:100090004D0200084D0200084D0200084D02000804
:1000A0004D0200084D0200084D0200084D020008F4
:1000B0004D0200084D0200084D0200084D020008E4
:1000C0004D0200084D0200084D0200084D020008D4
:1000D0004D020008E54900084D0200084D020008E5
:1000E0004D0200084D0200084D0200084D020008B4
:1000F0004D0200084D0200084D0200084D020008A4
:100100004D0200084D0200084D0200084D02000893
:100110004D0200084D0200084D0200084D02000883
:100120004D0200084D0200084D0200084D02000873
:100130004D0200084D0200084D0200084D02000863
:100140004D0200084D0200084D0200084D02000853
:100150004D0200084D0200084D0200084D02000843
:100160004D0200084D0200084D0200084D02000833
:100170004D0200084D0200084D020008000000007A
:100180004D0200084D02000800F002F800F03CF8B3
:100190000AA090E8000C82448344AAF10107DA45E2
:1001A00001D100F031F8AFF2090EBAE80F0013F0F8
:1001B000010F18BFFB1A43F001031847CCB700002A
:1001C000ECB70000103A24BF78C878C1FAD85207BB
:1001D00024BF30C830C144BF04680C6070470000C1
:1001E0000023002400250026103A28BF78C1FBD840
:1001F000520728BF30C148BF0B6070471FB508F0D9
:10020000F9FA1FBD10B510BD00F0DAF81146FFF77E
:10021000F5FF07F025FE00F0F8F803B4FFF7F2FF52
:1002200003BC04F029FC00000C48016841F4700193
:1002300001600B4880470B480047FEE7FEE7FEE7FA
:10024000FEE7FEE7FEE7FEE7FEE7FEE7FEE700006B
:1002500005480649044A064B7047000088ED00E057
:10026000D54500088901000870C3012070C701202E
:1002700070C3012072B6704762B6704772B602B49E
:10028000EFF3118180F31188BFF34F8FBFF36F8FAE
:10029000084602BC62B6704772B680F31188BFF39D
:1002A0004F8FBFF36F8F62B6704730BF704720BF6C
:1002B0007047B0FA80F0704790FAA0F0B0FA80F082
:1002C000704790FAA0F07047704753EA020C00F0B4
:1002D00069802DE9F04B4FF00006002B1FBFB3FAE9
:1002E00083F503FA05F424FA05F65E4012BF1643BF
:1002F000B2FA82F502FA05F4C5F120051EBF22FA12
:1003000005FC44EA0C04203556EA044C4FEA144438
:1003100018BF641C4FF000084FF00009904271EBC9
:10032000030C39D3002919BFB1FA81F701FA07F696
:10033000B0FA80F700FA07F6C7F120071EBF20FACF
:1003400007FC46EA0C062037B6FBF4FCA7EB0507D2
:10035000103F07F01F0BCBF120060CFA0BFB2CFA19
:1003600006F644BFB3460026202FA4BF5E464FF0DA
:10037000000B5BEA060C08BF4FF0010B19EB0B09F1
:10038000ABFB027C48EB0608C01B06FB02CC0BFB58
:1003900003CC71EB0C01C1E70B46024641464846CF
:1003A000BDE8F08B13B54FF000004FF00001AFF344
:1003B0000080BDE81C407047704770477047704729
:1003C000754600F02BF8AE4605006946534620F00E
:1003D0000700854618B020B5FFF73AFFBDE820407A
:1003E0004FF000064FF000074FF000084FF0000BF1
:1003F00021F00701AC46ACE8C009ACE8C009ACE8A4
:10040000C009ACE8C0098D46704710B50446AFF38B
:1004100000802046BDE81040FFF7FFBE004870474F
:100420000CC3012072B64EF62250CEF2000040F20C
:10043000FF01C0F200010170002080F3098840F242
:100440007000C2F20000016881F3088802F02AFB04
:1004500040F29E00C2F2000040F29F01C2F2000191
:100460000A78027040F21810C2F2000040F21C112B
:10047000C2F200010A680260106880F30988EFF395
:10048000148040F0020020F0040080F31488BFF3D1
:100490006F8FBDE8F04F0FBCBDE8005006BC62B6E0
:1004A000084726484FF080510160704772B640F20D
:1004B0007402C2F20002116881F31188BFF34F8FFA
:1004C000BFF36F8F62B6EFF309801EF0100F08BF05
:1004D00020ED108A20E9F04F40F21815C2F2000515
:1004E00029680860744602F0DDFA40F29E00C2F20C
:1004F000000040F29F01C2F200010A78027040F24F
:100500001C11C2F200010A682A6044F0040E10684F
:10051000B0E8F04F1EF0100F08BFB0EC108A80F367
:10052000098840F20002C0F2000272B682F311881C
:10053000BFF34F8FBFF36F8F62B6704704ED00E0DB
:1005400000BFFEE710B500F021F800F019F810BD6B
:1005500010B5002400BF00BF4020FFF78FFE044607
:1005600000BF00BF1021054801F063F900BF00BFC4
:100570002046FFF791FE00BF00BF10BD40B601202E
:1005800010B5FFF7E5FF10BD00BFFEE710B5002076
:100590000249086000F00AF810BD00006C0000205D
:1005A00001490860704700006C00002010B50A483F
:1005B000006840F0807008490860002007494860E2
:1005C0000846006840F00100086000F0A1FB044606
:1005D000FFF7E6FF10BD0000FCED00E0001000E0BA
:1005E0000148406870470000001000E070470000BC
:1005F00070B504461D460023B5F5804F13D154F85D
:1006000022300C480340D1E9000640EA06108E680B
:1006100040EA06208E8940EA06408E693043034353
:1006200044F8223003E06FF0704044F822000020CC
:1006300070BD00000000F0CF10B50346002208682E
:1006400053F8202012480240D1E901042043CC682D
:1006500020430C6920434C6920438C692043CC69BA
:1006600020430C6A20434C6A20438C6A2043CC6AA6
:100670002043CC6B20430C6B20430243886808283E
:1006800001D142F04002086843F82020002010BD4C
:100690008000F0FF30B503460024501C53F8204082
:1006A00004F04044D1E9000540EA05108D6840EAB5
:1006B00005208D8940EA0545088A401E45EA005517
:1006C000087D801E45EA00608D6928430443501C64
:1006D00043F82040002030BD70B50446A56D00F001
:1006E0007BF9064694F83500022808D08020606522
:1006F00000BF002084F8340000BF012070BD2068D6
:10070000006820F01600216808602068406920F029
:10071000800021684861206C08B9A06C28B120686D
:10072000006820F00800216808602068006820F058
:100730000100216808600FE000F04EF9801B0528D9
:100740000AD92020606500BF002084F8340000BF73
:10075000032084F83500D1E72068006800F001002C
:100760000028E9D194F85C103F208840A86000BFC1
:10077000002084F8340000BF012084F835000020F8
:10078000BCE7014691F83500022803D08020486577
:1007900001207047052081F835000868006820F0C6
:1007A00001000A6810600020F3E70000F8B5024677
:1007B0000B460025002400200021DEE0012606FA79
:1007C00001F51E6806EA0504AC4275D11E7906F0F3
:1007D0000306012E04D01E7906F00306022E13D163
:1007E00090684F000326BE40B0434F00DE68BE4015
:1007F00030439060506801268E40B0431E79C6F3A6
:1008000000168E40304350601E7906F00306032E1A
:1008100009D0D0684F000326BE40B0434F009E6809
:10082000BE403043D0601E7906F00306022E13D17D
:10083000CF0802F1200656F827004E07F70E0F26C4
:10084000BE40B0434F07FF0E1E69BE403043CF0885
:1008500002F1200646F8270010684F000326BE402C
:10086000B0431E7906F003064F00BE4030431060CF
:100870005E6806F08056B6F1805F7DD100BF00262D
:100880000096404E366846F480463E4F3E603E46F7
:10089000366806F48046009600BF00BF3A4E8F08C7
:1008A00056F827008E07370F0F26BE40B043374E4D
:1008B000B24202D1002624E05EE0354EB24201D1C0
:1008C00001261EE0334EB24201D1022619E0324E1B
:1008D000B24201D1032614E0304EB24201D10426C7
:1008E0000FE02F4EB24201D105260AE02D4EB24252
:1008F00001D1062605E02C4EB24201D1072600E0C8
:1009000008268F073F0FBE4030431F4E8F0846F822
:100910002700264E3068A0435E6806F48036B6F5A0
:10092000803F00D12043214E3060361D3068A04307
:100930005E6806F40036B6F5003F00D120431B4E3A
:10094000361D3060361D3068A0435E6806F48016A0
:10095000B6F5801F00D12043144E08363060361D96
:100960003068A0435E6806F40016B6F5001F00D19B
:1009700020430E4E0C363060491C1029FFF41EAF88
:10098000F8BD000044380240083801400000024031
:100990000004024000080240000C02400010024027
:1009A0000014024000180240001C0240003C0140BC
:1009B000024613690B400BB1012000E00020704794
:1009C0000AB1816101E00B0483617047014800684E
:1009D000000C7047002004E00148006870470000E8
:1009E00030000020034800680349097808440149A1
:1009F00008607047300000203800002010B50A4819
:100A0000006840F40070084908600846006840F437
:100A100080600860032000F07FF80F2000F006F8E7
:100A200000F02AF8002010BD003C024070B50446DA
:100A30000E4800784FF47A71B1FBF0F00C49096868
:100A4000B1FBF0F5284600F09BFC08B1012070BD19
:100A5000102C07D200222146501E00F01EF8054837
:100A6000046001E00120F2E70020F0E738000020F8
:100A7000000000203400002070470146084600288E
:100A800009DB00F01F0301229A4043099B0003F198
:100A9000E023C3F8002100BF70472DE9F05F8046D6
:100AA0000D461646002703F0CBFF074639462A4677
:100AB000334601F00700C0F1070ABAF1040F02D96A
:100AC0004FF0040A01E0C0F1070AD14600F1040A20
:100AD000BAF1070F02D24FF0000A01E0A0F1030AB9
:100AE000D4464FF0010A0AFA09FAAAF1010A0AEA01
:100AF000020A0AFA0CFA4FF0010B0BFA0CFBABF1ED
:100B0000010B0BEA030B4AEA0B042146404603F0B3
:100B10009FFFBDE8F09F000000BF00F00702064BFA
:100B200019684FF6FF031940044B0B4343EA0221B7
:100B3000014B196000BF70470CED00E00000FA05A2
:100B400070B504460D460CB9012070BD58480068C8
:100B500000F00700A84209D255490D700846006808
:100B600000F00700A84201D00120EEE7207800F055
:100B7000020002281DD1207800F00400042805D1CD
:100B80004C48006840F4E0504A490860207800F082
:100B90000800082805D14748006840F460404549EE
:100BA00008604448006820F0F000A168084341490B
:100BB0000860207800F00100A8B36068012807D120
:100BC0003C4808380068C0F34040B8B90120BCE791
:100BD0006068022802D06068032807D135480838C9
:100BE0000068C0F3406048B90120AEE731480838DA
:100BF0000068C0F3400008B90120A6E72D4800684E
:100C000020F00300616808432A490860FFF7E4FE0A
:100C1000064609E0FFF7E0FE801B41F2883188427A
:100C200002D9032091E707E02248006800F00C0099
:100C30006168B0EB810FEDD11D48006800F007003E
:100C4000A84209D91A490D700846006800F007004B
:100C5000A84201D0012078E7207800F004000428A1
:100C600007D11448006820F4E050E16808431149B6
:100C70000860207800F00800082808D10D480068B6
:100C800020F46040216940EAC1000A49086000F090
:100C90003FF808490968C1F30311074A515CC8408D
:100CA0000649086006480068FFF7C0FE00204CE7D0
:100CB000003C024008380240FE8700080000002087
:100CC0003400002001480068704700000000002048
:100CD00000B5FFF7F7FF04490968C1F38221034A11
:100CE000515CC84000BD0000083802400E88000872
:100CF00000B5FFF7E7FF04490968C1F34231034A31
:100D0000515CC84000BD0000083802400E88000851
:100D10002DE9F047002400250026A146254800685B
:100D200000F00C0020B1042805D008283AD105E0D5
:100D3000DFF8849039E0DFF8849036E01D48001F2A
:100D4000006800F03F041B48001F006800F48000AA
:100D500078B11A481749091F0968C1F38811A0FB27
:100D600001700146224600233846FFF7AEFA0546D9
:100D70000EE011480F49091F0968C1F38811A0FB53
:100D800001700146224600233846FFF79EFA0546C9
:100D90000848001F0068C0F30140401C4600B5FB36
:100DA000F6F902E0DFF8109000BF00BF4846BDE84A
:100DB000F0870000083802400024F40000127A0096
:100DC000F8B504460CB90120F8BD207800F0010008
:100DD000002874D0F948006800F00C0004280DD0F9
:100DE000F648006800F00C00082813D1F348001FF3
:100DF000006800F48000B0F5800F0BD1EF48083890
:100E00000068C0F34040002859D06068002856D1DF
:100E10000120D9E700BF6068B0F5803F08D1E748FE
:100E20000838006840F48030E449083908601EE062
:100E30006068B0F5A02F0DD1E0480838006840F494
:100E40008020DE49083908600846006840F4803098
:100E500008600CE0D9480838006820F48030D74991
:100E6000083908600846006820F48020086000BF48
:100E7000606890B1FFF7B0FD054606E0FFF7ACFDF6
:100E8000401B642801D903209EE7CC48083800683D
:100E9000C0F340400028F1D011E0FFF79DFD05466A
:100EA00006E0FFF799FD401B642801D903208BE77A
:100EB000C24808380068C0F340400028F1D12078CB
:100EC00000F0020002285FD1BC48006800F00C006E
:100ED00058B1BA48006800F00C0008281CD1B74887
:100EE000001F006800F48000B0B9B44808380068FA
:100EF000C0F3400020B1E068012801D0012063E781
:100F0000AE480838006820F0F800216940EAC100C6
:100F1000AA490839086037E0E06800B30120A84911
:100F20000860FFF759FD054606E0FFF755FD401B39
:100F3000022801D9032047E7A04808380068C0F319
:100F400040000028F1D09D480838006820F0F800E3
:100F5000216940EAC10099490839086014E000207D
:100F600097490860FFF738FD054606E0FFF734FDB6
:100F7000401B022801D9032026E790480838006862
:100F8000C0F340000028F1D1207800F008000828C4
:100F90002CD16069A8B101208A490860FFF71CFDC7
:100FA000054606E0FFF718FD401B022801D9032083
:100FB0000AE782486C300068C0F340000028F1D096
:100FC00014E000207F490860FFF706FD054606E0B3
:100FD000FFF702FD401B022801D90320F4E6774801
:100FE0006C300068C0F340000028F1D1207800F098
:100FF0000400042870D1002770483830006800F0E1
:10100000805090B900BF002000906C4838300068D4
:1010100040F080506949383108600846006800F0A7
:101020008050009000BF00BF01276748006800F4AF
:101030008070B0B96448006840F48070624908600C
:10104000FFF7CAFC054606E0FFF7C6FC401B022876
:1010500001D90320B8E65C48006800F480700028DD
:10106000F2D000BFA068012808D154486830006859
:1010700040F001005149683108601DE0A068052872
:101080000DD14E486830006840F004004B4968318B
:1010900008600846006840F0010008600CE047481E
:1010A0006830006820F00100444968310860084653
:1010B000006820F00400086000BFA068A8B1FFF736
:1010C0008BFC054609E0FFF787FC401B41F28831A5
:1010D000884202D9032077E626E038486830006865
:1010E000C0F340000028EED013E0FFF775FC054682
:1010F00008E0FFF771FC401B41F28831884201D9BA
:10110000032061E62D4868300068C0F340000028E5
:10111000EFD1012F07D129483830006820F08050E6
:1011200026493831086000BFA069002845D023480F
:10113000006800F00C0008285DD0A069022845D1A5
:1011400000201F490866FFF747FC054606E0FFF749
:1011500043FC401B022801D9032035E61748083814
:101160000068C0F340600028F1D1D4E907010843CA
:10117000616A40EA81110122A06AC2EB500041EA93
:1011800000412C20005D41EA00600C49091F086005
:1011900001200B490866FFF71FFC054606E0FFF734
:1011A0001BFC401B022801D903200DE60348083828
:1011B0000068C0F340600028F1D049E008380240E0
:1011C00000004742800E4742007000400020214945
:1011D0000866FFF701FC054606E0FFF7FDFB401B34
:1011E000022801D90320EFE51B480068C0F34060E6
:1011F0000028F2D12CE0A069012800D1E4E51648CE
:10120000001D0668A069012820D006F48001E0696D
:1012100081421BD106F03F01206A814216D147F678
:10122000C0703040616AB0EB811F0FD106F44031CD
:101230000122A06AC2EB5000B1EB004F06D106F0CC
:1012400070612C20005DB1EB006F01D00120BBE587
:101250000020B9E5000047420038024070B504465E
:101260000E4615460CB9012070BD94F8490028B906
:10127000002084F84800204600F01CF804F1080122
:101280002068FFF7D9F93146A2682068FFF702FA13
:101290002946236BD4E90102FFF7AAF9A168206867
:1012A00050F8210040F00100A268216841F82200B6
:1012B0000020D9E710B586B0044600BF002000909A
:1012C0002248006840F00100204908600846006894
:1012D00000F00100009000BF00BF00BF00200090A0
:1012E0001A480838006840F00800184908390860B2
:1012F0000846006800F00800009000BF00BF00BF73
:10130000002000900846006840F010000860084681
:10131000006800F01000009000BF00BF4CF20370A6
:1013200001900220029001200390022004900C20E2
:10133000059001A90648FFF739FA4FF68070019031
:1013400001A90448FFF732FA06B010BD3838024050
:10135000000C024000100240042808D14FF0E021A8
:10136000096941F004014FF0E022116107E04FF0FC
:10137000E021096921F004014FF0E022116170477A
:1013800070B504462546681EB0F1807F01D3012068
:101390000FE0681E4FF0E02148610F214FF0FF3051
:1013A00003F056FB00204FF0E02188610720086120
:1013B000002070BD7047704701460022002391F85D
:1013C0003D2091F83E3042EA030070472DE9F84F86
:1013D0000446206805682068C668206847694FF0A1
:1013E0000009CA4605F00F09B9F1000F0AD105F04E
:1013F000200038B106F0200020B1204603F029F982
:10140000BDE8F88FB9F1000F72D007F0010018B9EC
:1014100006F4907000286BD005F0010030B106F49E
:10142000807018B1206C40F00100206405F00400C9
:1014300030B107F0010018B1206C40F002002064C8
:1014400005F0020030B107F0010018B1206C40F047
:101450000400206405F0080048B106F0200010B92F
:1014600007F0010018B1206C40F008002064206CE7
:1014700070B305F0200028B106F0200010B120461E
:1014800003F0E7F820684069C0F3801A206C00F090
:10149000080010B9BAF1000F23D0204603F0AEF8CF
:1014A0002068406900F04000402816D1206840695B
:1014B00020F0400021684861A06B50B15648A16BF4
:1014C0000865A06BFFF75DF910B1A06B016D88474F
:1014D0000CE02046FFF76FFF08E02046FFF76BFFA8
:1014E00004E02046FFF767FF0020206488E7FFE75D
:1014F000206B012879D105F01000002875D006F086
:101500001000002871D000BF002000902068006803
:10151000009020684068009000BF00BF20684069CC
:1015200000F04000402839D1A06B006840681FFAE5
:1015300080F8B8F1000F30D0A08D40452DDDA4F823
:101540002E80A06BC069B0F5807F1FD02068C06876
:1015500020F480702168C8602068406920F0010094
:10156000216848612068406920F040002168486196
:10157000202084F83E00002020632068C06820F00E
:1015800010002168C860A06BFFF7A6F8A08DE28D5F
:10159000801A81B22046FFF70DFF31E7A08DE18D63
:1015A000401A1FFA80F8E08DE8B1B8F1000F1AD0A8
:1015B0002068C06820F490702168C8602068406985
:1015C00020F0010021684861202084F83E000020BE
:1015D00020632068C06820F010002168C860414680
:1015E0002046FFF7E7FE0BE7FFE705F0800030B18C
:1015F00006F0800018B1204603F0C3F900E705F0BB
:10160000400030B106F0400018B1204603F011F858
:10161000F6E600BFF4E60000E945000810B5044610
:101620000CB9012010BDA06900B100E000BF94F822
:101630003D0028B9002084F83C00204600F028F83E
:10164000242084F83D002068C06820F40050216800
:10165000C860204603F05CF82068006920F49040E0
:10166000216808612068406920F02A0021684861EB
:101670002068C06840F400502168C86000202064E1
:10168000202084F83D0084F83E000020CAE70000D6
:1016900010B586B004462E492068884255D100BF57
:1016A00000BF002000902B48006840F0100029493E
:1016B00008600846006800F01000009000BF00BFFE
:1016C00000BF00BF00BF002000902248143800680F
:1016D00040F001001F49143908600846006800F016
:1016E0000100009000BF00BF00BF00BF00BF00208E
:1016F00000900846006840F0010008600846006855
:1017000000F00100009000BF00BF00BF481501902D
:1017100002200290012003900220049007200590EF
:1017200001A90D48FFF742F84FF4806001900720AF
:10173000059001A90848FFF739F82520FFF79DF922
:10174000032211462520FFF7A8F906B010BD0000BE
:1017500000100140443802400000024070B50446C9
:101760000D46164694F83E00202816D105B10EB954
:10177000012070BD00BF94F83C00012801D1022077
:10178000F7E7012084F83C0000BF002020633246C8
:101790002946204603F0D2F8EBE70220E9E70000F3
:1017A0001D4A0168914236D11C49098801F4004163
:1017B00089BB1A49098801F4804171B11849097837
:1017C0000A2903D00021154A118024E01349098811
:1017D00041F40041114A11801DE0114909780D2999
:1017E00006D10E49098841F480410C4A118012E06B
:1017F0000B490978094A1288C2F30D02094B995422
:1018000006490988491C054A118011460988C729DB
:1018100001DD002111807047001001402C000020E4
:101820002E0000206C0B0020704700BFFEE700BFB9
:10183000FEE730B505460C4622460021284600F05A
:1018400001F830BD2DE9F04105460B4694460027CE
:10185000002402E03F021F43641C042CFAD36046BC
:1018600005F00306294646B1344603E001F8013B82
:10187000401E641C08B1042CF8D30A4601E080C263
:10188000001F0428FBD2114602E001F8013B401E74
:101890000028FAD1BDE8F0817047704770B5044662
:1018A00000F09EF80020394908703949087039491C
:1018B0000870394908603949086039490870394960
:1018C000087039490870394800680A21B0FBF1F006
:1018D000374908603748056845B13748066803E06E
:1018E000761E002028602D1D002EF9D13248016897
:1018F0003048006802F0DAF901F036FD01F058FDD9
:1019000000202E4908602E490880204601F01EFB69
:10191000208800B170BD204601F024FB208800B172
:10192000F8E7002027490860274908802749086010
:10193000274908802749086027490880204602F087
:101940002FF9208800B1E5E7204601F0C7FA20888A
:1019500000B1DFE7204602F0B5F9208800B1D9E7F1
:10196000204601F0E9FF208800B1D3E7204602F0CD
:101970003BFC208800B1CDE701F078F9FFF78DFF3F
:1019800001201649087000BFC4E700007C00002059
:101990007D000020AA000020180100201C0100206A
:1019A0009E0000209F000020B000002000B800082A
:1019B000AC000020CCB70008D0B700088800002099
:1019C0008C000020980000209C000020A400002033
:1019D000A8000020B4000020B80000207E000020F5
:1019E0000C4909680C4A126801EB82010B4A11602C
:1019F0001146096821F0070111600949086800F0E3
:101A00004041B1F1404F01D000BFFEE74021054AFF
:101A100011607047CCB70008D0B7000870000020F4
:101A200034EF00E07400002008480078012800D05E
:101A3000704707480078FA2800D3F9E7044800788F
:101A4000401C0349087000BFF2E700007D00002041
:101A50007C00002070B5002538480078012800D0AF
:101A600070BD00BF4020FEF709FC054600BF3448AA
:101A7000007828B900BF2846FEF70EFC00BFEFE74C
:101A80002F480078401E2E4908700846007828B17B
:101A900000BF2846FEF700FC00BFE1E729480078B8
:101AA00028B100BF2846FEF7F7FB00BFD8E726485D
:101AB00001682648006802F0E5F80446012C02D0CF
:101AC000002000F0ABF901F045FC21490870084600
:101AD000007800EB40001F4951F820001E490860C3
:101AE000084600681D49096888420FD1002000F0AF
:101AF000BDFF0446012C03D01848006800F08EF9A1
:101B000000BF2846FEF7C8FB00BFA9E712480068DF
:101B1000D0F89400401C10490968C1F8940010489E
:101B20000068401C0E490860FEF7BBFC00BF284659
:101B3000FEF7B2FB00BF00BF92E700007D0000206F
:101B40007C000020AA000020D0B70008CCB7000815
:101B50009F000020B0BF01201C01002018010020C0
:101B6000D80000202DE9F04104460E461546002716
:101B70002148007820B142F6E1602880BDE8F0817C
:101B80001CB945F6C3502880F8E700BF00BF4020CD
:101B9000FEF774FB074600BF00BF18492068884263
:101BA0000AD100BF00BF3846FEF776FB00BF00BF7A
:101BB00045F6C1502880E1E71048206066600020AB
:101BC0002062606284F82800E06204F1080001F0FD
:101BD0000CFB204601F02CFA09480088401C0849FB
:101BE000088000BF00BF3846FEF756FB00BF00BFAD
:101BF0000020288000BFC1E77C0000204D555458CC
:101C00009C0000202DE9F0470646894617461C46F1
:101C1000089D4FF0000A7C48007820B146F2AE10D3
:101C20002880BDE8F08779480078012803D045F680
:101C300089602880F5E71EB945F6C3502880F0E793
:101C40001FB1B7F5004F02D100E000BF03E045F639
:101C500025602880E5E700BF6D493068884203D0E1
:101C600045F6C4502880DCE700BF00BF4020FEF7E7
:101C700005FB824600BF00BF96F82800B8B965484A
:101C800000687062012086F828000CB1F06A2060BC
:101C900031466048006801F0E3F900BF00BF5046DC
:101CA000FEF7FAFA00BF00BF00202880B9E75949C3
:101CB000706A0968884221D196F82800FF280AD165
:101CC00000BF00BF5046FEF7E7FA00BF00BF45F275
:101CD00084702880A5E796F82800401C86F8280024
:101CE0000CB1F06A206000BF00BF5046FEF7D4FA86
:101CF00000BF00BF45F28270288092E707F40040E1
:101D000068B100BF00BF5046FEF7C6FA00BF00BF73
:101D10000CB10020206046F2B010288081E73E48D8
:101D2000007868B100BF00BF5046FEF7B5FA00BFAB
:101D300000BF0CB10020206046F66350288070E799
:101D4000D6F8248098F83B003249096891F83B1096
:101D5000884206DD2F48006890F83B10404601F0AD
:101D600071FE4B4604222B480168304601F0CEF943
:101D700000BF00BF5046FEF78FFA00BF00BF00F063
:101D800055F800BF00BF4020FEF778FA824600BF3A
:101D900000BF2048006890F8390030B101280CD00D
:101DA00002281AD0032821D110E01CB1194800687C
:101DB000C06C2060002028801CE01CB11548006821
:101DC000C06C206046F2A910288013E00CB10020FE
:101DD000206047F2D92028800CE01CB10D48006833
:101DE000C06C206045F6C250288003E046F62E60A5
:101DF000288000BF00BF00BF00BF5046FEF74CFA6E
:101E000000BF00BF00BF0CE77C0000207D00002069
:101E10004D55545818010020AA00002010B5044662
:101E200000BFFEF7B1FB00BF10BD000010B50024DD
:101E300022480078012800D010BD2148007800B168
:101E4000FAE72048007800B1F6E700BF4020FEF72F
:101E500015FA044600BF01F07DFA1B4908700846D8
:101E6000007800EB4000194951F82000184908603B
:101E70000846006817490968884205D100BF204616
:101E8000FEF70AFA00BFD7E711480068D0F89400BF
:101E9000401C0F490968C1F894000F480068401CB5
:101EA0000D490860FEF7FDFA00BF2046FEF7F4F981
:101EB00000BFBFF36F8F00BFBEE700007D000020B2
:101EC0007C000020AA0000209F000020B0BF01205D
:101ED0001C01002018010020D800002070B5044625
:101EE00000251748007818B146F66250208070BD72
:101EF00014480078012803D045F689602080F6E771
:101F000011480078FA2803D345F209202080EEE733
:101F100000BF00BF4020FEF7B1F9054600BF00BF7B
:101F200009480078401C0849087000BF00BF2846D7
:101F3000FEF7B2F900BF00BF0020208000BFD6E747
:101F40007C0000207D000020AA0000202DE9F04147
:101F500005460C461646002700BF00BF4020FEF78E
:101F60008DF9074600BF00BF1DB900200D4908705C
:101F700002E001200B49087014B10B48046006E030
:101F80000A4800680A21B0FBF1F00749086000BF69
:101F900000BF3846FEF780F900BF00BF0020308048
:101FA000BDE8F081B0000020AC00002000B80008BF
:101FB00070B5044600251F48007818B146F66550F4
:101FC000208070BD1C480078012803D045F6896048
:101FD0002080F6E71948007818B946F6645020804A
:101FE000EFE700BF00BF4020FEF748F9054600BFFD
:101FF00000BF12480078401E10490870084600785B
:1020000050B100BF00BF2846FEF746F900BF00BF31
:1020100046F663502080D4E700BF00BF2846FEF795
:102020003BF900BF00BFFFF701FF0020208000BF89
:10203000C7E700007C0000207D000020AA000020EF
:1020400070B504461C480078012803D045F68B6023
:10205000208070BD00256D1C6D1C6D1C174800880C
:10206000A84203DC45F68C602080F2E71448007833
:10207000E8B901F06FF91349087008460078124971
:1020800008701048007800EB4000104951F820001B
:102090000F490860084600680E4908600120084999
:1020A0000870FEF7BFF943F69920208002E045F65C
:1020B0008A60208000BFCCE77E000020E000002086
:1020C0007D0000209F0000209E000020B0BF012066
:1020D0001C010020180100202DE9F04107464FF0B7
:1020E000000800BF00BF4020FEF7C8F8804600BFD0
:1020F00000BF00203B4908803B4908603B4908601D
:102100003B4908603B4908603B4908603B490881FE
:1021100000BF00BF4046FEF7BFF800BF00BF00BFD2
:1021200000BF4020FEF7AAF8804600BF00BF344839
:10213000046800BF00BF4046FEF7AEF800BF00BF16
:1021400021E000BF00BF4020FEF798F8804600BFA6
:1021500000BF002044F8800FE0626061208260824E
:1021600020626062FEF73CFAE061803C04F16C069C
:102170000020B081D4F8BC4000BF00BF4046FEF74D
:102180008BF800BF00BF002CDBD100BF00BF402098
:10219000FEF774F8804600BF00BF1A48056800BF0C
:1021A00000BF4046FEF778F800BF00BF13E000BF55
:1021B00000BF4020FEF762F8804600BF00BF05F177
:1021C00020060020B081AD6900BF00BF4046FEF789
:1021D00063F800BF00BF002DE9D100203880BDE8C2
:1021E000F0810000BE000020D4000020F00000209C
:1021F000F4000020080100200C010020A4BF0120F1
:10220000DC000020A4000020704700002DE9FF4FF3
:1022100085B004469346DDE91995DDE91286159FE0
:10222000002002906248007828B147F24A102880C6
:1022300009B0BDE8F08F1CB947F2AD102880F7E770
:10224000BBF1000F03D147F24F102880F0E71EB911
:1022500046F62F602880EBE756480068874203D295
:1022600046F630602880E3E71498B84203D346F678
:1022700031602880DCE7B8F11E0F06D9B8F11F0FD6
:1022800003D046F273202880D2E7B8F11F0F06D1A1
:102290004948844203D046F273202880C8E720468C
:1022A00001F08EFC0020288009F0010010B909F02F
:1022B000020088B109F0020070B1B246002004901B
:1022C00007E00020CAF800000AF1040A0498401C44
:1022D00004900498B842F4D3149806EB800003905D
:1022E000CDE9007932465846039B089900F056FB29
:1022F0008246B24503D246F63260288098E73946D6
:10230000304601F0D3FCC4F824B00898A0620698C7
:10231000E06084F83B8084F83C80C4F800A0039817
:10232000A0601798E065179818B9244800682066DF
:1023300001E0179820661898606026626764A4F828
:10234000489004F16C00169900F06AFE204600F0F7
:102350003BF800BF00BF4020FDF790FF029000BF98
:1023600000BF94F83B0001F00BF8204601F068F83C
:10237000204601F0DBFB12480088401C1049088011
:1023800010480078012807D000BF00BF0298FDF771
:1023900083FF00BF00BF4BE700BF00BF0298FDF7FF
:1023A0007BFF00BF00BFFFF741FD00BF40E700001B
:1023B0007C000020FCB70008E0BE0120AC0000203B
:1023C000E00000207D000020704700002DE9F04172
:1023D00004460E464FF000086148007820B147F2ED
:1023E0004E103080BDE8F0815E480078012803D0AF
:1023F00045F689603080F5E75B48844203D147F2B7
:102400004C103080EEE784B900BF00BF4020FDF7DC
:1024100035FF804600BF00BF5448046800BF00BFBE
:102420004046FDF739FF00BF00BF00BF00BF40209E
:10243000FDF724FF804600BF00BF94F83A0008284B
:102440005ED2DFE800F004090E10080A0F112046E2
:1024500001F034F85FE05EE000BF204601F0DCFCF4
:1024600059E000BF00BF00BF94F83800082839D2F7
:10247000DFE800F0040705380D08090600BF00BFBB
:1024800031E000BF00BF204600F0E7FE2BE0606BAC
:10249000456A15F83B7F204600F0DFFE2878697812
:1024A0003B3D884212D095F83B0094F83B1088429F
:1024B0000CD1284600F007FE074695F83C00B842CC
:1024C00002DA95F83C0000E038460746002084F820
:1024D000380095F83B00B84203D03946284601F051
:1024E000B1FA00E000BF00BF94F83A00032803D01F
:1024F00094F83A00072802D1204601F08DFC0AE04A
:1025000000BF00BF4046FDF7C7FE00BF00BF46F654
:102510002D60308066E700BF206C10B1204600F0CF
:10252000A3FD04F16C0000F05BFD204600F022F8F2
:10253000204601F013FB0E480088401E0C4908801D
:10254000FF2084F83A000020308000BF00BF4046E2
:10255000FDF7A2FE00BF00BFFFF768FC00BF41E728
:102560007C0000207D000020E0BE0120180100203A
:10257000E0000020704770472DE9F04780460E4686
:1025800014461D464FF000097648007828B146F2FF
:10259000AE1028800020BDE8F0877348007801283D
:1025A00004D045F6896028800020F4E71EB1B6F516
:1025B000004F02D100E000BF04E045F6256028800E
:1025C0000020E8E700BF00BF00BF4020FDF756FE37
:1025D000814600BF00BF65480068006DA8B363482E
:1025E0000068006D401E6149096808655F48006821
:1025F000076D1CB15D480068C06C2060FDF7F0FFFE
:102600005A490968C96C401A58490968C1F8A800B4
:1026100056480068D0F8AC0054490968D1F8A810B1
:10262000884207D251480068D0F8A8004F4909688D
:10263000C1F8AC0000BF00BF4846FDF72DFE00BF4B
:1026400000BF002028803846A5E7FFE706F40040D9
:1026500070B100BF00BF4846FDF71EFE00BF00BFBF
:102660000CB10020206046F2B0102880002092E7D4
:102670003F48007870B10CB10020206000BF00BF5F
:102680004846FDF709FE00BF00BF46F663502880AC
:10269000002080E74346072234480168002000F00C
:1026A00035FD00BF00BF4846FDF7F6FD00BF00BF87
:1026B000FFF7BCFB00BF00BF4020FDF7DFFD8146F8
:1026C00000BF00BF2948006890F8390020B10128F8
:1026D00026D0032834D12CE0FCB124480068C06C1B
:1026E0002060FDF77DFF21490968C96C401A1F4928
:1026F0000968C1F8A8001D480068D0F8AC001B4963
:102700000968D1F8A810884207D218480068D0F8A4
:10271000A80016490968C1F8AC000020288013E021
:102720001CB112480068C06C206046F2A9102880D5
:102730000AE00CB10020206047F2D920288003E095
:1027400046F62E60288000BF00BF08480068076D6D
:1027500000BF00BF4846FDF79FFD00BF00BF3846E1
:1027600019E700007C0000207D00002018010020F7
:10277000AA0000202DE9F8430446884615464FF08C
:1027800000094C480078012805D045F6896028806A
:102790000020BDE8F883B8F1000F03D0B8F5004F72
:1027A00002D100E000BF04E045F62560288000204B
:1027B000EFE700BFFDF714FF074600BF00BF402052
:1027C000FDF75CFD814600BF00BF0CB93A480468C4
:1027D000E7640020288094F83A0008285AD2DFE8FD
:1027E00000F0040522230607242500BF00BF00BF18
:1027F000206D401C58B900BF00BF4846FDF74CFD96
:1028000000BF00BF46F6C55028800020C1E7206DFC
:10281000401C2065266D00BF00BF4846FDF73CFD0B
:1028200000BF00BF42E000BF00BF00BF94F8380007
:10283000072814D100231A4621461846009700F0B5
:1028400033FD266D00BF00BF4846FDF725FD00BFE4
:1028500000BF08F40040E0B9FFF7E8FA19E0206D86
:10286000401C58B900BF00BF4846FDF715FD00BF2A
:1028700000BF46F6C550288000208AE7206D401C26
:102880002065266D00BF00BF4846FDF705FD00BF6F
:1028900000BF0BE000BF00BF4846FDF7FDFC00BFD6
:1028A00000BF46F62D602880002600BF00BF3046DE
:1028B0006FE700007D000020180100202DE9F05F87
:1028C00005460E4617461C464FF0000B314800786F
:1028D00020B147F259102080BDE8F09F1EB946F2A2
:1028E000D5202080F8E71FB946F2D5202080F3E7F5
:1028F00000BF00BF4020FDF7C1FC834600BF00BF02
:102900000DB925480568286868B900BF00BF58465A
:10291000FDF7C2FC00BF00BF00203060386047F206
:1029200052102080D8E795F8480000F0010068B9FF
:1029300000BF00BF5846FDF7AFFC00BF00BF00203E
:102940003060386047F254102080C5E7D5F820A0E9
:102950000AF1200AD5F8449000BF00BF5846FDF7A1
:102960009BFC00BF00BF4FF0000803E00AF1040A1F
:1029700008F10108C84503D2DAF800000028F5D0B4
:10298000C6F80080A9EB080038600020208000BF56
:10299000A2E700007C00002018010020F0B50446EA
:1029A000DDE9055602EB850020F007004FF0807C42
:1029B000071F3846C7F800C0071F38463C60DFF8DD
:1029C000A8C0071F3846C7F800C04FF0123C071FC9
:1029D0003846C7F800C04FF0033C071F3846C7F819
:1029E00000C04FF0023C071F3846C7F800C0071F61
:1029F00038463B60071F384639606FF0020C071FEE
:102A00003846C7F800C04FF0113C071F3846C7F8DA
:102A100000C04FF0103C071F3846C7F800C04FF009
:102A2000093C071F3846C7F800C04FF0083C071F95
:102A30003846C7F800C04FF0073C071F3846C7F8B4
:102A400000C04FF0063C071F3846C7F800C04FF0E3
:102A5000053C071F3846C7F800C04FF0043C071F6D
:102A60003846C7F800C0F0BD6D3C000830B50446DC
:102A70000CB90B480468216A2068884206D3616C4F
:102A8000206A00EB81002168884201D8002030BD17
:102A9000616C206A01F0F6F805462846F7E7000069
:102AA0001801002070B5FDF79BFD0546154800682C
:102AB00015490968884215D012480068D0F89C0072
:102AC000281A10490968C1F898000E480068D0F823
:102AD000A0000C490968D1F8981008440949096810
:102AE000C1F8A00008480068C0F89C500020FFF71B
:102AF000BDFF0446012C03D002480068FFF78EF9A1
:102B000070BD0000180100201C0100202DE9F041DB
:102B100006460D46144600272748007820B147F2A4
:102B200075202080BDE8F08124480078012803D07A
:102B300045F689602080F5E72148007818B146F60F
:102B400063502080EEE735B1022D05D0042D05D06D
:102B5000082D04D101E000BF00BF00BF03E045F62F
:102B600025602080DEE700BF00BF00BF4020FDF7EA
:102B700085FB074600BF00BF23462A463146114861
:102B8000006801F003F9208838B100BF00BF384663
:102B9000FDF782FB00BF00BFC4E70A48006800F0F1
:102BA0008DFC00BF00BF3846FDF776FB00BF00BFBD
:102BB000FFF73CF900BFB5E77C0000207D00002056
:102BC000AA0000201801002010B50A48007801284A
:102BD00000D010BD00F014F80749097801EB41015D
:102BE000064A02EB810000F097FC012001F0DEF9BB
:102BF00000BFEEE77D0000209E000020B0BF012056
:102C0000704710B5002400BF00BF4020FDF736FB21
:102C1000044600BF00BFFEF707FF00BF00BF20460D
:102C2000FDF73AFB00BF00BFFFF7CEFFFEF712FF34
:102C300010BD000010B5014640224B1E4FF0E024AD
:102C40006361094B186820F07F4040EA0260186019
:102C500023461B6943F00503236123461B6943F0A8
:102C60000203236110BD000020ED00E00EB54748CF
:102C700002904748009047480290474802904748D2
:102C800000904748029047480190474802904748C3
:102C900002904748029047480290474801904748B1
:102CA00001904748019047480290474801904748A3
:102CB0000290474801904748019047480190474893
:102CC0000190474802904748029047480290474881
:102CD0000190474802904748029047480190474872
:102CE0000190474801904748019047480190474864
:102CF0000190474802904748029047480290474851
:102D00000290474801904748019047480190474842
:102D10000290474802904748029047480190474830
:102D20000190474801904748009047480190474824
:102D3000029047480290474802904748029047480F
:102D40000290474802904748029047480190474800
:102D500002904748029047480190474801904748F1
:102D600002904748029047480190474801904748E1
:102D700002904748029047480190474801900298C6
:102D8000029001980190009800900EBD20B80008B4
:102D900084B9000821B8000822B8000824B8000847
:102DA00028B800082CB8000829B8000854B8000852
:102DB00055B8000856B8000858B800085AB80008B6
:102DC0005CB800087CB800087EB8000880B800082D
:102DD00082B8000884B8000886B8000888B80008DF
:102DE000B8B80008B9B80008BAB80008BCB80008FC
:102DF000BEB80008BFB80008C0B80008C2B80008D4
:102E0000C4B80008C6B80008C8B80008CCB80008A4
:102E1000FCB80008FDB80008FEB80008FFB80008BC
:102E200000B9000802B9000804B900082CB900086C
:102E30002DB900082EB900082FB9000830B90008D4
:102E400032B9000834B9000838B9000839B90008A7
:102E50003AB900083BB900083CB900083DB9000880
:102E60003EB900083FB9000840B9000842B900085F
:102E700043B9000844B9000846B9000848B9000839
:102E800049B900084AB900084CB900087CB90008E3
:102E90007DB900087EB9000880B90008002400BF91
:102EA00000BF00BF4020FDF7E9F9044600BF00BFA6
:102EB00008480068401C0749086007480068401C33
:102EC0000549086000BF00BF2046FDF7E5F900BFD7
:102ED000E6E7000078000020C000002010B58AB0AE
:102EE000044600200E4908600B2000210591CDE921
:102EF0000704069108460B4909680B4A12680B4BF8
:102F00001B68CDE90132CDE903101F200023084AD8
:102F100008A100900C48FFF779F90AB010BD000035
:102F200078000020C4B70008C0B70008BCB700088C
:102F30009D2E000875432F4F532D49494920496460
:102F40006C65205461736B00E0BE01200021034AD0
:102F50001160034A1180018070470000900000203A
:102F60009400002070B501461A4D2D681DB945F238
:102F70001E750D8070BD184D2D881DB945F21D754B
:102F80000D80F7E7134D28682A681032124D2D88FE
:102F90006D1EACB2002308E002600025456005818B
:102FA000C560103010325D1CABB2A342F4DB0025CB
:102FB000056045600581C560064D2D68074E35608A
:102FC000054D2D88B5800025F58035810D8000BF29
:102FD000D0E70000E0B70008D8B70008A4BF012080
:102FE00010B5014648894B89BBB10A680B4B1B6879
:102FF00013600A4C4B6823602346DB884C891B1BFB
:10300000064CE38023469B884C892344034CA380D1
:1030100000234B818B810B604B6010BDA4BF01204E
:10302000018100224281828102604260704700007B
:1030300009A1C161002141610849096811B9002154
:10304000816105E0054909688161044909684861B1
:10305000024908607047000020000000980000202E
:10306000026C0A62016470472DE9F84305462C6C36
:1030700025E0D4F82090FDF7B3FA8046C4F82C8000
:103080002146284600F034F804F10806306820B9DB
:10309000002084F82800606210E037686562012033
:1030A00084F8280021463846FFF7DAFF00231A4645
:1030B00039462046CDF8008000F0F6F84C46002C4A
:1030C000D7D1BDE8F88330B504461F2004F1400194
:1030D0000AE00D68AB6823B193F83B20824200DA26
:1030E00010460D6805F120010D68002DF1D130BDAD
:1030F000024602F1400002E0036803F12000036889
:103100008B42F9D103681B6A036070472DE9F041D7
:1031100005460C4616461F4684F83860002084F8A1
:1031200039003946204600F075FC3DB105F108082C
:1031300065632146404600F05DF801E000206063D1
:103140002146284600F002F8BDE8F08110B540B1F4
:103150004468C1F8C04000F108031A68D468C4612B
:1031600013E091F83840022C02D0072C08D103E07C
:1031700006A4C1F8C04007E006A4C1F8C04003E0BF
:1031800007A4C1F8C04000BF00BF10BD5461736BFD
:10319000205100005461736B2053656D00000000E6
:1031A0002000000010B50A4606A4C2F8C04040B195
:1031B00000F10803196811B1CC68C46101E001A4F1
:1031C000C46110BD2000000070B50446666B06F1B6
:1031D00008052868C06A38B1204600F03EF86663EA
:1031E0002146284600F006F870BD002101604160CC
:1031F0000181704710B591F83B3004683CB9012457
:1032000004810024CC620C630160416024E00489E5
:10321000641C0481026805E092F83B409C4200DD9A
:1032200002E0D26A002AF7D100BF3AB90024CC628A
:1032300044680C630C6BE16241600DE0146B2CB9C7
:10324000CA6200240C631163016005E0CA62146B5A
:103250000C630C6BE162116310BD10B5446B14B3C9
:10326000446B04F108010C68E46A1CB900240C608A
:103270004C6011E0046B24B9C26A002414630A6034
:103280000AE0C46A24B9036B0024DC624B6003E0EB
:10329000036BC26ADA6213630C89641E0C8100241A
:1032A000C4620463446310BD2DE9F04105460C4639
:1032B00016461F46DDF8188094F83A00082845D2D3
:1032C000DFE800F0040508090607272800BF00BF53
:1032D00000BF3CE000BF6666A4F86870C4F84C808C
:1032E00015B12046FFF7B9FF21462846FFF75AFFE0
:1032F00094F83A00032802D1204600F08DFD2046C4
:1033000000F068F800203834A070607004F83809C4
:103310001DE000BF6666A4F86870C4F84C8015B163
:103320002046FFF79AFF21462846FFF73BFF94F817
:103330003A00072802D1204600F06EFD0420383400
:10334000A0700020607004F8380900E000BF00BFE2
:10335000BDE8F08110B503490868FCF7AAFFC0B2C8
:1033600010BD0000A0000020002004E00021034A5E
:1033700042F82010401C0028F8D07047A000002020
:1033800004490968C0F11F0301229A401143014A10
:1033900011607047A000002004490968C0F11F03B4
:1033A00001229A409143014A11607047A000002019
:1033B000002109E001EB4102054B03EB82000022F2
:1033C000028102604260491C2029F3D3704700004B
:1033D000B0BF012010B5044694F83B00FFF7D0FFC2
:1033E00094F83B0005490978884203D1204600F053
:1033F00027F802E0204600F003F810BD9E000020F0
:1034000010B590F83B3003EB43030C4C04EB830105
:103410000B683BB901230B81002303614361086002
:10342000486009E00B895B1C0B810B68036100237A
:1034300043610A685061086010BD0000B0BF012000
:1034400010B590F83B3003EB43030B4C04EB8301C6
:103450000B683BB901230B810023036143610860C2
:10346000486008E00B895B1C0B81002303614A68FC
:1034700042611061486010BDB0BF012030B5D0E995
:103480000045AC4218D0046824694568AC4209D1B3
:10349000016842684A6100240C6154611161026054
:1034A000416009E0016842680B6900245C610C61BD
:1034B0004A6111610360416030BD00002DE9F041B7
:1034C000054695F83B0000EB4000124901EB8004F3
:1034D0006F692E6987B946B900202081206060603D
:1034E00095F83B00FFF758FF0EE02089401E208131
:1034F00000207061266007E02089401E20813E6127
:103500000EB9676000E07761002068612861BDE85E
:10351000F0810000B0BF012070B5054600262E489E
:103520000078012800D070BD00BF00BF4020FCF72C
:10353000A5FE064600BF00BF2C683CB900BF00BF17
:103540003046FCF7A9FE00BF00BFECE723488442E9
:1035500007D100BF00BF3046FCF79EFE00BF00BF92
:10356000E1E7206E10B1206E401E2066206E38B15B
:1035700000BF00BF3046FCF78FFE00BF00BFD2E7A0
:10358000D5E90001884207D100BF00BF3046FCF7F3
:1035900083FE00BF00BFC6E71148007838B100BF06
:1035A00000BF3046FCF778FE00BF00BFBBE72846EF
:1035B000FFF764FF2C68E06D18B90A4800682066C0
:1035C00001E0E06D206600BF00BF3046FCF764FEFE
:1035D00000BF00BF00BFA6E7B0000020E0BE012092
:1035E000AA000020AC00002088B00020009006E077
:1035F000BD490968480002AA0021FFF787FABB48C5
:1036000000780128F4D102A8FEF766FD4FF000080B
:10361000B7480068B4490968884205D9B4480068C9
:10362000B1490968B0FBF1F8B8F1000F04D1B04816
:1036300000680A21B0FBF1F800BFFCF7D1FF81461A
:1036400000BF00BF4020FCF719FE009000BF00BF84
:10365000A8480068A84908600020A649086000BF83
:1036600000BF0098FCF718FE00BF00BFA348006829
:10367000A1490968884248D9A0480068A049884201
:1036800005D242F2107004900120039023E09B4881
:1036900000689C49884205D24FF47A7004900A2051
:1036A000039018E0954800689749884203D2642047
:1036B000049003900FE0914800689449884205D235
:1036C0000A2004904FF47A70039004E001200490E3
:1036D00042F210700390894801680398B1FBF0FB37
:1036E0008549049809684843B0FBFBF042F2107129
:1036F000081A87490880874800880988884207DABD
:10370000834800888349088002E0002080490880BF
:10371000FEF77AFD002500BF00BF4020FCF7AEFD9C
:10372000009000BF00BF7C48046800BF00BF009845
:10373000FCF7B2FD00BF00BF28E000BF00BF402083
:10374000FCF79CFD009000BF00BF54F8A00F606024
:10375000002044F8A00900BF00BF0098FCF79CFDC2
:1037600000BF00BFD4F8A400054400BF00BF402044
:10377000FCF784FD009000BF00BFD4F8BC4000BF40
:1037800000BF0098FCF788FD00BF00BF002CD4D11B
:103790005DB35B48854205D242F21070069001206D
:1037A00007901DE05748854205D24FF47A70069085
:1037B0000A20079014E05448854203D26420069002
:1037C00007900DE05148854205D20A2006904FF43B
:1037D0007A70079004E00120069042F21070079082
:1037E0000798B5FBF0F0059003E00020069001205B
:1037F000059000BF00BF4020FCF740FD009000BFD7
:1038000000BF4548046800BF00BF0098FCF744FDB6
:1038100000BF00BF2CE0D4F8A400069948430599E6
:10382000B0FBF1F086B242F21070864200D9064633
:10383000A4F89060B4F89200B04201DAA4F8926063
:1038400002AB04F1B002111D2046FFF737F800BFAC
:1038500000BF4020FCF712FD009000BF00BFD4F86D
:10386000BC4000BF00BF0098FCF716FD00BF00BFC2
:10387000002CD0D100272948D0F800A00AF1200A56
:10388000274800680838019002E00AF1040A7F1C0A
:10389000DAF8000010B901988742F6D32148076092
:1038A0001F480068C01B2049086020480078012894
:1038B00005D100201D49087002A8FEF70DFCFCF799
:1038C0008FFEA0EB09001A4908601A4800680968D1
:1038D000884203D2164800681649086002AA0021EF
:1038E0004046FFF713F9A8E6E8B70008CC0000202F
:1038F00000B80008C0000020C8000020C40000205C
:10390000801A060000093D00005A62020084D717A1
:10391000BC000020BE000020DC000020CCB7000866
:10392000D0B700088000002084000020BA000020EA
:10393000D0000020D400002010B58AB0044600203A
:10394000214908602149086021490860214908701F
:103950002149087021490860214908602148006810
:1039600020B946F62B6020800AB010BD1E480068C2
:103970001E490968884203D246F62C602080F3E78E
:103980001B4800781F2803D346F62A602080EBE707
:10399000032000210591CDE907040691084612494C
:1039A0000A68144909680F4B1B68CDE90131CDE95C
:1039B00003200F48007800230F4A10A100901448FC
:1039C000FEF724FC00BFCFE7C0000020C8000020A5
:1039D000C4000020CC000020BA000020800000209D
:1039E00084000020ECB70008F4B70008FCB700081A
:1039F000E4B70008F0B70008E935000875432F4F19
:103A0000532D4949492053746174205461736B00EC
:103A100030C1012070B504460D4655B12B4608480B
:103A200000210268204600F05BF9032084F83A0088
:103A300002E0022084F83A002046FFF73FFD70BD07
:103A4000E40000202DE9F04104460D4600BF0026A9
:103A500094F83B7094F83A0008285DD2DFE800F053
:103A600004191E1F1A1B20212046FFF727FD84F88A
:103A70003B5094F83B00FFF783FC2B4800688442DE
:103A800003D12046FFF7BCFC02E02046FFF7D8FC3C
:103A900044E000BF00BF84F83B503FE000BF00BFE0
:103AA00000BF84F83B5094F8380008282FD2DFE894
:103AB00000F02E042F2E0A05063000BF00BF20465E
:103AC000FFF782FB26E02046FFF77EFB606B466A2D
:103AD000AF4205DD96F83B00A84217DC002615E052
:103AE00096F83B00B84211D13046FFF7ECFA054694
:103AF00096F83C00A84202DA96F83C0000E028461E
:103B0000054696F83B00A84200D1002602E000BF1F
:103B100000BF00BF00BF01E0BDE8F08100BF344638
:103B2000002C94D100BFF7E7180100200021C0F855
:103B3000B8100949096819B90021C0F8BC1007E09C
:103B400005490968C0F8BC1003490968C1F8B80004
:103B50000149086070470000DC000020D0F8B82060
:103B6000D0F8BC104AB90D4B196011B10023C1F84F
:103B7000B8300023C0F8BC300FE029B90023C2F8E8
:103B8000BC30C0F8B83008E0C2F8BC10C1F8B820AA
:103B90000023C0F8BC30C0F8B8307047DC0000200B
:103BA0000021044A1160044A1180044A1160018016
:103BB00070470000DC000020E0000020D80000205A
:103BC00010B5044600202060A06060602061606144
:103BD000A061E06122A0E060002020626062A0623B
:103BE000E0646066A4F86800002104F16C00FFF74F
:103BF00017FA00202C3420656065A065A4F86000E9
:103C0000E0656062E067C4F88000A06184F862004B
:103C1000C4F88800C4F88400A083A062E062206336
:103C20006063A4F86400A4F86600A066E066FCF790
:103C3000D7FC20670020606720606060A060207370
:103C40006073A0732020E073207400206061C4F8CA
:103C50008C00C4F8900004A0C4F894002C3C10BD63
:103C60003F5461736B0000002000000008B5044859
:103C70000068FEF780FC69460020FEF7A7FB08BD40
:103C80001801002010B502460B46002107E0064C43
:103C90001068A04201D0002010BD121D491C082947
:103CA000F5D30120F8E700004523CDAB0246002004
:103CB00003E0034B42F82030401C0828F9D370473A
:103CC0004523CDAB00210180034A1160034A1160F6
:103CD0009180D18070470000E4000020E8000020BF
:103CE0002DE9F04304460F469446984608EB0C0035
:103CF000DFF89090D9F80090B944A0EB09021AB906
:103D000000206065BDE8F0831F4B186838B9626514
:103D10000020A061E0611C6001209880F2E7988893
:103D2000401C98801968486DC61BB2420BD2C86906
:103D300048B96265B01A48650020E061A161CC61B4
:103D40001C600120DEE7921B0D46A96903E0486D67
:103D5000121A0D46896911B1486D9042F7D949B1DF
:103D6000CD696265E561A161486D801A4865CC61E5
:103D7000AC6104E06265E5610020A061AC610120F6
:103D8000C0E70000E4000020E80000202DE9F04F2B
:103D900006460C4691461F464FF0000BB9F1040F42
:103DA00001D1002520E0B9F1080F1BD124B947F259
:103DB0007E203880BDE8F08FB56D16480068A0EB16
:103DC0000508A0450AD3B8FBF4F004FB0055B8FB86
:103DD000F4F004FB108000B12544B565B06D2044BB
:103DE000B06501E00B48056823462A46594630462F
:103DF000FFF776FF8246BAF1010F05D1012086F860
:103E00003A000020388002E047F27E20388000BF70
:103E1000D0E70000E400002030B5C3698169134A8F
:103E20009BB921B900241460948044651CE00024EF
:103E3000CC614C6D456D2C444C6511609488641EBA
:103E400094800024846144650EE0996121B1CB61C6
:103E50004C6D456D2C444C650024C4619488641EEF
:103E6000948000248461446530BD0000E800002097
:103E70002DE9F04706464FF000094B4F3C68002CF7
:103E800077D0606DB04204D8606D361A002060654E
:103E900002E0606D801B60657CE009F101001FFAA3
:103EA00080F994F83A00012802D005280BD106E0E9
:103EB000002084F83A002046FFF78CFA51E00420F5
:103EC00084F83A004DE0002594F83800042801D128
:103ED000606B456A00206066A4F86800FCF780FB10
:103EE000E0642046FFF7B9F994F83A00032802D0BD
:103EF00007280BD106E02046FFF76CFA002084F873
:103F00003A0004E0042084F83A0000E000BF00BF5B
:103F1000032084F83900002084F8380005B395F8B0
:103F20003B0095F83C1088421AD095F83B0094F875
:103F30003B10884214D12846FFF7C5F8804695F813
:103F40003C00404502DA95F83C0000E040468046DF
:103F500095F83B00404503D041462846FFF772FDE7
:103F600000BF00BFA06938603C681CB90020B88061
:103F700014E014E0B888401EB8800020E061606D55
:103F8000B04204D8606D361A0020606502E0606DB2
:103F9000801B6065606D00283FF47FAF00BFA7F80D
:103FA0000690BDE8F0870000E800002070B50446E8
:103FB000002600BF00BF4020FCF760F9064600BFA6
:103FC00000BF1048006820440E490860FCF708FB59
:103FD00005462046FFF74CFFFCF702FB401B0A4951
:103FE00008600A4800680968884203D206480068E9
:103FF0000649086000BF00BF3046FCF74DF900BF1E
:1040000000BF70BDE4000020F0000020F40000209C
:1040100010B5002400BF00BF4020FCF72FF9044674
:1040200000BF00BF0848094908600948086201F15B
:104030000800FFF7DAF800BF00BF2046FCF72CF9B4
:1040400000BF00BF10BD0000434F4E44F4C101202B
:1040500018C20120F8B5002600BF00BF4020FCF7C1
:104060000DF9064600BF00BFFCF7BAFA04460F4838
:10407000C4620F4D286838B900BF00BF3046FCF756
:104080000BF900BF00BFF8BD00231A4609490848D4
:1040900008380094FFF708F900BF00BF3046FCF76E
:1040A000FBF800BF00BF00BFEDE7000018C2012011
:1040B000FCC1012048C201202DE9F84307464FF01A
:1040C000000800BF00BF4020FCF7D8F8804600BFC2
:1040D00000BFFCF785FA06463F48C66201463F48E6
:1040E000FFF706F83C4D08353C4890F83B003B494B
:1040F00091F83C1088420AD0384890F83C00374983
:1041000081F83B00084690F83C0035490870286863
:1041100028B900203049486281F8280010E02C6856
:104120002D48446201202C4981F828002046FEF7E2
:1041300097FF00231A46214627480096FFF7B4F858
:104140003B46032225492748FEF7E0FF00BF00BF9A
:104150004046FCF7A1F800BF00BFFDF767FE00BFB7
:1041600000BF4020FCF78AF8804600BF00BF1A4815
:10417000406A80B918491948FEF772FF1748164976
:104180004862012081F8280000BF00BF4046FCF7CC
:1041900083F800BF1DE01048446A94F83B000F49C3
:1041A00091F83B10884205DD0C4890F83B10204602
:1041B000FFF748FC0023042208490748FEF7A6FF42
:1041C00000BF00BF4046FCF767F800BF00BFFDF727
:1041D0002DFEBDE8F883000018C2012048C201206E
:1041E0009E000020F4C1012010B58AB004460020D2
:1041F0002A4908802A4908602A4908602A49088013
:104200002A4800682A490968B0FBF1F0294908608A
:1042100000202949086029490860224628A12C4825
:10422000FDF7A0FC208808B10AB010BDFFF7F0FE32
:104230002848006818B947F247302080F4E726483C
:10424000006826490968884203D247F24830208036
:10425000EAE7234800781F2803D347F2463020803E
:10426000E2E70B20002105910A46CDE907040691FB
:10427000194800681B490968164B1B68CDE90131D4
:10428000CDE90302164800780023174A17A10090D1
:104290001C48FDF7BBFF00BFC6E70000040100207B
:1042A000F800002000010020FC00002000B80008F9
:1042B00008B8000814010020080100200C010020AB
:1042C0004F5320546D72204D7574657800000000C6
:1042D00018C201200CB8000814B80008FCB7000888
:1042E00004B8000810B80008D943000875432F4FE0
:1042F000532D4949492054696D6572205461736B8F
:104300000000000048C201202DE9F047054688461C
:104310002848006870B90020286168612548056058
:104320000120254908802548C0F80080FFF792FE4B
:10433000BDE8F08720480088401C1F490880A86914
:1043400040441E490968461A1A480468D4F818906F
:104350004E4510D2606970B9A9EB0600A06100203B
:1043600068612C616561134805601448C0F80080DD
:10437000FFF770FEDCE7A6EB090627463C6903E081
:10438000A069361A2746246914B1A069B042F7D94A
:104390004CB16769AE616F612C61A069801BA0613F
:1043A00065613D6104E0AE616F61002028613D619F
:1043B00000BFBDE700010020FC000020100100202C
:1043C0001CB501A800231A46194600900148FDF7C4
:1043D00019FC1CBD18C201204FF0000AFFF7F0FFC6
:1043E00000BF3D48006810B94FF0000903E03A48AB
:1043F0000068D0F818904846FFF75EFE364800681F
:1044000000B9EEE7FCF7ECF8804600BF00BF4020A3
:10441000FBF734FF824600BF00BF3048076800BF8B
:1044200000BF5046FBF738FF00BF00BF2C480068B4
:104430003D1A2B480760284804680CE0A069A84290
:1044400004D2A0692D1A0020A06103E0A069401BDE
:10445000A061002524690DB1002CEFD11E4804682D
:1044600026E0042084F82600A66816B12046E168FC
:10447000B04794F82600042818D11948016820464E
:1044800000F034F8A08C022809D184F82600206AB4
:10449000A061134801682046FFF736FF06E00020C0
:1044A00060612061A061032084F826000A48046846
:1044B00014B1A0690028D4D0FCF792F8A0EB080052
:1044C00008490860084800680968884203D205481E
:1044D00000680549086084E700010020E40000202E
:1044E00010010020080100200C0100202DE9F041FE
:1044F00005460F46D5F814802C69B8F1000F40D15D
:1045000054B900202949086029490880A861294830
:104510000760FFF79FFD46E025480088401E2449BC
:104520000880244800683E1A00206061A069A969DB
:104530000844A0611D4804600EE0A069B04204D2A6
:10454000A069361A0020A06103E0A069801BA06169
:104550000026A046D8F810400EB1002CEDD113482B
:1045600000688069A969884203D1104800688069A1
:1045700018B910480760FFF76DFD00202861A86199
:1045800011E00B480088401E09490880C8F8104017
:104590002CB1C4F81480A069A9690844A061002066
:1045A00068612861A861BDE8F08100000001002079
:1045B000FC000020100100207047000010B50448E6
:1045C0000078012801D1FEF71CFBFCF70BFA10BDA7
:1045D0007D0000200348006840F470000149086035
:1045E0007047000088ED00E070B50546AC6B002018
:1045F000E085E0842046FCF7DEFE70BD0168C968F6
:1046000021F490710268D1600168496921F00101CB
:1046100002685161016B012905D10168C96821F067
:1046200010010268D160202180F83E100021016352
:10463000704710B504462068C06820F0400021682B
:10464000C860202084F83D002046FDF7EDF80020EA
:1046500010BD70B5044694F83E00222856D1A068DB
:10466000B0F5805F0CD1206950B90025A66A20689A
:104670004068C0F308003080A06A801CA06215E08A
:10468000A56A0026A068B0F5805F03D0A06828B9AD
:10469000206918B920684068287004E020684068E4
:1046A00000F07F002870A06A401CA062E08D401ED0
:1046B00080B2E08540BB2068C06820F020002168FF
:1046C000C8602068C06820F480702168C8602068D5
:1046D000406920F0010021684861202084F83E00F4
:1046E000206B01280AD12068C06820F010002168E2
:1046F000C860A18D2046FCF75DFE02E02046FDF774
:104700004FF80020206370BD0020FCE70220FAE78C
:104710002DE9F84F04462068006920F44050E16814
:104720000843216808612169A0680843616908435A
:10473000E169084300902068C06849F20C61884331
:10474000009908432168C8602068406920F44070DF
:10475000A16908432168486176492068884203D0EE
:1047600075492068884203D1FCF7C2FA814602E00D
:10477000FCF7AEFA8146E069B0F5004F6CD102203B
:104780006168A0FB015003461920A9FB0070014697
:104790002A463846FBF799FD6421B0FBF1F04FEA59
:1047A000001A02206168A0FB01510B461920A9FBE9
:1047B00000712A463846FBF788FD8346022061686F
:1047C000A0FB015003461920A9FB00712A46384678
:1047D000FBF77BFD6421B0FBF1F000EBC00101EBC6
:1047E0000010ABEB8000322101EBC0006421B0FB74
:1047F000F1F000F0F8000AEB400A02206168A0FB2B
:10480000015003461920A9FB007001462A4638468C
:10481000FBF75BFD834602206168A0FB0150034665
:104820001920A9FB00712A463846FBF74EFD64218A
:10483000B0FBF1F000EBC00101EB0010ABEB80002E
:10484000322101EBC0006421B0FBF1F000F0070061
:104850005044216888606AE004206168A0FB015030
:1048600003461920A9FB007001462A463846FBF78B
:104870002CFD824604206168A0FB015003461920EC
:10488000A9FB007001462A463846FBF71EFD64214D
:10489000B0FBF1F000EBC00101EB0010AAEB8000CF
:1048A000322101EB00106421B0FBF1F000F0F00ABE
:1048B00004206168A0FB017003461920A9FB005188
:1048C0003A462846FBF701FD6421B0FBF1F00AEB04
:1048D000001A04206168A0FB01510B461920A9FBB6
:1048E00000712A463846FBF7F0FC834604206168D5
:1048F000A0FB015003461920A9FB007001462A467F
:104900003846FBF7E2FC6421B0FBF1F000EBC0019C
:1049100001EB0010ABEB8000322101EB00106421B1
:10492000B0FBF1F000F00F00504421688860BDE852
:10493000F88F0000001001400014014010B503463C
:1049400099629A85DA8500201864222083F83E0057
:1049500000BF002083F83C0000BF1868C06840F426
:1049600080701C68E0601868406940F001001C68B5
:1049700060611868C06840F020001C68E06000209A
:1049800010BD014691F83D00212828D18868B0F576
:10499000805F0BD1086948B90A6A1088C0F3080023
:1049A0000B685860086A801C086205E00B6A581C96
:1049B000086218780B685860C88C401E80B2C884A2
:1049C00058B90868C06820F080000B68D860086893
:1049D000C06840F040000B68D8600020704702209B
:1049E000FCE7000070B50024114DFDF71DF81148DB
:1049F000FCF7ECFC00BF03E0641CAC4200D904E00F
:104A00000C48FCF7D9FC2028F6D100BF002403E0B5
:104A1000641CAC4200D906E0012207490548FCF7B6
:104A20009DFE0028F4D100BFFDF714F870BD000012
:104A3000FFFF0100340C00202E00002000BFFEE725
:104A400002480068C0F30220704700000CED00E04F
:104A500010B5002804DB0A07130E054A135406E0BC
:104A60000A07140E034A00F00F031B1FD45410BD95
:104A700000E400E018ED00E000BF704770B50446A8
:104A800000204FF0E02108610420FCF765FC0C4891
:104A9000046025460B4800680B49B1FBF0F0454324
:104AA0004FF0E020006940F002004FF0E021086183
:104AB00008464561006940F00100086170BD0000D2
:104AC0002400002000B8000840420F0070B50446E2
:104AD000002504E04FF47A7000F004F86D1CA54244
:104AE000F8D370BD2DE9F843074600264FF0E020CB
:104AF000D0F814901148006807FB00F86846FDF7ED
:104B0000EDF94FF0E020856911E04FF0E020846975
:104B1000AC420CD0AC4202D2281B064403E0A9EB05
:104B20000400284406442546464500D300E0ECE74F
:104B300000BF6846FDF73CFABDE8F883240000207A
:104B400000B587B000BF00BF002001903848006862
:104B500040F01000364908600846006800F0100078
:104B6000019000BF00BF00BF00BF00BF0020019048
:104B70000846006840F0100008600846006800F031
:104B80001000019000BF00BF00BF00BF00BF0020A9
:104B900001900846006840F0100008600846006870
:104BA00000F01000019000BF00BF00BF00BF00BFB9
:104BB000002001900846006840F0010008600846A7
:104BC000006800F00100019000BF00BF00BF10208E
:104BD000029000200390012004900220059002A979
:104BE0001448FBF7E3FD0820029000200390012009
:104BF00004900220059002A90E48FBF7D7FD04207F
:104C0000029000200390012004900220059002A948
:104C10000848FBF7CBFD0120029000200390022002
:104C20000490059002A90448FBF7C0FD07B000BD41
:104C300030380240001002400000024070B50446C7
:104C4000002514B101202B4908702A48007800285B
:104C500034D010212848FBF7ABFE78B10821264854
:104C6000FBF7A6FE50B104212348FBF7A1FE28B1B3
:104C700001212248FBF79CFE01281FD10A20FFF7E3
:104C800025FF00201B49087010211B48FBF790FEF0
:104C900000B9012508211848FBF78AFE00B9022552
:104CA00004211548FBF784FE00B9032501211348B0
:104CB000FBF77EFE01281BD1042519E010210E48C8
:104CC000FBF776FE012813D108210B48FBF770FE95
:104CD00001280DD104210848FBF76AFE012807D1FD
:104CE00001210648FBF764FE10B901200149087054
:104CF000284670BD44000020001002400000024021
:104D000070B50446002609480588408845430021BF
:104D1000084602F035FE03F043F800BF02E0044805
:104D20000480761CAE42FAD370BD0000C80C00208F
:104D30008000006C10B5044649488471002C45D1B0
:104D4000F020474908804FF4A070488008468088CA
:104D500045F21051884210D14FF43050404908813B
:104D60004FF4285048814FF42C5088814FF4F07054
:104D700008804FF4487048801AE03948808841F62E
:104D8000631188420DD12C20354908812B204881A0
:104D90002A2088814FF4F07008804FF448704880D2
:104DA00006E02C202E4908812A2048812B2088816A
:104DB0002B48808845F2103188424CD14FF4A070C6
:104DC000274908804FF4F070488044E04FF4A07009
:104DD00023490880F02048800846808845F2105119
:104DE000884210D14FF430501D4908814FF42850AB
:104DF00048814FF42C5088814FF4487008804FF45C
:104E0000F07048801AE01648808841F663118842A5
:104E10000DD12C20124908812A2048812B2088811D
:104E20004FF4487008804FF4F070488006E02C2062
:104E30000B4908812A2048812B20888108488088D6
:104E400045F21031884206D14FF4F07004490880D1
:104E50004FF4A0704880002002F07AFC10BD0000E2
:104E6000C80C00202DE9FF4F84B081468A460020FF
:104E7000029083460698A0EB09050798A0EB0A0666
:104E8000CDF80490CDF800A0002D01DD012705E04C
:104E90000DB9002702E04FF0FF376D42002E02DD12
:104EA0004FF0010806E016B94FF0000802E04FF09D
:104EB000FF387642B54201DD2C4600E03446002042
:104EC00003901EE0009A91B2019A90B2119A00F0FC
:104ED0001FF8029828440290B3440298A04205DDCE
:104EE0000298001B0290019838440190A34504DD0C
:104EF000ABEB040B0098404400900398401C80B238
:104F00000390611C03988842DCDD08B0BDE8F08F97
:104F100070B505460E4614463146284602F030FD6F
:104F200002F03EFF01490C8070BD00008000006C63
:104F30002DE9F84105460E4617469846079C33462C
:104F40003A46314628460094FFF78CFF43462A46EE
:104F5000314628460094FFF785FF43463A464146CE
:104F600028460094FFF77EFF43463A4631463846CE
:104F70000094FFF777FFBDE8F88110B5CF2002F06D
:104F800003FF002002F0F4FEC12002F0F1FE302009
:104F900002F0EEFEED2002F0F7FE642002F0E8FEE3
:104FA000032002F0E5FE122002F0E2FE812002F072
:104FB000DFFEE82002F0E8FE852002F0D9FE102096
:104FC00002F0D6FE7A2002F0D3FECB2002F0DCFE07
:104FD000392002F0CDFE2C2002F0CAFE002002F0A3
:104FE000C7FE342002F0C4FE022002F0C1FEF7200A
:104FF00002F0CAFE202002F0BBFEEA2002F0C4FE4E
:10500000002002F0B5FE002002F0B2FEC02002F047
:10501000BBFE1B2002F0ACFEC12002F0B5FE012059
:1050200002F0A6FEC52002F0AFFE302002F0A0FE86
:10503000302002F09DFEC72002F0A6FEB72002F04D
:1050400097FE362002F0A0FE482002F091FE3A20A2
:1050500002F09AFE552002F08BFEB12002F094FE81
:10506000002002F085FE1A2002F082FEB62002F037
:105070008BFE0A2002F07CFEA22002F079FEF220D4
:1050800002F082FE002002F073FE262002F07CFE79
:10509000012002F06DFEE02002F076FE0F2002F00B
:1050A00067FE2A2002F064FE282002F061FE08203C
:1050B00002F05EFE0E2002F05BFE082002F058FEB9
:1050C000542002F055FEA92002F052FE432002F0C7
:1050D0004FFE0A2002F04CFE0F2002F049FE002095
:1050E00002F046FE002002F043FE002002F040FEE7
:1050F000002002F03DFEE12002F046FE002002F01A
:1051000037FE152002F034FE172002F031FE072092
:1051100002F02EFE112002F02BFE062002F028FEE7
:105120002B2002F025FE562002F022FE3C2002F049
:105130001FFE052002F01CFE102002F019FE0F20B9
:1051400002F016FE3F2002F013FE3F2002F010FE98
:105150000F2002F00DFE2B2002F016FE002002F0C0
:1051600007FE002002F004FE012002F001FE3F20B5
:1051700002F0FEFD2A2002F007FE002002F0F8FDFA
:10518000002002F0F5FD002002F0F2FDEF2002F019
:10519000EFFD112002F0F8FD7820FFF797FC2920A1
:1051A00002F0F2FD10BD10B5ED2002F0EDFD012082
:1051B00002F0DEFDFE2002F0DBFDEE2002F0E4FD59
:1051C000DE2002F0D5FD212002F0D2FDF12002F018
:1051D000DBFD012002F0CCFDDF2002F0D5FD102028
:1051E00002F0C6FDC42002F0CFFD8F2002F0C0FD0A
:1051F000C62002F0C9FD002002F0BAFDE22002F054
:10520000B7FDE22002F0B4FDE22002F0B1FDBF20C4
:1052100002F0BAFDAA2002F0ABFDB02002F0B4FD0E
:105220000D2002F0A5FD002002F0A2FD0D2002F0ED
:105230009FFD002002F09CFD112002F099FD00204E
:1052400002F096FD192002F093FD002002F090FD7F
:10525000212002F08DFD002002F08AFD2D2002F0B9
:1052600087FD002002F084FD3D2002F081FD00203A
:1052700002F07EFD5D2002F07BFD002002F078FD53
:105280005D2002F075FD002002F072FDB12002F0F9
:105290007BFD802002F06CFD002002F069FD8B2078
:1052A00002F066FD002002F063FD962002F060FD32
:1052B000002002F05DFDB22002F066FD002002F049
:1052C00057FD002002F054FD022002F051FD0020A5
:1052D00002F04EFD032002F04BFD002002F048FDDD
:1052E000B32002F051FD002002F042FD002002F048
:1052F0003FFD002002F03CFD002002F039FD0020BF
:1053000002F036FD002002F033FD002002F030FDF7
:10531000002002F02DFD002002F02AFD002002F006
:1053200027FD002002F024FD002002F021FD0020D6
:1053300002F01EFD002002F01BFD002002F018FD0F
:10534000002002F015FD002002F012FD002002F006
:105350000FFD002002F00CFD002002F009FD0020EE
:1053600002F006FD002002F003FD002002F000FD27
:10537000002002F0FDFCB42002F006FD8B2002F0BC
:10538000F7FC002002F0F4FC962002F0F1FC002073
:1053900002F0EEFCA12002F0EBFC002002F0E8FCA1
:1053A000B52002F0F1FC022002F0E2FC002002F045
:1053B000DFFC032002F0DCFC002002F0D9FC04201A
:1053C00002F0D6FC002002F0D3FCB62002F0DCFC98
:1053D000002002F0CDFC002002F0CAFCB72002F051
:1053E000D3FC002002F0C4FC002002F0C1FC3F20EE
:1053F00002F0BEFC002002F0BBFC5E2002F0B8FC14
:10540000002002F0B5FC642002F0B2FC002002F0A3
:10541000AFFC8C2002F0ACFC002002F0A9FCAC2018
:1054200002F0A6FC002002F0A3FCDC2002F0A0FCAD
:10543000002002F09DFC702002F09AFC002002F097
:1054400097FC902002F094FC002002F091FCEB20ED
:1054500002F08EFC002002F08BFCDC2002F088FCC5
:10546000002002F085FCB82002F08EFC002002F043
:105470007FFC002002F07CFC002002F079FC002080
:1054800002F076FC002002F073FC002002F070FCB9
:10549000002002F06DFC002002F06AFCBA2002F04D
:1054A00073FC242002F064FC002002F061FC002068
:1054B00002F05EFC002002F05BFCC12002F064FC04
:1054C000202002F055FC002002F052FC542002F093
:1054D0004FFC002002F04CFCFF2002F049FC0020B1
:1054E00002F046FCC22002F04FFC0A2002F040FC11
:1054F000002002F03DFC042002F03AFC002002F003
:1055000037FCC32002F040FC3C2002F031FC0020BC
:1055100002F02EFC3A2002F02BFC002002F028FCC6
:10552000392002F025FC002002F022FC372002F096
:105530001FFC002002F01CFC3C2002F019FC0020A3
:1055400002F016FC362002F013FC002002F010FCE2
:10555000322002F00DFC002002F00AFC2F2002F0A5
:1055600007FC002002F004FC2C2002F001FC0020CB
:1055700002F0FEFB292002F0FBFB002002F0F8FB0A
:10558000262002F0F5FB002002F0F2FB242002F0BE
:10559000EFFB002002F0ECFB242002F0E9FB0020EE
:1055A00002F0E6FB232002F0E3FB002002F0E0FB28
:1055B0003C2002F0DDFB002002F0DAFB362002F096
:1055C000D7FB002002F0D4FB322002F0D1FB0020F8
:1055D00002F0CEFB2F2002F0CBFB002002F0C8FB34
:1055E0002C2002F0C5FB002002F0C2FB292002F0B3
:1055F000BFFB002002F0BCFB262002F0B9FB00201C
:1056000002F0B6FB242002F0B3FB002002F0B0FB56
:10561000242002F0ADFB002002F0AAFB232002F0C0
:10562000A7FB002002F0A4FBC42002F0ADFB622027
:1056300002F09EFB002002F09BFB052002F098FB8D
:10564000002002F095FB842002F092FB002002F083
:105650008FFBF02002F08CFB002002F089FB182069
:1056600002F086FB002002F083FBA42002F080FB06
:10567000002002F07DFB182002F07AFB002002F0EF
:1056800077FB502002F074FB002002F071FB0C202D
:1056900002F06EFB002002F06BFB172002F068FBAB
:1056A000002002F065FB952002F062FB002002F072
:1056B0005FFBF32002F05CFB002002F059FBE620C8
:1056C00002F056FB002002F053FBC52002F05CFB09
:1056D000322002F04DFB002002F04AFB442002F091
:1056E00047FB002002F044FB652002F041FB002054
:1056F00002F03EFB762002F03BFB002002F038FB7C
:10570000882002F035FB002002F032FBC62002F0B8
:105710003BFB202002F02CFB002002F029FB17208D
:1057200002F026FB002002F023FB012002F020FB08
:10573000002002F01DFBC72002F026FB002002F033
:1057400017FB002002F014FB002002F011FB0020E8
:1057500002F00EFBC82002F017FB002002F008FB4D
:10576000002002F005FB002002F002FB002002F006
:10577000FFFAC92002F008FB002002F0F9FA00202D
:1057800002F0F6FA002002F0F3FA002002F0F0FA3C
:10579000002002F0EDFA002002F0EAFA002002F008
:1057A000E7FA002002F0E4FA002002F0E1FA00201B
:1057B00002F0DEFA002002F0DBFA002002F0D8FA54
:1057C000002002F0D5FA002002F0D2FA002002F008
:1057D000CFFA002002F0CCFAE02002F0D5FA162031
:1057E00002F0C6FA002002F0C3FA1C2002F0C0FA50
:1057F000002002F0BDFA212002F0BAFA002002F0E7
:10580000B7FA362002F0B4FA002002F0B1FA4620CE
:1058100002F0AEFA002002F0ABFA522002F0A8FA31
:10582000002002F0A5FA642002F0A2FA002002F0A3
:105830009FFA7A2002F09CFA002002F099FA8B205D
:1058400002F096FA002002F093FA992002F090FA02
:10585000002002F08DFAA82002F08AFA002002F05F
:1058600087FAB92002F084FA002002F081FAC420FD
:1058700002F07EFA002002F07BFACA2002F078FAE9
:10588000002002F075FAD22002F072FA002002F035
:105890006FFAD92002F06CFA002002F069FAE020D9
:1058A00002F066FA002002F063FAF32002F060FAD8
:1058B000002002F05DFAE12002F066FA162002F004
:1058C00057FA002002F054FA1C2002F051FA00208E
:1058D00002F04EFA222002F04BFA002002F048FAC1
:1058E000362002F045FA002002F042FA452002F08C
:1058F0003FFA002002F03CFA522002F039FA002070
:1059000002F036FA642002F033FA002002F030FA96
:105910007A2002F02DFA002002F02AFA8B2002F001
:1059200027FA002002F024FA992002F021FA002040
:1059300002F01EFAA82002F01BFA002002F018FA6A
:10594000B92002F015FA002002F012FAC42002F089
:105950000FFA002002F00CFACA2002F009FA002027
:1059600002F006FAD22002F003FA002002F000FA58
:10597000D82002F0FDF9002002F0FAF9E02002F050
:10598000F7F9002002F0F4F9F32002F0F1F9002019
:1059900002F0EEF9E22002F0F7F9052002F0E8F952
:1059A000002002F0E5F90B2002F0E2F9002002F0FD
:1059B000DFF91B2002F0DCF9002002F0D9F93420D5
:1059C00002F0D6F9002002F0D3F9442002F0D0F919
:1059D000002002F0CDF94F2002F0CAF9002002F0B9
:1059E000C7F9612002F0C4F9002002F0C1F9792062
:1059F00002F0BEF9002002F0BBF9882002F0B8F9ED
:105A0000002002F0B5F9972002F0B2F9002002F070
:105A1000AFF9A62002F0ACF9002002F0A9F9B720F6
:105A200002F0A6F9002002F0A3F9C22002F0A0F9CA
:105A3000002002F09DF9C72002F09AF9002002F040
:105A400097F9D12002F094F9002002F091F9D620C4
:105A500002F08EF9002002F08BF9DD2002F088F9C7
:105A6000002002F085F9F32002F082F9002002F014
:105A70007FF9E32002F088F9052002F079F900208F
:105A800002F076F90A2002F073F9002002F070F9B2
:105A90001C2002F06DF9002002F06AF9332002F0B8
:105AA00067F9002002F064F9442002F061F9002057
:105AB00002F05EF9502002F05BF9002002F058F984
:105AC000622002F055F9002002F052F9782002F02D
:105AD0004FF9002002F04CF9882002F049F900202B
