:020000040800F2
:1000000030B10120110300087B1E0008731E000898
:10001000771E0008550A0008E123000800000000D0
:100020000000000000000000000000005102000875
:10003000590A000800000000AD0200085B1F00081C
:1000400035030008350300083503000835030008B0
:1000500035030008350300083503000835030008A0
:100060003503000835030008350300083503000890
:100070003503000835030008350300083503000880
:100080003503000835030008350300083503000870
:100090003503000835030008350300083503000860
:1000A0003503000835030008350300083503000850
:1000B00035030008851F00083503000835030008D4
:1000C0003503000835030008350300083503000830
:1000D00035030008912300083503000835030008A4
:1000E0003503000835030008350300083503000810
:1000F0003503000835030008350300083503000800
:1001000035030008350300083503000835030008EF
:1001100035030008350300083503000835030008DF
:1001200035030008350300083503000835030008CF
:1001300035030008350300083503000835030008BF
:1001400035030008350300083503000835030008AF
:10015000350300083503000835030008350300089F
:10016000350300083503000835030008350300088F
:1001700035030008350300083503000800000000BF
:10018000350300083503000800F002F800F050F8CD
:100190000AA090E8000C82448344AAF10107DA45E2
:1001A00001D100F045F8AFF2090EBAE80F0013F0E4
:1001B000010F18BFFB1A43F001031847A8BC000049
:1001C000C8BC0000103A24BF78C878C1FAD85207DA
:1001D00024BF30C830C144BF04680C6070470000C1
:1001E0000023002400250026103A28BF78C1FBD840
:1001F000520728BF30C148BF0B607047702900F01C
:10020000DF81642900F06C81752900F0698178290B
:1002100000F0C981632900F07483732900F07983A9
:10022000002070471FB508F025FE1FBD10B510BD9A
:1002300000F0DEFB1146FFF7F5FF05F017FB00F0BD
:10024000FCFB03B4FFF7F2FF03BC02F0FFF8000071
:100250002C4B19680868B0E8F04F80F30988BFF3A9
:100260006F8F4FF0000080F311887047000000008E
:1002700008480068006880F308884FF0000080F3A9
:10028000148862B661B6BFF34F8FBFF36F8F00DF84
:1002900000BF00BF08ED00E0DFF80C00016841F48A
:1002A00070010160704700BF88ED00E0EFF3098046
:1002B000BFF36F8F134B1A681EF0100F08BF20EDAD
:1002C000108A20E9F04F106009B44FF0500080F31D
:1002D0001188BFF34F8FBFF36F8F07F06FFD4FF0A3
:1002E000000080F3118809BC19680868B0E8F04F75
:1002F0001EF0100F08BFB0EC108A80F30988BFF31E
:100300006F8F704754000020EFF3058070470000A6
:100310000C48016841F4700101600B4880470B48AC
:100320000047FEE7FEE7FEE7FEE7FEE7FEE7FEE743
:10033000FEE7FEE7FEE7000005480649044A064BD3
:100340007047000088ED00E0711F00088901000877
:1003500030AD012030B1012030AD0120704753EAAB
:10036000020C00F069802DE9F04B4FF00006002BE5
:100370001FBFB3FA83F503FA05F424FA05F65E40CD
:1003800012BF1643B2FA82F502FA05F4C5F1200550
:100390001EBF22FA05FC44EA0C04203556EA044C40
:1003A0004FEA144418BF641C4FF000084FF00009D6
:1003B000904271EB030C39D3002919BFB1FA81F7D0
:1003C00001FA07F6B0FA80F700FA07F6C7F120073E
:1003D0001EBF20FA07FC46EA0C062037B6FBF4FCE9
:1003E000A7EB0507103F07F01F0BCBF120060CFA17
:1003F0000BFB2CFA06F644BFB3460026202FA4BF01
:100400005E464FF0000B5BEA060C08BF4FF0010B95
:1004100019EB0B09ABFB027C48EB0608C01B06FB83
:1004200002CC0BFB03CC71EB0C01C1E70B4602467F
:1004300041464846BDE8F08B13B54FF000004FF041
:100440000001AFF30080BDE81C4070470FB40449C1
:1004500010B503AA029800F061FA10BC5DF814FB15
:10046000100000200FB41CB5074B06AA7B44694658
:100470000090059800F023FA0020694600F032FA57
:100480001CBC5DF814FB00007504000070B50C4640
:100490000546012A05D02878800600D5EA690023A0
:1004A00002E0012305E05B1C934202D2E05C0028DD
:1004B000F9D1A869E618C01AA861286A1844286208
:1004C0002846AFF3008004E0D5E9012114F8010BC0
:1004D0009047B442F8D32846AFF3008070BD0000C7
:1004E0002DE9F0410646002410687529314616A50D
:1004F00010D0AFF30080002802DA404213A507E0D5
:1005000031688A0701D512A502E0490704D511A573
:10051000012401E0AFF3008000210A2206F1240744
:1005200009E0B0FBF2FCB0FBF2F302FB1C00303040
:1005300078541846491C0028F3D123462A463046F1
:10054000BDE8F04100F05DB9000000002D000000A2
:100550002B00000020000000F0B40D4601880905C2
:1005600002D51B4C7C4402E0194C7C440E34002123
:1005700000F1240305E002F00F061209A65D5E54A7
:10058000491C002AF7D102780023120704D5702DE8
:1005900006D009B1022311342246F0BC00F031B973
:1005A00001231034F8E770B504460D462146106863
:1005B000AFF30080024629462046BDE87040CBE7F5
:1005C0000368126843F0200303600823C361C3E794
:1005D000D4B800002DE9F0410F46054600202862FE
:1005E0002846E968884770B3252805D0D5E9012158
:1005F0009047286A401CF2E7E968284600268847A9
:100600006C2804460AD0682C08D04C2C35D06A2CB3
:1006100031D0742C31D07A2C2FD016E0E968064600
:1006200028468847B042044608D16C2E23D04FF4A8
:1006300080662846E9688847044606E06C2E03D0A9
:100640004FF4807601E01EE04026E4B1A4F14100C1
:10065000192802D8203446F400663A462146284636
:100660002E60FFF7CBFD60B1012808D0FF1D27F0F9
:1006700007070837B4E78026DBE70026D9E73F1DE8
:10068000AEE72046B2E7286ABDE8F08140EA010300
:10069000024630B59B0710D14FF0013400E008C28C
:1006A00008C91D1B9D4315EAC41FF8D013F0FF01B4
:1006B00002F8011B0DD01B0AF8E711F8013B002BD3
:1006C00002F8013B05D011F8013B002B02F8013B79
:1006D000F3D130BD10B5431C02E010F8011B71B11D
:1006E0008107FAD14FF0013202C88C1A8C4314EA08
:1006F000C211F9D0C01A0A0603D0C01E10BDC01A1C
:1007000010BD0A0401D0801E10BD0902FCD0401E9D
:1007100010BD032A40F2308010F0030C00F0158069
:1007200011F8013BBCF1020F624498BF11F801CBF4
:1007300000F8013B38BF11F8013BA2F1040298BF59
:1007400000F801CB38BF00F8013B11F0030300F0C3
:10075000F780083AC0F0088051F8043B083A51F895
:1007600004CBA0E80810F5E7121D5CBF51F8043B6C
:1007700040F8043BAFF30080D20724BF11F8013BDF
:1007800011F801CB48BF11F8012B24BF00F8013B41
:1007900000F801CB48BF00F8012B704702F0FF03BF
:1007A00043EA032242EA024200F0FEB84FF00002A0
:1007B00000B5134694469646203922BFA0E80C5057
:1007C000A0E80C50B1F12001BFF4F7AF090728BF32
:1007D000A0E80C5048BF0CC05DF804EB890028BFAE
:1007E00040F8042B08BF704748BF20F8022B11F0D7
:1007F000804F18BF00F8012B704770477047704753
:1008000070472DE9F0470D4699469246044600F19F
:1008100024080168880604D5E06921F010012160F0
:1008200000E00120A84201DD471B00E00027A1698C
:100830007A1902EB0900081AA0612078C00602D4D8
:100840002046AFF30080002608E0D4E901211AF821
:1008500006009047206A401C761C20624E45F4DB5F
:100860002078C0060AD52046AFF3008006E0D4E920
:10087000012130209047206A401C2062381EA7F1D9
:100880000107F4DC07E0D4E9012118F805009047DE
:10089000206A401C2062281EA5F10105F3DC2046D9
:1008A000AFF300802078000602D50220BDE8F08773
:1008B0000120FBE701694A1C02610878704700B516
:1008C0008FB0CDE901310021059105497944CDE989
:1008D000031011466846FFF77DFE0FB000BD000013
:1008E000E5FFFFFF0A6802F8010B0A60704710B5C8
:1008F000436913B1AFF3008001E0FFF7C7FD0120AA
:1009000010BD127800F124010A7000224A70012201
:10091000EDE711684FF0FF32E9E70000074B70B5D3
:100920000D467B44FFF7CBFF0446284600F05CF8F9
:1009300010B14FF0FF3070BD204670BD5F1D00004C
:1009400010B5203AC0F00B80B1E81850203AA0E86A
:100950001850B1E81850A0E81850BFF4F5AF5FEA9E
:10096000027C24BFB1E81850A0E8185044BF18C951
:1009700018C0BDE810405FEA827C24BF51F8043BF8
:1009800040F8043B08BF7047D20728BF31F8023B4C
:1009900048BF11F8012B28BF20F8023B48BF00F8E0
:1009A000012B70474FF000020429C0F0128010F0B4
:1009B000030C3FF4FDAECCF1040CBCF1020F18BFE8
:1009C00000F8012BA8BF20F8022BA1EB0C01FFF7C8
:1009D000EFBE5FEAC17C24BF00F8012B00F8012BB9
:1009E00048BF00F8012B7047007B00F08000704783
:1009F000754600F02BF8AE4605006946534620F0D8
:100A00000700854618B020B5FFF796FCBDE82040EA
:100A10004FF000064FF000074FF000084FF0000BBA
:100A200021F00701AC46ACE8C009ACE8C009ACE86D
:100A3000C009ACE8C0098D46704710B50446AFF355
:100A400000802046BDE81040FFF7FBBB0048704720
:100A5000CCAC012000BFFEE77047000070B5044633
:100A60001D460023B5F5804F13D154F822300C48B1
:100A70000340D1E9000640EA06108E6840EA0620ED
:100A80008E8940EA06408E693043034344F82230A1
:100A900003E06FF0704044F82200002070BD0000B9
:100AA0000000F0CF10B503460022086853F820205C
:100AB00012480240D1E901042043CC6820430C696C
:100AC00020434C6920438C692043CC6920430C6A45
:100AD00020434C6A20438C6A2043CC6A2043CC6B71
:100AE00020430C6B204302438868082801D142F060
:100AF0004002086843F82020002010BD8000F0FF6D
:100B000030B503460024501C53F8204004F0404404
:100B1000D1E9000540EA05108D6840EA05208D897D
:100B200040EA0545088A401E45EA0055087D801EBA
:100B300045EA00608D6928430443501C43F8204077
:100B4000002030BD70B50446A56D00F085F906465D
:100B500094F83500022808D08020606500BF00208E
:100B600084F8340000BF012070BD2068006820F0C8
:100B70001600216808602068406920F08000216824
:100B80004861206C08B9A06C28B12068006820F08A
:100B90000800216808602068006820F001002168D2
:100BA00008600FE000F058F9801B05280AD92020C2
:100BB000606500BF002084F8340000BF032084F883
:100BC0003500D1E72068006800F001000028E9D175
:100BD00094F85C103F208840A86000BF002084F893
:100BE000340000BF012084F835000020BCE7014636
:100BF00091F83500022803D0802048650120704715
:100C0000052081F835000868006820F001000A68B6
:100C100010600020F3E70000F8B502460B460025FF
:100C2000002400200021DEE0012606FA01F51E68FE
:100C300006EA0504AC4275D11E7906F00306012EC2
:100C400004D01E7906F00306022E13D190684F00DF
:100C50000326BE40B0434F00DE68BE403043906084
:100C6000506801268E40B0431E79C6F300168E40B0
:100C7000304350601E7906F00306032E09D0D06879
:100C80004F000326BE40B0434F009E68BE40304335
:100C9000D0601E7906F00306022E13D1CF0802F1B0
:100CA000200656F827004E07F70E0F26BE40B04329
:100CB0004F07FF0E1E69BE403043CF0802F12006E9
:100CC00046F8270010684F000326BE40B0431E7947
:100CD00006F003064F00BE40304310605E6806F029
:100CE0008056B6F1805F7DD100BF00260096404E51
:100CF000366846F480463E4F3E603E46366806F40F
:100D00008046009600BF00BF3A4E8F0856F8270075
:100D10008E07370F0F26BE40B043374EB24202D186
:100D2000002624E05EE0354EB24201D101261EE0ED
:100D3000334EB24201D1022619E0324EB24201D105
:100D4000032614E0304EB24201D104260FE02F4EAC
:100D5000B24201D105260AE02D4EB24201D106264B
:100D600005E02C4EB24201D1072600E008268F078D
:100D70003F0FBE4030431F4E8F0846F82700264ED7
:100D80003068A0435E6806F48036B6F5803F00D137
:100D90002043214E3060361D3068A0435E6806F463
:100DA0000036B6F5003F00D120431B4E361D3060A3
:100DB000361D3068A0435E6806F48016B6F5801FC5
:100DC00000D12043144E08363060361D3068A043F1
:100DD0005E6806F40016B6F5001F00D120430E4EE3
:100DE0000C363060491C1029FFF41EAFF8BD00001E
:100DF000443802400838014000000240000402402C
:100E000000080240000C02400010024000140240A2
:100E100000180240001C0240003C014002461369D9
:100E20000B400BB1012000E00020704710B5426973
:100E300021EA020302EA010443EA0443836110BD8C
:100E40000AB1816101E00B048361704701480068C9
:100E5000000C7047002004E0014800687047000063
:100E60001800002003480068034909780844014934
:100E700008607047180000202000002010B50A48C4
:100E8000006840F40070084908600846006840F4B3
:100E900080600860032000F07FF80F2000F006F863
:100EA00000F02AF8002010BD003C024070B5044656
:100EB0000E4800784FF47A71B1FBF0F00C490968E4
:100EC000B1FBF0F5284600F09BFC08B1012070BD95
:100ED000102C07D200222146501E00F01EF80548B3
:100EE000046001E00120F2E70020F0E7200000208C
:100EF000000000201C000020704701460846002822
:100F000009DB00F01F0301229A4043099B0003F113
:100F1000E023C3F8002100BF70472DE9F05F804651
:100F20000D461646002701F075FA074639462A464F
:100F3000334601F00700C0F1070ABAF1040F02D9E5
:100F40004FF0040A01E0C0F1070AD14600F1040A9B
:100F5000BAF1070F02D24FF0000A01E0A0F1030A34
:100F6000D4464FF0010A0AFA09FAAAF1010A0AEA7C
:100F7000020A0AFA0CFA4FF0010B0BFA0CFBABF168
:100F8000010B0BEA030B4AEA0B042146404601F031
:100F900049FABDE8F09F000000BF00F00702064BD1
:100FA00019684FF6FF031940044B0B4343EA022133
:100FB000014B196000BF70470CED00E00000FA051E
:100FC00070B504460D460CB9012070BD5848006844
:100FD00000F00700A84209D255490D700846006884
:100FE00000F00700A84201D00120EEE7207800F0D1
:100FF000020002281DD1207800F00400042805D149
:101000004C48006840F4E0504A490860207800F0FD
:101010000800082805D14748006840F46040454969
:1010200008604448006820F0F000A1680843414986
:101030000860207800F00100A8B36068012807D19B
:101040003C4808380068C0F34040B8B90120BCE70C
:101050006068022802D06068032807D13548083844
:101060000068C0F3406048B90120AEE73148083855
:101070000068C0F3400008B90120A6E72D480068C9
:1010800020F00300616808432A490860FFF7E4FE86
:10109000064609E0FFF7E0FE801B41F288318842F6
:1010A00002D9032091E707E02248006800F00C0015
:1010B0006168B0EB810FEDD11D48006800F00700BA
:1010C000A84209D91A490D700846006800F00700C7
:1010D000A84201D0012078E7207800F0040004281D
:1010E00007D11448006820F4E050E1680843114932
:1010F0000860207800F00800082808D10D48006832
:1011000020F46040216940EAC1000A49086000F00B
:101110003FF808490968C1F30311074A515CC84008
:101120000649086006480068FFF7C0FE00204CE74B
:10113000003C0240083802407E8E0008000000207B
:101140001C000020014800687047000000000020DB
:1011500000B5FFF7F7FF04490968C1F38221034A8C
:10116000515CC84000BD0000083802408E8E000867
:1011700000B5FFF7E7FF04490968C1F34231034AAC
:10118000515CC84000BD0000083802408E8E000847
:101190002DE9F047002400250026A14625480068D7
:1011A00000F00C0020B1042805D008283AD105E051
:1011B000DFF8849039E0DFF8849036E01D48001FA6
:1011C000006800F03F041B48001F006800F4800026
:1011D00078B11A481749091F0968C1F38811A0FBA3
:1011E00001700146224600233846FFF7B8F805464D
:1011F0000EE011480F49091F0968C1F38811A0FBCF
:1012000001700146224600233846FFF7A8F805463C
:101210000848001F0068C0F30140401C4600B5FBB1
:10122000F6F902E0DFF8109000BF00BF4846BDE8C5
:10123000F0870000083802400024F40000127A0011
:10124000F8B504460CB90120F8BD207800F0010083
:10125000002874D0F948006800F00C0004280DD074
:10126000F648006800F00C00082813D1F348001F6E
:10127000006800F48000B0F5800F0BD1EF4808380B
:101280000068C0F34040002859D06068002856D15B
:101290000120D9E700BF6068B0F5803F08D1E7487A
:1012A0000838006840F48030E449083908601EE0DE
:1012B0006068B0F5A02F0DD1E0480838006840F410
:1012C0008020DE49083908600846006840F4803014
:1012D00008600CE0D9480838006820F48030D7490D
:1012E000083908600846006820F48020086000BFC4
:1012F000606890B1FFF7B0FD054606E0FFF7ACFD72
:10130000401B642801D903209EE7CC4808380068B8
:10131000C0F340400028F1D011E0FFF79DFD0546E5
:1013200006E0FFF799FD401B642801D903208BE7F5
:10133000C24808380068C0F340400028F1D1207846
:1013400000F0020002285FD1BC48006800F00C00E9
:1013500058B1BA48006800F00C0008281CD1B74802
:10136000001F006800F48000B0B9B4480838006875
:10137000C0F3400020B1E068012801D0012063E7FC
:10138000AE480838006820F0F800216940EAC10042
:10139000AA490839086037E0E06800B30120A8498D
:1013A0000860FFF759FD054606E0FFF755FD401BB5
:1013B000022801D9032047E7A04808380068C0F395
:1013C00040000028F1D09D480838006820F0F8005F
:1013D000216940EAC10099490839086014E00020F9
:1013E00097490860FFF738FD054606E0FFF734FD32
:1013F000401B022801D9032026E7904808380068DE
:10140000C0F340000028F1D1207800F0080008283F
:101410002CD16069A8B101208A490860FFF71CFD42
:10142000054606E0FFF718FD401B022801D90320FE
:101430000AE782486C300068C0F340000028F1D011
:1014400014E000207F490860FFF706FD054606E02E
:10145000FFF702FD401B022801D90320F4E677487C
:101460006C300068C0F340000028F1D1207800F013
:101470000400042870D1002770483830006800F05C
:10148000805090B900BF002000906C483830006850
:1014900040F080506949383108600846006800F023
:1014A0008050009000BF00BF01276748006800F42B
:1014B0008070B0B96448006840F480706249086088
:1014C000FFF7CAFC054606E0FFF7C6FC401B0228F2
:1014D00001D90320B8E65C48006800F48070002859
:1014E000F2D000BFA068012808D1544868300068D5
:1014F00040F001005149683108601DE0A0680528EE
:101500000DD14E486830006840F004004B49683106
:1015100008600846006840F0010008600CE0474899
:101520006830006820F001004449683108600846CE
:10153000006820F00400086000BFA068A8B1FFF7B1
:101540008BFC054609E0FFF787FC401B41F2883120
:10155000884202D9032077E626E0384868300068E0
:10156000C0F340000028EED013E0FFF775FC0546FD
:1015700008E0FFF771FC401B41F28831884201D935
:10158000032061E62D4868300068C0F34000002861
:10159000EFD1012F07D129483830006820F0805062
:1015A00026493831086000BFA069002845D023488B
:1015B000006800F00C0008285DD0A069022845D121
:1015C00000201F490866FFF747FC054606E0FFF7C5
:1015D00043FC401B022801D9032035E61748083890
:1015E0000068C0F340600028F1D1D4E90701084346
:1015F000616A40EA81110122A06AC2EB500041EA0F
:1016000000412C20005D41EA00600C49091F086080
:1016100001200B490866FFF71FFC054606E0FFF7AF
:101620001BFC401B022801D903200DE603480838A3
:101630000068C0F340600028F1D049E0083802405B
:1016400000004742800E47420070004000202149C0
:101650000866FFF701FC054606E0FFF7FDFB401BAF
:10166000022801D90320EFE51B480068C0F3406061
:101670000028F2D12CE0A069012800D1E4E5164849
:10168000001D0668A069012820D006F48001E069E9
:1016900081421BD106F03F01206A814216D147F6F4
:1016A000C0703040616AB0EB811F0FD106F4403149
:1016B0000122A06AC2EB5000B1EB004F06D106F048
:1016C00070612C20005DB1EB006F01D00120BBE503
:1016D0000020B9E5000047420038024070B50446DA
:1016E0000E4615460CB9012070BD94F8490028B982
:1016F000002084F84800204600F01CF804F108019E
:101700002068FFF7CFF93146A2682068FFF7F8F9A3
:101710002946236BD4E90102FFF7A0F9A1682068EC
:1017200050F8210040F00100A268216841F8220031
:101730000020D9E710B586B0044600BF0020009015
:101740002248006840F0010020490860084600680F
:1017500000F00100009000BF00BF00BF002000901B
:101760001A480838006840F008001849083908602D
:101770000846006800F00800009000BF00BF00BFEE
:10178000002000900846006840F0100008600846FD
:10179000006800F01000009000BF00BF4CF2037022
:1017A00001900220029001200390022004900C205E
:1017B000059001A90648FFF72FFA4FF680700190B7
:1017C00001A90448FFF728FA06B010BD38380240D6
:1017D000000C024000100240042808D14FF0E02124
:1017E000096941F004014FF0E022116107E04FF078
:1017F000E021096921F004014FF0E02211617047F6
:1018000070B504462546681EB0F1807F01D30120E3
:101810000FE0681E4FF0E02148610F214FF0FF30CC
:1018200000F000FE00204FF0E021886107200861F1
:10183000002070BD70477047704710B5044620689F
:101840000069C0F34000D8B12068C068C0F3400010
:10185000B0B16FF002002168086101202077206894
:10186000806900F0030018B12046FFF7E5FF05E0AE
:10187000204600F0ADF8204600F0ABF800202077BD
:1018800020680069C0F38000D8B12068C068C0F348
:101890008000B0B16FF00400216808610220207759
:1018A0002068806900F4407018B12046FFF7C4FF3B
:1018B00005E0204600F08CF8204600F08AF8002071
:1018C000207720680069C0F3C000D8B12068C068E4
:1018D000C0F3C000B0B16FF00800216808610420B7
:1018E00020772068C06900F0030018B12046FFF798
:1018F000A3FF05E0204600F06BF8204600F069F8F1
:101900000020207720680069C0F30010D8B120685B
:10191000C068C0F30010B0B16FF01000216808611A
:10192000082020772068C06900F4407018B1204674
:10193000FFF782FF05E0204600F04AF8204600F05D
:1019400048F8002020772068006900F0010058B1B5
:101950002068C06800F0010030B16FF0010021681C
:101960000861204600F036F820680069C0F3C01016
:1019700058B12068C068C0F3C01030B16FF080006B
:10198000216808612046FFF755FF20680069C0F311
:10199000801058B12068C068C0F3801030B16FF07B
:1019A000400021680861204600F026F820680069A0
:1019B000C0F3401058B12068C068C0F3401030B187
:1019C0006FF02000216808612046FFF734FF10BD4A
:1019D0007047704710B504460548844206D100BFE1
:1019E0004FF480610348FFF721FA00BF10BD0000EB
:1019F0009C02002000140240704770477047014667
:101A00000022002391F83D2091F83E3042EA030085
:101A1000704700002DE9F84F0446206805682068EB
:101A2000C668206847694FF00009CA4605F00F09EB
:101A3000B9F1000F0AD105F0200038B106F02000FE
:101A400020B1204600F0DBFABDE8F88FB9F1000FB5
:101A500072D007F0010018B906F4907000286BD01E
:101A600005F0010030B106F4807018B1206C40F030
:101A70000100206405F0040030B107F0010018B146
:101A8000206C40F00200206405F0020030B107F045
:101A9000010018B1206C40F00400206405F008003B
:101AA00048B106F0200010B907F0010018B1206C11
:101AB00040F008002064206C70B305F0200028B1CD
:101AC00006F0200010B1204600F099FA2068406925
:101AD000C0F3801A206C00F0080010B9BAF1000FB2
:101AE00023D0204600F060FA2068406900F04000F2
:101AF000402816D12068406920F0400021684861E4
:101B0000A06B50B15648A16B0865A06BFFF76FF84A
:101B100010B1A06B016D88470CE02046FFF76EFF07
:101B200008E02046FFF76AFF04E02046FFF766FF63
:101B30000020206488E7FFE7206B012879D105F0B9
:101B40001000002875D006F01000002871D000BFEA
:101B50000020009020680068009020684068009095
:101B600000BF00BF2068406900F04000402839D124
:101B7000A06B006840681FFA80F8B8F1000F30D001
:101B8000A08D40452DDDA4F82E80A06BC069B0F576
:101B9000807F1FD02068C06820F480702168C860F2
:101BA0002068406920F00100216848612068406990
:101BB00020F0400021684861202084F83E00002089
:101BC00020632068C06820F010002168C860A06B06
:101BD000FEF7B8FFA08DE28D801A81B22046FFF794
:101BE0000CFF31E7A08DE18D401A1FFA80F8E08DDF
:101BF000E8B1B8F1000F1AD02068C06820F49070E6
:101C00002168C8602068406920F0010021684861AF
:101C1000202084F83E00002020632068C06820F067
:101C200010002168C86041462046FFF7E6FE0BE73A
:101C3000FFE705F0800030B106F0800018B12046C3
:101C400000F075FB00E705F0400030B106F0400001
:101C500018B1204600F0C3F9F6E600BFF4E6000034
:101C6000951F000810B504460CB9012010BDA069ED
:101C700000B100E000BF94F83D0028B9002084F8CE
:101C80003C00204600F028F8242084F83D0020681D
:101C9000C06820F400502168C860204600F00EFAA9
:101CA0002068006920F4904021680861206840693C
:101CB00020F02A00216848612068C06840F4005084
:101CC0002168C86000202064202084F83D0084F84A
:101CD0003E000020CAE7000010B586B004462E4939
:101CE0002068884255D100BF00BF002000902B48DB
:101CF000006840F01000294908600846006800F0BC
:101D00001000009000BF00BF00BF00BF00BF002058
:101D1000009022481438006840F001001F4914392F
:101D200008600846006800F00100009000BF00BF96
:101D300000BF00BF00BF002000900846006840F0D0
:101D4000010008600846006800F00100009000BF34
:101D500000BF00BF481501900220029001200390AF
:101D6000022004900720059001A90D48FEF754FFBA
:101D70004FF4806001900720059001A90848FEF704
:101D80004BFF2520FFF7B9F8032211462520FFF766
:101D9000C4F806B010BD00000010014044380240F5
:101DA0000000024070B504460D46164694F83E0009
:101DB000202816D105B10EB9012070BD00BF94F8DE
:101DC0003C00012801D10220F7E7012084F83C0003
:101DD00000BF0020206332462946204600F084FAE6
:101DE000EBE70220E9E700001D4A0168914236D185
:101DF0001C49098801F4004189BB1A49098801F48A
:101E0000804171B1184909780A2903D00021154A87
:101E1000118024E01349098841F40041114A1180DE
:101E20001DE0114909780D2906D10E49098841F4B0
:101E300080410C4A118012E00B490978094A128846
:101E4000C2F30D02094B995406490988491C054AF9
:101E5000118011460988C72901DD002111807047D2
:101E6000001001401400002016000020E0000020B7
:101E7000704700BFFEE700BFFEE770472DE9F0475F
:101E80000C46DDE90867002100258C4600BF60E0B4
:101E90004FF0010808FA01F504EA050CAC4557D1EA
:101EA000D0F800804FEA410A4FF0030909FA0AF915
:101EB00028EA0908C0F80080D0F800804FEA4109FC
:101EC00002FA09F948EA0908C0F80080012A01D09D
:101ED000022A27D1D0F808804FEA410A4FF00309BF
:101EE00009FA0AF928EA0908C0F80880D0F8088039
:101EF0004FEA410906FA09F948EA0908C0F80880DA
:101F0000D0F804904FF0010808FA01F829EA08090E
:101F1000C0F80490D0F8048003FA01F948EA0908EF
:101F2000C0F80480D0F80C804FEA410A4FF0030952
:101F300009FA0AF928EA0908C0F80C80D0F80C80E0
:101F40004FEA410907FA09F948EA0908C0F80C8084
:101F5000491C10299CD3BDE8F08710B5FEF782FF1D
:101F600006F0FAFA012801D006F05AF810BD000078
:101F70000348006840F470000149086070470000A1
:101F800088ED00E010B50248FFF757FC10BD0000D7
:101F90009C02002070B50546AC6B0020E085E08413
:101FA0002046FFF72BFD70BD0168C96821F49071D0
:101FB0000268D1600168496921F00101026851613C
:101FC000016B012905D10168C96821F0100102687F
:101FD000D160202180F83E1000210163704710B5C8
:101FE00004462068C06820F040002168C8602020B6
:101FF00084F83D002046FFF73BFF002010BD70B580
:10200000044694F83E00222856D1A068B0F5805FBF
:102010000CD1206950B90025A66A20684068C0F339
:1020200008003080A06A801CA06215E0A56A002626
:10203000A068B0F5805F03D0A06828B9206918B9FE
:1020400020684068287004E02068406800F07F0045
:102050002870A06A401CA062E08D401E80B2E0851E
:1020600040BB2068C06820F020002168C86020685C
:10207000C06820F480702168C8602068406920F042
:10208000010021684861202084F83E00206B01286F
:102090000AD12068C06820F010002168C860A18DB6
:1020A0002046FFF7AAFC02E02046FFF79DFE002035
:1020B000206370BD0020FCE70220FAE72DE9F84F0D
:1020C00004462068006920F44050E1680843216814
:1020D00008612169A068084361690843E169084310
:1020E00000902068C06849F20C6188430099084359
:1020F0002168C8602068406920F44070A1690843E5
:102100002168486176492068884203D07549206873
:10211000884203D1FFF72CF8814602E0FFF718F858
:102120008146E069B0F5004F6CD102206168A0FBE8
:10213000015003461920A9FB007001462A46384683
:10214000FEF70DF96421B0FBF1F04FEA001A02200E
:102150006168A0FB01510B461920A9FB00712A46BA
:102160003846FEF7FCF8834602206168A0FB015068
:1021700003461920A9FB00712A463846FEF7EFF8FE
:102180006421B0FBF1F000EBC00101EB0010ABEB00
:102190008000322101EBC0006421B0FBF1F000F0BF
:1021A000F8000AEB400A02206168A0FB01500346D8
:1021B0001920A9FB007001462A463846FEF7CFF8E1
:1021C000834602206168A0FB015003461920A9FB49
:1021D00000712A463846FEF7C2F86421B0FBF1F0E0
:1021E00000EBC00101EB0010ABEB8000322101EBF2
:1021F000C0006421B0FBF1F000F0070050442168FA
:1022000088606AE004206168A0FB01500346192041
:10221000A9FB007001462A463846FEF7A0F8824620
:1022200004206168A0FB015003461920A9FB00703F
:1022300001462A463846FEF792F86421B0FBF1F0D9
:1022400000EBC00101EB0010AAEB8000322101EB92
:1022500000106421B0FBF1F000F0F00A0420616886
:10226000A0FB017003461920A9FB00513A462846FD
:10227000FEF775F86421B0FBF1F00AEB001A0420B8
:102280006168A0FB01510B461920A9FB00712A4689
:102290003846FEF764F8834604206168A0FB0150CD
:1022A00003461920A9FB007001462A463846FEF76E
:1022B00056F86421B0FBF1F000EBC00101EB001017
:1022C000ABEB8000322101EB00106421B0FBF1F098
:1022D00000F00F00504421688860BDE8F88F0000CE
:1022E000001001400014014010B5034699629A8520
:1022F000DA8500201864222083F83E0000BF002009
:1023000083F83C0000BF1868C06840F480701C6807
:10231000E0601868406940F001001C68606118685E
:10232000C06840F020001C68E060002010BD01463D
:1023300091F83D00212828D18868B0F5805F0BD145
:10234000086948B90A6A1088C0F308000B68586029
:10235000086A801C086205E00B6A581C086218783D
:102360000B685860C88C401E80B2C88458B9086891
:10237000C06820F080000B68D8600868C06840F032
:1023800040000B68D860002070470220FCE7000086
:1023900070B500240F4D1048FFF73CFB00BF03E071
:1023A000641CAC4200D904E00B48FFF728FB20284E
:1023B000F6D100BF002403E0641CAC4200D906E063
:1023C000012206490448FFF7EDFC0028F4D100BFC4
:1023D00070BD0000FFFF0100A801002016000020D2
:1023E00000BFFEE770B50621302004F0C7FC3020A6
:1023F00004F0D4FB0546062D03D00621302004F05E
:10240000BDFC002403E006F0EFFB601C84B2C82C86
:10241000F9DB70BD02480068C0F30220704700007D
:102420000CED00E010B5002804DB0A07130E054A86
:10243000135406E00A07140E034A00F00F031B1F93
:10244000D45410BD00E400E018ED00E000BF704778
:1024500000F00101194A1160C0F34001184AC2F8A6
:102460008412C0F38001154A08321160C0F30011D4
:10247000121F1160C0F34011104A3C321160C0F3CA
:102480008011104A1160C0F3C0110C4A383211603B
:10249000C0F300210B4A121D1160C0F34021074A0E
:1024A00034321160C0F38021044A14321160C0F349
:1024B000C021024A0C321160704700008082424203
:1024C000000043429002434200F00101104A1160B3
:1024D000C0F340010F4AC2F8BC12C0F380010C4A9D
:1024E000383A1160C0F3C001121D1160C0F3001131
:1024F000094A1160C0F34011121D1160C0F3801130
:10250000121D1160C109054AC2F8A81270470000E7
:10251000B8824142008041429C0242420000424255
:1025200070B504460420FFF757F90A4804602546B1
:102530004FF47A7045434FF0E020006940F002000C
:102540004FF0E021086108464561006940F0010054
:10255000086170BD0C00002030B50446002504E081
:102560004FF47A7000F004F86D1CA542F8D330BD2A
:1025700070B5034600224FF0E02675690D4E3668AF
:1025800003FB06F44FF0E026B16910E04FF0E026BF
:10259000B06988420BD0884202D20E1A324402E05F
:1025A0002E1A0E4432440146A24200D300E0EDE769
:1025B00000BF70BD0C0000202DE9F04707463E46E5
:1025C0002EB940F275521DA125A0FDF73FFF284806
:1025D0000068864201D100242DE004F0FFFF7569F8
:1025E0002448D0F800802448D0F8009005F042F844
:1025F000454501D04D4501D102241CE01F488542CC
:1026000012D1B06A70B90324002007E006F1580126
:10261000095C012901D1022402E0401C0128F5DBFC
:1026200000BF08E0022406E01548854200D00DB93D
:10263000042400E001242046BDE8F0872E2E5C2E05
:102640002E5C4D6964646C6577617265735C46727B
:10265000656552544F535C7461736B732E63000055
:102660004572726F723A2025732C2025640D0A0082
:1026700054000020580000205C00002090840120BD
:102680007C84012000BF054A126802F04002002A43
:10269000F9D0C2B2014B5A607047000000100140EF
:1026A0000EB54FF4784019A120221346CDE9002140
:1026B0000290DC220A21084602F0FAFF4FF478402B
:1026C00014A118221346CDE900210290DC222F210B
:1026D0000A2002F0EDFF4FF4784012A110221346B9
:1026E000CDE900210290DC224C210A2002F0E0FF1B
:1026F0001048012100238022CDE900100EA11148CD
:1027000005F094FE05F0F0FA0EBD000053544D3371
:10271000320000005461736B20496E666F20517562
:102720006572790041544F4D40414C49454E5445E6
:102730004B0000000400002073746172745F7461C8
:10274000736B0000616E000800B587B000BF00BF6A
:10275000002001903848006840F0100036490860B9
:102760000846006800F01000019000BF00BF00BFE5
:1027700000BF00BF002001900846006840F0100034
:1027800008600846006800F01000019000BF00BF1C
:1027900000BF00BF00BF002001900846006840F065
:1027A000100008600846006800F01000019000BFAB
:1027B00000BF00BF00BF00BF0020019008460068B6
:1027C00040F0010008600846006800F00100019038
:1027D00000BF00BF00BF1020029000200390012026
:1027E00004900220059002A91448FEF715FA08206B
:1027F000029000200390012004900220059002A97D
:102800000E48FEF709FA04200290002003900120F0
:1028100004900220059002A90848FEF7FDF9012066
:1028200002900020039002200490059002A9044821
:10283000FEF7F2F907B000BD303802400010024048
:102840000000024070B50446002514B101202B4958
:1028500008702A480078002834D010212848FEF754
:10286000DDFA78B108212648FEF7D8FA50B10421E4
:102870002348FEF7D3FA28B101212248FEF7CEFA09
:1028800001281FD10A20FFF767FE00201B490870AE
:1028900010211B48FEF7C2FA00B90125082118488B
:1028A000FEF7BCFA00B9022504211548FEF7B6FA76
:1028B00000B9032501211348FEF7B0FA01281BD106
:1028C000042519E010210E48FEF7A8FA012813D1BB
:1028D00008210B48FEF7A2FA01280DD1042108486F
:1028E000FEF79CFA012807D101210648FEF796FA67
:1028F00010B9012001490870284670BD2C00002045
:10290000001002400000024070B50446002609484D
:102910000588408845430021084602F099FD02F0F1
:1029200045FF00BF02E004480480761CAE42FAD3A3
:1029300070BD00003C0200208000006C10B5044611
:1029400049488471002C45D1F020474908804FF454
:10295000A07048800846808845F21051884210D106
:102960004FF43050404908814FF4285048814FF4CB
:102970002C5088814FF4F07008804FF448704880E4
:102980001AE03948808841F6631188420DD12C2025
:10299000354908812B2048812A2088814FF4F07026
:1029A00008804FF44870488006E02C202E490881AA
:1029B0002A2048812B2088812B48808845F21031BD
:1029C00088424CD14FF4A070274908804FF4F07032
:1029D000488044E04FF4A07023490880F0204880EC
:1029E0000846808845F21051884210D14FF430508B
:1029F0001D4908814FF4285048814FF42C5088819C
:102A00004FF4487008804FF4F07048801AE0164880
:102A1000808841F6631188420DD12C20124908812B
:102A20002A2048812B2088814FF4487008804FF479
:102A3000F070488006E02C200B4908812A2048814C
:102A40002B2088810848808845F21031884206D1C1
:102A50004FF4F070044908804FF4A07048800020C3
:102A600002F0DEFB10BD00003C02002070B5054600
:102A70000E4614463146284602F0EAFC02F096FE65
:102A800001490C8070BD00008000006C10B5CF20A3
:102A900002F080FE002002F071FEC12002F06EFE06
:102AA000302002F06BFEED2002F074FE642002F094
:102AB00065FE032002F062FE122002F05FFE81201C
:102AC00002F05CFEE82002F065FE852002F056FE72
:102AD000102002F053FE7A2002F050FECB2002F0CC
:102AE00059FE392002F04AFE2C2002F047FE002059
:102AF00002F044FE342002F041FE022002F03EFECD
:102B0000F72002F047FE202002F038FEEA2002F013
:102B100041FE002002F032FE002002F02FFEC02015
:102B200002F038FE1B2002F029FEC12002F032FE26
:102B3000012002F023FEC52002F02CFE302002F01E
:102B40001DFE302002F01AFEC72002F023FEB7203F
:102B500002F014FE362002F01DFE482002F00EFEA8
:102B60003A2002F017FE552002F008FEB12002F0D4
:102B700011FE002002F002FE1A2002F0FFFDB62036
:102B800002F008FE0A2002F0F9FDA22002F0F6FD94
:102B9000F22002F0FFFD002002F0F0FD262002F0FE
:102BA000F9FD012002F0EAFDE02002F0F3FD0F2024
:102BB00002F0E4FD2A2002F0E1FD282002F0DEFD13
:102BC000082002F0DBFD0E2002F0D8FD082002F004
:102BD000D5FD542002F0D2FDA92002F0CFFD432004
:102BE00002F0CCFD0A2002F0C9FD0F2002F0C6FD64
:102BF000002002F0C3FD002002F0C0FD002002F022
:102C0000BDFD002002F0BAFDE12002F0C3FD00206E
:102C100002F0B4FD152002F0B1FD172002F0AEFD68
:102C2000072002F0ABFD112002F0A8FD062002F003
:102C3000A5FD2B2002F0A2FD562002F09FFD3C20B6
:102C400002F09CFD052002F099FD102002F096FD97
:102C50000F2002F093FD3F2002F090FD3F2002F094
:102C60008DFD0F2002F08AFD2B2002F093FD002045
:102C700002F084FD002002F081FD012002F07EFDC3
:102C80003F2002F07BFD2A2002F084FD002002F0AC
:102C900075FD002002F072FD002002F06FFDEF20B4
:102CA00002F06CFD112002F075FD7820FFF754FC56
:102CB000292002F06FFD10BD10B5ED2002F06AFD75
:102CC000012002F05BFDFE2002F058FDEE2002F034
:102CD00061FDDE2002F052FD212002F04FFDF120C7
:102CE00002F058FD012002F049FDDF2002F052FD04
:102CF000102002F043FDC42002F04CFD8F2002F0B2
:102D00003DFDC62002F046FD002002F037FDE22026
:102D100002F034FDE22002F031FDE22002F02EFD4F
:102D2000BF2002F037FDAA2002F028FDB02002F0FB
:102D300031FD0D2002F022FD002002F01FFD0D20CC
:102D400002F01CFD002002F019FD112002F016FD1A
:102D5000002002F013FD192002F010FD002002F007
:102D60000DFD212002F00AFD002002F007FD2D20BC
:102D700002F004FD002002F001FD3D2002F0FEFC07
:102D8000002002F0FBFC5D2002F0F8FC002002F0C5
:102D9000F5FC5D2002F0F2FC002002F0EFFCB12017
:102DA00002F0F8FC802002F0E9FC002002F0E6FCD2
:102DB0008B2002F0E3FC002002F0E0FC962002F001
:102DC000DDFC002002F0DAFCB22002F0E3FC00207F
:102DD00002F0D4FC002002F0D1FC022002F0CEFC74
:102DE000002002F0CBFC032002F0C8FC002002F01F
:102DF000C5FCB32002F0CEFC002002F0BFFC002096
:102E000002F0BCFC002002F0B9FC002002F0B6FC8D
:102E1000002002F0B3FC002002F0B0FC002002F021
:102E2000ADFC002002F0AAFC002002F0A7FC00206C
:102E300002F0A4FC002002F0A1FC002002F09EFCA5
:102E4000002002F09BFC002002F098FC002002F021
:102E500095FC002002F092FC002002F08FFC002084
:102E600002F08CFC002002F089FC002002F086FCBD
:102E7000002002F083FC002002F080FC002002F021
:102E80007DFC002002F07AFCB42002F083FC8B2051
:102E900002F074FC002002F071FC962002F06EFC3F
:102EA000002002F06BFCA12002F068FC002002F080
:102EB00065FCB52002F06EFC022002F05FFC0020F1
:102EC00002F05CFC032002F059FC002002F056FCEA
:102ED000042002F053FC002002F050FCB62002F067
:102EE00059FC002002F04AFC002002F047FCB72009
:102EF00002F050FC002002F041FC002002F03EFCF9
:102F00003F2002F03BFC002002F038FC5E2002F083
:102F100035FC002002F032FC642002F02FFC00207F
:102F200002F02CFC8C2002F029FC002002F026FC90
:102F3000AC2002F023FC002002F020FCDC2002F098
:102F40001DFC002002F01AFC702002F017FC00208B
:102F500002F014FC902002F011FC002002F00EFCA4
:102F6000EB2002F00BFC002002F008FCDC2002F059
:102F700005FC002002F002FCB82002F00BFC00204F
:102F800002F0FCFB002002F0F9FB002002F0F6FB4F
:102F9000002002F0F3FB002002F0F0FB002002F022
:102FA000EDFB002002F0EAFB002002F0E7FBBA2074
:102FB00002F0F0FB242002F0E1FB002002F0DEFB37
:102FC000002002F0DBFB002002F0D8FBC12002F061
:102FD000E1FB202002F0D2FB002002F0CFFB5420C6
:102FE00002F0CCFB002002F0C9FBFF2002F0C6FB80
:102FF000002002F0C3FBC22002F0CCFB0A2002F04A
:10300000BDFB002002F0BAFB042002F0B7FB002059
:1030100002F0B4FBC32002F0BDFB3C2002F0AEFB8B
:10302000002002F0ABFB3A2002F0A8FB002002F0E7
:10303000A5FB392002F0A2FB002002F09FFB372005
:1030400002F09CFB002002F099FB3C2002F096FB72
:10305000002002F093FB362002F090FB002002F0EB
:103060008DFB322002F08AFB002002F087FB2F202C
:1030700002F084FB002002F081FB2C2002F07EFB9A
:10308000002002F07BFB292002F078FB002002F0F8
:1030900075FB262002F072FB002002F06FFB24205B
:1030A00002F06CFB002002F069FB242002F066FBBA
:1030B000002002F063FB232002F060FB002002F0FE
:1030C0005DFB3C2002F05AFB002002F057FB36204B
:1030D00002F054FB002002F051FB322002F04EFBC4
:1030E000002002F04BFB2F2002F048FB002002F0F2
:1030F00045FB2C2002F042FB002002F03FFB292080
:1031000002F03CFB002002F039FB262002F036FBE7
:10311000002002F033FB242002F030FB002002F0FC
:103120002DFB242002F02AFB002002F027FB2320A5
:1031300002F024FB002002F021FBC42002F02AFB55
:10314000622002F01BFB002002F018FB052002F0B9
:1031500015FB002002F012FB842002F00FFB002080
:1031600002F00CFBF02002F009FB002002F006FB4D
:10317000182002F003FB002002F000FBA42002F064
:10318000FDFA002002F0FAFA182002F0F7FA002007
:1031900002F0F4FA502002F0F1FA002002F0EEFA08
:1031A0000C2002F0EBFA002002F0E8FA172002F0FF
:1031B000E5FA002002F0E2FA952002F0DFFA0020A2
:1031C00002F0DCFAF32002F0D9FA002002F0D6FA7D
:1031D000E62002F0D3FA002002F0D0FAC52002F077
:1031E000D9FA322002F0CAFA002002F0C7FA4420CD
:1031F00002F0C4FA002002F0C1FA652002F0BEFA23
:10320000002002F0BBFA762002F0B8FA002002F0AB
:10321000B5FA882002F0B2FA002002F0AFFAC62018
:1032200002F0B8FA202002F0A9FA002002F0A6FA73
:10323000172002F0A3FA002002F0A0FA012002F009
:103240009DFA002002F09AFAC72002F0A3FA0020AB
:1032500002F094FA002002F091FA002002F08EFAB7
:10326000002002F08BFAC82002F094FA002002F04D
:1032700085FA002002F082FA002002F07FFA002096
:1032800002F07CFAC92002F085FA002002F076FAFA
:10329000002002F073FA002002F070FA002002F021
:1032A0006DFA002002F06AFA002002F067FA0020AE
:1032B00002F064FA002002F061FA002002F05EFAE7
:1032C000002002F05BFA002002F058FA002002F021
:1032D00055FA002002F052FA002002F04FFA0020C6
:1032E00002F04CFA002002F049FAE02002F052FA13
:1032F000162002F043FA002002F040FA1C2002F0EF
:103300003DFA002002F03AFA212002F037FA0020BC
:1033100002F034FA362002F031FA002002F02EFAE0
:10332000462002F02BFA002002F028FA522002F088
:1033300025FA002002F022FA642002F01FFA002091
:1033400002F01CFA7A2002F019FA002002F016FAB4
:103350008B2002F013FA002002F010FA992002F0FC
:103360000DFA002002F00AFAA82002F007FA002065
:1033700002F004FAB92002F001FA002002F0FEF98E
:10338000C42002F0FBF9002002F0F8F9CA2002F094
:10339000F5F9002002F0F2F9D22002F0EFF9002056
:1033A00002F0ECF9D92002F0E9F9002002F0E6F988
:1033B000E02002F0E3F9002002F0E0F9F32002F04F
:1033C000DDF9002002F0DAF9E12002F0E3F916203D
:1033D00002F0D4F9002002F0D1F91C2002F0CEF95D
:1033E000002002F0CBF9222002F0C8F9002002F000
:1033F000C5F9362002F0C2F9002002F0BFF94520DD
:1034000002F0BCF9002002F0B9F9522002F0B6F93E
:10341000002002F0B3F9642002F0B0F9002002F0BD
:10342000ADF97A2002F0AAF9002002F0A7F98B206A
:1034300002F0A4F9002002F0A1F9992002F09EF90F
:10344000002002F09BF9A82002F098F9002002F079
:1034500095F9B92002F092F9002002F08FF9C4200A
:1034600002F08CF9002002F089F9CA2002F086F9F6
:10347000002002F083F9D22002F080F9002002F04F
:103480007DF9D82002F07AF9002002F077F9E020E7
:1034900002F074F9002002F071F9F32002F06EF9E5
:1034A000002002F06BF9E22002F074F9052002F02E
:1034B00065F9002002F062F90B2002F05FF90020AC
:1034C00002F05CF91B2002F059F9002002F056F9D5
:1034D000342002F053F9002002F050F9442002F0A9
:1034E0004DF9002002F04AF94F2002F047F9002080
:1034F00002F044F9612002F041F9002002F03EF9A7
:10350000792002F03BF9002002F038F9882002F01F
:1035100035F9002002F032F9972002F02FF900204F
:1035200002F02CF9A62002F029F9002002F026F979
:10353000B72002F023F9002002F020F9C22002F0A7
:103540001DF9002002F01AF9C72002F017F9002037
:1035500002F014F9D12002F011F9002002F00EF966
:10356000D62002F00BF9002002F008F9DD2002F06D
:1035700005F9002002F002F9F32002F0FFF8002024
:1035800002F0FCF8E32002F005F9052002F0F6F85D
:10359000002002F0F3F80A2002F0F0F8002002F018
:1035A000EDF81C2002F0EAF8002002F0E7F83320E2
:1035B00002F0E4F8002002F0E1F8442002F0DEF826
:1035C000002002F0DBF8502002F0D8F8002002F0D2
:1035D000D5F8622002F0D2F8002002F0CFF878206F
:1035E00002F0CCF8002002F0C9F8882002F0C6F8FA
:1035F000002002F0C3F8972002F0C0F8002002F08B
:10360000BDF8A62002F0BAF8002002F0B7F8B72003
:1036100002F0B4F8002002F0B1F8C22002F0AEF8D7
:10362000002002F0ABF8C72002F0A8F8002002F05A
:10363000A5F8D12002F0A2F8002002F09FF8D520D2
:1036400002F09CF8002002F099F8DD2002F096F8D4
:10365000002002F093F8F32002F090F8002002F02E
:103660008DF8E42002F096F8012002F087F800209F
:1036700002F084F8012002F081F8002002F07EF8C8
:10368000022002F07BF8002002F078F82A2002F0F5
:1036900075F8002002F072F83C2002F06FF800206C
:1036A00002F06CF84B2002F069F8002002F066F896
:1036B0005D2002F063F8002002F060F8742002F050
:1036C0005DF8002002F05AF8842002F057F800203C
:1036D00002F054F8932002F051F8002002F04EF866
:1036E000A22002F04BF8002002F048F8B32002F0CC
:1036F00045F8002002F042F8BE2002F03FF800201A
:1037000002F03CF8C42002F039F8002002F036F84C
:10371000CD2002F033F8002002F030F8D32002F080
:103720002DF8002002F02AF8DD2002F027F8002012
:1037300002F024F8F32002F021F8002002F01EF835
:10374000E52002F027F8002002F018F8002002F02F
:1037500015F8002002F012F8002002F00FF8022005
:1037600002F00CF8002002F009F8292002F006F817
:10377000002002F003F83C2002F000F8002001F0E5
:10378000FDFF4B2001F0FAFF002001F0F7FF5D2064
:1037900001F0F4FF002001F0F1FF742001F0EEFFD2
:1037A000002001F0EBFF842001F0E8FF002001F091
:1037B000E5FF932001F0E2FF002001F0DFFFA220EF
:1037C00001F0DCFF002001F0D9FFB32001F0D6FFAB
:1037D000002001F0D3FFBE2001F0D0FF002001F057
:1037E000CDFFC42001F0CAFF002001F0C7FFCD20AB
:1037F00001F0C4FF002001F0C1FFD32001F0BEFFA3
:10380000002001F0BBFFDC2001F0B8FF002001F038
:10381000B5FFF32001F0B2FF002001F0AFFFE6207A
:1038200001F0B8FF112001F0A9FF002001F0A6FF70
:10383000342001F0A3FF002001F0A0FF562001F08A
:103840009DFF002001F09AFF762001F097FF0020F5
:1038500001F094FF772001F091FF002001F08EFF2E
:10386000662001F08BFF002001F088FF882001F026
:1038700085FF002001F082FF992001F07FFF0020EA
:1038800001F07CFFBB2001F079FF002001F076FF02
:10389000992001F073FF002001F070FF662001F015
:1038A0006DFF002001F06AFF552001F067FF002046
:1038B00001F064FF552001F061FF002001F05EFF80
:1038C000452001F05BFF002001F058FF432001F08C
:1038D00055FF002001F052FF442001F04FFF00206F
:1038E00001F04CFFE72001F055FF322001F046FFC8
:1038F000002001F043FF552001F040FF002001F0BF
:103900003DFF762001F03AFF002001F037FF6620EE
:1039100001F034FF002001F031FF672001F02EFF9D
:10392000002001F02BFF672001F028FF002001F0AC
:1039300025FF872001F022FF002001F01FFF9920C2
:1039400001F01CFF002001F019FFBB2001F016FF61
:10395000002001F013FF992001F010FF002001F07A
:103960000DFF772001F00AFF002001F007FF44203F
:1039700001F004FF002001F001FF562001F0FEFEDF
:10398000002001F0FBFE232001F0F8FE002001F0F2
:10399000F5FE332001F0F2FE002001F0EFFE45209D
:1039A00001F0ECFE002001F0E9FEE82001F0F2FE5B
:1039B000002001F0E3FE002001F0E0FE992001F07C
:1039C000DDFE002001F0DAFE872001F0D7FE0020A6
:1039D00001F0D4FE882001F0D1FE002001F0CEFEDF
:1039E000772001F0CBFE002001F0C8FE662001F038
:1039F000C5FE002001F0C2FE882001F0BFFE0020BD
:103A000001F0BCFEAA2001F0B9FE002001F0B6FED4
:103A1000BB2001F0B3FE002001F0B0FE992001F0C0
:103A2000ADFE002001F0AAFE662001F0A7FE0020F6
:103A300001F0A4FE552001F0A1FE002001F09EFE41
:103A4000552001F09BFE002001F098FE442001F07B
:103A500095FE002001F092FE442001F08FFE002030
:103A600001F08CFE552001F089FE002001F086FE59
:103A7000E92001F08FFEAA2001F080FE002001F075
:103A80007DFE002001F07AFE002001F077FE00208C
:103A900001F080FEAA2001F071FECF2001F07AFE35
:103AA000002001F06BFE002001F068FE002001F014
:103AB00065FE002001F062FE002001F05FFE0020A4
:103AC00001F05CFE002001F059FE002001F056FEDE
:103AD000002001F053FE002001F050FE002001F014
:103AE0004DFE002001F04AFE002001F047FE0020BC
:103AF00001F044FE002001F041FE002001F03EFEF6
:103B0000002001F03BFEF02001F044FE002001F017
:103B100035FE502001F032FE002001F02FFE002083
:103B200001F02CFE002001F029FEF32001F032FE0E
:103B3000002001F023FEF92001F02CFE062001F008
:103B40001DFE102001F01AFE292001F017FE0020B2
:103B500001F014FE3A2001F01DFE552001F00EFE8A
:103B6000112001F017FE6420FEF7F6FC292001F079
:103B700011FE352001F00EFE002001F0FFFD512066
:103B800001F008FEFF2001F0F9FD532001F002FED4
:103B90002C2001F0F3FD552001F0FCFD822001F006
:103BA000EDFD2C2001F0F6FD10BD10B555214FF4B0
:103BB000704001F005FEAA214FF2010001F000FE65
:103BC00052214FF2020001F0FBFD08214FF20300E9
:103BD00001F0F6FD01214FF2040001F0F1FD0D218D
:103BE0004FF4304001F0ECFD0D214BF2010001F0EB
:103BF000E7FD0D214BF2020001F0E2FD34214FF40C
:103C0000364001F0DDFD34214BF2016001F0D8FDBA
:103C100034214BF2026001F0D3FD0D214FF431400D
:103C200001F0CEFD0D214BF2011001F0C9FD0D2177
:103C30004BF2021001F0C4FD34214FF4374001F083
:103C4000BFFD34214BF2017001F0BAFD34214BF27B
:103C5000027001F0B5FD00214FF4324001F0B0FDDB
:103C600000214BF2012001F0ABFD00214BF20220BC
:103C700001F0A6FD24214FF4384001F0A1FD2421DC
:103C80004BF6010001F09CFD24214BF6020001F0EF
:103C900097FD01214FF43F4001F092FD0F214FF4B9
:103CA000334001F08DFD0F214BF2013001F088FD12
:103CB0000F214BF2023001F083FD34214FF43940E3
:103CC00001F07EFD34214BF6011001F079FD342125
:103CD0004BF6021001F074FD08214FF4354001F05D
:103CE0006FFD08214BF2015001F06AFD08214BF2F3
:103CF000025001F065FD03214FF4424001F060FDE8
:103D000024214FF43A4001F05BFD24214BF60120C1
:103D100001F056FD24214BF6022001F051FD002157
:103D20004FF43C4001F04CFD78214BF6014001F08E
:103D300047FD00214BF6024001F042FD00214FF407
:103D40003D4001F03DFD78214BF6015001F038FD7A
:103D500000214BF6025001F033FD00214FF43E40AC
:103D600001F02EFD64214BF6016001F029FD0021D8
:103D70004FF4514001F024FD33214DF2011001F0C8
:103D80001FFD00214DF2021001F01AFD34214DF209
:103D9000031001F015FD00214DF2041001F010FD9B
:103DA0003A214DF2051001F00BFD00214DF20610F5
:103DB00001F006FD4A214DF2071001F001FD00213E
:103DC0004DF2081001F0FCFC5C214DF2091001F0ED
:103DD000F7FC00214DF20A1001F0F2FC81214DF2B6
:103DE0000B1001F0EDFC00214DF20C1001F0E8FC8D
:103DF000A6214DF20D1001F0E3FC00214DF20E1052
:103E000001F0DEFCE5214DF20F1001F0D9FC01219B
:103E10004DF2101001F0D4FC13214DF2111001F0FD
:103E2000CFFC01214DF2121001F0CAFC54214DF2D9
:103E3000131001F0C5FC01214DF2141001F0C0FC7B
:103E400082214DF2151001F0BBFC01214DF216103C
:103E500001F0B6FCCA214DF2171001F0B1FC0221AD
:103E60004DF2181001F0ACFC00214DF2191001F0D8
:103E7000A7FC02214DF21A1001F0A2FC01214DF223
:103E80001B1001F09DFC02214DF21C1001F098FC6A
:103E900034214DF21D1001F093FC02214DF21E1051
:103EA00001F08EFC67214DF21F1001F089FC022108
:103EB0004DF2201001F084FC84214DF2211001F01C
:103EC0007FFC02214DF2221001F07AFCA4214DF278
:103ED000231001F075FC02214DF2241001F070FC5A
:103EE000B7214DF2251001F06BFC02214DF2261096
:103EF00001F066FCCF214DF2271001F061FC022198
:103F00004DF2281001F05CFCDE214DF2291001F089
:103F100057FC02214DF22A1001F052FCF2214DF221
:103F20002B1001F04DFC02214DF22C1001F048FC49
:103F3000FE214DF22D1001F043FC03214DF22E1015
:103F400001F03EFC10214DF22F1001F039FC03214D
:103F50004DF2301001F034FC33214DF2311001F0FC
:103F60002FFC03214DF2321001F02AFC6D214DF29D
:103F7000331001F025FC00214FF4524001F020FCE9
:103F800033214DF2012001F01BFC00214DF20220F3
:103F900001F016FC34214DF2032001F011FC002148
:103FA0004DF2042001F00CFC3A214DF2052001F005
:103FB00007FC00214DF2062001F002FC4A214DF2DF
:103FC000072001F0FDFB00214DF2082001F0F8FB75
:103FD0005C214DF2092001F0F3FB00214DF20A2093
:103FE00001F0EEFB81214DF20B2001F0E9FB0021F5
:103FF0004DF20C2001F0E4FBA6214DF20D2001F062
:10400000DFFB00214DF20E2001F0DAFBE5214DF23D
:104010000F2001F0D5FB01214DF2102001F0D0FB63
:1040200013214DF2112001F0CBFB01214DF21220A2
:1040300001F0C6FB54214DF2132001F0C1FB012118
:104040004DF2142001F0BCFB82214DF2152001F04D
:10405000B7FB01214DF2162001F0B2FBCA214DF24F
:10406000172001F0ADFB02214DF2182001F0A8FB52
:1040700000214DF2192001F0A3FB02214DF21A207C
:1040800001F09EFB01214DF21B2001F099FB022162
:104090004DF21C2001F094FB34214DF21D2001F063
:1040A0008FFB02214DF21E2001F08AFB67214DF2A9
:1040B0001F2001F085FB02214DF2202001F080FB42
:1040C00084214DF2212001F07BFB02214DF22220C0
:1040D00001F076FBA4214DF2232001F071FB0221B7
:1040E0004DF2242001F06CFBB7214DF2252001F0A8
:1040F00067FB02214DF2262001F062FBCF214DF239
:10410000272001F05DFB02214DF2282001F058FB31
:10411000DE214DF2292001F053FB02214DF22A202D
:1041200001F04EFBF2214DF22B2001F049FB022160
:104130004DF22C2001F044FBFE214DF22D2001F028
:104140003FFB03214DF22E2001F03AFB10214DF2EE
:104150002F2001F035FB03214DF2302001F030FB20
:1041600033214DF2312001F02BFB03214DF232209F
:1041700001F026FB6D214DF2332001F021FB0021DF
:104180004FF4534001F01CFB33214DF2013001F09C
:1041900017FB00214DF2023001F012FB34214DF2E9
:1041A000033001F00DFB00214DF2043001F008FB5B
:1041B0003A214DF2053001F003FB00214DF20630AB
:1041C00001F0FEFA4A214DF2073001F0F9FA002120
:1041D0004DF2083001F0F4FA5C214DF2093001F0A3
:1041E000EFFA00214DF20A3001F0EAFA81214DF296
:1041F0000B3001F0E5FA00214DF20C3001F0E0FA4D
:10420000A6214DF20D3001F0DBFA00214DF20E3007
:1042100001F0D6FAE5214DF20F3001F0D1FA01217B
:104220004DF2103001F0CCFA13214DF2113001F0B3
:10423000C7FA01214DF2123001F0C2FA54214DF2B9
:10424000133001F0BDFA01214DF2143001F0B8FA3B
:1042500082214DF2153001F0B3FA01214DF21630F2
:1042600001F0AEFACA214DF2173001F0A9FA02218D
:104270004DF2183001F0A4FA00214DF2193001F08E
:104280009FFA02214DF21A3001F09AFA01214DF203
:104290001B3001F095FA02214DF21C3001F090FA2A
:1042A00034214DF21D3001F08BFA02214DF21E3007
:1042B00001F086FA67214DF21F3001F081FA0221E8
:1042C0004DF2203001F07CFA84214DF2213001F0D2
:1042D00077FA02214DF2223001F072FAA4214DF258
:1042E000233001F06DFA02214DF2243001F068FA1A
:1042F000B7214DF2253001F063FA02214DF226304C
:1043000001F05EFACF214DF2273001F059FA022177
:104310004DF2283001F054FADE214DF2293001F03F
:104320004FFA02214DF22A3001F04AFAF2214DF201
:104330002B3001F045FA02214DF22C3001F040FA09
:10434000FE214DF22D3001F03BFA03214DF22E30CB
:1043500001F036FA10214DF22F3001F031FA03212D
:104360004DF2303001F02CFA33214DF2313001F0B2
:1043700027FA03214DF2323001F022FA6D214DF27D
:10438000333001F01DFA00214FF4544001F018FAC7
:1043900033214DF2014001F013FA00214DF20240A9
:1043A00001F00EFA34214DF2034001F009FA002128
:1043B0004DF2044001F004FA3A214DF2054001F0BB
:1043C000FFF900214DF2064001F0FAF94A214DF2C1
:1043D000074001F0F5F900214DF2084001F0F0F935
:1043E0005C214DF2094001F0EBF900214DF20A4049
:1043F00001F0E6F981214DF20B4001F0E1F90021D5
:104400004DF20C4001F0DCF9A6214DF20D4001F017
:10441000D7F900214DF20E4001F0D2F9E5214DF21D
:104420000F4001F0CDF901214DF2104001F0C8F923
:1044300013214DF2114001F0C3F901214DF2124058
:1044400001F0BEF954214DF2134001F0B9F90121F8
:104450004DF2144001F0B4F982214DF2154001F003
:10446000AFF901214DF2164001F0AAF9CA214DF22F
:10447000174001F0A5F902214DF2184001F0A0F912
:1044800000214DF2194001F09BF902214DF21A4032
:1044900001F096F901214DF21B4001F091F9022142
:1044A0004DF21C4001F08CF934214DF21D4001F019
:1044B00087F902214DF21E4001F082F967214DF289
:1044C0001F4001F07DF902214DF2204001F078F902
:1044D00084214DF2214001F073F902214DF2224076
:1044E00001F06EF9A4214DF2234001F069F9022197
:1044F0004DF2244001F064F9B7214DF2254001F05E
:104500005FF902214DF2264001F05AF9CF214DF218
:10451000274001F055F902214DF2284001F050F9F1
:10452000DE214DF2294001F04BF902214DF22A40E3
:1045300001F046F9F2214DF22B4001F041F9022140
:104540004DF22C4001F03CF9FE214DF22D4001F0DE
:1045500037F903214DF22E4001F032F910214DF2CE
:104560002F4001F02DF903214DF2304001F028F9E0
:1045700033214DF2314001F023F903214DF2324055
:1045800001F01EF96D214DF2334001F019F90021BF
:104590004FF4554001F014F933214DF2015001F070
:1045A0000FF900214DF2025001F00AF934214DF2C9
:1045B000035001F005F900214DF2045001F000F91B
:1045C0003A214DF2055001F0FBF800214DF2065062
:1045D00001F0F6F84A214DF2075001F0F1F8002100
:1045E0004DF2085001F0ECF85C214DF2095001F059
:1045F000E7F800214DF20A5001F0E2F881214DF276
:104600000B5001F0DDF800214DF20C5001F0D8F80C
:10461000A6214DF20D5001F0D3F800214DF20E50BD
:1046200001F0CEF8E5214DF20F5001F0C9F801215B
:104630004DF2105001F0C4F813214DF2115001F069
:10464000BFF801214DF2125001F0BAF854214DF299
:10465000135001F0B5F801214DF2145001F0B0F8FB
:1046600082214DF2155001F0ABF801214DF21650A8
:1046700001F0A6F8CA214DF2175001F0A1F802216D
:104680004DF2185001F09CF800214DF2195001F044
:1046900097F802214DF21A5001F092F801214DF2E3
:1046A0001B5001F08DF802214DF21C5001F088F8EA
:1046B00034214DF21D5001F083F802214DF21E50BD
:1046C00001F07EF867214DF21F5001F079F80221C8
:1046D0004DF2205001F074F884214DF2215001F088
:1046E0006FF802214DF2225001F06AF8A4214DF238
:1046F000235001F065F802214DF2245001F060F8DA
:10470000B7214DF2255001F05BF802214DF2265001
:1047100001F056F8CF214DF2275001F051F8022157
:104720004DF2285001F04CF8DE214DF2295001F0F5
:1047300047F802214DF22A5001F042F8F2214DF2E1
:104740002B5001F03DF802214DF22C5001F038F8C9
:10475000FE214DF22D5001F033F803214DF22E5081
:1047600001F02EF810214DF22F5001F029F803210D
:104770004DF2305001F024F833214DF2315001F068
:104780001FF803214DF2325001F01AF86D214DF25D
:10479000335001F015F800214FF4564001F010F8A5
:1047A00033214DF2016001F00BF800214DF202605F
:1047B00001F006F834214DF2036001F001F8002108
:1047C0004DF2046000F0FCFF3A214DF2056000F06C
:1047D000F7FF00214DF2066000F0F2FF4A214DF292
:1047E000076000F0EDFF00214DF2086000F0E8FFE7
:1047F0005C214DF2096000F0E3FF00214DF20A60F8
:1048000000F0DEFF81214DF20B6000F0D9FF0021A6
:104810004DF20C6000F0D4FFA6214DF20D6000F0C7
:10482000CFFF00214DF20E6000F0CAFFE5214DF2EE
:104830000F6000F0C5FF01214DF2106000F0C0FFD5
:1048400013214DF2116000F0BBFF01214DF2126007
:1048500000F0B6FF54214DF2136000F0B1FF0121CA
:104860004DF2146000F0ACFF82214DF2156000F0B3
:10487000A7FF01214DF2166000F0A2FFCA214DF200
:10488000176000F09DFF02214DF2186000F098FFC4
:1048900000214DF2196000F093FF02214DF21A60E1
:1048A00000F08EFF01214DF21B6000F089FF022114
:1048B0004DF21C6000F084FF34214DF21D6000F0C9
:1048C0007FFF02214DF21E6000F07AFF67214DF25A
:1048D0001F6000F075FF02214DF2206000F070FFB4
:1048E00084214DF2216000F06BFF02214DF2226025
:1048F00000F066FFA4214DF2236000F061FF022169
:104900004DF2246000F05CFFB7214DF2256000F00D
:1049100057FF02214DF2266000F052FFCF214DF2E9
:10492000276000F04DFF02214DF2286000F048FFA3
:10493000DE214DF2296000F043FF02214DF22A6092
:1049400000F03EFFF2214DF22B6000F039FF022112
:104950004DF22C6000F034FFFE214DF22D6000F08E
:104960002FFF03214DF22E6000F02AFF10214DF29F
:104970002F6000F025FF03214DF2306000F020FF92
:1049800033214DF2316000F01BFF03214DF2326004
:1049900000F016FF6D214DF2336000F011FF55213C
:1049A0004FF4704000F00CFFAA214FF2010000F01C
:1049B00007FF52214FF2020000F002FF08214FF2E0
:1049C000030000F0FDFE00214FF2040000F0F8FEAD
:1049D000CC214FF4314000F0F3FE00214BF20110E6
:1049E00000F0EEFE05214FF4364000F0E9FE7021A4
:1049F0004FF4374000F0E4FE70214BF2017000F0FC
:104A0000DFFE01214FF4384000F0DAFE03214BF6BF
:104A1000010000F0D5FE03214BF6020000F0D0FEAD
:104A200003214BF6030000F0CBFE02214FF43C4083
:104A300000F0C6FE00214BF6014000F0C1FE00214F
:104A40004BF6024000F0BCFED0214FF4494000F08C
:104A5000B7FE02214CF6011000F0B2FE50214CF6D8
:104A6000021000F0ADFE50214CF6031000F0A8FE3D
:104A700050214CF6041000F0A3FE00214FF45450D6
:104A800000F09EFE55214FF4685000F099FE4FF45F
:104A9000885000F07FFE7820FDF76AFD4FF4245027
:104AA00000F078FE10BD10B5E22000F073FE1D206E
:104AB00000F064FE022000F061FE042000F05EFEC3
:104AC0006420FDF755FDE02000F064FE012000F0B9
:104AD00055FE0A20FDF740FDE02000F05BFE0320BC
:104AE00000F04CFE0C20FDF737FD012000F052FED7
:104AF0000A20FDF731FDE62000F04CFE2F2000F0EB
:104B00003DFEFF2000F03AFEFF2000F037FEB0200F
:104B100000F040FE202000F031FE002000F02EFECC
:104B2000032000F02BFE40F21F3000F027FE012092
:104B300000F024FE40F2DF1000F020FE002000F024
:104B40001DFEB42000F026FE042000F017FE40F207
:104B50001F4000F013FE002000F010FE2E2000F099
:104B60000DFE002000F00AFE002000F007FE0020ED
:104B700000F004FE002000F001FEB62000F00AFE66
:104B8000022000F0FBFD4FF4037000F0F7FD002061
:104B900000F0F4FD172000F0F1FD152000F0EEFD0F
:104BA000002000F0EBFD002000F0E8FDF02000F018
:104BB000F1FD032000F0E2FD292000F0EBFDD02004
:104BC00000F0E8FD002000F0D9FDBE2000F0E2FD7D
:104BD000052000F0D3FDFE2000F0D0FD012000F004
:104BE000CDFD002000F0CAFD002000F0C7FD002030
:104BF00000F0C4FDB82000F0CDFD032000F0BEFDA4
:104C0000012000F0BBFDBA2000F0C4FD012000F03F
:104C1000B5FD10BD10B5112000F0BCFD7820FDF7EA
:104C20009BFC362000F0B6FD002000F0A7FD3A20E6
:104C300000F0B0FD052000F0A1FDB22000F0AAFDBB
:104C40000C2000F09BFD0C2000F098FD002000F0EF
:104C500095FD332000F092FD332000F08FFDB7204A
:104C600000F098FD352000F089FDBB2000F092FD9A
:104C7000322000F083FDC02000F08CFD0C2000F0FD
:104C80007DFDC22000F086FD012000F077FDC320ED
:104C900000F080FD102000F071FDC42000F07AFDCE
:104CA000202000F06BFDC62000F074FD0F2000F006
:104CB00065FDD02000F06EFDA42000F05FFDA12076
:104CC00000F05CFDE02000F065FDD02000F056FD16
:104CD000002000F053FD022000F050FD072000F0FE
:104CE0004DFD0A2000F04AFD282000F047FD32204B
:104CF00000F044FD442000F041FD422000F03EFD64
:104D0000062000F03BFD0E2000F038FD122000F0E0
:104D100035FD142000F032FD172000F02FFDE120BA
:104D200000F038FDD02000F029FD002000F026FD25
:104D3000022000F023FD072000F020FD0A2000F0F3
:104D40001DFD282000F01AFD312000F017FD542031
:104D500000F014FD472000F011FD0E2000F00EFDC4
:104D60001C2000F00BFD172000F008FD1B2000F0B8
:104D700005FD1E2000F002FD2A2000F00BFD0020A2
:104D800000F0FCFC002000F0F9FC002000F0F6FC34
:104D9000EF2000F0F3FC2B2000F0FCFC002000F0E2
:104DA000EDFC002000F0EAFC012000F0E7FC3F20D1
:104DB00000F0E4FC292000F0EDFC10BD00B595B03A
:104DC00000BF00BF00200190FE48006840F0400096
:104DD000FC4908600846006800F04000019000BFF0
:104DE00000BF00BF00BF00BF002001900846006860
:104DF00040F0080008600846006800F008000190D4
:104E000000BF00BF00BF00BF00BF002001900846E8
:104E1000006840F0080008600846006800F00800DC
:104E2000019000BF00BF00BF00BF00BF0020019085
:104E30000846006840F0400008600846006800F03E
:104E40004000019000BF00BF00BF00BF00BF0020B6
:104E500001900846006840F00200086008460068BB
:104E600000F00200019000BF00BF00BF8814109046
:104E70000220119001201290022013900C20149017
:104E800010A9D148FBF7C8FE2020109010A9CF48E8
:104E9000FBF7C2FE1020109010A9CC48FBF7BCFE17
:104EA0004FF48050109010A9C948FBF7B5FE4FF49D
:104EB000004010900120119010A9C648FBF7ACFEED
:104EC0004FF02040C4490860C4484860062088600C
:104ED0000021C148C1601021416100218161C1618F
:104EE00041624FF4805181620021C1624FF48041E0
:104EF00001630021416381630F20099000200A9023
:104F00003C200B9000200F9005900920029000207B
:104F10000390082004900020089002AA09A9AE4836
:104F2000FCF7DCFB3220FDF717FBD32000F032FC4E
:104F300000F06CF9AA49888000F068F9A8498880D7
:104F400000F064F9A6498880084680884FF6FF7112
:104F500001EA0020A249888000F058F9A049898818
:104F600008439F4988800846808849F24131884239
:104F70007DD0042000F00EFC00F048F998498880AC
:104F800000F044F99649888000F040F994498880FF
:104F9000084680884FF6FF7101EA0020904988801A
:104FA00000F034F98E49898808438D498880084685
:104FB000808848F25251884203D147F2897088496B
:104FC00088808748808847F289718842D0D0D42071
:104FD00000F0E0FB00F01AF98149888000F016F932
:104FE0007F49888000F012F97D49888008468088D2
:104FF0004FF6FF7101EA00207949888000F006F938
:10500000774989880843764988800846808845F230
:10501000103188426BD055214FF4704000F0D0FB26
:10502000AA214FF2010000F0CBFB52214FF2020007
:1050300000F0C6FB08214FF2030000F0C1FB012184
:105040004FF2040000F0BCFB4FF4454000F0A2FB1F
:1050500000F0DCF862498880084680884FF6FF71CE
:1050600001EA00205E4988804CF2015000E03EE0F9
:1050700000F090FB00F0CAF8594989880843584964
:1050800088800520FDF768FA55488088B0F5004F04
:1050900003D145F21050524988805148808845F22A
:1050A0001051884223D0A12000F074FB00F0AEF82C
:1050B0004B49888000F0AAF84949888008468088D2
:1050C0004FF6FF7101EA00204549888000F09EF804
:1050D000434989880843424988800846808845F2C8
:1050E0006171884203D141F663103D4988803C4894
:1050F00081883CA0FBF7AAF93948808847F289717A
:10510000884202D1FFF786FD25E03548808849F2C4
:105110004131884202D1FDF7B9FC1CE0304880885B
:1051200045F21031884202D1FDF7C6FD13E02C484C
:10513000808845F21051884202D1FEF736FD0AE020
:105140002748808841F66311884204D1FFF7ABFC01
:10515000642000F0E3FA2248808849F24131884215
:105160000BD01F48808841F66311884205D01C4847
:10517000808847F28971884209D103200290049007
:1051800015490B6B8A68486802A9FBF767FC14484D
:10519000808845F21031884205D01148808845F258
:1051A0001051884209D10220029004900A490B6BE9
:1051B0008A68486802A9FBF751FC0020FDF7BEFB96
:1051C00000BF15E03038024000180240000C0240D9
:1051D0000014024000040240EC010020040100A081
:1051E0003C0200204C43442049443A25780D0A00F3
:1051F0000122D1030448FBF723FE00BF4FF6FF70E6
:10520000FDF782FB15B000BD0004024008B503485D
:1052100000880090BDF8000008BD00008000006C10
:10522000F0B505460024002788488079012805D17B
:105230008648808841F66311884208D18348807986
:10524000F0B98248808841F66311884218D1082D50
:1052500015D2DFE805F00406080A0C0E1012062528
:105260000DE007250BE0042509E0052507E00125F1
:1052700005E0002503E0032501E0022500BF00BF93
:10528000082D1CD2DFE805F00406090C0F121518D2
:1052900000BF14E044F0800411E044F040040EE04C
:1052A00044F0C0040BE044F0200408E044F0600443
:1052B00005E044F0A00402E044F0E00400BF00BFB9
:1052C00036276248808845F21051884200D13F025B
:1052D0005E48808849F24131884205D05B48808829
:1052E00047F28971884201D144F0080421463846CA
:1052F00000F066FA5548808841F6631188421DD057
:1053000004F0200068B1514800885049498888421B
:1053100014DA4E48068840884C4908800846468082
:105320000CE04A48008849494988884206DD4748D8
:10533000068840884549088008464680434880885A
:1053400045F21051884252D14049488900F022FA72
:10535000002000F013FA3D494989491C88B200F049
:1053600019FA002000F00AFA38494989891C88B2E4
:1053700000F010FA35490988491EC1F30F2000F0EA
:10538000FDF932494989C91C88B200F003FA2F4956
:105390000978491EC8B200F0F1F92C49888900F05B
:1053A000F9F9002000F0EAF928498989491C88B2F6
:1053B00000F0F0F9002000F0E1F924498989891C06
:1053C00088B200F0E7F921494988491EC1F30F204E
:1053D00000F0D4F91D498989C91C88B200F0DAF9B6
:1053E0001A498978491EC8B200F0C8F92DE017495A
:1053F000488900F0CFF9002000F0C0F9002000F04B
:10540000BDF912490988491EC1F30F2000F0B6F911
:105410000E490978491EC8B200F0B0F90B498889D5
:1054200000F0B8F9002000F0A9F9002000F0A6F97A
:1054300006494988491EC1F30F2000F09FF903492E
:105440008978491EC8B200F099F9F0BD3C020020ED
:1054500010B502460C464548808841F663118842E3
:1054600047D142488079A8B940480088401E801A38
:1054700082B23E49488900F08DF9002000F07EF9A3
:10548000002000F07BF9101200F078F9D0B200F0A3
:1054900075F916E03549488900F07CF9101200F0E2
:1054A0006DF9D0B200F06AF930490988491EC1F39C
:1054B0000F2000F063F92D490978491EC8B200F0A9
:1054C0005DF92A49888900F065F9201200F056F943
:1054D000E0B200F053F925494988491EC1F30F2075
:1054E00000F04CF921498978491EC8B200F046F90C
:1054F0003AE01E48808845F21051884220D11B496D
:10550000488900F047F9101200F038F91749498925
:10551000491C88B200F03EF9D0B200F02FF91349CF
:10552000888900F037F9201200F028F90F4989899D
:10553000491C88B200F02EF9E0B200F01FF913E028
:105540000A49488900F026F9101200F017F9D0B284
:1055500000F014F90549888900F01CF9201200F0C8
:105560000DF9E0B200F00AF910BD00003C02002085
:105570002DE9FC4F80460E4615461C46B3460020DA
:10558000019000902046E31704EB5373DB10214693
:105590004FEAE47C04EB5C7C4FEAEC0CA4EBCC0C13
:1055A000BCF1000F02D04FF0010C01E04FF0000CF5
:1055B0006344224604EBD27C4FEA6C0C03FB0CF3F1
:1055C000DBB20193A5F12000C5B20C2C06D0102C43
:1055D0000BD0182C0ED0202C18D112E005EB450072
:1055E0002D4901EB8000009012E02C4800EB0510E3
:1055F00000900DE005EBC500294901EB800000900B
:1056000006E0284800EB8510009001E0BDE8FC8F23
:1056100000BF00273AE0009810F807904FF0000A0A
:105620002EE009F0800028B1314640460C9AFDF783
:105630001DFA07E00B9828B91B483146026840461E
:10564000FDF714FA4FEA49604FEA1069701C86B200
:1056500016484088B04200DCD8E7A6EB0B00A04219
:105660000AD15E4608F101001FFA80F80F48008851
:10567000404500DCCAE706E00AF1010000F0FF0A3D
:10568000BAF1080FCDDB00BF781CC7B20198874282
:10569000C1DB00BFBAE70000968E00080A9300083D
:1056A000FA98000856A60008280000203C020020B6
:1056B0002DE9FC4F04460D4690469946DDE90C7AEB
:1056C0000B9E04F0FF0B08EB04001FFA80F809EBB7
:1056D00005001FFA80F917E0444502DB5C46A81973
:1056E00085B24D4500DB15E00020CDE9000A3A788F
:1056F000334629462046FFF73BFF304606EBD07184
:1057000004EB61018CB27F1C38787E2802DC38788B
:105710002028E1DA00BFBDE8FC8F000070B52DED58
:10572000048B0446BE2000F035F8052000F026F872
:10573000204603F08EFA41EC190B9FED0E0B53EC53
:10574000102B03F099FA41EC180B03F055FA85B2CF
:10575000284600F013F8012000F010F8FF2000F0B8
:105760000DF8002000F00AF8002000F007F8BDEC6A
:10577000048B70BD666666666666044001B5BDF85A
:1057800000000090BDF800000149088008BD00003D
:105790008000006C01B5BDF800000090BDF800006D
:1057A0000149088008BD00007E00006C02480089A5
:1057B00002490880704700003C0200207E00006C17
:1057C000034A10804FF0D842A2F8801070470000C2
:1057D0007E00006C00B587B000BF00BF00200190C4
:1057E0002048006840F020001E4908600846006814
:1057F00000F02000019000BF00BF00BF00BF00BF4D
:10580000002001900846006840F02000086008462B
:10581000006800F02000019000BF00BF00BF4815E5
:1058200002900120039004900220059002A90E48E6
:10583000FBF7F2F94FF48060029002A90A48FBF7E7
:10584000EBF900BF012251020748FBF7F9FA00BF4C
:1058500000BF012291020448FBF7F2FA00BF07B033
:1058600000BD0000303802400014024010B5FBF7C4
:1058700005FB0723022208214FF4A87001F010FB5A
:10588000A820FCF74DFE4FF4E13001F0E3FDFFF7F7
:10589000A1FFFFF793FAFCF757FF01F035F800205E
:1058A00000F040F8022000F03DF8012000F03AF846
:1058B000FCF7F6FE002010BD2DE9F04104460E462F
:1058C0001548005D38B914482038016820468847DB
:1058D0000120BDE8F081114850F82400B04219D9E8
:1058E0000F4850F82400B6FBF0F10B480C3850F884
:1058F000240030F81120002508E0002306480C3869
:1059000050F824004F1920F817306D1C9542F4DB35
:105910000020DEE70220DCE75000002030BE000857
:1059200024BE000810B504460C4951F824104A0062
:105930000B4951F82400002100F0B0F8094951F852
:10594000242007490C3951F82400002100F0A6F862
:10595000012103480C30015510BD000018BE00089D
:105960004400002030BE00082DE9F04704460F46F1
:105970000025A9462348005D20B922482038016847
:10598000204688471FB94FF0FF30BDE8F0871E481A
:1059900050F82400B7FBF0F61B4850F82400B7FB82
:1059A000F0F100FB117000B1761C184850F824008B
:1059B000451E22E013480C3850F8240030F815003A
:1059C00010B909F1010901E04FF00009B14513D107
:1059D0004FF0000809E00B480C3850F8240005EBA4
:1059E000080220F8126008F10108B045F3D3064818
:1059F00050F824006843C8E76D1E002DDADA4FF036
:105A0000FF30C2E75000002024BE000818BE000886
:105A100010B501460023002207E00B4850F8210092
:105A200030F8120000B15B1C521C084850F82100ED
:105A30009042F2D84FF47A705843044C54F8214005
:105A4000B0FBF4F080B210BD4400002018BE000886
:105A500070B505460C4604B970BD054850F82500E0
:105A6000261A31462846FFF727FF00BFF4E700005B
:105A70003800002070B504460E4631462046FFF738
:105A800073FF0546681C08B9002070BD024850F835
:105A900024002844F9E700003800002030B5034610
:105AA00001E003F8011B141EA2F10102F9D130BD7F
:105AB0002DE9F04105460E4629480768002029498E
:105AC000096881F8590027480068001D01F0DEFCD4
:105AD00050B92448006890F82C10012088402249D1
