:020000040800F2
:1000000070C7012049020008992900082B2900081F
:100010002F2900083D160008B9570008000000000D
:100020000000000000000000000000007553000800
:10003000E916000800000000A9150008795300081F
:100040006D0200086D0200086D0200086D020008D4
:100050006D0200086D0200086D0200086D020008C4
:100060006D0200086D0200086D0200086D020008B4
:100070006D0200086D0200086D0200086D020008A4
:100080006D0200086D0200086D0200086D02000894
:100090006D0200086D0200086D0200086D02000884
:1000A0006D0200086D0200086D0200086D02000874
:1000B0006D0200086D0200086D0200086D02000864
:1000C0006D0200086D0200086D0200086D02000854
:1000D0006D020008A15700086D0200086D020008BB
:1000E0006D0200086D0200086D0200086D02000834
:1000F0006D0200086D0200086D0200086D02000824
:100100006D0200086D0200086D0200086D02000813
:100110006D0200086D0200086D0200086D02000803
:100120006D0200086D0200086D0200086D020008F3
:100130006D0200086D0200086D0200086D020008E3
:100140006D0200086D0200086D0200086D020008D3
:100150006D0200086D0200086D0200086D020008C3
:100160006D0200086D0200086D0200086D020008B3
:100170006D0200086D0200086D020008000000001A
:100180006D0200086D02000800F002F800F04CF863
:100190000AA090E8000C82448344AAF10107DA45E2
:1001A00001D100F041F8AFF2090EBAE80F0013F0E8
:1001B000010F18BFFB1A43F00103184730CB0000B2
:1001C00050CB0000103A24BF78C878C1FAD8520743
:1001D00024BF30C830C144BF04680C6070470000C1
:1001E0000023002400250026103A28BF78C1FBD840
:1001F000520728BF30C148BF0B607047662909F01D
:100200004784782900F0F480002070471FB509F07A
:100210003AFC00F033FC04000020002109F06EFAE3
:10022000E0601FBD10B510BD00F044FD1146FFF7A2
:10023000EDFF08F0B3FE00F062FD03B4FFF7F2FF3C
:1002400003BC05F0F6FA00000C48016841F47001A7
:1002500001600B4880470B480047FEE7FEE7FEE7DA
:10026000FEE7FEE7FEE7FEE7FEE7FEE7FEE700004B
:1002700005480649044A064B7047000088ED00E037
:10028000915300088901000870C3012070C7012044
:1002900070C3012072B6704762B6704772B602B47E
:1002A000EFF3118180F31188BFF34F8FBFF36F8F8E
:1002B000084602BC62B6704772B680F31188BFF37D
:1002C0004F8FBFF36F8F62B6704730BF704720BF4C
:1002D0007047B0FA80F0704790FAA0F0B0FA80F062
:1002E000704790FAA0F07047704753EA020C00F094
:1002F00069802DE9F04B4FF00006002B1FBFB3FAC9
:1003000083F503FA05F424FA05F65E4012BF16439E
:10031000B2FA82F502FA05F4C5F120051EBF22FAF1
:1003200005FC44EA0C04203556EA044C4FEA144418
:1003300018BF641C4FF000084FF00009904271EBA9
:10034000030C39D3002919BFB1FA81F701FA07F676
:10035000B0FA80F700FA07F6C7F120071EBF20FAAF
:1003600007FC46EA0C062037B6FBF4FCA7EB0507B2
:10037000103F07F01F0BCBF120060CFA0BFB2CFAF9
:1003800006F644BFB3460026202FA4BF5E464FF0BA
:10039000000B5BEA060C08BF4FF0010B19EB0B09D1
:1003A000ABFB027C48EB0608C01B06FB02CC0BFB38
:1003B00003CC71EB0C01C1E70B46024641464846AF
:1003C000BDE8F08B13B54FF000004FF00001AFF324
:1003D0000080BDE81C4070470FB4044910B503AA63
:1003E000029800F039FB10BC5DF814FB28000020D7
:1003F00070B504460D4621461068AFF30080218891
:10040000090502D50F4A7A4402E00E4A7A440E32B8
:10041000002104F1240305E000F00F060009965DB9
:100420005E54491C0028F7D120780023000704D52A
:10043000702D02D009B1022311322046BDE8704070
:1004400000F0A2B812C800002DE9F05F894604460A
:100450004FF0000ADFF824B1FB44C0F820A020468A
:10046000E168884700287DD0252806D0D4E90121FD
:100470009047206A401C2062F1E700255F46204635
:10048000E16888472028064607DB312E05D2B819D7
:1004900010F8200C08B10543F1E7A80701D525F0B5
:1004A0000405C4F81CA00027C4F818A02A2E09D0FF
:1004B000304605F0B7F938B304EB8708303EC8F88A
:1004C000186019E059F8041B204604EB870291617B
:1004D000E1688847012F064618D1E069002820DA34
:1004E00025F020051DE0D8F8180000EB800006EB91
:1004F00040003038C8F818002046E16888470646B2
:1005000005F090F90028EED1012F0AD02E2E08D147
:100510002046E16888477F1C0646022F45F02005EB
:10052000C4DBA069002803DA404245F00105A06160
:10053000E80701D025F01005A6B1A6F14100192861
:1005400002D8203645F400654A46314620462560EB
:100550004D46FFF753FE60B1012807D0ED1D25F091
:10056000070000E007E000F1080978E705F1040959
:1005700075E730467AE7206ABDE8F09FE8C70000DB
:1005800070477047704770472DE9F0470D46994610
:100590009246044600F124080168880604D5E06903
:1005A00021F01001216000E00120A84201DD471B7D
:1005B00000E00027A1697A1902EB0900081AA0617E
:1005C0002078C00602D42046AFF30080002608E061
:1005D000D4E901211AF806009047206A401C761CD5
:1005E00020624E45F4DB2078C0060AD52046AFF3E2
:1005F000008006E0D4E9012130209047206A401CA9
:100600002062381EA7F10107F4DC07E0D4E90121DC
:1006100018F805009047206A401C2062281EA5F1AA
:100620000105F3DC2046AFF300802078000602D5F8
:100630000220BDE8F0870120FBE770472DE9FF4F5E
:100640000C461E464FF0FF378BB0D2E90001DDF8B3
:1006500060800A908A46C1F30A5505B93D460021DB
:1006600008464FF00000BAF1000F00F4400005DA30
:1006700000EB80004FF4400101EA50004FEA90592E
:10068000B9F1010F00DDB9460A9850EA4A000ED0D0
:1006900044F61050A5F2FF3545432F14B8F1000F72
:1006A0001ED07542291E1EDDC9F100021CE0B8F102
:1006B000010F4FF0000001D0302103E0F24305E0CC
:1006C0002154401CB042FBDB304600220021215463
:1006D0000B99C1F80880C1E900200FB0BDE8F08F88
:1006E000BD1B6D1CDEE74A4600DA694206A800F031
:1006F00067FA06AB93E8070003AB83E807005046B0
:100700000A9900F045FB8DE80700A0F500501F385E
:1007100000900398002D0ADD42F21F014A4608446A
:10072000002303A90390684600F0AEFD09E0A0F5A0
:1007300000504A461F38002303A90390684600F082
:10074000B8FD8DE807000004000C03D04FF0FF3027
:10075000410800E01046B8F1000F03D000220092DB
:1007600015461EE0751E05D400F08CF93032625536
:100770006D1EF9D5B3460122084302D000227F1C2A
:1007800004E02078302801D100227F1E002A09973A
:1007900084D01DE0112D07DA00F074F93032625573
:1007A0006D1C50EA0102F5D1084302D00098C8B18F
:1007B0000EE00021681E05E0235C625C6354225455
:1007C000401E491C8142F7DBAB46A81B401E099026
:1007D000002004F80B000B98099AC0F80880C0E9C3
:1007E000002B7AE711264FF0000857E72DE9F04F6C
:1007F00088460446D21D22F0070191B0D1E90001DC
:10080000CDE90A0104F0DAFF02460B98C00F01D0CF
:100810002D2007E02068810701D52B2002E0202150
:1008200001EAC000032A099001D0072A05DB03462C
:100830004146204600F084F90BE12078800601D57E
:10084000E06900E00620B8F1650F814606D0B8F1F6
:10085000660F18D0B8F1670F70D131E00020B9F100
:10086000110F009001DB112301E009F101030AAA35
:1008700001A90CA8FFF7E2FEDDE90C70002609F1E2
:100880000105834647E001204B4600904FF00047AA
:100890000AAA01A90CA8FFF7D1FEDDE90DB00C9959
:1008A0005D46002610B909F101000D18B9EB0500ED
:1008B00003D4C0F1FF3609F10105A5EB09002BE0D7
:1008C000B9F1010F01DA4FF001090020B9F1110F60
:1008D0000090484601DD112300E003460AAA01A961
:1008E0000CA8FFF7ABFEDDE90C704D4600268346F1
:1008F000207800070AD4AB4500DA5D4601A8012D37
:1009000004DD411911F8011C302907D04F4502DAE6
:1009100017F1040F04DA012082460FE06D1EEEE7A6
:10092000002F02DCED1B3E4403E0781CA84200DDF2
:100930007D1CB81B00F1010A4FF00047207800072A
:1009400003D4AA4501DB4FF0FF3A0021B7F1004F75
:100950000DF143088DF8431024D002202B23002FE3
:1009600001DA7F422D230A21021EA0F1010000DCE2
:100970005FB197FBF1FC97FBF1F201FB1C7C174682
:100980000CF1300C08F801CDEEE7A8F1010003707E
:100990002188090501D5452100E06521A0F1010864
:1009A00000F8011C09980FA9A1EB0807FF1D00B171
:1009B0000120411901EBEA70A1693844081A401E70
:1009C000A0612078C00602D42046AFF300800998C9
:1009D00028B1D4E901219047206A401C2062207888
:1009E000C00622D52046AFF300801EE0002E04DBB7
:1009F000B34502DD01A8805D00E03020D4E901218B
:100A00009047206A401C2062761CAAF101005FEA30
:100A1000000A0AD100F032F8C0680168405CD4E9ED
:100A200001219047206A401C2062281EA5F1010583
:100A3000DCDC07E0D4E9012118F8010B9047206ABB
:100A4000401C2062381EA7F10107F3DC2046AFF3FB
:100A50000080032011B041E6074B70B50D467B4482
:100A600000F05BF80446284600F01CF910B14FF086
:100A7000FF3070BD204670BD9B4E0000004870479F
:100A80002CC3012030B5B0F10A024FEA900E71F18B
:100A900000034EEA817EB0EB0E0061EB91014FEA5C
:100AA000101E4EEA017E10EB0E0041EB11114FEAD1
:100AB000102E4EEA016E10EB0E0041EB11214FEAB1
:100AC000104E4EEA014E10EB0E0041EB1141401862
:100AD00041F100014FEAD00040EA41704FEAD101F4
:100AE00010EB80054FEA810444EA907444EB010462
:100AF0006D1944EB0404521BA3414FF0000348BF9F
:100B00000A3200D530BD401C41F1000130BD00006B
:100B100001694A1C02610878704700B58FB0CDE9C1
:100B200001310021059105497944CDE903101146B1
:100B30006846FFF789FC0FB000BD0000E5FFFFFF2E
:100B40002DE9F0411F46044603260168072A01F4F7
:100B5000006004DB08B116A505E016A503E008B1A6
:100B600015A500E015A521F010002060A069C01EA9
:100B7000A0610FB1401EA0612046AFF300804FB1CD
:100B8000D4E9012138469047206A401C2062C01CED
:100B9000206206E0206AFAE7D4E9012115F8010B8A
:100BA0009047761EF8D22046AFF30080BDE8F08172
:100BB0004E414E006E616E00494E4600696E660001
:100BC0002DE9F047814616468AB0354878440DC86D
:100BD0008DE80D0032487844801C03AC0DC884E8D1
:100BE0000D0041F69B300844372190FBF1F290FB59
:100BF000F1F5A5F1800501FB12041B3C02D564420E
:100C0000012000E00020DFF898A080460027FA4489
:100C1000AAF1BE0A0EE0E0070AD03246684607EBAA
:100C2000470101230AEB810100F043FB8DE8070037
:100C300064107F1C002CEED1194F7F44AE3F19E0A9
:100C4000E80715D007EB04100DF1180A90E80E0024
:100C50008AE80E00C068F04201D198190890324627
:100C6000012306A903A800F024FB03AB83E80700D7
:100C70006D10641C002DE3D14FF00103324669462C
:100C8000B8F1000F03A802D000F0FEFA01E000F076
:100C900010FBC9E90001C9F808200AB0BDE8F087D7
:100CA00004C10000007B00F08000704700487047DE
:100CB0000CC301207546FFF7F9FFAE4605006946F3
:100CC000534620F00700854618B020B5FFF7D0FA4C
:100CD000BDE820404FF000064FF000074FF000083D
:100CE0004FF0000B21F00701AC46ACE8C009ACE8BE
:100CF000C009ACE8C009ACE8C0098D46704710B522
:100D00000446AFF300802046BDE81040FFF795BAD7
:100D10004FF0013C50F8042B51F8043B9A4221D18A
:100D2000A2EB0C03934313EACC1317D150F8042B16
:100D300051F8043B9A4215D1A2EB0C03934313EAFA
:100D4000CC130BD150F8042B51F8043B9A4209D133
:100D5000A2EB0C03934313EACC13DBD04FF000005B
:100D6000704700BFD01A01BAB1FA81F101F0180141
:100D700022FA01F0CB40C1F12001DBB2C0B2C01AAF
:100D80002CFA01F3D11A914311EAC311E6D170474D
:100D90005FEA400C08BF91F0000F4FEA8C234FEA46
:100DA000C12243EA51514FEA1C5018BF00F5F040F0
:100DB0004FEA300018BF41F000415FEA6C5C00F080
:100DC0002980BCF1FF3F08BF40F080407047130C02
:100DD00006BF12044FF0100C4FF0000C130E04BFAE
:100DE00012020CF1080C130F04BF12010CF1040CD9
:100DF000930F04BF92000CF1020CD30F04BF5200FA
:100E00000CF1010C11464FF00002A0F11F00A0EB05
:100E10000C00704711F0004F08BF704731F00041DF
:100E20003FF4D5AF0B0C06BF09044FF0100C4FF088
:100E3000000C0B0E04BF09020CF1080C0B0F04BFD1
:100E400009010CF1040C8B0F04BF89000CF1020C9A
:100E5000CB0F04BF49000CF1010CCCF12003A0EB37
:100E60000C0022FA03F302FA0CF241EA030100F14A
:100E70000100704720F07F4C80EA030023F07F4799
:100E8000ACEB070303F57C5300F0004003F1FF03D4
:100E90002DE980494FEA154B09B44FEA144325EA7E
:100EA0000B4E24EA03480FF2042606EB13274908E9
:100EB0003E785FEA320203FB0667C7F5000707FBCF
:100EC00006F64FEA54374FEAD64606F1020607FB0C
:100ED000066CCCF1005C4FEA1C472CEA074C07FB80
:100EE00006F40CFB06F504EB15464FEA961634BFE4
:100EF00000204FF000404FEAD13706FB07FC4FEAD5
:100F00001C4C0CFB0BF7D21B03FB0CF761EB07012E
:100F10000CFB0EF7B0EB074072EB17420CFB08F727
:100F200034BFA2EB0742B2EB074261EB17414FEA35
:100F30000C444FEA910706FB07FC4FEA1C4C0CFBE4
:100F40000BF7B0EBC74072EB573203FB0CF734BF23
:100F5000A2EBC742B2EBC74261EB57310CFB0EF775
:100F6000B0EBC70072EB57720CFB08F734BFA2EB73
:100F7000C702B2EBC70261EB5771039F4FEA816171
:100F800041EA921104EBCC044FEAD1374FEA826276
:100F900006FB07FC42EA90124FEA80604FEA1C4CC5
:100FA0000CFB0BF7D21B03FB0CF761EB07010CFBEF
:100FB0000EF7B0EB074072EB17420CFB08F734BF9B
:100FC000A2EB0742B2EB074261EB17414FEA8C55A7
:100FD0004FEA910704EB9C2406FB07FC4FEA1C4CEC
:100FE0000CFB0BF7B0EBC74072EB573203FB0CF76F
:100FF00034BFA2EBC742B2EBC74261EB57310CFBE7
:101000000EF7B0EBC70072EB57720CFB08F734BF5A
:10101000A2EBC702B2EBC70261EB577115EB4C258F
:101020004FEA816141EA92114FEA82624FEAD13779
:1010300042EA901206FB07FC44F100044FEA80608C
:101040004FEA1C4C0CFB0BF7D21B03FB0CF761EBBC
:1010500007010CFB0EF7B0EB074072EB17420CFBDD
:1010600008F734BFA2EB0742B2EB074261EB17412E
:1010700015EB1C154FEA813141EA92414FEA823269
:1010800042EA90424FEA80304FEA0C7644F1000485
:1010900048EA03434EEA0B484FF0000EB2EB080C4F
:1010A00071EB030724BF624639464EEB0E0E4FF03C
:1010B000000B0018524149414BEB0B0BB2EB080CF3
:1010C00071EB03077BF1000B24BF624639464EEB00
:1010D0000E0E4FF0000B0018524149414BEB0B0B29
:1010E000B2EB080C71EB03077BF1000B24BF6246E7
:1010F00039464EEB0E0E51EA020718BF46F00106C4
:1011000016EB0E7655F1000254F1000103D5BDE84F
:101110008901BDE80088BDE88901BDE80048B6192D
:10112000524141EB0101A3F10103704780807F7EB2
:101130007D7C7B7A7978777676757473727171704D
:101140006F6E6E6D6C6C6B6A6A69686867666665FF
:101150006464636362616160605F5F5E5E5D5D5C8D
:101160005C5B5B5A5A5959585857575656555555FE
:101170005454535352525251515050504F4F4F4E5E
:101180004E4D4D4D4C4C4C4B4B4B4A4A4A494949AC
:1011900048484847474747464646454545444444EE
:1011A000444343434342424242414141002B9C4617
:1011B00030D477002BD01CB54FEA370703B44FF07B
:1011C00010004FF01001BAF1000F06D0BCF1000F73
:1011D000DCBF40F0080040F008014FF000000FBCF9
:1011E000BDE810400BF1010BBBF1010F08BF5FEA36
:1011F000170722BF12F1010211F101014FF0004166
:1012000043F1000300F0004043EA00007047F9D3C7
:101210005708D0E746EA064613F1400F4FEA164654
:101220001FDD13F1200FDFBF16430A4600212033D4
:101230005B42BED0C3F1200746EA064602FA07F732
:101240004FEA164646EA0706C3F1200722FA03F2E0
:1012500001FA07F721FA03F14FF0000342EA07020F
:10126000A7E746EA020646EA06464FEA164646EA77
:101270000106BCBF46EA0646360C4FF000034FF0AD
:1012800000024FF0000194E72DE9804C9A46934606
:1012900070B491E8380007C831EA400C48BF34EA1E
:1012A000430C03D5FFF7E6FDFFF780FFF0BCBDE878
:1012B000008C2DE9804C9A46934670B491E8380032
:1012C00007C810F0804F08BF13F0804F03D100F023
:1012D00005F8FFF76BFFF0BCBDE8008C20F07F47FE
:1012E00080EA030023F07F4C07EB0C03A3F57C534B
:1012F00000F00040A3F1FE0392F0000F00F0B38075
:1013000095F0000F00F077802DE901494FEA114078
:101310004FEA144621EA004800FB06FC24EA06478F
:1013200008FB06F607FB08F800FB07F718EB064872
:101330004CEB164C4FEA124B18EB07484FEA154698
:101340004CEB174022EA0B4E0BFB06FC25EA064746
:101350000EFB06F607FB0EFE0BFB07F71EEB064E19
:101360004CEB164C4FF000061EEB074E4CEB174BA8
:1013700018EB0B0840F1000018EB0E0B58EB0008BF
:1013800040F100008F1A4FF000013CBFC943661BBB
:1013900014BFB5EB040C00213CBFC943F61B4FEA58
:1013A00017444EEA8E0E27EA04454FEA1C4704FB19
:1013B00007622CEA074C05FB07F70CFB05F604FB5C
:1013C0000CFC16EB074642EB174216EB0C4642EBC1
:1013D0001C421BEB060658EB0202414146EA9E0600
:1013E00001D5BDE80189B619524141EB0101A3F1D4
:1013F0000103BDE801894FEA14454FEA114724EA89
:10140000054621EA074C05FB07F406FB07F70CFB32
:1014100006F105FB0CFC11EB074144EB17444FEAC6
:10142000124711EB0C4144EB1C4422EA074C05FB2C
:1014300007F206FB07F70CFB06F605FB0CFC16EBA8
:10144000074642EB174216EB0C4642EB1C456A1866
:1014500054F1000148BF7047B619524141EB0101F8
:10146000A3F10103704795F0000F37D04FEA114206
:101470004FEA144721EA024624EA074C02FB07F12F
:1014800006FB07F70CFB06F402FB0CFC14EB07440D
:1014900041EB17414FEA154714EB0C4441EB1C415B
:1014A00025EA074C02FB07F506FB07F70CFB06F6DF
:1014B00002FB0CFC16EB074645EB174516EB0C46FA
:1014C00045EB1C42121951F1000148BF7047B61993
:1014D000524141EB0101A3F1010370474FEA14456A
:1014E0004FEA114724EA054621EA074C05FB07F1BC
:1014F00006FB07F70CFB06F24FF0000605FB0CFCA1
:1015000012EB074241EB174112EB0C4251EB1C412D
:1015100048BF7047921841EB0101A3F101037047E6
:1015200072B64EF62250CEF2000040F2FF01C0F239
:1015300000010170002080F3098840F26C00C2F2C3
:101540000000016881F3088802F08AF940F29A00ED
:10155000C2F2000040F29B01C2F200010A78027060
:1015600040F21410C2F2000040F21811C2F2000161
:101570000A680260106880F30988EFF3148040F075
:10158000020020F0040080F31488BFF36F8FBDE8E1
:10159000F04F0FBCBDE8005006BC62B608472648B5
:1015A0004FF080510160704772B640F27002C2F293
:1015B0000002116881F31188BFF34F8FBFF36F8F63
:1015C00062B6EFF309801EF0100F08BF20ED108AFD
:1015D00020E9F04F40F21415C2F2000529680860B6
:1015E000744602F03DF940F29A00C2F2000040F267
:1015F0009B01C2F200010A78027040F21811C2F297
:1016000000010A682A6044F0040E1068B0E8F04F48
:101610001EF0100F08BFB0EC108A80F3098840F26A
:101620000002C0F2000272B682F31188BFF34F8F3E
:10163000BFF36F8F62B6704704ED00E000BFFEE7B6
:1016400010B500F021F800F019F810BD10B5002415
:1016500000BF00BF4020FEF721FE044600BF00BFD0
:101660001021054801F065F900BF00BF2046FEF7D4
:1016700023FE00BF00BF10BD40B6012010B5FFF72C
:10168000E5FF10BD00BFFEE710B50020024908606D
:1016900000F00AF810BD0000680000200149086051
:1016A000704700006800002010B50A48006840F04C
:1016B00080700849086000200749486008460068B3
:1016C00040F00100086000F0A3FB0446FFF7E6FFCE
:1016D00010BD0000FCED00E0001000E00148406893
:1016E00070470000001000E07047000070B504462D
:1016F0001D460023B5F5804F13D154F822300C4815
:101700000340D1E9000640EA06108E6840EA062050
:101710008E8940EA06408E693043034344F8223004
:1017200003E06FF0704044F82200002070BD00001C
:101730000000F0CF10B503460022086853F82020BF
:1017400012480240D1E901042043CC6820430C69CF
:1017500020434C6920438C692043CC6920430C6AA8
:1017600020434C6A20438C6A2043CC6A2043CC6BD4
:1017700020430C6B204302438868082801D142F0C3
:101780004002086843F82020002010BD8000F0FFD0
:1017900030B503460024501C53F8204004F0404468
:1017A000D1E9000540EA05108D6840EA05208D89E1
:1017B00040EA0545088A401E45EA0055087D801E1E
:1017C00045EA00608D6928430443501C43F82040DB
:1017D000002030BD70B50446A56D00F07DF90646C9
:1017E00094F83500022808D08020606500BF0020F2
:1017F00084F8340000BF012070BD2068006820F02C
:101800001600216808602068406920F08000216887
:101810004861206C08B9A06C28B12068006820F0ED
:101820000800216808602068006820F00100216835
:1018300008600FE000F050F9801B05280AD920202D
:10184000606500BF002084F8340000BF032084F8E6
:101850003500D1E72068006800F001000028E9D1D8
:1018600094F85C103F208840A86000BF002084F8F6
:10187000340000BF012084F835000020BCE7014699
:1018800091F83500022803D0802048650120704778
:10189000052081F835000868006820F001000A681A
:1018A00010600020F3E70000F8B502460B46002563
:1018B000002400200021DEE0012606FA01F51E6862
:1018C00006EA0504AC4275D11E7906F00306012E26
:1018D00004D01E7906F00306022E13D190684F0043
:1018E0000326BE40B0434F00DE68BE4030439060E8
:1018F000506801268E40B0431E79C6F300168E4014
:10190000304350601E7906F00306032E09D0D068DC
:101910004F000326BE40B0434F009E68BE40304398
:10192000D0601E7906F00306022E13D1CF0802F113
:10193000200656F827004E07F70E0F26BE40B0438C
:101940004F07FF0E1E69BE403043CF0802F120064C
:1019500046F8270010684F000326BE40B0431E79AA
:1019600006F003064F00BE40304310605E6806F08C
:101970008056B6F1805F7DD100BF00260096404EB4
:10198000366846F480463E4F3E603E46366806F472
:101990008046009600BF00BF3A4E8F0856F82700D9
:1019A0008E07370F0F26BE40B043374EB24202D1EA
:1019B000002624E05EE0354EB24201D101261EE051
:1019C000334EB24201D1022619E0324EB24201D169
:1019D000032614E0304EB24201D104260FE02F4E10
:1019E000B24201D105260AE02D4EB24201D10626AF
:1019F00005E02C4EB24201D1072600E008268F07F1
:101A00003F0FBE4030431F4E8F0846F82700264E3A
:101A10003068A0435E6806F48036B6F5803F00D19A
:101A20002043214E3060361D3068A0435E6806F4C6
:101A30000036B6F5003F00D120431B4E361D306006
:101A4000361D3068A0435E6806F48016B6F5801F28
:101A500000D12043144E08363060361D3068A04354
:101A60005E6806F40016B6F5001F00D120430E4E46
:101A70000C363060491C1029FFF41EAFF8BD000081
:101A8000443802400838014000000240000402408F
:101A900000080240000C0240001002400014024006
:101AA00000180240001C0240003C014010B5426991
:101AB00021EA020302EA010443EA0443836110BD00
:101AC0000AB1816101E00B0483617047014800683D
:101AD000000C7047002004E00148006870470000D7
:101AE0003000002003480068034909780844014990
:101AF00008607047300000203800002010B50A4808
:101B0000006840F40070084908600846006840F426
:101B100080600860032000F07FF80F2000F006F8D6
:101B200000F02AF8002010BD003C024070B50446C9
:101B30000E4800784FF47A71B1FBF0F00C49096857
:101B4000B1FBF0F5284600F09BFC08B1012070BD08
:101B5000102C07D200222146501E00F01EF8054826
:101B6000046001E00120F2E70020F0E738000020E7
:101B7000000000203400002070470146084600287D
:101B800009DB00F01F0301229A4043099B0003F187
:101B9000E023C3F8002100BF70472DE9F05F8046C5
:101BA0000D461646002703F021FE074639462A4611
:101BB000334601F00700C0F1070ABAF1040F02D959
:101BC0004FF0040A01E0C0F1070AD14600F1040A0F
:101BD000BAF1070F02D24FF0000A01E0A0F1030AA8
:101BE000D4464FF0010A0AFA09FAAAF1010A0AEAF0
:101BF000020A0AFA0CFA4FF0010B0BFA0CFBABF1DC
:101C0000010B0BEA030B4AEA0B042146404603F0A2
:101C1000F5FDBDE8F09F000000BF00F00702064B95
:101C200019684FF6FF031940044B0B4343EA0221A6
:101C3000014B196000BF70470CED00E00000FA0591
:101C400070B504460D460CB9012070BD58480068B7
:101C500000F00700A84209D255490D7008460068F7
:101C600000F00700A84201D00120EEE7207800F044
:101C7000020002281DD1207800F00400042805D1BC
:101C80004C48006840F4E0504A490860207800F071
:101C90000800082805D14748006840F460404549DD
:101CA00008604448006820F0F000A16808434149FA
:101CB0000860207800F00100A8B36068012807D10F
:101CC0003C4808380068C0F34040B8B90120BCE780
:101CD0006068022802D06068032807D135480838B8
:101CE0000068C0F3406048B90120AEE731480838C9
:101CF0000068C0F3400008B90120A6E72D4800683D
:101D000020F00300616808432A490860FFF7E4FEF9
:101D1000064609E0FFF7E0FE801B41F28831884269
:101D200002D9032091E707E02248006800F00C0088
:101D30006168B0EB810FEDD11D48006800F007002D
:101D4000A84209D91A490D700846006800F007003A
:101D5000A84201D0012078E7207800F00400042890
:101D600007D11448006820F4E050E16808431149A5
:101D70000860207800F00800082808D10D480068A5
:101D800020F46040216940EAC1000A49086000F07F
:101D90003FF808490968C1F30311074A515CC8407C
:101DA0000649086006480068FFF7C0FE00204CE7BF
:101DB000003C024008380240949A000800000020CD
:101DC0003400002001480068704700000000002037
:101DD00000B5FFF7F7FF04490968C1F38221034A00
:101DE000515CC84000BD000008380240A49A0008B9
:101DF00000B5FFF7E7FF04490968C1F34231034A20
:101E0000515CC84000BD000008380240A49A000898
:101E10002DE9F047002400250026A146254800684A
:101E200000F00C0020B1042805D008283AD105E0C4
:101E3000DFF8849039E0DFF8849036E01D48001F19
:101E4000006800F03F041B48001F006800F4800099
:101E500078B11A481749091F0968C1F38811A0FB16
:101E600001700146224600233846FEF73EFA054639
:101E70000EE011480F49091F0968C1F38811A0FB42
:101E800001700146224600233846FEF72EFA054629
:101E90000848001F0068C0F30140401C4600B5FB25
:101EA000F6F902E0DFF8109000BF00BF4846BDE839
:101EB000F0870000083802400024F40000127A0085
:101EC000F8B504460CB90120F8BD207800F00100F7
:101ED000002874D0F948006800F00C0004280DD0E8
:101EE000F648006800F00C00082813D1F348001FE2
:101EF000006800F48000B0F5800F0BD1EF4808387F
:101F00000068C0F34040002859D06068002856D1CE
:101F10000120D9E700BF6068B0F5803F08D1E748ED
:101F20000838006840F48030E449083908601EE051
:101F30006068B0F5A02F0DD1E0480838006840F483
:101F40008020DE49083908600846006840F4803087
:101F500008600CE0D9480838006820F48030D74980
:101F6000083908600846006820F48020086000BF37
:101F7000606890B1FFF7B0FD054606E0FFF7ACFDE5
:101F8000401B642801D903209EE7CC48083800682C
:101F9000C0F340400028F1D011E0FFF79DFD054659
:101FA00006E0FFF799FD401B642801D903208BE769
:101FB000C24808380068C0F340400028F1D12078BA
:101FC00000F0020002285FD1BC48006800F00C005D
:101FD00058B1BA48006800F00C0008281CD1B74876
:101FE000001F006800F48000B0B9B44808380068E9
:101FF000C0F3400020B1E068012801D0012063E770
:10200000AE480838006820F0F800216940EAC100B5
:10201000AA490839086037E0E06800B30120A84900
:102020000860FFF759FD054606E0FFF755FD401B28
:10203000022801D9032047E7A04808380068C0F308
:1020400040000028F1D09D480838006820F0F800D2
:10205000216940EAC10099490839086014E000206C
:1020600097490860FFF738FD054606E0FFF734FDA5
:10207000401B022801D9032026E790480838006851
:10208000C0F340000028F1D1207800F008000828B3
:102090002CD16069A8B101208A490860FFF71CFDB6
:1020A000054606E0FFF718FD401B022801D9032072
:1020B0000AE782486C300068C0F340000028F1D085
:1020C00014E000207F490860FFF706FD054606E0A2
:1020D000FFF702FD401B022801D90320F4E67748F0
:1020E0006C300068C0F340000028F1D1207800F087
:1020F0000400042870D1002770483830006800F0D0
:10210000805090B900BF002000906C4838300068C3
:1021100040F080506949383108600846006800F096
:102120008050009000BF00BF01276748006800F49E
:102130008070B0B96448006840F4807062490860FB
:10214000FFF7CAFC054606E0FFF7C6FC401B022865
:1021500001D90320B8E65C48006800F480700028CC
:10216000F2D000BFA068012808D154486830006848
:1021700040F001005149683108601DE0A068052861
:102180000DD14E486830006840F004004B4968317A
:1021900008600846006840F0010008600CE047480D
:1021A0006830006820F00100444968310860084642
:1021B000006820F00400086000BFA068A8B1FFF725
:1021C0008BFC054609E0FFF787FC401B41F2883194
:1021D000884202D9032077E626E038486830006854
:1021E000C0F340000028EED013E0FFF775FC054671
:1021F00008E0FFF771FC401B41F28831884201D9A9
:10220000032061E62D4868300068C0F340000028D4
:10221000EFD1012F07D129483830006820F08050D5
:1022200026493831086000BFA069002845D02348FE
:10223000006800F00C0008285DD0A069022845D194
:1022400000201F490866FFF747FC054606E0FFF738
:1022500043FC401B022801D9032035E61748083803
:102260000068C0F340600028F1D1D4E907010843B9
:10227000616A40EA81110122A06AC2EB500041EA82
:1022800000412C20005D41EA00600C49091F0860F4
:1022900001200B490866FFF71FFC054606E0FFF723
:1022A0001BFC401B022801D903200DE60348083817
:1022B0000068C0F340600028F1D049E008380240CF
:1022C00000004742800E4742007000400020214934
:1022D0000866FFF701FC054606E0FFF7FDFB401B23
:1022E000022801D90320EFE51B480068C0F34060D5
:1022F0000028F2D12CE0A069012800D1E4E51648BD
:10230000001D0668A069012820D006F48001E0695C
:1023100081421BD106F03F01206A814216D147F667
:10232000C0703040616AB0EB811F0FD106F44031BC
:102330000122A06AC2EB5000B1EB004F06D106F0BB
:1023400070612C20005DB1EB006F01D00120BBE576
:102350000020B9E5000047420038024070B504464D
:102360000E4615460CB9012070BD94F8490028B9F5
:10237000002084F84800204600F01CF804F1080111
:102380002068FFF7D7F93146A2682068FFF700FA06
:102390002946236BD4E90102FFF7A8F9A168206858
:1023A00050F8210040F00100A268216841F82200A5
:1023B0000020D9E710B586B0044600BF0020009089
:1023C0002248006840F00100204908600846006883
:1023D00000F00100009000BF00BF00BF002000908F
:1023E0001A480838006840F00800184908390860A1
:1023F0000846006800F00800009000BF00BF00BF62
:10240000002000900846006840F010000860084670
:10241000006800F01000009000BF00BF4CF2037095
:1024200001900220029001200390022004900C20D1
:10243000059001A90648FFF737FA4FF68070019022
:1024400001A90448FFF730FA06B010BD3838024041
:10245000000C024000100240042808D14FF0E02197
:10246000096941F004014FF0E022116107E04FF0EB
:10247000E021096921F004014FF0E0221161704769
:1024800070B504462546681EB0F1807F01D3012057
:102490000FE0681E4FF0E02148610F214FF0FF3040
:1024A00003F0ACF900204FF0E021886107200861BB
:1024B000002070BD704770472DE9F84F0446206832
:1024C00005682068C668206847694FF00009CA4659
:1024D00005F00F09B9F1000F0AD105F0200038B15D
:1024E00006F0200020B1204602F091FFBDE8F88FF1
:1024F000B9F1000F72D007F0010018B906F490701E
:1025000000286BD005F0010030B106F4807018B1DE
:10251000206C40F00100206405F0040030B107F0A9
:10252000010018B1206C40F00200206405F00200A8
:1025300030B107F0010018B1206C40F004002064B5
:1025400005F0080048B106F0200010B907F00100BE
:1025500018B1206C40F008002064206C70B305F0C6
:10256000200028B106F0200010B1204602F04FFFF5
:1025700020684069C0F3801A206C00F0080010B990
:10258000BAF1000F23D0204602F016FF2068406900
:1025900000F04000402816D12068406920F040003B
:1025A00021684861A06B50B15648A16B0865A06BCB
:1025B000FFF765F910B1A06B016D88470CE020466C
:1025C000FFF779FF08E02046FFF775FF04E020469B
:1025D000FFF771FF0020206488E7FFE7206B0128E8
:1025E00079D105F01000002875D006F01000002801
:1025F00071D000BF00200090206800680090206823
:102600004068009000BF00BF2068406900F04000B3
:10261000402839D1A06B006840681FFA80F8B8F1F3
:10262000000F30D0A08D40452DDDA4F82E80A06B8A
:10263000C069B0F5807F1FD02068C06820F480702A
:102640002168C8602068406920F001002168486165
:102650002068406920F0400021684861202084F80B
:102660003E00002020632068C06820F01000216830
:10267000C860A06BFFF7AEF8A08DE28D801A81B222
:102680002046FFF717FF31E7A08DE18D401A1FFAB2
:1026900080F8E08DE8B1B8F1000F1AD02068C0686A
:1026A00020F490702168C8602068406920F0010023
:1026B00021684861202084F83E00002020632068C3
:1026C000C06820F010002168C86041462046FFF72E
:1026D000F1FE0BE7FFE705F0800030B106F0800067
:1026E00018B1204603F02BF800E705F0400030B1A8
:1026F00006F0400018B1204602F079FEF6E600BF71
:10270000F4E60000A553000810B504460CB90120FA
:1027100010BDA06900B100E000BF94F83D0028B9E9
:10272000002084F83C00204600F028F8242084F89B
:102730003D002068C06820F400502168C860204631
:1027400002F0C4FE2068006920F49040216808610E
:102750002068406920F02A00216848612068C0682C
:1027600040F400502168C86000202064202084F8D4
:102770003D0084F83E000020CAE7000010B586B096
:1027800004462E492068884255D100BF00BF002072
:1027900000902B48006840F0100029490860084666
:1027A000006800F01000009000BF00BF00BF00BF35
:1027B00000BF0020009022481438006840F001005B
:1027C0001F49143908600846006800F001000090B5
:1027D00000BF00BF00BF00BF00BF00200090084640
:1027E000006840F0010008600846006800F0010041
:1027F000009000BF00BF00BF48150190022002906A
:1028000001200390022004900720059001A90D48A3
:10281000FFF74AF84FF4806001900720059001A966
:102820000848FFF741F82520FFF7A7F903221146D2
:102830002520FFF7B2F906B010BD000000100140DE
:10284000443802400000024070B504460D4616466A
:1028500094F83E00202816D105B10EB9012070BDB4
:1028600000BF94F83C00012801D10220F7E70120C5
:1028700084F83C0000BF00202063324629462046F1
:1028800002F03AFFEBE70220E9E7000010B504464A
:102890002049206888423BD11F48008800F400404E
:1028A00088BB1D48008800F4804070B11B48007848
:1028B0000A2803D000201849088024E01648008820
:1028C00040F40040144908801DE0144800780D28A9
:1028D00006D11148008840F480400F49088012E07A
:1028E0000E4800780C490988C1F30D010C4A505478
:1028F00009480088401C0849088008460088C72805
:1029000001DD00200880012204490648FFF79CFFF2
:1029100010BD0000001001402C0000202E000020FF
:10292000680B0020300C0020704700BFFEE700BF9E
:10293000FEE730B505460C4622460021284600F049
:1029400001F830BD2DE9F04105460B4694460027BD
:10295000002402E03F021F43641C042CFAD36046AB
:1029600005F00306294646B1344603E001F8013B71
:10297000401E641C08B1042CF8D30A4601E080C252
:10298000001F0428FBD2114602E001F8013B401E63
:102990000028FAD1BDE8F0817047704770B5044651
:1029A00000F09EF80020394908703949087039490B
:1029B000087039490860394908603949087039494F
:1029C000087039490870394800680A21B0FBF1F0F5
:1029D000374908603748056845B13748066803E05D
:1029E000761E002028602D1D002EF9D13248016886
:1029F0003048006802F038F801F094FB01F0B6FBB3
:102A000000202E4908602E490880204601F07CF9FC
:102A1000208800B170BD204601F082F9208800B105
:102A2000F8E70020274908602749088027490860FF
:102A3000274908802749086027490880204601F077
:102A40008DFF208800B1E5E7204601F025F92088B8
:102A500000B1DFE7204602F013F8208800B1D9E783
:102A6000204601F047FE208800B1D3E7204602F05F
:102A700099FA208800B1CDE700F0D6FFFFF78DFF6F
:102A800001201649087000BFC4E70000780000204C
:102A900079000020A6000020140100201801002069
:102AA0009A0000209B000020AC00002094CA00087F
:102AB000A800002060CA000864CA00088400002042
:102AC000880000209400002098000020A000002032
:102AD000A4000020B0000020B40000207A000020F4
:102AE0000C4909680C4A126801EB82010B4A11601B
:102AF0001146096821F0070111600949086800F0D2
:102B00004041B1F1404F01D000BFFEE74021054AEE
:102B10001160704760CA000864CA00086C00002099
:102B200034EF00E07000002008480078012800D051
:102B3000704707480078FA2800D3F9E7044800787E
:102B4000401C0349087000BFF2E700007900002034
:102B50007800002070B5002538480078012800D0A2
:102B600070BD00BF4020FDF799FB054600BF34480B
:102B7000007828B900BF2846FDF79EFB00BFEFE7AD
:102B80002F480078401E2E4908700846007828B16A
:102B900000BF2846FDF790FB00BFE1E72948007819
:102BA00028B100BF2846FDF787FB00BFD8E72648BD
:102BB00001682648006801F043FF0446012C02D05A
:102BC000002000F0ABF901F0A3FA21490870084693
:102BD000007800EB40001F4951F820001E490860B2
:102BE000084600681D49096888420FD1002000F09E
:102BF0001BFE0446012C03D01848006800F08EF933
:102C000000BF2846FDF758FB00BFA9E7124800683F
:102C1000D0F89400401C10490968C1F8940010488D
:102C20000068401C0E490860FEF7B9FC00BF28464A
:102C3000FDF742FB00BF00BF92E7000079000020D3
:102C400078000020A600002064CA000860CA0008BE
:102C50009B000020B0BF01201801002014010020BB
:102C6000D40000202DE9F04104460E461546002709
:102C70002148007820B142F6E1602880BDE8F0816B
:102C80001CB945F6C3502880F8E700BF00BF4020BC
:102C9000FDF704FB074600BF00BF184920688842C3
:102CA0000AD100BF00BF3846FDF706FB00BF00BFDA
:102CB00045F6C1502880E1E710482060666000209A
:102CC0002062606284F82800E06204F1080001F0EC
:102CD0006AF9204601F08AF809480088401C084932
:102CE000088000BF00BF3846FDF7E6FA00BF00BF0E
:102CF0000020288000BFC1E7780000204D555458BF
:102D0000980000202DE9F0470646894617461C46E4
:102D1000089D4FF0000A7C48007820B146F2AE10C2
:102D20002880BDE8F08779480078012803D045F66F
:102D300089602880F5E71EB945F6C3502880F0E782
:102D40001FB1B7F5004F02D100E000BF03E045F628
:102D500025602880E5E700BF6D493068884203D0D0
:102D600045F6C4502880DCE700BF00BF4020FDF7D7
:102D700095FA824600BF00BF96F82800B8B96548AA
:102D800000687062012086F828000CB1F06A2060AB
:102D900031466048006801F041F800BF00BF50466E
:102DA000FDF78AFA00BF00BF00202880B9E7594923
:102DB000706A0968884221D196F82800FF280AD154
:102DC00000BF00BF5046FDF777FA00BF00BF45F2D5
:102DD00084702880A5E796F82800401C86F8280013
:102DE0000CB1F06A206000BF00BF5046FDF764FAE6
:102DF00000BF00BF45F28270288092E707F40040D0
:102E000068B100BF00BF5046FDF756FA00BF00BFD3
:102E10000CB10020206046F2B010288081E73E48C7
:102E2000007868B100BF00BF5046FDF745FA00BF0B
:102E300000BF0CB10020206046F66350288070E788
:102E4000D6F8248098F83B003249096891F83B1085
:102E5000884206DD2F48006890F83B10404601F09C
:102E6000CFFC4B4604222B480168304601F02CF879
:102E700000BF00BF5046FDF71FFA00BF00BF00F0C3
:102E800055F800BF00BF4020FDF708FA824600BF9A
:102E900000BF2048006890F8390030B101280CD0FC
:102EA00002281AD0032821D110E01CB1194800686B
:102EB000C06C2060002028801CE01CB11548006810
:102EC000C06C206046F2A910288013E00CB10020ED
:102ED000206047F2D92028800CE01CB10D48006822
:102EE000C06C206045F6C250288003E046F62E6094
:102EF000288000BF00BF00BF00BF5046FDF7DCF9CF
:102F000000BF00BF00BF0CE7780000207900002060
:102F10004D55545814010020A600002010B5044659
:102F200000BFFEF7AFFB00BF10BD000010B50024CE
:102F300022480078012800D010BD2148007800B157
:102F4000FAE72048007800B1F6E700BF4020FDF71F
:102F5000A5F9044600BF01F0DBF81B4908700846DC
:102F6000007800EB4000194951F82000184908602A
:102F70000846006817490968884205D100BF204605
:102F8000FDF79AF900BFD7E711480068D0F8940020
:102F9000401C0F490968C1F894000F480068401CA4
:102FA0000D490860FEF7FBFA00BF2046FDF784F9E3
:102FB00000BFBFF36F8F00BFBEE7000079000020A5
:102FC00078000020A60000209B000020B0BF012058
:102FD0001801002014010020D400002070B5044620
:102FE00000251748007818B146F66250208070BD61
:102FF00014480078012803D045F689602080F6E760
:1030000011480078FA2803D345F209202080EEE722
:1030100000BF00BF4020FDF741F9054600BF00BFDB
:1030200009480078401C0849087000BF00BF2846C6
:10303000FDF742F900BF00BF0020208000BFD6E7A7
:103040007800002079000020A60000202DE9F04142
:1030500005460C461646002700BF00BF4020FDF77E
:103060001DF9074600BF00BF1DB900200D490870BB
:1030700002E001200B49087014B10B48046006E01F
:103080000A4800680A21B0FBF1F00749086000BF58
:1030900000BF3846FDF710F900BF00BF00203080A8
:1030A000BDE8F081AC000020A800002094CA000810
:1030B00070B5044600251F48007818B146F66550E3
:1030C000208070BD1C480078012803D045F6896037
:1030D0002080F6E71948007818B946F66450208039
:1030E000EFE700BF00BF4020FDF7D8F8054600BF5E
:1030F00000BF12480078401E10490870084600784A
:1031000050B100BF00BF2846FDF7D6F800BF00BF92
:1031100046F663502080D4E700BF00BF2846FDF785
:10312000CBF800BF00BFFFF701FF0020208000BFE9
:10313000C7E700007800002079000020A6000020EA
:1031400070B504461C480078012803D045F68B6012
:10315000208070BD00256D1C6D1C6D1C17480088FB
:10316000A84203DC45F68C602080F2E71448007822
:10317000E8B900F0CDFF13490870084600781249FD
:1031800008701048007800EB4000104951F820000A
:103190000F490860084600680E4908600120084988
:1031A0000870FEF7BDF943F69920208002E045F64D
:1031B0008A60208000BFCCE77A000020DC0000207D
:1031C000790000209B0000209A000020B0BF012061
:1031D00018010020140100202DE9F04107464FF0AE
:1031E000000800BF00BF4020FDF758F8804600BF30
:1031F00000BF00203B4908803B4908603B4908600C
:103200003B4908603B4908603B4908603B490881ED
:1032100000BF00BF4046FDF74FF800BF00BF00BF32
:1032200000BF4020FDF73AF8804600BF00BF344899
:10323000046800BF00BF4046FDF73EF800BF00BF76
:1032400021E000BF00BF4020FDF728F8804600BF06
:1032500000BF002044F8800FE0626061208260823D
:1032600020626062FEF73AFAE061803C04F16C068D
:103270000020B081D4F8BC4000BF00BF4046FDF73D
:103280001BF800BF00BF002CDBD100BF00BF4020F7
:10329000FDF704F8804600BF00BF1A48056800BF6C
:1032A00000BF4046FDF708F800BF00BF13E000BFB5
:1032B00000BF4020FCF7F2FF804600BF00BF05F1D1
:1032C00020060020B081AD6900BF00BF4046FCF77A
:1032D000F3FF00BF00BF002DE9D100203880BDE81A
:1032E000F0810000BA000020D0000020EC00002097
:1032F000F00000200401002008010020A4BF0120EC
:10330000D8000020A0000020704700002DE9FF4FEA
:1033100085B004469346DDE91995DDE91286159FCF
:10332000002002906248007828B147F24A102880B5
:1033300009B0BDE8F08F1CB947F2AD102880F7E75F
:10334000BBF1000F03D147F24F102880F0E71EB900
:1033500046F62F602880EBE756480068874203D284
:1033600046F630602880E3E71498B84203D346F667
:1033700031602880DCE7B8F11E0F06D9B8F11F0FC5
:1033800003D046F273202880D2E7B8F11F0F06D190
:103390004948844203D046F273202880C8E720467B
:1033A00001F0ECFA0020288009F0010010B909F0C2
:1033B000020088B109F0020070B1B246002004900A
:1033C00007E00020CAF800000AF1040A0498401C33
:1033D00004900498B842F4D3149806EB800003904C
:1033E000CDE9007932465846039B089900F0B4F9BC
:1033F0008246B24503D246F63260288098E73946C5
:10340000304601F031FBC4F824B00898A062069859
:10341000E06084F83B8084F83C80C4F800A0039806
:10342000A0601798E065179818B9244800682066CE
:1034300001E0179820661898606026626764A4F817
:10344000489004F16C00169900F0C8FC204600F08A
:103450003BF800BF00BF4020FCF720FF029000BFF8
:1034600000BF94F83B0000F069FE204600F0C6FE65
:10347000204601F039FA12480088401C10490880A3
:1034800010480078012807D000BF00BF0298FCF761
:1034900013FF00BF00BF4BE700BF00BF0298FCF75F
:1034A0000BFF00BF00BFFFF741FD00BF40E700007A
:1034B0007800002090CA0008E0BE0120A80000208B
:1034C000DC00002079000020704700002DE9F04169
:1034D00004460E464FF000086148007820B147F2DC
:1034E0004E103080BDE8F0815E480078012803D09E
:1034F00045F689603080F5E75B48844203D147F2A6
:103500004C103080EEE784B900BF00BF4020FCF7CC
:10351000C5FE804600BF00BF5448046800BF00BF1E
:103520004046FCF7C9FE00BF00BF00BF00BF4020FF
:10353000FCF7B4FE804600BF00BF94F83A000828AC
:103540005ED2DFE800F004090E10080A0F112046D1
:1035500000F092FE5FE05EE000BF204601F03AFB23
:1035600059E000BF00BF00BF94F83800082839D2E6
:10357000DFE800F0040705380D08090600BF00BFAA
:1035800031E000BF00BF204600F045FD2BE0606B3E
:10359000456A15F83B7F204600F03DFD28786978A4
:1035A0003B3D884212D095F83B0094F83B1088428E
:1035B0000CD1284600F065FC074695F83C00B8425F
:1035C00002DA95F83C0000E038460746002084F80F
:1035D000380095F83B00B84203D03946284601F040
:1035E0000FF900E000BF00BF94F83A00032803D0B1
:1035F00094F83A00072802D1204601F0EBFA0AE0DD
:1036000000BF00BF4046FCF757FE00BF00BF46F6B4
:103610002D60308066E700BF206C10B1204600F0BE
:1036200001FC04F16C0000F0B9FB204600F022F828
:10363000204601F071F90E480088401E0C490880B0
:10364000FF2084F83A000020308000BF00BF4046D1
:10365000FCF732FE00BF00BFFFF768FC00BF41E788
:103660007800002079000020E0BE01201401002035
:10367000DC000020704770472DE9F05F05460E46DC
:1036800017461C464FF0000B3148007820B147F236
:1036900059102080BDE8F09F1EB946F2D520208049
:1036A000F8E71FB946F2D5202080F3E700BF00BF3E
:1036B0004020FCF7F3FD834600BF00BF0DB925484D
:1036C0000568286868B900BF00BF5846FCF7F4FDDC
:1036D00000BF00BF00203060386047F252102080E9
:1036E000D8E795F8480000F0010068B900BF00BFB6
:1036F0005846FCF7E1FD00BF00BF00203060386095
:1037000047F254102080C5E7D5F820A00AF1200A1E
:10371000D5F8449000BF00BF5846FCF7CDFD00BF70
:1037200000BF4FF0000803E00AF1040A08F10108A5
:10373000C84503D2DAF800000028F5D0C6F80080AA
:10374000A9EB080038600020208000BFA2E700003D
:103750007800002014010020F0B50446DDE905568C
:1037600002EB850020F007004FF0807C071F3846F1
:10377000C7F800C0071F38463C60DFF8A8C0071F25
:103780003846C7F800C04FF0123C071F3846C7F84C
:1037900000C04FF0033C071F3846C7F800C04FF089
:1037A000023C071F3846C7F800C0071F38463B6079
:1037B000071F384639606FF0020C071F3846C7F8FC
:1037C00000C04FF0113C071F3846C7F800C04FF04B
:1037D000103C071F3846C7F800C04FF0093C071FD0
:1037E0003846C7F800C04FF0083C071F3846C7F8F6
:1037F00000C04FF0073C071F3846C7F800C04FF025
:10380000063C071F3846C7F800C04FF0053C071FAD
:103810003846C7F800C04FF0043C071F3846C7F8C9
:1038200000C0F0BD294A000830B504460CB90B4869
:103830000468216A2068884206D3616C206A00EB24
:1038400081002168884201D8002030BD616C206A67
:1038500001F0F6F805462846F7E7000014010020BD
:1038600070B5FDF73BFF0546154800681549096826
:10387000884215D012480068D0F89C00281A1049D8
:103880000968C1F898000E480068D0F8A0000C49FB
:103890000968D1F89810084409490968C1F8A000DE
:1038A00008480068C0F89C500020FFF7BDFF0446A0
:1038B000012C03D002480068FFF730FB70BD000008
:1038C00014010020180100202DE9F04106460D46A4
:1038D000144600272748007820B147F27520208041
:1038E000BDE8F08124480078012803D045F68960BE
:1038F0002080F5E72148007818B146F66350208013
:10390000EEE735B1022D05D0042D05D0082D04D1E8
:1039100001E000BF00BF00BF03E045F62560208046
:10392000DEE700BF00BF00BF4020FCF7B7FC074642
:1039300000BF00BF23462A4631461148006801F007
:1039400003F9208838B100BF00BF3846FCF7B4FC4B
:1039500000BF00BFC4E70A48006800F08DFC00BF4C
:1039600000BF3846FCF7A8FC00BF00BFFFF7DEFA37
:1039700000BFB5E77800002079000020A6000020F5
:103980001401002010B50A480078012800D010BDAD
:1039900000F014F80749097801EB4101064A02EBEF
:1039A000810000F097FC012001F0DEF900BFEEE796
:1039B000790000209A000020B0BF0120704710B5A8
:1039C000002400BF00BF4020FCF768FC044600BF95
:1039D00000BFFFF7A9F800BF00BF2046FCF76CFC52
:1039E00000BF00BFFFF7CEFFFFF7B4F810BD000027
:1039F00010B5014640224B1E4FF0E0246361094B95
:103A0000186820F07F4040EA0260186023461B6976
:103A100043F00503236123461B6943F0020323613E
:103A200010BD000020ED00E00EB547480290474869
:103A30000090474802904748029047480090474806
:103A400002904748019047480290474802904748F3
:103A500002904748029047480190474801904748E4
:103A600001904748029047480190474802904748D4
:103A700001904748019047480190474801904748C6
:103A800002904748029047480290474801904748B3
:103A900002904748029047480190474801904748A4
:103AA0000190474801904748019047480190474896
:103AB0000290474802904748029047480290474882
:103AC0000190474801904748019047480290474875
:103AD0000290474802904748019047480190474864
:103AE0000190474800904748019047480290474856
:103AF0000290474802904748029047480290474842
:103B00000290474802904748019047480290474832
:103B10000290474801904748019047480290474823
:103B20000290474801904748019047480290474813
:103B300002904748019047480190029802900198EE
:103B40000190009800900EBDB4CA000818CC00087F
:103B5000B5CA0008B6CA0008B8CA0008BCCA00083E
:103B6000C0CA0008BDCA0008E8CA0008E9CA0008BF
:103B7000EACA0008ECCA0008EECA0008F0CA000849
:103B800010CB000812CB000814CB000816CB00089D
:103B900018CB00081ACB00081CCB00084CCB00083F
:103BA0004DCB00084ECB000850CB000852CB00088C
:103BB00053CB000854CB000856CB000858CB000864
:103BC0005ACB00085CCB000860CB000890CB000803
:103BD00091CB000892CB000893CB000894CB00084F
:103BE00096CB000898CB0008C0CB0008C1CB0008DA
:103BF000C2CB0008C3CB0008C4CB0008C6CB00086A
:103C0000C8CB0008CCCB0008CDCB0008CECB000839
:103C1000CFCB0008D0CB0008D1CB0008D2CB000816
:103C2000D3CB0008D4CB0008D6CB0008D7CB0008F4
:103C3000D8CB0008DACB0008DCCB0008DDCB0008CD
:103C4000DECB0008E0CB000810CC000811CC000847
:103C500012CC000814CC0008002400BF00BF00BF35
:103C60004020FCF71BFB044600BF00BF084800686B
:103C7000401C0749086007480068401C0549086067
:103C800000BF00BF2046FCF717FB00BFE6E70000BF
:103C900074000020BC00002010B58AB0044600204B
:103CA0000E4908600B2000210591CDE9070406911B
:103CB00008460B4909680B4A12680B4B1B68CDE993
:103CC0000132CDE903101F200023084A08A100900B
:103CD0000C48FFF71BFB0AB010BD00007400002069
:103CE00058CA000854CA000850CA0008593C0008C5
:103CF00075432F4F532D4949492049646C65205421
:103D000061736B00E0BE01200021034A1160034A89
:103D100011800180704700008C000020900000207E
:103D200070B501461A4D2D681DB945F21E750D80FE
:103D300070BD184D2D881DB945F21D750D80F7E732
:103D4000134D28682A681032124D2D886D1EACB2B2
:103D5000002308E00260002545600581C560103041
:103D600010325D1CABB2A342F4DB00250560456058
:103D70000581C560064D2D68074E3560054D2D88BF
:103D8000B5800025F58035810D8000BFD0E70000AB
:103D900074CA00086CCA0008A4BF012010B501460F
:103DA00048894B89BBB10A680B4B1B6813600A4CEE
:103DB0004B6823602346DB884C891B1B064CE38041
:103DC00023469B884C892344034CA38000234B81CA
:103DD0008B810B604B6010BDA4BF012001810022CC
:103DE00042818281026042607047000009A1C16186
:103DF000002141610849096811B90021816105E08C
:103E000005490968816104490968486102490860F7
:103E1000704700002000000094000020026C0A623D
:103E2000016470472DE9F84305462C6C25E0D4F871
:103E30002090FDF753FC8046C4F82C80214628468C
:103E400000F034F804F10806306820B9002084F846
:103E50002800606210E037686562012084F828005D
:103E600021463846FFF7DAFF00231A463946204636
:103E7000CDF8008000F0F6F84C46002CD7D1BDE814
:103E8000F88330B504461F2004F140010AE00D68B4
:103E9000AB6823B193F83B20824200DA10460D68EC
:103EA00005F120010D68002DF1D130BD024602F16F
:103EB000400002E0036803F1200003688B42F9D15F
:103EC00003681B6A036070472DE9F04105460C4604
:103ED00016461F4684F83860002084F839003946B9
:103EE000204600F075FC3DB105F1080865632146E8
:103EF000404600F05DF801E000206063214628465E
:103F000000F002F8BDE8F08110B540B14468C1F896
:103F1000C04000F108031A68D468C46113E091F846
:103F20003840022C02D0072C08D103E006A4C1F8C7
:103F3000C04007E006A4C1F8C04003E007A4C1F8F0
:103F4000C04000BF00BF10BD5461736B2051000022
:103F50005461736B2053656D000000002000000069
:103F600010B50A4606A4C2F8C04040B100F10803EB
:103F7000196811B1CC68C46101E001A4C46110BD2D
:103F80002000000070B50446666B06F1080528683D
:103F9000C06A38B1204600F03EF8666321462846E4
:103FA00000F006F870BD002101604160018170479A
:103FB00010B591F83B3004683CB901240481002419
:103FC000CC620C630160416024E00489641C0481BC
:103FD000026805E092F83B409C4200DD02E0D26AB4
:103FE000002AF7D100BF3AB90024CC6244680C63C0
:103FF0000C6BE16241600DE0146B2CB9CA620024C5
:104000000C631163016005E0CA62146B0C630C6BF6
:10401000E162116310BD10B5446B14B3446B04F13D
:1040200008010C68E46A1CB900240C604C6011E0C3
:10403000046B24B9C26A002414630A600AE0C46AEB
:1040400024B9036B0024DC624B6003E0036BC26A9B
:10405000DA6213630C89641E0C810024C462046359
:10406000446310BD2DE9F04105460C4616461F4637
:10407000DDF8188094F83A00082845D2DFE800F00F
:10408000040508090607272800BF00BF00BF3CE061
:1040900000BF6666A4F86870C4F84C8015B120466D
:1040A000FFF7B9FF21462846FFF75AFF94F83A0078
:1040B000032802D1204600F08DFD204600F068F86C
:1040C00000203834A070607004F838091DE000BF8B
:1040D0006666A4F86870C4F84C8015B12046FFF7F6
:1040E0009AFF21462846FFF73BFF94F83A0007283D
:1040F00002D1204600F06EFD04203834A07000206C
:10410000607004F8380900E000BF00BFBDE8F0812E
:1041100010B503490868FCF7DCF8C0B210BD000018
:104120009C000020002004E00021034A42F82010F7
:10413000401C0028F8D070479C0000200449096802
:10414000C0F11F0301229A401143014A11607047D8
:104150009C00002004490968C0F11F0301229A4015
:104160009143014A116070479C000020002109E042
:1041700001EB4102054B03EB820000220281026049
:104180004260491C2029F3D370470000B0BF0120D2
:1041900010B5044694F83B00FFF7D0FF94F83B00BD
:1041A00005490978884203D1204600F027F802E04B
:1041B000204600F003F810BD9A00002010B590F8DA
:1041C0003B3003EB43030C4C04EB83010B683BB91E
:1041D00001230B810023036143610860486009E00B
:1041E0000B895B1C0B810B680361002343610A6828
:1041F0005061086010BD0000B0BF012010B590F8FC
:104200003B3003EB43030B4C04EB83010B683BB9DE
:1042100001230B810023036143610860486008E0CB
:104220000B895B1C0B81002303614A6842611061AA
:10423000486010BDB0BF012030B5D0E90045AC42A8
:1042400018D0046824694568AC4209D10168426805
:104250004A6100240C61546111610260416009E00F
:10426000016842680B6900245C610C614A6111615C
:104270000360416030BD00002DE9F041054695F82E
:104280003B0000EB4000124901EB80046F692E698E
:1042900087B946B9002020812060606095F83B0016
:1042A000FFF758FF0EE02089401E2081002070613A
:1042B000266007E02089401E20813E610EB96760BC
:1042C00000E07761002068612861BDE8F0810000AE
:1042D000B0BF012070B5054600262E4800780128A1
:1042E00000D070BD00BF00BF4020FBF7D7FF0646DF
:1042F00000BF00BF2C683CB900BF00BF3046FBF7D1
:10430000DBFF00BF00BFECE72348844207D100BFBA
:1043100000BF3046FBF7D0FF00BF00BFE1E7206ED3
:1043200010B1206E401E2066206E38B100BF00BF65
:104330003046FBF7C1FF00BF00BFD2E7D5E900015F
:10434000884207D100BF00BF3046FBF7B5FF00BF72
:1043500000BFC6E71148007838B100BF00BF304643
:10436000FBF7AAFF00BF00BFBBE72846FFF764FFCB
:104370002C68E06D18B90A480068206601E0E06D1D
:10438000206600BF00BF3046FBF796FF00BF00BFAE
:1043900000BFA6E7AC000020E0BE0120A600002080
:1043A000A800002088B00020009006E0BD49096800
:1043B000480002AA0021FFF787FABB4800780128CD
:1043C000F4D102A8FEF708FF4FF00008B7480068D4
:1043D000B4490968884205D9B4480068B1490968F8
:1043E000B0FBF1F8B8F1000F04D1B04800680A2121
:1043F000B0FBF1F800BFFDF771F9814600BF00BFC7
:104400004020FBF74BFF009000BF00BFA8480068AA
:10441000A84908600020A649086000BF00BF0098B6
:10442000FBF74AFF00BF00BFA3480068A149096825
:10443000884248D9A0480068A049884205D242F283
:10444000107004900120039023E09B4800689C4971
:10445000884205D24FF47A7004900A20039018E045
:10446000954800689749884203D2642004900390DD
:104470000FE0914800689449884205D20A200490D0
:104480004FF47A70039004E00120049042F210701F
:104490000390894801680398B1FBF0FB85490498B3
:1044A00009684843B0FBFBF042F21071081A8749D3
:1044B0000880874800880988884207DA834800888E
:1044C0008349088002E0002080490880FEF71CFF35
:1044D000002500BF00BF4020FBF7E0FE009000BFBA
:1044E00000BF7C48046800BF00BF0098FBF7E4FEF3
:1044F00000BF00BF28E000BF00BF4020FBF7CEFE9A
:10450000009000BF00BF54F8A00F6060002044F886
:10451000A00900BF00BF0098FBF7CEFE00BF00BFA0
:10452000D4F8A400054400BF00BF4020FBF7B6FE4E
:10453000009000BF00BFD4F8BC4000BF00BF00988F
:10454000FBF7BAFE00BF00BF002CD4D15DB35B48BF
:10455000854205D242F210700690012007901DE0BE
:104560005748854205D24FF47A7006900A2007908A
:1045700014E05448854203D26420069007900DE071
:104580005148854205D20A2006904FF47A70079070
:1045900004E00120069042F2107007900798B5FBE6
:1045A000F0F0059003E0002006900120059000BF88
:1045B00000BF4020FBF772FE009000BF00BF4548DF
:1045C000046800BF00BF0098FBF776FE00BF00BF85
:1045D0002CE0D4F8A400069948430599B0FBF1F00B
:1045E00086B242F21070864200D90646A4F8906066
:1045F000B4F89200B04201DAA4F8926002AB04F180
:10460000B002111D2046FFF737F800BF00BF402061
:10461000FBF744FE009000BF00BFD4F8BC4000BFD1
:1046200000BF0098FBF748FE00BF00BF002CD0D1B0
:1046300000272948D0F800A00AF1200A274800687E
:104640000838019002E00AF1040A7F1CDAF8000041
:1046500010B901988742F6D3214807601F480068C7
:10466000C01B2049086020480078012805D100209F
:104670001D49087002A8FEF7AFFDFDF72FF8A0EB6B
:1046800009001A4908601A4800680968884203D27C
:10469000164800681649086002AA00214046FFF744
:1046A00013F9A8E67CCA0008C800002094CA0008D4
:1046B000BC000020C4000020C0000020801A0600BA
:1046C00000093D00005A62020084D717B80000209C
:1046D000BA000020D800002060CA000864CA0008A0
:1046E0007C00002080000020B6000020CC000020CC
:1046F000D000002010B58AB004460020214908608F
:104700002149086021490860214908702149087041
:1047100021490860214908602148006820B946F60F
:104720002B6020800AB010BD1E4800681E49096831
:10473000884203D246F62C602080F3E71B480078BD
:104740001F2803D346F62A602080EBE703200021D0
:104750000591CDE907040691084612490A681449F3
:1047600009680F4B1B68CDE90131CDE903200F48E3
:10477000007800230F4A10A100901448FEF7C6FDF0
:1047800000BFCFE7BC000020C4000020C000002014
:10479000C8000020B60000207C000020800000201F
:1047A00080CA000888CA000890CA000878CA0008B1
:1047B00084CA0008A543000875432F4F532D49496B
:1047C000492053746174205461736B0030C101201F
:1047D00070B504460D4655B12B46084800210268C5
:1047E000204600F05BF9032084F83A0002E0022042
:1047F00084F83A002046FFF73FFD70BDE00000203E
:104800002DE9F04104460D4600BF002694F83B70A8
:1048100094F83A0008285DD2DFE800F004191E1F62
:104820001A1B20212046FFF727FD84F83B5094F8FF
:104830003B00FFF783FC2B480068844203D12046ED
:10484000FFF7BCFC02E02046FFF7D8FC44E000BFC5
:1048500000BF84F83B503FE000BF00BF00BF84F8BA
:104860003B5094F8380008282FD2DFE800F02E04DF
:104870002F2E0A05063000BF00BF2046FFF782FB3F
:1048800026E02046FFF77EFB606B466AAF4205DDFF
:1048900096F83B00A84217DC002615E096F83B008E
:1048A000B84211D13046FFF7ECFA054696F83C00C5
:1048B000A84202DA96F83C0000E02846054696F841
:1048C0003B00A84200D1002602E000BF00BF00BFAD
:1048D00000BF01E0BDE8F08100BF3446002C94D158
:1048E00000BFF7E7140100200021C0F8B810094903
:1048F000096819B90021C0F8BC1007E0054909682A
:10490000C0F8BC1003490968C1F8B8000149086043
:1049100070470000D8000020D0F8B820D0F8BC10B4
:104920004AB90D4B196011B10023C1F8B83000230A
:10493000C0F8BC300FE029B90023C2F8BC30C0F881
:10494000B83008E0C2F8BC10C1F8B8200023C0F8A5
:10495000BC30C0F8B8307047D80000200021044AAD
:104960001160044A1180044A116001807047000000
:10497000D8000020DC000020D400002010B5044640
:1049800000202060A060606020616061A061E06143
:1049900022A0E060002020626062A062E0646066A5
:1049A000A4F86800002104F16C00FFF717FA00205A
:1049B0002C3420656065A065A4F86000E065606245
:1049C000E067C4F88000A06184F86200C4F8880041
:1049D000C4F88400A083A062E06220636063A4F84E
:1049E0006400A4F86600A066E066FCF777FE206726
:1049F0000020606720606060A06020736073A07317
:104A00002020E073207400206061C4F88C00C4F89A
:104A1000900004A0C4F894002C3C10BD3F54617376
:104A20006B0000002000000008B504480068FEF795
:104A300022FE69460020FEF749FD08BD1401002052
:104A400010B502460B46002107E0064C1068A04254
:104A500001D0002010BD121D491C0829F5D30120EA
:104A6000F8E700004523CDAB0246002003E0034BEE
:104A700042F82030401C0828F9D370474523CDABBD
:104A800000210180034A1160034A11609180D180A6
:104A900070470000E0000020E40000202DE9F04312
:104AA00004460F469446984608EB0C00DFF89090B9
:104AB000D9F80090B944A0EB09021AB9002060654A
:104AC000BDE8F0831F4B186838B962650020A0610B
:104AD000E0611C6001209880F2E79888401C988073
:104AE0001968486DC61BB2420BD2C86948B96265E5
:104AF000B01A48650020E061A161CC611C60012012
:104B0000DEE7921B0D46A96903E0486D121A0D46B7
:104B1000896911B1486D9042F7D949B1CD69626593
:104B2000E561A161486D801A4865CC61AC6104E023
:104B30006265E5610020A061AC610120C0E7000072
:104B4000E0000020E40000202DE9F04F06460C466E
:104B500091461F464FF0000BB9F1040F01D100251B
:104B600020E0B9F1080F1BD124B947F27E2038802C
:104B7000BDE8F08FB56D16480068A0EB0508A045AC
:104B80000AD3B8FBF4F004FB0055B8FBF4F004FBC7
:104B9000108000B12544B565B06D2044B06501E0DA
:104BA0000B48056823462A4659463046FFF776FFEC
:104BB0008246BAF1010F05D1012086F83A000020A3
:104BC000388002E047F27E20388000BFD0E7000046
:104BD000E000002030B5C3698169134A9BB921B94F
:104BE00000241460948044651CE00024CC614C6D6A
:104BF000456D2C444C6511609488641E948000249B
:104C0000846144650EE0996121B1CB614C6D456DC5
:104C10002C444C650024C4619488641E9480002454
:104C20008461446530BD0000E40000202DE9F047B8
:104C300006464FF000094B4F3C68002C77D0606D62
:104C4000B04204D8606D361A0020606502E0606DE5
:104C5000801B60657CE009F101001FFA80F994F87F
:104C60003A00012802D005280BD106E0002084F884
:104C70003A002046FFF78CFA51E0042084F83A000D
:104C80004DE0002594F83800042801D1606B456A96
:104C900000206066A4F86800FCF720FDE064204670
:104CA000FFF7B9F994F83A00032802D007280BD18E
:104CB00006E02046FFF76CFA002084F83A0004E092
:104CC000042084F83A0000E000BF00BF032084F80D
:104CD0003900002084F8380005B395F83B0095F8BA
:104CE0003C1088421AD095F83B0094F83B1088425B
:104CF00014D12846FFF7C5F8804695F83C0040459A
:104D000002DA95F83C0000E04046804695F83B000A
:104D1000404503D041462846FFF772FD00BF00BF63
:104D2000A06938603C681CB90020B88014E014E029
:104D3000B888401EB8800020E061606DB04204D8A1
:104D4000606D361A0020606502E0606D801B606552
:104D5000606D00283FF47FAF00BFA7F80690BDE864
:104D6000F0870000E400002070B50446002600BF74
:104D700000BF4020FBF792FA064600BF00BF104874
:104D8000006820440E490860FCF7A8FC0546204650
:104D9000FFF74CFFFCF7A2FC401B0A4908600A48D9
:104DA00000680968884203D206480068064908601E
:104DB00000BF00BF3046FBF77FFA00BF00BF70BDE9
:104DC000E0000020EC000020F000002010B50024DE
:104DD00000BF00BF4020FBF761FA044600BF00BFE0
:104DE0000848094908600948086201F10800FFF70E
:104DF000DAF800BF00BF2046FBF75EFA00BF00BF35
:104E000010BD0000434F4E44F4C1012018C20120E0
:104E1000F8B5002600BF00BF4020FBF73FFA06466A
:104E200000BF00BFFCF75AFC04460F48C4620F4D98
:104E3000286838B900BF00BF3046FBF73DFA00BF15
:104E400000BFF8BD00231A460949084808380094F5
:104E5000FFF708F900BF00BF3046FBF72DFA00BF8F
:104E600000BF00BFEDE7000018C20120FCC1012017
:104E700048C201202DE9F84307464FF0000800BF63
:104E800000BF4020FBF70AFA804600BF00BFFCF7D6
:104E900025FC06463F48C66201463F48FFF706F834
:104EA0003C4D08353C4890F83B003B4991F83C109C
:104EB00088420AD0384890F83C00374981F83B00D6
:104EC000084690F83C0035490870286828B9002049
:104ED0003049486281F8280010E02C682D4844626F
:104EE00001202C4981F828002046FEF797FF002377
:104EF0001A46214627480096FFF7B4F83B4603229E
:104F000025492748FEF7E0FF00BF00BF4046FBF7FA
:104F1000D3F900BF00BFFEF709F800BF00BF402073
:104F2000FBF7BCF9804600BF00BF1A48406A80B951
:104F300018491948FEF772FF1748164948620120C0
:104F400081F8280000BF00BF4046FBF7B5F900BF5D
:104F50001DE01048446A94F83B000F4991F83B105B
:104F6000884205DD0C4890F83B102046FFF748FCCE
:104F70000023042208490748FEF7A6FF00BF00BF30
:104F80004046FBF799F900BF00BFFDF7CFFFBDE832
:104F9000F883000018C2012048C201209A000020B6
:104FA000F4C1012010B58AB0044600202A490880C7
:104FB0002A4908602A4908602A4908802A48006866
:104FC0002A490968B0FBF1F0294908600020294905
:104FD000086029490860224628A12C48FDF742FEB6
:104FE000208808B10AB010BDFFF7F0FE284800681D
:104FF00018B947F247302080F4E726480068264970
:105000000968884203D247F248302080EAE7234803
:1050100000781F2803D347F246302080E2E70B20B8
:10502000002105910A46CDE9070406911948006858
:105030001B490968164B1B68CDE90131CDE9030214
:10504000164800780023174A17A100901C48FEF765
:105050005DF900BFC6E7000000010020F400002059
:10506000FC000020F800002094CA00089CCA000838
:105070001001002004010020080100204F5320549B
:105080006D72204D757465780000000018C2012013
:10509000A0CA0008A8CA000890CA000898CA000858
:1050A000A4CA00089551000875432F4F532D494954
:1050B000492054696D6572205461736B00000000D3
:1050C00048C201202DE9F047054688462848006877
:1050D00070B90020286168612548056001202549D4
:1050E00008802548C0F80080FFF792FEBDE8F087F1
:1050F00020480088401C1F490880A86940441E4978
:105100000968461A1A480468D4F818904E4510D217
:10511000606970B9A9EB0600A061002068612C618C
:105120006561134805601448C0F80080FFF770FE01
:10513000DCE7A6EB090627463C6903E0A069361ABE
:105140002746246914B1A069B042F7D94CB1676908
:10515000AE616F612C61A069801BA06165613D61DA
:1051600004E0AE616F61002028613D6100BFBDE7D2
:10517000FC000020F80000200C0100201CB501A854
:1051800000231A46194600900148FDF7BBFD1CBDDF
:1051900018C201204FF0000AFFF7F0FF00BF3D48A2
:1051A000006810B94FF0000903E03A480068D0F8F1
:1051B00018904846FFF75EFE3648006800B9EEE7F3
:1051C000FCF78CFA804600BF00BF4020FBF766F872
:1051D000824600BF00BF3048076800BF00BF50468E
:1051E000FBF76AF800BF00BF2C4800683D1A2B4847
:1051F0000760284804680CE0A069A84204D2A069AE
:105200002D1A0020A06103E0A069401BA0610025C9
:1052100024690DB1002CEFD11E48046826E004205B
:1052200084F82600A66816B12046E168B04794F8D5
:105230002600042818D119480168204600F034F8E7
:10524000A08C022809D184F82600206AA0611348A6
:1052500001682046FFF736FF06E00020606120610C
:10526000A061032084F826000A48046814B1A069EC
:105270000028D4D0FCF732FAA0EB080008490860F7
:10528000084800680968884203D205480068054953
:10529000086084E7FC000020E00000200C010020F2
:1052A00004010020080100202DE9F04105460F46C9
:1052B000D5F814802C69B8F1000F40D154B9002002
:1052C0002949086029490880A86129480760FFF733
:1052D0009FFD46E025480088401E24490880244858
:1052E00000683E1A00206061A069A9690844A061B5
:1052F0001D4804600EE0A069B04204D2A069361ACD
:105300000020A06103E0A069801BA0610026A046E8
:10531000D8F810400EB1002CEDD113480068806918
:10532000A969884203D110480068806918B91048FB
:105330000760FFF76DFD00202861A86111E00B48B0
:105340000088401E09490880C8F810402CB1C4F8F4
:105350001480A069A9690844A061002068612861DF
:10536000A861BDE8F0810000FC000020F8000020EA
:105370000C0100207047000010B504480078012897
:1053800001D1FEF71CFBFCF7ADFB10BD790000203E
:105390000348006840F4700001490860704700004D
:1053A00088ED00E070B50546AC6B0020E085E08438
:1053B0002046FDF780F870BD0168C96821F490713E
:1053C0000268D1600168496921F0010102685161F8
:1053D000016B012905D10168C96821F0100102683B
:1053E000D160202180F83E1000210163704710B584
:1053F00004462068C06820F040002168C860202072
:1054000084F83D002046FDF78FFA002010BD70B5EE
:10541000044694F83E00222856D1A068B0F5805F7B
:105420000CD1206950B90025A66A20684068C0F3F5
:1054300008003080A06A801CA06215E0A56A0026E2
:10544000A068B0F5805F03D0A06828B9206918B9BA
:1054500020684068287004E02068406800F07F0001
:105460002870A06A401CA062E08D401E80B2E085DA
:1054700040BB2068C06820F020002168C860206818
:10548000C06820F480702168C8602068406920F0FE
:10549000010021684861202084F83E00206B01282B
:1054A0000AD12068C06820F010002168C860A18D72
:1054B0002046FCF7FFFF02E02046FDF7E7F9002059
:1054C000206370BD0020FCE70220FAE72DE9F84FC9
:1054D00004462068006920F44050E16808432168D0
:1054E00008612169A068084361690843E1690843CC
:1054F00000902068C06849F20C6188430099084315
:105500002168C8602068406920F44070A1690843A0
:105510002168486176492068884203D0754920682F
:10552000884203D1FCF764FC814602E0FCF750FCA2
:105530008146E069B0F5004F6CD102206168A0FBA4
:10554000015003461920A9FB007001462A4638463F
:10555000FAF7CBFE6421B0FBF1F04FEA001A02200B
:105560006168A0FB01510B461920A9FB00712A4676
:105570003846FAF7BAFE834602206168A0FB015064
:1055800003461920A9FB00712A463846FAF7ADFEFA
:105590006421B0FBF1F000EBC00101EB0010ABEBBC
:1055A0008000322101EBC0006421B0FBF1F000F07B
:1055B000F8000AEB400A02206168A0FB0150034694
:1055C0001920A9FB007001462A463846FAF78DFEDD
:1055D000834602206168A0FB015003461920A9FB05
:1055E00000712A463846FAF780FE6421B0FBF1F0DC
:1055F00000EBC00101EB0010ABEB8000322101EBAE
:10560000C0006421B0FBF1F000F0070050442168B5
:1056100088606AE004206168A0FB015003461920FD
:10562000A9FB007001462A463846FAF75EFE82461C
:1056300004206168A0FB015003461920A9FB0070FB
:1056400001462A463846FAF750FE6421B0FBF1F0D5
:1056500000EBC00101EB0010AAEB8000322101EB4E
:1056600000106421B0FBF1F000F0F00A0420616842
:10567000A0FB017003461920A9FB00513A462846B9
:10568000FAF733FE6421B0FBF1F00AEB001A0420B4
:105690006168A0FB01510B461920A9FB00712A4645
:1056A0003846FAF722FE834604206168A0FB0150C9
:1056B00003461920A9FB007001462A463846FAF72E
:1056C00014FE6421B0FBF1F000EBC00101EB00100F
:1056D000ABEB8000322101EB00106421B0FBF1F054
:1056E00000F00F00504421688860BDE8F88F00008A
:1056F000001001400014014010B5034699629A85DC
:10570000DA8500201864222083F83E0000BF0020C4
:1057100083F83C0000BF1868C06840F480701C68C3
:10572000E0601868406940F001001C68606118681A
:10573000C06840F020001C68E060002010BD0146F9
:1057400091F83D00212828D18868B0F5805F0BD101
:10575000086948B90A6A1088C0F308000B685860E5
:10576000086A801C086205E00B6A581C08621878F9
:105770000B685860C88C401E80B2C88458B908684D
:10578000C06820F080000B68D8600868C06840F0EE
:1057900040000B68D860002070470220FCE7000042
:1057A00010B5FDF7C1F90348FCF786FEFDF7D2F905
:1057B00010BD0000300C002000BFFEE703B40198CC
:1057C0004100009850EAC12018BF04204A0D18BFBC
:1057D00040F0010040F2FF72B2EB515F08BF40F0B1
:1057E0000200012808BF052002B070470248006887
:1057F000C0F30220704700000CED00E010B5002857
:1058000004DB0A07130E054A135406E00A07140EB8
:10581000034A00F00F031B1FD45410BD00E400E046
:1058200018ED00E030380A2801D20120704700202E
:10583000704700BF7047000070B5044600204FF06D
:10584000E02108610420FCF707FE0C4804602546AF
:105850000B4800680B49B1FBF0F045434FF0E020E6
:10586000006940F002004FF0E02108610846456100
:10587000006940F00100086170BD000024000020B4
:1058800094CA000840420F0070B50446002504E0A9
:105890004FF47A7000F004F86D1CA542F8D370BD87
:1058A0002DE9F843074600264FF0E020D0F8149089
:1058B0001148006807FB00F86846FDF78FFB4FF0C2
:1058C000E020856911E04FF0E0208469AC420CD003
:1058D000AC4202D2281B064403E0A9EB0400284492
:1058E00006442546464500D300E0ECE700BF684685
:1058F000FDF7DEFBBDE8F8832400002000BF054A69
:10590000126802F04002002AF9D0C2B2014B5A607C
:10591000704700000010014000B587B000BF00BF15
:10592000002001903848006840F0100036490860B7
:105930000846006800F01000019000BF00BF00BFE3
:1059400000BF00BF002001900846006840F0100032
:1059500008600846006800F01000019000BF00BF1A
:1059600000BF00BF00BF002001900846006840F063
:10597000100008600846006800F01000019000BFA9
:1059800000BF00BF00BF00BF0020019008460068B4
:1059900040F0010008600846006800F00100019036
:1059A00000BF00BF00BF1020029000200390012024
:1059B00004900220059002A91448FBF775FF082007
:1059C000029000200390012004900220059002A97B
:1059D0000E48FBF769FF042002900020039001208D
:1059E00004900220059002A90848FBF75DFF012002
:1059F00002900020039002200490059002A9044820
:105A0000FBF752FF07B000BD3038024000100240E3
:105A10000000024070B50446002609480588408809
:105A200045430021084603F0ABF803F057FA00BFE6
:105A300002E004480480761CAE42FAD370BD000038
:105A4000C40C00208000006C10B5044658488471D6
:105A5000002C58D1F020564908804FF4A07048809F
:105A60000846808845F21051884210D14FF43050DA
:105A70004F4908814FF4285048814FF42C508881B9
:105A80004FF4F07008804FF4487048801AE048489E
:105A9000808841F6631188420DD12C204449088149
:105AA0002B2048812A2088814FF4F07008804FF421
:105AB0004870488006E02C203D4908812A20488112
:105AC0002B2088813A48808845F21031884205D0E1
:105AD0003748808847F29671884206D14FF4A0700B
