:020000040800F2
:1000000048F9012061020008DF270008D72700080F
:10001000DB2700084B060008712D000800000000D7
:10002000000000000000000000000000A101000826
:100030004F06000800000000FD010008E12700084D
:100040008502000885020008850200088502000874
:100050008502000885020008850200088502000864
:100060008502000885020008850200088502000854
:100070008502000885020008850200088502000844
:100080008502000885020008850200088502000834
:100090008502000885020008850200088502000824
:1000A0008502000885020008850200088502000814
:1000B000850200088502000809280008850200085A
:1000C00085020008850200088502000885020008F4
:1000D00085020008212D000885020008850200081D
:1000E00085020008850200088502000885020008D4
:1000F00085020008850200088502000885020008C4
:1001000085020008850200088502000885020008B3
:1001100085020008850200088502000885020008A3
:100120008502000885020008850200088502000893
:1001300085020008090700088502000885020008FA
:100140008502000885020008850200088502000873
:100150008502000885020008850200088502000863
:100160008502000885020008850200088502000853
:1001700085020008850200088502000800000000D2
:100180008502000885020008DFF810D000F020FA90
:100190000048004781B10008AFF3008048F9012012
:1001A0002C4B19680868B0E8F04F80F30988BFF35A
:1001B0006F8F4FF0000080F311887047000000003F
:1001C00008480068006880F308884FF0000080F35A
:1001D000148862B661B6BFF34F8FBFF36F8F00DF35
:1001E00000BF00BF08ED00E0DFF80C00016841F43B
:1001F00070010160704700BF88ED00E0EFF30980F7
:10020000BFF36F8F134B1A681EF0100F08BF20ED5D
:10021000108A20E9F04F106009B44FF0500080F3CD
:100220001188BFF34F8FBFF36F8F15F0F5F84FF0C4
:10023000000080F3118809BC19680868B0E8F04F25
:100240001EF0100F08BFB0EC108A80F30988BFF3CE
:100250006F8F704794020020EFF305807047000015
:100260000948016841F47001016008488047084866
:100270000047FEE7FEE7FEE7FEE7FEE7FEE7FEE7F4
:10028000FEE7FEE7FEE7000088ED00E0F527000846
:10029000890100082DE9F05F0546002092469B4643
:1002A00088460646814640241BE02846414647468C
:1002B000224600F020F953465A46C01A914110D305
:1002C00011461846224600F007F92D1A67EB01087F
:1002D0004F4622460120002100F0FEF817EB0009EE
:1002E0004E41201EA4F10104DFDC484631462A4677
:1002F0004346BDE8F09F00000649074A086850439E
:1003000043F2390210440860400870470149086010
:1003100070470000140300206D4EC64110B5431A0B
:10032000934209D28318881803E010F8011D03F8DE
:10033000011D521EF9D210BD40EA01039B0703D0F4
:1003400009E008C9121F08C0042AFAD203E011F814
:10035000013B00F8013B521EF9D210BDD2B201E0C0
:1003600000F8012B491EFBD270470022F6E710B5BA
:1003700013460A4604461946FFF7F0FF204610BD13
:10038000421C10F8011B0029FBD1801A704730B5C0
:1003900004460020034600E05B1C934203D2E05C6D
:1003A000CD5C401BF8D030BD2DE9FE4F81EA03043F
:1003B00004F0004421F0004100944FF0000B23F0C2
:1003C000004350EA01045ED052EA03045BD0C3F359
:1003D0000A54C1F30A552C44A4F2F3340194A0FB4F
:1003E0000254C1F3130141F48011C3F3130343F426
:1003F000801301FB024400FB034E840A970A44EA7F
:10040000815447EA8357A4FB076802958D0A05FBD0
:1004100007854FEA932C04FB0C542705029D4FEAF5
:10042000065847EA1637B5EB08056EEB070C870E42
:10043000920E47EA811742EA8312A7FB0201B6EB4C
:100440000B0164EB00042B0D43EA0C335E1844EB04
:100450001C50DA465146E7FB0201C5F313044FEA8C
:100460000B3343EA14534FEA0432019C43EA060378
:10047000A4F10C040294009CCDE900B400F05AF8F9
:1004800003B0BDE8F08F00200146F9E70EB540F259
:10049000334102910021CDE900110A460B4600F0DC
:1004A00049F803B000BDC1F30A5210B5C1F31301FE
:1004B00040F2FF3341F480119A4201DA002010BD6E
:1004C00040F233439A42A2F2334203DC524200F03C
:1004D00012F810BD904010BD202A04DB203A00FA2B
:1004E00002F1002070479140C2F1200320FA03F38B
:1004F000194390407047202A04DB203A21FA02F089
:100500000021704721FA02F3D040C2F1200291404D
:1005100008431946704710B5141E73F1000408DA39
:10052000401C41F1000192185B411A4301D120F0B7
:10053000010010BD2DE9F04D92469B4611B1B1FA74
:1005400081F202E0B0FA80F220329046FFF7C4FF59
:1005500004460F4640EA0A0041EA0B0153465A4658
:10056000084313D0114653EA010019D0C8F14002E4
:100570005046FFF7C0FF05460E46504659464246D4
:10058000FFF7AAFF084305D0012004E020463946C2
:10059000BDE8F08D0020054346EAE0762C43374362
:1005A0000A986305E40AA0EB08000022FD0A44EA69
:1005B00047540A3002D500200146E9E70105101929
:1005C0006941DDE9084500196941BDE8F04DA2E740
:1005D000064C074D06E0E06840F0010394E8070090
:1005E00098471034AC42F6D3FFF7D2FDF49C0108D3
:1005F000149D010870B58C1810F8015B15F0070305
:1006000001D110F8013B2A1106D110F8012B03E0AB
:1006100010F8016B01F8016B5B1EF9D12B0705D4B3
:100620000023521E0DD401F8013BFAE710F8013BFC
:10063000CB1A921C03E013F8015B01F8015B521E18
:10064000F9D5A142D8D3002070BD00BFFEE77047A6
:10065000016801F58051896921F00202016801F504
:1006600080518A617047016801F58051896941F0C4
:100670000202016801F580518A617047016801F545
:100680008051896921F40052016801F580518A6125
:100690007047016801F58051896941F40052016891
:1006A00001F580518A61704708B508490968C90891
:1006B0004FF47A72B1FBF2F14143009100BF00BFE9
:1006C00000994A1E00920029F9D108BD00000020BF
:1006D00038B5044600200090206800F580508069FD
:1006E00040F48011206800F580508161206800F599
:1006F0008050806900900120FFF7D6FF00992068A4
:1007000000F58050816138BD10B50A49886A05F04E
:10071000CBFA08B10AF004FC4FF4803105480068B8
:1007200000F58050416140210248006800F580508A
:10073000416110BDD404002030B5034614795579C9
:1007400044EA0520084C0C442064D47824069578AB
:1007500044EA0544557844EA0524157844EA05003E
:10076000014C0C44606430BD0080024070B5AEB0F6
:1007700004460E46002526B14FF40061E160C90031
:10078000A160002011901290139014901590169073
:10079000E06918B94FF48060179001E000201790CD
:1007A0004FF400701890002019901A901B901C9024
:1007B0001D9040201E9000201F902090219022909C
:1007C0002390249025902690802027900020289028
:1007D00029902A902B902C902D90206805687148C4
:1007E0000540DDE9110108431399084314990843B2
:1007F000A16808431599084316990843E16808431E
:100800001799084318990843199908431A990843F6
:100810001B9908430543206805602068056801208E
:1008200000F0F4F920680560DDE91C0108431E9919
:1008300008431F99084320990843219908432299A6
:1008400008432399084321684860206845680120CF
:1008500000F0DCF9206845602498216888602598BC
:100860002168C860206885694FF641700540DDE960
:10087000261040EA014028990843299908432A99FB
:1008800008432B99084305432068856120688569E2
:10089000012000F0BBF920688561DDE92C010843E7
:1008A0002168C8612068C569012000F0AFF920689F
:1008B000C561002001904FF000700290002003906D
:1008C0004FF40010049000200590069007900890C7
:1008D00004200990C0050A9040120B9080010C90F2
:1008E00040120D9080200E9000200F9010902068F4
:1008F00000F5805085692C480540DDE90101084379
:100900000399084304990843059908430699084345
:100910000799084308990843099908430543206843
:1009200000F580508561206800F5805085690120C0
:1009300000F06CF9206800F580508561DDE90A015E
:1009400008430C9908430D9908430E9908430F99E1
:1009500040EA81001099084340F40001206800F546
:1009600080500160206800F580500568012000F08B
:100970004DF9206800F580500560A069012809D173
:10098000206800F58050C06908490843216801F5D6
:100990008051C861002120466269FFF7CDFE2EB06C
:1009A00070BD00000F8120FF233FDEF840000100F2
:1009B00038B50446002000902068006820F004004C
:1009C000216808602068006800900120FFF76CFE35
:1009D00000982168086038BD38B5044600200090B2
:1009E0002068006840F00400216808602068006802
:1009F00000900120FFF758FE00982168086038BD7C
:100A000038B50446002000902068006820F00800F7
:100A1000216808602068006800900120FFF744FE0C
:100A200000982168086038BD38B504460020009061
:100A30002068006840F008002168086020680068AD
:100A400000900120FFF730FE00982168086038BD53
:100A500070B504461D460023B5F5804F13D154F8F8
:100A600022300C480340D1E9000640EA06108E68A7
:100A700040EA06208E8940EA06408E6930430343EF
:100A800044F8223003E06FF0704044F82200002068
:100A900070BD00000000F0CF10B5034600220868CA
:100AA00053F8202012480240D1E901042043CC68C9
:100AB00020430C6920434C6920438C692043CC6956
:100AC00020430C6A20434C6A20438C6A2043CC6A42
:100AD0002043CC6B20430C6B2043024388680828DA
:100AE00001D142F04002086843F82020002010BDE8
:100AF0008000F0FF30B503460024501C53F820401E
:100B000004F04044D1E9000540EA05108D6840EA50
:100B100005208D8940EA0545088A401E45EA0055B2
:100B2000087D801E45EA00608D6928430443501CFF
:100B300043F82040002030BD70B50446A56D00F09C
:100B400093FE064694F83500022808D080206065A0
:100B500000BF002084F8340000BF012070BD206871
:100B6000006820F01600216808602068406920F0C5
:100B7000800021684861206C08B9A06C28B1206809
:100B8000006820F00800216808602068006820F0F4
:100B90000100216808600FE000F066FE801B052858
:100BA0000AD92020606500BF002084F8340000BF0F
:100BB000032084F83500D1E72068006800F00100C8
:100BC0000028E9D194F85C103F208840A86000BF5D
:100BD000002084F8340000BF012084F83500002094
:100BE000BCE7014691F83500022803D08020486513
:100BF00001207047052081F835000868006820F062
:100C000001000A6810600020F3E7000070B5044698
:100C100000F02AFE06462546681C10B104480078FC
:100C2000054400BF00F020FE801BA842FAD370BD2F
:100C30002400002070B504460D461646002200BF71
:100C400094F84500012801D1022070BD012084F8EC
:100C5000450000BF022084F84400A56200221FE086
:100C600005EB42114FF00040086044F2F450486038
:100C7000C2EBC21000EB400006EB80008860A06968
:100C8000012803D1486820F000404860581E904277
:100C900004D905EB42102030C86000E0CD60521C42
:100CA0009A42DDD3206800F58050C560012084F8A9
:100CB000440000BF002084F8450000BF00BFC4E727
:100CC00070B504460D461646002200BF94F8450054
:100CD000012801D1022070BD012084F8450000BF29
:100CE000022084F84400E56200221BE005EB42117B
:100CF0004FF480100860C2EBC21000EB400006EB1E
:100D000080008860E06918B9086840F44000086015
:100D1000581E904204D905EB42102030C86000E014
:100D2000CD60521C9A42E1D3206800F580500561E5
:100D3000012084F8440000BF002084F8450000BF73
:100D400000BFC8E70146002200BF91F84500012816
:100D500001D102207047012081F8450000BF022028
:100D600081F84400886A006800F00040002838D10B
:100D7000886A006800F48070F0B1886B401C88635A
:100D8000886B012801D1886A08638B6A4B63886A83
:100D90000068C0F30D40021FCA63086B83680B64D0
:100DA000886AC0688862012081F8440000BF002082
:100DB00081F8450000BFCDE7886A006800F4007044
:100DC00048B1886A086300234B6301238B63886AF8
:100DD000C068886205E0886B401C8863886AC068C8
:100DE0008862012081F8440000BF002081F845009E
:100DF00000BF0120AEE700002DE9FC4104460025BC
:100E0000002001909D4E0027804614B90120BDE8C6
:100E1000FC8194F8440028B9002084F8450020465D
:100E200000F03AF900BF002000909548006840F4B7
:100E30008040934908600846006800F480400090B4
:100E400000BF00BF8F48006820F400008D49086093
:100E500008460068216A08438A490860206800F54E
:100E60008050006840F00101206800F5805001606A
:100E700000F0FAFC07460FE000F0F6FCC01BB0F5EE
:100E8000FA7F09D9032084F8440000BF002084F8C9
:100E9000450000BF0320BAE7206800F580500068D5
:100EA00000F001000028E7D12068056925F01C0545
:100EB00000F056FE06467448864205D373488642C3
:100EC00002D245F008051AE07048864205D36B4807
:100ED000864202D245F00C0511E06848864203D3F1
:100EE0006B48864200D20AE06948864205D36948C9
:100EF000864202D245F0040501E045F01005206865
:100F000005614FF400420021204600F04DFB48B13E
:100F10004FF0010841462046FFF728FC012084F8E5
:100F2000440074E7FF20FFF771FE6068002871D06D
:100F300000F09AFC074600BF01AA0121204600F0FC
:100F4000F9F900F091FCC01B41F2883188420FD9B9
:100F50004FF0010841462046FFF708FC012084F8C5
:100F6000440000BF002084F8450000BF03204EE786
:100F7000019800F004000428DED1820200212046FE
:100F800000F012FB48B14FF0010841462046FFF740
:100F9000EDFB012084F8440039E700F065FC0746CA
:100FA00000BF01AA0121204600F0C4F900F05CFC5A
:100FB000C01B41F2883188420FD94FF001084146E9
:100FC0002046FFF7D3FB012084F8440000BF002037
:100FD00084F8450000BF032019E7019800F02000C5
:100FE0002028DED101AA1121204600F0A3F948B142
:100FF0004FF0010841462046FFF7B8FB012084F876
:10100000440004E7019800F4005020B14FF400615F
:10101000E16002E00EE00021E16044F2100101987D
:101020000840884202D10021A1601EE04FF48041B7
:10103000A1601AE0E068C0F3CF00A168C1F34F01DE
:1010400040EA01020021204600F0AEFA48B14FF01C
:10105000010841462046FFF789FB012084F844003F
:10106000D5E640F6FF70FFF7D1FD41462046FFF779
:101070007DFB012084F844000020C8E6008793032C
:101080004438024004380140002D3101C00E1602E0
:1010900000E1F50580D1F00810B586B0044600BF28
:1010A00000BF002000909E48006840F001009C496D
:1010B00008600846006800F00100009000BF00BF13
:1010C00000BF00BF00BF002000900846006840F04D
:1010D000010008600846006800F00100009000BFB1
:1010E00000BF00BF00BF00BF00200090084600689E
:1010F00040F0010008600846006800F00100009020
:1011000000BF00BF00BF00BF00BF00200090084626
:10111000006840F0040008600846006800F0040021
:10112000009000BF00BF00BF00BF00BF00200090C4
:101130000846006840F0040008600846006800F0B7
:101140000400009000BF00BF00BF00BF00BF002030
:1011500000900846006840F00400086008460068F7
:1011600000F00400009000BF00BF00BF00BF00BF40
:10117000002000900846006840F0400008600846E3
:10118000006800F04000009000BF00BF00BF00BF3B
:1011900000BF002000900846006840F04000086052
:1011A0000846006800F04000009000BF00BF00BF8C
:1011B00000BF00BF002000900846006840F04000DB
:1011C00008600846006800F04000009000BF00BFC3
:1011D00000BF00BF00BF002000900846006840F438
:1011E000807008600846006800F48070009000BFBE
:1011F00000BF00BF00BF00BF00200090084600688D
:1012000040F0007008600846006800F00070009030
:1012100000BF00BF00BF002000900846006840F0FB
:10122000806008600846006800F08060009000BFA1
:1012300000BF00BF002000900846006840F000603A
:1012400008600846006800F00060009000BF00BF22
:1012500000BF022001900290002003900320049020
:101260000B20059001A92F4800F0E6F90420019019
:1012700001A92C4800F0E0F98020019001A929483B
:1012800000F0DAF90220019001A9274800F0D4F912
:101290001020019001A9244800F0CEF920200190EF
:1012A00001A9214800F0C8F94FF40060019001A99C
:1012B0001E4800F0C1F94FF40050019001A91B48ED
:1012C00000F0BAF94FF48040019001A9174800F0EE
:1012D000B3F9082001900120029000200390032020
:1012E000049001A9124800F0A7F900BF00220821CC
:1012F0000F4800F0ADFA00BF322001F0D7FF00BF69
:10130000012208210A4800F0A3FA00BF00220621AA
:101310003D2000F010FB3D2000F0FDFA06B010BDAE
:10132000303802400000024000080240001802402D
:10133000000C02402DE9F04104460E4617460025F8
:10134000A84694F84400822802D10220BDE8F0812A
:10135000822084F844002068056905F01C05208A75
:101360004FF4784101EAC0200543481100EA861095
:10137000054325F0020545F001052068056100F0F0
:1013800073FA804612E000F06FFAA0EB0800B0F5A7
:10139000803F09D3012084F8440000BF002084F876
:1013A000450000BF0320D1E72068056905F0010072
:1013B0000028E8D12068406980B23860012084F8B4
:1013C00044000020C2E710B5044600BF94F8450071
:1013D000012801D1022010BD012084F8450000BF82
:1013E000022084F844002046FFF71EFB2046FFF74A
:1013F000F3FA2046FFF76CF92046FFF74AF920463A
:10140000FFF731F9012084F8440000BF002084F880
:10141000450000BF00BFDEE710B5044600BF94F8EA
:101420004500012801D1022010BD012084F84500AB
:1014300000BF022084F844002046FFF71FF9204631
:10144000FFF706F92046FFF7B3FA2046FFF740F909
:101450002046FFF7D5FA012084F8440000BF0020A1
:1014600084F8450000BF00BFDEE770B502460023E8
:101470000025002400BF92F84500012801D1022078
:1014800070BD012082F8450000BF022082F84400B0
:1014900049B9012082F8440000BF002082F84500CD
:1014A00000BF0120ECE7D06A006800F0004048B1BE
:1014B000122082F8440000BF002082F8450000BFDF
:1014C0000120DDE740F2F450814208D9B1FBF0F38E
:1014D000B1FBF0F600FB161010B15B1C00E001231D
:1014E000012B13D1D06A006840F04050D66A3060BA
:1014F000C1F30C00D66A7060D06A006840F000400A
:10150000D66A3060D06AC068D06232E000242EE033
:10151000D06A006820F04050D66A30602CB9D06A9A
:10152000006840F08050D66A306040F2F450D66ACD
:101530007060581EA04210D1D06A006840F0005080
:10154000D66A3060581EC0EBC01000EB4000A1EB23
:101550008005C5F30C00D66A7060D06A006840F060
:101560000040D66A3060D06AC068D062641C9C4279
:10157000CED3106800F58050406900F0040048B1F7
:101580000426106800F5805046610026106800F5BA
:1015900080504660012082F8440000BF002082F89D
:1015A000450000BF00BF6BE72DE9F04104460E4641
:1015B00017460025A84694F84400422802D102208C
:1015C000BDE8F081422084F844002068056905F0F8
:1015D0001C05208A4FF4784101EAC02005434811D8
:1015E00000EA8610054345F0020545F00105B8B252
:1015F000216848612068056100F036F9804612E0F4
:1016000000F032F9A0EB0800B0F5803F09D30120CB
:1016100084F8440000BF002084F8450000BF032088
:10162000CEE72068056905F001000028E8D1012017
:1016300084F844000020C3E7F8B502460B460025B5
:10164000002400200021DEE0012606FA01F51E68D4
:1016500006EA0504AC4275D11E7906F00306012E98
:1016600004D01E7906F00306022E13D190684F00B5
:101670000326BE40B0434F00DE68BE40304390605A
:10168000506801268E40B0431E79C6F300168E4086
:10169000304350601E7906F00306032E09D0D0684F
:1016A0004F000326BE40B0434F009E68BE4030430B
:1016B000D0601E7906F00306022E13D1CF0802F186
:1016C000200656F827004E07F70E0F26BE40B043FF
:1016D0004F07FF0E1E69BE403043CF0802F12006BF
:1016E00046F8270010684F000326BE40B0431E791D
:1016F00006F003064F00BE40304310605E6806F0FF
:101700008056B6F1805F7DD100BF00260096404E26
:10171000366846F480463E4F3E603E46366806F4E4
:101720008046009600BF00BF3A4E8F0856F827004B
:101730008E07370F0F26BE40B043374EB24202D15C
:10174000002624E05EE0354EB24201D101261EE0C3
:10175000334EB24201D1022619E0324EB24201D1DB
:10176000032614E0304EB24201D104260FE02F4E82
:10177000B24201D105260AE02D4EB24201D1062621
:1017800005E02C4EB24201D1072600E008268F0763
:101790003F0FBE4030431F4E8F0846F82700264EAD
:1017A0003068A0435E6806F48036B6F5803F00D10D
:1017B0002043214E3060361D3068A0435E6806F439
:1017C0000036B6F5003F00D120431B4E361D306079
:1017D000361D3068A0435E6806F48016B6F5801F9B
:1017E00000D12043144E08363060361D3068A043C7
:1017F0005E6806F40016B6F5001F00D120430E4EB9
:101800000C363060491C1029FFF41EAFF8BD0000F3
:101810004438024008380140000002400004024001
:1018200000080240000C0240001002400014024078
:1018300000180240001C0240003C014010B5426903
:1018400021EA020302EA010443EA0443836110BD72
:101850000AB1816101E00B048361704701480068AF
:10186000000C7047002004E0014800687047000049
:101870001C00002003480068034909780844014916
:10188000086070471C0000202400002010B50D489F
:10189000006840F400700B4908600846006840F496
:1018A000806008600846006840F48070086003208B
:1018B00000F080F80F2000F007F800F02BF800206F
:1018C00010BD0000003C024070B504460E48007890
:1018D0004FF47A71B1FBF0F00C490968B1FBF0F5F7
:1018E000284600F09BFC08B1012070BD102C07D2E7
:1018F00000222146501E00F01EF80548046001E059
:101900000120F2E70020F0E7240000200000002082
:1019100020000020704701460846002809DB00F03F
:101920001F0301229A4043099B0003F1E023C3F8FF
:10193000002100BF70472DE9F05F80460D46164636
:10194000002701F03BFA074639462A46334601F0A4
:101950000700C0F1070ABAF1040F02D94FF0040AD8
:1019600001E0C0F1070AD14600F1040ABAF1070FFD
:1019700002D24FF0000A01E0A0F1030AD4464FF072
:10198000010A0AFA09FAAAF1010A0AEA020A0AFA9B
:101990000CFA4FF0010B0BFA0CFBABF1010B0BEA4D
:1019A000030B4AEA0B042146404601F00FFABDE85A
:1019B000F09F000000BF00F00702064B19684FF6C9
:1019C000FF031940044B0B4343EA0221014B19600A
:1019D00000BF70470CED00E00000FA0570B504464A
:1019E0000D460CB9012070BD5848006800F0070092
:1019F000A84209D255490D700846006800F007005A
:101A0000A84201D00120EEE7207800F00200022871
:101A10001DD1207800F00400042805D14C4800684E
:101A200040F4E0504A490860207800F00800082897
:101A300005D14748006840F4604045490860444883
:101A4000006820F0F000A168084341490860207850
:101A500000F00100A8B36068012807D13C480838AD
:101A60000068C0F34040B8B90120BCE760680228B4
:101A700002D06068032807D1354808380068C0F3F1
:101A8000406048B90120AEE7314808380068C0F32B
:101A9000400008B90120A6E72D48006820F00300A7
:101AA000616808432A490860FFF7DEFE064609E040
:101AB000FFF7DAFE801B41F28831884202D9032009
:101AC00091E707E02248006800F00C006168B0EB85
:101AD000810FEDD11D48006800F00700A84209D928
:101AE0001A490D700846006800F00700A84201D0AE
:101AF000012078E7207800F00400042807D114487A
:101B0000006820F4E050E16808431149086020783B
:101B100000F00800082808D10D48006820F4604053
:101B2000216940EAC1000A49086000F03FF808490D
:101B30000968C1F30311074A515CC84006490860AF
:101B400006480068FFF7C0FE00204CE7003C02405A
:101B500008380240506801080000002020000020E2
:101B600001480068704700000000002000B5FFF742
:101B7000F7FF04490968C1F38221034A515CC84058
:101B800000BD0000083802406068010800B5FFF79A
:101B9000E7FF04490968C1F34231034A515CC84078
:101BA00000BD000008380240606801082DE9F047D8
:101BB000002400250026A1462548006800F00C00FE
:101BC00020B1042805D008283AD105E0DFF8849038
:101BD00039E0DFF8849036E01D48001F006800F00F
:101BE0003F041B48001F006800F4800078B11A48C9
:101BF0001749091F0968C1F38811A0FB017001464C
:101C0000224600233846FEF745FB05460EE0114804
:101C10000F49091F0968C1F38811A0FB0170014633
:101C2000224600233846FEF735FB05460848001FCC
:101C30000068C0F30140401C4600B5FBF6F902E025
:101C4000DFF8109000BF00BF4846BDE8F0870000F5
:101C5000083802400024F40000127A00F8B5044667
:101C60000CB90120F8BD207800F00100002874D0E4
:101C7000F948006800F00C0004280DD0F648006810
:101C800000F00C00082813D1F348001F006800F48E
:101C90008000B0F5800F0BD1EF4808380068C0F322
:101CA0004040002859D06068002856D10120D9E76B
:101CB00000BF6068B0F5803F08D1E7480838006889
:101CC00040F48030E449083908601EE06068B0F5EF
:101CD000A02F0DD1E0480838006840F48020DE498C
:101CE000083908600846006840F4803008600CE05D
:101CF000D9480838006820F48030D749083908608E
:101D00000846006820F48020086000BF606890B139
:101D1000FFF7AAFD054606E0FFF7A6FD401B642875
:101D200001D903209EE7CC4808380068C0F3404042
:101D30000028F1D011E0FFF797FD054606E0FFF718
:101D400093FD401B642801D903208BE7C248083863
:101D50000068C0F340400028F1D1207800F0020074
:101D600002285FD1BC48006800F00C0058B1BA48A6
:101D7000006800F00C0008281CD1B748001F00685C
:101D800000F48000B0B9B44808380068C0F34000DF
:101D900020B1E068012801D0012063E7AE4808388F
:101DA000006820F0F800216940EAC100AA4908391A
:101DB000086037E0E06800B30120A8490860FFF739
:101DC00053FD054606E0FFF74FFD401B022801D9F1
:101DD000032047E7A04808380068C0F34000002807
:101DE000F1D09D480838006820F0F800216940EAE9
:101DF000C10099490839086014E00020974908603B
:101E0000FFF732FD054606E0FFF72EFD401B0228D6
:101E100001D9032026E7904808380068C0F3400045
:101E20000028F1D1207800F0080008282CD1606942
:101E3000A8B101208A490860FFF716FD054606E0B3
:101E4000FFF712FD401B022801D903200AE7824850
:101E50006C300068C0F340000028F1D014E000208E
:101E60007F490860FFF700FD054606E0FFF7FCFC30
:101E7000401B022801D90320F4E677486C30006843
:101E8000C0F340000028F1D1207800F004000428BD
:101E900070D1002770483830006800F0805090B949
:101EA00000BF002000906C483830006840F080503F
:101EB0006949383108600846006800F08050009099
:101EC00000BF00BF01276748006800F48070B0B908
:101ED0006448006840F4807062490860FFF7C4FC01
:101EE000054606E0FFF7C0FC401B022801D903208D
:101EF000B8E65C48006800F480700028F2D000BFAB
:101F0000A068012808D154486830006840F00100FA
:101F10005149683108601DE0A06805280DD14E4880
:101F20006830006840F004004B496831086008469A
:101F3000006840F0010008600CE047486830006825
:101F400020F001004449683108600846006820F02C
:101F50000400086000BFA068A8B1FFF785FC054633
:101F600009E0FFF781FC401B41F28831884202D929
:101F7000032077E626E0384868300068C0F3400068
:101F80000028EED013E0FFF76FFC054608E0FFF7EE
:101F90006BFC401B41F28831884201D9032061E685
:101FA0002D4868300068C0F340000028EFD1012FB1
:101FB00007D129483830006820F080502649383150
:101FC000086000BFA069002845D02348006800F0E1
:101FD0000C0008285DD0A069022845D100201F49C7
:101FE0000866FFF741FC054606E0FFF73DFC401B95
:101FF000022801D9032035E6174808380068C0F3E5
:1020000040600028F1D1D4E907010843616A40EA41
:1020100081110122A06AC2EB500041EA00412C204C
:10202000005D41EA00600C49091F086001200B496E
:102030000866FFF719FC054606E0FFF715FC401B94
:10204000022801D903200DE6034808380068C0F3D0
:1020500040600028F1D049E00838024000004742C3
:10206000800E474200700040002021490866FFF7BB
:10207000FBFB054606E0FFF7F7FB401B022801D9F2
:102080000320EFE51B480068C0F340600028F2D150
:102090002CE0A069012800D1E4E51648001D06687F
:1020A000A069012820D006F48001E06981421BD19B
:1020B00006F03F01206A814216D147F6C0703040D9
:1020C000616AB0EB811F0FD106F440310122A06A92
:1020D000C2EB5000B1EB004F06D106F070612C202E
:1020E000005DB1EB006F01D00120BBE50020B9E538
:1020F000000047420038024070B504460E461546BF
:102100000CB9012070BD94F8490028B9002084F86A
:102110004800204600F01CF804F108012068FEF792
:10212000BBFC3146A2682068FEF7E4FC2946236B1D
:10213000D4E90102FEF78CFCA168206850F8210068
:1021400040F00100A268216841F822000020D9E790
:1021500010B586B0044600BF0020009022480068F9
:1021600040F00100204908600846006800F00100C6
:10217000009000BF00BF00BF002000901A48083840
:10218000006840F0080018490839086008460068EF
:1021900000F00800009000BF00BF00BF00200090CA
:1021A0000846006840F0100008600846006800F02B
:1021B0001000009000BF00BF4CF20370019002209D
:1021C000029001200390022004900C20059001A9A8
:1021D0000648FFF731FA4FF68070019001A90448D4
:1021E000FFF72AFA06B010BD38380240000C024052
:1021F00000100240042808D14FF0E021096941F0A5
:1022000004014FF0E022116107E04FF0E02109697D
:1022100021F004014FF0E0221161704770B50446CF
:102220002546681EB0F1807F01D301200FE0681EB3
:102230004FF0E02148610F214FF0FF3000F0C6FD64
:1022400000204FF0E021886107200861002070BD68
:1022500010B504460CB9012010BD94F83D0028B912
:10226000002084F83C00204600F025F8022084F885
:102270003D00211D206800F0E9FA012084F84600A5
:1022800000BF84F83E0001213F2001554020015548
:102290004120015500BF00BF012084F842004320C7
:1022A0000155442001554520015500BF012084F807
:1022B0003D000020D0E77047014691F83D0001281D
:1022C00001D001207047022081F83D000868C068F5
:1022D00040F001000B68D8601A4B086898421BD088
:1022E0000868B0F1804F17D0174B0868984213D098
:1022F000164B086898420FD0154B086898420BD0CF
:10230000144B0868984207D0134B0868984203D0D2
:10231000124B086898420CD10868806800F00702E8
:10232000062A0CD00868006840F001000B681860AD
:1023300005E00868006840F001000B6818600020A4
:10234000C0E7000000000140000400400008004019
:10235000000C004000040140004001400018004013
:102360007047704701460022002391F83D2091F804
:102370003E3042EA030070472DE9F84F04462068DA
:1023800005682068C668206847694FF00009CA469A
:1023900005F00F09B9F1000F0AD105F0200038B19E
:1023A00006F0200020B1204600F0F1FABDE8F88FD9
:1023B000B9F1000F72D007F0010018B906F490705F
:1023C00000286BD005F0010030B106F4807018B120
:1023D000206C40F00100206405F0040030B107F0EB
:1023E000010018B1206C40F00200206405F00200EA
:1023F00030B107F0010018B1206C40F004002064F7
:1024000005F0080048B106F0200010B907F00100FF
:1024100018B1206C40F008002064206C70B305F007
:10242000200028B106F0200010B1204600F0AFFADD
:1024300020684069C0F3801A206C00F0080010B9D1
:10244000BAF1000F23D0204600F076FA20684069E8
:1024500000F04000402816D12068406920F040007C
:1024600021684861A06B50B15648A16B0865A06B0C
:10247000FEF7B7FB10B1A06B016D88470CE020465A
:10248000FFF76FFF08E02046FFF76BFF04E02046F0
:10249000FFF767FF0020206488E7FFE7206B012833
:1024A00079D105F01000002875D006F01000002842
:1024B00071D000BF00200090206800680090206864
:1024C0004068009000BF00BF2068406900F04000F5
:1024D000402839D1A06B006840681FFA80F8B8F135
:1024E000000F30D0A08D40452DDDA4F82E80A06BCC
:1024F000C069B0F5807F1FD02068C06820F480706C
:102500002168C8602068406920F0010021684861A6
:102510002068406920F0400021684861202084F84C
:102520003E00002020632068C06820F01000216871
:10253000C860A06BFEF700FBA08DE28D801A81B20F
:102540002046FFF70DFF31E7A08DE18D401A1FFAFD
:1025500080F8E08DE8B1B8F1000F1AD02068C068AB
:1025600020F490702168C8602068406920F0010064
:1025700021684861202084F83E0000202063206804
:10258000C06820F010002168C86041462046FFF76F
:10259000E7FE0BE7FFE705F0800030B106F08000B2
:1025A00018B1204600F08BFB00E705F0400030B189
:1025B00006F0400018B1204600F0D9F9F6E600BF59
:1025C000F4E600002529000810B504460CB90120E6
:1025D00010BDA06900B100E000BF94F83D0028B92B
:1025E000002084F83C00204600F028F8242084F8DD
:1025F0003D002068C06820F400502168C860204673
:1026000000F024FA2068006920F4904021680861F5
:102610002068406920F02A00216848612068C0686D
:1026200040F400502168C86000202064202084F815
:102630003D0084F83E000020CAE7000010B586B0D7
:1026400004462E492068884255D100BF00BF0020B3
:1026500000902B48006840F01000294908600846A7
:10266000006800F01000009000BF00BF00BF00BF76
:1026700000BF0020009022481438006840F001009C
:102680001F49143908600846006800F001000090F6
:1026900000BF00BF00BF00BF00BF00200090084681
:1026A000006840F0010008600846006800F0010082
:1026B000009000BF00BF00BF4815019002200290AB
:1026C00001200390022004900720059001A90D48E5
:1026D000FEF7B2FF4FF4806001900720059001A93A
:1026E0000848FEF7A9FF2520FFF715F90322114638
:1026F0002520FFF720F906B010BD000000100140B2
:10270000443802400000024070B504460D461646AB
:1027100094F83E00202816D105B10EB9012070BDF5
:1027200000BF94F83C00012801D10220F7E7012006
:1027300084F83C0000BF0020206332462946204632
:1027400000F09AFAEBE70220E9E700001D4A016871
:10275000914236D11C49098801F4004189BB1A49CC
:10276000098801F4804171B1184909780A2903D018
:102770000021154A118024E01349098841F40041E1
:10278000114A11801DE0114909780D2906D10E4921
:10279000098841F480410C4A118012E00B49097804
:1027A000094A1288C2F30D02094B99540649098857
:1027B000491C054A118011460988C72901DD0021FD
:1027C0001180704700100140180000201A000020FE
:1027D00018030020704700BFFEE700BFFEE7704708
:1027E00010B5FFF747F813F075FC012801D012F07F
:1027F00047FF10BD0348006840F4700001490860BD
:102800007047000088ED00E010B50E480068C06811
:1028100000F0010078B10C4908698047002009499F
:102820000968486200BF642006490968C8626421DB
:102830000448C16000BF6FF00100024909680861E7
:1028400010BD00001C0500208C00002010B502689F
:10285000294B98420ED0B0F1804F0BD0274B9842B5
:1028600008D0274B984205D0264B984202D0264BE1
:10287000984203D122F070024B681A431E4B9842D3
:1028800020D0B0F1804F1DD01C4B98421AD01C4B69
:10289000984217D01B4B984214D01B4B984211D032
:1028A0001A4B98420ED01A4B98420BD0194B9842B3
:1028B00008D0194B984205D0184B984202D0184BBB
:1028C000984203D122F44072CB681A4322F080036D
:1028D0004C6943EA040202608B68C3620B6883623E
:1028E000054B984202D0084B984201D10B69036313
:1028F0000123436110BD00000000014000040040BE
:1029000000080040000C004000040140004001406D
:10291000004401400048014000180040001C0040F5
:102920000020004070B50546AC6B0020E085E084D7
:102930002046FFF716FD70BD0168C96821F490714B
:102940000268D1600168496921F0010102685161A2
:10295000016B012905D10168C96821F010010268E5
:10296000D160202180F83E1000210163704710B52E
:1029700004462068C06820F040002168C86020201C
:1029800084F83D002046FFF725FF002010BD70B5FC
:10299000044694F83E00222856D1A068B0F5805F26
:1029A0000CD1206950B90025A66A20684068C0F3A0
:1029B00008003080A06A801CA06215E0A56A00268D
:1029C000A068B0F5805F03D0A06828B9206918B965
:1029D00020684068287004E02068406800F07F00AC
:1029E0002870A06A401CA062E08D401E80B2E08585
:1029F00040BB2068C06820F020002168C8602068C3
:102A0000C06820F480702168C8602068406920F0A8
:102A1000010021684861202084F83E00206B0128D5
:102A20000AD12068C06820F010002168C860A18D1C
:102A30002046FFF795FC02E02046FFF787FE0020C6
:102A4000206370BD0020FCE70220FAE72DE9F84F73
:102A500004462068006920F44050E168084321687A
:102A600008612169A068084361690843E169084376
:102A700000902068C06849F20C61884300990843BF
:102A80002168C8602068406920F44070A16908434B
:102A90002168486176492068884203D075492068DA
:102AA000884203D1FFF772F8814602E0FFF75EF833
:102AB0008146E069B0F5004F6CD102206168A0FB4F
:102AC000015003461920A9FB007001462A463846EA
:102AD000FDF7E0FB6421B0FBF1F04FEA001A0220A1
:102AE0006168A0FB01510B461920A9FB00712A4621
:102AF0003846FDF7CFFB834602206168A0FB0150FA
:102B000003461920A9FB00712A463846FDF7C2FB8F
:102B10006421B0FBF1F000EBC00101EB0010ABEB66
:102B20008000322101EBC0006421B0FBF1F000F025
:102B3000F8000AEB400A02206168A0FB015003463E
:102B40001920A9FB007001462A463846FDF7A2FB72
:102B5000834602206168A0FB015003461920A9FBAF
:102B600000712A463846FDF795FB6421B0FBF1F071
:102B700000EBC00101EB0010ABEB8000322101EB58
:102B8000C0006421B0FBF1F000F007005044216860
:102B900088606AE004206168A0FB015003461920A8
:102BA000A9FB007001462A463846FDF773FB8246B2
:102BB00004206168A0FB015003461920A9FB0070A6
:102BC00001462A463846FDF765FB6421B0FBF1F06B
:102BD00000EBC00101EB0010AAEB8000322101EBF9
:102BE00000106421B0FBF1F000F0F00A04206168ED
:102BF000A0FB017003461920A9FB00513A46284664
:102C0000FDF748FB6421B0FBF1F00AEB001A042049
:102C10006168A0FB01510B461920A9FB00712A46EF
:102C20003846FDF737FB834604206168A0FB01505E
:102C300003461920A9FB007001462A463846FDF7D5
:102C400029FB6421B0FBF1F000EBC00101EB0010A7
:102C5000ABEB8000322101EB00106421B0FBF1F0FE
:102C600000F00F00504421688860BDE8F88F000034
:102C7000001001400014014010B5034699629A8586
:102C8000DA8500201864222083F83E0000BF00206F
:102C900083F83C0000BF1868C06840F480701C686E
:102CA000E0601868406940F001001C6860611868C5
:102CB000C06840F020001C68E060002010BD0146A4
:102CC00091F83D00212828D18868B0F5805F0BD1AC
:102CD000086948B90A6A1088C0F308000B68586090
:102CE000086A801C086205E00B6A581C08621878A4
:102CF0000B685860C88C401E80B2C88458B90868F8
:102D0000C06820F080000B68D8600868C06840F098
:102D100040000B68D860002070470220FCE70000EC
:102D200070B500240F4D1048FFF726FB00BF03E0ED
:102D3000641CAC4200D904E00B48FFF713FB2028C9
:102D4000F6D100BF002403E0641CAC4200D906E0C9
:102D5000012206490448FFF7D7FC0028F4D100BF40
:102D600070BD0000FFFF0100E00300201A000020FA
:102D700000BFFEE70FB4054B10B503A9044A029843
:102D800000F048F810BC5DF814FB00001960000862
:102D9000140000200FB4084B10B504A902AA039830
:102DA00000F038F8044602A9002000F05EFA204640
:102DB00010BC5DF814FB00006B320008024800688C
:102DC000C0F30220704700000CED00E010B50028B1
:102DD00004DB0A07130E054A135406E00A07140E13
:102DE000034A00F00F031B1FD45410BD00E400E0A1
:102DF00018ED00E002E008C8121F08C1002AFAD14D
:102E000070477047002001E001C1121F002AFBD16A
:102E1000704700002DE9FF4F8DB00F460546002694
:102E200006E025280BD0DDE90F1290476D1C761CBB
:102E300028780028F5D111B03046BDE8F08F002485
:102E4000A246A1460122E94900E0044315F8013FEA
:102E5000203B02FA03F00842F7D128782A2810D044
:102E60006FF02F022878A0F13001092914D80AEB5D
:102E70008A0102EB410144F0020400EB010A6D1CDF
:102E8000F0E701CF5FEA000A03D544F40054CAF129
:102E9000000A44F002046D1C28782E2817D115F87A
:102EA000010F44F004042A280ED06FF02F02287876
:102EB000A0F1300109290AD809EB890102EB41018F
:102EC00000EB01096D1CF2E757F8049B6D1C287894
:102ED0006C280FD006DC4C2817D068280DD06A2843
:102EE00014D104E0742810D07A280FD10DE044F4F6
:102EF00000140AE044F4801401E044F440146978BA
:102F0000814202D104F580146D1C6D1C28786E2856
:102F10001ED00CDC632830D004DC00288BD058286D
:102F200011D19FE0642867D069280CD164E0732830
:102F30002DD004DC6F2872D0702804D194E075285D
:102F40006ED078286DD0DDE90F129047761C4BE1EA
:102F5000C4F30250022806D0032809D0042801CF68
:102F600009D0066040E101CFF117C0E900613BE103
:102F700001CF068038E1067036E117F8040B8DF8B2
:102F8000000000208DF80100EB46012003E057F817
:102F900004BB4FF0FF3061074FF0000102D40DE099
:102FA00008F10101884649450FDA8045F8DB1BF836
:102FB00008100029F4D108E008F101018846814297
:102FC000FADB1BF808100029F6D1DDE90F23AAEB84
:102FD00008008146214600F031F9304400EB080634
:102FE00004E0DDE90F121BF8010B9047B8F101086E
:102FF000F7D221464846F2E00A21C4F302524FF0CC
:10300000000B0891022A04D001CFC117032A09D06E
:103010000AE0FF1D27F00707F7E8020108E02CE0AF
:103020001EE01FE000B2C117042A01D140B2C1174F
:10303000021E71F1000206DA0023D0EB030063EBFD
:1030400001012D2202E0220504D52B228DF8242037
:10305000012203E0E20701D02022F7E7904653E087
:103060000A210BE0102109E010214FF0000B44F081
:1030700004044FF00809089103E008214FF0000B09
:103080000891C4F30252022A04D001CF0021032A7E
:1030900006D006E0FF1D27F00707F7E8020103E06E
:1030A00080B2042A00D1C0B24FF0000822072BD50D
:1030B0002A78702A07D0DDF820C08CF0100C5CEA6A
:1030C0000B0C05D00EE040228DF82420012208E0F0
:1030D00050EA010306D030238DF824308DF82520E6
:1030E00002229046089B83F0080353EA0B030BD19E
:1030F00050EA010201D1620706D530228DF8242062
:103100004FF00108A9F101092A78582A04D038A201
:103110000B9208AA0A920BE03AA2F9E75B46089ADA
:10312000FDF7B8F80B9B9B5C0A9A521E0A9213702B
:1031300050EA0102F2D10A98ADEB000000F1200B39
:10314000600702D524F4803401E04FF00109D9452D
:1031500002DDA9EB0B0000E0002000EB0B01414475
:103160000890AAEB010AE00306D4DDE90F2321460B
:10317000504600F063F806444FF0000908E009A942
:1031800011F80900DDE90F12904709F10109761CD9
:10319000C145F4DBE0030CD5DDE90F2321465046A1
:1031A00000F04CF8064404E0DDE90F1230209047AF
:1031B000761C0899481E08900029F5DC08E00A985A
:1031C0000A990078491C0A91DDE90F129047761C94
:1031D000BBF10001ABF1010BF1DC21465046DDE90A
:1031E0000F2300F019F806446D1C21E609280100A0
:1031F000303132333435363738396162636465666D
:10320000000000003031323334353637383941422E
:1032100043444546000000002DE9F04104460025E6
:103220001E461746880404D405E039462020B047DE
:103230006D1C641EF9D52846BDE8F0812DE9F041EA
:10324000044600251E469046C80301D5302700E0FD
:103250002027880404D505E041463846B0476D1C58
:10326000641EF9D52846BDE8F0810A68531C0B603E
:103270001070704770B504460420FEF7BBFF0A4883
:10328000046025464FF47A7045434FF0E020006912
:1032900040F002004FF0E0210861084645610069F6
:1032A00040F00100086170BD1000002030B50446F8
:1032B000002504E04FF47A7000F004F86D1CA5427C
:1032C000F8D330BD70B5034600224FF0E026756993
:1032D0000D4E366803FB06F44FF0E026B16910E0AE
:1032E0004FF0E026B06988420BD0884202D20E1A15
:1032F000324402E02E1A0E4432440146A24200D368
:1033000000E0EDE700BF70BD1000002070B505467D
:103310000E4600BF2DB900BF0CA0FFF72BFD00BF6C
:1033200070BD00BF6C6A00BF00BF6CB16079082837
:103330000AD100BF00BF3068E169884204D100BFF4
:1033400000BF284600F01CFA00BFE9E76E6574690B
:103350006620213D204E554C4C0000007CB50646B1
:1033600000BF2EB900BF44A0FFF704FD00BF7CBD25
:1033700000BF746A00BF2CB900BF46A0FFF7FAFC7B
:1033800000BFF4E700BF00BF00BF00206082A06A5A
:10339000401C90B100BF00BFA06A1E303C21B0FBB2
:1033A000F1F5B5F5803F01D34FF6FF75A582A08AF0
:1033B00008B90120A08200BF00BFE06A401CA0B194
:1033C00000BF00BFE06A1E303C21B0FBF1F5B5F54F
:1033D000803F01D34FF6FF756581608908B90120F0
:1033E000608100BF00BF6089E081206B401CA0B1FC
:1033F00000BF00BF206B1E303C21B0FBF1F5B5F5DE
:10340000803F01D34FF6FF75A581A08908B901203F
:10341000A08100BF00BFA08920826089A189884265
:1034200004DBA089002801DD00206081E07910B173
:10343000206A01900FE0207F7F2802DCFF210191AC
:1034400008E0C02803DB6FF07F41019102E04FF6F6
:10345000FF71019100BF606A009000BF00BF0A21A8
:10346000204601F00FFA6B4601AA04F11C01304618
:1034700008F028FD00BF7AE7646863705F62696ED8
:10348000643A206E6574696620213D204E554C4C8F
:1034900000000000646863705F62696E643A2064D3
:1034A00068637020213D204E554C4C002DE9F041C1
:1034B0000646746A00BF00BF0821204601F0E2F909
:1034C000002204F11C01304602F010F905460DB14E
:1034D00000BF00BFA079FF2802DAA079401CA071CC
:1034E0004FF4FA7707F2F310394690FBF1F02081A0
:1034F00000BF00BFBDE8F08170B500BF00BF1B4832
:1035000005682FE06C6AFCB16079E8B1A08A78B1F7
:10351000608A401C80B26082A18A884208D100BFC4
:1035200000BF284600F0D8FF284601F0B3F918E0A4
:10353000208A50B1218A481E2082012905D100BF6E
:1035400000BF284601F063FA0BE0E08948B1E18949
:10355000481EE081012904D100BF00BF284601F0C8
:1035600031FA2D68002DCDD170BD00000802002079
:103570002DE9F05F07460D4616469A4600BF3FB953
:1035800000BF44A0FFF7F6FB00BF0020BDE8F09F9E
:1035900000BF00BF35B900BF46A0FFF7EBFB00BF7F
:1035A0000020F3E700BF4FF420724FF49A713620E9
:1035B00008F0E2FD8146B9F1000F03D100BF00BF62
:1035C0000020E3E700BFB9F80A00B0F59A7F04D203
:1035D00000BF40A0FFF7CEFB00BF00BF032E02D10B
:1035E0006879032808D1A87918B9FCF785FE4949FC
:1035F000086048480068286000BF00BFD9F8044050
:103600004FF49A712046FCF7B0FE012020706070E4
:1036100097F83000A070286807F094F96060082ED1
:103620000BD0042E09D0072E07D0032E07D16879BE
:10363000052802D06879042801D17868E0604FF04D
:1036400000080BE007F12A0010F8081004F11C0034
:1036500000F8081008F101001FFA80F8B8F1060F11
:10366000F0D32D48C4F8EC000123352204F1F00119
:10367000002000F0B1FA8346324604F1F0015846CA
:1036800000F0C8FA8346BAF1000F01D0AAF800B0E2
:1036900048467BE7646863705F6372656174655F69
:1036A0006D73673A206E6574696620213D204E5522
:1036B0004C4C0000646863705F6372656174655FA1
:1036C0006D73673A206468637020213D204E554C2D
:1036D0004C000000646863705F6372656174655FCD
:1036E0006D73673A20636865636B2074686174204A
:1036F000666972737420706275662063616E2068FB
:103700006F6C642073747275637420646863705F97
:103710006D7367007C0200206382536310B500BFA5
:103720000C480078002804DC00BF0BA0FFF722FB48
:1037300000BF00BF07480078401E064908700846D1
:10374000007830B90D4800680FF08EFE00200B495C
:10375000086010BD78020020646863705F70636267
:103760005F726566636F756E7428293A20726566AC
:10377000636F756E74206572726F72007402002040
:103780002DE9FE4F0646746A00BF00BF0C2120469B
:1037900001F078F802AB042221463046FFF7E8FE3C
:1037A000054675B3D5F804800423322208F1F001F0
:1037B000BDF8080000F010FA0290E06907F0C2F8C6
:1037C0008246524608F1F001BDF8080000F052FAB6
:1037D00002902A4608F1F001BDF8080000F0C6FA90
:1037E00014484323144A2946CDE900601348006871
:1037F0000FF070FF0746284609F094F800BF00BF9D
:1038000004E0FFE700BF00BF4FF0FF37A079FF28BB
:1038100002DAA079401CA07142F2107909F2F3108B
:103820004FF4FA7190FBF1F0208100BF00BF3846E1
:10383000BDE8FE8FA8990108AC9901087402002028
:103840002DE9FE4F07467C6A4FF0000A00BF00BF1B
:103850000020E0610621204601F014F802AB0122AD
:1038600021463846FFF784FE0546002D4AD06E6893
:1038700000BF00BF0223392206F1F001BDF80800A5
:1038800000F0AAF902903A8D06F1F001BDF80800A7
:1038900000F034FA02900423372206F1F001BDF85B
:1038A000080000F099F90290D0460DE0274810F882
:1038B000082006F1F001BDF8080000F0ABF9029015
:1038C00008F1010000F0FF08B8F1040FEED32A461A
:1038D00006F1F001BDF8080000F048FA00BF00BF93
:1038E0001B4843231B4A2946CDE900701A4800684B
:1038F0000FF0F0FE00BF00BF284609F013F800BF2C
:1039000000BF01E000BF00BFA079FF2802DAA07964
:10391000401CA071A079062803DAA1790120884013
:1039200000E03C2000EB4001C1EBC0104FF6FF71FE
:1039300001EAC00909F2F3104FF4FA7190FBF1F0BB
:10394000208100BF00BF5046BDE8FE8F70020020FE
:10395000A8990108AC9901087402002070B50D48BF
:10396000056814E06C6A8CB12089012803DD208988
:10397000401E20810AE02089012807D12089401EAD
:10398000208100BF00BF284601F069F82D68002D96
:10399000E8D170BD08020020F8B506460F46746AEB
:1039A0000020206260622648C07810B12548C068B7
:1039B000A0622348007918B122480069E06202E061
:1039C000A06A4008E0621E48407918B11D4840696D
:1039D000206304E0A06AC0EBC000C008206338691F
:1039E000E0611748807938B11649886906F0AAFF66
:1039F00020620120E07101E00020E0711048C079F0
:103A000020B11049C86906F09DFF606200250DE0F5
:103A100005F108010B4A52F8210006F093FF0090CF
:103A20006946284601F07CFA681CC5B2022D05DA09
:103A300005F108000249085C0028E9D1F8BD000042
:103A4000987801207078012070B50446656A00BF3F
:103A500000BF0C21284600F015FF054B1A46114601
:103A6000204608F02FFA2046FFF7EAFE70BD00005E
:103A7000A899010870B505460E466C6A00BF00BFE4
:103A80000B48807880B1002020810A49886806F0C0
:103A900059FFA06100BF00BF3069E06100BF00BFF7
:103AA000284600F009FE01E000BF00BF70BD000025
:103AB000987801207078012010B51C480078002803
:103AC0002DD100BF1A48006820B100BF19A0FFF730
:103AD00051F900BF00BF0FF06FFC154908600846A0
:103AE000006810B94FF0FF3010BD11480068407AEF
:103AF00040F020000E4909684872442217490C48DA
:103B000000680FF0E5F943221449094800680FF0F6
:103B100053FA00221249064800680FF087FC034858
:103B20000078401C014908700020DDE77802002081
:103B300074020020646863705F696E635F70636223
:103B40005F726566636F756E7428293A206D656DC6
:103B50006F7279206C65616B00000000A899010804
:103B60007D43000870B505466C6A04B970BD607984
:103B7000042809D003DC80B103280FD107E0052811
:103B800003D00A280AD101E000BF00BF00BF002017
:103B9000A071284600F05EFB10E00FE000BF6079E6
:103BA0000C2804DD00BF07A0FFF7E4F800BF00BF4A
:103BB0000020A0712846FFF743FE00BF00BF00BFF2
:103BC000D4E70000696E76616C6964206468637094
:103BD0002D3E7374617465002DE9F04104460D4675
:103BE00017461E4600BFA01C3044442804D900BF1D
:103BF0000748FFF7BFF800BF00BF2046611C8CB22A
:103C00002F542046611C8CB22E542046BDE8F08112
:103C10006C9C010870B504460D46164600BF442C46
:103C200004D300BF05A0FFF7A5F800BF00BF2046E2
:103C3000611C8CB22E54204670BD00006468637015
:103C40005F6F7074696F6E5F627974653A206F7030
:103C500074696F6E735F6F75745F6C656E203C2066
:103C6000444843505F4F5054494F4E535F4C454E6C
:103C70000000000070B504460D46164600BF201D2A
:103C8000442804D900BF0EA0FFF774F800BF00BF9E
:103C9000320E2046611C8CB22A54C6F307422046DD
:103CA000611C8CB22A54C6F307222046611C8CB2D8
:103CB0002A542046611C8CB22E54204670BD000050
:103CC000646863705F6F7074696F6E5F6C6F6E674E
:103CD0003A206F7074696F6E735F6F75745F6C6597
:103CE0006E202B2034203C3D20444843505F4F50F1
:103CF00054494F4E535F4C454E00000070B504468A
:103D00000D46164600BFA01C442804D900BF08A0D9
:103D1000FFF730F800BF00BF320A2046611C8CB2AA
:103D20002A542046611C8CB22E54204670BD0000DF
:103D3000646863705F6F7074696F6E5F73686F72D1
:103D4000743A206F7074696F6E735F6F75745F6C17
:103D5000656E202B2032203C3D20444843505F4F6D
:103D60005054494F4E535F4C454E000070B50446C9
:103D70000D461646FF222046611C8CB22A5404E0F0
:103D800000222046611C8CB22A54442C02D304F039
:103D9000030008B1442CF3D304F1F00081B23046A3
:103DA00008F09AFE70BD00002DE9F04F8BB08146FF
:103DB0000020069005900A21DE48FCF7D6FAB9F8F3
:103DC0000A002C2804D26FF001000BB0BDE8F08F80
:103DD000D9F8040004904FF0F00AB9F808000790F1
:103DE00000BF4C46CDF820A00AE06089AAEB000095
:103DF0001FFA80FA61890798401A80B207902468F8
:103E000014B160895045F0DD14B96FF00100DCE7B2
:103E100056460798099060680A9050E10A98805DBC
:103E2000039000274FF0FF38B01C1FFA80FBB3450A
:103E300001DAB81EC9E76189701C814203DD711C7B
:103E40000A98455C07E0206818B12068406800784F
:103E500000E0002005462F460398342854D00BDCA0
:103E6000032820D003DC80B101286FD111E006289F
:103E700024D033286AD13DE0352857D036285FD08A
:103E80003A2868D03B287AD16FE0002005460746E3
:103E90007BE000BF042D02D06FF0050095E700BF66
:103EA0004FF0060871E0042700BFBD4202DA6FF050
:103EB00005008AE700BF4FF0070866E000BFE9177A
:103EC00005EB91718910A5EB810111B16FF005002F
:103ED0007BE700BF082D01DA284600E008200746EE
:103EE00000BFBD4202DA6FF005006EE700BF4FF081
:103EF00008084AE000BF042D02D06FF0050064E717
:103F000000BF4FF0030840E000BF012D02D06FF06A
:103F100005005AE700BF00BF0898F02802D06FF0F4
:103F2000050052E700BF4FF000082EE000BF012D52
:103F300002D06FF0050048E700BF4FF0010824E011
:103F400000BF042D03D06FF005003EE717E000BF6F
:103F50004FF0020819E000BF042D02D06FF00500F9
:103F600033E700BF4FF004080FE000BF042D02D07C
:103F70006FF0050029E700BF4FF0050805E00027B6
:103F800000BF00BF00BF00BF00BF00BF039810B953
:103F9000701C86B277E07019801CB0F5803F02DBA0
:103FA0006FF0010011E77019801C86B2002F6ADDE6
:103FB0000020029000BF00BFB8F1000F02DBB8F193
:103FC0000A0F04DB00BF5CA0FEF7D4FE00BF00BFF9
:103FD000584810F80800B0BB042F01DA384600E05A
:103FE000042001905B4602A92046019A08F00AFBD2
:103FF00001460198814202D06FF00100E5E6042FEE
:1040000027DD00BFF91707EB91718910A7EB81013C
:1040100011B16FF00500D8E600BF0120454901F855
:104020000800029806F08EFC484941F82800381F25
:10403000C7B20BF1040080B200900098584503DA33
:104040006FF00100C1E61DE0DDF800B008F10108E5
:10405000B1E7042F04D1029806F074FC029009E045
:1040600000BF012F02D06FF00500AEE600BF9DF843
:104070000800029001202F4901F8080033490298F6
:1040800041F8280000BF6089B04217DC6089301A0F
:1040900086B261890998401A80B2099009988642CF
:1040A00009DA246800BF14B96FF005008DE600BF7F
:1040B00060680A9002E06FF0010086E600BF3CB144
:1040C0000998864204DA0A98805DFF287FF4A6AE3C
:1040D00018480078D0B11D4908680021154A1170B0
:1040E000012803D10121069100BF0EE0022803D16F
:1040F0000121059100BF08E0032804D101210591A9
:10410000069100BF01E000BF00BF00BF069830B1BC
:10411000002006904FF06C0AEC20079061E60598AD
:1041200030B1002005904FF02C0A6C20079058E623
:1041300000204AE698780120636865636B20646517
:10414000636F64655F696478000000007078012027
:104150002DE9FC4707467C6A00BF00BF04212046CA
:1041600000F090FB01AB032221463846FFF700FA2E
:104170000546002D44D06E680223392206F1F00175
:10418000BDF80400FFF728FD01903A8D06F1F0011B
:10419000BDF80400FFF7B2FD01900423372206F1B9
:1041A000F001BDF80400FFF717FD01904FF0000883
:1041B0000DE0254810F8082006F1F001BDF80400D4
:1041C000FFF728FD019008F1010000F0FF08B8F1A9
:1041D000040FEED32A4606F1F001BDF80400FFF704
:1041E000C5FD4323194A29461948009700680FF076
:1041F000E3F98146284608F095FB00BF00BF03E0C5
:1042000000BF00BF4FF0FF39A079FF2802DAA07984
:10421000401CA071A0790A2805DAA0794FF47A71C0
:1042200010FB01F001E042F210701FFA80FA0AF26E
:10423000F3104FF4FA7190FBF1F0208100BF00BF42
:104240004846BDE8FC87000070020020AC990108D8
:10425000740200202DE9FC5F8046D8F8244000BF9E
:1042600000BF0321204600F00DFB01AB03222146D5
:104270004046FFF77DF90646002E56D075680223AA
:10428000392205F1F001BDF80400FFF7A5FC01900B
:104290004FF4107205F1F001BDF80400FFF72EFD98
:1042A00001900423322205F1F001BDF80400FFF76C
:1042B00093FC0190E06906F045FB83465A4605F100
:1042C000F001BDF80400FFF7D5FC0190042337226C
:1042D00005F1F001BDF80400FFF77EFC0190002716
:1042E0000AE02348C25D05F1F001BDF80400FFF7C4
:1042F00091FC0190781CC7B2042FF2D3324605F12D
:10430000F001BDF80400FFF731FD4323194A31469F
:104310001948CDF8008000680FF04EF9814630460C
:1043200008F000FB00BF00BF03E000BF00BF4FF07C
:10433000FF39A079FF2802DAA079401CA071A0798A
:104340000A2805DAA0794FF47A7110FB01F001E038
:1043500042F210701FFA80FA0AF2F3104FF4FA7169
:1043600090FBF1F0208100BF00BF4846BDE8FC9FF4
:1043700070020020AC990108740200202DE9F05F62
:104380001646DDF828B0514847687C6AD6F8049094
:104390000CB1207900B994E000BF00BF00BF00BF9E
:1043A00000BF00BF00BF00BF70892C2802DA00BF29
:1043B00000BF86E099F80000022802D000BF00BFCD
:1043C0007FE000250CE007F12A00415D09F11C00A7
:1043D000405D814202D000BF00BF72E0681CC5B2E0
:1043E00097F83000A84201DD062DECD3D9F804007F
:1043F00006F0A8FA2168884202D000BF00BF60E042
:1044000021463046FFF7D0FC10B100BF00BF58E096
:1044100000BF00BF2E48407810B900BF00BF50E079
:10442000D6F804A02B4890F80480B8F1050F26D1E7
:1044300000BF00BF6079012810D151463846FFF710
:10444000ABFA97F8310000F0080018B13846FFF7D2
:104450002DF835E03846FEF781FF31E0607903281A
:1044600005D06079042802D06079052828D151460A
:104470003846FFF791FA3846FEF770FF20E0B8F1B2
:10448000060F11D16079032808D06079012805D082
:104490006079042802D06079052805D100BF00BFEB
:1044A0003846FFF7D1FA0BE0B8F1020F08D1607976
:1044B000062805D100BF00BF51463846FFF7DAFA9B
:1044C00000BF304608F02EFABDE8F09F808900203A
:1044D00098780120707801202DE9FE430646746A21
:1044E00000BF00BF0CB9BDE8FE83607900B9FAE7F0
:1044F000A06902900020A061E061206260622063F8
:10450000E062A062A08260822082E081304600F0FA
:1045100045FA00283FD00021204600F0B3F901AB56
:10452000072221463046FFF723F8054655B36F684A
:104530000423362207F1F001BDF80400FFF74CFB1D
:104540000190029806F0FEF98046424607F1F0011C
:10455000BDF80400FFF78EFB01902A4607F1F00139
:10456000BDF80400FFF702FC432302AA29461048C5
:10457000009600680FF020F8284608F0D3F900BF35
:1045800000BF01E000BF00BF0A4B1A46114630468B
:1045900007F098FC03E00021204600F073F9207931
:1045A00018B1FFF7BBF80020207100BF9BE70000A7
:1045B00074020020A89901082DE9FC4707467C6A8F
:1045C00000BF00BF0521204600F05CF901AB0322CB
:1045D00021463846FEF7CCFF0546002D45D06E68D3
:1045E0000223392206F1F001BDF80400FFF7F4FAC6
:1045F00001903A8D06F1F001BDF80400FFF77EFB53
:1046000001900423372206F1F001BDF80400FFF702
:10461000E3FA01904FF000080DE0254810F808205B
:1046200006F1F001BDF80400FFF7F4FA019008F17B
:10463000010000F0FF08B8F1040FEED32A4606F19E
:10464000F001BDF80400FFF791FB432304F11802C9
:1046500029461848009700680EF0AEFF81462846AC
:1046600008F060F900BF00BF03E000BF00BF4FF0DB
:10467000FF39A079FF2802DAA079401CA071A07947
:104680000A2805DAA0794FF4FA6110FB01F001E085
:1046900044F620601FFA80FA0AF2F3104FF4FA7120
:1046A00090FBF1F0208100BF00BF4846BDE8FC87C9
:1046B00070020020740200202DE9FE4F074600BF63
:1046C00047B900BF5DA0FEF755FB00BF6FF00F00BC
:1046D000BDE8FE8F00BF7C6A00BF3CB900BF5EA092
:1046E000FEF748FB00BF6FF00500F1E700BF00BF19
:1046F00000BF0121204600F0C5F802AB032221468D
:104700003846FEF735FF0646002E71D07568022345
:10471000392205F1F001BDF80800FFF75DFA0290BB
:104720003A8D05F1F001BDF80800FFF7E7FA0290B5
:104730000423322205F1F001BDF80800FFF74CFA1E
:104740000290E06906F0FEF883465A4605F1F00152
:10475000BDF80800FFF78EFA02900423362205F117
:10476000F001BDF80800FFF737FA0290A06906F0E3
:10477000E9F883465A4605F1F001BDF80800FFF755
:1047800079FA02900423372205F1F001BDF8080000
:10479000FFF722FA02904FF000080DE0354810F8BC
:1047A000082005F1F001BDF80800FFF733FA029088
:1047B00008F1010000F0FF08B8F1040FEED3324613
:1047C00005F1F001BDF80800FFF7D0FA2A484323AD
:1047D0002A4A3146CDE90070294800680EF07AFF78
:1047E0008146304608F09EF800BF00BF04E0FFE7B6
:1047F00000BF00BF4FF0FF39A079FF2802DAA0798F
:10480000401CA071A079062803DAA1790120884014
:1048100000E03C2000EB4001C1EBC0104FF6FF71FF
:1048200001EAC00A0AF2F3104FF4FA7190FBF1F0BA
:10483000208100BF00BF48464AE7000064686370FB
:104840005F73656C6563743A206E657469662021D8
:104850003D204E554C4C0000646863705F73656C7E
:104860006563743A206468637020213D204E554C86
:104870004C00000070020020A8990108AC990108C2
:104880007402002042798A4203D041710022827171
:104890000281704770B5044600BF3CB900BF2FA02D
:1048A000FEF768FA00BF6FF00F0070BD00BF00BFD9
:1048B00094F8310000F0010038B900BF2BA0FEF7DA
:1048C00059FA00BF6FF00F00EFE700BF656A00BF45
:1048D00000BF208DB0F5107F04DA00BF00BF4FF09D
:1048E000FF30E2E775B900BF00BF342006F0BCFD21
:1048F000054625B900BF00BF4FF0FF30D5E7656220
:1049000000BF05E000BF00BF287908B1FEF706FF31
:1049100034212846FBF729FD00BF00BFFFF7CCF884
:1049200010B14FF0FF30C0E70120287194F831003A
:10493000C0F3800028B902212846FFF7A3FF00201A
:10494000B3E72046FEF77CFF06462EB12046FFF770
:10495000C3FD4FF0FF30A8E73046A6E76E657469E7
:104960006620213D204E554C4C0000006E65746958
:1049700066206973206E6F742075702C206F6C64D4
:10498000207374796C6520706F72743F00000000B2
:1049900010B504462046FFF79FFD10BD014679B1D2
:1049A000486A68B14A6A50790A2805D050790528C2
:1049B00002D05079042801D1012070470020FCE783
:1049C0000020FAE770B505466C6A00BF00BF607949
:1049D000012805D060790A2802D06079052815D110
:1049E00000BF00BF2846FFF7E7FDA189628A881A49
:1049F00000EBD0710122B2EB610F07DCA189628A62
:104A0000881A00EBD071C1F34F01E18170BD70B520
:104A100005466C6A00BF00BF6079012808D0607944
:104A20000A2805D06079052802D06079042815D1BC
:104A300000BF00BF2846FFF78BFBA18A628A881A55
:104A400000EBD0710122B2EB610F07DCA18A628A10
:104A5000881A00EBD071C1F34F01218270BD70B58F
:104A600005466C6A00BF00BF60790C2802D06079EF
:104A7000062805D100BF00BF2846FEF7E1FE31E061
:104A80006079012811D100BF00BFA079052803DC9F
:104A90002846FFF711FE25E000BF00BF2846FFF7BC
:104AA0001BFD2846FFF7F6FE1CE0607908280CD1B4
:104AB00000BF00BFA079012803DC2846FEF7F6FC02
:104AC00010E02846FEF74AFC0CE06079032809D183
:104AD000A079022803DA2846FFF7BCFB02E028464B
:104AE000FEF7AEFE70BD00000146002051B1CA7A4B
:104AF000521C022A06DACA7A521C034B53F82220AF
:104B000002B1012070470000B80100202DE9F041FA
:104B100005460E46002428E004EB44003A4951F8CB
:104B2000200000B304EB440001EB8000007AA842AF
:104B300019D104EB4401344F07EB81014A6805EBBE
:104B40000511324F07EB011101F1100004EB440194
:104B50002D4F57F8213031469847002004EB44018F
:104B60003A4642F82100601CC4B2042CD4DB002475
:104B700021E0AC4200D11CE004EB0410234901EB1E
:104B80000010807A022813D104EB041001EB00100E
:104B9000C07B05EB05111D4A02EB0111C97B884260
:104BA00006D1042005EB051102EB0111C87304E0E6
:104BB00000BF601CC4B2042CDBDB00BF05EB05109A
:104BC000124901EB0010C07B04281BDA05EB05112C
:104BD0000E4A02EB0111C97B0D4A52F821000EF07A
:104BE00043FC002005EB0511084A02EB0111C97BCB
:104BF000074A42F82100042005EB0511034A02EBA5
:104C00000111C873BDE8F081508900201085002093
:104C10000085002010B5002404E0204600F006F8CE
:104C2000601CC4B2042CF8DB10BD000070B5064651
:104C300006EB0610344901EB001400BF042E04DB20
:104C400000BF32A0FEF796F800BF00BFA07A002890
:104C50004ED0012804D0022815D0032849D13CE0C9
:104C600000F072F820810220A0720020E072012082
:104C7000207300206073304600F08EF805460DB1B9
:104C800000BF00BF3DE0207B401EC0B2207318BBB8
:104C9000607B401CC0B26073042814D12046FFF72B
:104CA00023FF38B1E07A401CE0720120207300201D
:104CB00060730AE000BF00BF00213046FFF726FF07
:104CC0000020A0721DE0607B2073304600F064F885
:104CD00005460DB100BF00BF13E0206818B1206881
:104CE000401E206018B900BF00BF0020A07208E07D
:104CF00007E000BF00BF0CA0FEF73CF800BF00BFFC
:104D000000BF00BF70BD000010850020617272619D
:104D10007920696E646578206F7574206F662062F3
:104D20006F756E6473000000756E6B6E6F776E202A
:104D3000646E735F7461626C6520656E7472792055
:104D400073746174653A000070B500BFFBF7D4FA64
:104D500085B2002411E004EB04100A4901EB0010B5
:104D6000807A022807D104EB041001EB00100089BF
:104D7000A84200D1EAE7601CC4B2042CEBDB284651
:104D800070BD00001085002000BF00BF00BF00BF45
:104D900000BF00BF704700002DE9F04F89B0834687
:104DA0000BEB0B10554901EB001500BF00BF00BF16
:104DB000E87A022804DB00BF51A0FDF7DBFF00BF4B
:104DC00000BFE87A544951F8200040B90021584604
:104DD000FFF79CFE0020A87209B0BDE8F08F05F136
:104DE0001000FBF7CDFA123080B24FF4207201466A
:104DF0000290362007F0C0F90746002F73D000203C
:104E0000069007900890288905F0A9FDADF81800D4
:104E100001208DF81A000002ADF81C000C2206A932
:104E2000384607F05DFF05F11004641E0C2600BF34
:104E3000641CA0464FF0000904E009F1010000F0F5
:104E4000FF09641C20782E2802D020780028F4D195
:104E5000A4EB080080B2049006EB0900401CB0F5FA
:104E6000803F00DB43E04A463146384607F01FFEEC
:104E7000701C83B241463846049A07F0D3FF06EB14
:104E80000900401C86B220780028D1D1002231468A
:104E9000384607F00CFE701C86B24FF48070ADF8F7
:104EA0001400ADF816003346042205A9384607F071
:104EB000B9FFE87B039000BF00BF35200190E97A7D
:104EC000154800EB81000290144A039952F8210022
:104ED0003946DDE901320EF0FFFA8246384607F026
:104EE00021FD02E0FFE74FF0FF3A504674E73846F5
:104EF00007F018FD6FF005006EE700001085002038
:104F0000646E7320736572766572206F7574206F9E
:104F10006620617272617900B8010020008500206E
:104F200002280ADA21B1054A0B6842F8203004E071
:104F3000024A034B1B6842F820307047B80100203A
:104F4000A899010810B500BF00BFFFF763FE10BDB0
:104F50002DE9F04104460D4600BF05F0030020B1E5
:104F600000BF09A0FDF706FF00BF00BF2E4609F0F5
:104F700035F90746E06800683060E068066038464A
:104F800009F031F9BDE8F0816D656D705F6672659D
:104F9000653A206D656D2070726F7065726C792056
:104FA000616C69676E65640070B5054609F016F9B5
:104FB0000646E86804688CB12068E968086000BFAC
:104FC00004F0030020B100BF08A0FDF7D3FE00BF2E
:104FD00000BF304609F007F9204670BD304609F0A1
:104FE00002F900BF00BF0020F7E700006D656D709B
:104FF0005F6D616C6C6F633A206D656D70207072CF
:105000006F7065726C7920616C69676E6564000011
:1050100070B50546002411E004EB4400094901EB9A
:10502000C000067D4EB104EB440001EBC000806877
:10503000A84202D1204600F04FF9641C0A2CEBDB99
:1050400070BD0000A47801202DE9FF5F0646894667
:1050500017464FF00A0AD346D04600240A20039090
:10506000002002900190009000BF73E004EB440028
:10507000724901EBC000057DB8F10A0F04D11DB9DA
:1050800000BF00BFA04663E0002D61D000BF012D2E
:1050900006D0022D04DA00BF69A0FDF76BFE00BF49
:1050A00000BFBEB104EB4401644A02EBC1013068A9
:1050B000496888420ED13FB104EB4400114601EB30
:1050C000C0008068B84205D100BF00BF204604B0D0
:1050D000BDE8F09F012D28D104EB4400574951F859
:1050E000300080B104EB440001EBC000418A02981B
:1050F00081422DDB039404EB4400504901EBC000D6
:10510000408A029024E004EB44004C4901EBC000CB
:10511000418A019881421BDBA24604EB44004749C7
:1051200001EBC000408A019012E0022D10DB04EB7D
:105130004400424901EBC000418A0098814207DBEC
:10514000A34604EB44003D4901EBC000408A0090B7
:10515000601C04B20A2C89DB09F0020028B9B8F1FE
:105160000A0F07D109F0010020B900BF00BF4FF0BE
:10517000FF30ACE7B8F10A0F02DA444600BF2FE077
:10518000BBF10A0F0FDA5C4600BF00BF00BF04EBA3
:1051900044002A4951F8300020B100BF38A0FDF783
:1051A000E9FD00BF10E0BAF10A0F02DA544600BF71
:1051B0000AE003980A2802DA039C00BF04E000BF5B
:1051C00000BF4FF0FF3082E700BF0A2C04DB00BFB6
:1051D00031A0FDF7CFFD00BF00BF204600F07CF8F6
:1051E00000BF0A2C04DB00BF2BA0FDF7C3FD00BFEE
:1051F00000BF00BF04EB4400104901EBC000007D7C
:1052000020B100BF29A0FDF7B5FD00BF00BF36B13A
:1052100004EB4401094A02EBC101306848600020F8
:1052200004EB4401054A02EBC101488204EB44004F
:10523000114601EBC0008760204648E7A4780120B2
:105240007374617465203D3D204554484152505F60
:1052500053544154455F50454E44494E47207C7C51
:10526000207374617465203E3D204554484152507E
:105270005F53544154455F535441424C4500000034
:105280006172705F7461626C655B695D2E71203D57
:105290003D204E554C4C000069203C204152505F4F
:1052A0005441424C455F53495A4500006172705F5A
:1052B0007461626C655B695D2E7374617465203D19
:1052C0003D204554484152505F53544154455F4539
:1052D0004D5054590000000010B5044604EB440042
:1052E000194951F8300070B100BF00BF04EB440110
:1052F000154A52F8310007F015FB002004EB440179
:10530000114A42F83100002004EB44010E4A02EB3E
:10531000C101087504EB440102EBC101488204EBB2
:10532000440102EBC101886004EB440102EBC101BE
:10533000486004EB4400114601EBC00003490A68D1
:10534000C2608988018210BDA4780120B699010845
:10535000F0B587B007460D4600BF35B900BF35A090
:10536000FDF708FD00BF07B0F0BD00BF7C682088D6
:10537000B0F5807F08D12079062805D1607904280E
:1053800002D16088082805D000BF00BF384607F06A
:10539000C9FAE8E7D4F80E000690A069059068689D
:1053A00008B9002607E005986968884201D1012004
:1053B00000E0002006460EB1012000E00220034676
:1053C00004F1080206A9284600F0E6FBE088B0F5E3
:1053D000807F03D0B0F5007F22D11AE000BF00BF6C
:1053E00086B1022206AB04F10800291DCDE9023284
:1053F000CDE9001005F12A0302462631284600F0C7
:10540000A9FA05E0686808B900BF01E000BF00BF65
:1054100009E000BF00BF06A92846FDF777FF02E0BC
:1054200000BF00BF00BF00BF384607F07BFA00BFD7
:1054300099E700006E6574696620213D204E554C49
:105440004C0000002DE9FE4304460F461546A946D0
:1054500000BF24B900BF57A0FDF78CFC00BF00BF00
:1054600000BF27B900BF57A0FDF784FC00BF00BFF5
:1054700000BF25B900BF56A0FDF77CFC00BF00BFF0
:105480002146286800F0C8FF10B1DFF8548186E09B
:10549000287800F0F000E02816D101208DF80400F3
:1054A00000208DF805005E208DF80600687800F079
:1054B0007F008DF80700A8788DF80800E8788DF84F
:1054C00009000DF1040869E02868A1680840D4E9E2
:1054D0000112114088420ED0288880B24FF6A9618F
:1054E000884208D0E06810B104F10C0903E06FF0C5
:1054F0000300BDE8FE833B48007800EB40003A49DA
:1055000001EBC000007D02281BDB3648007800EB71
:10551000400001EBC0008068A04212D131490978F7
:1055200001EB4101304A02EBC101D9F800004968A2
:10553000884206D12B4802783946204600F056F8BA
:10554000D7E7002622E006EB4600274901EBC00022
:10555000007D022818DB06EB460001EBC0008068E6
:10556000A04211D106EB46011F4A02EBC101D9F856
:1055700000004968884207D11A4806703246394609
:10558000204600F033F8B4E7701CC6B20A2EDADB0E
:105590003A464946204600F0A9F8AAE700BF4FF472
:1055A0000060434604F12A0239460090204600F08C
:1055B0006FFC9EE76E6574696620213D204E554C58
:1055C0004C0000007120213D204E554C4C00000045
:1055D00069706164647220213D204E554C4C00007E
:1055E000B099010880020020A4780120F8B5054692
:1055F0000E46144600BF04EB44002F4901EBC000E7
:10560000007D022804DA00BF2CA0FDF7B3FB00BF29
:1056100000BF04EB4400284901EBC000007D0228D4
:1056200039D104EB440001EBC000408AB0F58E7F15
:1056300011DD04EB44000A4602EBC000011D2846C0
:1056400000F014FA38BB032004EB44011A4A02EBC1
:10565000C10108751FE004EB4400174901EBC000CD
:10566000408AB0F5877F16DB04EB44000B4603EB62
:10567000C00000F10C0204EB440003EBC000011D6C
:10568000284600F001FA30B9032004EB44010A4A2D
:1056900002EBC10108754FF40060009004EB440078
:1056A000054901EBC00000F10C0305F12A02314667
:1056B000284600F0EDFBF8BDA47801206172705F10
:1056C0007461626C655B6172705F6964785D2E7392
:1056D00074617465203E3D204554484152505F53EB
:1056E000544154455F535441424C45002DE9FC5F01
:1056F00081460F46164609F12A0001904FF0FF3A05
:105700004FF0000B4946386800F086FE38B938780B
:1057100000F0F000E02802D00FB1386828B900BFCF
:1057200000BF6FF00F00BDE8FC9F4A4601213846DC
:10573000FFF78AFC8046B8F1000F07DA00BF00BF10
:105740000EB100BF00BF4FFA88F0ECE700BFB8F120
:105750007F0F04D300BF65A0FDF70CFB00BF00BFA7
:1057600008F0FF0404EB4400644901EBC000007D35
:1057700078B94FF0010B012004EB44015F4A02EBC2
:10578000C101087504EB4400114601EBC000C0F8EC
:10579000089000BF04EB4400584901EBC000007DB5
:1057A00001280BD004EB440001EBC000007D02286F
:1057B00004DA00BF52A0FDF7DDFA00BF00BFBBF165
:1057C000000F00D1F6B93946484600F04FF982463D
:1057D000BAF1000F13D104EB4400484901EBC000BB
:1057E000007D01280BD1BBF1000F08D100BF00BF25
:1057F000002004EB4401414A02EBC10148820EB98A
:10580000504690E700BF26B900BF47A0FDF7B2FAA7
:1058100000BF00BF04EB4400384901EBC000007D2D
:10582000022811DB434804704FF40060009004EB41
:10583000440001EBC00000F10C0331464846019AD8
:1058400000F026FB82464FE004EB44002B4901EBBD
:10585000C000007D012847D100200090354614E0AB
:1058600000BF68892989884206D1286820B100BF15
:1058700031A0FDF77FFA00BF00BF287B00F0400099
:1058800010B10120009002E02D68002DE8D100BF8A
:10589000009838B132464FF420710E2006F064FEB5
:1058A000054603E03546284607F08EF9BDB104EB06
:1058B0004400124951F8300040B100BF00BF04EB72
:1058C00044010E4A52F8310007F02CF804EB440072
:1058D0000A4941F830504FF0000A00BF03E000BF12
:1058E00000BF4FF0FF3A00BF50461CE77479706567
:1058F000206F766572666C6F77000000A4780120D7
:105900006172705F7461626C655B695D2E73746156
:105910007465203D3D2050454E44494E47206F72EE
:1059200020535441424C45007120213D204E554C9E
:105930004C000000800200206E6F207061636B6578
:10594000742071756575657320616C6C6F77656423
:10595000210000002DE9FC5F06460F46904699465F
:10596000DDE90CAB0020019000BF26B900BF2DA0DF
:10597000FDF700FA00BF00BF4FF420721C210E207B
:1059800006F0FAFB05462DB900BF00BF4FF0FF300F
:10599000BDE8FC9F00BF68891C2804DA00BF25A071
:1059A000FDF7E8F900BF00BF6C6800BF00BF0F98AB
:1059B00004F0D5FFE08000BF96F83000062804D040
:1059C00000BF2948FDF7D6F900BF00BFD9F8000095
:1059D000A060B9F80400A081DBF80000C4F8120050
:1059E000BBF80400E082DAF80000C4F80E000E985C
:1059F0000068A0614FF4807020800820608006203D
:105A000020710420607140F6060043463A4629465C
:105A10000090304600F03CFA284606F083FF00254F
:105A20000198B5E76E6574696620213D204E554C9E
:105A30004C000000636865636B20746861742066C5
:105A40006972737420706275662063616E20686F7E
:105A50006C6420737472756374206574686172700D
:105A60005F68647200000000B09C010870B50446D5
:105A70000D4600BF00BF034A2946204600F004F847
:105A800070BD0000B09901087FB504460D4616466A
:105A90000121074A201D04F12A038DE82500039106
:105AA000324619462046FFF755FF04B070BD00008E
:105AB000B699010870B500BF00BF002466E004EB92
:105AC0004400344901EBC000057D002D5DD004EB9E
:105AD000440001EBC000408A401C04EB44012D4A05
