:020000040800F2
:1000000030E901205502000863020008650200087B
:1000100067020008690200086B0200080000000087
:100020000000000000000000000000006D02000859
:100030006F0200080000000047030008093A0008AA
:1000400075020008750200087502000875020008B4
:1000500075020008750200087502000875020008A4
:100060007502000875020008750200087502000894
:100070007502000875020008750200087502000884
:100080007502000875020008750200087502000874
:100090007502000875020008750200087502000864
:1000A0007502000875020008750200087502000854
:1000B0007502000875020008750200087502000844
:1000C0007502000875020008750200087502000834
:1000D000750200081D3A0008750200087502000844
:1000E0007502000875020008750200087502000814
:1000F0007502000875020008750200087502000804
:1001000075020008750200087502000875020008F3
:1001100075020008750200087502000875020008E3
:1001200075020008750200087502000875020008D3
:1001300075020008750200087502000875020008C3
:1001400075020008750200087502000875020008B3
:1001500075020008750200087502000875020008A3
:100160007502000875020008750200087502000893
:100170007502000875020008750200080000000002
:10018000750200087502000800F002F800F052F84D
:100190000AA090E8000C82448344AAF10107DA45E2
:1001A00001D100F047F8AFF2090EBAE80F0013F0E2
:1001B000010F18BFFB1A43F001031847FCDB0000D6
:1001C0001CDC0000103A24BF78C878C1FAD8520766
:1001D00024BF30C830C144BF04680C6070470000C1
:1001E0000023002400250026103A28BF78C1FBD840
:1001F000520728BF30C148BF0B60704766290AF01C
:10020000D084642900F05481782900F08D8173290D
:1002100000F02D85002070471FB50AF0BDFC00F0EE
:100220003DFD0400002000210AF068F9E0601FBDD8
:1002300010B510BD00F036FE1146FFF7EDFF08F0D7
:100240007FFA00F054FE03B4FFF7F2FF03BC03F0A3
:100250004AFC00000B48016841F4700101600A4843
:100260000047FEE7FEE7FEE7FEE7FEE7FEE7FEE704
:10027000FEE7FEE7FEE7000004480549034A054B98
:100280007047000088ED00E08901000830E501209A
:1002900030E9012030E50120EFF3098121B120EDA3
:1002A000108A42490A6810607047B0EC108A4049D1
:1002B0000A681060704772B602B4EFF3118180F3E0
:1002C0001188BFF34F8FBFF36F8F084602BC62B631
:1002D000704772B680F31188BFF34F8FBFF36F8FF3
:1002E00062B6704772B633484FF0FF0101700020CC
:1002F00080F309883048016881F3088802F0E8FB40
:100300002E48012101702E482E490A780270274894
:1003100027490A680260106880F30988EFF31480A7
:1003200040F0020080F31488BFF36F8FBDE8F04FF8
:100330000FBCBDE8005006BC62B6084722484FF02B
:1003400080510160704772B640F2B002C2F2000202
:10035000116881F31188BFF34F8FBFF36F8F62B6BF
:10036000EFF3098020E9F04F104D296808607446CA
:1003700002F0AEFB124813490A7802700C490A6871
:100380002A6044F0040E1068B0E8F04F80F309884A
:1003900040F20002C0F2000272B682F31188BFF38D
:1003A0004F8FBFF36F8F62B670470000E0000020F0
:1003B000E800002022ED00E0A8000020D700002087
:1003C000CF000020D000002004ED00E070470000C6
:1003D0000FB4044910B503AA029800F04DFC10BCFC
:1003E0005DF814FB280000200FB41CB5074B06AACB
:1003F0007B4469460090059800F00FFC0020694698
:1004000000F01EFC1CBC5DF814FB00004D08000051
:1004100070B5044685690068C10601D5302600E044
:100420002026C00707D070BDD4E90121304690478F
:10043000206A401C20626D1EF6D570BD70B5044662
:1004400085690078C00707D170BDD4E9012120205B
:100450009047206A401C20626D1EF6D570BD70B5B5
:100460000C460546012A05D02878800600D5EA69A1
:10047000002302E0012305E05B1C934202D2E05C12
:100480000028F9D1A869E618C01AA861286A18449A
:1004900028622846FFF7BCFF04E0D5E9012114F8E3
:1004A000010B9047B442F8D32846FFF7C7FF70BD51
:1004B0002DE9F0410646002410687529314616A53D
:1004C00010D0AFF30080002802DA404213A507E005
:1004D00031688A0701D512A502E0490704D511A5A4
:1004E000012401E0AFF3008000210A2206F1240775
:1004F00009E0B0FBF2FCB0FBF2F302FB1C00303071
:1005000078541846491C0028F3D123462A46304621
:10051000BDE8F04100F014B9000000002D0000001B
:100520002B0000002000000070B504460D46214657
:100530001068AFF300802188090502D50F4A7A447C
:1005400002E00E4A7A440E32002104F1240305E051
:1005500000F00F060009965D5E54491C0028F7D193
:1005600020780023000704D5702D02D009B10223A2
:1005700011322046BDE8704000F0E2B82AD70000F2
:100580002DE9F05F894604464FF0000ADFF824B1F8
:10059000FB44C0F820A02046E168884700287DD0B1
:1005A000252806D0D4E901219047206A401C20620A
:1005B000F1E700255F462046E16888472028064687
:1005C00007DB312E05D2B81910F8200C08B105430D
:1005D000F1E7A80701D525F00405C4F81CA0002701
:1005E000C4F818A02A2E09D0304603F075FA38B3A3
:1005F00004EB8708303EC8F8186019E059F8041B6E
:10060000204604EB87029161E1688847012F064686
:1006100018D1E069002820DA25F020051DE0D8F87F
:10062000180000EB800006EB40003038C8F81800D6
:100630002046E1688847064603F04EFA0028EED1CE
:10064000012F0AD02E2E08D12046E16888477F1C52
:100650000646022F45F02005C4DBA069002803DA16
:10066000404245F00105A061E80701D025F01005E2
:10067000A6B1A6F14100192802D8203645F400653C
:100680004A463146204625604D46FFF7B7FD60B12A
:10069000012807D0ED1D25F0070000E007E000F17C
:1006A000080978E705F1040975E730467AE7206A1A
:1006B000BDE8F09F00D700004FF0013C50F8042B3C
:1006C00051F8043B9A4221D1A2EB0C03934313EA65
:1006D000CC1317D150F8042B51F8043B9A4215D192
:1006E000A2EB0C03934313EACC130BD150F8042B69
:1006F00051F8043B9A4209D1A2EB0C03934313EA4D
:10070000CC13DBD04FF00000704700BFD01A01BA05
:10071000B1FA81F101F0180122FA01F0CB40C1F1E8
:100720002001DBB2C0B2C01A2CFA01F3D11A9143F6
:1007300011EAC311E6D170477047704770477047A0
:100740002DE9F0470D4699469246044600F12408EB
:100750000168880604D5E06921F01001216000E0FD
:100760000120A84201DD471B00E00027A1697A199A
:1007700002EB0900081AA0612078C00602D42046C6
:10078000FFF746FE002608E0D4E901211AF806002A
:100790009047206A401C761C20624E45F4DB20788E
:1007A000C0060AD52046FFF733FE06E0D4E9012152
:1007B00030209047206A401C2062381EA7F10107B4
:1007C000F4DC07E0D4E9012118F805009047206A1D
:1007D000401C2062281EA5F10105F3DC2046FFF72E
:1007E0002DFE2078000602D50220BDE8F08701200A
:1007F000FBE770472DE9FF4F0C461E464FF0FF37D1
:100800008BB0D2E90001DDF860800A908A46C1F31E
:100810000A5505B93D46002108464FF00000BAF1DF
:10082000000F00F4400005DA00EB80004FF44001B7
:1008300001EA50004FEA9059B9F1010F00DDB946C5
:100840000A9850EA4A000ED044F61050A5F2FF353F
:1008500045432F14B8F1000F1ED07542291E1EDD2E
:10086000C9F100021CE0B8F1010F4FF0000001D007
:10087000302103E0F24305E02154401CB042FBDB91
:1008800030460022002121540B99C1F80880C1E9AB
:1008900000200FB0BDE8F08FBD1B6D1CDEE74A469F
:1008A00000DA694206A800F083FA06AB93E8070075
:1008B00003AB83E8070050460A9900F021FB8DE85E
:1008C0000700A0F500501F3800900398002D0ADDA6
:1008D00042F21F014A460844002303A903906846D8
:1008E00000F08AFD09E0A0F500504A461F380023B9
:1008F00003A90390684600F094FD8DE8070000040A
:10090000000C03D04FF0FF30410800E01046B8F172
:10091000000F03D00022009215461EE0751E05D47C
:1009200000F0C0F9303262556D1EF9D5B346012290
:10093000084302D000227F1C04E02078302801D137
:1009400000227F1E002A099784D01DE0112D07DAAE
:1009500000F0A8F9303262556D1C50EA0102F5D161
:10096000084302D00098C8B10EE00021681E05E0DF
:10097000235C625C63542254401E491C8142F7DBB5
:10098000AB46A81B401E0990002004F80B000B98F2
:10099000099AC0F80880C0E9002B7AE711264FF0C9
:1009A000000857E72DE9F04F88460446D21D22F093
:1009B000070191B0D1E90001CDE90A0103F074F813
:1009C00002460B98C00F01D02D2007E02068810758
:1009D00001D52B2002E0202101EAC000032A099062
:1009E00001D0072A05DB03464146204600F0A0F966
:1009F0000BE12078800601D5E06900E00620B8F11F
:100A0000650F814606D0B8F1660F18D0B8F1670FB0
:100A100070D131E00020B9F1110F009001DB1123FA
:100A200001E009F101030AAA01A90CA8FFF7E2FEFF
:100A3000DDE90C70002609F10105834647E001203D
:100A40004B4600904FF000470AAA01A90CA8FFF7F7
:100A5000D1FEDDE90DB00C995D46002610B909F113
:100A600001000D18B9EB050003D4C0F1FF3609F100
:100A70000105A5EB09002BE0B9F1010F01DA4FF0F8
:100A800001090020B9F1110F0090484601DD112342
:100A900000E003460AAA01A90CA8FFF7ABFEDDE9B6
:100AA0000C704D4600268346207800070AD4AB45DB
:100AB00000DA5D4601A8012D04DD411911F8011C81
:100AC000302907D04F4502DA17F1040F04DA01206C
:100AD00082460FE06D1EEEE7002F02DCED1B3E4468
:100AE00003E0781CA84200DD7D1CB81B00F1010A60
:100AF0004FF000472078000703D4AA4501DB4FF0F0
:100B0000FF3A0021B7F1004F0DF143088DF8431073
:100B100024D002202B23002F01DA7F422D230A212B
:100B2000021EA0F1010000DC5FB197FBF1FC97FB16
:100B3000F1F201FB1C7C17460CF1300C08F801CDDA
:100B4000EEE7A8F1010003702188090501D54521D0
:100B500000E06521A0F1010800F8011C09980FA927
:100B6000A1EB0807FF1D00B10120411901EBEA705C
:100B7000A1693844081A401EA0612078C00602D43A
:100B80002046FFF745FC099828B1D4E90121904798
:100B9000206A401C20622078C00622D52046FFF73C
:100BA00037FC1EE0002E04DBB34502DD01A8805DAA
:100BB00000E03020D4E901219047206A401C2062E7
:100BC000761CAAF101005FEA000A0AD100F066F87B
:100BD000C0680168405CD4E901219047206A401C4C
:100BE0002062281EA5F10105DCDC07E0D4E9012123
:100BF00018F8010B9047206A401C2062381EA7F1AC
:100C00000107F3DC2046FFF719FC032011B041E691
:100C100001694A1C02610878704700B58FB0CDE9C0
:100C200001310021059105497944CDE903101146B0
:100C30006846FFF7A5FC0FB000BD0000E5FFFFFF11
:100C40000A6802F8010B0A60704710B5436913B1D6
:100C5000AFF3008001E0FFF702FC012010BD127825
:100C600000F124010A7000224A700122EDE71168A8
:100C70004FF0FF32E9E70000074B70B50D467B44AB
:100C8000FFF7CBFF0446284600F004F910B14FF0FF
:100C9000FF3070BD204670BDEB3300000048704748
:100CA000ECE4012030B5B0F10A024FEA900E71F188
:100CB00000034EEA817EB0EB0E0061EB91014FEA3A
:100CC000101E4EEA017E10EB0E0041EB11114FEAAF
:100CD000102E4EEA016E10EB0E0041EB11214FEA8F
:100CE000104E4EEA014E10EB0E0041EB1141401840
:100CF00041F100014FEAD00040EA41704FEAD101D2
:100D000010EB80054FEA810444EA907444EB01043F
:100D10006D1944EB0404521BA3414FF0000348BF7C
:100D20000A3200D530BD401C41F1000130BD000049
:100D30002DE9F0411F46044603260168072A01F405
:100D4000006004DB08B116A505E016A503E008B1B4
:100D500015A500E015A521F010002060A069C01EB7
:100D6000A0610FB1401EA0612046FFF751FB4FB1BB
:100D7000D4E9012138469047206A401C2062C01CFB
:100D8000206206E0206AFAE7D4E9012115F8010B98
:100D90009047761EF8D22046FFF750FBBDE8F08161
:100DA0004E414E006E616E00494E4600696E66000F
:100DB0002DE9F047814616468AB0354878440DC87B
:100DC0008DE80D0032487844801C03AC0DC884E8DF
:100DD0000D0041F69B300844372190FBF1F290FB67
:100DE000F1F5A5F1800501FB12041B3C02D564421C
:100DF000012000E00020DFF898A080460027FA4498
:100E0000AAF1BE0A0EE0E0070AD03246684607EBB8
:100E1000470101230AEB810100F003FB8DE8070085
:100E200064107F1C002CEED1194F7F44AE3F19E0B7
:100E3000E80715D007EB04100DF1180A90E80E0032
:100E40008AE80E00C068F04201D198190890324635
:100E5000012306A903A800F0E4FA03AB83E8070026
:100E60006D10641C002DE3D14FF00103324669463A
:100E7000B8F1000F03A802D000F0BEFA01E000F0C4
:100E8000D0FAC9E90001C9F808200AB0BDE8F08726
:100E900064CF0000007B00F080007047004870477E
:100EA000CCE401207546FFF7F9FFAE460500694620
:100EB000534620F00700854618B020B5FFF7DCF94F
:100EC000BDE820404FF000064FF000074FF000084B
:100ED0004FF0000B21F00701AC46ACE8C009ACE8CC
:100EE000C009ACE8C009ACE8C0098D46704710B530
:100EF0000446AFF300802046BDE81040FFF7A3B9D9
:100F00005FEA400C08BF91F0000F4FEA8C234FEAD4
:100F1000C12243EA51514FEA1C5018BF00F5F0407E
:100F20004FEA300018BF41F000415FEA6C5C00F00E
:100F30002980BCF1FF3F08BF40F080407047130C90
:100F400006BF12044FF0100C4FF0000C130E04BF3C
:100F500012020CF1080C130F04BF12010CF1040C67
:100F6000930F04BF92000CF1020CD30F04BF520088
:100F70000CF1010C11464FF00002A0F11F00A0EB94
:100F80000C00704711F0004F08BF704731F000416E
:100F90003FF4D5AF0B0C06BF09044FF0100C4FF017
:100FA000000C0B0E04BF09020CF1080C0B0F04BF60
:100FB00009010CF1040C8B0F04BF89000CF1020C29
:100FC000CB0F04BF49000CF1010CCCF12003A0EBC6
:100FD0000C0022FA03F302FA0CF241EA030100F1D9
:100FE0000100704720F07F4C80EA030023F07F4728
:100FF000ACEB070303F57C5300F0004003F1FF0363
:101000002DE980494FEA154B09B44FEA144325EA0C
:101010000B4E24EA03480FF2042606EB1327490877
:101020003E785FEA320203FB0667C7F5000707FB5D
:1010300006F64FEA54374FEAD64606F1020607FB9A
:10104000066CCCF1005C4FEA1C472CEA074C07FB0E
:1010500006F40CFB06F504EB15464FEA961634BF72
:1010600000204FF000404FEAD13706FB07FC4FEA63
:101070001C4C0CFB0BF7D21B03FB0CF761EB0701BD
:101080000CFB0EF7B0EB074072EB17420CFB08F7B6
:1010900034BFA2EB0742B2EB074261EB17414FEAC4
:1010A0000C444FEA910706FB07FC4FEA1C4C0CFB73
:1010B0000BF7B0EBC74072EB573203FB0CF734BFB2
:1010C000A2EBC742B2EBC74261EB57310CFB0EF704
:1010D000B0EBC70072EB57720CFB08F734BFA2EB02
:1010E000C702B2EBC70261EB5771039F4FEA816100
:1010F00041EA921104EBCC044FEAD1374FEA826205
:1011000006FB07FC42EA90124FEA80604FEA1C4C53
:101110000CFB0BF7D21B03FB0CF761EB07010CFB7D
:101120000EF7B0EB074072EB17420CFB08F734BF29
:10113000A2EB0742B2EB074261EB17414FEA8C5535
:101140004FEA910704EB9C2406FB07FC4FEA1C4C7A
:101150000CFB0BF7B0EBC74072EB573203FB0CF7FD
:1011600034BFA2EBC742B2EBC74261EB57310CFB75
:101170000EF7B0EBC70072EB57720CFB08F734BFE9
:10118000A2EBC702B2EBC70261EB577115EB4C251E
:101190004FEA816141EA92114FEA82624FEAD13708
:1011A00042EA901206FB07FC44F100044FEA80601B
:1011B0004FEA1C4C0CFB0BF7D21B03FB0CF761EB4B
:1011C00007010CFB0EF7B0EB074072EB17420CFB6C
:1011D00008F734BFA2EB0742B2EB074261EB1741BD
:1011E00015EB1C154FEA813141EA92414FEA8232F8
:1011F00042EA90424FEA80304FEA0C7644F1000414
:1012000048EA03434EEA0B484FF0000EB2EB080CDD
:1012100071EB030724BF624639464EEB0E0E4FF0CA
:10122000000B0018524149414BEB0B0BB2EB080C81
:1012300071EB03077BF1000B24BF624639464EEB8E
:101240000E0E4FF0000B0018524149414BEB0B0BB7
:10125000B2EB080C71EB03077BF1000B24BF624675
:1012600039464EEB0E0E51EA020718BF46F0010652
:1012700016EB0E7655F1000254F1000103D5BDE8DE
:101280008901BDE80088BDE88901BDE80048B619BC
:10129000524141EB0101A3F10103704780807F7E41
:1012A0007D7C7B7A797877767675747372717170DC
:1012B0006F6E6E6D6C6C6B6A6A696868676666658E
:1012C0006464636362616160605F5F5E5E5D5D5C1C
:1012D0005C5B5B5A5A59595858575756565555558D
:1012E0005454535352525251515050504F4F4F4EED
:1012F0004E4D4D4D4C4C4C4B4B4B4A4A4A4949493B
:10130000484848474747474646464545454444447C
:10131000444343434342424242414141002B9C46A5
:1013200030D477002BD01CB54FEA370703B44FF009
:1013300010004FF01001BAF1000F06D0BCF1000F01
:10134000DCBF40F0080040F008014FF000000FBC87
:10135000BDE810400BF1010BBBF1010F08BF5FEAC4
:10136000170722BF12F1010211F101014FF00041F4
:1013700043F1000300F0004043EA00007047F9D356
:101380005708D0E746EA064613F1400F4FEA1646E3
:101390001FDD13F1200FDFBF16430A460021203363
:1013A0005B42BED0C3F1200746EA064602FA07F7C1
:1013B0004FEA164646EA0706C3F1200722FA03F26F
:1013C00001FA07F721FA03F14FF0000342EA07029E
:1013D000A7E746EA020646EA06464FEA164646EA06
:1013E0000106BCBF46EA0646360C4FF000034FF03C
:1013F00000024FF0000194E72DE9804C9A46934695
:1014000070B491E8380007C831EA400C48BF34EAAC
:10141000430C03D5FFF7E6FDFFF780FFF0BCBDE806
:10142000008C2DE9804C9A46934670B491E83800C0
:1014300007C810F0804F08BF13F0804F03D100F0B1
:1014400005F8FFF76BFFF0BCBDE8008C20F07F478C
:1014500080EA030023F07F4C07EB0C03A3F57C53D9
:1014600000F00040A3F1FE0392F0000F00F0B38003
:1014700095F0000F00F077802DE901494FEA114007
:101480004FEA144621EA004800FB06FC24EA06471E
:1014900008FB06F607FB08F800FB07F718EB064801
:1014A0004CEB164C4FEA124B18EB07484FEA154627
:1014B0004CEB174022EA0B4E0BFB06FC25EA0647D5
:1014C0000EFB06F607FB0EFE0BFB07F71EEB064EA8
:1014D0004CEB164C4FF000061EEB074E4CEB174B37
:1014E00018EB0B0840F1000018EB0E0B58EB00084E
:1014F00040F100008F1A4FF000013CBFC943661B4A
:1015000014BFB5EB040C00213CBFC943F61B4FEAE6
:1015100017444EEA8E0E27EA04454FEA1C4704FBA7
:1015200007622CEA074C05FB07F70CFB05F604FBEA
:101530000CFC16EB074642EB174216EB0C4642EB4F
:101540001C421BEB060658EB0202414146EA9E068E
:1015500001D5BDE80189B619524141EB0101A3F162
:101560000103BDE801894FEA14454FEA114724EA17
:10157000054621EA074C05FB07F406FB07F70CFBC1
:1015800006F105FB0CFC11EB074144EB17444FEA55
:10159000124711EB0C4144EB1C4422EA074C05FBBB
:1015A00007F206FB07F70CFB06F605FB0CFC16EB37
:1015B000074642EB174216EB0C4642EB1C456A18F5
:1015C00054F1000148BF7047B619524141EB010187
:1015D000A3F10103704795F0000F37D04FEA114295
:1015E0004FEA144721EA024624EA074C02FB07F1BE
:1015F00006FB07F70CFB06F402FB0CFC14EB07449C
:1016000041EB17414FEA154714EB0C4441EB1C41E9
:1016100025EA074C02FB07F506FB07F70CFB06F66D
:1016200002FB0CFC16EB074645EB174516EB0C4688
:1016300045EB1C42121951F1000148BF7047B61921
:10164000524141EB0101A3F1010370474FEA1445F8
:101650004FEA114724EA054621EA074C05FB07F14A
:1016600006FB07F70CFB06F24FF0000605FB0CFC2F
:1016700012EB074241EB174112EB0C4251EB1C41BC
:1016800048BF7047921841EB0101A3F10103704775
:101690002DE9F04106460D4600271648007820B196
:1016A000102028700020BDE8F08100BF1020FEF758
:1016B00002FE074600BF1048046894B10068406805
:1016C0000D490860052020702681002060600BA075
:1016D000E06000BF3846FEF7FCFD00BF0020287028
:1016E00006E000BF3846FEF7F4FD00BF7220287008
:1016F0002046D8E7CD000020BC0000203F000000BD
:101700002DE9F04F89B005460F4691469A46129E44
:10171000002002909C48007828B102203070002000
:1017200009B0BDE8F08F9948007818B10D203070ED
:101730000020F5E72878052803D00120307000202C
:10174000EEE709F0800BBBF1000F04D009F07F0930
:101750004FF0010801E04FF0000800BF1020FEF735
:10176000AAFD029000BFB9F1000F52D0B9F1010FEC
:1017700076D0B9F1020F03D0B9F1030F6FD124E095
:10178000288900EA0704BC4211D1B8F1010F02D147
:101790002889A04328817E480068048500BF0298FC
:1017A000FEF797FD00BF002030702046B8E74B469B
:1017B0003A4604A92846CDF800A001F063FD00BF19
:1017C0000298FEF786FD00BF78E0288900EA07044A
:1017D0008CB1B8F1010F02D12889A04328816C484F
:1017E0000068048500BF0298FEF773FD00BF00206B
:1017F0003070204694E74B463A4604A92846CDF877
:1018000000A001F03FFD00BF0298FEF762FD00BF9F
:1018100054E0288927EA0004BC4211D1B8F1010F35
:1018200002D128892043288159480068048500BFD7
:101830000298FEF74EFD00BF0020307020466FE793
:101840004B463A4604A92846CDF800A001F01AFDFF
:1018500000BF0298FEF73DFD00BF2FE000E023E04F
:10186000288927EA00048CB1B8F1010F02D1288938
:101870002043288146480068048500BF0298FEF78F
:1018800028FD00BF00203070204649E74B463A460D
:1018900004A92846CDF800A001F0F4FC00BF02988E
:1018A000FEF717FD00BF09E000BF0298FEF711FD2B
:1018B00000BF00246F203070204631E700BF01F0E8
:1018C000D5FE00BF1020FEF7F6FC029000BF3048A6
:1018D000006890F8310030B32D48006890F831006E
:1018E000039000202A49096881F8310004A801F01A
:1018F00077FD00202649096881F8300000BF029872
:10190000FEF7E7FC00BF00240398012805D0022859
:1019100002D10E20307003E000BF0A20307000BFFB
:1019200000BF2046FCE61A480068048DB8F1010F9C
:1019300020D1B9F1000F0ED0B9F1010F0CD0B9F1DF
:10194000020F03D0B9F1030F0AD100E000BF2889CC
:10195000A04328810DE000BF28892043288108E0AA
:1019600000BF0298FEF7B5FC00BF6F20307000206A
:10197000D6E600BF00BF0298FEF7ABFC00BF002018
:1019800030702046CCE60000CD000020CE000020C4
:10199000E00000202DE9FC5F0446894692461E4681
:1019A000002000902078052804D00120307000200D
:1019B000BDE8FC9F00BF1020FEF77DFC009000BF3B
:1019C000BAF1000F03D0BAF1010F0AD104E0208967
:1019D00020EA090020810DE0208940EA09002081E9
:1019E00008E000BF0098FEF774FC00BF7120307063
:1019F0000020DDE700BF4FF0000B65685BE0A87CCE
:101A000050B301283BD0022802D0032848D112E06D
:101A10002089298A00EA0107288AB8420AD10022CF
:101A20003946284601F0ACFC8046B8F1010F01D1DF
:101A30004FF0010B3DE02089298A00EA010757B1E8
:101A400000223946284601F09BFC8046B8F1010F80
:101A500001D14FF0010B2CE0288A218920EA0107EF
:101A6000288AB8420AD100223946284601F088FC6B
:101A70008046B8F1010F01D14FF0010B19E0288A1F
:101A8000218920EA010757B100223946284601F092
:101A900077FC8046B8F1010F01D14FF0010B08E04F
:101AA00000BF0098FEF715FC00BF6F2030700020CB
:101AB0007EE700BF2D68002DA1D100BF0098FEF782
:101AC00008FC00BFBBF1010F01D101F0CFFD00BF49
:101AD0001020FEF7F0FB009000BF2089019000BFAE
:101AE0000098FEF7F6FB00BF0020307001985FE71A
:101AF00010B500F015F801F0A9FC01F0D5FC01F0DB
:101B0000F5FC01F07FFC01F00FFC01F087FD01F016
:101B10002BFD01F051FD01F0C1F900F02FF810BDCF
:101B200010B510484FF4807202E0521E002308C026
:101B3000002AFAD10C4B0D4C236023461B6823F07E
:101B4000070323600A4B196801F04043B3F1404F8B
:101B500001D000BFFEE70023064C23801023064C73
:101B6000236010BD00CF012000D30120A800002079
:101B700034EF00E0AC000020B0000020704700000F
:101B800006480078012808D105480078FF2804D2CB
:101B900003480078401C024908707047D7000020B5
:101BA000CD00002010B500241D480078012835D153
:101BB00000BF1020FEF77FFB044600BF19480078E5
:101BC00020B118480078401E164908701548007862
:101BD000F8B915480078E0B901F088FD13481449B8
:101BE000097850F82100134908601148007812491B
:101BF000097888420DD00F480068806B401C0D4961
:101C0000096888630D480068401C0C490860FEF7AD
:101C100095FB00BF2046FEF75CFB00BF10BD000037
:101C2000D7000020CD000020CE000020F0D70120FA
:101C3000D0000020E8000020CF000020B4000020E9
:101C400070B5054600261248007808B1002070BD26
:101C500000BF1020FEF72FFB064600BF0D480468AA
:101C6000006820B10B48006840680A49086000BF5E
:101C70003046FEF72EFB00BF3CB101202070002053
:101C800020816560204601F0EFFA2046DFE7000082
:101C9000CD000020B80000202DE9F04105460F4698
:101CA00014464FF000082878012804D00120207045
:101CB0000020BDE8F0813C48007818B10220207077
:101CC0000020F6E73948007818B10D202070002078
:101CD000EFE700BF1020FEF7EEFA804600BF6E6807
:101CE00056B10020686000BF4046FEF7F2FA00BF20
:101CF000002020703046DCE72D48006890F8300066
:101D000040F002002A49096881F830000020284983
:101D1000096881F8310026480068C762284601F04A
:101D200065FA00BF4046FEF7D4FA00BF01F09EFC02
:101D300000BF1020FEF7BFFA804600BF1C480068B5
:101D400090F8310020B101280DD002280AD105E019
:101D500017480068066A002020700DE000260E205B
:101D6000207009E000BF29461148006801F026FAFA
:101D700000260A20207000BF00BF00200C4909681F
:101D800081F830000A49096881F83100084909687A
:101D9000C86107490968086200BF4046FEF799FA22
:101DA00000BF304685E70000CD000020CE000020B7
:101DB000E000002070B504460D460026207801287A
:101DC00001D0012070BD00BF1020FEF774FA064656
:101DD00000BFA07A70B1002302222946204601F0FC
:101DE000ABF900BF3046FEF774FA00BF01F03EFCCD
:101DF0000020E7E7606830B100BF3046FEF769FABF
:101E000000BF1420DEE7656000BF3046FEF761FAD0
:101E100000BF0020D6E700002DE9F04106460F463E
:101E20004FF000082548007810B10020BDE8F0818F
:101E300000BF1020FEF73FFA804600BF204805682B
:101E4000006820B11E48006840681D49086000BF56
:101E50004046FEF73EFA00BF15B300BF1020FEF764
:101E60002AFA804600BF17480468D4B100680068A9
:101E70001449086000BF4046FEF72BFA00BF6660B9
:101E800006EB8700A060E6602661A7820020E08262
:101E900002202870002028816C60284601F0E4F9B7
:101EA0000AE00748006868600548056000BF4046D2
:101EB000FEF70FFA00BF00252846B7E7CD00002047
:101EC000B8000020F40000202DE9F04707468846BE
:101ED00015464FF000093878022804D001202870F8
:101EE0000020BDE8F0874248007818B10220287031
:101EF0000020F6E73F48007818B10D202870002038
:101F0000EFE700BF1020FEF7D6F9814600BF7C68DE
:101F1000E08AA8B12169081D20610E68E08A401E90
:101F2000E082A1682069884201D16068206100BF19
:101F30004846FEF7CEF900BF002028703046D0E7B3
:101F40002D48006890F8300040F004002A490968E4
:101F500081F8300000202849096881F831002648BE
:101F60000068C0F82C80384601F040F900BF4846B0
:101F7000FEF7AFF900BF01F079FB00BF1020FEF7BC
:101F80009AF9814600BF1C48006890F8310020B1E2
:101F900001280DD002280AD105E017480068066A1A
:101FA000002028700DE000260E20287009E000BFF8
:101FB00039461148006801F001F900260A2028700E
:101FC00000BF00BF00200C49096881F830000A49B1
:101FD000096881F8310008490968C861064909683B
:101FE000086200BF4846FEF774F900BF304678E744
:101FF000CD000020CE000020E00000202DE9F041BF
:1020000005460E4600272878022802D00120BDE8A8
:10201000F08100BF1020FEF74EF9074600BFA87AF6
:1020200070B1002304223146284601F085F800BF34
:102030003846FEF74EF900BF01F018FB0020E6E736
:102040006C68E08AA18A884206DB00BF3846FEF74A
:1020500040F900BF1E20DAE7E168081DE0600E606D
:10206000E08A401CE082D4E90210884201D1606815
:10207000E06000BF3846FEF72CF900BF0020C6E73D
:1020800010B500240D480078012816D100BF10209B
:10209000FEF711F9044600BF0948007840B9094825
:1020A0000078FF2804D207480078401C05490870D2
:1020B00000BF2046FEF70DF900BF10BDD70000207D
:1020C000CD000020CE00002010B500241748007875
:1020D00001282AD100BF1020FEF7EDF8044600BF0A
:1020E00013480078E0B913480078A0B1114800788F
:1020F000401E104908700846007838B900BF2046D5
:10210000FEF7E7F800BF01F0B1FA0EE000BF20468D
:10211000FEF7DFF809E000BF2046FEF7DAF804E03A
:1021200000BF2046FEF7D5F800BF10BDD700002045
:10213000CD000020CE00002070B5054600261248D4
:10214000007808B1002070BD00BF1020FEF7B3F882
:10215000064600BF0D480468006820B10B480068BF
:1021600040680A49086000BF3046FEF7B2F800BF79
:102170003CB103202070258100206060204601F0E2
:1021800073F82046DFE70000CD000020B8000020F3
:102190002DE9F04105460E4614460027287803280D
:1021A00003D001202070BDE8F0813748007810B1DD
:1021B00002202070F7E73548007810B10D2020701C
:1021C000F1E700BF1020FEF776F8074600BF288928
:1021D00050B12889401E288100BF3846FEF779F8A3
:1021E00000BF00202070DEE72948006890F830002A
:1021F00040F001002649096881F830000020244998
:10220000096881F8310022480068C662284600F05B
:10221000EDFF00BF3846FEF75CF800BF01F026FA7C
:1022200000BF1020FEF747F8074600BF18480068B7
:1022300090F8310020B1012809D0022806D102E02F
:10224000002020700BE00E20207008E000BF29461F
:102250000F48006800F0B2FF0A20207000BF00BFE6
:1022600000200B49096881F830000949096881F8A4
:10227000310007490968C86100BF3846FEF729F8F0
:1022800000BF00BF8FE70000CD000020CE0000207F
:10229000E000002070B5044600252078032801D016
:1022A000012070BD00BF1020FEF705F8054600BFF5
:1022B000A07A70B1002301221946204600F03CFFAD
:1022C00000BF2846FEF705F800BF01F0CFF9002057
:1022D000E7E720894FF6FF71884209D22089401C28
:1022E000208100BF2846FDF7F4FF00BF0020D8E79B
:1022F00000BF2846FDF7EDFF00BF3320D1E7000007
:1023000010B50B48007890B901F0F0F90948007851
:102310000949087009480749097850F82100084917
:1023200008600846006807490860FDF7DBFF10BD3C
:10233000D7000020D0000020CF000020F0D70120DF
:10234000E8000020E000002010B50024022000F08A
:10235000CFFB00BF1020FDF7AEFF044600BF0020FA
:102360000E49086000BF2046FDF7B3FF00BF6420A0
:1023700000F0BEFB00BF1020FDF79DFF044600BF2C
:10238000064800680649086001200649087000BF39
:102390002046FDF79EFF00BF10BD0000DC000020BE
:1023A000C4000020CC000020704700002DE9F04F51
:1023B00085B081468A4693461C46DDE90F78129D1A
:1023C0000020039000BF1020FDF775FF039000BFB1
:1023D0002848007840B100BF0398FDF77AFF00BF9E
:1023E0003C2005B0BDE8F08F234850F82400C0BB66
:1023F0000120214941F8240000BF0398FDF769FF3F
:1024000000BF2A464146384601F0F0FA2B465A46AC
:102410005146484600F0E8F904901198CDE9008053
:1024200002953A4620460E9B049901F075F906463E
:1024300036B912480078012811D101F017F90EE0E1
:1024400000BF1020FDF737FF039000BF00200A49AE
:1024500041F8240000BF0398FDF73BFF00BF304662
:10246000BFE7FFE700BF0398FDF733FF00BF282059
:10247000B7E70000CD000020F0D70120D7000020F2
:10248000704700002DE9F041054600274E480078CE
:1024900010B14020BDE8F081202D01D13E20F9E7A8
:1024A00000BF1020FDF707FF074600BFFF2D03D137
:1024B0004648006890F83250454850F8254034B9F5
:1024C00000BF3846FDF705FF00BF4320E2E7012CBF
:1024D00006D100BF3846FDF7FCFE00BF3D20D9E71E
:1024E00014F8340F3B49085C617888432178394AF5
:1024F000505414F834091146085C30B994F8361079
:1025000035480078884334490870E06918B120469E
:10251000E16900F053FE666A16B1304600F060FFD4
:102520000020E06284F8300084F831002B48007805
:10253000FF2804D229480078401C2849087000BFB1
:102540003846FDF7C6FE00BF00F0F4FD00BF1020C6
:10255000FDF7B1FE074600BF2048007820B11F48B4
:102560000078401E1D490870204600F043F81C48C2
:102570000078401E1A4908700020154941F82500CE
:10258000A06930B9002061698861164960690860F6
:1025900005E0D4E905014861D4E9051088611248D5
:1025A000006860611048046010A0E06400BF384615
:1025B000FDF78FFE00BF0E480078012801D101F021
:1025C00055F8002066E70000CD000020E000002064
:1025D000F0D70120D2000020D1000020CE00002042
:1025E000D8000020EC000020E40000203F000000A4
:1025F000D7000020704770472DE9F04106460F468E
:1026000014464FF000081948007818B112202070C5
:10261000BDE8F08100BF1020FDF74DFE804600BFF1
:10262000FF2E03D11248006890F83260114850F82C
:1026300026503DB900BF4046FDF74BFE00BF43208A
:102640002070E5E7012D07D100BF4046FDF741FEB0
:1026500000BF43202070DBE7EF6400BF4046FDF77A
:1026600038FE00BF0020207000BFD1E7CD00002061
:10267000E0000020F0D7012070B50546002600BF1D
:102680001020FDF718FE064600BF2A4850F82540E6
:1026900034B900BF3046FDF71CFE00BF462070BDB8
:1026A000012C06D100BF3046FDF713FE00BF4320CA
:1026B000F5E794F8300000F0080098B314F8300FF4
:1026C00000F0F700207014F8300900F0370010BB5C
:1026D000E06AD8B93434A078174909780843164914
:1026E000087020781549085C6178084314F834199B
:1026F000124A505400BF3046FDF7EBFD00BF1048B2
:10270000007801280CD100F0B1FF09E000BF30468D
:10271000FDF7DFFD04E000BF3046FDF7DAFD00BF46
:102720000020BCE7FFE700BF3046FDF7D2FD00BF49
:102730004420B4E7F0D70120D1000020D2000020CF
:10274000D7000020704770472DE9F04707460D4637
:102750004FF0000A00202860686000BF1020FDF7DD
:10276000AAFD824600BFFF2F03D11D48006890F8E4
:1027700032701C4850F827403CB900BF5046FDF766
:10278000A8FD00BF4320BDE8F087012C06D100BFA3
:102790005046FDF79EFD00BF4320F4E7207C00F08B
:1027A000010030B900BF5046FDF793FD00BF452042
:1027B000E9E70026D4F80C90D4F8088000BF504612
:1027C000FDF787FD00BF00E0761C58F8041B0029C8
:1027D000FAD02E60A9EB060068600020D3E7000065
:1027E000E0000020F0D7012070B50446101D20F055
:1027F0000700001F4FF00076051F28462E606A4E26
:10280000051F28462E60694E051F28462E60684E1B
:10281000051F28462E60674E051F28462E60664E0F
:10282000051F28462E60654E051F28462E60644E03
:10283000051F28462E604FF08246051F28462E6051
:10284000604E051F28462E605F4E051F28462E60ED
:102850005E4E051F28462E604FF08146051F284614
:102860002E605B4E051F28462E603602051F284647
:102870002E604FF07E56051F28462E600026051F4D
:1028800028462E604FF08076051F28462E60051FD3
:1028900028462C604F4E051F28462E604FF01236FA
:1028A000051F28462E604FF00336051F28462E6070
:1028B0004FF00236051F28462E607610051F284669
:1028C0002E60051F284629606FF01206051F284656
:1028D0002E604FF01136051F28462E604FF010363F
:1028E000051F28462E604FF00936051F28462E602A
:1028F0004FF00836051F28462E604FF00736051F9B
:1029000028462E604FF00636051F28462E604FF0F1
:102910000536051F28462E604FF00436051F284651
:102920002E602D4E051F28462E602C4E051F284672
:102930002E602B4E051F28462E602A4E051F284666
:102940002E60294E051F28462E60284E051F28465A
:102950002E60274E051F28462E60264E051F28464E
:102960002E60254E051F28462E60244E051F284642
:102970002E60234E051F28462E60224E051F284636
:102980002E60214E051F28462E60204E051F28462A
:102990002E601F4E051F28462E604FF08346051FF0
:1029A00028462E6070BD00000000704100006041AC
:1029B0000000504100004041000030410000204133
:1029C000000010410000E0400000C0400000A040B6
:1029D00000004040A93800080000F8410000F04124
:1029E0000000E8410000E0410000D8410000D04173
:1029F0000000C8410000C0410000B8410000B041E3
:102A00000000A8410000A041000098410000904152
:102A1000000088412DE9F04105464FF0000800BF55
:102A20001020FDF748FC804600BFFF2D05D124484B
:102A3000006890F83250012608E02148006890F8BC
:102A40003200A84201D1012600E000261D4850F8BE
:102A500025403CB900BF4046FDF73BFC00BF482085
:102A6000BDE8F081012C06D100BF4046FDF731FCE6
:102A700000BF4320F4E794F834701348C05D94F825
:102A8000351088431049C8550846C05D30B994F8E0
:102A900036100E48007888430C49087094F83000CE
:102AA00040F0080084F8300000BF4046FDF711FCFC
:102AB00000BF012E01D100F0D9FD0020D0E70000B9
:102AC000E0000020F0D70120D2000020D10000203B
:102AD00010B5054909680868FDF7DEFB0349096878
:102AE0000868FDF7E2FB10BDE0000020E8000020D0
:102AF00070B5054600261A48007800B170BD194827
:102B0000007800B1FAE745B300BF1020FDF7D3FB12
:102B1000064600BF1448006890F834401348005D32
:102B20001149096891F8351088431049085508463D
:102B3000005D40B90C48006890F836100C480078E9
:102B400088430B49087008480068C56200BF3046DA
:102B5000FDF7BFFB00BF00F089FD00BFCEE700001E
:102B6000CD000020CE000020E0000020D200002098
:102B7000D100002070B5002600F07CF800BF1020C6
:102B8000FDF799FB064600BF34480068401C3349F6
:102B9000086000BF3046FDF79CFB00BF304800785E
:102BA000012858D12F48007820B1012804D00228EC
:102BB00009D103E001250BE0002509E001250120F2
:102BC0002849087004E0012500202649087000BF4C
:102BD00000BF05B970BD2448046838E000BF10206C
:102BE000FDF769FB064600BFE06A50B3E06A401E8D
:102BF000E062E06A28BB94F8300000F0370040B192
:102C000014F8300F00F0C800207001206070303CD4
:102C100002E0002084F8310094F8300000F0080051
:102C200078B93434A0781149097808430F490870FD
:102C300020780F49085C6178084314F834190C4A6D
:102C40005054646900BF3046FDF743FB00BF94F861
:102C500032002028C2D100BFBCE70000FC000020E9
:102C6000D7000020F0000020EC000020D100002060
:102C7000D200002010B507480088401C0549088094
:102C8000084600880A2803D30020088000F03EF898
:102C900010BD0000AC0000202DE9F05F06460F4695
:102CA00090469946DDE90ABA0C9D1648007820B195
:102CB0008B2028700020BDE8F09FFFF7E1F900F0BD
:102CC000CDF804462CB9FFF7FFF9862028700020C4
:102CD000F1E7012084F82500A661E76184F82480EB
:102CE000C4F80490C4F808B0BAF1000F02D106A0ED
:102CF000206201E0C4F820A0FFF7E6F90020287068
:102D00002046D8E7CD0000203F00000010B5034862
:102D10000068FFF7BFFA0446204610BD0C010020F2
:102D200070B505460C462878642803D089202070A9
:102D3000002070BD1A48007818B18B202070002048
:102D4000F7E7FFF79DF995F82500E8B1012810D0C5
:102D500002280FD003281DD1284600F099F9002140
:102D6000284600F01FF9FFF7AFF90020207001207E
:102D7000DFE700BF0021284600F014F9FFF7A4F9AF
:102D8000002020700120D4E7FFF79EF987202070F3
:102D90000020CEE7FFF798F98D2020700020C8E7CB
:102DA000CD0000202DE9F04105460F4690461C4617
:102DB0002878642804D0892020700020BDE8F081A4
:102DC0002548007818B18B2020700020F6E7FFF727
:102DD00057F995F82500002832D001282AD002287A
:102DE00027D0032832D1284600F052F90020207065
:102DF000B7B1032F02D0042F13D108E06E681EB1C3
:102E00002846A968B04701E08F2020700CE06E686A
:102E10001EB141462846B04701E08F20207003E0F4
:102E200002E08420207000BF00BFFFF74DF90120B1
:102E3000C4E700BFFFF748F98E2020700120BDE7EE
:102E4000FFF742F9872020700020B7E7FFF73CF931
:102E50008D2020700020B1E7CD0000200C480068D4
:102E600008B9002070470A480168094AC86810601C
:102E70000020C860086107480088401C054A10808F
:102E800005480088401E044A10800846EAE7000012
:102E90001001002002010020000100202DE9F04176
:102EA0004FF42071224800F0AFFB4021214800F090
:102EB000ABFB002514E0681C86B205EB85001C49BD
:102EC00001EBC00406EB860001EBC0076420207014
:102ED000002084F82500E76017A02062681C85B2F6
:102EE0000F2DE8D305EB8500114901EBC0046420E8
:102EF0002070002084F82500E0600FA020620020F0
:102F00000E4908600E49088010200E4908800848C4
:102F10000D4908600120FFF70FF90C4908600020F7
:102F2000FFF70AF90A49086000F014F8BDE8F081DB
:102F30000CE001208CE401203F000000040100208F
:102F400002010020000100201001002008010020E3
:102F50000C01002000B587B00320002180220A4B1D
:102F6000CDE90132CDE903104FF6FD700B46074A5B
:102F700000900748FFF71AFA06AA06A10020FFF7FB
:102F80003BFB07B000BD00008CE2012088E401207B
:102F90001130000875432F4F532D494920546D724D
:102FA0000000000070B50B46032580F82550012B6A
:102FB00005D1154EC5693668354445610CE0856913
:102FC0002DB9114EC56936683544456104E00E4E91
:102FD0008569366835444561057D05F007040B4D6C
:102FE00005EBC4010D682DB908600025C5600125F9
:102FF0008D8006E00A680860C26010618D886D1CD3
:103000008D800025056170BD040100208CE4012045
:1030100008B500BF00BF6A4600211A480068FFF7E4
:10302000B7F8FFF72DF818480068401C16490860EB
:103030000846007800F00708144800EBC8073C6811
:103040001AE0E668104960690968884213D1204691
:1030500000F01EF894F82400022804D10121204633
:10306000FFF7A0FF02E0022084F82500656815B193
:103070002046A168A8473446002CE2D1FFF724F887
:10308000C9E700000C010020040100208CE40120AD
:1030900030B5057D05F007040D4D05EBC4031D6833
:1030A000854205D1C168196039B100250D6104E080
:1030B0000169C268CA6002B11161012580F825501A
:1030C0000025C56005619D886D1E9D8030BD000096
:1030D0008CE4012010B500BF1020FDF7ECF8044689
:1030E00000BFFEF74DFD00BF2046FDF7F2F800BF20
:1030F000FFF740FDFEF756FD10BD000010B501467C
:1031000010224B1E4FF0E0246361094B186820F039
:103110007F4040EA0260186023461B6943F00503C4
:10312000236123461B6943F00203236110BD0000A5
:1031300020ED00E0704700002DE9F04F05460F46F6
:1031400090469946A87A19490E5C05F10B00805DFE
:1031500011F800B00BEBC60000F0FF0A144850F85D
:103160002A4000202034E0602760207C20EA08000C
:10317000207484F81190207C203C00F0080068B98D
:1031800094F836000B49097808430A4908700A4840
:10319000805D94F835100843074988552946204634
:1031A00000F00CF85046BDE8F08F00006CDB000822
:1031B000F0D70120D1000020D200002010B590F8F7
:1031C000342001F10B039B5C90F83540A34301F1DF
:1031D0000B04A35423469B5C23B98B7A90F83640AA
:1031E000A3438B720023C36110BD000010B51B4ABE
:1031F0001268D061194A126892F8343000F10B025B
:10320000D25C164B1B6893F835301A43134B1B687E
:1032100093F8344000F10B031A55827A0F4B1B6868
:1032200093F836301A4382720C4A126892F83410BE
:103230000B4A525C094B1B6893F835309A43084B94
:103240005A541A46525C42B9044A126892F836300F
:10325000044A12789A43034B1A7010BDE000002014
:10326000D2000020D1000020014600228A720020F6
:1032700005E0002301F10B021354421CD0B20528D3
:10328000F7D37047F0B51446059E244F3F6897F872
:10329000307047F02007DFF884C0DCF800C08CF8FD
:1032A00030700027DFF874C0DCF800C08CF8317093
:1032B0001A4F3F68FE62194F3F6879620C828B7427
:1032C000164F3F688F6047680F6000274F60C860E7
:1032D000456805B169604160104F3F6897F8342038
:1032E0000F4FBF5CDFF834C0DCF800C09CF835C07D
:1032F00027EA0C07DFF828C00CF802706746BF5CAD
:103300005FB9064F3F6897F836C0064F3F7827EA07
:103310000C07DFF810C08CF80070F0BDE000002052
:10332000D2000020D10000202DE9F04150211148A9
:1033300000F06AF900250DE0681C86B20D4800EB2C
:10334000051400EB06170020207067600AA0E060FB
:10335000681C85B2042DEFD3064800EB051400204D
:103360002070606004A0E060024804490860BDE885
:10337000F0810000A0D301203F000000BC0000202D
:103380002DE9F041064688461746B468002044F807
:103390002C0F24F8048C207900F0DF002071677175
:1033A00020792C3C88B93434A0780B49097808433B
:1033B0000949087020780949085C6178084314F8C5
:1033C0003419064A5054012500E00025304600F02B
:1033D00007F82846BDE8F081D1000020D200002087
:1033E00030B501464A6808682AB9CC68606028B1DF
:1033F0000025456002E0106000B142608B68002546
:103400005D6230BD70B5A0210E4800F0FDF80023CC
:103410000BE0581C85B20B4800EB031400EB0516BB
:10342000002020706660581C83B2092BF1D3054838
:1034300000EB03140020207060600248024908601D
:1034400070BD000000D30120B800002000200B490F
:1034500008600B4908700B4908700B4908700B494C
:1034600008700B4908600B4908600B4908600B495C
:1034700008600B4908700B4908707047FC00002079
:10348000CD000020CE000020D8000020D700002072
:10349000B4000020DC000020C8000020C400002090
:1034A000CC000020F800002000210A4A1170002002
:1034B00004E00021084A1154411CC8B20528F8D381
:1034C0000021064A1170064A1170064A1160064A28
:1034D00011607047D1000020D2000020CF000020F2
:1034E000D0000020E8000020E000002070B54FF47C
:1034F000E761184800F088F88421174800F084F844
:10350000002413E0601CC5B2C4EBC40000EB400013
:10351000104901EB8003C5EBC50000EB400001EB57
:1035200080065E610DA0D864601CC4B2152CE9D37E
:10353000C4EBC40000EB4000064901EB800300200F
:10354000586106A0D8640020054908600148054973
:10355000086070BD74D80120F0D701203F00000042
:10356000EC000020E400002000B587B0032000211B
:1035700080220A4BCDE90132CDE903104FF6FF70EE
:103580002023074A00900748FEF710FF06AA06A16D
:103590002020FFF731F807B000BD0000F0D5012072
:1035A000ECD701207938000875432F4F532D494936
:1035B0002049646C6500000000B587B0032000213D
:1035C00080220A4BCDE90132CDE903104FF6FE709F
:1035D0001F23074A00900748FEF7E8FE06AA06A147
:1035E0001F20FFF709F807B000BD0000F0D301204D
:1035F000ECD50120C138000875432F4F532D4949A0
:10360000205374617400000004E0002200F8012BD4
:103610004A1E91B20029F8D1704700002DE9F0410F
:1036200060211048FFF7F0FF00240DE0601C86B217
:1036300004EB44000B4901EBC00506EB460001EB2F
:10364000C0072F60601C84B2032CEFD304EB44004E
:10365000044901EBC00500202860084602490860C3
:10366000BDE8F081ACDF0120F400002010B500249B
:1036700000BF1020FCF71FFE044600BF144800786E
:10368000F8B914480078E0B900F030F8124813494E
:10369000097850F821001249086010480078114953
:1036A000097888420DD00E480068806B401C0C4998
:1036B000096888630C480068401C0B490860FCF7E7
:1036C0003DFE00BF2046FCF704FE00BF10BD000019
:1036D000CD000020CE000020F0D70120D000002037
:1036E000E8000020CF000020B40000200649074A6F
:1036F0001278885C0649095C034A515C01EBC00101
:10370000044A1170704700006CDB0008D1000020F3
:10371000D2000020D00000202DE9F84F05460F46CA
:1037200090469946DDE90AAB0020009000BF1020CA
:10373000FCF7C1FD009000BF48480468002C7DD014
:1037400046496069086000BF0098FCF7C2FD00BFF1
:10375000183444F8187CA5760020207660766061E5
:1037600044F814BC44F80CAC44F8108C0C9824F8C1
:10377000080C24F8069C0020E077E810207705F07C
:103780000700E076217F01208840A077E17E0120BC
:103790008840607700206060E060A0602062A062E6
:1037A0006062E06220632EA06063183C002606E0A1
:1037B000002104F1500040F82610701CC6B2002E03
:1037C000F6D02046FEF7F0FD00BF1020FCF773FD99
:1037D000009000BF234840F8254000BF0098FCF748
:1037E00078FD00BF2046FEF74BFE00BF1020FCF71F
:1037F00062FD009000BF1C48006860610020A0616D
:103800001948006810B118480068846116480460BF
:103810003434A07815490978084314490870207891
:103820001349085C6178084314F83419104A50545D
:1038300010480078401C0F49087000E007E000BF06
:103840000098FCF746FD00BF0020BDE8F88F00BFE0
:103850000098FCF73EFD00BF4220F6E7E4000020A0
:103860003F000000F0D70120EC000020D100002034
:10387000D2000020D8000020002400BF00BF10208C
:10388000FCF719FD044600BF06480068401C0549C6
:10389000086000BF2046FCF71CFD00BFFEF7ABFE32
:1038A000ECE70000DC00002010B504480068FEF7DB
:1038B00049FFFF20FEF7E6FD10BD0000E0000020FC
:1038C000002500BF02E0C820FFF712F93348007856
:1038D0000028F8D0324800686421B0FBF1F030498C
:1038E00008600846006828B900202E490870FF20AB
:1038F000FFF790F800BF1020FCF7DDFC054600BF85
:1039000027480068642148432749086000BF2846CB
:10391000FCF7DFFC00BF00BF0120FFF7E9F800BFA4
:103920001020FCF7C8FC054600BF00201E490860B7
:1039300000BF2846FCF7CDFC00BF6420FFF7D8F895
:1039400000BF1020FCF7B7FC054600BF1648006812
:103950001649086000BF2846FCF7BBFC00BF1348AF
:1039600000680F490968B0FBF1F040B2C0F1640093
:1039700044B2002C02DB0B490C7009E0002009491D
:1039800008700A4800686421B0FBF1F0044908603F
:10399000FEF7D9FE00F00CF8BEE70000CC000020D6
:1039A000C4000020C0000020DC000020C80000206F
:1039B0007CB5002514E069462846FEF7C5FE06469C
:1039C00066B9094850F8254044B1012C06D0D4E925
:1039D000020100EB810060640198A064681CC5B21C
:1039E000202DE8D97CBD0000F0D7012002F00103B2
:1039F00043B102F002032BB102E0491E002308C0CC
:103A00000029FAD17047000010B50348007801285A
:103A100001D1FFF75FFB10BDD700002010B5FEF706
:103A2000AFF81E48006800F0200008B31B4840684B
:103A3000C4B21B48008800F40040C8B91848008888
:103A400000F4804060B10A2C03D0002014490880A3
:103A500020E01348008840F400401149088019E034
:103A60000D2C06D10E48008840F480400C49088097
:103A700010E00B480088C0F30D000A490C540848B8
:103A80000088401C0649088008460088C72801DDD8
:103A900000200880FEF786F810BD000000100140ED
:103AA0002C0000201425002003B401984100009848
:103AB00050EAC12018BF04204A0D18BF40F0010091
:103AC00040F2FF72B2EB515F08BF40F002000128E4
:103AD00008BF052002B0704730380A2801D2012003
:103AE00070470020704700BF704710B500F01CFF02
:103AF00010BD70B505460C46164606E028466A1C01
:103B000095B200F008F804F8010B301EA6F101018F
:103B10008EB2F3D170BD70B50446002600F09CFF54
:103B20002112A02202EB4101C8B200F06DFF00F0AB
:103B3000CDFF2546E11704EB11610912A4EB012129
:103B4000C8B200F061FF00F0C1FF00F085FFA120C6
:103B500000F05AFF00F0BAFF002000F029FF0646EF
:103B600000F09AFF304670BD70B505460C4616460B
:103B700006E02178284600F009F8681C85B2641C2C
:103B8000301EA6F101018EB2F3D170BD70B50446AE
:103B90000E4600F061FF2112A02202EB4101C8B2E3
:103BA00000F032FF00F092FF2546E11704EB1161AF
:103BB0000912A4EB0121C8B200F026FF00F086FF35
:103BC000304600F021FF00F081FF00F065FF0A2081
:103BD00000F080F970BD00001CB500BF0B48006804
:103BE00040F020000949086000BF01200090002338
:103BF000024601020190064805F08AFA00224FF4BD
:103C00008071034805F078FA1CBD0000303802408E
:103C10000014024010B500224FF400610D4805F079
:103C20006BFA00F01BF8012211460B4805F064FA0C
:103C300000F014F800220121074805F05DFA00F0B9
:103C40000DF80122D102034805F056FA00F006F8FB
:103C500010BD0000001402400004024010B5022014
:103C600000F06EF910BD00001CB500BF11480068DF
:103C700040F002000F49086000BF00BF084600681E
:103C800040F02000086000BF01200090034602467B
:103C900001460190084805F03BFA012000900346D8
:103CA0000246C1020190054805F032FA00F09CF886
:103CB0001CBD0000303802400004024000140240E5
:103CC00010B50122D1020A4805F016FAFFF7C6FF27
:103CD00001221146074805F00FFAFFF7BFFF002247
:103CE0000121044805F008FAFFF7B8FF10BD0000F5
:103CF000001402400004024070B50546002400266E
:103D000019E06006040E01221146104805F0F4F98E
:103D1000FFF7A4FF4FF400610D4805F0E5F908B185
:103D2000601CC4B200220121084805F0E5F9FFF744
:103D300095FF701CC6B2082EE3DB15B9FFF7C0FF74
:103D400001E0FFF767FF204670BD0000000402405D
:103D50000014024070B50446002517E0E2094FF454
:103D600000610E4805F0C8F9FFF778FF01221146FF
:103D70000B4805F0C1F9FFF771FF00220121084847
:103D800005F0BAF96006040E681CC5B2082DE5DB23
:103D90000122D102014805F0AFF970BD00140240C4
:103DA0000004024010B50122D1020D4805F0A4F92B
:103DB000012211460B4805F09FF9FFF74FFF002243
:103DC0004FF40061064805F097F9FFF747FF00221E
:103DD0000121044805F090F9FFF740FF10BD0000F5
:103DE000001402400004024010B500224FF40061AC
:103DF000094805F081F9FFF731FF01221146074814
:103E000005F07AF9FFF72AFF0122D102024805F0F6
:103E100073F9FFF723FF10BD0014024000040240B5
:103E200070B5002400250122D102144805F064F980
:103E3000FFF714FF01221146114805F05DF9FFF765
:103E40000DFF09E0601CC4B2FA2C03DDFFF7CCFFC4
:103E5000012508E0FFF702FF4FF40061074805F075
:103E600043F90028EED100BF00220121044805F0EB
:103E700043F9FFF7F3FE284670BD0000001402402E
:103E8000000402404FF0E022126942F004024FF0B9
:103E9000E0231A610D4A10601A46126942F00102CD
:103EA0001A616FF070425A6101464FF47A725143C1
:103EB0000122074B1A804FF0E022126942F0020201
:103EC0004FF0E0231A611A4651617047200000202C
:103ED0002400002070B504460F480078A0B10F48B8
:103EE000007888B90E480088844206DB0C480088B8
:103EF00094FBF0F5284600F01DF80948008894FB73
:103F0000F0F100FB114084B24FF47A7104FB01F030
:103F100000F016F870BD0000D7000020CD00002092
:103F20002400002010B5FEF7ABF810BD10B5FEF769
:103F3000CBF810BD10B504462046FEF7D9FD10BDE4
:103F40002DE9F047074600264FF0E020D0F8149006
:103F50001048006807FB00F8FFF7E4FF4FF0E0208F
:103F6000856911E04FF0E0208469AC420CD0AC428E
:103F700002D2281B064403E0A9EB040028440644AF
:103F80002546464500D300E0ECE700BFFFF7CEFF33
:103F9000BDE8F087200000201FB54EE003A80023F5
:103FA00003220721009025480068FDF7A9FB04467D
:103FB00004F0010060B14FF4784021A110221346B3
:103FC000CDE900210290F022A2218C2004F078FAA1
:103FD00004F0020060B14FF478401CA11022134697
:103FE000CDE900210290F022A2218C2004F068FA91
:103FF00004F0040060B14FF4784017A1102213467A
:10400000CDE900210290F022A2218C2004F058FA80
:1040100001221102144805F06FF83220FEF768FD06
:1040200000224FF48071104805F066F803AB0022BF
:10403000072102480068FDF7ADFCAFE7140000203F
:104040004B45593020444F574E2020004B455931A5
:1040500020444F574E2020004B45595F3220444F9B
:10406000574E2020000000000014024000BF054A07
:10407000126802F04002002AF9D0C2B2014B5A6025
:1040800070470000001001400EB500BF3B480068BB
:1040900040F004003949086000BF00BF08460068CE
:1040A00040F00200086000BF01200090002302469B
:1040B00041030190324805F02BF8012000900023C5
:1040C0001A46022101902F4805F022F8FFF7CCFD97
:1040D00000224FF400512A4805F00EF81420FFF793
:1040E000F9FE01225103264805F006F83220FFF7B9
:1040F000F1FE00208DF80800012202A900F048F925
:10410000012202A9A42000F043F916208DF808002E
:10411000012202A9802000F03BF90C208DF8080054
:10412000012202A9882000F033F9022202A9A1206D
:1041300000F030F89DF80800302803D19DF8090000
:1041400003280DD09DF80900012809D09DF8090029
:10415000022805D09DF8080068B99DF8090050B9FB
:104160009DF809009DF8082000EB022106A0FCF74D
:104170002FF900200EBD0120FCE70000303802407E
:1041800000080240000402404354502049443A25AC
:10419000780D0A002DE9F04106460F461546FFF757
:1041A00001FE7020FFF7D6FDFFF73AFEF0B2FFF7F1
:1041B000D1FDFFF735FEFFF7F5FD7120FFF7CAFDD2
:1041C000FFF72EFE00240BE0691EA14201D0012161
:1041D00000E000210846FFF78FFD3855601CC4B28F
:1041E000AC42F1DBFFF700FEBDE8F0812DE9FC41B8
:1041F0000746002001900024002661480078401CFA
:104200005F490870084600780A2190FBF1F201FB33
:10421000120018B15A4800780A2867DA012201A969
:104220000220FFF7B7FF9DF8040000F00F00002800
:104230005CD09DF8040000F00F0006287BDA9DF8A2
:10424000040000F00F014FF6FF70884085B2E8438C
:1042500080B240F440404B4988860420FFF73AFE84
:1042600000245AE04748808E0121A1400840E0B375
:10427000454931F8140004226946FFF78BFF414895
:1042800090F8440000F00100C0B19DF801009DF8D5
:10429000001001F00F0100EB01203A49203121F814
:1042A00014009DF803009DF8021001F00F0100EBCF
:1042B000012134480C3020F814101EE09DF8010054
:1042C0009DF8001001F00F0100EB01202F49098833
:1042D000081A81B22B480C3020F814109DF8030006
:1042E0009DF8021001F00F0101E014E023E000EB63
:1042F00001202449203121F814009DF8000000F02D
:10430000F000802807D000211E48203020F814102B
:10431000143820F81410601CC4B2052CA2DB01264E
:104320001848808920B91748008C08B900200190EE
:104330000020134908709DF8040000F01F00A8B980
:104340001048808E00F4004030B10E48808E20F47A
:1043500000400C49888609E04FF6FF7009498881C2
:1043600008840846808E00F46040888604480078FF
:10437000F02802DD0A20024908703046BDE8FC81C1
:10438000390000203C00002026DB0008DC2500204E
:104390002DE9F04105460E4617464FF00008FFF79D
:1043A00001FD7020FFF7D6FCFFF73AFDE8B2FFF7FA
:1043B000D1FCFFF735FD00240BE0305DFFF7CAFCB0
:1043C000FFF72EFD8046B8F1000F00D003E0601C1F
:1043D000C4B2BC42F1DB00BFFFF706FD4046BDE8BA
:1043E000F08100001FB500BF4148006840F00400A4
:1043F0003F49086000BF00BF0846006840F0020067
:10440000086000BF01200090002302464103019094
:10441000384804F07DFE0120009000231A46022156
:104420000190354804F074FEFFF71EFC00224FF4A3
:104430000051304804F060FE0A20FFF74BFD0122D6
:1044400051032C4804F058FE0A20FFF743FD0020DA
:10445000012103460246CDE900100221264804F05E
:1044600057FE6420FFF736FD042202A948F24010EF
:1044700000F05AF800208DF80C0020A102A8FCF7EB
:104480001BF988B11EA102A8FCF716F960B11EA1A4
:1044900002A8FCF711F938B11DA102A8FCF70CF92C
:1044A00010B1012004B010BD02A91BA0FBF790FFC2
:1044B00017A102A8FCF700F910B90A2019490870E1
:1044C00002208DF80800012202A948F2400000F005
:1044D000D5F90A20FFF7FEFC00208DF80800012224
:1044E00002A948F2400000F0C9F90020DAE7000014
:1044F00030380240000802400004024039313100E7
:104500003931343700000000313135380000000007
:1045100039323731000000004354502049443A25D5
:10452000730D0A003A0000202DE9F04105460F46C0
:104530001646FFF737FC2820FFF70CFCFFF770FC4E
:104540002812FFF707FCFFF76BFCE8B2FFF702FC4D
:10455000FFF766FCFFF726FC2920FFF7FBFBFFF7C0
:104560005FFC00240BE0711EA14201D0012100E09C
:1045700000210846FFF7C0FB3855601CC4B2B442A6
:10458000F1DBFFF731FCBDE8F081000071B583B0CD
:10459000002001900026B4480078401CB249087001
:1045A000084601780A2091FBF0F200FB121018B1C6
:1045B000AD4800780A287DDA012203A948F24E109E
:1045C000FFF7B2FF9DF80C0000F0800078B19DF875
:1045D0000C0000F00F00A5490978884207DC002094
:1045E0000190012201A948F24E1000F047F99DF810
:1045F0000C0000F00F0000285CD09DF80C0000F0CB
:104600000F009A490978884254DC9DF80C0000F0AC
:104610000F014FF6FF70884084B29548858EE043C5
:1046200080B240F4404092498886084682898F488B
:104630000078401E0C3121F810208D48028C8B48E8
:104640000078401E143121F8102000200190A7E0CE
:104650008748808E9DF80420012191400840002861
:104660003FD084499DF8042031F81200042202A9A9
:10467000FFF75AFF8048808845F2105188420BD0DE
:104680007D48808849F60601884205D07A488088AE
:1046900047F29671884240D1754890F8440000F086
:1046A0000100F8B19DF80A009DF80B1000EB012005
:1046B000714900E0B2E00988081A81B26C480C30F8
:1046C0009DF8042020F812109DF808009DF80910AC
:1046D00000EB012081B2664820309DF8042020F8CC
:1046E000121058E09DF808009DF8091000EB012019
:1046F00081B25F480C309DF8042020F812109DF81C
:104700000A009DF80B1000EB012081B258482030C0
:104710009DF8042020F812103DE0554890F8440020
:1047200000F00100D0B19DF808009DF8091000EBE1
:10473000012081B24E480C309DF8042020F8121060
:104740009DF80A009DF80B1000EB012081B248484B
:1047500020309DF8042020F812101CE09DF80A007B
:104760009DF80B1000EB012043490988081A81B21B
:104770003F480C309DF8042020F812109DF80800E6
:104780009DF8091000EB012081B2394820309DF8D6
:10479000042020F812109DF80400401CC0B20190C3
:1047A0009DF80400314909788842FFF651AF01268F
:1047B0002F48808930490988884205DC2C48008CC4
:1047C0002D494988884226DD9DF80C0000F00F0035
:1047D00001280ADD2648C089254988810846408C81
:1047E000088400202049087018E020480078401E06
:1047F0001F490C3131F810000C3988811B480078B2
:10480000401E203131F810002039088480200390A8
:104810000846858602E00020134908709DF80C00C8
:1048200000F08F00802815D11148808E00F40040E0
:1048300030B10F48808E20F400400D49888609E091
:104840004FF6FF700A49888108840846808E00F47C
:104850006040888604480078F02802DD0A2002497A
:104860000870304604B070BD3B0000203A000020C4
:104870003C00002030DB0008DC2500202DE9F04161
:1048800004460E4617464FF00008FFF78BFA282023
:10489000FFF760FAFFF7C4FA2012FFF75BFAFFF7A1
:1048A000BFFAE0B2FFF756FAFFF7BAFA00250BE0BD
:1048B000705DFFF74FFAFFF7B3FA8046B8F1000FCB
:1048C00000D003E0681CC5B2BD42F1DB00BFFFF7BA
:1048D0008BFA4046BDE8F08110B500224FF400711C
:1048E0000D4804F009FC00F019F8012211020A48F1
:1048F00004F002FC00F012F800224FF48071064828
:1049000004F0FAFB00F00AF801225102024804F018
:10491000F3FB00F003F810BD0004024010B50220C4
:10492000FFF70EFB10BD00001CB500BF114800686A
:1049300040F002000F49086000BF00BF0846006851
:1049400040F00200086000BF0120009000230246F2
:1049500001020190084804F0DBFB012000900346AF
:10496000024641020190044804F0D2FB00F094F8A2
:104970001CBD0000303802400004024010B5012286
:1049800051020A4804F0B8FBFFF7C8FF01221102E8
:10499000064804F0B1FBFFF7C1FF00224FF480711D
:1049A000024804F0A9FBFFF7B9FF10BD0004024064
:1049B00070B50546002400261AE06006040E0122A8
:1049C0001102104804F098FBFFF7A8FF4FF40071A4
:1049D0000C4804F089FB08B1601CC4B200224FF4FB
:1049E0008071084804F088FBFFF798FF701CC6B27E
:1049F000082EE2DB15B9FFF7C1FF01E0FFF76CFFFE
:104A0000204670BD0004024070B50446002518E041
:104A1000E2094FF400710F4804F06EFBFFF77EFFD0
:104A2000012211020B4804F067FBFFF777FF002219
:104A30004FF48071074804F05FFB6006040E681CA9
:104A4000C5B2082DE4DB01225102024804F054FBF8
:104A500070BD00000004024010B5012251020D4853
:104A600004F04AFB012211020A4804F045FBFFF75B
:104A700055FF00224FF40071064804F03DFBFFF79C
:104A80004DFF00224FF48071024804F035FBFFF720
:104A900045FF10BD0004024010B500224FF4007124
:104AA000094804F029FBFFF739FF012211020648EB
:104AB00004F022FBFFF732FF01225102024804F00A
:104AC0001BFBFFF72BFF10BD0004024070B5002454
:104AD000002501225102134804F00EFBFFF71EFFD0
:104AE000012211020F4804F007FBFFF717FF07E050
:104AF000601CC4B2FA2C03DDFFF7CEFF012506E0EF
:104B00004FF40071074804F0EFFA0028F0D100BF1D
:104B100000224FF48071034804F0EEFAFFF7FEFE26
:104B2000284670BD000402401CB500BF2048006844
:104B300040F010001E49086000BF00BF0846006832
:104B400040F01000086000BF00BF0846006840F059
:104B50001000086000BF00BF0846006840F0010078
:104B6000086000BF0120009000231A461021019028
:104B7000104804F0CDFA0120009000231A460821C5
:104B800001900C4804F0C4FA0120009000231A465A
:104B900004210190074804F0BBFA02200121002300
:104BA0001A46CDE90010044804F0B2FA1CBD00001A
:104BB00030380240001002400000024070B5044648
:104BC000002514B101202B4908702A4800780028DC
:104BD00034D01021284804F087FA78B108212648FB
:104BE00004F082FA50B10421234804F07DFA28B180
:104BF0000121224804F078FA01281FD10A20FFF78A
:104C000069F900201B49087010211B4804F06CFA58
:104C100000B901250821184804F066FA00B90225F8
:104C20000421154804F060FA00B903250121134856
:104C300004F05AFA01281BD1042519E010210E486E
:104C400004F052FA012813D108210B4804F04CFA61
:104C500001280DD10421084804F046FA012807D1A3
:104C60000121064804F040FA10B9012001490870FA
:104C7000284670BD380000200010024000000240AD
:104C80000CE00020FFF79AFF044624B121460448B7
:104C90000068FDF78FF80A20FDF72AFFF1E7000012
:104CA0000000002070B504460026094805884088A9
:104CB00045430021084603F0D3FA03F0E1FC00BFAE
:104CC00002E004480480761CAE42FAD370BD0000B6
:104CD000DC2500208000006C10B504465848847123
:104CE000002C58D1F020564908804FF4A07048801D
:104CF0000846808845F21051884210D14FF4305058
:104D00004F4908814FF4285048814FF42C50888136
:104D10004FF4F07008804FF4487048801AE048481B
:104D2000808841F6631188420DD12C2044490881C6
:104D30002B2048812A2088814FF4F07008804FF49E
:104D40004870488006E02C203D4908812A2048818F
:104D50002B2088813A48808845F21031884205D05E
:104D60003748808847F29671884206D14FF4A07088
:104D7000334908804FF4F07048803148808849F604
:104D80000601884258D14FF4F0702D4908804FF445
:104D90004870488050E04FF4A07029490880F02006
:104DA00048800846808845F21051884210D14FF45F
:104DB0003050234908814FF4285048814FF42C503B
:104DC00088814FF4487008804FF4F070488020E0EC
:104DD0001B48808841F66311884205D018488088B6
:104DE00049F6060188420DD12C20154908812A2058
:104DF00048812B2088814FF4487008804FF4F07070
:104E0000488006E02C200E4908812A2048812B206A
:104E100088810B48808845F21031884205D00848C7
:104E2000808847F29671884206D14FF4F0700449A9
:104E300008804FF4A0704880002003F0F3F810BD04
:104E4000DC2500202DE9FF4F85B080468946129F62
:104E5000002003900290B84507DB0798B84204DBB6
:104E6000B94502DB0898B84202DA09B0BDE8F08F14
:104E70000798A0EB08040898A0EB0905CDF804807A
:104E8000CDF80090002C02DD4FF0010A06E014B9C5
:104E90004FF0000A02E04FF0FF3A6442002D02DDBD
:104EA0004FF0010B06E015B94FF0000B02E04FF098
:104EB000FF3B6D42AC4201DD264600E02E4600205D
:104EC000049023E0009A91B2019A90B23A46139B63
:104ED00002F040FD03982044039002982844029079
:104EE0000398B04205DD0398801B0390019850445D
:104EF00001900298B04205DD0298801B0290009854
:104F0000584400900498401C80B20490711C04988E
:104F10008842D7DD00BFA8E72DE9F04706460F46D7
:104F200090469A46002445460320A0EB480944E0F9
:104F30007A1B91B2321990B2524600F0B5F83A1B82
:104F400091B2721990B2524600F0AEF83A1991B28D
:104F5000721990B2524600F0A7F87A1991B232193C
:104F600090B2524600F0A0F87A1991B2321B90B27A
:104F7000524600F099F83A1991B2721B90B252461B
:104F800000F092F87A1B91B2321B90B2524600F0B8
:104F90008BF83A1B91B2721B90B2524600F084F823
:104FA000641CB9F1000F03DAA000801D814404E005
:104FB000601B80000A3081446D1EAC42B8DDBDE844
:104FC000F0870000F8B504460D4616461F463EB170
:104FD00009480088A04203DB07484088A84200DA5D
:104FE000F8BDA019401E82B22B46294620460097E4
:104FF00002F086FC00BFF3E7DC2500202DE9FF4F1F
:1050000084B081468A460020029083460698A0EB31
:1050100009050798A0EB0A06CDF80490CDF800A08A
:10502000002D01DD012705E00DB9002702E04FF05A
:10503000FF376D42002E02DD4FF0010806E016B981
:105040004FF0000802E04FF0FF387642B54201DD34
:105050002C4600E03446002003901EE0009A91B2F6
:10506000019A90B2119A00F01FF802982844029019
:10507000B3440298A04205DD0298001B02900198FB
:1050800038440190A34504DDABEB040B0098404489
:1050900000900398401C80B20390611C03988842E2
:1050A000DCDD08B0BDE8F08F70B505460E4614464D
:1050B0003146284603F0D4F803F0E2FA01490C80A7
:1050C00070BD00008000006C10B5CF2003F0CCFA5A
:1050D000002003F0BDFAC12003F0BAFA302003F03B
:1050E000B7FAED2003F0C0FA642003F0B1FA032010
:1050F00003F0AEFA122003F0ABFA812003F0A8FA15
:10510000E82003F0B1FA852003F0A2FA102003F0A2
:105110009FFA7A2003F09CFACB2003F0A5FA3920FD
:1051200003F096FA2C2003F093FA002003F090FA93
:10513000342003F08DFA022003F08AFAF72003F0FE
:1051400093FA202003F084FAEA2003F08DFA00207D
:1051500003F07EFA002003F07BFAC02003F084FA0B
:105160001B2003F075FAC12003F07EFA012003F042
:105170006FFAC52003F078FA302003F069FA302086
:1051800003F066FAC72003F06FFAB72003F060FA65
:10519000362003F069FA482003F05AFA3A2003F067
:1051A00063FA552003F054FAB12003F05DFA0020B1
:1051B00003F04EFA1A2003F04BFAB62003F054FA2B
:1051C0000A2003F045FAA22003F042FAF22003F08D
:1051D0004BFA002003F03CFA262003F045FA0120A8
:1051E00003F036FAE02003F03FFA0F2003F030FA24
:1051F0002A2003F02DFA282003F02AFA082003F0D1
:1052000027FA0E2003F024FA082003F021FA542094
:1052100003F01EFAA92003F01BFA432003F018FA4A
:105220000A2003F015FA0F2003F012FA002003F011
:105230000FFA002003F00CFA002003F009FA002016
:1052400003F006FAE12003F00FFA002003F000FA61
:10525000152003F0FDF9172003F0FAF9072003F0F9
:10526000F7F9112003F0F4F9062003F0F1F92B20EF
:1052700003F0EEF9562003F0EBF93C2003F0E8F9D7
:10528000052003F0E5F9102003F0E2F90F2003F008
:10529000DFF93F2003F0DCF93F2003F0D9F90F20BC
:1052A00003F0D6F92B2003F0DFF9002003F0D0F94A
:1052B000002003F0CDF9012003F0CAF93F2003F0EC
:1052C000C7F92A2003F0D0F9002003F0C1F900202B
:1052D00003F0BEF9002003F0BBF9EF2003F0B8F9AA
:1052E000112003F0C1F97820FEF7F4FD292003F026
:1052F000BBF910BD10B5FF2003F0B6F9FF2003F095
:10530000A7F9982003F0A4F9062003F0A1F9BC2026
:1053100003F0AAF9012003F09BF90F2003F098F99C
:10532000612003F095F9FF2003F092F9012003F0CA
:105330008FF9012003F08CF90B2003F089F910207C
:1053400003F086F9372003F083F9632003F080F936
:10535000FF2003F07DF9FF2003F07AF9012003F02C
:1053600077F9012003F074F9002003F071F90020AF
:1053700003F06EF9FF2003F06BF9522003F068F997
:10538000012003F065F9002003F062F9402003F0EA
:105390005FF9BD2003F068F9012003F059F92320DB
:1053A00003F056F9452003F053F9672003F050F954
:1053B000012003F04DF9232003F04AF9452003F0C2
:1053C00047F9672003F044F9BE2003F04DF90020AF
:1053D00003F03EF9012003F03BF9AB2003F038F96C
:1053E000602003F035F9222003F032F9222003F087
:1053F0002FF9222003F02CF9222003F029F9222092
:1054000003F026F9C72003F02FF9362003F020F926
:10541000ED2003F029F97F2003F01AF90F2003F0A3
:1054200017F9C02003F020F90F2003F011F90B2029
:1054300003F00EF90A2003F00BF9FC2003F014F935
:10544000082003F005F9DF2003F00EF9002003F037
:10545000FFF8002003F0FCF8002003F0F9F800202A
:1054600003F0F6F8002003F0F3F8202003F0F0F842
:10547000F32003F0F9F8742003F0EAF8B42003F005
:10548000F3F8002003F0E4F8002003F0E1F8002036
:1054900003F0DEF8F72003F0E7F8822003F0D8F8F5
:1054A000B12003F0E1F8002003F0D2F8132003F05C
:1054B000CFF8132003F0CCF8F22003F0D5F88020C9
:1054C00003F0C6F8042003F0C3F8402003F0C0F84E
:1054D000282003F0BDF8C12003F0C6F8172003F020
:1054E000B7F8882003F0B4F8882003F0B1F8202042
:1054F00003F0AEF8E02003F0B7F8002003F0A8F8BE
:105500000A2003F0A5F8122003F0A2F8102003F0FF
:105510009FF80E2003F09CF8202003F099F8CC208F
:1055200003F096F8072003F093F8062003F090F8B4
:105530000B2003F08DF80E2003F08AF80F2003F003
:1055400087F80D2003F084F8152003F081F810206F
:1055500003F07EF8002003F07BF8E12003F084F8EC
:10556000002003F075F80B2003F072F8132003F00D
:105570006FF80D2003F06CF80E2003F069F81B2083
:1055800003F066F8712003F063F8062003F060F87A
:10559000062003F05DF80A2003F05AF80F2003F00C
:1055A00057F80E2003F054F80F2003F051F815209F
:1055B00003F04EF80C2003F04BF8002003F048F8FD
:1055C0002A2003F051F8002003F042F8002003F0F5
:1055D0003FF8012003F03CF8DF2003F039F82B20DE
:1055E00003F042F8002003F033F8002003F030F815
:1055F000032003F02DF81F2003F02AF83A2003F0CF
:1056000033F8552003F024F8362003F02DF800205D
:1056100003F01EF8112003F027F87820FEF75AFC5B
:10562000292003F021F81420FEF754FC2C2003F06D
:105630001BF810BD10B5ED2003F016F8012003F0A3
:1056400007F8FE2003F004F8EE2003F00DF8DE204A
:1056500002F0FEFF212002F0FBFFF12003F004F82E
:10566000012002F0F5FFDF2002F0FEFF102002F023
:10567000EFFFC42002F0F8FF8F2002F0E9FFC62000
:1056800002F0F2FF002002F0E3FFE22002F0E0FF70
:10569000E22002F0DDFFE22002F0DAFFBF2002F09C
:1056A000E3FFAA2002F0D4FFB02002F0DDFF0D20BE
:1056B00002F0CEFF002002F0CBFF0D2002F0C8FF69
:1056C000002002F0C5FF112002F0C2FF002002F00E
:1056D000BFFF192002F0BCFF002002F0B9FF21201B
:1056E00002F0B6FF002002F0B3FF2D2002F0B0FF61
:1056F000002002F0ADFF3D2002F0AAFF002002F0E2
:10570000A7FF5D2002F0A4FF002002F0A1FF5D20B2
:1057100002F09EFF002002F09BFFB12002F0A4FFE8
:10572000802002F095FF002002F092FF8B2002F013
:105730008FFF002002F08CFF962002F089FF0020EE
:1057400002F086FFB22002F08FFF002002F080FFFF
:10575000002002F07DFF022002F07AFF002002F01C
:1057600077FF032002F074FF002002F071FFB320E6
:1057700002F07AFF002002F06BFF002002F068FFC9
:10578000002002F065FF002002F062FF002002F01E
:105790005FFF002002F05CFF002002F059FF0020B4
:1057A00002F056FF002002F053FF002002F050FFED
:1057B000002002F04DFF002002F04AFF002002F01E
:1057C00047FF002002F044FF002002F041FF0020CC
:1057D00002F03EFF002002F03BFF002002F038FF05
:1057E000002002F035FF002002F032FF002002F01E
:1057F0002FFF002002F02CFF002002F029FF0020E4
:1058000002F026FFB42002F02FFF8B2002F020FFD1
:10581000002002F01DFF962002F01AFF002002F087
:1058200017FFA12002F014FF002002F011FFB520A5
:1058300002F01AFF022002F00BFF002002F008FF26
:10584000032002F005FF002002F002FF042002F016
:10585000FFFE002002F0FCFEB62002F005FF002053
:1058600002F0F6FE002002F0F3FEB72002F0FCFE8C
:10587000002002F0EDFE002002F0EAFE3F2002F0E0
:10588000E7FE002002F0E4FE5E2002F0E1FE0020D0
:1058900002F0DEFE642002F0DBFE002002F0D8FE03
:1058A0008C2002F0D5FE002002F0D2FEAC2002F0E7
:1058B000CFFE002002F0CCFEDC2002F0C9FE00206A
:1058C00002F0C6FE702002F0C3FE002002F0C0FE0F
:1058D000902002F0BDFE002002F0BAFEEB2002F0A4
:1058E000B7FE002002F0B4FEDC2002F0B1FE002082
:1058F00002F0AEFEB82002F0B7FE002002F0A8FED3
:10590000002002F0A5FE002002F0A2FE002002F01E
:105910009FFE002002F09CFE002002F099FE002075
:1059200002F096FE002002F093FEBA2002F09CFEE8
:10593000242002F08DFE002002F08AFE002002F0FA
:1059400087FE002002F084FEC12002F08DFE2020A0
:1059500002F07EFE002002F07BFE542002F078FE72
:10596000002002F075FEFF2002F072FE002002F01F
:105970006FFEC22002F078FE0A2002F069FE0020CD
:1059800002F066FE042002F063FE002002F060FEDA
:10599000C32002F069FE3C2002F05AFE002002F013
:1059A00057FE3A2002F054FE002002F051FE39204A
:1059B00002F04EFE002002F04BFE372002F048FEBF
:1059C000002002F045FE3C2002F042FE002002F0E2
:1059D0003FFE362002F03CFE002002F039FE32206D
:1059E00002F036FE002002F033FE2F2002F030FEDF
:1059F000002002F02DFE2C2002F02AFE002002F0F2
:105A000027FE292002F024FE002002F021FE26209D
:105A100002F01EFE002002F01BFE242002F018FE01
:105A2000002002F015FE242002F012FE002002F0F9
:105A30000FFE232002F00CFE002002F009FE3C20A5
:105A400002F006FE002002F003FE362002F000FE07
:105A5000002002F0FDFD322002F0FAFD002002F0ED
:105A6000F7FD2F2002F0F4FD002002F0F1FD2C20C4
:105A700002F0EEFD002002F0EBFD292002F0E8FD2F
:105A8000002002F0E5FD262002F0E2FD002002F0F9
:105A9000DFFD242002F0DCFD002002F0D9FD2420EF
:105AA00002F0D6FD002002F0D3FD232002F0D0FD4D
:105AB000002002F0CDFDC42002F0D6FD622002F0ED
:105AC000C7FD002002F0C4FD052002F0C1FD00204A
:105AD00002F0BEFD842002F0BBFD002002F0B8FD04
