:020000040800F2
:1000000080E1012095020008D7870008C378000826
:10001000D3870008BD1B000891AC00080000000059
:1000200000000000000000000000000005A800081B
:10003000C31B000800000000291B000809A80008D5
:10004000B9020008B9020008B9020008B9020008A4
:10005000B9020008B9020008B9020008B902000894
:10006000B9020008B9020008B9020008B902000884
:10007000B9020008B9020008B9020008B902000874
:10008000B9020008B9020008B9020008B902000864
:10009000B9020008B9020008B9020008B902000854
:1000A000B9020008B9020008B9020008B902000844
:1000B000B9020008B9020008B9020008B902000834
:1000C000B9020008B9020008B9020008B902000824
:1000D000B902000839AC0008B9020008B9020008EA
:1000E000B9020008B9020008B9020008B902000804
:1000F000B9020008B9020008B9020008B9020008F4
:10010000B9020008B9020008B9020008B9020008E3
:10011000B9020008B9020008B9020008B9020008D3
:10012000B9020008B9020008B9020008B9020008C3
:10013000B9020008B9020008B9020008B9020008B3
:10014000B9020008B9020008B9020008B9020008A3
:10015000B9020008B9020008B9020008B902000893
:10016000B9020008B9020008B9020008B902000883
:10017000B9020008B9020008B90200080000000036
:10018000B9020008B902000800F002F800F072F8A5
:100190000AA090E8000C82448344AAF10107DA45E2
:1001A00001D100F067F8AFF2090EBAE80F0013F0C2
:1001B000010F18BFFB1A43F001031847B0160500E2
:1001C000D01605000A444FF0000C10F8013B13F064
:1001D000070408BF10F8014B1D1108BF10F8015BA0
:1001E000641E05D010F8016B641E01F8016BF9D193
:1001F00013F0080F1EBF10F8014BAD1C0C1B09D1EA
:100200006D1E58BF01F801CBFAD505E014F8016B5B
:1002100001F8016B6D1EF9D59142D6D370470000ED
:100220000023002400250026103A28BF78C1FBD8FF
:10023000520728BF30C148BF0B60704766291EF0C7
:10024000E480642900F03881782900F071817329F5
:1002500000F01D87002070471FB51EF0D1F800F098
:100260006BFF0400002000211DF07CFDE0601FBD3D
:1002700010B510BD01F01EF81146FFF7EDFF1BF0A1
:100280003BFA01F03CF803B4FFF7F2FF03BC13F0B4
:1002900046FE00000C48016841F4700101600B4803
:1002A00080470B480047FEE7FEE7FEE7FEE7FEE774
:1002B000FEE7FEE7FEE7FEE7FEE700000548064929
:1002C000044A064B7047000088ED00E029A80008AA
:1002D0008901000880D1012080E1012080D1012026
:1002E00072B6704762B6704772B602B4EFF311810E
:1002F00080F31188BFF34F8FBFF36F8F084602BCA6
:1003000062B6704772B680F31188BFF34F8FBFF3A8
:100310006F8F62B6704730BF704720BF7047B0FA2A
:1003200080F0704790FAA0F0B0FA80F0704790FA31
:10033000A0F07047704753EA020C00F069802DE985
:10034000F04B4FF00006002B1FBFB3FA83F503FA02
:1003500005F424FA05F65E4012BF1643B2FA82F5A0
:1003600002FA05F4C5F120051EBF22FA05FC44EA95
:100370000C04203556EA044C4FEA144418BF641CA0
:100380004FF000084FF00009904271EB030C39D395
:10039000002919BFB1FA81F701FA07F6B0FA80F720
:1003A00000FA07F6C7F120071EBF20FA07FC46EA4D
:1003B0000C062037B6FBF4FCA7EB0507103F07F04F
:1003C0001F0BCBF120060CFA0BFB2CFA06F644BFF0
:1003D000B3460026202FA4BF5E464FF0000B5BEA19
:1003E000060C08BF4FF0010B19EB0B09ABFB027CAD
:1003F00048EB0608C01B06FB02CC0BFB03CC71EBE1
:100400000C01C1E70B46024641464846BDE8F08B69
:1004100013B54FF000004FF00001AFF30080BDE8CE
:100420001C4070470FB4044910B503AA029800F0AD
:1004300033FE10BC5DF814FB0C0000200FB41CB59B
:10044000074B06AA7B4469460090059800F0F5FD2D
:100450000020694600F004FE1CBC5DF814FB00009F
:10046000190C000070B50C460546012A05D0287805
:10047000800600D5EA69002302E0012305E05B1C49
:10048000934202D2E05C0028F9D1A869E618C01AAC
:10049000A861286A184428622846AFF3008004E067
:1004A000D5E9012114F8010B9047B442F8D328464E
:1004B000AFF3008070BD00002DE9F0410646002436
:1004C00010687529314616A510D0AFF300800028BA
:1004D00002DA404213A507E031688A0701D512A568
:1004E00002E0490704D511A5012401E0AFF3008023
:1004F00000210A2206F1240709E0B0FBF2FCB0FB60
:10050000F2F302FB1C00303078541846491C0028D6
:10051000F3D123462A463046BDE8F04100F01FBB28
:10052000000000002D0000002B0000002000000053
:1005300070B504460D4621461068AFF3008021884F
:10054000090502D50F4A7A4402E00E4A7A440E3277
:10055000002104F1240305E000F00F060009965D78
:100560005E54491C0028F7D120780023000704D5E9
:10057000702D02D009B1022311322046BDE870402F
:1005800000F0EDBA221105002DE9F05F894604461E
:100590004FF0000ADFF874B1FB44C0F820A02046F9
:1005A000E1688847002874D0252806D0D4E90121C5
:1005B0009047206A401C2062F1E700265F462046F3
:1005C000E16888472028054607DB312D05D27819D8
:1005D00010F8200C08B10643F1E7B00701D526F06A
:1005E0000406C4F81CA00027C4F818A02A2D09D0BE
:1005F000284613F08DFC38B304EB8708303DC8F86B
:10060000185019E059F8041B204604EB8702916149
:10061000E1688847012F054618D1E069002820DAF3
:1006200026F020061DE0D8F8180000EB800005EB4E
:1006300040003038C8F818002046E1688847054671
:1006400013F066FC0028EED1012F0AD02E2D08D120
:100650002046E16888477F1C0546022F46F02006A9
:10066000C4DBA069002803DA404246F00106A0611D
:10067000F00701D026F010066C2D0BD0682D09D0A4
:100680004C2D39D06A2D35D0742D35D07A2D33D0FC
:1006900016E038E0E1682F4620468847B842054614
:1006A00009D16C2F26D04FF48060E16806432046C4
:1006B0008847054604E06C2F1AD04FF4807006433B
:1006C0000DB3A5F14100192802D8203546F4006683
:1006D0004A462946204626604E46FFF7AFFD80B1C8
:1006E00001280BD0F61D26F0070000F1080956E797
:1006F0004020E4E78020D8E70020D6E706F104098F
:100700004DE7284652E7206ABDE8F09FF810050043
:10071000401ECAB210F8011F8A4202D00029F9D146
:100720000020704740EA010310B59B070FD1042A4F
:100730000DD310C808C9121F9C42F8D020BA19BAAC
:10074000884201D9012010BD4FF0FF3010BD1AB111
:10075000D30703D0521C07E0002010BD10F8013B66
:1007600011F8014B1B1B07D110F8013B11F8014B8D
:100770001B1B01D1921EF1D1184610BD40EA0103A6
:10078000024630B59B0710D14FF0013400E008C29B
:1007900008C91D1B9D4315EAC41FF8D013F0FF01C3
:1007A00002F8011B0DD01B0AF8E711F8013B002BE2
:1007B00002F8013B05D011F8013B002B02F8013B88
:1007C000F3D130BD10B5431C02E010F8011B71B12C
:1007D0008107FAD14FF0013202C88C1A8C4314EA17
:1007E000C211F9D0C01A0A0603D0C01E10BDC01A2B
:1007F00010BD0A0401D0801E10BD0902FCD0401EAD
:1008000010BD421E12F8013F002BFBD111F8013B35
:10081000002B02F8013BF9D17047032A40F23080E7
:1008200010F0030C00F0158011F8013BBCF1020F31
:10083000624498BF11F801CB00F8013B38BF11F8B2
:10084000013BA2F1040298BF00F801CB38BF00F8C9
:10085000013B11F0030300F06B80083AC0F0088000
:1008600051F8043B083A51F804CBA0E80810F5E72A
:10087000121D5CBF51F8043B40F8043BAFF300800D
:10088000D20724BF11F8013B11F801CB48BF11F882
:10089000012B24BF00F8013B00F801CB48BF00F852
:1008A000012B7047431A28BF9A427FF6B6AF032A3E
:1008B0001044114440F2268010F0030F1EBF11F8BF
:1008C000013D521E00F8013D10F0030F7FF4F6AF1A
:1008D00011F0030300F00584083AC0F00B8051F8D2
:1008E000043D083A51F804CD40F8043D40F804CDE9
:1008F000FFF7F3BF121D5CBF51F8043D40F8043D03
:10090000AFF30080D20724BF11F8013D11F801CDEB
:1009100048BF11F8012C24BF00F8013D00F801CDBB
:1009200048BF00F8012C704701B5FFF776FF01BD05
:1009300010B5203AC0F00B80B1E81850203AA0E87A
:100940001850B1E81850A0E81850BFF4F5AF5FEAAE
:10095000027C24BFB1E81850A0E8185044BF18C961
:1009600018C0BDE810405FEA827C24BF51F8043B08
:1009700040F8043B08BF7047D20728BF31F8023B5C
:1009800048BF11F8012B28BF20F8023B48BF00F8F0
:10099000012B704701F0FF03114601B543EA032222
:1009A00042EA024200F00BF801BD02F0FF0343EA05
:1009B000032242EA024200F002B84FF0000204298A
:1009C000C0F0128010F0030C00F01B80CCF1040C7E
:1009D000BCF1020F18BF00F8012BA8BF20F8022BB2
:1009E000A1EB0C0100F00DB85FEAC17C24BF00F858
:1009F000012B00F8012B48BF00F8012B70474FF086
:100A0000000200B5134694469646203922BFA0E85E
:100A10000C50A0E80C50B1F12001BFF4F7AF09076A
:100A200028BFA0E80C5048BF0CC05DF804EB89005B
:100A300028BF40F8042B08BF704748BF20F8022B9E
:100A400011F0804F18BF00F8012B70474FF0013CA8
:100A500050F8042B51F8043B9A4221D1A2EB0C032D
:100A6000934313EACC1317D150F8042B51F8043BED
:100A70009A4215D1A2EB0C03934313EACC130BD18A
:100A800050F8042B51F8043B9A4209D1A2EB0C0315
:100A9000934313EACC13DBD04FF00000704700BF44
:100AA000D01A01BAB1FA81F101F0180122FA01F06D
:100AB000CB40C1F12001DBB2C0B2C01A2CFA01F365
:100AC000D11A914311EAC311E6D1704770477047BC
:100AD0007047704730B5B0F10A024FEA900E71F1DD
:100AE00000034EEA817EB0EB0E0061EB91014FEA0C
:100AF000101E4EEA017E10EB0E0041EB11114FEA81
:100B0000102E4EEA016E10EB0E0041EB11214FEA60
:100B1000104E4EEA014E10EB0E0041EB1141401811
:100B200041F100014FEAD00040EA41704FEAD101A3
:100B300010EB80054FEA810444EA907444EB010411
:100B40006D1944EB0404521BA3414FF0000348BF4E
:100B50000A3200D530BD401C41F1000130BD2DE905
:100B6000F0470D4699469246044600F12408016874
:100B7000880604D5E06921F01001216000E0012021
:100B8000A84201DD471B00E00027A1697A1902EBAA
:100B90000900081AA0612078C00602D42046AFF3ED
:100BA0000080002608E0D4E901211AF806009047E9
:100BB000206A401C761C20624E45F4DB2078C0067B
:100BC0000AD52046AFF3008006E0D4E901213020A9
:100BD0009047206A401C2062381EA7F10107F4DC10
:100BE00007E0D4E9012118F805009047206A401C6D
:100BF0002062281EA5F10105F3DC2046AFF300803A
:100C00002078000602D50220BDE8F0870120FBE72E
:100C100070472DE9FF4F0C461E464FF0FF378BB053
:100C2000D2E90001DDF860800A908A46C1F30A55D6
:100C300005B93D46002108464FF00000BAF1000F0B
:100C400000F4400005DA00EB80004FF4400101EAB7
:100C500050004FEA9059B9F1010F00DDB9460A98EA
:100C600050EA4A000ED044F61050A5F2FF35454335
:100C70002F14B8F1000F1ED07542291E1EDDC9F1D8
:100C800000021CE0B8F1010F4FF0000001D030214C
:100C900003E0F24305E02154401CB042FBDB304648
:100CA0000022002121540B99C1F80880C1E90020DD
:100CB0000FB0BDE8F08FBD1B6D1CDEE74A4600DAC1
:100CC000694206A800F07CFA06AB93E8070003AB84
:100CD00083E8070050460A9900F01AFB8DE80700E8
:100CE000A0F500501F3800900398002D0ADD42F255
:100CF0001F014A460844002303A90390684600F0F8
:100D000083FD09E0A0F500504A461F38002303A9DF
:100D10000390684600F08DFD8DE807000004000C8C
:100D200003D04FF0FF30410800E01046B8F1000F4B
:100D300003D00022009215461EE0751E05D4FFF771
:100D4000C9FE303262556D1EF9D5B3460122084303
:100D500002D000227F1C04E02078302801D100223C
:100D60007F1E002A099784D01DE0112D07DAFFF7B6
:100D7000B1FE303262556D1C50EA0102F5D10843D4
:100D800002D00098C8B10EE00021681E05E0235C87
:100D9000625C63542254401E491C8142F7DBAB461F
:100DA000A81B401E0990002004F80B000B98099A1C
:100DB000C0F80880C0E9002B7AE711264FF0000840
:100DC00057E72DE9F04F88460446D21D22F007016F
:100DD00091B0D1E90001CDE90A0113F01BF80246F8
:100DE0000B98C00F01D02D2007E02068810701D5A6
:100DF0002B2002E0202101EAC000032A099001D043
:100E0000072A05DB03464146204600F099F90BE12D
:100E10002078800601D5E06900E00620B8F1650F72
:100E2000814606D0B8F1660F18D0B8F1670F70D1BF
:100E300031E00020B9F1110F009001DB112301E036
:100E400009F101030AAA01A90CA8FFF7E2FEDDE9F6
:100E50000C70002609F10105834647E001204B464E
:100E600000904FF000470AAA01A90CA8FFF7D1FE95
:100E7000DDE90DB00C995D46002610B909F10100BD
:100E80000D18B9EB050003D4C0F1FF3609F10105D7
:100E9000A5EB09002BE0B9F1010F01DA4FF00109D0
:100EA0000020B9F1110F0090484601DD112300E048
:100EB00003460AAA01A90CA8FFF7ABFEDDE90C70F6
:100EC0004D4600268346207800070AD4AB4500DA59
:100ED0005D4601A8012D04DD411911F8011C3029DE
:100EE00007D04F4502DA17F1040F04DA01208246D9
:100EF0000FE06D1EEEE7002F02DCED1B3E4403E029
:100F0000781CA84200DD7D1CB81B00F1010A4FF0DF
:100F100000472078000703D4AA4501DB4FF0FF3AD1
:100F20000021B7F1004F0DF143088DF8431024D094
:100F300002202B23002F01DA7F422D230A21021EDB
:100F4000A0F1010000DC5FB197FBF1FC97FBF1F22F
:100F500001FB1C7C17460CF1300C08F801CDEEE7C4
:100F6000A8F1010003702188090501D5452100E0A1
:100F70006521A0F1010800F8011C09980FA9A1EB57
:100F80000807FF1D00B10120411901EBEA70A169BA
:100F90003844081A401EA0612078C00602D42046BA
:100FA000AFF30080099828B1D4E901219047206A65
:100FB000401C20622078C00622D52046AFF3008076
:100FC0001EE0002E04DBB34502DD01A8805D00E0D9
:100FD0003020D4E901219047206A401C2062761C11
:100FE000AAF101005FEA000A0AD100F0A5F8C06882
:100FF0000168405CD4E901219047206A401C2062CE
:10100000281EA5F10105DCDC07E0D4E9012118F870
:10101000010B9047206A401C2062381EA7F101078F
:10102000F3DC2046AFF30080032011B041E600005E
:1010300001694A1C02610878704700B58FB0CDE99C
:1010400001310021059105497944CDE9031011468C
:101050006846FFF799FA0FB000BD0000E5FFFFFFFB
:101060000A6802F8010B0A60704710B5436913B1B2
:10107000AFF3008001E0FFF7F5F9012010BD127811
:1010800000F124010A7000224A700122EDE7116884
:101090004FF0FF32E9E70000074B70B50D467B4487
:1010A000FFF7CBFF0446284600F0FCF810B14FF0E4
:1010B000FF3070BD204670BD2B600100431A28BF71
:1010C0009A427FF635AC104410F0030F11441EBF56
:1010D00011F8013D521E00F8013D10F0030F7FF49E
:1010E000F6AF103AC0F00A8010B531E91850103A46
:1010F00020E91850BFF4F9AFBDE81040530724BFF2
:1011000031E9081020E9081044BF51F8043D40F8C7
:10111000043D12F0030F08BF7047D20728BF31F813
:10112000023D48BF11F8012C28BF20F8023D48BFFE
:1011300000F8012C704700000048704740D10120A2
:101140002DE9F0411F46044603260168072A01F4F1
:10115000006004DB08B116A505E016A503E008B1A0
:1011600015A500E015A521F010002060A069C01EA3
:10117000A0610FB1401EA0612046AFF300804FB1C7
:10118000D4E9012138469047206A401C2062C01CE7
:10119000206206E0206AFAE7D4E9012115F8010B84
:1011A0009047761EF8D22046AFF30080BDE8F0816C
:1011B0004E414E006E616E00494E4600696E6600FB
:1011C0002DE9F047814616468AB0354878440DC867
:1011D0008DE80D0032487844801C03AC0DC884E8CB
:1011E0000D0041F69B300844372190FBF1F290FB53
:1011F000F1F5A5F1800501FB12041B3C02D5644208
:10120000012000E00020DFF898A080460027FA4483
:10121000AAF1BE0A0EE0E0070AD03246684607EBA4
:10122000470101230AEB810100F003FB8DE8070071
:1012300064107F1C002CEED1194F7F44AE3F19E0A3
:10124000E80715D007EB04100DF1180A90E80E001E
:101250008AE80E00C068F04201D198190890324621
:10126000012306A903A800F0E4FA03AB83E8070012
:101270006D10641C002DE3D14FF001033246694626
:10128000B8F1000F03A802D000F0BEFA01E000F0B0
:10129000D0FAC9E90001C9F808200AB0BDE8F08712
:1012A00054050500007B00F080007047004870473F
:1012B00020D101207546FFF7F9FFAE4605006946CB
:1012C000534620F00700854618B020B5FEF7F6FF1C
:1012D000BDE820404FF000064FF000074FF0000837
:1012E0004FF0000B21F00701AC46ACE8C009ACE8B8
:1012F000C009ACE8C009ACE8C0098D46704710B51C
:101300000446AFF300802046BDE81040FEF7BBBFA7
:101310005FEA400C08BF91F0000F4FEA8C234FEAC0
:10132000C12243EA51514FEA1C5018BF00F5F0406A
:101330004FEA300018BF41F000415FEA6C5C00F0FA
:101340002980BCF1FF3F08BF40F080407047130C7C
:1013500006BF12044FF0100C4FF0000C130E04BF28
:1013600012020CF1080C130F04BF12010CF1040C53
:10137000930F04BF92000CF1020CD30F04BF520074
:101380000CF1010C11464FF00002A0F11F00A0EB80
:101390000C00704711F0004F08BF704731F000415A
:1013A0003FF4D5AF0B0C06BF09044FF0100C4FF003
:1013B000000C0B0E04BF09020CF1080C0B0F04BF4C
:1013C00009010CF1040C8B0F04BF89000CF1020C15
:1013D000CB0F04BF49000CF1010CCCF12003A0EBB2
:1013E0000C0022FA03F302FA0CF241EA030100F1C5
:1013F0000100704720F07F4C80EA030023F07F4714
:10140000ACEB070303F57C5300F0004003F1FF034E
:101410002DE980494FEA154B09B44FEA144325EAF8
:101420000B4E24EA03480FF2042606EB1327490863
:101430003E785FEA320203FB0667C7F5000707FB49
:1014400006F64FEA54374FEAD64606F1020607FB86
:10145000066CCCF1005C4FEA1C472CEA074C07FBFA
:1014600006F40CFB06F504EB15464FEA961634BF5E
:1014700000204FF000404FEAD13706FB07FC4FEA4F
:101480001C4C0CFB0BF7D21B03FB0CF761EB0701A9
:101490000CFB0EF7B0EB074072EB17420CFB08F7A2
:1014A00034BFA2EB0742B2EB074261EB17414FEAB0
:1014B0000C444FEA910706FB07FC4FEA1C4C0CFB5F
:1014C0000BF7B0EBC74072EB573203FB0CF734BF9E
:1014D000A2EBC742B2EBC74261EB57310CFB0EF7F0
:1014E000B0EBC70072EB57720CFB08F734BFA2EBEE
:1014F000C702B2EBC70261EB5771039F4FEA8161EC
:1015000041EA921104EBCC044FEAD1374FEA8262F0
:1015100006FB07FC42EA90124FEA80604FEA1C4C3F
:101520000CFB0BF7D21B03FB0CF761EB07010CFB69
:101530000EF7B0EB074072EB17420CFB08F734BF15
:10154000A2EB0742B2EB074261EB17414FEA8C5521
:101550004FEA910704EB9C2406FB07FC4FEA1C4C66
:101560000CFB0BF7B0EBC74072EB573203FB0CF7E9
:1015700034BFA2EBC742B2EBC74261EB57310CFB61
:101580000EF7B0EBC70072EB57720CFB08F734BFD5
:10159000A2EBC702B2EBC70261EB577115EB4C250A
:1015A0004FEA816141EA92114FEA82624FEAD137F4
:1015B00042EA901206FB07FC44F100044FEA806007
:1015C0004FEA1C4C0CFB0BF7D21B03FB0CF761EB37
:1015D00007010CFB0EF7B0EB074072EB17420CFB58
:1015E00008F734BFA2EB0742B2EB074261EB1741A9
:1015F00015EB1C154FEA813141EA92414FEA8232E4
:1016000042EA90424FEA80304FEA0C7644F10004FF
:1016100048EA03434EEA0B484FF0000EB2EB080CC9
:1016200071EB030724BF624639464EEB0E0E4FF0B6
:10163000000B0018524149414BEB0B0BB2EB080C6D
:1016400071EB03077BF1000B24BF624639464EEB7A
:101650000E0E4FF0000B0018524149414BEB0B0BA3
:10166000B2EB080C71EB03077BF1000B24BF624661
:1016700039464EEB0E0E51EA020718BF46F001063E
:1016800016EB0E7655F1000254F1000103D5BDE8CA
:101690008901BDE80088BDE88901BDE80048B619A8
:1016A000524141EB0101A3F10103704780807F7E2D
:1016B0007D7C7B7A797877767675747372717170C8
:1016C0006F6E6E6D6C6C6B6A6A696868676666657A
:1016D0006464636362616160605F5F5E5E5D5D5C08
:1016E0005C5B5B5A5A595958585757565655555579
:1016F0005454535352525251515050504F4F4F4ED9
:101700004E4D4D4D4C4C4C4B4B4B4A4A4A49494926
:101710004848484747474746464645454544444468
:10172000444343434342424242414141002B9C4691
:1017300030D477002BD01CB54FEA370703B44FF0F5
:1017400010004FF01001BAF1000F06D0BCF1000FED
:10175000DCBF40F0080040F008014FF000000FBC73
:10176000BDE810400BF1010BBBF1010F08BF5FEAB0
:10177000170722BF12F1010211F101014FF00041E0
:1017800043F1000300F0004043EA00007047F9D342
:101790005708D0E746EA064613F1400F4FEA1646CF
:1017A0001FDD13F1200FDFBF16430A46002120334F
:1017B0005B42BED0C3F1200746EA064602FA07F7AD
:1017C0004FEA164646EA0706C3F1200722FA03F25B
:1017D00001FA07F721FA03F14FF0000342EA07028A
:1017E000A7E746EA020646EA06464FEA164646EAF2
:1017F0000106BCBF46EA0646360C4FF000034FF028
:1018000000024FF0000194E72DE9804C9A46934680
:1018100070B491E8380007C831EA400C48BF34EA98
:10182000430C03D5FFF7E6FDFFF780FFF0BCBDE8F2
:10183000008C2DE9804C9A46934670B491E83800AC
:1018400007C810F0804F08BF13F0804F03D100F09D
:1018500005F8FFF76BFFF0BCBDE8008C20F07F4778
:1018600080EA030023F07F4C07EB0C03A3F57C53C5
:1018700000F00040A3F1FE0392F0000F00F0B380EF
:1018800095F0000F00F077802DE901494FEA1140F3
:101890004FEA144621EA004800FB06FC24EA06470A
:1018A00008FB06F607FB08F800FB07F718EB0648ED
:1018B0004CEB164C4FEA124B18EB07484FEA154613
:1018C0004CEB174022EA0B4E0BFB06FC25EA0647C1
:1018D0000EFB06F607FB0EFE0BFB07F71EEB064E94
:1018E0004CEB164C4FF000061EEB074E4CEB174B23
:1018F00018EB0B0840F1000018EB0E0B58EB00083A
:1019000040F100008F1A4FF000013CBFC943661B35
:1019100014BFB5EB040C00213CBFC943F61B4FEAD2
:1019200017444EEA8E0E27EA04454FEA1C4704FB93
:1019300007622CEA074C05FB07F70CFB05F604FBD6
:101940000CFC16EB074642EB174216EB0C4642EB3B
:101950001C421BEB060658EB0202414146EA9E067A
:1019600001D5BDE80189B619524141EB0101A3F14E
:101970000103BDE801894FEA14454FEA114724EA03
:10198000054621EA074C05FB07F406FB07F70CFBAD
:1019900006F105FB0CFC11EB074144EB17444FEA41
:1019A000124711EB0C4144EB1C4422EA074C05FBA7
:1019B00007F206FB07F70CFB06F605FB0CFC16EB23
:1019C000074642EB174216EB0C4642EB1C456A18E1
:1019D00054F1000148BF7047B619524141EB010173
:1019E000A3F10103704795F0000F37D04FEA114281
:1019F0004FEA144721EA024624EA074C02FB07F1AA
:101A000006FB07F70CFB06F402FB0CFC14EB074487
:101A100041EB17414FEA154714EB0C4441EB1C41D5
:101A200025EA074C02FB07F506FB07F70CFB06F659
:101A300002FB0CFC16EB074645EB174516EB0C4674
:101A400045EB1C42121951F1000148BF7047B6190D
:101A5000524141EB0101A3F1010370474FEA1445E4
:101A60004FEA114724EA054621EA074C05FB07F136
:101A700006FB07F70CFB06F24FF0000605FB0CFC1B
:101A800012EB074241EB174112EB0C4251EB1C41A8
:101A900048BF7047921841EB0101A3F10103704761
:101AA00072B64EF62250CEF2000040F2FF01C0F2B4
:101AB00000010170002080F3098840F2A000C2F20A
:101AC0000000016881F3088807F032FB40F2AB00A8
:101AD000C2F2000040F2AC01C2F200010A780270CA
:101AE00040F2C800C2F2000040F2CC01C2F2000194
:101AF0000A680260106880F30988EFF3148040F0F0
:101B0000020020F0040080F31488BFF36F8FBDE85B
:101B1000F04F0FBCBDE8005006BC62B6084726482F
:101B20004FF080510160704772B640F2A402C2F2D9
:101B30000002116881F31188BFF34F8FBFF36F8FDD
:101B400062B6EFF309801EF0100F08BF20ED108A77
:101B500020E9F04F40F2C805C2F20005296808608C
:101B6000744607F0E5FA40F2AB00C2F2000040F222
:101B7000AC01C2F200010A78027040F2CC01C2F25C
:101B800000010A682A6044F0040E1068B0E8F04FC3
:101B90001EF0100F08BFB0EC108A80F3098840F2E5
:101BA0000002C0F2000272B682F31188BFF34F8FB9
:101BB000BFF36F8F62B6704704ED00E000BFFEE731
:101BC0007047704770B504461D460023B5F5804F39
:101BD00013D154F822300C480340D1E9000640EA02
:101BE00006108E6840EA06208E8940EA06408E691B
:101BF0003043034344F8223003E06FF0704044F870
:101C00002200002070BD00000000F0CF10B5034698
:101C10000022086853F8202012480240D1E901044C
:101C20002043CC6820430C6920434C6920438C69D5
:101C30002043CC6920430C6A20434C6A20438C6AC1
:101C40002043CC6A2043CC6B20430C6B20430243DF
:101C50008868082801D142F04002086843F8202033
:101C6000002010BD8000F0FF30B503460024501C5A
:101C700053F8204004F04044D1E9000540EA051043
:101C80008D6840EA05208D8940EA0545088A401E96
:101C900045EA0055087D801E45EA00608D692843AD
:101CA0000443501C43F82040002030BD2DE9F04390
:101CB0000446C56887B090468946002002F050F976
:101CC000064625B1287910B146F0020001E026F061
:101CD000020002F045F92069012558B1D4E9021249
:101CE0008DE82600039563882288046841464846AB
:101CF000A0471EE0124F134B214638681B68427CF8
:101D0000E068984730B9E088012801D0002001E060
:101D10003868806BA288E388A1680095CDE904103B
:101D2000CDE902320195638822884146484605F094
:101D300009FE07B03046BDE8F04302F011B90000DB
:101D4000FC000020EC000020104810B5006802F0F4
:101D5000EBF80F48006802F0F2F8012002F078F981
:101D6000002002F083F9002002F090F900210846DB
:101D700001F0F6F8002002F0F3F80648006802F0DF
:101D8000FBF8BDE81040002002F034B9F800002054
:101D9000F4000020F00000202DE9F04FDFF828B11A
:101DA00091B04FF0FF35DBF80030B3F92210069107
:101DB000DE69B3F92490F469A189814206D8E289E9
:101DC000824203D3471AD4F8008012E0D4E901819B
:101DD00000296FD00A8882426CD84D88854269D329
:101DE000801A82B2486800EB8200B0F90070B0F946
:101DF0000250781C5ED0307EA17C10FB01FA217C61
:101E0000CDE90701B3F92A60304606F029FAC0B2DD
:101E10000E90DBF8000007FB0A81A37C826B012790
:101E2000CDE90412CDE90273C069089AC17E807EB3
:101E3000CDE90001DDE90603494605F083FD681C94
:101E400018D046F0020006F00BFADBF80000A37C85
:101E500005FB0A81826BCDE90273CDE90412C069EA
:101E6000089AC17E807ECDE90001DDE9060349467E
:101E700005F068FDDBF800005D46C069417E007E2C
:101E8000814214D9022E12D086F0040006F0E8F93F
:101E90002868C069027EC37E12FB0391437E857E63
:101EA000089A06984B4412FB050205F0ADFE0E9809
:101EB00006F0D6F9DBF80000627C418C11444184C5
:101EC00011B0BDE8F08F0000FC000020044800685D
:101ED000C069C06909B1027C0A60407C704700009B
:101EE000FC000020022008807047C06982898A4275
:101EF00002D8C2898A4210D2806880B102888A42A0
:101F00000DD843888B420AD3406800EB8100A0EBD8
:101F10008200B0F90000002801DB0120704700209A
:101F2000704700002DE9F04F87B00546574800681C
:101F3000B0F92A8055480068C069C46907E0208864
:101F4000A84203DC6088A84200DB02E0A468002C01
:101F5000F5D100BF002C7DD066682946204600F0F0
:101F600087FEB778404606F07BF906904748006840
:101F7000806B47490122CDE90227CDE9041043488F
:101F80000068C069C07E41490968C969897EDFF877
:101F9000FCC0CDE90010DCF800C0DCF81CC09CF8E7
:101FA00018303278DFF8E4C0DCF800C0BCF9241047
:101FB000DFF8D8C0DCF800C0BCF9220005F0C2FC94
:101FC00032480068C069407E30490968C969097EA5
:101FD000884244DD2D480068C06990F81B902B486A
:101FE0000068C069407E10FB09FA28480068C06993
:101FF000007E10FB09FBB8F1020F2FD000F022FE8B
:10200000059000F0EDFD049001F099FFDFF87CC031
:10201000DCF800C0BCF922C096F800E00CEB0E0220
:10202000DFF868C0DCF800C0BCF924C00CEB0A0380
:10203000DFF858C0DCF800C0BCF924C00CEB0B0181
:10204000DFF848C0DCF800C0BCF9220005F0DCFD78
:10205000059800E016E001F072FF00BF00BF06988F
:1020600006F0FEF809480068B0F922107078074AB7
:102070001268D269927E10FB021000B2034909680F
:10208000488400BF07B0BDE8F08F0000FC000020CE
:1020900070C4012002460E480068C069C16907E0AB
:1020A0000888904203DC4888904200DB02E089689F
:1020B0000029F5D100BF41B148680078044B1B6886
:1020C000DB699B7E10FB03F070470020FCE70000FB
:1020D000FC0000202DE9F0410025144E144C17E0BF
:1020E0002069C5EB051700EBC7007022001D3168A1
:1020F000FEF71EFC2069002140F8371000EBC700F6
:1021000000F10C018161011DC163091D6D1C016499
:10211000A0688542E4DB0EF0C7FD2169C0EB00102A
:1021200001EBC000001D3060BDE8F081FC00002024
:10213000F401002070B510490E480860084603F00D
:1021400097FB0D4C143CA068C0EB0010C50028465E
:1021500000F06EF8094B20612A461B680021984761
:102160004FF0FF30206002F0A7FDBDE870400EF098
:102170009BBD0000351B010808020020C40100209F
:1021800010B5040009D001F063F920460AF03EF9C9
:10219000044602F045FD204610BD002010BD0000A1
:1021A00038B5054601F054F92846FFF7E9FF040069
:1021B0000AD000F0BDF8064B00902A461B680021AB
:1021C0009847684600F0E4F802F02AFD204638BD42
:1021D000C4010020024A106021F0030050607047E3
:1021E0001CCF012010B5040011D001F031F90848CE
:1021F000042101EBC401406B415848680AF0BEF865
:1022000020460FF043FEBDE8104002F009BD10BDAE
:102210005CCE0120002808D00449CA6B026000226D
:102220004260026802B15060C86370475CCE012012
:102230002DE9F04104460FF09FF92848E41C24F0F2
:102240000305016C2D1DA94200D90D46C46B13E096
:1022500054F8042CAA420ED184B1216809B16268F5
:102260004A60616809B122680A60C26BA24231D13A
:102270002168C1632EE02468002CE9D18046816B7F
:10228000C0680F1857F8040C3E1A306838B10020A7
:102290000FF0A0FF57F8040C3E1A3068D0B97068F0
:1022A000A84217DB3044441B3046241D0FF04AFF80
:1022B000D8F80C10491BC8F80C10D8F81410294491
:1022C000C8F814107068401B02D031460AF056F866
:1022D00044F8045C2046BDE8F08100005CCE01209B
:1022E00010B500240FF048F90C490F2001EBC00293
:1022F000526C1AB101EBC000406C08E0401EF5D5ED
:1023000008E04168A14200D90C46806810B180689D
:102310000028F6D1A4F10C0010BD00005CCE012015
:1023200002488169491C8161704700005CCE012030
:102330000549CA69521CCA61496B01EBC0010A78A0
:10234000521C0A7000F03CB85CCE012010B501F0C0
:102350007FF8FFF7C5FF64220849B0F5800F04D964
:1023600090FBF2F4086A444303E0096A4143B1FB7D
:10237000F2F402F055FC204610BD00005CCE0120B6
:1023800002488169491E8161704700005CCE0120CE
:102390000A4902684B6B52F8082C03EBC20213780F
:1023A000022B03D3CB690BB15B1ECB611178491EA5
:1023B0001170002101600846704700005CCE0120CA
:1023C0000349042202EBC000496B085808307047EB
:1023D0005CCE01202DE9FE431E46DDE90A54174676
:1023E0008846814605F03CFC182800DD1820009541
:1023F000CDE9014033463A46414648460FF098FF42
:10240000BDE8FE832DE9FF5F8A46DDE911711546BF
:102410003622DDE90F0802EB8704214405FB001694
:102420009B461A4644F64251DDF8389000980FF06A
:1024300063FF5A46314600980FF06BFF5A46002161
:1024400000980FF066FF5A46214600980FF061FF92
:102450005A46282100980FF05CFF5A4651460098D2
:102460000FF057FF5A46294600980FF052FF5A4680
:10247000012100980FF040FFB9F1080F01DC08209E
:1024800001E04FEAC80081B25A4600980FF034FFCD
:102490005A46002100980FF03CFF5A460021009850
:1024A0000FF037FF5A46002100980FF032FF5A46CE
:1024B000002100980FF02DFF5A46394600980FF082
:1024C00028FF009804B05A46BDE8F05F00210FF0E5
:1024D00020BF00002DE9FC5F8946044600F0B8FFEC
:1024E000484600F0BBFB2C4E09EB8907824656F8A4
:1024F0002700019029484FF00108016841B9274998
:10250000C0F80080091D26480860084603F0B0F9AD
:10251000214A09EB8901BAF1000002EB81051BD0C9
:1025200001F0E6FC83464FF07F4001F0FDFC00F037
:10253000B9F800221146206800F0A4FA2068428809
:102540000188504601F038FD46F8274085F80480A0
:10255000584601F0CDFC17E046F8274085F8048086
:102560002869464618B101F0F3FB0020286174B1D8
:102570000096E868A1684B46421AA8686168411A4B
:10258000206801F03FFC2861484610F077FC02F01B
:1025900047FB0198BDE8FC9F98CF01206401002013
:1025A000151B010870B514460D46064600F050FF95
:1025B000204600F053FB0300174804EB840109D0C8
:1025C00050F8210041688068711A2A1A184601F0F3
:1025D000E3FC1CE000EB8104A268B24201D00122BE
:1025E00000E00022E368AB4201D0012300E00023B9
:1025F0001A430CD0236943B150F821008168406828
:102600006A1A311A184601F0C8FBC4E90265BDE830
:10261000704002F005BB000098CF0120024800681E
:10262000407C00F003B80000FC00002010B5044618
:1026300000F00EFF0A4804EB840100EB8103012245
:102640001A7150F8210030B1204610F017FCBDE897
:10265000104002F0E5BA21460248FFF73BFFF6E7DB
:1026600098CF01206814050810B5C2B2CBB2D21AB7
:1026700000D5524293B25B43C0F30722C1F3072453
:10268000121B00D55242000C92B2A0EB114002FB8B
:10269000023200B2002801DA404200B280B200FBF0
:1026A000002010BD10B50021084600F059FC43F68B
:1026B000FF725042BDE8104013460146AFF3008060
:1026C0002DE9FC411C4615460E46074600F0C0FEAB
:1026D000042005F0C5FD804612484069816CC06C3D
:1026E0000F4406440D440444ADF80070ADF80450A6
:1026F000ADF80260ADF80640684609F001FA07E05F
:1027000023462A463146384605F07EFA09F0BAF9E2
:102710000028F5D1404605F0A3FD02F081FABDE89E
:10272000FC810000E80000202DE9F0411C4616461F
:102730000D460746022B02DB0020BDE8F0811C207D
:10274000FFF776FD0028F8D00DB105610AE0094ACF
:1027500052F8241009B905E011460A68002AFBD195
:102760000969016184618682002101604160C0E9DC
:102770000217E2E73401002070B51D46FFF7D4FFD1
:10278000040009D000F00EF8E068006820B90348A2
:10279000006800EB85004465204670BDFC00002009
:1027A000FFF738BD70B5C0B38269022A36DA214915
:1027B000531C0C789C4200DA0B701F4C54F822100A
:1027C00019B944F8220032E019464B68002BFBD1BE
:1027D00006E0CB68C5681B682D68AB4203DD09685D
:1027E0000029F6D11AE0C1B1CB68C6681B6836680B
:1027F000B3420CD1838A012B05D008E01946DB686F
:102800001B68AB4203DB0B68002BF7D129B14B6887
:1028100033B118604A68426004E0FFE7012070BDF0
:1028200044F822004860884200D100210160002065
:1028300070BD00005A0100203401002010B503E0F3
:102840000468FFF7AFFF20460028F9D110BD000053
:1028500010B50C4B8269002153F82240844205D107
:10286000046843F82240026802B1516042680AB12C
:102870000368136002680AB14368536001604160F5
:1028800010BD00003401002000207047022801DB49
:1028900000207047054951F8200004E0C16809682C
:1028A0000029F6D000680028F8D1704734010020D4
:1028B0002DE9F041044602F0EBF90619164F1FE02E
:1028C00000F00CF93868844200DD0446A04600F0B0
:1028D000BFFD12480568FFF723FD2C0017D000BF8D
:1028E00002F09EF9641EFBD1404602F0B1F91DB121
:1028F00000F0AEFD6D1EFBD1FFF742FD02F090F936
:1029000002F0C6F9341A002CDADCBDE8F08140464A
:1029100002F09EF9F0E700007401002000020020A0
:102920002DE9FC4706005FD000F092FD00F0BAFAF6
:102930003C4C81462068B0F9228000F0E3FA21681F
:1029400007468A8CD01B888441E000BF47F6FF71A0
:10295000304602F03FFE82460146304602F00CFE51
:102960002168054691F82C0000F00300012841D0B1
:1029700002283BD000204A8C101A4884ADF8000091
:102980006A1E1044ADF80400888CADF80200A9F16D
:1029900001010844ADF806006A465146304602F08F
:1029A00045FB2168BDF8020088845146304602F09C
:1029B00025F8064430780A281ED00D281CD0BDF812
:1029C0000000216828444884307818B1761C30789B
:1029D0000028BBD12068818C39448184818D21F00D
:1029E0000301818502F01CF9BDE8FC8705EBD57079
:1029F0004010C0E72846BEE7206890F82C1001F090
:102A0000030101290BD0022909D0018C41843178BE
:102A10000A29D9D1828C02EB09018184D4E7A0F87C
:102A20002280F4E7FC00002070B514460D460646EF
:102A300000F00EFD05480068458484843046FFF7A9
:102A40006FFFBDE8704002F0EBB80000FC00002012
:102A50002DE9F04107460A4815460E460068B0F9D0
:102A60002C0040F0020001F001FB04462A463146EA
:102A70003846FFF7D9FF2046BDE8F04101F0F6BA2D
:102A8000FC0000207CB514460D46064600F0E0FC34
:102A900011480068816CC06C0D4404443188681E84
:102AA0000844ADF80400ADF800507188601E084479
:102AB000ADF80600ADF80240684609F021F806E0DE
:102AC000224629463046FFF7F1F808F0DBFF0028E0
:102AD000F6D102F0A5F87CBDFC00002010B5002462
:102AE00000E0012400F004F80028FAD1204610BDCF
:102AF0000B4810B50068002410B1804700B10124D4
:102B000008F080FA00B101240648006810B180473F
:102B100000B101240448006800B18047204610BD80
:102B200008010020400100200001002008B50B46EC
:102B3000002805D0009281888268C08800F001F8E2
:102B400008BD10B50828029C30D008DC04FB01F455
:102B500001280AD0022813D0042804D11CE0102830
:102B600028D020282CD0002010BD04EBD30003F087
:102B70000701105CC1F10701C84000F0010010BD61
:102B800004EB93000621105C01EA4301C1F1060148
:102B9000C84000F0030010BD04EB5300D907105CDF
:102BA00002D000F00F0010BD000910BD04FB013081
:102BB000105C10BD481004FB003032F8100010BD4E
:102BC000881004FB003052F8200010BD034951F872
:102BD0002000C1688A6A08211047000034010020E3
:102BE00010B500F035FC05F047F805F031F9044662
:102BF00002F016F8204610BD10B5044600F028FC7F
:102C0000054800210068C069426820469047044694
:102C100002F006F8204610BDFC00002070B50C46FE
:102C2000054600F015FC064821460068C069426868
:102C300028469047044601F0F3FF204670BD00008F
:102C4000FC00002010B500F003FC05F01DF805F0B5
:102C5000FFF8044601F0E4FF204610BD00210228E1
:102C600002D2024951F8201008467047EC010020BA
:102C70002DE9F34F8BB00D46804800682422C169CE
:102C80006846FDF755FE7D480068C069017E0B98D7
:102C90004068807811FB00F009900998B0F5806FCA
:102CA00002DD4FF480600990242275496846FDF7E3
:102CB00039FD08B90C260EE0242272496846FDF75A
:102CC00031FD08B9102606E024226F496846FDF759
:102CD00029FD00B918263046F21706EB5272D210C1
:102CE0003146F31706EB5373DB10A6EBC3030BB1AE
:102CF000012300E000231A44724302F0FF0A514608
:102D00006248FDF75AFE802D52DA0C2E06D0102EA6
:102D100015D0182E22D0202E40D130E000240BE018
:102D2000A5F1200000EB4000594901EB8000005D57
:102D300056490855601CC4B20C2CF1DB2EE000246F
:102D400009E0A5F12000534901EB0010005D4F4957
:102D50000855601CC4B2102CF3DB1FE000240BE00C
:102D6000A5F1200000EB40004B4901EB0010005D95
:102D700046490855601CC4B2302CF1DB0EE000243B
:102D800009E0A5F12000454901EB8010005D3F49B5
:102D90000855601CC4B2402CF3DB00BF00BF0D2DF2
:102DA00001D00A2D67D151463848FDF706FE62E092
:102DB0002846E91705EB1161C1F30727E91705EB71
:102DC00011610912A5EB012101F0FF08B8F1810F93
:102DD00006DB402F04DBFF2F02D0B8F1FF0F12D12A
:102DE0004FF0000B09E000210A9801700A98401C7E
:102DF0000A900BF1010000F0FF0BBBEB460FF2DB7A
:102E00000DB0BDE8F08F7F2F03DAA7F14000C7B205
:102E100002E0A7F14100C7B2A8F1810000F0FF086D
:102E2000BE2010FB087000FB0AF90C2E04D0102EF7
:102E30000CD0182E1ED113E01948D0F8090000EB71
:102E400009015246114819F0E3F813E01448D0F88C
:102E5000110000EB090152460C4819F0D9F809E0BD
:102E60000F48D0F8190000EB09015246074819F045
:102E7000CFF800BF00BF00BFC2E70000FC00002089
:102E800048140208B81402082815020870C401206A
:102E900090150208041A0208F41F0208C43102083F
:102EA00038CE012010B500F0D3FA04480068C0699C
:102EB000447E01F0B5FE204610BD0000FC0000205D
:102EC00070B515460E46044600F0C2FA2A46314651
:102ED000204604F045FF040002D000203060286046
:102EE00001F09EFE204670BD70B50C46054600F010
:102EF000AFFA2146284602F089FBBDE8704001F098
:102F00008FBE000010B5002400F0A2FA0B48006844
:102F100090F82C1001F00C01042904D0082906D0E7
:102F20000C2907D103E0C069047E641E02E0C06979
:102F3000007E440801F074FE204610BDFC00002015
:102F4000024951F8200000690068704734010020F0
:102F5000024951F8200000694068704734010020A0
:102F600070B50C46054600F073FA044800684584C5
:102F7000848401F055FE002070BD0000FC0000209C
:102F800010B5044600F064FA204604F061FF0446E0
:102F900001F046FE204610BD70B501F077FF1B4CD6
:102FA0002E20207001F07AFE19480EF081F904F00D
:102FB00075FF054604F0FCFEC0B1002604F00CFFCE
:102FC000B0B10020064307D004F00FFF064604F01E
:102FD000F8FE314605F03EF90021084601F018F8E8
:102FE00008F060FAFFF776F8606B09E00126E5E784
:102FF0000120E7E7006800B18047606B40686063CC
:103000000028F7D10120A070284670BDE8000020FC
:1030100028CF01202DE9F04107460D481C461546F2
:10302000D0F800C00E46BCF1000F384601D0E04792
:1030300001E00EF07BFB002807D023462A463146EC
:103040003846BDE8F0410EF071BBBDE8F0810000EC
:10305000700100202DE9FC471E46DDE90A451746B0
:103060008846814600F0F4F933463A4641464846E0
:10307000CDE900450AF038FD044601F0D1FD2046B7
:10308000BDE8FC872DE9F84390460D46064601272A
:1030900000F0DEF948F29840FFF782F804000FD004
:1030A000FFF746F90090C0E901656846FFF770F93F
:1030B0004146204600F019F907462046FFF792F8EE
:1030C00001F0AEFD3846BDE8F88300002DE9F04779
:1030D00000F5E0448246DFF86491D4F88804A2B099
:1030E0004FF00108002538B194F80804F0B300BF90
:1030F000D4F8800430B32BE094F80904002850463B
:1031000003D00EF03DFB90B915E00AF09BF970B9C1
:10311000D4F82014D4F8840488420CDC6946504664
:103120000EF0C8FE18B99DF80000D92803D0012080
:1031300022B0BDE8F08784F80884D4F82004C4F8ED
:103140008804D5E7D4F87C04FFF7F2F8C4F88004CB
:103150000746D4F87404FFF7EBF82090C0B10026BE
:10316000D4F81804B04210DD209800E012E000EB23
:10317000C611D9F80030802268469847394668461B
:103180000DF024FE761C4037EAE720A8FFF700F98F
:1031900084F8085494F80A0405281CD2DFE800F0EB
:1031A0002B270B0F030094F88804C0070BD150465F
:1031B00009F01EFD0DE0504609F098FC09E094F876
:1031C0008804C00702D084F8948404E0504609F0D3
:1031D000FFFB84F89454D4F88804401EC4F8880493
:1031E000D4F88404401EC4F884040020A0E75046AC
:1031F00009F09AFBEDE7D4F88814D4F82004461AB5
:10320000D4F88C04FFF794F880460090D4F880043A
:1032100000EBC607D4F80C6409E0D9F800300822A6
:10322000394640469847761E08F108084037002E78
:10323000F3DC6846FFF7ACF8CBE70000C8010020DC
:103240002DE9F04100F5E0440546D4F8800418B1BA
:1032500005F5E940FFF79CF8D4F88C0408B1FEF7B7
:10326000C1FFD4F8900408B1FEF7BCFFD4F8740491
:1032700008B1FEF7B7FFD4F87C0408B1FEF7B2FF3F
:1032800000260EE005EB061707F5E047D7F8C40364
:1032900008B1FEF7A7FFD7F8840308B1FEF7A2FF35
:1032A000761C94F81C03B042ECDCD4F878040028B7
:1032B00003D0BDE8F041FEF795BFBDE8F08102689C
:1032C00011441378016003EB032000EB03407047C7
:1032D00030B5026802EB810113785478957801606B
:1032E00043EA042040EA054030BDF8B50C460646E6
:1032F00000F038F8054684B13046FFF719F8009021
:10330000008A20600098418A00F5E040616090F8F2
:103310000904A0606846FFF73BF82846F8BD38B5B9
:10332000054600F01FF8040019D128460EF004F8F5
:10333000040014D12846FEF7FBFF47F20941009034
:10334000095C31B16846FFF723F828460AF07CF99A
:1033500038BD0EF057F904466846FFF719F82046C5
:1033600038BD00007FB50025FEF7E2FF0126009082
:10337000044606771A4820600020A06102A9204672
:103380000DF0C7FC20BB226803A920469047F8B97E
:103390009DF80800FF281BD19DF80C00D82817D1F4
:1033A0008DF8040001A900980EF084FD80B99DF805
:1033B0000400C02808D0C12806D0C22809D100982E
:1033C00000F5E04080F8096400980DF073FB00B14F
:1033D00001256846FEF7DCFF04B0284670BD0000FA
:1033E000130D010838B500F5E0440546D4F888040B
:1033F00018BB94F809040028284603D00EF0C0F941
:1034000090B916E00AF01EF870B9D4F82014D4F878
:10341000840488420ADC694628460EF04BFD18B940
:103420009DF80000D92801D0012038BD012084F882
:103430000804D4F82004C4F88804401EC4F88804A2
:10344000D4F88404401EC4F88404002038BD000071
:1034500070B5184CE06820B101F012FC6168884238
:1034600004D001F047FC01F00BFC6060E068401CF8
:10347000E06001281CD10DF017FC0546206885424C
:1034800016D0002813DBFFF7FFF901462068C0EBD8
:103490000012206900EBC2025167C5EB0511064A14
:1034A00000EBC100011D1160406FFFF7C7F92560F7
:1034B00070BD0000F4010020FC0000201CB50400D9
:1034C00004D10E480068C46D002C16D0FFF7C0FF71
:1034D0002046FEF72DFF009044696846FEF758FF2E
:1034E0004CB12046FEF724FF019081688968884727
:1034F00001A8FEF74DFF01F093FB1CBDFC0000206E
:1035000001490A4600F002B801F0FFFF2DE9F0433F
:1035100087B015460C465FEA000846D0FFF798FFD3
:10352000002000F01DFD814621480068C66D404620
:10353000FEF7FEFE00900068806900F0D9FC0746A7
:1035400040F6FF70C44204D10098B0F90440B0F9CD
:1035500006500098611E0289ADF804401144ADF890
:1035600008104189681E0844ADF80650ADF80A00FD
:1035700007F090FB6846FEF70BFF01A808F0C0FAC1
:1035800006E02A462146404600F0D0FA08F07AFAD2
:103590000028F6D1384600F0ABFC304600F090F938
:1035A000484600F0DDFC01F03BFB07B0BDE8F083CE
:1035B000FC0000202DE9FE4F984691468A4683463E
:1035C00000270C9EFFF744FF184819490068407C0B
:1035D00051F82040E1680968042903D02468002CD0
:1035E000F8D100E01CB9FFF751F9041E1BD0E068C8
:1035F0000121C26A20469047050011D02469A068C5
:103600008047401C02D10B4C46F001060096CDE9E4
:10361000015443464A465146584600F0E5F90746EC
:1036200001F0FEFA3846BDE8FE8F0000FC000020E5
:1036300034010020C815050838B504001CD0FFF778
:1036400007FF0E480068C06DA04201D100F042FCA7
:103650002046FEF76DFE0090406908B101F0C9FAFE
:1036600000980068FFF79CF86846FEF791FE204638
:10367000FEF7B8FD01F0D4FA38BD0000FC000020D0
:103680002DE9FF4F83B09A468B460746FFF7E0FED1
:10369000DFF83891D9F80000447C4D4800570128E4
:1036A000204606DD04F08AFB0546204604F09AFB1E
:1036B00005E004F06BFB0546204604F06DFB044674
:1036C0001FB302A901A8FFF70FFCB7F900000028FB
:1036D00000DA0020B7F902608046002E00DA0026EA
:1036E00001984119B7F90400491E0EF0A1F90546E9
:1036F00002980119B7F90600491E0EF099F9A5EBD9
:103700000802841B521C641C03E04FF0000846466C
:103710002A46BAF1000F01D1C4F1000A002A51DD96
:10372000002C4FDD10980090534631464046FFF77D
:1037300041FF5FEA000A10D000F07CF80746A04283
:1037400006D0D9F80000406C10B1322108F054FDC9
:10375000504600F0B5F8002523E059460598884703
:1037600001F05EFA012007B0BDE8F08F611BB9429D
:1037700002DA504600F088F83DB1721941465046D1
:1037800000F0C6F85046FFF799FE5946059888475D
:103790001048016809B1002088475046FFF7B0FE85
:1037A0003D44A542E2DB5046FFF746FF002000F013
:1037B00087F8A74206D0D9F80000406C10B1332139
:1037C00008F01AFD01F02CFA0020CCE7FC000020E4
:1037D000580100205403002038B505004FF00004C4
:1037E00011D0FFF735FE2846FEF7A2FD00900068D5
:1037F00000698068804704F0D3FF04466846FEF7FE
:10380000C7FD01F00DFA204638BD38B504000ED0D2
:10381000FFF71EFE2046FEF78BFD00F11804009016
:103820006846FEF7B5FD01F0FBF9204638BD0020E3
:1038300038BD000038B504460025FFF709FE1CB965
:1038400008480068C46D44B12046FEF771FD009041
:10385000B0F90A506846FEF79BFD01F0E1F92846F1
:1038600038BD0000FC00002070B505460024284645
:1038700009F07AFB641C18B1BDE8704000F07AB81A
:10388000052CF4DB70BD000038B50C46050004D1F2
:103890000A480068C56D002D0FD0FFF7D9FD2846F6
:1038A000FEF746FD0090B0F90A10A14200DD448108
:1038B0006846FEF76DFD01F0B3F938BDFC0000204D
:1038C000F8B50546FFF7C4FD104E3068C46DCDB1A4
:1038D0000CB100F0FFFA07F0D3FA2846FEF728FDF6
:1038E00000903168CD650068FEF75CFF6846FEF722
:1038F0004FFD04F04DFD04F08DFC00BF01F090F988
:103900002046F8BD00F0E6FAF8E70000FC000020D1
:103910007CB515460E46040004D115480068C46DF8
:10392000002C24D0FFF794FD2046FEF701FD2DB2B8
:103930000090C58034B2848004F06CFC009840692B
:1039400080B1FEF7F5FC009A0190B2F90810818071
:10395000B2F90A20C28011B10AB10480458001A8E1
:10396000FEF716FD6846FEF713FD01F059F97CBD20
:10397000FC00002001490A4600F002B801F0FFFFF8
:103980007FB515460C4606002DD0FFF761FD304689
:10399000FEF7CEFC40F6FF710190CC4203D1B0F9A6
:1039A0000440B0F906500289611E1144ADF8084088
:1039B000ADF80C104189681E0844ADF80E00ADF852
:1039C0000A5001A8FEF7E4FC02A808F099F806E006
:1039D0002A462146304600F091F808F053F80028B6
:1039E000F6D101F01DF97FBD2DE9FF4FDFF8E8B0FA
:1039F00083B01C46DBF80010DDE9106092464FF002
:103A000000084B7C42461299FEF78EFE050060D0FE
:103A100028698068804704F0C3FE81460AFB09F1EB
:103A2000C91DCF08FEF792FCF10705D1C11700EBC5
:103A30009170801000EB4000002C09DC1FB1183899
:103A4000B0FBF7F000E000206442A04200DC044636
:103A5000F00707D10090DDE903012346524601F04B
:103A60004DF88046002C03DC2846FEF799FE30E036
:103A700004FB07F01830F10702D0FEF781FB01E0EC
:103A8000FEF78EFB06001CD0FEF752FC019005608D
:103A9000039981800499C180A0F808A04481C0F8EE
:103AA0001480C0E9037901A8FEF772FC1298AE6099
:103AB0002861DBF80000407CA861304607B0BDE813
:103AC000F08F2846FEF76CFEB8F1000001D0FEF73B
:103AD00089FB0020F2E70000FC000020054B30B419
:103AE0001B68054C5B7C54F823301B6930BC0FF01D
:103AF0006DBC0000FC00002034010020F8B5154624
:103B00000E460746FEF714FC009000681621C068B8
:103B1000426A0020904704466846FEF739FC002CB4
:103B200003D02A4631463846A047F8BDF8B51646B8
:103B30000F46050012D0FEF7FBFB00904469684673
:103B4000FEF726FC2846FFF747FE0346082800DD5F
:103B50002CB13246394628460FF002FDF8BD3246F8
:103B6000394628460FF09CFEF8BD10B5002821D03C
:103B700009B30AB3B1F90040B2F900309C4200DA4F
:103B800023460380B1F90240B2F902309C4200DAC8
:103B900023464380B1F90440B2F904309C4200DD71
:103BA00023468380B1F90610B2F90620914200DC69
:103BB0001146C18010BD11460A6802604968416023
:103BC00010BD00280BD003880B4403808388194460
:103BD0008180418811444180C1881144C18070476F
:103BE00070B50E4D0446D5E90001884209D10C4953
:103BF000884201D13C3000E00C3807C884E8070057
:103C000006E090E80E0084E80E000DF0E3FA28606C
:103C1000207A002800D0012070BD00000803002099
:103C200078D001200448D0E90010814201D1012060
:103C300070470020704700000803002010B50949B4
:103C40000446086820B908480860084601F010FEDC
:103C500007490648086020460FF040FABDE81040CA
:103C600000F024BA18030020111C010805B1000857
:103C70004401002070B50025FFF7EAFB094CD4E9A8
:103C8000002082420AD0D2E9005610460DF0ACFA6C
:103C900020603146284607F009FD012500F0C0FFED
:103CA000284670BDDC0100202DE9FC41154DDDE901
:103CB00008742D68B5F90860864200DD3046B5F914
:103CC0000C60964200DA3246824219DBB5F90A608E
:103CD0008E4200DD3146B5F90E509D4200DA2B468A
:103CE0008B420DDB00E02C46E5682D6825B1042DE4
:103CF00002D02568002DF6D1CDE9007404F074F9E6
:103D0000BDE8FC81FC000020B0F90220B1F90630CA
:103D10009A4213DCB1F90220B0F906309A420DDC68
:103D2000B0F90020B1F904309A4207DCB1F9001073
:103D3000B0F90400814201DC012070470020704787
:103D40000146024870220068FCF7F2BDFC0000202A
:103D500038B5040020D0FFF77BFB20460FF010FAA7
:103D600020460FF085FA2046FEF7E2FA0090006840
:103D7000FEF750FA0098C068FEF734FA0098C06960
:103D8000FEF730FA6846FEF703FB2046FEF72AFAF4
:103D9000BDE8384000F044BF38BD70B515460E464A
:103DA00004000AD0FFF754FB2A46314620460EF0A5
:103DB000F1FDBDE8704000F033BF70BD38B50400C0
:103DC0001ED0FFF745FB2046FEF7B2FA0090007CBC
:103DD000800710D420460DF0C7FC6846FEF7D8FADD
:103DE00020460FF07DF82046FEF7A2FA0090018AE7
:103DF00041F0020101826846FEF7CAFA00F010FFA6
:103E000038BD00002DE9F84304460088089F91461C
:103E10008846E8B36088D8B3E06818B180680028A5
:103E20003BD002E0E088202836D107F001020021D3
:103E30002348FEF779FC05002ED020888600608894
:103E40004643FFF705FB06F12000FEF7A9F906003F
:103E500025D03046AE60FEF76BFA009007824461D1
:103E6000A0F80480A0F80690238808EB0301491EFF
:103E7000018161884944491E418105606846FEF719
:103E800087FAE06878B12146304609F063FD00E02A
:103E900002E040B100F0C4FE0020BDE8F8832846EF
:103EA000FEF77EFCF6E7B80705D530460DF05CFC62
:103EB00030460FF015F800F0B3FE3046EDE7000095
:103EC00074140508024970220968FCF731BD00002E
:103ED000FC00002010B5FFF7BBFA04F051F904F024
:103EE00057FA06F0D7FEBDE8104000F099BE00007A
:103EF00070B50B4D04462868467CFFF7A9FA022CE2
:103F000009D22046FEF7C2FC28B128684474FFF7A6
:103F1000E1FF0448046000F083FE304670BD0000FD
:103F2000FC0000206002002010B50446FFF790FA64
:103F3000204604F045F9BDE8104000F071BE10B510
:103F40000446FFF785FA204604F072F9BDE81040F8
:103F500000F066BE0149886070470000E80000205C
:103F600010B50446FFF774FA204604F079F90446C8
:103F700000F056FE204610BD70B50446FFF768FA03
:103F800004480068C56904B1C46100F049FE2846D0
:103F900070BD0000FC00002070B514460D460646BA
:103FA000FFF756FA22462946304604F09BF90446AC
:103FB00000F036FE204670BD70B514460D4606462C
:103FC000FFF746FA22462946304604F0A1F9044696
:103FD00000F026FE204670BD70B50C460546FFF782
:103FE00037FA2146284604F0BFF9044600F018FECF
:103FF000204670BD70B50546FFF72AFA03480068F1
:10400000847E857600F00CFE204670BDFC0000200A
:1040100070B50C460546FFF71BFA09482246058095
:104020000848048008480068417C084850F821008E
:10403000C1680B6A29469847BDE8704000F0F0BDA2
:104040006001002062010020FC00002034010020FB
:1040500070B50546FFF7FCF903480068047E057655
:1040600000F0DEFD204670BDFC00002070B5044667
:10407000FFF7EEF904480068B0F92C50848500F091
:10408000CFFD284670BD0000FC00002070B504463E
:10409000FFF7DEF904480068B0F92A50448500F0C3
:1040A000BFFD284670BD0000FC00002002480068EB
:1040B000002800D000477047300200200249CA683B
:1040C00002B9C860FFF7F2BFDC01002010B50400A0
:1040D0000ED0FFF7BDF920460EF04EF820460FF047
:1040E000D3F82046FEF77EF8BDE8104000F098BDFA
:1040F00010BD38B50C46050011D0FFF7A9F92846C8
:10410000FEF716F900908089204201D0012400E0DA
:1041100000246846FEF73CF900F082FD00E001242F
:10412000204638BD38B5054600202860064804689A
:1041300044B12046FEF7FCF800900069286068460C
:10414000FEF726F9204638BD2803002038B50400C4
:104150004FF000000D46086011D02046FEF7E8F849
:104160000090846844B16846FEF712F92046FEF7D5
:10417000DFF80090006928606846FEF709F92046DC
:1041800038BD00002DE9F04F00242DED028B9BB0CF
:10419000DFF800B4DDE9266ADDF8A090A6469FEDC1
:1041A000FE0ACBF80040022839D009AD6F460DF168
:1041B0000C0C03287EDB00BF4FF0000469D100BF68
:1041C00053F8248000EE108A0DF1180808EB8408DB
:1041D000B8EEC00A88ED000A56F8248000EE108A76
:1041E00005EB8408B8EEC00A88ED000A51F8248077
:1041F00000EE108A07EB8408B8EEC00A88ED000ACA
:1042000052F8248000EE108A0CEB840804F10104BB
:10421000B8EEC00A844288ED000AD1DB42E148686A
:104220000968401A00EE900AD3E90010F8EEE01A8F
:10423000401A00EE900AD948F8EEE00A81EEA01A82
:1042400000EE901AF8EEE00A80ED001A61EE600AC6
:1042500080ED010AC0ED020A80ED030A5168126880
:10426000891A00EE101AD6E90012B8EEC01A521AD6
:1042700000EE102AB8EEC00AC1EE000A00EE101AD5
:10428000B8EEC00AC0ED040A20EEC00A80ED050AAF
:1042900092E10CEB840888ED000A07EB840888EDB6
:1042A000000A05EB840888ED000A0DF1180808EBF8
:1042B000840800E0B5E1641C88ED000A032CE8DB0B
:1042C000002794E053F82750DDED080A00EE105A5D
:1042D000B8EEC00A30EE800A8DED080A56F8274085
:1042E000DDED0B0A00EE104AB8EEC00A30EE800A8F
:1042F0008DED0B0A51F82780DDED020A00EE108AE1
:10430000B8EEC00A30EE800A8DED020A52F827C0DE
:10431000DDED050A00EE10CA7F1CB8EEC00A30EED3
:10432000800A8DED050A00EE105ADDED060AB8EEA2
:10433000C01A00EE105AB8EEC00A41EE000A00EEB4
:10434000105AB8EEC01A00EE104ACDED060ADDEDA7
:10435000070AB8EEC00A41EE000A00EE104AB8EEB5
:10436000C01A00EE104ACDED070ACDED090AB8EEED
:10437000C00ADDED0A0A41EE000A00EE105AB8EE5E
:10438000C01A00EE108ACDED0A0ADDED000AB8EE83
:10439000C00A41EE000A00EE104AB8EEC01A00EE64
:1043A000108ACDED000ADDED010AB8EEC00A41EE3B
:1043B000000A00EE105AB8EEC01A00EE10CACDED99
:1043C000010ADDED030AB8EEC00A41EE000A00EE74
:1043D000104AB8EEC01A00EE10CACDED030ADDEDAA
:1043E000040AB8EEC00A41EE000ACDED040A874285
:1043F000FFF668AFDDED060A9DED080A80EE801A33
:104400008DED061A9DED071ADDED0B0AC1EE201A9F
:10441000CDED071A9DED091AC1EE001ACDED091A6E
:104420009DED0A1AC1EE201ACDED0A1A9DED001A73
:10443000C1EE001ACDED001A9DED011AC1EE201A51
:10444000CDED011A9DED031AC1EE001ACDED031A50
:104450009DED041AC1EE201A01EE100AB8EEC11A41
:10446000CDED041AC0EE011A00EE100AB8EEC00A33
:1044700080EE801A00EE100ACDED081AB8EEC00AE0
:104480008DED0B1ADDED020A80EE801A00EE100AA7
:10449000B8EEC00A8DED021ADDED050A80EE801A35
:1044A0008DED051ADDED061ADDED080A9DED0A5ABF
:1044B0009DED0B2A71EEE05A9DED071A75EE424A0A
:1044C0009DED093A31EE604A25EEA40A73EE423AB8
:1044D00004EE630AB5EEC00AF1EE10FA04D3B5EEAD
:1044E000C00AF1EE10FA6BDDDDED006ADDED022AA7
:1044F0009DED016A294836EEE27A76EE627A27EE81
:10450000248A07EEE38A67EEA57A47EE447AC8EE7E
:10451000008A87EE807AC0ED008A80ED017A20EE75
:10452000867A01EE627A61EEA22A40EEE62A27EE52
:10453000037A05EE227A61EE262A41EEC62A02EEC1
:10454000227AC7EE002AC0ED022A9DED036ADDED56
:10455000052A76EE626A66EEA47ADDED044A34EE50
:10456000E27A47EE637AC7EE803AC0ED033A67EE2F
:10457000253A46EEC43A83EE804A60EEA43A41EE14
:10458000623A61EEA22A40EEC62A23EE833A80ED1B
:10459000044A05E014020020000000003CD0012085
:1045A00061EE060A05EE223A41EEE40A02EE203AF6
:1045B000C3EE000AC0ED050A0120CBF8000002E0BE
:1045C000BEF1000F2DD05C460021C4E901A90846C8
:1045D0000DF0D2F90021E06008460DF0FBF92061F2
:1045E000A9F10101AAF101000DF0C6F96061A9F17C
:1045F0000101AAF101000DF0EDF9A0616269E16825
:10460000914201DDE26061612169814201DDA161C8
:104610002061206828B100201BB0BDEC028BBDE8F2
:10462000F08F0120F8E700002DE9FE43DFF8B89095
:1046300005000A9ED9F814C04FF00000CCF34107E2
:1046400009F1300439D0012D02D00120BDE8FE83EC
:10465000DFF8948008F12008C8E90012052131EA4A
:104660000C013ED0012F3CD0C4E90036012199F85D
:104670000030A9404A46194201D000231370137834
:104680001943C9B289F800100329DFD1174E3068E9
:10469000407C03F093FB05463068407C03F0A2FBAE
:1046A000114B0094CDE901502833A3F10802A2F187
:1046B00008010220FFF766FDC8E7DFF82C80032F12
:1046C00008F11808C8E9001208F1100106D00CF032
:1046D0000502012A02D0C1E90036C7E7C1E900633B
:1046E000C4E7C4E90063C1E778010020FC000020B2
:1046F00010B50B46044600F097F8216800290BDB43
:104700001A68002A08DB054B5C68A14204DA996844
:104710008A4201DA002800D0012010BD14020020D6
:1047200070B5254C86B06078F8B100F0BFF8E06055
:1047300000F0BAF8E06803902069049000F03EF8B9
:104740008DF8090004A903A8FFF7D2FF0025B0B136
:10475000A07870B360680090A06801908DF8085050
:10476000684600F037F8A57023E000F0EBF8206110
:1047700000F09BF86078401C607006B070BD039A32
:104780006068111A00D54942049BA068181A00D528
:104790004042A67816B1084402280ADD6260009201
:1047A000A360012601938DF80860684600F012F8B6
:1047B000A6706570E1E70000780100200148407AAA
:1047C0007047000054D00120014948617047000043
:1047D000780100203EB504460C221149FBF7A2FFE8
:1047E000002813D00F480E4D026882B194E80B00E8
:1047F0008DE80B00684601A990479DE80E0085E80A
:104800000E00002802D16846FFF718FA3EBD204688
:10481000FFF714FA94E8070085E807003EBD0000A2
:1048200030D00120100200201D4A1268A2B390ED82
:10483000000A1C4AD1ED000AF8EEC01A92ED001AE7
:10484000B8EEE02AB8EEC00A21EE211AD2ED011A24
:10485000F8EEE00A01EE821AD2ED021A71EE211A88
:10486000B6EE001A71EE811AFDEEE11AC0ED001AE3
:10487000D2ED031A002021EE800AD2ED041A01EED7
:10488000A00AD2ED050A30EE200A30EE010ABDEE94
:10489000C00A81ED000A7047FFE70120FBE7000036
:1048A000140200203CD00120704770471CB52348FB
:1048B000808845F21051884223D02048808841F6F4
:1048C000631188421DD01D48808847F284018842C8
:1048D00017D01A48808844F24231884211D01748D4
:1048E000808847F2160188420BD01448808844F231
:1048F0008431884205D01148808841F218018842ED
:1049000007D10F484168002088470D488489204618
:104910001CBD0B484168002088470948808E00F480
:10492000004048B1694601A819F036F8BDF8040006
:1049300040F6FF71081AEBE70020E9E7C8340020D1
:104940002C0000201CB52048808845F21051884278
:1049500023D01D48808841F6631188421DD01A4833
:10496000808847F28401884217D01748808844F233
:104970004231884211D01448808847F2160188429B
:104980000BD01148808844F28431884205D00E480B
:10499000808841F21801884203D10C48048C2046DB
:1049A0001CBD0A484168002088470848808E00F4F2
:1049B000004030B1694601A818F0EEFFBDF80000D4
:1049C000EEE70020ECE70000C83400202C000020B7
:1049D0002DE9F041084E0446056830680168284614
:1049E0008847074630684168284688472844206041
:1049F0003846BDE8F0810000040100202DE9F041B7
:104A00000C4606460025064F05E0386841683046EA
:104A1000884706440544641EF7D22846BDE8F08165
:104A2000040100202DE9F0411E46069C17468846E9
:104A300005463A46A8687F1C3346D0F804C0414674
:104A40002846E047641EF4D1BDE8F08170B5B0F9A6
:104A50000040091BB0F904408C422CDD00F1140425
:104A6000B0F902500069521B02FB0040CA1800EB6B
:104A7000E104521ED010B0EBE10501F007034FF046
:104A8000FF0102F0070221FA03F0C2F1070201FA66
:104A900002F1CEB221780FD001436D1E04F8011B44
:104AA000002D05DDFF2229462046FBF77EFF2C4422
:104AB00020783043207070BD30400143217070BDBC
:104AC00010B5B0F90030B0F90240C91A00F1140372
:104AD0000069121B02FB003000EBE10001F007034C
:104AE00002788021D9400A43027010BDB0F9061047
:104AF000026951431430FBF782BF00002DE9F843EF
:104B0000804602F10F000011470003FB07F01C462E
:104B1000154689461430FDF743FB060018D0FEF712
:104B200097FC3046FDF704FC0090A0F80080A0F848
:104B300002908580C48007498160012181810761DD
:104B40006846FDF725FC00F06BF83046BDE8F883B9
:104B50000020FBE75416050870B5B0F90660B0F9FF
:104B600004400B6800F1140596421BDD0069A34266
:104B700002FB005000EBE30214DA641EE010A0EB2D
:104B8000E30512F8010B03F00704A040C4B206E0ED
:104B900045B1083312F8014B23F007036D1E002CBA
:104BA000F6D004E0002070BD6006040E5B1C2006F9
:104BB000FAD5FF2C07D0184602E06406240E401CEC
:104BC0006606FAD400E0D81DC443640705D006E0A9
:104BD00012F8014BFF2C09D108306D1EF8D5C01A10
:104BE000401C0B6070BD6206140E401C2206FAD4F5
:104BF000F5E738B50546FEF72BFC2846FDF798FB90
:104C000000908189491E0CB284816846FDF7C0FB83
:104C100014B92846FDF7E6FA00F002F838BD0000A6
:104C20000348C168491EC16001D100F06FB87047E8
:104C3000F401002010B54FF48C310348FDF7CAFA97
:104C40000248FFF787F910BD409D002008110508B4
:104C500038B504464FF47A70604305490968B0FBE3
:104C6000F1F56A460821284604F064FA38BD0000D0
:104C7000C849020810B50120FFF7EAFF10BD000087
:104C80000248006890F82B0070470000C800002020
:104C900008B5684604F004FB08BD000008B56B4683
:104CA000002202A1034803F06BFF08BD4B65795F4A
:104CB00053454D0058B5012008B56B46012205A1AA
:104CC000074803F05DFF6B46002206A1084803F089
:104CD00057FF08BD446973705F53454D00000000E5
:104CE00040B501204576656E745F53454D00000068
:104CF0004CB501201CB501A800231A4619460090A6
:104D0000014803F05BFF1CBD40B5012008B56A46B1
:104D10000021024803F0E2FF08BD000040B5012079
:104D20000EB508B102AA00E00022002301A96846DE
:104D300000F0D4FB0EBD0000074910B50C7818B187
:104D400001200870801E03E0002008706FF07F4093
:104D500002F0E2FD204610BDE900002010B5082A4F
:104D60000EDC0346012A18D0022A56D0042A76D037
:104D700010F8042B03F8012B491EF9D1012010BDB6
:104D8000102A08DC4FEA000230F8043B22F8023B0C
:104D9000491EF9D1F2E7002010BD10F8042BD2070C
:104DA000120E491E34D010F8044B491E04F00104C1
:104DB00042EA84122CD010F8044B491E04F001047E
:104DC00042EA441224D010F8044B491E04F00104B6
:104DD00042EA04121CD010F8044B491E04F00104EE
:104DE00042EAC40214D010F8044B491E04F0010436
:104DF00042EA84020CD010F8044B491E04F001046E
:104E000042EA440204D010F8044B04F001042243A7
:104E100003F8012B0029C0D1B0E710F8042B92074A
:104E2000120E491E15D010F8044B491E04F003045D
:104E300042EA04120DD010F8044B491E04F003049A
:104E400042EA840205D010F8044B04F00304224324
:104E5000491E03F8012B0029DFD18FE7FFE710F887
:104E6000042B1207120E491E05D010F8044B04F053
:104E70000F042243491E03F8012B0029EFD17DE7DF
:104E800038B50024009400F01DF838BD0B4810B56B
:104E9000816B002910D101218163FFF7CBFEFDF763
:104EA00049F903F087FA054905483C310860BDE837
:104EB0001040084600F0DCBC10BD0000E8000020F7
:104EC000DD1A01082DE9F0410D460699044601B9A5
:104ED00001461F68082A09DC0E46012A1AD0022A58
:104EE0005BD0042A7DD0082A13D18DE0102A07DC7C
:104EF000D3F810C00E46BCF1000F04D0022389E0A5
:104F00000020BDE8F08101CCB84726F8020B6D1EE9
:104F1000F9D189E001CCB847C0074FEA10686D1E8F
:104F200036D001CCB84748EA801000F0FF086D1E6B
:104F30002ED001CCB84748EA401000F0FF086D1EA3
:104F400026D001CCB84748EA001000F0FF086D1EDB
:104F50001ED001CCB84748EAC00000F0FF086D1E23
:104F600016D001CCB84748EA800000F0FF086D1E5B
:104F70000ED001CCB84748EA400000F0FF086D1E93
:104F800006D001CCB84740EA080000F0FF086D1ECB
:104F900006F8018B002DBDD146E001CCB847800753
:104FA0004FEA10686D1E16D001CCB84748EA0010D1
:104FB00000F0FF086D1E0ED001CCB84748EA800013
:104FC00000F0FF086D1E06D001CCB84740EA08008B
:104FD00000F0FF086D1E06F8018B002DDDD123E0E7
:104FE000FFE701CCB84700074FEA10686D1E06D0F6
:104FF00001CCB84740EA080000F0FF086D1E06F833
:10500000018B002DEDD10FE0D3F810C0BCF1000FE3
:1050100004D001232A462046E04705E001CCB847EA
:1050200006F8010B6D1EF9D101206AE77CB5064632
:1050300028480D46006868B1002006F061FD06E0D2
:105040006A462946304608F03BFC06F01BFD002866
:10505000F6D17CBD106800901F4C5068019022680A
:10506000BDF8000032F8481F0844ADF80000BDF854
:10507000020091880844ADF80200BDF804001188D0
:105080000844ADF80400BDF8060091880844ADF866
:105090000600684606F034FD0EE000BF2068BDF84B
:1050A00000106A464184BDF80210818429463046CA
:1050B00008F006FC06F0E6FC0028EFD1206830F886
:1050C000221FC28C891A01804188428D891A418031
:1050D0007CBD00005C010020FC0000202DE9FF4F9A
:1050E0008DB00020DDF86C90164600901D460446F9
:1050F0000246C9F8000008AB03A902A800F0EEF9C7
:1051000018B1002011B0BDE8F08F0898854200DD8D
:105110000546604F0B9560493868407C51F8201077
:10512000049109690691FDF751FD05903868407CAE
:10513000FDF70EFF59498346884201D0012000E067
:1051400000200A9001CE1A9988478246000E0790E7
:1051500077D0009870BB0D9800EB04084D480068AC
:10516000B0F90800404503DDA0EB0807804600E0E9
:1051700000270299049801EB840101EB8701CDE936
:1051800000100B990D98421809920E9B4046194643
:10519000521EFEF789FD01200090059818280ADAB2
:1051A0000298DDE9052300EB840000EB8700E91B92
:1051B00000F0F2F812E00A9880B1029800EB840047
:1051C00000EB87070998A0EB08085946386888471C
:1051D00001C7A8F101005FEA0008F6D1304BD86999
:1051E00080B3DDE9020700EB840007EB8402CDE920
:1051F00002022B4C361F2B46E46930460299A04729
:10520000FF203168B0EB116F02D10299096804E008
:10521000029A1268B0EB126F01D1039A11600299E1
:1052200006F10406091D02910399091D03916D1EE3
:10523000E7D10397D9F8000040F00100C9F8000059
:1052400021E022E0FFE70798FF2812D0C0F1FF021B
:1052500002981B6850F824102AF07F409847039961
:1052600041F82400D9F8000040F00101C9F800100D
:1052700005E00298039950F8240041F82400641CCA
:105280006D1E7FF45FAF03983CE7039941F824A0BB
:10529000E8E70000FC000020340100206D7E0008DB
:1052A000C002002010B50846FFF792FB04460448F0
:1052B0000068C069016820468847204610BD00008C
:1052C000FC000020F0B500EB8103082A0ADC012570
:1052D0004C1E092A10D2DFE802F00F10263E3E5580
:1052E00055555500102A07DC00EB4100491E30F8E7
:1052F000022D43F8042DF9D1F0BD04F00702C2F1EC
:10530000070200EBE40005FA02F604783440D440CA
:10531000521C43F8044DA0EBE20022F007042241A6
:10532000491EF0D1F0BD04F0030200EBA400C2F16D
:10533000030203240578560004FA06F73D40F540C1
:10534000521C43F8045DA0EBA20022F003052A41A1
:10535000491EEFD1F0BD8D4300EB6400C5F10102A1
:105360000F240578960004FA06F73D40F540521CDC
:1053700043F8045DA0EB620022F001052A41491EBA
:10538000EFD1F0BD00EB0100491E10F8012D43F8EC
:10539000042DF9D1F0BD00002DE9F05F0C1E16DDE3
:1053A0005E68014600EB8405082A12DC611E012AB2
:1053B00026D0022A47D0042A6AD0082A07D1071922
:1053C00017F8010DB04745F8040D641EF8D1BDE88B
:1053D000F09F102AFBDC5F693FB12246BC46BDE866
:1053E000F04F02235DF804EB604701EB440700BF78
:1053F00037F8020DB04745F8040D641EF8D1E6E712
:1054000000EBE10001F0070710F801A981468020B8
:1054100020FA07F8B5F104050AEA0800C7F1070108
:10542000C840B04745F804093FB14FEA48604FEA29
:1054300010687F1E641EEFD1C9E719F801A907277C
:105440004FF00108F6E700EBA10001F0030710F8A8
:1054500001A981467900C02020FA01F84FF0060B1F
:10546000B5F104050AEA0800ABEB4701C840B047B4
:1054700045F804093FB14FEA88604FEA10687F1E83
:10548000641EEFD1A3E7032719F801A9B846F7E78F
:1054900000EB6100012710F801A9A7438146B9007C
:1054A000F02020FA01F84FF0040B2D1F0AEA080043
:1054B000ABEB8701C840B04745F804093FB14FEA5C
:1054C00008704FEA10687F1E641EEFD17FE719F85D
:1054D00001A901274FF00F08F6E700002DE9F0477A
:1054E000224C06461F46A06990468946002540B9D1
:1054F0000120A06104F128011D480860084600F061
:10550000B7F9606930B91B480068606110B902F0F2
:1055100040FC606107B138604EB1A06830B9606985
:105520008000FCF785FEA06000B901253060B9F16C
:10553000000F0AD0E06830B960698000FCF778FE9F
:10554000E06000B90125C9F80000B8F1000F0AD0E9
:10555000206930B960698000FCF76AFE206100B9FB
:105560000125C8F800002846BDE8F087C0020020E9
:10557000E91B01085001002073B5144B002201A95A
:105580001B680098984700240090E0B1104900255E
:105590000968C9694A6922B1126812B10199904734
:1055A0007CBD486838B90EE06846FFF711FA054639
:1055B000FDF722FB04440198401E0190F4D52846D3
:1055C00000F032F8044420467CBD0000D8010020E1
:1055D000FC00002073B50D460098002490B10A49E4
:1055E0000968C969496959B14A684AB12946904769
:1055F0007CBD6846FFF7ECF920B10A2802D0641C94
:10560000AC42F6DB20467CBDFC000020044AB2F927
:10561000002002600348B0F90000086070470000F5
:10562000600100206201002038B500246946009422
:10563000FDF7F4FA0099814200DD0C1A204638BDCE
:10564000B0F90030B1F90020934200DA0280B0F9DD
:105650000230B1F90220934200DA4280B0F90430FE
:10566000B1F90420934200DD8280B0F90620B1F93F
:1056700006108A4200DDC180704770B5B1F9004064
:10568000B2F900309C4200DD23460380B1F902509C
:10569000B2F90240A54200DD2C464480B1F9046015
:1056A000B2F90450AE4200DA35468580B1F90610F1
:1056B000B2F90620914200DB1146C1809D4201DB18
:1056C000A14201DA002070BD012070BD01460248F0
:1056D0000068407C00F002B8FC0000202DE9F8438F
:1056E00001268946044602285DDA304F7A6802B105
:1056F00090472E4D5FEA090005F1100532D00128D0
:1057000003D0B9F1020F4ED118E055F8240088B942
:105710002046FDF7BBF8009018B3C0680D21426A1F
:105720006846904702003ED049460098904755F899
:1057300024000026401C45F8240034E02046FDF7F4
:10574000A5F8009068B1C0680D21426A684690478C
:10575000040028D0386800B1804749460098A04727
:10576000002620E055F82400A846012812D1204642
:10577000FDF78CF8009068B1C0680D21426A684658
:105780009047050006D0386800B180474946009828
:10579000A847002658F8241009B1012200E0002291
:1057A000891A48F824103046BDE8F883F00200203A
:1057B00030B581F07F43FF2480F07F4094EA11618F
:1057C00001D120F07F43010E11FB02F1B1FBF4F196
:1057D00000F0FF15C1F1FF0203F0FF14544301FB79
:1057E00005444FF0FF15240A05EA1323C0F30720F0
:1057F000534340F0807001FB003104F0FF1001F0D2
:10580000FF21084380F07F4030BD00002DE9F05FAC
:105810000646DDF8389015460C4600200D99804666
:1058200088421ED2DFF840B00C9F4FF0FF0A02CE34
:1058300008CCAAEB116202FB09F2B2FBFAF0C2B289
:1058400021F07F401946DBF80030984720F07F4078
:1058500001C57F1EEBD10A9804EB800408F101001A
:10586000DCE7BDE8F09F0000C002002070470000A8
:1058700002490A6B4260086370470000E80000209C
:1058800010B5830702D520F8021B521E530811D011
:1058900001EB0144042B09DB10C01B1F10C0042BBB
:1058A00040F8084B40F8044CF6DA01E010C05B1EEB
:1058B000002BFBD1D20700D0018010BD70B504468B
:1058C000A56D00F099F9064694F83500022808D035
:1058D0008020606500BF002084F8340000BF0120F4
:1058E00070BD2068006820F01600216808602068FC
:1058F000406920F0800021684861206C08B9A06CE4
:1059000028B12068006820F008002168086020683D
:10591000006820F00100216808600FE000F06CF9D9
:10592000801B05280AD92020606500BF002084F86C
:10593000340000BF032084F83500D1E720680068F8
:1059400000F001000028E9D194F85C103F20884065
:10595000A86000BF002084F8340000BF012084F854
:1059600035000020BCE7014691F83500022803D03D
:105970008020486501207047052081F835000868BF
:10598000006820F001000A6810600020F3E70000C2
:1059900070B5044600F030F906462546681C10B183
:1059A00004480078054400BF00F026F9801BA84297
:1059B000FAD370BD1C000020F8B502460B46002546
:1059C000002400200021DEE0012606FA01F51E6811
:1059D00006EA0504AC4275D11E7906F00306012ED5
:1059E00004D01E7906F00306022E13D190684F00F2
:1059F0000326BE40B0434F00DE68BE403043906097
:105A0000506801268E40B0431E79C6F300168E40C2
:105A1000304350601E7906F00306032E09D0D0688B
:105A20004F000326BE40B0434F009E68BE40304347
:105A3000D0601E7906F00306022E13D1CF0802F1C2
:105A4000200656F827004E07F70E0F26BE40B0433B
:105A50004F07FF0E1E69BE403043CF0802F12006FB
:105A600046F8270010684F000326BE40B0431E7959
:105A700006F003064F00BE40304310605E6806F03B
:105A80008056B6F1805F7DD100BF00260096404E63
:105A9000366846F480463E4F3E603E46366806F421
:105AA0008046009600BF00BF3A4E8F0856F8270088
:105AB0008E07370F0F26BE40B043374EB24202D199
:105AC000002624E05EE0354EB24201D101261EE000
:105AD000334EB24201D1022619E0324EB24201D118
