:020000040800F2
:10000000B0C50120A1020008AF020008B10200083B
:10001000B3020008B5020008B702000800000000A3
:10002000000000000000000000000000B90200080D
:10003000BB02000800000000BD020008BF0200086B
:10004000C1020008C1020008C1020008C102000884
:10005000C1020008C1020008C1020008C102000874
:10006000C1020008C1020008C1020008C102000864
:10007000C1020008C1020008C1020008C102000854
:10008000C1020008C1020008C1020008C102000844
:10009000C1020008C1020008C1020008C102000834
:1000A000C1020008C1020008C1020008C102000824
:1000B000C1020008C10200081D330008C102000887
:1000C000C1020008C1020008C1020008C102000804
:1000D000C102000859330008C1020008C10200082B
:1000E000C1020008C1020008C1020008C1020008E4
:1000F000C1020008C1020008C1020008C1020008D4
:10010000C1020008C1020008C1020008C1020008C3
:10011000C1020008C1020008C1020008C1020008B3
:10012000C1020008C1020008C1020008C1020008A3
:10013000C1020008C1020008C1020008C102000893
:10014000C1020008C1020008C1020008C102000883
:10015000C1020008C1020008C1020008C102000873
:10016000C1020008C1020008C1020008C102000863
:10017000C1020008C1020008C1020008000000001E
:10018000C1020008C102000800F002F800F078F88F
:100190000AA090E8000C82448344AAF10107DA45E2
:1001A00001D100F06DF8AFF2090EBAE80F0013F0BC
:1001B000010F18BFFB1A43F001031847FC9101001F
:1001C0001C9201000A444FF0000C10F8013B13F0A0
:1001D000070408BF10F8014B1D1108BF10F8015BA0
:1001E000641E05D010F8016B641E01F8016BF9D193
:1001F00013F0080F1EBF10F8014BAD1C0C1B09D1EA
:100200006D1E58BF01F801CBFAD505E014F8016B5B
:1002100001F8016B6D1EF9D59142D6D370470000ED
:100220000023002400250026103A28BF78C1FBD8FF
:10023000520728BF30C148BF0B60704766290DF0D8
:10024000AC84642901F0A086752901F09D86782987
:1002500001F0D686632902F08A83732902F08F8326
:10026000002070471FB50DF08AFC02F09FFB0400D0
:10027000002000210DF076F8E0601FBD10B510BD24
:1002800002F056FC1146FFF7EDFF08F04DFB02F0BF
:1002900074FC03B4FFF7F2FF03BC03F028FC00007A
:1002A0000B48016841F4700101600A480047FEE70D
:1002B000FEE7FEE7FEE7FEE7FEE7FEE7FEE7FEE716
:1002C000FEE7000004480549034A054B704700005B
:1002D00088ED00E089010008B0C10120B0C501200F
:1002E000B0C1012010B5FF48006803F002FCFE48D1
:1002F000006803F0FEFBFD48006803F0FAFBFC48D1
:10030000006803F0F6FBFB48006803F0F2FBFA48D4
:10031000006803F0EEFBF948006803F0EAFB10BD4B
:1003200010B500244FF4007003F0EAFBED490860BB
:100330000846006800B901244FF4007003F0E0FBA8
:10034000E94908600846006800B901244FF40070CC
:1003500003F0D6FBE54908600846006800B90124AF
:10036000A02003F0CDFBE24908600846006800B910
:100370000124402003F0C4FBDE4908600846006801
:1003800000B90124402003F0BBFBDB4908600846AC
:10039000006800B901244FF4F87003F0B1FBD749AD
:1003A00008600846006800B901240CB1FFF79AFF05
:1003B000204610BD2DE9F04704460D461646701B39
:1003C00000EBD07105EB610954F8397004EBC901F9
:1003D00048680DF05EFB804654F8350044F839005B
:1003E00004EBC500406804EBC9014860A94605F16B
:1003F000010A1DE054F83A0039460DF059FB15D8B2
:1004000054F83A0044F8390004EBCA00406804EBA1
:10041000C901486009F1010954F8390044F83A006B
:1004200004EBC900406804EBCA0148600AF1010A04
:10043000B245DFDDA9EB0500012805DDA9F10102C8
:1004400029462046FFF7B6FFA6EB0900012805DD87
:10045000324609F101012046FFF7ACFF44F839703C
:1004600040460DF01DFB04EBC9014860BDE8F08774
:100470002DE9F84F04460D4616461F464FF000087A
:1004800028E04FF0000920E04FF0000BDA4612E0C0
:100490000B9A0AFB029255F822100A9A08FB02A254
:1004A00054F822000DF01CFB594600900DF0D3FAD1
:1004B00083460AF1010A0A988245E9DB0B9808FB9A
:1004C000009046F820B009F101090B988145DBDB6B
:1004D00008F10108B845D4DBBDE8F88F024612B92F
:1004E00009B900207047002A02DD09B90020F9E7A8
:1004F000002903DD8A4201DD0120F3E7002A03DD44
:10050000914201D10220EDE7002A03DD8A4201DA9F
:100510000320E7E71AB9002901DD0420E2E7002AF9
:1005200008DA101E01DB034600E043428B4201DA89
:100530000520D7E7002A08DA101E01DB034600E099
:1005400043428B4201D10620CCE7002A0ADA101E72
:1005500001DB034600E043428B4203DD002901DD5D
:100560000720BFE719B9002A01DA0820BAE70029F5
:1005700003DA914201DD0920B4E7002A03DA91424F
:1005800001D10A20AEE7002A03DA914201DA0B20FA
:10059000A8E71AB9002901DA0C20A3E700290ADA32
:1005A000081E01DB034600E04342934203DD002ABC
:1005B00001DD0D2096E7002908DA081E01DB03465D
:1005C00000E04342934201D10E208BE7002908DA74
:1005D000081E01DB034600E04342934201DA0F208C
:1005E00080E700207EE730B5034601B10AB900205C
:1005F00030BD412901D0412A01D10020F8E7491E30
:10060000521E03EBC20000EBE100047801F0070585
:100610000120A840044201D00120E9E70020E7E7DB
:100620002DE9FE4F04460D4616461F460020019058
:10063000781C82000021324803F069FA781C82009D
:100640000021304803F063FA4FF0000819E04FF042
:10065000000912E004EBC80000EBE900017809F0A2
:10066000070201209040014205D04FF07E510198D1
:100670000DF0F1F9019009F10109B145EADB08F14A
:100680000108A845E3DB38460DF00AFA8246014628
:1006900001980DF0F5F901900120029049E04FF02A
:1006A000000AD0463AE04FF0000912E004EBC9001E
:1006B00000EBE800017808F00702012090400142B9
:1006C00005D04FF07E5150460DF0C5F9824609F134
:1006D0000109A945EADB02980DF0E2F900900199C1
:1006E00012E00000E0010020E4010020E801002009
:1006F000EC010020F0010020F4010020F8010020AE
:1007000024C1012038C101200DF0EAF98346514689
:100710000DF0CEF900D804E008F10108701E404544
:10072000C1DC00BFFD48029940F821800298401CBE
:100730000290781C02998142B1DB0120029035E0E1
:100740004FF0000AD14626E04FF0000812E004EB1B
:10075000C90000EBE800017808F007020120904092
:10076000014205D04FF07E5150460DF074F982469B
:1007700008F10108B045EADB02980DF091F900900C
:1007800001990DF0ADF9834651460DF091F900D86D
:1007900004E009F10109681E4845D5DC00BFE049C5
:1007A000029841F820900298401C0290781C02990F
:1007B0008142C5DB0020029032E0029991FBF7F103
:1007C000D74A52F82120029991FBF7F1491CD44BEA
:1007D00053F82110501800EBD0714910D14A12681B
:1007E000029B42F82310029991FBF7F207FB1211CA
:1007F000CA4A52F82120029991FBF7F307FB131123
:10080000491CC64B53F82110501800EBD071491009
:10081000C54A1268029B42F823100298401C0290BD
:1008200007FB07F002998842C7DCBDE8FE8F2DE97F
:10083000F34F8FB0402440200A901025AA000021D9
:10084000B948006803F063F9AA000021B5480068C0
:1008500003F05DF9042321460A9A0F98FFF7E0FEA2
:10086000E2000021B148006803F051F900200B902C
:1008700060E3AC4801680B9851F820000290AA4848
:1008800001680B9851F82000019002980830402828
:1008900001DD402001E002980830089001980830FE
:1008A000402801DD402001E00198083006900298C0
:1008B000083801D5002001E0029808380990019815
:1008C000083801D5002001E0019808380790099800
:1008D0000E9027E307980D901CE3DDE90D120F98A9
:1008E000FFF781FE8146DDE90D12491C0F98FFF7E5
:1008F0007AFE022101FB0099DDE90D12891C0F9897
:10090000FFF771FE81440E9A921C0D990F98FFF724
:100910006AFEA9EB00090E9A921C0D99491C0F98CA
:10092000FFF761FE022101FB10990E9A921C0D99AE
:10093000891C0F98FFF757FEA9EB000007B2DDE90D
:100940000D12891C0F98FFF74EFE81460E9A521C1D
:100950000D99891C0F98FFF746FE022101FB0099B3
:100960000E9A921C0D99891C0F98FFF73CFE81444A
:10097000DDE90D120F98FFF736FEA9EB00090E9A7C
:10098000521C0D990F98FFF72EFE022101FB1099C2
:100990000E9A921C0D990F98FFF725FEA9EB000007
:1009A0000FFA80F8002F02DBB8F1000F00DA00BF69
:1009B00041463846FFF792FD0390039841100B988B
:1009C00001FB05060398401C40100B9900FB051025
:1009D000059002990E98401A083000EB0010019A19
:1009E0000D99891A08440830514951F820000490A3
:1009F000039810281CD2DFE800F0081C4A629FB35D
:100A0000F2F0EFEEEDECEBEAE9E838460DF048F8ED
:100A1000824604990DF064F881464448006850F815
:100A2000261048460DF017F84049096841F826009D
:100A30006CE2A7EB08000DF033F8824604990DF044
:100A40004FF881463948006850F8261048460DF0A6
:100A500002F83649096841F8260040460DF020F8B2
:100A6000834634490DF03CF8824604990DF038F87D
:100A700081462E480268059852F8201048460CF02E
:100A8000EAFF2A490968059A41F822003EE24046F9
:100A90000DF006F8834627490DF022F882460499A6
:100AA0000DF01EF881462148006850F8261048468F
:100AB0000CF0D1FF1D49096841F8260026E23846AE
:100AC0000CF0EEFF83461B490DF00AF882460499AC
:100AD0000DF006F881461548006850F82610484683
:100AE0000CF0B9FF1149096841F82600A8EB07008E
:100AF0000CF0D6FF824604990CF0F2FF81460B48B9
:100B00000268059852F8201048460CF0A4FF0749E7
:100B10000A68059942F82100F8E1000024C101208B
:100B200038C10120F4010020F0010020E401002080
:100B3000300F0108F704B53F40460CF0B1FF824684
:100B400004990CF0CDFF8146FE48006850F826104D
:100B500048460CF080FFFB49096841F82600D5E1C2
:100B600007EB08000CF09CFF824604990CF0B8FFDC
:100B70008146F448006850F8261048460CF06BFF98
:100B8000F049096841F82600B7F1000901DB494640
:100B900001E0C9F1000108460CF082FFEA4900902B
:100BA0000CF09EFF834604990CF09AFF8246E548BC
:100BB0000068059A50F8221050460CF04CFFE149AD
:100BC0000968059A41F82200A0E166E14DE111E1D2
:100BD000F5E0BFE09FE069E04DE018E0FFE7404648
:100BE0000CF05EFF8346D8490CF07AFF82460499E8
:100BF0000CF076FF8146D348006850F8261048462E
:100C00000CF029FFCF49096841F826007EE14046F3
:100C10000CF046FF8346CC490CF062FF82460499F3
:100C20000CF05EFF8146C748006850F82610484621
:100C30000CF011FFC349096841F8260017EB0809B9
:100C400001D4494601E0C9F1000108460CF028FF33
:100C5000834604990CF044FF8246BA480068059A1E
:100C600050F8221050460CF0F6FEB6490968059A75
:100C700041F822004AE1B7F1000901DB494601E0F1
:100C8000C9F1000108460CF00BFF834604990CF0F3
:100C900027FF8246AB48006850F8261050460CF0FB
:100CA000DAFEA849096841F826002FE1A8EB070001
:100CB0000CF0F6FE824604990CF012FF8146A14822
:100CC000006850F8261048460CF0C5FE9D4909689A
:100CD00041F82600B8F1000901DB494601E0C9F1FD
:100CE000000108460CF0DCFE974900900CF0F8FE7D
:100CF000834604990CF0F4FE824692480068059AF7
:100D000050F8221050460CF0A6FE8E490A6805994C
:100D100042F82100FAE0B8F1000901DB494601E0A0
:100D2000C9F1000108460CF0BBFE874900900CF0A9
:100D3000D7FE834604990CF0D3FE824681480068B2
:100D400050F8261050460CF086FE7E49096841F89E
:100D50002600DBE0B7F1000901DB494601E0C9F1FB
:100D6000000108460CF09CFE774900900CF0B8FE9C
:100D7000834604990CF0B4FE82467248006850F82D
:100D8000261050460CF067FE6E49096841F82600AF
:100D9000A7EB08000CF084FE824604990CF0A0FE3C
:100DA000814668480268059852F8201048460CF0C1
:100DB00052FE64490A68059942F82100A6E0B8F19C
:100DC000000901DB494601E0C9F1000108460CF0C9
:100DD00067FE834604990CF083FE824659480068FA
:100DE00050F8261050460CF036FE5649096841F876
:100DF00026008BE017EB080901D4494601E0C9F150
:100E0000000108460CF04CFE834604990CF068FE85
:100E100082464C48006850F8261050460CF01BFEE5
:100E20004849096841F82600B7F1000901DB494645
:100E300001E0C9F1000108460CF032FE4249009081
:100E40000CF04EFE834604990CF04AFE82463D4863
:100E50000068059A50F8221050460CF0FCFD394904
:100E60000A68059942F8210050E038460CF018FE57
:100E7000834635490CF034FE824604990CF030FE6E
:100E800081463048006850F8261048460CF0E3FDD3
:100E90002C49096841F8260038E0B8F1000901DB67
:100EA000494601E0C9F1000108460CF0F9FD264968
:100EB00000900CF015FE834604990CF011FE82465A
:100EC0002048006850F8261050460CF0C4FD1D491B
:100ED000096841F8260017EB080901D4494601E0EA
:100EE000C9F1000108460CF0DBFD834604990CF0C3
:100EF000F7FD82461348006850F8261050460CF063
:100F0000AAFD1049096841F8260000BF00BF0D98EE
:100F1000401C0D9006990D9888427FF7DEAC0E9824
:100F2000401C0E9008990E9888427FF7D3AC0B981E
:100F3000401C0B900B98A8427FF49BAC00200B90B8
:100F40001FE00000E4010020F704B53F00200C90F2
:100F500011E0DDE90B0101FB0506FF49096851F8C5
:100F60002600FE4908F0AEFCFD49096841F826005C
:100F70000C98401C0C900C980828EADB0B98401C3D
:100F80000B900B981028E1DB11B0BDE8F08F2DE934
:100F9000FF4F8BB004460D461E46199F0020079058
:100FA00090E2079805EB80000088ADF828000798CC
:100FB00005EB80004088ADF82A000798401C05EB3F
:100FC00080000088ADF824000798401C05EB8000E5
:100FD0004088ADF82600BDF92800BDF924108842EC
:100FE00072D1BDF92A00089067E0002E41D04FF081
:100FF000FF383AE04FF0FF30069031E0089810EBF0
:1010000008002AD4089800EB08011898814224DAD5
:10101000BDF92800069940181FD4BDF9281006987C
:101020000844B84219DABDF928100698084405901A
:101030000898404404EBC000059900EBE1000078FB
:1010400001F007020121914008430899414404EB53
:10105000C101059A01EBE20108700698401C069058
:1010600006980228CAD108F10108B8F1020FC1D1CF
:1010700016E0BDF928000590089804EBC00105981A
:1010800001EBE0000078059901F007020121914091
:101090000843089904EBC102059902EBE1010870CD
:1010A000BDF92600BDF92A10884203DD0898401CCE
:1010B000089002E00898401E0890BDF92610089894
:1010C000814292D1FBE1FFE7BDF92A00BDF926106C
:1010D000884275D1BDF9280008906AE0002E42D000
:1010E0004FF0FF383BE04FF0FF30069032E00699BA
:1010F000089840182BD406990898084418998842F3
:1011000025DABDF92A0010EB080020D4BDF92A0029
:101110004044B8421BDA0699089808440590BDF986
:101120002A00404404EBC001059801EBE000007880
:10113000059901F00702012191400843BDF92A10E9
:10114000414404EBC102059902EBE10108700698E5
:10115000401C069006980228C9D108F10108B8F190
:10116000020FC0D118E008980590BDF92A0004EBE1
:10117000C001059801EBE0000178059800F0070236
:10118000012090400143C8B2BDF92A1004EBC1010F
:10119000059A01EBE2010870BDF92400BDF92810A1
:1011A000884203DD0898401C089002E00898401E21
:1011B0000890BDF92410089881428FD17FE1FFE7A4
:1011C000BDF92410BDF92820881A0CF069FC82466C
:1011D000BDF92610BDF92A20881A0CF061FC83465F
:1011E00051460CF04DFC81460CF00AFCCDE90201A1
:1011F00021F00041CDE900015AA00CC800980CF084
:101200008FFA13D2BDF92410BDF92820881A0CF0EA
:1012100047FC8146BDF92610BDF92A20881A0CF03A
:101220003FFC824649460CF02BFC12E0BDF926102B
:10123000BDF92A20881A0CF033FC8146BDF9241030
:10124000BDF92820881A0CF02BFC824649460CF088
:1012500017FC0490BDF92420BDF92830D01ABDF93F
:101260002620BDF92A30D11A01D40B4600E04B42AA
:10127000002801DB024600E0424293426BDA002084
:1012800008907EE008980CF00BFC039004990CF099
:1012900027FC83460CF0FDFBBDF92A1000EB010989
:1012A000BDF92800089900EB010A002E3CD04FF050
:1012B000FF3835E04FF0FF3006902CE019EB0800C6
:1012C00026D409EB08001899884221DA06981AEB0F
:1012D00000001DD406985044B84219DA0AF1010002
:1012E000059009EB080004EBC000059900EBE10054
:1012F0000178059800F00702012090400143C8B230
:1013000009EB080104EBC101059A01EBE201087049
:101310000698401C069006980228CFD108F10108D3
:10132000B8F1020FC6D113E0CDF814A004EBC90048
:10133000DDF814A000EBEA0001780AF007020120B2
:1013400090400143C8B204EBC90101EBEA01087007
:10135000BDF924000AE01EE0E401002085EBD13E47
:10136000E8010020000000000000F03FBDF9281057
:10137000884203DD0898401C089002E00898401E4F
:101380000890BDF92400BDF92810401A0899884238
:101390007FF478AF92E0BDF92420BDF92830D01A4F
:1013A000BDF92620BDF92A30D11A01D40B4600E040
:1013B0004B42002801DB024600E0424293427DDBC3
:1013C0000020089072E0BDF92A10089801EB00098E
:1013D00008980CF065FB039004990CF081FB8346A0
:1013E0000CF057FBBDF9281000EB010A002E3CD091
:1013F0004FF0FF3835E04FF0FF3006902CE019EB4E
:10140000080026D409EB08011898814221DA0698D1
:101410001AEB00001DD406985044B84219DA069819
:101420005044059009EB080004EBC000059900EB5F
:10143000E1000178059800F0070201209040014387
:10144000C8B209EB080104EBC101059A01EBE20106
:1014500008700698401C069006980228CFD108F123
:101460000108B8F1020FC6D113E0CDF814A004EBC7
:10147000C900DDF814A000EBEA0001780AF00702C9
:10148000012090400143C8B204EBC90101EBEA011D
:101490000870BDF92600BDF92A10884203DD0898BE
:1014A000401C089002E00898401E0890BDF92600F4
:1014B000BDF92A10411A0898814284D100BF0798CB
:1014C000401C07900D98411E079881427FF469AD3A
:1014D0000FB0BDE8F08F2DE9F04F099C15464FF095
:1014E000FF360F46B4464FF0000935E000EB890A9D
:1014F000BAF902A0BA4504DA00EB890ABAF902A0E7
:1015000000E0BA46574600EB890ABAF900A0AA459E
:1015100004DA00EB890ABAF900A000E0AA465546B1
:1015200000EB890ABAF902A0E24504DD00EB890A62
:10153000BAF902A000E0E246D44600EB890ABAF903
:1015400000A0B24504DD00EB890ABAF900A000E072
:10155000B246564609F10109DDF828A0D145C5DBA0
:10156000ACEB070A0AF1010A93FBFAFA0AF1010E41
:10157000A6EB050A0AF1010A94FBFAFA0AF101083E
:101580004FF000092BE000EB890ABAF902A0AAEBA0
:10159000070A0AFB03FAACEB070B0BF1010B9AFBF2
:1015A000FBFAF2440FFA8AFA00EB890BABF802A0BF
:1015B00000EB890ABAF900A0AAEB050A0AFB04FAB3
:1015C000A6EB050B0BF1010B9AFBFBFAC2440FFAD9
:1015D0008AFA00EB890BABF800A009F10109DDF8EC
:1015E00028A0D145CFDBBDE8F08F2DE9FF4784B0BF
:1015F00014461D46BDF91000BDF91410884223D1D0
:10160000002619E0BDF81000296804EB810108806C
:10161000BDF81200304400B2296804EB8101488013
:101620002868401C2860BDF91600BDF912108842D8
:1016300001DD761C00E0761EBDF91600BDF9121022
:10164000401AB042DED1E9E0BDF91200BDF9161032
:10165000884223D1002619E0BDF81200296804EB66
:1016600081014880BDF81000304400B2296804EBC5
:10167000810108802868401C2860BDF91400BDF96C
:101680001010884201DD761C00E0761EBDF91400C2
:10169000BDF91010401AB042DED1BFE0BDF9141000
:1016A000BDF91020881A0CF0FBF98146BDF916101F
:1016B000BDF91220881A0CF0F3F9824649460CF065
:1016C000DFF980460CF09CF9CDE9020121F00041E0
:1016D000CDE90001AFF274300CC800980CF020F88E
:1016E00013D2BDF91410BDF91020881A0CF0D8F9E6
:1016F0008046BDF91610BDF91220881A0CF0D0F9F9
:10170000814641460CF0BCF912E0BDF91610BDF956
:101710001220881A0CF0C4F98046BDF91410BDF9E6
:101720001020881A0CF0BCF9814641460CF0A8F94B
:101730000746BDF91420BDF91030D01ABDF91620A6
:10174000BDF91230D11A01D40B4600E04B420028FB
:1017500001DB024600E0424293422FDC002625E0F6
:10176000BDF81000304400B2296804EB8101088004
:1017700030460CF095F9814639460CF0B1F98046B7
:101780000CF087F9BDF81210084400B2296804EB88
:10179000810148802868401C2860BDF91400BDF90B
:1017A0001010884201DD761C00E0761EBDF91400A1
:1017B000BDF91010401AB042D2D12EE0002625E02B
:1017C000BDF81200304400B2296804EB8101488062
:1017D00030460CF065F9814639460CF081F98046B7
:1017E0000CF057F9BDF81010084400B2296804EB5A
:1017F000810108802868401C2860BDF91600BDF9E9
:101800001210884201DD761C00E0761EBDF916003C
:10181000BDF91210401AB042D2D100BF08B0BDE8E5
:10182000F0872DE9F84F04460D461646701E00EB72
:10183000D0714FEA6109A5EB09000090CA46A800E3
:1018400002F05EF98346AA002146584600F0F4FCF7
:10185000B54205DB06EBD6714910B6EB410101D16B
:10186000BDE8F88F4F463CE0002004EB870108807C
:1018700004EB87014880CAF100081BE004EB8700F5
:10188000008807EB08010BEB81010988084400B2CE
:1018900004EB8701088004EB8700408807EB080110
:1018A0000BEB81014988084400B204EB87014880B2
:1018B00008F10108D045E1DD04EB8700B0F9000034
:1018C00090FBF6F000B204EB8701088004EB870080
:1018D000B0F9020090FBF6F000B204EB87014880FB
:1018E0007F1C00988742BFDB584602F002F9B7E739
:1018F0002DE9FF4F91B004460D461E9E0327802020
:1019000010900F9040200E900D9000200B900A90A8
:101910008146802009900520049029462046049A9B
:10192000FFF77FFF4FF0010A29E004EB8A01B1F9CC
:101930000010AAF1010204EB8202B2F90020881A19
:1019400001D4014600E04142089104EB8A01B1F95B
:101950000210AAF1010204EB8202B2F90220881AF5
:1019600001D4014600E041420791DDE907108842B9
:1019700001DB089800E0079881440AF1010AAA45B2
:10198000D3DB4FEA890002F0BBF880464FEA8902B8
:101990000021404602F0BBF84FF0000A15E00AF1C2
:1019A000010004EB8001042203A800F045FC04EBD5
:1019B0008A01042202A800F03FFC0AAB4246DDE99E
:1019C0000201FFF712FE0AF1010A681E5045E6D136
:1019D0004FEA8900B0FBF7F0039002F091F80C9009
:1019E0004FEA8900B0FBF7F00246002103900C9803
:1019F00002F08DF84FF0000A13E008EB8A0000882F
:101A0000DDE90B2101EB8201088008EB8A004088A8
:101A1000DDE90B2101EB820148800B98401C0B9003
:101A2000BA44CA45E9DB404602F063F80B9B0E9AC4
:101A3000CDE90023DDE90C03DDE90F12FFF74BFDD3
:101A40004FF400720021FD48006802F060F8DDE903
:101A50000D23CDE900230123F848DDE90B210068BF
:101A6000FFF795FA0C9802F044F8F44809990068D9
:101A7000FEF7DDFE2823099ACDE900230123F04873
:101A8000F0490268F0480068FEF7F2FC149801285B
:101A900006D0022809D003280CD0042814D10EE067
:101AA000002006900A20059012E00A2006902420CB
:101AB00005900DE0242006903E20059008E00020CF
:101AC00006903E20059003E0002015B0BDE8F08FA1
:101AD00000BF4FF4F8720021DC48006802F017F8EC
:101AE0004FF0000A40E04FF0000B30E0069A5244FD
:101AF00002EB8202D64B03EB421252F82B10D04A73
:101B0000126852F82B000CF03FF80290069A5244EB
:101B100002EB8202CE4B03EB421252F82B10C84A62
:101B2000126852F82B000CF02FF8019002990BF07C
:101B3000D7FF0390C548006850F83A1003980BF09F
:101B40008AFFC249096841F83A000BF1010BBBF169
:101B5000280FCBD150460BF0A3FFBC49096801EB1D
:101B6000CA0148600AF1010ADDE90501401A504541
:101B7000B9D1DDE90501401A421E0021B3480068D1
:101B8000FEF718FC4FF0000A0EE0B049096801EBBF
:101B9000CA0148680BF07DFF06990844AD49085C0E
:101BA00006F80A000AF1010A13988245EDDB0020CD
:101BB00006F80A00307888E72DE9F84F04460D460C
:101BC00016461F46DDF828804FF000094FF6FF7AD1
:101BD000D346012D02DCC846BDE8F88F4FF000095E
:101BE0001CE004EB8900B0F9001009F1010004EBDE
:101BF0008000B0F9000081420BD104EB8900B0F9FC
:101C0000021009F1010004EB8000B0F902008142EA
:101C100000D006E009F101001FFA80F9681E48456E
:101C2000DFDC00BF681E484500D1D5E74FF0000952
:101C300019E004EB8900B0F90000504504DA04EB28
:101C4000890000881FFA80FA04EB8900B0F90200CD
:101C5000584504DA04EB890040881FFA80FB09F13B
:101C600001001FFA80F9A945E3DB4FF0000915E0F8
:101C700004EB89000088A0EB0A0000B204EB8901A4
:101C8000088004EB89004088A0EB0B0000B204EB55
:101C90008901488009F101001FFA80F9A945E7DBB5
:101CA0003B46324629462046CDF80080FFF720FE0D
:101CB00092E72DE9F84F4FF00009C3F80090012496
:101CC000EBE0A4F1010900EB8909B9F9005000EB40
:101CD0008409B9F900A0CDF800A0A4F1010900EB36
:101CE0008909B9F9026000EB8409B9F90270DDF8DD
:101CF00000A0BAEB050901D4CA4601E0C9F1000A07
:101D0000D446B7EB060901D4CA4601E0C9F1000A7E
:101D1000D646F44559DD4FF0000853E0DDF8009059
:101D2000A9450ADD05EB08090FFA89F9D3F800A0E7
:101D300002EB8A0AAAF8009009E0A5EB08090FFA5D
:101D400089F9D3F800A002EB8A0AAAF80090B742FA
:101D50001ADDD3F800A002EB8A0ABAF900A0BAEBA8
:101D6000050901D4CA4601E0C9F1000A0AFB0EFACE
:101D70009AFBFCFAB2440FFA8AFAD3F800B002EBED
:101D80008B0BABF802A01AE0D3F800A002EB8A0A92
:101D9000BAF900A0BAEB050901D4CA4601E0C9F1BD
:101DA000000A0AFB0EFA9AFBFCFAA6EB0A0A0FFAE3
:101DB0008AFAD3F800B002EB8B0BABF802A01B1D24
:101DC00008F10108E045A9DB66E04FF0000861E09A
:101DD000B7420ADD06EB08090FFA89F9D3F800A02B
:101DE00002EB8A0AAAF8029009E0A6EB08090FFAAA
:101DF00089F9D3F800A002EB8A0AAAF80290DDF86C
:101E00000090A94528DDD3F800A002EB8A0ABAF9B0
:101E100002A0BAEB060901D4CA4601E0C9F1000AE2
:101E20000AFB0CFA9AFBFEFAAA440FFA8AFAD3F8D4
:101E300000B002EB8B0BABF800A028E0E001002023
:101E4000EC010020F4180108E8010020F80100204E
:101E5000F4680108B48F0108D3F800A002EB8A0AE5
:101E6000BAF902A0BAEB060901D4CA4601E0C9F1E9
:101E7000000A0AFB0CFA9AFBFEFAA5EB0A0A0FFA13
:101E80008AFAD3F800B002EB8B0BABF800A01B1D55
:101E900008F10108F0459BDB641C8C42FFF611AF92
:101EA000BDE8F88F704700000FB4044910B503AACD
:101EB000029800F069FD10BC5DF814FB04000020DE
:101EC0000FB41CB5074B06AA7B44694600900598E1
:101ED00000F02BFD0020694600F03AFD1CBC5DF8C7
:101EE00014FB0000850A000070B50446856900688F
:101EF000C10601D5302600E02026C00707D070BDFE
:101F0000D4E9012130469047206A401C20626D1EB2
:101F1000F6D570BD70B5044685690078C00707D155
:101F200070BDD4E9012120209047206A401C206226
:101F30006D1EF6D570BD70B50C460546012A05D05C
:101F40002878800600D5EA69002302E0012305E035
:101F50005B1C934202D2E05C0028F9D1A869E61824
:101F6000C01AA861286A184428622846FFF7BCFFF7
:101F700004E0D5E9012114F8010B9047B442F8D3ED
:101F80002846FFF7C7FF70BD2DE9F0410646002443
:101F900010687529314616A510D0AFF300800028CF
:101FA00002DA404213A507E031688A0701D512A57D
:101FB00002E0490704D511A5012401E0AFF3008038
:101FC00000210A2206F1240709E0B0FBF2FCB0FB75
:101FD000F2F302FB1C00303078541846491C0028EC
:101FE000F3D123462A463046BDE8F04100F030BA2E
:101FF000000000002D0000002B0000002000000069
:1020000070B504460D4621461068AFF30080218864
:10201000090502D50F4A7A4402E00E4A7A440E328C
:10202000002104F1240305E000F00F060009965D8D
:102030005E54491C0028F7D120780023000704D5FE
:10204000702D02D009B1022311322046BDE8704044
:1020500000F0FEB9D86F01002DE9F05F8946044613
:102060004FF0000ADFF874B1FB44C0F820A020460E
:10207000E1688847002874D0252806D0D4E90121DA
:102080009047206A401C2062F1E700265F46204608
:10209000E16888472028054607DB312D05D27819ED
:1020A00010F8200C08B10643F1E7B00701D526F07F
:1020B0000406C4F81CA00027C4F818A02A2D09D0D3
:1020C000284601F00DFD38B304EB8708303DC8F811
:1020D000185019E059F8041B204604EB870291615F
:1020E000E1688847012F054618D1E069002820DA09
:1020F00026F020061DE0D8F8180000EB800005EB64
:1021000040003038C8F818002046E1688847054686
:1021100001F0E6FC0028EED1012F0AD02E2D08D1C7
:102120002046E16888477F1C0546022F46F02006BE
:10213000C4DBA069002803DA404246F00106A06132
:10214000F00701D026F010066C2D0BD0682D09D0B9
:102150004C2D39D06A2D35D0742D35D07A2D33D011
:1021600016E038E0E1682F4620468847B842054629
:1021700009D16C2F26D04FF48060E16806432046D9
:102180008847054604E06C2F1AD04FF48070064350
:102190000DB3A5F14100192802D8203546F4006698
:1021A0004A462946204626604E46FEF747F880B14B
:1021B00001280BD0F61D26F0070000F1080956E7AC
:1021C0004020E4E78020D8E70020D6E706F10409A4
:1021D0004DE7284652E7206ABDE8F09FAE6F010048
:1021E00040EA010310B59B070FD1042A0DD310C894
:1021F00008C9121F9C42F8D020BA19BA884201D9E6
:10220000012010BD4FF0FF3010BD1AB1D30703D02D
:10221000521C07E0002010BD10F8013B11F8014BE3
:102220001B1B07D110F8013B11F8014B1B1B01D1FF
:10223000921EF1D1184610BD032A40F2308010F0F2
:10224000030C00F0158011F8013BBCF1020F624451
:1022500098BF11F801CB00F8013B38BF11F8013BE2
:10226000A2F1040298BF00F801CB38BF00F8013B8F
:1022700011F0030300F02580083AC0F0088051F8FF
:10228000043B083A51F804CBA0E80810F5E7121D0A
:102290005CBF51F8043B40F8043BAFF30080D20729
:1022A00024BF11F8013B11F801CB48BF11F8012BF5
:1022B00024BF00F8013B00F801CB48BF00F8012B18
:1022C000704710B5203AC0F00B80B1E81850203AA2
:1022D000A0E81850B1E81850A0E81850BFF4F5AFC6
:1022E0005FEA027C24BFB1E81850A0E8185044BF50
:1022F00018C918C0BDE810405FEA827C24BF51F8BD
:10230000043B40F8043B08BF7047D20728BF31F8B0
:10231000023B48BF11F8012B28BF20F8023B48BF01
:1023200000F8012B704700004FF0013C50F8042BDF
:1023300051F8043B9A4221D1A2EB0C03934313EAD8
:10234000CC1317D150F8042B51F8043B9A4215D105
:10235000A2EB0C03934313EACC130BD150F8042BDC
:1023600051F8043B9A4209D1A2EB0C03934313EAC0
:10237000CC13DBD04FF00000704700BFD01A01BA79
:10238000B1FA81F101F0180122FA01F0CB40C1F15C
:102390002001DBB2C0B2C01A2CFA01F3D11A91436A
:1023A00011EAC311E6D17047704770477047704714
:1023B00030B5B0F10A024FEA900E71F100034EEA17
:1023C000817EB0EB0E0061EB91014FEA101E4EEAE8
:1023D000017E10EB0E0041EB11114FEA102E4EEA78
:1023E000016E10EB0E0041EB11214FEA104E4EEA48
:1023F000014E10EB0E0041EB1141401841F100017C
:102400004FEAD00040EA41704FEAD10110EB80055D
:102410004FEA810444EA907444EB01046D1944EBE3
:102420000404521BA3414FF0000348BF0A3200D5F9
:1024300030BD401C41F1000130BD10B500F0BAFACA
:10244000006810BD10B5044600F0B4FA046010BD79
:102450002DE9F0470D4699469246044600F12408BE
:102460000168880604D5E06921F01001216000E0D0
:102470000120A84201DD471B00E00027A1697A196D
:1024800002EB0900081AA0612078C00602D4204699
:10249000FFF72AFD002608E0D4E901211AF806001A
:1024A0009047206A401C761C20624E45F4DB207861
:1024B000C0060AD52046FFF717FD06E0D4E9012142
:1024C00030209047206A401C2062381EA7F1010787
:1024D000F4DC07E0D4E9012118F805009047206AF0
:1024E000401C2062281EA5F10105F3DC2046FFF701
:1024F00011FD2078000602D50220BDE8F0870120FA
:10250000FBE770472DE9FF4F0C461E464FF0FF37A3
:102510008BB0D2E90001DDF860800A908A46C1F3F1
:102520000A5505B93D46002108464FF00000BAF1B2
:10253000000F00F4400005DA00EB80004FF440018A
:1025400001EA50004FEA9059B9F1010F00DDB94698
:102550000A9850EA4A000ED044F61050A5F2FF3512
:1025600045432F14B8F1000F1ED07542291E1EDD01
:10257000C9F100021CE0B8F1010F4FF0000001D0DA
:10258000302103E0F24305E02154401CB042FBDB64
:1025900030460022002121540B99C1F80880C1E97E
:1025A00000200FB0BDE8F08FBD1B6D1CDEE74A4672
:1025B00000DA694206A800F041FA06AB93E807008A
:1025C00003AB83E8070050460A9900F0DFFA8DE874
:1025D0000700A0F500501F3800900398002D0ADD79
:1025E00042F21F014A460844002303A903906846AB
:1025F00000F048FD09E0A0F500504A461F380023CE
:1026000003A90390684600F052FD8DE8070000041E
:10261000000C03D04FF0FF30410800E01046B8F145
:10262000000F03D00022009215461EE0751E05D44F
:10263000FFF7BEFE303262556D1EF9D5B34601225A
:10264000084302D000227F1C04E02078302801D10A
:1026500000227F1E002A099784D01DE0112D07DA81
:10266000FFF7A6FE303262556D1C50EA0102F5D12B
:10267000084302D00098C8B10EE00021681E05E0B2
:10268000235C625C63542254401E491C8142F7DB88
:10269000AB46A81B401E0990002004F80B000B98C5
:1026A000099AC0F80880C0E9002B7AE711264FF09C
:1026B000000857E72DE9F04F88460446D21D22F066
:1026C000070191B0D1E90001CDE90A0100F084FED3
:1026D00002460B98C00F01D02D2007E0206881072B
:1026E00001D52B2002E0202101EAC000032A099035
:1026F00001D0072A05DB03464146204600F05EF97B
:102700000BE12078800601D5E06900E00620B8F1F1
:10271000650F814606D0B8F1660F18D0B8F1670F83
:1027200070D131E00020B9F1110F009001DB1123CD
:1027300001E009F101030AAA01A90CA8FFF7E2FED2
:10274000DDE90C70002609F10105834647E0012010
:102750004B4600904FF000470AAA01A90CA8FFF7CA
:10276000D1FEDDE90DB00C995D46002610B909F1E6
:1027700001000D18B9EB050003D4C0F1FF3609F1D3
:102780000105A5EB09002BE0B9F1010F01DA4FF0CB
:1027900001090020B9F1110F0090484601DD112315
:1027A00000E003460AAA01A90CA8FFF7ABFEDDE989
:1027B0000C704D4600268346207800070AD4AB45AE
:1027C00000DA5D4601A8012D04DD411911F8011C54
:1027D000302907D04F4502DA17F1040F04DA01203F
:1027E00082460FE06D1EEEE7002F02DCED1B3E443B
:1027F00003E0781CA84200DD7D1CB81B00F1010A33
:102800004FF000472078000703D4AA4501DB4FF0C2
:10281000FF3A0021B7F1004F0DF143088DF8431046
:1028200024D002202B23002F01DA7F422D230A21FE
:10283000021EA0F1010000DC5FB197FBF1FC97FBE9
:10284000F1F201FB1C7C17460CF1300C08F801CDAD
:10285000EEE7A8F1010003702188090501D54521A3
:1028600000E06521A0F1010800F8011C09980FA9FA
:10287000A1EB0807FF1D00B10120411901EBEA702F
:10288000A1693844081A401EA0612078C00602D40D
:102890002046FFF729FB099828B1D4E90121904788
:1028A000206A401C20622078C00622D52046FFF70F
:1028B0001BFB1EE0002E04DBB34502DD01A8805D9A
:1028C00000E03020D4E901219047206A401C2062BA
:1028D000761CAAF101005FEA000A0AD100F066F84E
:1028E000C0680168405CD4E901219047206A401C1F
:1028F0002062281EA5F10105DCDC07E0D4E90121F6
:1029000018F8010B9047206A401C2062381EA7F17E
:102910000107F3DC2046FFF7FDFA032011B041E682
:1029200001694A1C02610878704700B58FB0CDE993
:1029300001310021059105497944CDE90310114683
:102940006846FFF789FB0FB000BD0000E5FFFFFF01
:102950000A6802F8010B0A60704710B5436913B1A9
:10296000AFF3008001E0FFF7E6FA012010BD127816
:1029700000F124010A7000224A700122EDE711687B
:102980004FF0FF32E9E70000074B70B50D467B447E
:10299000FFF7CBFF0446284600F0C2F810B14FF015
:1029A000FF3070BD204670BD171900000048704709
:1029B0006CC10120004870474CC101202DE9F04155
:1029C0001F46044603260168072A01F4006004DB61
:1029D00008B116A505E016A503E008B115A500E0AD
:1029E00015A521F010002060A069C01EA0610FB1E4
:1029F000401EA0612046FFF777FA4FB1D4E90121CC
:102A000038469047206A401C2062C01C206206E0C5
:102A1000206AFAE7D4E9012115F8010B9047761EE8
:102A2000F8D22046FFF776FABDE8F0814E414E001D
:102A30006E616E00494E4600696E66002DE9F047F2
:102A4000814616468AB0354878440DC88DE80D0099
:102A500032487844801C03AC0DC884E80D0041F670
:102A60009B300844372190FBF1F290FBF1F5A5F182
:102A7000800501FB12041B3C02D56442012000E0EA
:102A80000020DFF898A080460027FA44AAF1BE0A89
:102A90000EE0E0070AD03246684607EB4701012303
:102AA0000AEB810100F003FB8DE8070064107F1C36
:102AB000002CEED1194F7F44AE3F19E0E80715D046
:102AC00007EB04100DF1180A90E80E008AE80E00DA
:102AD000C068F04201D1981908903246012306A936
:102AE00003A800F0E4FA03AB83E807006D10641C50
:102AF000002DE3D14FF0010332466946B8F1000FD3
:102B000003A802D000F0BEFA01E000F0D0FAC9E953
:102B10000001C9F808200AB0BDE8F0879C670100F1
:102B2000007B00F080007047004870474CC10120D6
:102B30007546FFF7F9FFAE4605006946534620F09B
:102B40000700854618B020B5FDF7BCFBBDE8204066
:102B50004FF000064FF000074FF000084FF0000B59
:102B600021F00701AC46ACE8C009ACE8C009ACE80C
:102B7000C009ACE8C0098D46704710B50446AFF3F4
:102B800000802046BDE81040FDF783BB5FEA400CA3
:102B900008BF91F0000F4FEA8C234FEAC12243EAAD
:102BA00051514FEA1C5018BF00F5F0404FEA300079
:102BB00018BF41F000415FEA6C5C00F02980BCF175
:102BC000FF3F08BF40F080407047130C06BF12045F
:102BD0004FF0100C4FF0000C130E04BF12020CF15A
:102BE000080C130F04BF12010CF1040C930F04BF67
:102BF00092000CF1020CD30F04BF52000CF1010C37
:102C000011464FF00002A0F11F00A0EB0C0070472E
:102C100011F0004F08BF704731F000413FF4D5AFCD
:102C20000B0C06BF09044FF0100C4FF0000C0B0EFC
:102C300004BF09020CF1080C0B0F04BF09010CF1D1
:102C4000040C8B0F04BF89000CF1020CCB0F04BFE6
:102C500049000CF1010CCCF12003A0EB0C0022FA8E
:102C600003F302FA0CF241EA030100F1010070479C
:102C700020F07F4C80EA030023F07F47ACEB070392
:102C800003F57C5300F0004003F1FF032DE9804978
:102C90004FEA154B09B44FEA144325EA0B4E24EAD8
:102CA00003480FF2042606EB132749083E785FEA33
:102CB000320203FB0667C7F5000707FB06F64FEA7B
:102CC00054374FEAD64606F1020607FB066CCCF1F4
:102CD000005C4FEA1C472CEA074C07FB06F40CFB90
:102CE00006F504EB15464FEA961634BF00204FF068
:102CF00000404FEAD13706FB07FC4FEA1C4C0CFBA7
:102D00000BF7D21B03FB0CF761EB07010CFB0EF773
:102D1000B0EB074072EB17420CFB08F734BFA2EB95
:102D20000742B2EB074261EB17414FEA0C444FEA0E
:102D3000910706FB07FC4FEA1C4C0CFB0BF7B0EBB2
:102D4000C74072EB573203FB0CF734BFA2EBC7420C
:102D5000B2EBC74261EB57310CFB0EF7B0EBC7008B
:102D600072EB57720CFB08F734BFA2EBC702B2EB51
:102D7000C70261EB5771039F4FEA816141EA9211EB
:102D800004EBCC044FEAD1374FEA826206FB07FC22
:102D900042EA90124FEA80604FEA1C4C0CFB0BF7A2
:102DA000D21B03FB0CF761EB07010CFB0EF7B0EB3A
:102DB000074072EB17420CFB08F734BFA2EB074247
:102DC000B2EB074261EB17414FEA8C554FEA91078E
:102DD00004EB9C2406FB07FC4FEA1C4C0CFB0BF796
:102DE000B0EBC74072EB573203FB0CF734BFA2EBDA
:102DF000C742B2EBC74261EB57310CFB0EF7B0EBA9
:102E0000C70072EB57720CFB08F734BFA2EBC70286
:102E1000B2EBC70261EB577115EB4C254FEA8161AC
:102E200041EA92114FEA82624FEAD13742EA9012A8
:102E300006FB07FC44F100044FEA80604FEA1C4C9B
:102E40000CFB0BF7D21B03FB0CF761EB07010CFB30
:102E50000EF7B0EB074072EB17420CFB08F734BFDC
:102E6000A2EB0742B2EB074261EB174115EB1C15D1
:102E70004FEA813141EA92414FEA823242EA90427E
:102E80004FEA80304FEA0C7644F1000448EA0343ED
:102E90004EEA0B484FF0000EB2EB080C71EB030743
:102EA00024BF624639464EEB0E0E4FF0000B001861
:102EB000524149414BEB0B0BB2EB080C71EB030792
:102EC0007BF1000B24BF624639464EEB0E0E4FF0ED
:102ED000000B0018524149414BEB0B0BB2EB080CB5
:102EE00071EB03077BF1000B24BF624639464EEBC2
:102EF0000E0E51EA020718BF46F0010616EB0E76D9
:102F000055F1000254F1000103D5BDE88901BDE887
:102F10000088BDE88901BDE80048B619524141EB7F
:102F20000101A3F10103704780807F7E7D7C7B7A65
:102F30007978777676757473727171706F6E6E6D65
:102F40006C6C6B6A6A69686867666665646463630B
:102F500062616160605F5F5E5E5D5D5C5C5B5B5A91
:102F60005A595958585757565655555554545353FE
:102F700052525251515050504F4F4F4E4E4D4D4D59
:102F80004C4C4C4B4B4B4A4A4A49494948484847A4
:102F900047474746464645454544444444434343E2
:102FA0004342424242414141002B9C4630D477008B
:102FB0002BD01CB54FEA370703B44FF010004FF089
:102FC0001001BAF1000F06D0BCF1000FDCBF40F0D9
:102FD000080040F008014FF000000FBCBDE81040B1
:102FE0000BF1010BBBF1010F08BF5FEA170722BF0E
:102FF00012F1010211F101014FF0004143F1000310
:1030000000F0004043EA00007047F9D35708D0E7CA
:1030100046EA064613F1400F4FEA16461FDD13F14C
:10302000200FDFBF16430A46002120335B42BED08B
:10303000C3F1200746EA064602FA07F74FEA1646AA
:1030400046EA0706C3F1200722FA03F201FA07F75E
:1030500021FA03F14FF0000342EA0702A7E746EA2C
:10306000020646EA06464FEA164646EA0106BCBF95
:1030700046EA0646360C4FF000034FF000024FF0D0
:10308000000194E72DE9804C9A46934670B491E88C
:10309000380007C831EA400C48BF34EA430C03D576
:1030A000FFF7E6FDFFF780FFF0BCBDE8008C2DE9DF
:1030B000804C9A46934670B491E8380007C810F0E7
:1030C000804F08BF13F0804F03D100F005F8FFF7E1
:1030D0006BFFF0BCBDE8008C20F07F4780EA030066
:1030E00023F07F4C07EB0C03A3F57C5300F000406A
:1030F000A3F1FE0392F0000F00F0B38095F0000FF3
:1031000000F077802DE901494FEA11404FEA14465B
:1031100021EA004800FB06FC24EA064708FB06F605
:1031200007FB08F800FB07F718EB06484CEB164CBA
:103130004FEA124B18EB07484FEA15464CEB174085
:1031400022EA0B4E0BFB06FC25EA06470EFB06F6B1
:1031500007FB0EFE0BFB07F71EEB064E4CEB164C67
:103160004FF000061EEB074E4CEB174B18EB0B080D
:1031700040F1000018EB0E0B58EB000840F1000086
:103180008F1A4FF000013CBFC943661B14BFB5EB5B
:10319000040C00213CBFC943F61B4FEA17444EEA1A
:1031A0008E0E27EA04454FEA1C4704FB07622CEA0F
:1031B000074C05FB07F70CFB05F604FB0CFC16EBB4
:1031C000074642EB174216EB0C4642EB1C421BEB48
:1031D000060658EB0202414146EA9E0601D5BDE8CB
:1031E0000189B619524141EB0101A3F10103BDE888
:1031F00001894FEA14454FEA114724EA054621EABE
:10320000074C05FB07F406FB07F70CFB06F105FB73
:103210000CFC11EB074144EB17444FEA124711EB4A
:103220000C4144EB1C4422EA074C05FB07F206FB69
:1032300007F70CFB06F605FB0CFC16EB074642EB0A
:10324000174216EB0C4642EB1C456A1854F100017C
:1032500048BF7047B619524141EB0101A3F1010388
:10326000704795F0000F37D04FEA11424FEA1447EC
:1032700021EA024624EA074C02FB07F106FB07F7A6
:103280000CFB06F402FB0CFC14EB074441EB17416A
:103290004FEA154714EB0C4441EB1C4125EA074C5F
:1032A00002FB07F506FB07F70CFB06F602FB0CFC1E
:1032B00016EB074645EB174516EB0C4645EB1C4253
:1032C000121951F1000148BF7047B619524141EB44
:1032D0000101A3F1010370474FEA14454FEA11477A
:1032E00024EA054621EA074C05FB07F106FB07F730
:1032F0000CFB06F24FF0000605FB0CFC12EB07423C
:1033000041EB174112EB0C4251EB1C4148BF704797
:10331000921841EB0101A3F10103704710B50C486D
:10332000006800F0010058B10A4908698047002090
:103330000749143108604FF47A7005491C31086060
:103340000348006820F001000149086010BD00003A
:1033500010080040B40000201C49096801F0200159
:1033600009B31A494968C8B21949098801F40041EA
:10337000C9B91749098801F4804161B10A2803D00D
:103380000021134A118020E01149098841F40041CD
:103390000F4A118019E00D2806D10D49098841F422
:1033A00080410B4A118010E009490988C1F30D01E1
:1033B000084A505406490988491C054A118011469B
:1033C0000988C72901DD00211180704700100140E4
:1033D000080000201C05002003B40198410000985B
:1033E00050EAC12018BF04204A0D18BF40F0010068
:1033F00040F2FF72B2EB515F08BF40F002000128BB
:1034000008BF052002B070474100080218BF042021
:103410000A0E18BF40F001004FF07F4232EA01016E
:1034200008BF40F00200012808BF052070470000D7
:1034300010B510EE100A2DED068BB7EE001A10EE47
:10344000901AB0EE418A0022A0F5000CDFEDFE9A42
:103450004FF00073BCF1FE4F4FF07F4403EB410C83
:1034600080F0B481BCF1804FC0F02082F749014464
:103470009FEDF73AB1F5005F40F2D48200F580216C
:10348000CB0C03F00F0101EE901AC3F307137F3B3F
:10349000A0EBC350B8EEE12A00EE100A1A44DFEDAB
:1034A000ED2AF0EE411A42EE221AF0EE613A70EE89
:1034B000232A30EE632A12EE900A00F500606FF3C3
:1034C0000B0001EE900A73EEE13A33EE804AC1EE52
:1034D000223A22EE230A10EE100A00F500606FF384
:1034E0000B0000EE100A00EE612A00EE442A62EEA4
:1034F000232A70EE221A21EEA12ADFEDD73A02EE3E
:10350000233A23EE023A20EE012A22EE811A03EE3C
:10351000211A32EE010A10EE100A00F500606FF376
:103520000B0000EE100A72EE401A31EE812A9FED78
:10353000CB1A60EE011A9FEDCA1A20EE011A9FED18
:10354000C90A02EE001A31EE810A10EE100A00F5E7
:1035500000606FF30B0000EE100AC34871EEC01A52
:1035600031EE812A784400EBC10090ED003AD0EDB5
:10357000011A100101EE100AF8EEC12A32EE211AEA
:1035800031EE001A31EE031A31EE221A11EE100A52
:1035900000F500606FF30B0009EE100A39EE621AB5
:1035A00031EE431A31EE400A30EE610A32EE40AAA3
:1035B00010EE900A002100F500606FF30B0008EE9A
:1035C000900A084670EEE8AA4FF0000029EE280A9B
:1035D00000F00C01F0EEC00A10EE900AB0F18B4F33
:1035E0000DDD10EE900AB4EB400F08D310EE100A78
:1035F0004FF08B4262F31E0008EE900A13E069EE72
:103600002A0A38EEAA1A4AEE010A30EE201A11EE02
:10361000100A00F500606FF30B0008EE900A30EE20
:10362000680A70EE209A0C204FF0000038EEA90ACC
:10363000B5EEC00AF1EE10FA34BFFEEE000AF6EE67
:10364000000A30EE800ABDEEC00A10EE100A011129
:1036500000EE101AF8EEC00A00EE100AB8EEC00A2A
:1036600038EEC00A30EE290ADFED801A9FED801A8D
:1036700000EE211ADFED7F1A7F4900F00F0040EEC7
:10368000011A21EE800A794401EB800191ED001AC4
:103690007A49794401EB8001D1ED001A784901EEB5
:1036A000801A794401EB8000764990ED000A31EEF2
:1036B000001AB0EEE00A10EE100A884215DA10EE99
:1036C000100AB4EB400F10D39FED6F0A30EE800A62
:1036D000DFED6E0A20EE200A68EE010ABDEC068BD3
:1036E000BCEEC00A20EE200A10BD10EE100A684998
:1036F000884243DA10EE100AB4EB400F3ED3BDEE21
:10370000E00A68EE010A10EE100A00EBD0725110C8
:10371000C90501F17E5100EE101AA0EB6200C00550
:1037200060EE200A00F17E5000EE100A60EE808A02
:1037300018EE900AB4EB400F0FD10220FEF782FE84
:1037400000F0BEF910EE101A18EE100ABDEC068B50
:1037500061F31E0000EE100A10BD18EE900A400042
:1037600011D018EE900AFFF74FFE042808BF00F0B2
:10377000AFF9B0EE680ABDEC068B10BDF5EEC00ADD
:10378000F1EE10FA0FD20220FEF75CFE00F0A0F975
:1037900010EE101A18EE100ABDEC068B61F31E0035
:1037A00000EE100A10BD0220FEF74CFE00F088F972
:1037B00010EE101AB0EE480A10EE100ABDEC068B9F
:1037C00061F31E0000EE100A10BD00BFBCF1804F77
:1037D0006CD300BF00F1FF43B3F1FE4F24D200BF12
:1037E000B0EEC00A10EE100AC1F3C7537F2B0DDBF9
:1037F000972BBFF63BAEC3F196034FF0010C0CFACA
:1038000003F3A3F1010C1CEA010F08D00120FEF71D
:1038100019FEBDEC068BBDE8104000F049B90B4223
:1038200018BFBFEE008A21E643001CBF4FF0807333
:10383000B3EB400F34D96FF01A02DFED161A20EE09
:10384000210A10EE100A27E000000000001080C0DE
:10385000ABAAAA3E0000803D7EE24C3E00B038425A
:10386000D49AB8BB3BAA3842C45A0100FC5963370A
:10387000C9FF753A1872313D625A0100965A01002B
:10388000065A01000000FC420000FE420000004B0E
:10389000000040430000004D10F0004FA0D1E5E5CE
:1038A000A0F50003B3F1FE4F21D2DFE503EB4103A6
:1038B000B3F1007F11D3F5EEC00AF1EE10FA05D195
:1038C000430018BFB4EB400F76D883E701F0004106
:1038D00041F0FC5100EE901A7CE7B3F1807F06D2F4
:1038E00010EE903AA3F5000300EE903A72E720F054
:1038F00000426FF0FF4C604C02EB0C03A34210D36C
:1039000021F000439C44A4450BD3B0F17E5F18BF67
:103910005FEA410C50D0B2F1FF4F98BFB3F1FF4FB7
:1039200005D9BDEC068BBDE8104000F0BDB8B0F184
:10393000FF4F0FD0C1F3C7527F2A09DB972A11DA54
:10394000C2F19602012303FA02F2531E0B4205D084
:10395000002208E011F0004F55D128E00A4218BFBC
:10396000012200D1022210F5000F13D028B3B0F1CC
:10397000004F26D010F1814F4FD04FF0FE42B2EBF6
:10398000400F94BF01200020012202EBE171884228
:1039900039D10CE011F0004F02D0012A38D032E0CA
:1039A000012A02BF9FED350ABDEC068B10BD9FEDCD
:1039B000340ABDEC068B10BD2FE011F0004F0CD186
:1039C00021E0B1F1FF4F1ED011F5000F05D011F02D
:1039D000004F15D00AB1012A08D00220FEF732FDAF
:1039E000BDEC068BBDE8104000F054B80220FEF795
:1039F00029FD00F04FF8BDEC068BB1EE400A10BD7A
:103A00000AB1012A04D0B0EE690ABDEC068B10BDE4
:103A1000BDEC068B9FED1B0A10BDBDEC068BB7EE0F
:103A2000000A10BD30EE410AB5EE001A9FED172ACC
:103A300000EE413AB6EE001A60EE001A00EE431AAC
:103A400061EEC11A9FED101A20EE011A20EE020A53
:103A50009FED0F2A01EE820A71EE001A11EE900A14
:103A600000F500606FF30B0009EE100A31EE491A01
:103A700031EE00AA9CE50000FFFF3F00000080FF40
:103A80000000807F0000008000B0B841D49A38BBAD
:103A90003BAAB841DFED030AB7EE001A81EE200A17
:103AA000704700000000000030EE200A7047000060
:103AB000DFED020A80EEA00A70470000000000005F
:103AC0009FED020A20EE000A70470000000000701F
:103AD0009FED020A20EE000A70470000000000106F
:103AE00030380A2801D2012070470020704700BFFB
:103AF000704710B504462146002005F0DBFC10BDE0
:103B000010B504462146002005F0E6FC10BD70B556
:103B100004460D46164632462946204605F0C0FCAE
:103B200070BD10B501F044F810BD70B505460C46E7
:103B3000164606E028466A1C95B200F008F804F81C
:103B4000010B301EA6F101018EB2F3D170BD70B52C
:103B50000446002601F0C4F82112A02202EB410124
:103B6000C8B201F095F801F0F5F82546E11704EB2D
:103B700011610912A4EB0121C8B201F089F801F02A
:103B8000E9F801F0ADF8A12001F082F801F0E2F8C7
:103B9000002001F051F8064601F0C2F8304670BD31
:103BA00070B505460C46164606E02178284600F01A
:103BB00009F8681C85B2641C301EA6F101018EB2A2
:103BC000F3D170BD70B504460E4601F089F821129C
:103BD000A02202EB4101C8B201F05AF801F0BAF894
:103BE0002546E11704EB11610912A4EB0121C8B2CB
:103BF00001F04EF801F0AEF8304601F049F801F05E
:103C0000A9F801F08DF80A2000F0E0F970BD00007D
:103C10002DE9F041044688460020E070401EA06374
:103C20004146204605F060FB10B10420BDE8F0815C
:103C300004F23A2004F03FFE07464AF65520874238
:103C400008D10B222DA104F13C00FEF7C9FA08B9F6
:103C50000120EBE794F83C50EB2D03D0E92D01D087
:103C6000E82D43D14AF65520874208D1082226A1E3
:103C700004F18E00FEF7B4FA08B90020D6E704F18B
:103C8000470004F018FE06464920055D701E3040CE
:103C900060BBB6F5007F29DBB6F5007F26DC2DB3CF
:103CA000681E284010BB04F14A0004F004FEE8B18D
:103CB0004C20005D401E012818D804F14D0004F08E
:103CC000FAFD98B104F14F0004F0F5FD802806DA02
:103CD00004F15C0004F0B2FDB0F5803F06D304F1BE
:103CE000520004F0E8FD08B100209FE74AF6552095
:103CF000874201D1022099E7032097E7EB769045B0
:103D00005846415420202000464154333220202080
:103D1000000000000246891ED069801E884201D83A
:103D2000002070475389106B03FB0100F9E7000086
:103D300010B500224FF400610D4807F0BBF900F008
:103D40001BF8012211460B4807F0B4F900F014F8F3
:103D500000220121074807F0ADF900F00DF801221B
:103D6000D102034807F0A6F900F006F810BD0000E4
:103D7000001402400004024010B5022000F030F9A7
:103D800010BD00001CB500BF1148006840F00200E3
:103D90000F49086000BF00BF0846006840F02000DF
:103DA000086000BF012000900346024601460190D2
:103DB000084807F08BF90120009003460246C10233
:103DC0000190054807F082F900F09CF81CBD000046
:103DD00030380240000402400014024010B50122B5
:103DE000D1020A4807F066F9FFF7C6FF0122114623
:103DF000074807F05FF9FFF7BFFF002201210448E1
:103E000007F058F9FFF7B8FF10BD0000001402409A
:103E10000004024070B505460024002619E0600643
:103E2000040E01221146104807F044F9FFF7A4FFE1
:103E30004FF400610D4807F035F908B1601CC4B2B9
:103E400000220121084807F035F9FFF795FF701CA3
:103E5000C6B2082EE3DB15B9FFF7C0FF01E0FFF79C
:103E600067FF204670BD00000004024000140240BD
:103E700070B50446002517E0E2094FF400610E48D2
:103E800007F018F9FFF778FF012211460B4807F0F9
:103E900011F9FFF771FF00220121084807F00AF924
:103EA0006006040E681CC5B2082DE5DB0122D102B4
:103EB000014807F0FFF870BD001402400004024002
:103EC00010B50122D1020D4807F0F4F80122114685
:103ED0000B4807F0EFF8FFF74FFF00224FF40061A7
:103EE000064807F0E7F8FFF747FF002201210448E2
:103EF00007F0E0F8FFF740FF10BD0000001402409B
:103F00000004024010B500224FF40061094807F098
:103F1000D1F8FFF731FF01221146074807F0CAF830
:103F2000FFF72AFF0122D102024807F0C3F8FFF78A
:103F300023FF10BD001402400004024070B50024AD
:103F400000250122D102144807F0B4F8FFF714FF4E
:103F500001221146114807F0ADF8FFF70DFF09E007
:103F6000601CC4B2FA2C03DDFFF7CCFF012508E08A
:103F7000FFF702FF4FF40061074807F093F80028AD
:103F8000EED100BF00220121044807F093F8FFF7AB
:103F9000F3FE284670BD00000014024000040240F9
:103FA0004FF0E021096941F004014FF0E022116176
:103FB000054908601146096941F0010111616FF07E
:103FC00070415161704700000000002010B50446A8
:103FD0004FF47A7104FB01F000F002F810BD00000C
:103FE00070B5034600224FF0E02675690D4E366825
:103FF00003FB06F44FF0E026B16910E04FF0E02635
:10400000B06988420BD0884202D20E1A324402E0D4
:104010002E1A0E4432440146A24200D300E0EDE7DE
:1040200000BF70BD0000002070B50446002514B12B
:10403000012C07D103E005F053FC054604E005F030
:104040007DFA01E0012500BF00BF0DB1012070BD68
:104050000020FCE72DE9F04107460E4614461D46B8
:104060004FF0000815B90420BDE8F08117B1012F09
:1040700024D112E02A462146304605F01BFD804639
:1040800007E005F02DFC2A462146304605F012FDDA
:104090008046B8F1000FF4D113E00BE0002000EBF4
:1040A00044214FF40072304605F094FA641C06F582
:1040B00000766D1E002DF1D1A84602E04FF00108F8
:1040C00000BF00BFB8F1000F01D10020CCE70120F4
:1040D000CAE70146002070472DE9F04107460E4629
:1040E00014461D464FF0000815B90420BDE8F081C4
:1040F00017B1012F24D112E02A462146304605F09F
:10410000F9FC804607E005F0EBFB2A4621463046E5
:1041100005F0F0FC8046B8F1000FF4D113E00BE09D
:10412000002000EB44214FF40072304605F0E8FA1D
:10413000641C06F500766D1E002DF1D1A84602E044
:104140004FF0010800BF00BFB8F1000F01D10020FF
:10415000CCE70120CAE7000070B5002500240EE07E
:104160004FF40F71002005F0B7F90B4941F8240016
:10417000084650F8240000B903E0601CC4B2022CC9
:10418000EEDB00BF04F056FE0546022C02D10DB94D
:10419000002070BD0120FCE7D8010020F7B582B0F7
:1041A00016460398019001A800F039FA0546002D43
:1041B00002DA0B2005B0F0BD0C4850F825400CB1D8
:1041C00000202070029810B1002002990870074961
:1041D000029841F825000EB90020EBE7002202A961
:1041E00003A804F047FE07463846E3E7CC01002069
:1041F0002DE9FF4107460D4600213846FFF708FD2F
:104200000646022E06D0032E00D21DB9304604B059
:10421000BDE8F08100BF00240AE007F5FD7101EB65
:10422000041101F1080004F009FB4DF82400641C9E
:10423000042CF2D30DB1681E00E00020044600BF3C
:104240005DF8240028B15DF824103846FFF7E0FC43
:1042500000E0032006462DB9022E03D3601C04465D
:104260000428EDD33046D2E710B500240FE0601CDF
:10427000C4B221224FF440010A4805F0ABF90948C5
:104280000078AA2800D104E01420FFF79FFE0A2C32
:10429000EDDB00BF03480078AA2801D0012010BD43
:1042A0000020FCE700C1012000BF054A126802F0AF
:1042B0004002002AF9D0C2B2014B5A607047000098
:1042C000001001400EB500BF3B48006840F00400FC
:1042D0003949086000BF00BF0846006840F002008E
:1042E000086000BF012000900023024641030190B6
:1042F000324806F0EBFE0120009000231A4602210E
:1043000001902F4806F0E2FEFFF73CFD00224FF43B
:1043100000512A4806F0CEFE1420FFF757FE012276
:104320005103264806F0C6FE3220FFF74FFE00205C
:104330008DF80800012202A900F048F9012202A923
:10434000A42000F043F916208DF80800012202A9EC
:10435000802000F03BF90C208DF80800012202A912
:10436000882000F033F9022202A9A12000F030F8E1
:104370009DF80800302803D19DF8090003280DD0CE
:104380009DF80900012809D09DF80900022805D0F0
:104390009DF8080068B99DF8090050B99DF809001A
:1043A0009DF8082000EB022106A0FDF77DFD00200E
:1043B0000EBD0120FCE7000030380240000802403A
:1043C000000402404354502049443A25780D0A0025
:1043D0002DE9F04106460F461546FFF771FD7020A6
:1043E000FFF746FDFFF7AAFDF0B2FFF741FDFFF72B
:1043F000A5FDFFF765FD7120FFF73AFDFFF79EFD74
:1044000000240BE0691EA14201D0012100E000213F
:104410000846FFF7FFFC3855601CC4B2AC42F1DB24
:10442000FFF770FDBDE8F0812DE9FC410746002053
:1044300001900024002661480078401C5F49087004
:10444000084600780A2190FBF1F201FB120018B136
:104450005A4800780A2867DA012201A90220FFF7EA
:10446000B7FF9DF8040000F00F0000285CD09DF815
:10447000040000F00F0006287BDA9DF8040000F02D
:104480000F014FF6FF70884085B2E84380B240F4D8
:1044900040404B4988860420FFF798FD00245AE0ED
:1044A0004748808E0121A1400840E0B3454931F8DA
:1044B000140004226946FFF78BFF414890F844003E
:1044C00000F00100C0B19DF801009DF8001001F05E
:1044D0000F0100EB01203A49203121F814009DF82A
:1044E00003009DF8021001F00F0100EB0121344898
:1044F0000C3020F814101EE09DF801009DF800100B
:1045000001F00F0100EB01202F490988081A81B240
:104510002B480C3020F814109DF803009DF8021071
:1045200001F00F0101E014E023E000EB0120244939
:10453000203121F814009DF8000000F0F0008028E0
:1045400007D000211E48203020F81410143820F81D
:104550001410601CC4B2052CA2DB01261848808907
:1045600020B91748008C08B9002001900020134999
:1045700008709DF8040000F01F00A8B91048808E54
:1045800000F4004030B10E48808E20F400400C4909
:10459000888609E04FF6FF7009498881088408463B
:1045A000808E00F46040888604480078F02802DDA0
:1045B0000A20024908703046BDE8FC812200002034
:1045C000280000201E0B0108E40500202DE9F04121
:1045D00005460E4617464FF00008FFF771FC7020A5
:1045E000FFF746FCFFF7AAFCE8B2FFF741FCFFF734
:1045F000A5FC00240BE0305DFFF73AFCFFF79EFCC2
:104600008046B8F1000F00D003E0601CC4B2BC4289
:10461000F1DB00BFFFF776FC4046BDE8F08170B5E6
:1046200004464FF0FF3026683146324601B970BD6E
:1046300000BF12F8013B202B01D33A2BF9D13A2BC2
:1046400011D102250E78302E08DB0E78392E05DCCC
:104650008E1C964202D10E78A6F13005022D01DAA9
:1046600028462260E3E7002000BFE0E71FB500BF57
:104670004148006840F004003F49086000BF00BFA7
:104680000846006840F00200086000BF012000906A
:104690000023024641030190384806F017FD01202F
:1046A000009000231A4602210190354806F00EFDC5
:1046B000FFF768FB00224FF40051304806F0FAFC87
:1046C0000A20FFF783FC012251032C4806F0F2FC7C
:1046D0000A20FFF77BFC0020012103460246CDE9BA
:1046E00000100221264806F0F1FC6420FFF76EFC62
:1046F000042202A948F2401000F05AF800208DF878
:104700000C0020A102A8FDF70FFE88B11EA102A88F
:10471000FDF70AFE60B11EA102A8FDF705FE38B143
:104720001DA102A8FDF700FE10B1012004B010BDCC
:1047300002A91BA0FDF7B8FB17A102A8FDF7F4FD25
:1047400010B90A201949087002208DF808000122CA
:1047500002A948F2400000F0D5F90A20FFF736FC24
:1047600000208DF80800012202A948F2400000F064
:10477000C9F90020DAE700003038024000080240A2
:104780000004024039313100393134370000000073
:104790003131353800000000393237310000000077
:1047A0004354502049443A25730D0A002300002049
:1047B0002DE9F04105460F461646FFF781FB2820FC
:1047C000FFF756FBFFF7BAFB2812FFF751FBFFF785
:1047D000B5FBE8B2FFF74CFBFFF7B0FBFFF770FB50
:1047E0002920FFF745FBFFF7A9FB00240BE0711E12
:1047F000A14201D0012100E000210846FFF70AFB99
:104800003855601CC4B2B442F1DBFFF77BFBBDE856
:10481000F081000071B583B0002001900026B448FB
:104820000078401CB2490870084601780A2091FBC4
:10483000F0F200FB121018B1AD4800780A287DDABA
:10484000012203A948F24E10FFF7B2FF9DF80C00B9
:1048500000F0800078B19DF80C0000F00F00A54931
:104860000978884207DC00200190012201A948F262
:104870004E1000F047F99DF80C0000F00F000028E2
:104880005CD09DF80C0000F00F009A49097888422E
:1048900054DC9DF80C0000F00F014FF6FF708840CB
:1048A00084B29548858EE04380B240F440409249FE
:1048B0008886084682898F480078401E0C3121F88E
:1048C00010208D48028C8B480078401E143121F84E
:1048D000102000200190A7E08748808E9DF80420DA
:1048E00001219140084000283FD084499DF80420D0
:1048F00031F81200042202A9FFF75AFF804880888D
:1049000045F2105188420BD07D48808849F6060157
:10491000884205D07A48808847F29671884240D113
:10492000754890F8440000F00100F8B19DF80A00C5
:104930009DF80B1000EB0120714900E0B2E00988FE
:10494000081A81B26C480C309DF8042020F812102F
:104950009DF808009DF8091000EB012081B266481F
:1049600020309DF8042020F8121058E09DF808002F
:104970009DF8091000EB012081B25F480C309DF8D2
:10498000042020F812109DF80A009DF80B1000EB8F
:10499000012081B2584820309DF8042020F81210E0
:1049A0003DE0554890F8440000F00100D0B19DF87A
:1049B00008009DF8091000EB012081B24E480C3030
:1049C0009DF8042020F812109DF80A009DF80B10A5
:1049D00000EB012081B2484820309DF8042020F8E7
:1049E00012101CE09DF80A009DF80B1000EB01204E
:1049F00043490988081A81B23F480C309DF80420C9
:104A000020F812109DF808009DF8091000EB012015
:104A100081B2394820309DF8042020F812109DF80A
:104A20000400401CC0B201909DF80400314909788F
:104A30008842FFF651AF01262F4880893049098806
:104A4000884205DC2C48008C2D494988884226DDA7
:104A50009DF80C0000F00F0001280ADD2648C089EF
:104A6000254988810846408C088400202049087028
:104A700018E020480078401E1F490C3131F8100022
:104A80000C3988811B480078401E203131F8100015
:104A900020390884802003900846858602E00020A3
:104AA000134908709DF80C0000F08F00802815D184
:104AB0001148808E00F4004030B10F48808E20F401
:104AC00000400D49888609E04FF6FF700A49888149
:104AD00008840846808E00F4604088860448007888
:104AE000F02802DD0A2002490870304604B070BD8B
:104AF000240000202300002028000020280B0108AB
:104B0000E40500202DE9F04104460E4617464FF01B
:104B10000008FFF7D5F92820FFF7AAF9FFF70EFAEA
:104B20002012FFF7A5F9FFF709FAE0B2FFF7A0F9A5
:104B3000FFF704FA00250BE0705DFFF799F9FFF726
:104B4000FDF98046B8F1000F00D003E0681CC5B243
:104B5000BD42F1DB00BFFFF7D5F94046BDE8F0816B
:104B600010B500224FF400710D4806F0A3FA00F0D2
:104B700019F8012211020A4806F09CFA00F012F816
:104B800000224FF48071064806F094FA00F00AF80B
:104B900001225102024806F08DFA00F003F810BD20
:104BA0000004024010B50220FFF71AFA10BD000001
:104BB0001CB500BF1148006840F002000F490860B2
:104BC00000BF00BF0846006840F00200086000BF58
:104BD000012000900023024601020190084806F0DF
:104BE00075FA0120009003460246410201900448F4
:104BF00006F06CFA00F094F81CBD0000303802405A
:104C00000004024010B5012251020A4806F052FA8F
:104C1000FFF7C8FF01221102064806F04BFAFFF722
:104C2000C1FF00224FF48071024806F043FAFFF7FB
:104C3000B9FF10BD0004024070B5054600240026EF
:104C40001AE06006040E01221102104806F032FA42
:104C5000FFF7A8FF4FF400710C4806F023FA08B1E3
:104C6000601CC4B200224FF48071084806F022FA9A
:104C7000FFF798FF701CC6B2082EE2DB15B9FFF7EC
:104C8000C1FF01E0FFF76CFF204670BD0004024049
:104C900070B50446002518E0E2094FF400710F4892
:104CA00006F008FAFFF77EFF012211020B4806F01A
:104CB00001FAFFF777FF00224FF48071074806F0F2
:104CC000F9F96006040E681CC5B2082DE4DB012268
:104CD0005102024806F0EEF970BD000000040240E7
:104CE00010B5012251020D4806F0E4F9012211022B
:104CF0000A4806F0DFF9FFF755FF00224FF4007174
:104D0000064806F0D7F9FFF74DFF00224FF48071F7
:104D1000024806F0CFF9FFF745FF10BD000402403E
:104D200010B500224FF40071094806F0C3F9FFF7EF
:104D300039FF01221102064806F0BCF9FFF732FFE5
:104D400001225102024806F0B5F9FFF72BFF10BD12
:104D50000004024070B500240025012251021348CE
:104D600006F0A8F9FFF71EFF012211020F4806F016
:104D7000A1F9FFF717FF07E0601CC4B2FA2C03DDAE
:104D8000FFF7CEFF012506E04FF40071074806F05B
:104D900089F90028F0D100BF00224FF48071034848
:104DA00006F088F9FFF7FEFE284670BD00040240B9
:104DB0001CB500BF2048006840F010001E49086084
:104DC00000BF00BF0846006840F01000086000BF48
:104DD00000BF0846006840F01000086000BF00BF38
:104DE0000846006840F00100086000BF0120009004
:104DF00000231A4610210190104806F067F901209F
:104E0000009000231A46082101900C4806F05EF934
:104E10000120009000231A4604210190074806F063
:104E200055F90220012100231A46CDE9001004485B
:104E300006F04CF91CBD0000303802400010024062
:104E40000000024070B50446002514B101202B4932
:104E500008702A480078002834D01021284806F02D
:104E600021F978B10821264806F01CF950B1042137
:104E7000234806F017F928B10121224806F012F95B
:104E800001281FD10A20FFF7A1F800201B49087054
:104E900010211B4806F006F900B901250821184821
:104EA00006F000F900B902250421154806F0FAF8C9
:104EB00000B903250121134806F0F4F801281BD19D
:104EC000042519E010210E4806F0ECF8012813D152
:104ED00008210B4806F0E6F801280DD10421084806
:104EE00006F0E0F8012807D10121064806F0DAF8BB
:104EF00010B9012001490870284670BD1400002037
:104F0000001002400000024070B504460026094827
:104F10000588408845430021084603F0CDFA03F098
:104F200079FC00BF02E004480480761CAE42FAD34C
:104F300070BD0000E40500208000006C10B5044640
:104F400058488471002C58D1F020564908804FF4FD
:104F5000A07048800846808845F21051884210D1E0
:104F60004FF430504F4908814FF4285048814FF496
:104F70002C5088814FF4F07008804FF448704880BE
:104F80001AE04848808841F6631188420DD12C20F0
:104F9000444908812B2048812A2088814FF4F070F1
:104FA00008804FF44870488006E02C203D49088175
:104FB0002A2048812B2088813A48808845F2103188
:104FC000884205D03748808847F29671884206D1DA
:104FD0004FF4A070334908804FF4F0704880314896
:104FE000808849F60601884258D14FF4F0702D4967
:104FF00008804FF44870488050E04FF4A070294971
:105000000880F02048800846808845F21051884288
:1050100010D14FF43050234908814FF42850488173
:105020004FF42C5088814FF4487008804FF4F07092
:10503000488020E01B48808841F66311884205D0F3
:105040001848808849F6060188420DD12C20154960
:1050500008812A2048812B2088814FF448700880DD
:105060004FF4F070488006E02C200E4908812A2079
:1050700048812B2088810B48808845F21031884276
:1050800005D00848808847F29671884206D14FF4CF
:10509000F070044908804FF4A0704880002003F0AD
:1050A000EDF810BDE40500202DE9FF4F85B08046E6
:1050B0008946129F002003900290B84507DB0798AD
:1050C000B84204DBB94502DB0898B84202DA09B0FD
:1050D000BDE8F08F0798A0EB08040898A0EB09053D
:1050E000CDF80480CDF80090002C02DD4FF0010ACD
:1050F00006E014B94FF0000A02E04FF0FF3A6442B4
:10510000002D02DD4FF0010B06E015B94FF0000B4A
:1051100002E04FF0FF3B6D42AC4201DD264600E06D
:105120002E460020049023E0009A91B2019A90B29A
:105130003A46139B02F064FD0398204403900298C2
:10514000284402900398B04205DD0398801B039029
:105150000198504401900298B04205DD0298801BEE
:1051600002900098584400900498401C80B204902B
:10517000711C04988842D7DD00BFA8E72DE9F047ED
:1051800006460F4690469A46002445460320A0EB6B
:10519000480944E07A1B91B2321990B2524600F0AD
:1051A000B5F83A1B91B2721990B2524600F0AEF8BF
:1051B0003A1991B2721990B2524600F0A7F87A19D2
:1051C00091B2321990B2524600F0A0F87A1991B219
:1051D000321B90B2524600F099F83A1991B2721B04
:1051E00090B2524600F092F87A1B91B2321B90B204
:1051F000524600F08BF83A1B91B2721B90B25246A5
:1052000000F084F8641CB9F1000F03DAA000801DDF
:10521000814404E0601B80000A3081446D1EAC4272
:10522000B8DDBDE8F0870000F8B504460D46164627
:105230001F463EB109480088A04203DB074840886A
:10524000A84200DAF8BDA019401E82B22B462946BA
:105250002046009702F0AAFC00BFF3E7E405002017
:105260002DE9FF4F84B081468A4600200290834694
:105270000698A0EB09050798A0EB0A06CDF8049064
:10528000CDF800A0002D01DD012705E00DB90027B4
:1052900002E04FF0FF376D42002E02DD4FF00108B3
:1052A00006E016B94FF0000802E04FF0FF387642F2
:1052B000B54201DD2C4600E03446002003901EE09C
:1052C000009A91B2019A90B2119A00F01FF80298D8
:1052D00028440290B3440298A04205DD0298001BC6
:1052E0000290019838440190A34504DDABEB040B18
:1052F0000098404400900398401C80B20390611CC9
:1053000003988842DCDD08B0BDE8F08F70B5054633
:105310000E4614463146284603F0CEF803F07AFADA
:1053200001490C8070BD00008000006C2DE9F8413F
:1053300005460E4617469846079C33463A46314680
:1053400028460094FFF78CFF43462A4631462846FC
:105350000094FFF785FF43463A46414628460094AD
:10536000FFF77EFF43463A46314638460094FFF742
:1053700077FFBDE8F88110B5CF2003F03FFA002099
:1053800003F030FAC12003F02DFA302003F02AFA9E
:10539000ED2003F033FA642003F024FA032003F035
:1053A00021FA122003F01EFA812003F01BFAE820F4
:1053B00003F024FA852003F015FA102003F012FA06
:1053C0007A2003F00FFACB2003F018FA392003F00B
:1053D00009FA2C2003F006FA002003F003FA342027
:1053E00003F000FA022003F0FDF9F72003F006FABB
:1053F000202003F0F7F9EA2003F000FA002003F080
:10540000F1F9002003F0EEF9C02003F0F7F91B20BA
:1054100003F0E8F9C12003F0F1F9012003F0E2F90B
:10542000C52003F0EBF9302003F0DCF9302003F065
:10543000D9F9C72003F0E2F9B72003F0D3F93620F9
:1054400003F0DCF9482003F0CDF93A2003F0D6F957
:10545000552003F0C7F9B12003F0D0F9002003F084
:10546000C1F91A2003F0BEF9B62003F0C7F90A20EB
:1054700003F0B8F9A22003F0B5F9F22003F0BEF969
:10548000002003F0AFF9262003F0B8F9012003F063
:10549000A9F9E02003F0B2F90F2003F0A3F92A20C4
:1054A00003F0A0F9282003F09DF9082003F09AF9F1
:1054B0000E2003F097F9082003F094F9542003F02C
:1054C00091F9A92003F08EF9432003F08BF90A200B
:1054D00003F088F90F2003F085F9002003F082F92A
:1054E000002003F07FF9002003F07CF9002003F096
:1054F00079F9E12003F082F9002003F073F9152017
:1055000003F070F9172003F06DF9072003F06AF932
:10551000112003F067F9062003F064F92B2003F053
:1055200061F9562003F05EF93C2003F05BF9052099
:1055300003F058F9102003F055F90F2003F052F949
:105540003F2003F04FF93F2003F04CF90F2003F008
:1055500049F92B2003F052F9002003F043F9002011
:1055600003F040F9012003F03DF93F2003F03AF940
:105570002A2003F043F9002003F034F9002003F05F
:1055800031F9002003F02EF9EF2003F02BF9112060
:1055900003F034F97820FEF719FD292003F02EF9E5
:1055A00010BD10B5FF2003F029F9FF2003F01AF910
:1055B000982003F017F9062003F014F9BC2003F03B
:1055C0001DF9012003F00EF90F2003F00BF9612003
:1055D00003F008F9FF2003F005F9012003F002F9B8
:1055E000012003F0FFF80B2003F0FCF8102003F07B
:1055F000F9F8372003F0F6F8632003F0F3F8FF2002
:1056000003F0F0F8FF2003F0EDF8012003F0EAF8D2
:10561000012003F0E7F8002003F0E4F8002003F095
:10562000E1F8FF2003F0DEF8522003F0DBF8012060
:1056300003F0D8F8002003F0D5F8402003F0D2F8AA
:10564000BD2003F0DBF8012003F0CCF8232003F0A9
:10565000C9F8452003F0C6F8672003F0C3F801201D
:1056600003F0C0F8232003F0BDF8452003F0BAF89A
:10567000672003F0B7F8BE2003F0C0F8002003F065
:10568000B1F8012003F0AEF8AB2003F0ABF86020D6
:1056900003F0A8F8222003F0A5F8222003F0A2F8D6
:1056A000222003F09FF8222003F09CF8222003F030
:1056B00099F8C72003F0A2F8362003F093F8ED2004
:1056C00003F09CF87F2003F08DF80F2003F08AF898
:1056D000C02003F093F80F2003F084F80B2003F0B0
:1056E00081F80A2003F07EF8FC2003F087F80820F8
:1056F00003F078F8DF2003F081F8002003F072F85F
:10570000002003F06FF8002003F06CF8002003F095
:1057100069F8002003F066F8202003F063F8F32016
:1057200003F06CF8742003F05DF8B42003F066F821
:10573000002003F057F8002003F054F8002003F095
:1057400051F8F72003F05AF8822003F04BF8B1200B
:1057500003F054F8002003F045F8132003F042F85A
:10576000132003F03FF8F22003F048F8802003F004
:1057700039F8042003F036F8402003F033F82820ED
:1057800003F030F8C12003F039F8172003F02AF8AD
:10579000882003F027F8882003F024F8202003F065
:1057A00021F8E02003F02AF8002003F01BF80A207B
:1057B00003F018F8122003F015F8102003F012F887
:1057C0000E2003F00FF8202003F00CF8CC2003F09B
:1057D00009F8072003F006F8062003F003F80B2071
:1057E00003F000F80E2002F0FDFF0F2002F0FAFF98
:1057F0000D2002F0F7FF152002F0F4FF102002F058
:10580000F1FF002002F0EEFFE12002F0F7FF0020A0
:1058100002F0E8FF0B2002F0E5FF132002F0E2FFA8
:105820000D2002F0DFFF0E2002F0DCFF1B2002F053
:10583000D9FF712002F0D6FF062002F0D3FF062028
:1058400002F0D0FF0A2002F0CDFF0F2002F0CAFFC5
:105850000E2002F0C7FF0F2002F0C4FF152002F057
:10586000C1FF0C2002F0BEFF002002F0BBFF2A2087
:1058700002F0C4FF002002F0B5FF002002F0B2FFEA
:10588000012002F0AFFFDF2002F0ACFF2B2002F07E
:10589000B5FF002002F0A6FF002002F0A3FF0320C6
:1058A00002F0A0FF1F2002F09DFF3A2002F0A6FFA9
:1058B000552002F097FF362002F0A0FF002002F0F2
:1058C00091FF112002F09AFF7820FEF77FFB29203C
:1058D00002F094FF1420FEF779FB2C2002F08EFFDB
:1058E00010BD10B5ED2002F089FF012002F07AFF13
:1058F000FE2002F077FFEE2002F080FFDE2002F0B3
:1059000071FF212002F06EFFF12002F077FF0120ED
:1059100002F068FFDF2002F071FF102002F062FF4A
:10592000C42002F06BFF8F2002F05CFFC62002F063
:1059300065FF002002F056FFE22002F053FFE22054
:1059400002F050FFE22002F04DFFBF2002F056FFB0
:10595000AA2002F047FFB02002F050FF0D2002F015
:1059600041FF002002F03EFF0D2002F03BFF00202F
:1059700002F038FF112002F035FF002002F032FF64
:10598000192002F02FFF002002F02CFF212002F04E
:1059900029FF002002F026FF2D2002F023FF002027
:1059A00002F020FF3D2002F01DFF002002F01AFF50
:1059B0005D2002F017FF002002F014FF5D2002F0CE
:1059C00011FF002002F00EFFB12002F017FF80202F
:1059D00002F008FF002002F005FF8B2002F002FF1A
:1059E000002002F0FFFE962002F0FCFE002002F0F4
:1059F000F9FEB22002F002FF002002F0F3FE0020C8
:105A000002F0F0FE022002F0EDFE002002F0EAFEBD
:105A1000032002F0E7FE002002F0E4FEB32002F0D3
:105A2000EDFE002002F0DEFE002002F0DBFE002092
:105A300002F0D8FE002002F0D5FE002002F0D2FED7
:105A4000002002F0CFFE002002F0CCFE002002F089
:105A5000C9FE002002F0C6FE002002F0C3FE0020B6
:105A600002F0C0FE002002F0BDFE002002F0BAFEEF
:105A7000002002F0B7FE002002F0B4FE002002F089
:105A8000B1FE002002F0AEFE002002F0ABFE0020CE
:105A900002F0A8FE002002F0A5FE002002F0A2FE07
:105AA000002002F09FFE002002F09CFE002002F089
:105AB00099FEB42002F0A2FE8B2002F093FE00209B
:105AC00002F090FE962002F08DFE002002F08AFE89
:105AD000A12002F087FE002002F084FEB52002F033
