:020000040800F2
:10000000E8910120610300080B390008033900085A
:100010000739000809250008913D0008000000008C
:10002000000000000000000000000000A102000825
:100030000D25000800000000FD0200080D39000831
:100040008503000885030008850300088503000870
:100050008503000885030008850300088503000860
:100060008503000885030008850300088503000850
:100070008503000885030008850300088503000840
:100080008503000885030008850300088503000830
:100090008503000885030008850300088503000820
:1000A0008503000885030008850300088503000810
:1000B0008503000885030008850300088503000800
:1000C00085030008850300088503000885030008F0
:1000D00085030008413D00088503000885030008EA
:1000E00085030008850300088503000885030008D0
:1000F00085030008850300088503000885030008C0
:1001000085030008850300088503000885030008AF
:1001100085030008850300083539000885030008B9
:10012000850300088503000885030008850300088F
:10013000850300088503000885030008850300087F
:10014000850300088503000885030008850300086F
:10015000850300088503000885030008850300085F
:10016000850300088503000885030008850300084F
:1001700085030008850300088503000800000000CF
:10018000850300088503000800F002F800F078F805
:100190000AA090E8000C82448344AAF10107DA45E2
:1001A00001D100F06DF8AFF2090EBAE80F0013F0BC
:1001B000010F18BFFB1A43F0010318479C2B0400E2
:1001C000BC2B04000A444FF0000C10F8013B13F064
:1001D000070408BF10F8014B1D1108BF10F8015BA0
:1001E000641E05D010F8016B641E01F8016BF9D193
:1001F00013F0080F1EBF10F8014BAD1C0C1B09D1EA
:100200006D1E58BF01F801CBFAD505E014F8016B5B
:1002100001F8016B6D1EF9D59142D6D370470000ED
:100220000023002400250026103A28BF78C1FBD8FF
:10023000520728BF30C148BF0B60704766293BF0AA
:100240001481642900F07481782900F0AD8173294C
:1002500000F0D186002070471FB53BF0F9F800F0A0
:1002600033FF0400002000213AF094FA401C606043
:10027000002000213AF078FAE0601FBD10B510BDF3
:1002800001F00EF81146FFF7E7FF31F0C1FC01F075
:10029000B1FA03B4FFF7F2FF03BC06F0D7FE00008B
:1002A0002C4B19680868B0E8F04F80F30988BFF359
:1002B0006F8F4FF0000080F311887047000000003E
:1002C00008480068006880F308884FF0000080F359
:1002D000148862B661B6BFF34F8FBFF36F8F00DF34
:1002E00000BF00BF08ED00E0DFF80C00016841F43A
:1002F00070010160704700BF88ED00E0EFF30980F6
:10030000BFF36F8F134B1A681EF0100F08BF20ED5C
:10031000108A20E9F04F106009B44FF0500080F3CC
:100320001188BFF34F8FBFF36F8F39F071FA4FF021
:10033000000080F3118809BC19680868B0E8F04F24
:100340001EF0100F08BFB0EC108A80F30988BFF3CD
:100350006F8F7047A0000020EFF30580704700000A
:100360000C48016841F4700101600B4880470B485C
:100370000047FEE7FEE7FEE7FEE7FEE7FEE7FEE7F3
:10038000FEE7FEE7FEE7000005480649044A064B83
:100390007047000088ED00E021390008890100085D
:1003A000E8810120E8910120E8810120704753EAAB
:1003B000020C00F069802DE9F04B4FF00006002B95
:1003C0001FBFB3FA83F503FA05F424FA05F65E407D
:1003D00012BF1643B2FA82F502FA05F4C5F1200500
:1003E0001EBF22FA05FC44EA0C04203556EA044CF0
:1003F0004FEA144418BF641C4FF000084FF0000986
:10040000904271EB030C39D3002919BFB1FA81F77F
:1004100001FA07F6B0FA80F700FA07F6C7F12007ED
:100420001EBF20FA07FC46EA0C062037B6FBF4FC98
:10043000A7EB0507103F07F01F0BCBF120060CFAC6
:100440000BFB2CFA06F644BFB3460026202FA4BFB0
:100450005E464FF0000B5BEA060C08BF4FF0010B45
:1004600019EB0B09ABFB027C48EB0608C01B06FB33
:1004700002CC0BFB03CC71EB0C01C1E70B4602462F
:1004800041464846BDE8F08B13B54FF000004FF0F1
:100490000001AFF30080BDE81C4070470FB4044971
:1004A00010B503AA029800F0ABFD10BC5DF814FB78
:1004B000140000200FB41CB5074B06AA7B44694604
:1004C0000090059800F06DFD0020694600F07CFD6D
:1004D0001CBC5DF814FB0000090B000070B50C4655
:1004E0000546012A05D02878800600D5EA69002350
:1004F00002E0012305E05B1C934202D2E05C00288D
:10050000F9D1A869E618C01AA861286A18442862B7
:100510002846AFF3008004E0D5E9012114F8010B6F
:100520009047B442F8D32846AFF3008070BD000076
:100530002DE9F0410646002410687529314616A5BC
:1005400010D0AFF30080002802DA404213A507E084
:1005500031688A0701D512A502E0490704D511A523
:10056000012401E0AFF3008000210A2206F12407F4
:1005700009E0B0FBF2FCB0FBF2F302FB1C003030F0
:1005800078541846491C0028F3D123462A463046A1
:10059000BDE8F04100F098BA000000002D00000016
:1005A0002B0000002000000070B504460D462146D7
:1005B0001068AFF300802188090502D50F4A7A44FC
:1005C00002E00E4A7A440E32002104F1240305E0D1
:1005D00000F00F060009965D5E54491C0028F7D113
:1005E00020780023000704D5702D02D009B1022322
:1005F00011322046BDE8704000F066BAE6200400E3
:100600002DE9F05F894604464FF0000ADFF874B127
:10061000FB44C0F820A02046E1688847002874D039
:10062000252806D0D4E901219047206A401C206289
:10063000F1E700265F462046E16888472028054606
:1006400007DB312D05D2781910F8200C08B10643CC
:10065000F1E7B00701D526F00406C4F81CA0002776
:10066000C4F818A02A2D09D0284604F0F2FB38B3AC
:1006700004EB8708303DC8F8185019E059F8041BFE
:10068000204604EB87029161E1688847012F054607
:1006900018D1E069002820DA26F020061DE0D8F8FD
:1006A000180000EB800005EB40003038C8F8180057
:1006B0002046E1688847054604F0CBFB0028EED1D0
:1006C000012F0AD02E2D08D12046E16888477F1CD3
:1006D0000546022F46F02006C4DBA069002803DA95
:1006E000404246F00106A061F00701D026F0100656
:1006F0006C2D0BD0682D09D04C2D39D06A2D35D0FA
:10070000742D35D07A2D33D016E038E0E1682F46CD
:1007100020468847B842054609D16C2F26D04FF4B1
:100720008060E168064320468847054604E06C2F58
:100730001AD04FF4807006430DB3A5F1410019287B
:1007400002D8203546F400664A46294620462660EF
:100750004E46FFF773FD80B101280BD0F61D26F041
:10076000070000F1080956E74020E4E78020D8E7B9
:100770000020D6E706F104094DE7284652E7206A33
:10078000BDE8F09FBC20040040EA0103024630B5FA
:100790009B0710D14FF0013400E008C208C91D1BAF
:1007A0009D4315EAC41FF8D013F0FF0102F8011BA6
:1007B0000DD01B0AF8E711F8013B002B02F8013BB2
:1007C00005D011F8013B002B02F8013BF3D130BDFD
:1007D00010B5431C02E010F8011B71B18107FAD17A
:1007E0004FF0013202C88C1A8C4314EAC211F9D0BE
:1007F000C01A0A0603D0C01E10BDC01A10BD0A04DC
:1008000001D0801E10BD0902FCD0401E10BD032A7D
:1008100040F2308010F0030C00F0158011F8013B1D
:10082000BCF1020F624498BF11F801CB00F8013B04
:1008300038BF11F8013BA2F1040298BF00F801CBC8
:1008400038BF00F8013B11F0030300F02580083A9F
:10085000C0F0088051F8043B083A51F804CBA0E8F6
:100860000810F5E7121D5CBF51F8043B40F8043B4B
:10087000AFF30080D20724BF11F8013B11F801CB80
:1008800048BF11F8012B24BF00F8013B00F801CB51
:1008900048BF00F8012B704710B5203AC0F00B801C
:1008A000B1E81850203AA0E81850B1E81850A0E874
:1008B0001850BFF4F5AF5FEA027C24BFB1E81850CE
:1008C000A0E8185044BF18C918C0BDE810405FEA3E
:1008D000827C24BF51F8043B40F8043B08BF7047BA
:1008E000D20728BF31F8023B48BF11F8012B28BFBF
:1008F00020F8023B48BF00F8012B704702F0FF03CD
:1009000043EA032242EA024200F002B84FF000023A
:100910000429C0F0128010F0030C00F01B80CCF111
:10092000040CBCF1020F18BF00F8012BA8BF20F87F
:10093000022BA1EB0C0100F00DB85FEAC17C24BFD3
:1009400000F8012B00F8012B48BF00F8012B70477D
:100950004FF0000200B5134694469646203922BF58
:10096000A0E80C50A0E80C50B1F12001BFF4F7AFA3
:10097000090728BFA0E80C5048BF0CC05DF804EB85
:10098000890028BF40F8042B08BF704748BF20F8F3
:10099000022B11F0804F18BF00F8012B70470000A8
:1009A0004FF0013C50F8042B51F8043B9A4221D1FE
:1009B000A2EB0C03934313EACC1317D150F8042B8A
:1009C00051F8043B9A4215D1A2EB0C03934313EA6E
:1009D000CC130BD150F8042B51F8043B9A4209D1A7
:1009E000A2EB0C03934313EACC13DBD04FF00000CF
:1009F000704700BFD01A01BAB1FA81F101F01801B5
:100A000022FA01F0CB40C1F12001DBB2C0B2C01A22
:100A10002CFA01F3D11A914311EAC311E6D17047C0
:100A2000704770477047704730B5B0F10A024FEA1F
:100A3000900E71F100034EEA817EB0EB0E0061EB87
:100A400091014FEA101E4EEA017E10EB0E0041EBC1
:100A500011114FEA102E4EEA016E10EB0E0041EB21
:100A600011214FEA104E4EEA014E10EB0E0041EB01
:100A70001141401841F100014FEAD00040EA4170B5
:100A80004FEAD10110EB80054FEA810444EA9074EB
:100A900044EB01046D1944EB0404521BA3414FF0D5
:100AA000000348BF0A3200D530BD401C41F10001AF
:100AB00030BD10B500F00CFB006810BD10B5044649
:100AC00000F006FB046010BD2DE9F0470D46994685
:100AD0009246044600F124080168880604D5E069BE
:100AE00021F01001216000E00120A84201DD471B38
:100AF00000E00027A1697A1902EB0900081AA06139
:100B00002078C00602D42046AFF30080002608E01B
:100B1000D4E901211AF806009047206A401C761C8F
:100B200020624E45F4DB2078C0060AD52046AFF39C
:100B3000008006E0D4E9012130209047206A401C63
:100B40002062381EA7F10107F4DC07E0D4E9012197
:100B500018F805009047206A401C2062281EA5F165
:100B60000105F3DC2046AFF300802078000602D5B3
:100B70000220BDE8F0870120FBE770472DE9FF4F19
:100B80000C461E464FF0FF378BB0D2E90001DDF86E
:100B900060800A908A46C1F30A5505B93D46002196
:100BA00008464FF00000BAF1000F00F4400005DAEB
:100BB00000EB80004FF4400101EA50004FEA9059E9
:100BC000B9F1010F00DDB9460A9850EA4A000ED08B
:100BD00044F61050A5F2FF3545432F14B8F1000F2D
:100BE0001ED07542291E1EDDC9F100021CE0B8F1BD
:100BF000010F4FF0000001D0302103E0F24305E087
:100C00002154401CB042FBDB30460022002121541D
:100C10000B99C1F80880C1E900200FB0BDE8F08F42
:100C2000BD1B6D1CDEE74A4600DA694206A800F0EB
:100C3000BDFA06AB93E8070003AB83E80700504614
:100C40000A9901F02CF88DE80700A0F500501F3834
:100C500000900398002D0ADD42F21F014A46084425
:100C6000002303A90390684601F0D8FA09E0A0F533
:100C700000504A461F38002303A90390684601F03C
:100C8000F7FA8DE807000004000C03D04FF0FF30A6
:100C9000410800E01046B8F1000F03D00022009296
:100CA00015461EE0751E05D4FFF7BEFE30326255B4
:100CB0006D1EF9D5B3460122084302D000227F1CE5
:100CC00004E02078302801D100227F1E002A0997F5
:100CD00084D01DE0112D07DAFFF7A6FE30326255F1
:100CE0006D1C50EA0102F5D1084302D00098C8B14A
:100CF0000EE00021681E05E0235C625C6354225410
:100D0000401E491C8142F7DBAB46A81B401E0990E0
:100D1000002004F80B000B98099AC0F80880C0E97D
:100D2000002B7AE711264FF0000857E72DE9F04F26
:100D300088460446D21D22F0070191B0D1E9000196
:100D4000CDE90A0103F026F802460B98C00F01D046
:100D50002D2007E02068810701D52B2002E020210B
:100D600001EAC000032A099001D0072A05DB0346E7
:100D70004146204600F0BAF90BE12078800601D503
:100D8000E06900E00620B8F1650F814606D0B8F1B1
:100D9000660F18D0B8F1670F70D131E00020B9F1BB
:100DA000110F009001DB112301E009F101030AAAF0
:100DB00001A90CA8FFF7E2FEDDE90C70002609F19D
:100DC0000105834647E001204B4600904FF0004765
:100DD0000AAA01A90CA8FFF7D1FEDDE90DB00C9914
:100DE0005D46002610B909F101000D18B9EB0500A8
:100DF00003D4C0F1FF3609F10105A5EB09002BE092
:100E0000B9F1010F01DA4FF001090020B9F1110F1A
:100E10000090484601DD112300E003460AAA01A91B
:100E20000CA8FFF7ABFEDDE90C704D4600268346AB
:100E3000207800070AD4AB4500DA5D4601A8012DF1
:100E400004DD411911F8011C302907D04F4502DAA1
:100E500017F1040F04DA012082460FE06D1EEEE761
:100E6000002F02DCED1B3E4403E0781CA84200DDAD
:100E70007D1CB81B00F1010A4FF0004720780007E5
:100E800003D4AA4501DB4FF0FF3A0021B7F1004F30
:100E90000DF143088DF8431024D002202B23002F9E
:100EA00001DA7F422D230A21021EA0F1010000DC9D
:100EB0005FB197FBF1FC97FBF1F201FB1C7C17463D
:100EC0000CF1300C08F801CDEEE7A8F10100037039
:100ED0002188090501D5452100E06521A0F101081F
:100EE00000F8011C09980FA9A1EB0807FF1D00B12C
:100EF0000120411901EBEA70A1693844081A401E2B
:100F0000A0612078C00602D42046AFF30080099883
:100F100028B1D4E901219047206A401C2062207842
:100F2000C00622D52046AFF300801EE0002E04DB71
:100F3000B34502DD01A8805D00E03020D4E9012145
:100F40009047206A401C2062761CAAF101005FEAEB
:100F5000000A0AD100F0B8F8C0680168405CD4E922
:100F600001219047206A401C2062281EA5F101053E
:100F7000DCDC07E0D4E9012118F8010B9047206A76
:100F8000401C2062381EA7F10107F3DC2046AFF3B6
:100F90000080032011B041E601694A1C0261087813
:100FA000704700B58FB0CDE90131002105910549A9
:100FB0007944CDE9031011466846FFF721FB0FB0D5
:100FC00000BD0000E5FFFFFF0A6802F8010B0A60A0
:100FD000704710B5436913B1AFF3008001E0FFF72C
:100FE0007DFA012010BD127800F124010A70002260
:100FF0004A700122EDE711684FF0FF32E9E7000087
:10100000074B70B50D467B44FFF7CBFF04462846DF
:1010100000F03EF910B14FF0FF3070BD204670BDBA
:101020000B2601000FB4002300B589B00CA9009174
:101030000B99CB60214B7B440693214B7B44079358
:1010400004236FF00042CDE901321E4A7A446B4618
:101050000892024600203AF06AFA09B05DF814FBE3
:1010600070B506464FF0FF3015460C46324686B046
:101070000091CDE9010169460020049004A8FFF722
:10108000D1FF02460498211825B108B1084600E0B6
:1010900020462860049800280DD0002A02DD009820
:1010A000884208D03246081B69460094CDE9010405
:1010B00004A8FFF7B7FF06B070BD000033010000C1
:1010C0004B0100008900000000487047A881012002
:1010D000004870478881012010B5044600F006F9E9
:1010E0000068005D00F0010010BD00002DE9F04136
:1010F0001F46044603260168072A01F4006004DB4A
:1011000008B116A505E016A503E008B115A500E095
:1011100015A521F010002060A069C01EA0610FB1CC
:10112000401EA0612046AFF300804FB1D4E90121F9
:1011300038469047206A401C2062C01C206206E0AE
:10114000206AFAE7D4E9012115F8010B9047761ED1
:10115000F8D22046AFF30080BDE8F0814E414E004A
:101160006E616E00494E4600696E6600426842B18B
:10117000016811F8013B23B1521EC0E90012184664
:1011800070470121C160881E704742685AB1C36828
:10119000016843B983688B4205D0491E521CC0E9DF
:1011A0000012002070474FF0FF3070472DE9F047E4
:1011B000814616468AB0354878440DC88DE80D0042
:1011C00032487844801C03AC0DC884E80D0041F619
:1011D0009B300844372190FBF1F290FBF1F5A5F12B
:1011E000800501FB12041B3C02D56442012000E093
:1011F0000020DFF898A080460027FA44AAF1BE0A32
:101200000EE0E0070AD03246684607EB47010123AB
:101210000AEB810101F02CF88DE8070064107F1CB7
:10122000002CEED1194F7F44AE3F19E0E80715D0EE
:1012300007EB04100DF1180A90E80E008AE80E0082
:10124000C068F04201D1981908903246012306A9DE
:1012500003A801F00DF803AB83E807006D10641CD0
:10126000002DE3D14FF0010332466946B8F1000F7B
:1012700003A802D000F0D2FF01E000F0F9FFC9E9B5
:101280000001C9F808200AB0BDE8F087381604004C
:10129000007B00F080007047004870478881012083
:1012A0007546FFF7F9FFAE4605006946534620F044
:1012B0000700854618B020B5FFF766F8BDE8204066
:1012C0004FF000064FF000074FF000084FF0000B02
:1012D00021F00701AC46ACE8C009ACE8C009ACE8B5
:1012E000C009ACE8C0098D467047000010B5FFF793
:1012F000EBFE001D10BD00BF9D9403002DE9FF4FC4
:1013000006468BB00878FF2806D0491C2D2805D04A
:1013100000244FF0000908E000200CE00124F8E769
:1013200009EB8903491C00EB43090878FF28F7D132
:1013300014B1C9F100008146107800252C46AA4658
:1013400029462D2801D02B2804D1521C2D2813D03A
:10135000002082468B461078FF280FD04FF0000CFB
:101360000A21521CA5FB017804FB018105FB0C112D
:10137000C5194BEB0104EEE70120EAE7002108461E
:101380004FF00000BAF1000F02D000EB80004008DF
:10139000C0F38157012F01DD4FF0FF370E9955EA59
:1013A000040009EB01080BD04FF0020918F5FA7F91
:1013B00016DA4FEACA70002F706008DD012007E0DE
:1013C0004FEACA70C6E900B00FB0BDE8F08F002048
:1013D0003060FFF77DFEC0F800901821084616E047
:1013E000B8F5FA7F18DD002F02DAF748784401E0FB
:1013F000F6487844D0E90010C6E9001040EACA7007
:101400007060FFF765FEC0F80090142108460FB029
:10141000BDE8F04F3AF026B8002108464FF0000032
:10142000B8F10001099002DAC7F1000200E03A4683
:1014300001DAC8F1000106A8FFF7B8FE06AB93E891
:10144000070003AB83E8070044F23E005BEA0401B7
:101450000090584604D144F21E012C465D4600918E
:10146000210C0904014306D10099240444EA1544DF
:101470002D041039009104F07F41014306D10099F9
:10148000240244EA15642D020839009104F07041E9
:10149000014306D10099240144EA15742D01091F66
:1014A000009104F04041014306D10099A40044EAB0
:1014B0009574AD00891E009104F00041084304D1E9
:1014C00000986D196441401E00904FF001033A46A8
:1014D0006846B8F1000FCDE9014503A902DD00F02F
:1014E000DCFE01E000F0AFFEBAF1000F04460D464D
:1014F00001D084F00044002108464FF00000099913
:1015000040F2FF77484010F00C0F07D124F0004064
:10151000284303D0C4F30A50B84212D1FFF7D8FDD4
:10152000C0F80090C4F30A50B8420AD1A8487844E1
:10153000D0E90010C6E9001004F0004108437060D3
:1015400042E7C6E900543FE72DE9FF4F1F464FF041
:10155000000A4FF0FF38454691B0D7E90146CDF873
:101560003CA0FFF7B1FDC0680168405C1090B9690C
:1015700012986D1C8847396A814688470028F6D141
:10158000B9F1FF3F0AD0002E24F4D06411DDB9F187
:101590002B0F08D0B9F12D0F0BD102E0404615B04A
:1015A00013E744F48064B96912986D1C8847761E6D
:1015B0008146600504A901D52D2000E02B20002ED6
:1015C00001F1010B0DF130088DF810003FDDB9F18C
:1015D000690F08D0B9F1490F05D0B9F16E0F02D0EB
:1015E000B9F14E0F1CD13B4601A8009580E850028E
:1015F000DDE912126FF0020039F09DFFC11CCED15F
:101600000EE0B96912986D1C884781461398761EC2
:1016100044F4007405600F98401C002E0F9016DDF6
:10162000B9F1300FEDD0B9F1780F02D0B9F1580F00
:101630000DD10F9801280AD13B46CDE90054DDE9D0
:101640001212001F029639F074FFC11CA7D1109925
:1016500089453ED144F0800406E01399681CAAF144
:10166000010A44F400740860B9696D1C1298761E72
:10167000884730288146F0D02BE01099894505D164
:10168000200603D4761E44F0800418E0484603F098
:10169000E0FB08B3761E0DF123018B4544F4007482
:1016A00008D2A9F130000BF8010B200607D5AAF1EA
:1016B000010003E0200602D40AF101008246A005E1
:1016C00002D51399681C0860B96912986D1C884787
:1016D0008146002ED1DC53E0002E51DDB9F1650FBB
:1016E00002D0B9F1450F4BD1A00549D5B9696D1CA0
:1016F0001298761E24F440748847002E81460CDD33
:101700002B2804D0B9F12D0F07D144F48074B969A6
:1017100012986D1C8847761E8146E00501D52D2163
:1017200000E02B2108F8011BCDF8008021E0761E97
:101730000DF13901884544F400740CD2A9F1300050
:1017400010F0FF0088F8000002D10099884509D9FF
:1017500008F1010806E0E00501D51E4801E042F26B
:101760000F708246B96912986D1C8847814613989C
:101770000560002E04DD484603F06BFB0028D6D13F
:10178000F96912988847FF2053468BF8000088F8C3
:10179000000000200A900B9004AA0CA90AA8FFF7E9
:1017A000ADFDA00502D46FF00100F8E614F0240F9F
:1017B00012D0E0071CD13868DDE90A12031D3B6036
:1017C0000068C0E9001213E09019040082190400B7
:1017D00046180400F1D8FFFF0AA9684603F008FB89
:1017E000E00705D13868009A011D39600068026081
:1017F0002846D4E610B50446AFF300802046BDE885
:101800001040FEF746BD00002DE9FF4F1F464FF088
:101810003C0987B04FF00042DDE9141001F10108E6
:10182000DDF858A002EA405003900020059083465E
:10183000054604460490B969461E08988847AAF1EF
:10184000010A0290BAF1000F3BDD02982E2815D054
:10185000102100F016FA00282EDB4FF0010B05993D
:10186000014317D0B9F1000F0BDB4A46C11700F056
:10187000F5F905430C43A9F1040905E001200490A2
:101880000BE008B145F0010501200590049820B94E
:10189000361D02E0049800B1361FB969089808F1B6
:1018A00001088847BBF1000FAAF1010A0290C9D0D4
:1018B0000999C1F80080C5E70298702808D050281F
:1018C00006D0F96908988847BBF1000F14D04FE0A3
:1018D000002002900120BBF1000F049009D0B969EB
:1018E000089808F101088847AAF10109B9F1000F29
:1018F00007DCF969089888476FF001000BB0BDE874
:10190000F08F2B2804D02D280CD14FF0FF300490FD
:10191000B969089808F101088847A9F10109B9F1E6
:10192000000FE6DD411CE4D00A2100F0AAF90028EE
:10193000DFDB029908F1010801EB810100EB4100B6
:101940000290B969089888470A2100F09AF9099A23
:10195000A9F10109B9F1000FC2F8008001DD0028EA
:10196000E7DAF969089888470499029800FB01664C
:1019700055EA040004D004F04041090002D006E01A
:10198000039898E0A40044EA9574AD00B61E04F0F4
:101990000041080002D16D196441761E159810F0BF
:1019A000240F03D04FF00B095C4803E04FF02809E7
:1019B0006FF07D008246564507DAAAEB060189449E
:1019C000B9F1410F01DD4FF0410901200021A9F1DA
:1019D000010200F043F9024628400B46214008432B
:1019E00001D0012100E00021501E029143F1FF319E
:1019F00028402140084301D0012000E00020029946
:101A0000834651EA0B014FD0002108464FF00000F9
:101A1000039900F4400039B100EB80004FF440011D
:101A200000EBD07001EA60008015012802DD4FF064
:101A3000FF3000E013D0401C36D0029860B3BBF1F9
:101A4000000F0CD14A460120002100F007F9284080
:101A50002140084301D0012000E00020E0B1012036
:101A60004A46002100F0FAF8034640190A4661414F
:101A70002D1A8C4111D3B9F1400F09DD159810F0E2
:101A8000240F02D0AAF1340603E0AAF1170600E001
:101A9000761C00254FF0004406E05B1E42F1FF3249
:101AA00020EA030521EA0204CAF10100B04206DA85
:101AB0001B49039808430190002000900EE0039A10
:101AC000C4F3D321E80A0A43164940EA44500A43C2
:101AD0003146CDE90002684603F093F9159810F0FD
:101AE000240F0BD01598C00715D13868DDE9001216
:101AF000031D3B600068C0E900120CE002A86946C3
:101B000003F076F91598C00705D13868029A011DCF
:101B10003960006802604046F0E6000002FCFFFF0A
:101B20000000F07F0000F03F2DE9FF4F92461D4678
:101B300085B04FF00041DDE9124BDDE914727F1EE4
:101B400001EA4B50414940F0FF4940EA01080021B9
:101B500022F020004928049102D04E2828D04CE0E1
:101B60003BA0012607C88DE80700A9690698641CF8
:101B700088477F1E014606D41DF8060018B121F0E3
:101B8000200181420BD0E96906988847032E34D0A2
:101B9000082E32D06FF0010009B0BDE8F08F761C3E
:101BA000032E01D0082EE0D1601CCAF80000DCE74B
:101BB000A9690698641C88477F1E2AD420F020005B
:101BC000412826D1A9690698641C88477F1E20D425
:101BD00020F020004E281CD1A9690698641C884773
:101BE0007F1E48F4002849F48009CAF8004001D457
:101BF000282806D0E969069888475FEACB7012D09A
:101C000022E0A9690698641C88477F1E01D4002839
:101C100003DAE96906988847BCE72928F1D1641CF2
:101C2000CAF80040E9E71BF0240F07D028680499A0
:101C3000031D2B600068C0E9001805E02868021D3C
:101C40002A600068C0F800902046A5E70000F07FF9
:101C5000494E46494E49545900000000B2F1200354
:101C60000AD5C2F1200301FA02F120FA03F300FAC7
:101C700002F041EA0301704700FA03F14FF000005F
:101C800070473A2800D2303820F02002412A01D390
:101C9000A2F13700884201D34FF0FF3070475FEA6E
:101CA000400C08BF91F0000F4FEA8C234FEAC1228D
:101CB00043EA51514FEA1C5018BF00F5F0404FEA7B
:101CC000300018BF41F000415FEA6C5C00F02980F1
:101CD000BCF1FF3F08BF40F080407047130C06BFC7
:101CE00012044FF0100C4FF0000C130E04BF120240
:101CF0000CF1080C130F04BF12010CF1040C930F2C
:101D000004BF92000CF1020CD30F04BF52000CF17F
:101D1000010C11464FF00002A0F11F00A0EB0C00D7
:101D2000704711F0004F08BF704731F000413FF499
:101D3000D5AF0B0C06BF09044FF0100C4FF0000C90
:101D40000B0E04BF09020CF1080C0B0F04BF0901B4
:101D50000CF1040C8B0F04BF89000CF1020CCB0FAB
:101D600004BF49000CF1010CCCF12003A0EB0C00E6
:101D700022FA03F302FA0CF241EA030100F1010036
:101D8000704720F07F4C80EA030023F07F47ACEBE4
:101D9000070303F57C5300F0004003F1FF032DE936
:101DA00080494FEA154B09B44FEA144325EA0B4E1C
:101DB00024EA03480FF2042606EB132749083E786D
:101DC0005FEA320203FB0667C7F5000707FB06F66A
:101DD0004FEA54374FEAD64606F1020607FB066C77
:101DE000CCF1005C4FEA1C472CEA074C07FB06F4D9
:101DF0000CFB06F504EB15464FEA961634BF00209F
:101E00004FF000404FEAD13706FB07FC4FEA1C4C6D
:101E10000CFB0BF7D21B03FB0CF761EB07010CFB70
:101E20000EF7B0EB074072EB17420CFB08F734BF1C
:101E3000A2EB0742B2EB074261EB17414FEA0C44B9
:101E40004FEA910706FB07FC4FEA1C4C0CFB0BF713
:101E5000B0EBC74072EB573203FB0CF734BFA2EB79
:101E6000C742B2EBC74261EB57310CFB0EF7B0EB48
:101E7000C70072EB57720CFB08F734BFA2EBC70226
:101E8000B2EBC70261EB5771039F4FEA816141EAF0
:101E9000921104EBCC044FEAD1374FEA826206FB81
:101EA00007FC42EA90124FEA80604FEA1C4C0CFBA0
:101EB0000BF7D21B03FB0CF761EB07010CFB0EF7D2
:101EC000B0EB074072EB17420CFB08F734BFA2EBF4
:101ED0000742B2EB074261EB17414FEA8C554FEADC
:101EE000910704EB9C2406FB07FC4FEA1C4C0CFBFF
:101EF0000BF7B0EBC74072EB573203FB0CF734BF64
:101F0000A2EBC742B2EBC74261EB57310CFB0EF7B5
:101F1000B0EBC70072EB57720CFB08F734BFA2EBB3
:101F2000C702B2EBC70261EB577115EB4C254FEAC4
:101F3000816141EA92114FEA82624FEAD13742EA67
:101F4000901206FB07FC44F100044FEA80604FEA60
:101F50001C4C0CFB0BF7D21B03FB0CF761EB0701CE
:101F60000CFB0EF7B0EB074072EB17420CFB08F7C7
:101F700034BFA2EB0742B2EB074261EB174115EB0E
:101F80001C154FEA813141EA92414FEA823242EA1E
:101F900090424FEA80304FEA0C7644F1000448EA60
:101FA00003434EEA0B484FF0000EB2EB080C71EB06
:101FB000030724BF624639464EEB0E0E4FF0000B6E
:101FC0000018524149414BEB0B0BB2EB080C71EB83
:101FD00003077BF1000B24BF624639464EEB0E0E21
:101FE0004FF0000B0018524149414BEB0B0BB2EB89
:101FF000080C71EB03077BF1000B24BF62463946E6
:102000004EEB0E0E51EA020718BF46F0010616EB22
:102010000E7655F1000254F1000103D5BDE88901A7
:10202000BDE80088BDE88901BDE80048B619524105
:1020300041EB0101A3F10103704780807F7E7D7C2D
:102040007B7A7978777676757473727171706F6E4A
:102050006E6D6C6C6B6A6A696868676666656464F5
:10206000636362616160605F5F5E5E5D5D5C5C5B7F
:102070005B5A5A59595858575756565555555454EE
:10208000535352525251515050504F4F4F4E4E4D4C
:102090004D4D4C4C4C4B4B4B4A4A4A494949484898
:1020A00048474747474646464545454444444443D8
:1020B00043434342424242414141000046EA064610
:1020C000A3F570534FEA164646EA42564FEAD2222B
:1020D00042EA415210B54FEAD121A3F1010300F0C9
:1020E0002FF820F0004000F1020C00F0004701EB57
:1020F00000501146BCF5006F40EA070000D210BD49
:10210000BAF1000F0AD01CB503B44FF004004FF031
:1021100004014FF000000FBCBDE810404FF000017B
:10212000BBF1010FB9BF04484FF0FF310348002154
:1021300040EA070010BD00BFFFFFEF7F0000F07F07
:10214000002B9C4630D477002BD01CB54FEA3707C4
:1021500003B44FF010004FF01001BAF1000F06D099
:10216000BCF1000FDCBF40F0080040F008014FF068
:1021700000000FBCBDE810400BF1010BBBF1010FDB
:1021800008BF5FEA170722BF12F1010211F1010136
:102190004FF0004143F1000300F0004043EA00002B
:1021A0007047F9D35708D0E746EA064613F1400FC7
:1021B0004FEA16461FDD13F1200FDFBF16430A4614
:1021C000002120335B42BED0C3F1200746EA064619
:1021D00002FA07F74FEA164646EA0706C3F1200758
:1021E00022FA03F201FA07F721FA03F14FF0000394
:1021F00042EA0702A7E746EA020646EA06464FEA2F
:10220000164646EA0106BCBF46EA0646360C4FF0C3
:1022100000034FF000024FF0000194E72DE9804CDD
:102220009A46934670B491E8380007C831EA400CEA
:1022300048BF34EA430C03D5FFF7A3FDFFF780FF47
:10224000F0BCBDE8008C2DE9804C9A46934670B4F2
:1022500091E8380007C831EA400C48BF34EA430C23
:1022600003D5FFF78EFDFFF729FFF0BCBDE8008C1A
:102270002DE9804C9A46934670B491E8380007C81F
:1022800010F0804F08BF13F0804F03D100F01AF810
:10229000FFF756FFF0BCBDE8008C2DE9804C9A4654
:1022A000934670B491E8380007C810F0804F08BF1B
:1022B00013F0804F03D100F005F8FFF7FFFEF0BCEC
:1022C000BDE8008C20F07F4780EA030023F07F4CBC
:1022D00007EB0C03A3F57C5300F00040A3F1FE03D1
:1022E00092F0000F00F0B38095F0000F00F07780BF
:1022F0002DE901494FEA11404FEA144621EA00480E
:1023000000FB06FC24EA064708FB06F607FB08F874
:1023100000FB07F718EB06484CEB164C4FEA124B44
:1023200018EB07484FEA15464CEB174022EA0B4ED4
:102330000BFB06FC25EA06470EFB06F607FB0EFE26
:102340000BFB07F71EEB064E4CEB164C4FF000064E
:102350001EEB074E4CEB174B18EB0B0840F100003F
:1023600018EB0E0B58EB000840F100008F1A4FF0ED
:1023700000013CBFC943661B14BFB5EB040C002130
:102380003CBFC943F61B4FEA17444EEA8E0E27EABC
:1023900004454FEA1C4704FB07622CEA074C05FB87
:1023A00007F70CFB05F604FB0CFC16EB074642EBAB
:1023B000174216EB0C4642EB1C421BEB060658EB91
:1023C0000202414146EA9E0601D5BDE80189B619DF
:1023D000524141EB0101A3F10103BDE801894FEA3C
:1023E00014454FEA114724EA054621EA074C05FB4C
:1023F00007F406FB07F70CFB06F105FB0CFC11EBE1
:10240000074144EB17444FEA124711EB0C4144EBF0
:102410001C4422EA074C05FB07F206FB07F70CFBFE
:1024200006F605FB0CFC16EB074642EB174216EBD3
:102430000C4642EB1C456A1854F1000148BF704736
:10244000B619524141EB0101A3F10103704795F028
:10245000000F37D04FEA11424FEA144721EA0246F3
:1024600024EA074C02FB07F106FB07F70CFB06F416
:1024700002FB0CFC14EB074441EB17414FEA1547F4
:1024800014EB0C4441EB1C4125EA074C02FB07F519
:1024900006FB07F70CFB06F602FB0CFC16EB0746E7
:1024A00045EB174516EB0C4645EB1C42121951F152
:1024B000000148BF7047B619524141EB0101A3F139
:1024C000010370474FEA14454FEA114724EA0546D5
:1024D00021EA074C05FB07F106FB07F70CFB06F2A8
:1024E0004FF0000605FB0CFC12EB074241EB1741D5
:1024F00012EB0C4251EB1C4148BF7047921841EB64
:102500000101A3F10103704700BFFEE7704700001F
:1025100070B504461D460023B5F5804F13D154F81D
:1025200022300C480340D1E9000640EA06108E68CC
:1025300040EA06208E8940EA06408E693043034314
:1025400044F8223003E06FF0704044F8220000208D
:1025500070BD00000000F0CF10B5034600220868EF
:1025600053F8202012480240D1E901042043CC68EE
:1025700020430C6920434C6920438C692043CC697B
:1025800020430C6A20434C6A20438C6A2043CC6A67
:102590002043CC6B20430C6B2043024388680828FF
:1025A00001D142F04002086843F82020002010BD0D
:1025B0008000F0FF30B503460024501C53F8204043
:1025C00004F04044D1E9000540EA05108D6840EA76
:1025D00005208D8940EA0545088A401E45EA0055D8
:1025E000087D801E45EA00608D6928430443501C25
:1025F00043F82040002030BD70B50446A56D00F0C2
:1026000085F9064694F83500022808D080206065D8
:1026100000BF002084F8340000BF012070BD206896
:10262000006820F01600216808602068406920F0EA
:10263000800021684861206C08B9A06C28B120682E
:10264000006820F00800216808602068006820F019
:102650000100216808600FE000F058F9801B052890
:102660000AD92020606500BF002084F8340000BF34
:10267000032084F83500D1E72068006800F00100ED
:102680000028E9D194F85C103F208840A86000BF82
:10269000002084F8340000BF012084F835000020B9
:1026A000BCE7014691F83500022803D08020486538
:1026B00001207047052081F835000868006820F087
:1026C00001000A6810600020F3E70000F8B5024638
:1026D0000B460025002400200021DEE0012606FA3A
:1026E00001F51E6806EA0504AC4275D11E7906F0B4
:1026F0000306012E04D01E7906F00306022E13D124
:1027000090684F000326BE40B0434F00DE68BE40D5
:1027100030439060506801268E40B0431E79C6F366
:1027200000168E40304350601E7906F00306032EDB
:1027300009D0D0684F000326BE40B0434F009E68CA
:10274000BE403043D0601E7906F00306022E13D13E
:10275000CF0802F1200656F827004E07F70E0F2685
:10276000BE40B0434F07FF0E1E69BE403043CF0846
:1027700002F1200646F8270010684F000326BE40ED
:10278000B0431E7906F003064F00BE403043106090
:102790005E6806F08056B6F1805F7DD100BF0026EE
:1027A0000096404E366846F480463E4F3E603E46B8
:1027B000366806F48046009600BF00BF3A4E8F0888
:1027C00056F827008E07370F0F26BE40B043374E0E
:1027D000B24202D1002624E05EE0354EB24201D181
:1027E00001261EE0334EB24201D1022619E0324EDC
:1027F000B24201D1032614E0304EB24201D1042688
:102800000FE02F4EB24201D105260AE02D4EB24212
:1028100001D1062605E02C4EB24201D1072600E088
:1028200008268F073F0FBE4030431F4E8F0846F8E3
:102830002700264E3068A0435E6806F48036B6F561
:10284000803F00D12043214E3060361D3068A043C8
:102850005E6806F40036B6F5003F00D120431B4EFB
:10286000361D3060361D3068A0435E6806F4801661
:10287000B6F5801F00D12043144E08363060361D57
:102880003068A0435E6806F40016B6F5001F00D15C
:1028900020430E4E0C363060491C1029FFF41EAF49
:1028A000F8BD0000443802400838014000000240F2
:1028B0000004024000080240000C024000100240E8
:1028C0000014024000180240001C0240003C01407D
:1028D000024613690B400BB1012000E00020704755
:1028E00010B5426921EA020302EA010443EA044303
:1028F000836110BD0AB1816101E00B0483617047FF
:1029000001480068000C7047002004E0014800689E
:10291000704700001C000020034800680349097844
:1029200008440149086070471C0000202400002072
:1029300010B50A48006840F400700849086008466D
:10294000006840F480600860032000F07FF80F20EA
:1029500000F006F800F02AF8002010BD003C02400C
:1029600070B504460E4800784FF47A71B1FBF0F070
:102970000C490968B1FBF0F5284600F09BFC08B152
:10298000012070BD102C07D200222146501E00F0FD
:102990001EF80548046001E00120F2E70020F0E79E
:1029A0002400002000000020200000207047014685
:1029B0000846002809DB00F01F0301229A40430962
:1029C0009B0003F1E023C3F8002100BF70472DE90D
:1029D000F05F80460D461646002701F0F3F90746E2
:1029E00039462A46334601F00700C0F1070ABAF11A
:1029F000040F02D94FF0040A01E0C0F1070AD146E2
:102A000000F1040ABAF1070F02D24FF0000A01E008
:102A1000A0F1030AD4464FF0010A0AFA09FAAAF112
:102A2000010A0AEA020A0AFA0CFA4FF0010B0BFA41
:102A30000CFBABF1010B0BEA030B4AEA0B0421463A
:102A4000404601F0C7F9BDE8F09F000000BF00F06C
:102A50000702064B19684FF6FF031940044B0B435E
:102A600043EA0221014B196000BF70470CED00E002
:102A70000000FA0570B504460D460CB9012070BD82
:102A80005848006800F00700A84209D255490D7067
:102A90000846006800F00700A84201D00120EEE7D8
:102AA000207800F0020002281DD1207800F00400F8
:102AB000042805D14C48006840F4E0504A490860B9
:102AC000207800F00800082805D14748006840F445
:102AD0006040454908604448006820F0F000A16863
:102AE000084341490860207800F00100A8B36068FD
:102AF000012807D13C4808380068C0F34040B8B905
:102B00000120BCE76068022802D06068032807D172
:102B1000354808380068C0F3406048B90120AEE786
:102B2000314808380068C0F3400008B90120A6E722
:102B30002D48006820F00300616808432A490860B6
:102B4000FFF7E4FE064609E0FFF7E0FE801B41F2D6
:102B50008831884202D9032091E707E022480068C3
:102B600000F00C006168B0EB810FEDD11D480068EA
:102B700000F00700A84209D91A490D7008460068FC
:102B800000F00700A84201D0012078E7207800F08B
:102B90000400042807D11448006820F4E050E168DC
:102BA000084311490860207800F00800082808D17F
:102BB0000D48006820F46040216940EAC1000A49DC
:102BC000086000F03FF808490968C1F30311074A9B
:102BD000515CC8400649086006480068FFF7C0FE1F
:102BE00000204CE7003C0240083802406AB5030868
:102BF000000000202000002001480068704700000D
:102C00000000002000B5FFF7F7FF04490968C1F391
:102C10008221034A515CC84000BD000008380240D0
:102C20007AB5030800B5FFF7E7FF04490968C1F367
:102C30004231034A515CC84000BD000008380240E0
:102C40007AB503082DE9F047002400250026A146A7
:102C50002548006800F00C0020B1042805D00828A1
:102C60003AD105E0DFF8849039E0DFF8849036E06F
:102C70001D48001F006800F03F041B48001F00684B
:102C800000F4800078B11A481749091F0968C1F398
:102C90008811A0FB01700146224600233846FDF74B
:102CA00086FB05460EE011480F49091F0968C1F36C
:102CB0008811A0FB01700146224600233846FDF72B
:102CC00076FB05460848001F0068C0F30140401C21
:102CD0004600B5FBF6F902E0DFF8109000BF00BF38
:102CE0004846BDE8F0870000083802400024F400A0
:102CF00000127A00F8B504460CB90120F8BD20781E
:102D000000F00100002874D0F948006800F00C00C1
:102D100004280DD0F648006800F00C00082813D1F4
:102D2000F348001F006800F48000B0F5800F0BD15D
:102D3000EF4808380068C0F34040002859D0606868
:102D4000002856D10120D9E700BF6068B0F5803F68
:102D500008D1E7480838006840F48030E449083971
:102D600008601EE06068B0F5A02F0DD1E04808387B
:102D7000006840F48020DE49083908600846006891
:102D800040F4803008600CE0D9480838006820F42E
:102D90008030D749083908600846006820F4802050
:102DA000086000BF606890B1FFF7B0FD054606E01F
:102DB000FFF7ACFD401B642801D903209EE7CC48F7
:102DC00008380068C0F340400028F1D011E0FFF758
:102DD0009DFD054606E0FFF799FD401B642801D9DB
:102DE00003208BE7C24808380068C0F34040002841
:102DF000F1D1207800F0020002285FD1BC480068C1
:102E000000F00C0058B1BA48006800F00C00082827
:102E10001CD1B748001F006800F48000B0B9B44866
:102E200008380068C0F3400020B1E068012801D0F4
:102E3000012063E7AE480838006820F0F8002169F7
:102E400040EAC100AA490839086037E0E06800B3E9
:102E50000120A8490860FFF759FD054606E0FFF785
:102E600055FD401B022801D9032047E7A048083838
:102E70000068C0F340000028F1D09D480838006881
:102E800020F0F800216940EAC1009949083908603A
:102E900014E0002097490860FFF738FD054606E07A
:102EA000FFF734FD401B022801D9032026E7904894
:102EB00008380068C0F340000028F1D1207800F005
:102EC000080008282CD16069A8B101208A4908604F
:102ED000FFF71CFD054606E0FFF718FD401B022822
:102EE00001D903200AE782486C300068C0F3400033
:102EF0000028F1D014E000207F490860FFF706FDAC
:102F0000054606E0FFF702FD401B022801D9032019
:102F1000F4E677486C300068C0F340000028F1D137
:102F2000207800F00400042870D100277048383061
:102F3000006800F0805090B900BF002000906C48FD
:102F40003830006840F080506949383108600846E0
:102F5000006800F08050009000BF00BF0127674864
:102F6000006800F48070B0B96448006840F4807074
:102F700062490860FFF7CAFC054606E0FFF7C6FC99
:102F8000401B022801D90320B8E65C48006800F421
:102F900080700028F2D000BFA068012808D15448F2
:102FA0006830006840F001005149683108601DE058
:102FB000A06805280DD14E486830006840F0040034
:102FC0004B49683108600846006840F0010008601D
:102FD0000CE047486830006820F00100444968313F
:102FE00008600846006820F00400086000BFA06880
:102FF000A8B1FFF78BFC054609E0FFF787FC401BF3
:1030000041F28831884202D9032077E626E0384829
:1030100068300068C0F340000028EED013E0FFF7EE
:1030200075FC054608E0FFF771FC401B41F2883152
:10303000884201D9032061E62D4868300068C0F35A
:1030400040000028EFD1012F07D12948383000680F
:1030500020F0805026493831086000BFA069002860
:1030600045D02348006800F00C0008285DD0A06916
:10307000022845D100201F490866FFF747FC054696
:1030800006E0FFF743FC401B022801D9032035E688
:10309000174808380068C0F340600028F1D1D4E92F
:1030A00007010843616A40EA81110122A06AC2EB6C
:1030B000500041EA00412C20005D41EA00600C49CB
:1030C000091F086001200B490866FFF71FFC054631
:1030D00006E0FFF71BFC401B022801D903200DE688
:1030E000034808380068C0F340600028F1D049E088
:1030F0000838024000004742800E474200700040FE
:10310000002021490866FFF701FC054606E0FFF7AD
:10311000FDFB401B022801D90320EFE51B48006896
:10312000C0F340600028F2D12CE0A069012800D152
:10313000E4E51648001D0668A069012820D006F4C1
:103140008001E06981421BD106F03F01206A814283
:1031500016D147F6C0703040616AB0EB811F0FD1C5
:1031600006F440310122A06AC2EB5000B1EB004FDF
:1031700006D106F070612C20005DB1EB006F01D02C
:103180000120BBE50020B9E50000474200380240BD
:1031900070B504460E4615460CB9012070BD94F872
:1031A000490028B9002084F84800204600F01CF8A7
:1031B00004F108012068FFF7CFF93146A2682068C2
:1031C000FFF7F8F92946236BD4E90102FFF7A0F9CC
:1031D000A168206850F8210040F00100A268216831
:1031E00041F822000020D9E710B586B0044600BFA0
:1031F000002000902248006840F00100204908604B
:103200000846006800F00100009000BF00BF00BF4A
:10321000002000901A480838006840F0080018495B
:10322000083908600846006800F00800009000BFF8
:1032300000BF00BF002000900846006840F010006A
:1032400008600846006800F01000009000BF00BF52
:103250004CF20370019002200290012003900220A2
:1032600004900C20059001A90648FFF72FFA4FF6AD
:103270008070019001A90448FFF728FA06B010BD3C
:1032800038380240000C024000100240042808D1E7
:103290004FF0E021096941F004014FF0E022116193
:1032A00007E04FF0E021096921F004014FF0E0222E
:1032B0001161704770B504462546681EB0F1807FE5
:1032C00001D301200FE0681E4FF0E02148610F217B
:1032D0004FF0FF3000F07EFD00204FF0E0218861CC
:1032E00007200861002070BD70477047704710B517
:1032F000044620680069C0F34000D8B12068C06867
:10330000C0F34000B0B16FF00200216808610120F5
:1033100020772068806900F0030018B12046FFF78D
:10332000E5FF05E0204600F0ADF8204600F0ABF8E0
:103330000020207720680069C0F38000D8B12068A1
:10334000C068C0F38000B0B16FF00400216808616C
:10335000022020772068806900F4407018B1204670
:10336000FFF7C4FF05E0204600F08CF8204600F08F
:103370008AF80020207720680069C0F3C000D8B127
:103380002068C068C0F3C000B0B16FF008002168C9
:103390000861042020772068C06900F0030018B19C
:1033A0002046FFF7A3FF05E0204600F06BF820461B
:1033B00000F069F80020207720680069C0F3001051
:1033C000D8B12068C068C0F30010B0B16FF0100031
:1033D00021680861082020772068C06900F44070E7
:1033E00018B12046FFF782FF05E0204600F04AF8BA
:1033F000204600F048F8002020772068006900F09F
:10340000010058B12068C06800F0010030B16FF0D1
:10341000010021680861204600F036F82068006944
:10342000C0F3C01058B12068C068C0F3C01030B1FC
:103430006FF08000216808612046FFF755FF206883
:103440000069C0F3801058B12068C068C0F38010D4
:1034500030B16FF0400021680861204600F015F897
:1034600020680069C0F3401058B12068C068C0F3FC
:10347000401030B16FF02000216808612046FFF74E
:1034800034FF10BD704770477047704770477047F2
:1034900001460022002391F83D2091F83E3042EA97
:1034A000030070472DE9F84F04462068056820683E
:1034B000C668206847694FF00009CA4605F00F0941
:1034C000B9F1000F0AD105F0200038B106F0200054
:1034D00020B1204600F06BFABDE8F88FB9F1000F7B
:1034E00072D007F0010018B906F4907000286BD074
:1034F00005F0010030B106F4807018B1206C40F086
:103500000100206405F0040030B107F0010018B19B
:10351000206C40F00200206405F0020030B107F09A
:10352000010018B1206C40F00400206405F0080090
:1035300048B106F0200010B907F0010018B1206C66
:1035400040F008002064206C70B305F0200028B122
:1035500006F0200010B1204600F029FA20684069EA
:10356000C0F3801A206C00F0080010B9BAF1000F07
:1035700023D0204600F0F0F92068406900F04000B8
:10358000402816D12068406920F040002168486139
:10359000A06B50B15648A16B0865A06BFFF781F88E
:1035A00010B1A06B016D88470CE02046FFF76FFF5C
:1035B00008E02046FFF76BFF04E02046FFF767FFB7
:1035C0000020206488E7FFE7206B012879D105F00F
:1035D0001000002875D006F01000002871D000BF40
:1035E00000200090206800680090206840680090EB
:1035F00000BF00BF2068406900F04000402839D17A
:10360000A06B006840681FFA80F8B8F1000F30D056
:10361000A08D40452DDDA4F82E80A06BC069B0F5CB
:10362000807F1FD02068C06820F480702168C86047
:103630002068406920F001002168486120684069E5
:1036400020F0400021684861202084F83E000020DE
:1036500020632068C06820F010002168C860A06B5B
:10366000FEF7CAFFA08DE28D801A81B22046FFF7D7
:103670000DFF31E7A08DE18D401A1FFA80F8E08D33
:10368000E8B1B8F1000F1AD02068C06820F490703B
:103690002168C8602068406920F001002168486105
:1036A000202084F83E00002020632068C06820F0BD
:1036B00010002168C86041462046FFF7E7FE0BE78F
:1036C000FFE705F0800030B106F0800018B1204619
:1036D00000F005FB00E705F0400030B106F04000C7
:1036E00018B1204600F053F9F6E600BFF4E60000FA
:1036F0004539000810B504460CB9012010BDA06979
:1037000000B100E000BF94F83D0028B9002084F823
:103710003C00204600F028F8242084F83D00206872
:10372000C06820F400502168C860204600F09EF96F
:103730002068006920F49040216808612068406991
:1037400020F02A00216848612068C06840F40050D9
:103750002168C86000202064202084F83D0084F89F
:103760003E000020CAE7000010B586B004462E498E
:103770002068884255D100BF00BF002000902B4830
:10378000006840F01000294908600846006800F011
:103790001000009000BF00BF00BF00BF00BF0020AE
:1037A000009022481438006840F001001F49143985
:1037B00008600846006800F00100009000BF00BFEC
:1037C00000BF00BF00BF002000900846006840F026
:1037D000010008600846006800F00100009000BF8A
:1037E00000BF00BF48150190022002900120039005
:1037F000022004900720059001A90D48FEF766FFFE
:103800004FF4806001900720059001A90848FEF759
:103810005DFF2520FFF7CBF8032211462520FFF797
:10382000D6F806B010BD0000001001404438024038
:103830000000024070B504460D46164694F83E005E
:10384000202816D105B10EB9012070BD00BF94F833
:103850003C00012801D10220F7E7012084F83C0058
:1038600000BF0020206332462946204600F014FAAB
:10387000EBE70220E9E700001D4A0168914236D1DA
:103880001C49098801F4004189BB1A49098801F4DF
:10389000804171B1184909780A2903D00021154ADD
:1038A000118024E01349098841F40041114A118034
:1038B0001DE0114909780D2906D10E49098841F406
:1038C00080410C4A118012E00B490978094A12889C
:1038D000C2F30D02094B995406490988491C054A4F
:1038E000118011460988C72901DD00211180704728
:1038F00000100140180000201A000020980300204A
:10390000704700BFFEE700BFFEE7704710B5FFF746
:1039100003F836F0BDFB012801D036F083F910BD65
:103920000348006840F470000149086070470000D7
:1039300088ED00E010B50248FFF7D9FC10BD00008B
:103940000405002070B50546AC6B0020E085E084DE
:103950002046FFF79CFD70BD0168C96821F4907195
:103960000268D1600168496921F001010268516172
:10397000016B012905D10168C96821F010010268B5
:10398000D160202180F83E1000210163704710B5FE
:1039900004462068C06820F040002168C8602020EC
:1039A00084F83D002046FFF7ABFF002010BD70B546
:1039B000044694F83E00222856D1A068B0F5805FF6
:1039C0000CD1206950B90025A66A20684068C0F370
:1039D00008003080A06A801CA06215E0A56A00265D
:1039E000A068B0F5805F03D0A06828B9206918B935
:1039F00020684068287004E02068406800F07F007C
:103A00002870A06A401CA062E08D401E80B2E08554
:103A100040BB2068C06820F020002168C860206892
:103A2000C06820F480702168C8602068406920F078
:103A3000010021684861202084F83E00206B0128A5
:103A40000AD12068C06820F010002168C860A18DEC
:103A50002046FFF71BFD02E02046FFF70DFF002088
:103A6000206370BD0020FCE70220FAE72DE9F84F43
:103A700004462068006920F44050E168084321684A
:103A800008612169A068084361690843E169084346
:103A900000902068C06849F20C618843009908438F
:103AA0002168C8602068406920F44070A16908431B
:103AB0002168486176492068884203D075492068AA
:103AC000884203D1FFF7AEF8814602E0FFF79AF88B
:103AD0008146E069B0F5004F6CD102206168A0FB1F
:103AE000015003461920A9FB007001462A463846BA
:103AF000FCF75DFC6421B0FBF1F04FEA001A0220F4
:103B00006168A0FB01510B461920A9FB00712A46F0
:103B10003846FCF74CFC834602206168A0FB01504C
:103B200003461920A9FB00712A463846FCF73FFCE2
:103B30006421B0FBF1F000EBC00101EB0010ABEB36
:103B40008000322101EBC0006421B0FBF1F000F0F5
:103B5000F8000AEB400A02206168A0FB015003460E
:103B60001920A9FB007001462A463846FCF71FFCC5
:103B7000834602206168A0FB015003461920A9FB7F
:103B800000712A463846FCF712FC6421B0FBF1F0C4
:103B900000EBC00101EB0010ABEB8000322101EB28
:103BA000C0006421B0FBF1F000F007005044216830
:103BB00088606AE004206168A0FB01500346192078
:103BC000A9FB007001462A463846FCF7F0FB824606
:103BD00004206168A0FB015003461920A9FB007076
:103BE00001462A463846FCF7E2FB6421B0FBF1F0BF
:103BF00000EBC00101EB0010AAEB8000322101EBC9
:103C000000106421B0FBF1F000F0F00A04206168BC
:103C1000A0FB017003461920A9FB00513A46284633
:103C2000FCF7C5FB6421B0FBF1F00AEB001A04209D
:103C30006168A0FB01510B461920A9FB00712A46BF
:103C40003846FCF7B4FB834604206168A0FB0150B2
:103C500003461920A9FB007001462A463846FCF7A6
:103C6000A6FB6421B0FBF1F000EBC00101EB0010FA
:103C7000ABEB8000322101EB00106421B0FBF1F0CE
:103C800000F00F00504421688860BDE8F88F000004
:103C9000001001400014014010B5034699629A8556
:103CA000DA8500201864222083F83E0000BF00203F
:103CB00083F83C0000BF1868C06840F480701C683E
:103CC000E0601868406940F001001C686061186895
:103CD000C06840F020001C68E060002010BD014674
:103CE00091F83D00212828D18868B0F5805F0BD17C
:103CF000086948B90A6A1088C0F308000B68586060
:103D0000086A801C086205E00B6A581C0862187873
:103D10000B685860C88C401E80B2C88458B90868C7
:103D2000C06820F080000B68D8600868C06840F068
:103D300040000B68D860002070470220FCE70000BC
:103D400070B500240F4D1048FFF7ACFB00BF03E037
:103D5000641CAC4200D904E00B48FFF799FB202813
:103D6000F6D100BF002403E0641CAC4200D906E099
:103D7000012206490448FFF75DFD0028F4D100BF89
:103D800070BD0000FFFF0100600400201A00002049
:103D900000BFFEE703B401984100009850EAC1203B
:103DA00018BF04204A0D18BF40F0010040F2FF7216
:103DB000B2EB515F08BF40F00200012808BF0520A8
:103DC00002B0704702480068C0F30220704700004C
:103DD0000CED00E010B5002804DB0A07130E054ABD
:103DE000135406E00A07140E034A00F00F031B1FCA
:103DF000D45410BD00E400E018ED00E00000000025
:103E000030B52DED048B81B0B0EE408AF0EE608AC3
:103E10006A4651EC180B0FF037FC00989FED329B6F
:103E20007E300090002821DC53EC192B51EC180B4C
:103E300036F018FF1AD0002140F608004FF00000BD
:103E4000044651EC180B36F0C7FC08EE100A40F699
:103E5000080004EA00014FF00000B5EEC08AF1EE60
:103E600010FA04BF0220FCF729FE2DE00098FF287D
:103E700030DB002108464FF0000000F4400553EC11
:103E8000192B51EC180B37F0EBF88CBF00240124F0
:103E90000220FCF713FE9FED168A4DB1002C0CBFDB
:103EA0004FF400004FF48000A84218BF9FED118A24
:103EB000042108464FF00000002C01BFB1EE480A73
:103EC00001B0BDEC048B30BDB0EE480A01B0BDECD2
:103ED000048B30BD51EC180B36F07EFC01B000EEC7
:103EE000100ABDEC048B30BD000000000000000093
:103EF0000000807FFFFF7F7F30B583B00446FCF772
:103F0000D8FD9FED090B05468DED000B00222146E3
:103F10006846FDF7A5F82846FCF7D0FD9DED000B9F
:103F200003B030BD000000000000000000000000F1
:103F300030B540F2FF742DED048BF0EE608A18EE80
:103F4000901A85B0B0EE408A9FED2B9B05468DED13
:103F5000008B34EA115147D053EC192B51EC180B5C
:103F600036F080FE40D02A4651EC180B37F0B1FAFB
:103F700041EC180B18EE900A8DED008B34EA1050CE
:103F80001CD053EC192B51EC180B36F06BFE2BD1D7
:103F90000220FCF793FD00F01BFF10EE901A18EEC4
:103FA000900A8DED020B8DED008B61F31E000390E6
:103FB0009DED020B05B0BDEC048B30BD0220FCF77B
:103FC0007DFD00F0F5FE10EE901A18EE900A8DEDD2
:103FD000020B8DED008B61F31E0003909DED020B33
:103FE00005B0BDEC048B30BD05B0B0EE480AF0EE74
:103FF000680ABDEC048B30BD00000000000000002A
:104000002DE9F04D2DED040B2DED0E8B96B0DDE975
:104010002550279CDDF890A025F0004624F00048AC
:10402000BAF1000F14BF0121002101EB4502FC4948
:1040300053184A1093422AD3002814BF01230023A7
:1040400003EB44030B44F7498B4220D358EA0001A9
:104050009FEDF59B76D0DFF8D8B35D4503D1BAF17B
:10406000000F05D188E0BAF1000F08BF002100D091
:10407000012101EB450111F5001F08D8002814BFEC
:104080000121002101EB440111F5001F0BD99DED29
:10409000261B9DED240B16B0BDEC0E8B04B0BDE8C5
:1040A000F04D00F069BE0027002DBCBFE1498845F6
:1040B00021DAE1498845A8BF02271CDAC3451ADC8A
:1040C000DE4901EB2851142908DDC1F1340220FA40
:1040D00002F101FA02F282420DD108E058B9C1F1B1
:1040E000140228FA02F101FA02F2424503D101F06A
:1040F0000101C1F1020756EA0A0124D1002C22DA9B
:10410000002D18BF022F01D0012F0AD00220FCF78A
:10411000D5FC16B0BDEC0E8B04B0BDE8F04D00F040
:1041200013BE0220FCF7CAFC00F00EFE51EC100B8F
:1041300036F046FB41EC100B16B0BDEC0E8B04B014
:10414000BDE8F08D18E09FEDBEAB9FEDBF8B002862
:1041500071D1B848804522D105F1804010F580101A
:1041600008BFBAF1000F07D0B3450ADC002CA8BF86
:104170009DED260BE0DA0DE0B0EE490AF0EE690A9B
:10418000DAE7002C06DA9DED260B51EC100B36F029
:1041900017FB6FE0AE48784490ED000BCCE7D845B4
:1041A0004DD1002C48DA2EB186423AD1BAF1000F37
:1041B00042D126E0BAF1000F13D00220FCF77EFCBA
:1041C00000F0F6FD8DED020B9DED240B8DED000B47
:1041D00010EE900A039961F31E0003909DED020B0F
:1041E000AAE78DED02AB9DED240B1AEE901A10EEAE
:1041F000900A8DED000B61F31E0003909DED020B04
:104200009AE78DED028B9DED240B18EE901A10EEBF
:10421000900A8DED000B61F31E0003909DED020BE3
:104220008AE709DA9DED240B51EC190B53EC102BA6
:1042300036F0C0FB1EE020E09DED240B7CE78642BB
:104240001BDAB4F1804F0DD0A4F10050B0F1FF5053
:1042500013D1002D11DB9DED240B51EC100B30F030
:10426000B9FB07E09DED240B53EC102B51EC100B28
:1042700000F0C2BC41EC100B5EE79DED240B51EC4D
:10428000100B0EF085F8BAF1000FCDE90E0142D106
:104290009FED710B46B3A6F1E040B0F17F600CD00A
:1042A0005E4538D1002D00DAA7B3022F0CBF0120E4
:1042B0004FF0FF3036F06FFDDCE7002D01DD002C04
:1042C0000DDA002D01DD002C1FDB002D16DA002C8D
:1042D00014DB012F08BF9FED620B3FF42DAFB0EE52
:1042E0004A0AF0EE6A0A27E7022F18BF002D0CD009
:1042F000012F0AD1002DFFF61FAF06E0002DB8BF39
:10430000002C08DA012F3FF417AFB0EE480AF0EEA8
:10431000680A11E71BE0012000EBE57050EA070195
:1043200015D0791EB0EE498AF0EE698A084308BFBD
:104330009FED4D8B4E480025804570DD4D494E4820
:10434000884514DDB0420DDB002C19DB2FE0012085
:10435000FCF7B4FB16B0BDEC0E8B04B0BDE8F04D1D
:1043600000F016BDB34502DC002C09DC1FE08642DC
:1043700002DA002C1BDA03E05E452BDD002C16DD93
:104380000220FCF79BFB00F013FD8DED020B53ECBC
:104390001A2B51EC180B36F065FDCDE9000103999D
:1043A000019861F31E0003909DED020BC4E602200C
:1043B000FCF784FB00F00CFD10EE901A18EE900A4A
:1043C0008DED020B8DED008B61F31E0003909DEDD2
:1043D000020BB1E69DED0E0B53EC192B51EC100BBB
:1043E00036F04CFF9FED260BCDE9080153EC102B66
:1043F0009DED080B51EC100B36F034FD9FED221BA8
:1044000053EC112B36F062FE9DED081B53EC112B83
:1044100036F028FD9FED1E1B53EC112B3CE08CE089
:10442000FFFF1F00FFFF0F00000000000000F03F33
:104430000000F03F0000F07F0000404301FCFFFF60
:10444000000000000000F07F0000000000000000FD
:10445000D6E503000000000000000000000000801E
:10446000000000000000F0FF000000000000F0BFAE
:104470000000E0410000F043FFFFEF3F00000000BC
:10448000000000000000D03F555555555555D53F0B
:10449000000000000000E03F36F018FE9DED080B24
:1044A00041EC1A0B53EC102B51EC100B36F0DAFCEC
:1044B00053EC1A2B36F0D6FC41EC1A0B9FEDFE0B99
:1044C00053EC102B9DED080B51EC100B36F0CAFC91
:1044D00041EC1B0B9FEDFA0B51EC1A0B53EC102B1C
:1044E00036F0C0FC41EC1A0B9FEDF70B53EC102B90
:1044F0009DED080B51EC100B36F0B4FC53EC1A2B6D
:1045000036F0BCFE41EC1A0B51EC1B0B53EC1A2B92
:1045100036F094F90690CDE906519DED060B53EC6B
:104520001B2B51EC100B36F0A9FE53EC1A2B36F076
:10453000CDFD41EC100B00F0A1B90020B6F5801FB5
:104540000EDA9FEDE30B53EC102B9DED0E0B51ECAF
:10455000100B36F087FCCDE90E016FF034000E46EB
:1045600000EB2650A0F2FF37C6F31300DA4940F003
:104570007F6646F040568842D8BF002408DDD74900
:104580008142C8BF012403DC0024A6F580167F1CED
:10459000D348784400EBC4000F9690ED00CB9DED1E
:1045A0000E0B53EC1C2B51EC100B36F067FE9DEDFF
:1045B0000E0B41EC1B0B53EC1C2B51EC100B36F08B
:1045C0003DF941EC100B51EC190B53EC102B36F06C
:1045D000F1F941EC1D0B51EC1B0B53EC1D2B36F08C
:1045E00041FC41EC1A0BBF488DED10AB784410959F
:1045F00090ED000B4FF0005040EA660000EB844065
:104600008DED080B00F5002009909DED080B53EC93
:104610001C2B51EC100B36F031FE9DED0E1B53ECB4
:10462000112B36F053FD41EC100B53EC102B9DED8C
:10463000100B51EC100B36F015FC9DED080B41EC06
:104640001C0B53EC102B9DED100B51EC100B36F0A6
:1046500009FC53EC1B2B36F039FD53EC1C2B36F0C8
:104660000DFE53EC1D2B36F0FDFB41EC1C0B53EC07
:104670001A2B51EC1A0B36F0F5FB41EC1B0B9A4848
:104680000621B0EE4B0AF0EE6B0A784400F0E0FA37
:10469000B0EE401AF0EE601AB0EE41DAF0EE61DAF8
:1046A00053EC1B2B51EC1B0B36F0DCFB53EC1D2B9E
:1046B00036F0D8FB9DED100B41EC1B0B53EC1A2B85
:1046C00051EC100B36F0BAF853EC1C2B36F0CAFB49
:1046D00053EC1B2B36F0B2F89DED100B41EC1B0B8D
:1046E00053EC102B51EC100B36F0BCFB41EC1D0BC6
:1046F0009FED7FEB53EC1E2B36F0A0F853EC1B2BF9
:1047000036F09CF80890CDE908519DED080B53EC6C
:104710001E2B51EC100B36F0B1FD53EC1D2B36F077
:10472000ADFD53EC1B2B36F0D1FC9DED080B41EC9D
:104730001D0B53EC102B9DED100B51EC100B36F0B4
:1047400091FB41EC1B0B53EC1A2B51EC1D0B36F07B
:1047500089FB9DED080B41EC1A0B53EC102B51EC2F
:104760001C0B36F07FFB53EC1A2B36F067F841EC4C
:104770001A0B51EC1B0B53EC1A2B36F05FF80C9014
:10478000CDE90C519DED0C0B53EC1B2B51EC100B98
:1047900036F074FD53EC1A2B36F098FC41EC1B0BF1
:1047A0009FED550B53EC102B9DED0C0B51EC100BAA
:1047B00036F058FB41EC1A0B9FED510B51EC1B0BE3
:1047C00053EC102B36F04EFB41EC1B0B9FED4E0BC8
:1047D00053EC102B9DED0C0B51EC100B36F042FB03
:1047E00053EC1B2B36F02AF841EC100B4848784468
:1047F00000EBC40090ED001B51EC100B53EC112B9F
:1048000036F01CF841EC1B0B384636F0C4FACDE903
:10481000080153EC1B2B51EC1A0B36F00FF841EC4E
:10482000100B3C48784400EBC40090ED00CB51ECF9
:10483000100B53EC1C2B36F001F89DED081B53ECCC
:10484000112B35F0FBFF0690CDE906519DED080BCD
:1048500053EC102B9DED060B51EC100B36F00EFDBA
:1048600053EC1C2B36F00AFD53EC1A2B36F006FDE8
:1048700053EC1B2B36F02AFC41EC100B9DED261B54
:1048800053EC102B8DED001B00959DED260B51EC8C
:10489000100B36F0E7FA9DED000B41EC1A0B53ECD0
:1048A000102B9DED260B51EC100B36F0E7FC9DED27
:1048B000061B53EC112B2FE0000000604715F73F5B
:1048C000FE822B654715F73F44DF5DF80BAE543E83
:1048D00000000000000040438E9803007AB60B00F1
:1048E00052E1030080E103008AE0030000000000C1
:1048F0000000000000000840000000E009C7EE3F93
:10490000FD033ADC09C7EE3FF5015B14E02F3EBE24
:1049100016DF0300D0DE030036F0A4FA53EC1A2BA6
:1049200035F08CFF9DED060B41EC1A0B53EC102B70
:104930009DED000B51EC100B36F094FACDE90C0113
:104940009DED0C0B51EC1A0B53EC102B35F076FF50
:10495000CDE902010C46AA498C422FDB611A0843BB
:1049600018D19DED0C0B53EC102B9DED020B51EC6F
:10497000100B36F083FC41EC1B0B9FEDA30B51ECAD
:104980001A0B53EC102B35F059FF53EC1B2B36F060
:1049900067FB2DD20220FCF791F800F009FA10EE27
:1049A000901A18EE900A8DED020B8DED008B61F3DD
:1049B0001E0003909DED020BFFF7BEBB944A24F04E
:1049C0000041914214D39349214408437FF4EFAC52
:1049D0009DED0C0B53EC102B9DED020B51EC100BCD
:1049E00036F04CFC53EC1A2B36F03AFB7FF6DFAC7A
:1049F00024F000408849894A002601EB2051824278
:104A00002BDA481C4FF4801121FA00F02044844A2C
:104A1000C0F30A517A44A1F2FF3192ED000B814AB2
:104A20008DED080BCA4020EA0202C0F3130040F4E7
:104A30008010C1F1140120FA01F60992002CB8BFD0
:104A400076429DED080B53EC102B9DED0C0B51ECB9
:104A5000100B36F013FCCDE90C019DED0C0B51EC65
:104A60001A0B53EC102B35F0E9FE9FED6F0B0890FD
:104A7000CDE9085153EC102B9DED080B51EC100BB8
:104A800036F0F0F941EC1B0B9FED690B53EC102B4A
:104A90009DED080B51EC100B36F0E4F99DED0C0B7D
:104AA00041EC1C0B53EC102B9DED080B51EC100B43
:104AB00036F0E4FB53EC1A2B36F008FB9FED5E1B3F
:104AC00053EC112B36F0CEF953EC1C2B35F0B6FE1F
:104AD00041EC1A0B51EC1B0B53EC1A2B35F0AEFECC
:104AE000CDE902019DED020B53EC1B2B51EC100B99
:104AF00036F0C4FB53EC1A2B36F0E8FA9DED020BAE
:104B000041EC1A0B53EC102B51EC100B36F0AAF9B8
:104B1000CDE908014A489DED080B0521784400F0D5
:104B200097F89DED081B51EC100B53EC112B36F050
:104B300099F99DED021B53EC112B36F0C7FACDE924
:104B400006019DED020B53EC1A2B51EC100B36F0C5
:104B500089F953EC1A2B35F071FE9FED3B0B41ECBC
:104B60001A0B53EC102B9DED060B51EC100B36F08D
:104B700085FB9DED060B41EC1B0B53EC102B9DEDC3
:104B8000020B51EC100B36F06DF953EC1B2B35F08A
:104B900011FF53EC1A2B36F071FB9DED021B53EC09
:104BA000112B36F06BFB53EC192B36F08FFACDE955
:104BB000020101EB065001150029C8BF039015DC66
:104BC0009DED020B324651EC100B36F082FCFFF7E4
:104BD000E1F8042808BF00F0FBF832469DED020B17
:104BE00051EC100B36F075FCCDE902019DED020B86
:104BF00051EC180B53EC102B36F034F9FFF73ABB9D
:104C00000000904000000000FE822B654715973C95
:104C100000CC904000346F3F01FCFFFF0000E03FFC
:104C200058DD0300FFFF0F0000000000432EE63FA9
:104C3000396CA80C615C20BEEF39FAFE422EE63FCB
:104C400028DC03000000000000000000000000401D
:104C500070B504462DED028B4D1E00EBC500B0EE85
:104C6000408AF0EE608A90ED000B35F0060017D018
:104C700053EC182B51EC100B36F0F4F841EC100B00
:104C80006D1E04EBC50090ED001B51EC100B53ECB6
:104C9000112B35F0D3FD41EC100B35F00600E7D1B8
:104CA000022D36D0042D1CD0062D1CBFBDEC028B6E
:104CB00070BD53EC182B51EC100B36F0D3F894ED7B
:104CC0000A1B53EC112B35F0B9FD53EC182B36F0C1
:104CD000C9F894ED081B53EC112B35F0AFFD41ECF6
:104CE000100B53EC182B51EC100B36F0BBF894ED75
:104CF000061B53EC112B35F0A1FD53EC182B36F0AD
:104D0000B1F894ED040B53EC102B35F097FD41EC0A
:104D1000100B53EC182B51EC100B36F0A3F894ED5C
:104D2000021B53EC112B35F089FD53EC182B36F098
:104D300099F894ED001B53EC112B35F07FFDBDEC81
:104D4000028B41EC100B70BD9FED070B10B553ECBF
:104D5000102B9FED070B51EC100B35F02BFE41ECA7
:104D6000100B10BD0000000000000000000000005B
:104D7000000000000000F03F10B553EC112B51EC87
:104D8000100B35F05BFD41EC100B10BD0000000076
:104D90009FED050B10B553EC102B51EC100B35F0BB
:104DA00009FE41EC100B10BD0000000000000000E7
:104DB0009FED050B10B553EC102B51EC100B36F09A
:104DC00051F841EC100B10BD000000000000007015
:104DD0009FED050B10B553EC102B51EC100B36F07A
:104DE00041F841EC100B10BD000000000000001065
:104DF00010B5044691ED000BFFF702F884ED000AB0
:104E000010BD10B5044690ED000B0846FFF790F872
:104E100084ED000B10BD70B50446002508E0216844
:104E2000481C20600878303805EB850100EB41050F
:104E30002168087800F004F80028F0D1284670BDF9
:104E40000146302903DB392901DC012070470020AD
:104E5000FCE730380A2801D2012070470020704753
:104E600010B54021074801F0E3FA0022042106486A
:104E70002CF06CF80549086002F002FE002004499D
:104E8000087010BD50C600204D7B00089402002021
:104E90009002002030B50346B1F90040B2F900504D
:104EA000AC4202DDB1F9004001E0B2F900401C80E3
:104EB000B1F90240B2F90250AC4202DDB1F9024050
:104EC00001E0B2F902405C80B1F90440B2F904504B
:104ED000AC4202DAB1F9044001E0B2F904409C802E
:104EE000B1F90640B2F90650AC4202DAB1F9064017
:104EF00001E0B2F90640DC800120B3F90040B3F9CB
:104F00000450AC4205DCB3F90240B3F90650AC42A0
:104F100000DD002030BDF8B504460D4616460027DA
:104F2000B4F90000B5F90010884212DBB4F90200B0
:104F3000B5F9021088420CDBB4F90400B5F904108D
:104F4000884206DCB4F90600B5F90610884200DC98
:104F500001270FB90020F8BD0EB90120FBE720881A
:104F6000ADF800006088ADF8020032466946284678
:104F700000F0A7F808B90020EDE7A088ADF8000020
:104F80006088ADF8020032466946284600F099F87C
:104F900008B90020DFE72088ADF80000E088ADF810
:104FA000020032466946284600F08BF808B9002016
:104FB000D1E7A088ADF80000E088ADF802003246E5
:104FC0006946284600F07DF808B90020C3E70120B3
:104FD000C1E70246B2F90000B1F90430984213DC8F
:104FE000B2F90400B1F9003098420DDBB2F90200C9
:104FF000B1F90630984207DCB2F90600B1F9023087
:10500000984201DB012070470020FCE7F8B5044618
:105010000D461646B4F90400B5F90010884211DBBC
:10502000B4F90600B5F9021088420BDBB4F90000B0
:10503000B5F90410884205DCB4F90200B5F9061090
:10504000884201DD0120F8BD0EB90020FBE7208871
:10505000ADF800006088ADF8020032466946284687
:1050600000F02FF808B10020EDE7A088ADF80000AF
:105070006088ADF8020032466946284600F021F803
:1050800008B10020DFE72088ADF80000E088ADF827
:10509000020032466946284600F013F808B10020A5
:1050A000D1E7A088ADF80000E088ADF802003246F4
:1050B0006946284600F005F808B10020C3E7012042
:1050C000C1E72DE9FC5F05460E4614464FF0000A85
:1050D000B6F90000B5F90010884213DBB6F90000FC
:1050E000B5F9041088420DDCB6F90200B5F90210DA
:1050F000884207DBB6F90200B5F90610884201DCE8
:105100004FF0010ABAF1000F02D10020BDE8FC9F68
:10511000002C01DC0120F9E7284616F062FE8346E8
:1051200000EBDB704710284616F0D3FD834600EBFA
:10513000DB704FEA6008474501DA384600E0404638
:1051400081464C4500DD4C462888ADF80000288893
:10515000204400B2ADF804006888ADF80200688809
:10516000204400B2ADF80600002231466846FFF741
:10517000A8FF80B1BDF80400204400B2ADF80400DF
:10518000BDF80600204400B2ADF80600314668467E
:1051900027F062FFBAE7E888001B00B2ADF8020012
:1051A000E888ADF80600002231466846FFF789FF1F
:1051B00080B1BDF80400204400B2ADF80400BDF891
:1051C0000200001B00B2ADF802003146684627F02D
:1051D00043FF9BE7A888001B00B2ADF80000A88839
:1051E000ADF80400002231466846FFF76AFF80B13F
:1051F000BDF80000001B00B2ADF80000BDF80200D1
:10520000001B00B2ADF802003146684627F024FFCB
:105210007CE76888ADF802006888204400B2ADF8E9
:105220000600002231466846FFF74BFF80B1BDF80B
:105230000000001B00B2ADF80000BDF806002044DD
:1052400000B2ADF806003146684627F005FF5DE77D
:1052500001205BE710B5B1F90030B2F90040A3427C
:1052600002DAB1F9003001E0B2F900300380B1F99F
:105270000230B2F90240A34202DAB1F9023001E091
:10528000B2F902304380B1F90430B2F90440A342CC
:1052900002DDB1F9043001E0B2F904308380B1F9E4
:1052A0000630B2F90640A34202DDB1F9063001E052
:1052B000B2F90630C38010BD2DE9FF4104462BF042
:1052C000E6FD05460020039034B14749E0680860D8
:1052D00020462BF053FF03E019F0C6FF4249086057
:1052E00041490968086927F015FE3F480068406990
:1052F00020B13D490968486927F00CFE3A49096820
:10530000C86927F007FE38490968086A27F002FED5
:1053100035480068006940B9002033490968A1F8A0
:10532000500100BF00BFBDE8FF8128F095F928F0CB
:10533000DBF82D480068B0F8500100284BD02A480F
:1053400000680068007CC0F34000E8B126480068AF
:105350001AF008F8401E06B22348006819F09CFFB6
:10536000401E07B23B460022114601A8009616F0E7
:105370007DFD01A81C4909680968896B48601A48C5
:10538000006805F021FE00BF4FF4807116480068E8
:10539000303022F004F820211348006800F598709E
:1053A00021F0FDFF002010490968A1F850012846AE
:1053B0002BF060FD03900C4800680068406A50B113
:1053C0000949096808680849096809684B6A074972
:1053D0000A680399984721F019FD00F03FF800F0A2
:1053E00007F800BF9FE70000540100205001002093
:1053F00010B5002416E0C4EBC4000C4951F820009D
:1054000030B1C4EBC401094A52F8210021F0B0FDCB
:10541000C4EBC401054A02EB81001C2121F0BFFF4F
:10542000601CC4B2042CE6DB10BD00002CC70020B9
:105430000146094A10680BE042688A4202D00268BD
:105440008A4204D1027E22F00102521C0276406997
:105450000028F1D1704700002801002070470000AB
:1054600010B50421014800F0E3FF10BD44C6002040
:1054700010B51C21014800F0DBFF10BD5CC6002008
:105480002DE9FF4F8BB004469A46199DBAF1000FE3
:1054900011D11898B0F5807F0DD100202080608058
:1054A0000C98401E00B2A0800D98401E00B2E08013
:1054B0000FB0BDE8F08FB5F900004042189948439D
:1054C0000121C1EB202000B22080B5F9020040424A
:1054D000189948430121C1EB202000B26080B5F942
:1054E00000100C98401A18994843022101EB202023
:1054F00000B2A080B5F902100D98401A18994843DF
:10550000022101EB202000B2E080BAF1000F14D19B
:1055100020882988084400B220806088698808446F
:1055200000B26080A0882988084400B2A080E0888A
:105530006988084400B2E080BAE70A209AFBF0F0DC
:105540000A900A98401C09900A9800EB8000AAEB88
:10555000400B0A9800B22BF097FF0890099800B210
:105560002BF092FF07900A985A3000B22BF08CFF74
:10557000069009985A3000B22BF086FF0590CBF1C7
:105580000A0108984143079800FB0B100A2190FB81
:10559000F1F6CBF10A0106984143059800FB0B1088
:1055A0000A2190FBF1F776117F11B4F90080B4F96C
:1055B000029007FB08F006FB1900298801EBA020E8
:1055C00000B2ADF8100006FB08F007FB090069887F
:1055D00001EBA02000B2ADF81200B4F90480B4F9D8
:1055E000029007FB08F006FB1900298801EBA020B8
:1055F00000B2ADF80C0006FB08F007FB0900698853
:1056000001EBA02000B2ADF80E00B4F90080B4F9AF
:10561000069007FB08F006FB1900298801EBA02083
:1056200000B2ADF8080006FB08F007FB0900698826
:1056300001EBA02000B2ADF80A00B4F90480B4F97F
:10564000069007FB08F006FB1900298801EBA02053
:1056500000B2ADF8040006FB08F007FB09006988FA
:1056600001EBA02000B2ADF80600BDF90800BDF9BD
:105670001010884202DABDF9080001E0BDF91000FF
:10568000BDF90410BDF90C20914202DABDF90410F5
:1056900001E0BDF90C1088420BDABDF90800BDF934
:1056A0001010884202DABDF908000DE0BDF91000C3
:1056B0000AE0BDF90400BDF90C10884202DABDF918
:1056C000040001E0BDF90C002080BDF90800BDF91F
:1056D0001010884202DDBDF9080001E0BDF910009C
:1056E000BDF90410BDF90C20914202DDBDF9041092
:1056F00001E0BDF90C1088420BDDBDF90800BDF9D1
:105700001010884202DDBDF908000DE0BDF910005F
:105710000AE0BDF90400BDF90C10884202DDBDF9B4
:10572000040001E0BDF90C00A080BDF90A00BDF93C
:105730001210884202DABDF90A0001E0BDF9120038
:10574000BDF90610BDF90E20914202DABDF906102E
:1057500001E0BDF90E1088420BDABDF90A00BDF96F
:105760001210884202DABDF90A000DE0BDF91200FC
:105770000AE0BDF90600BDF90E10884202DABDF953
:10578000060001E0BDF90E006080BDF90A00BDF918
:105790001210884202DDBDF90A0001E0BDF91200D5
:1057A000BDF90610BDF90E20914202DDBDF90610CB
:1057B00001E0BDF90E1088420BDDBDF90A00BDF90C
:1057C0001210884202DDBDF90A000DE0BDF9120099
:1057D0000AE0BDF90600BDF90E10884202DDBDF9F0
:1057E000060001E0BDF90E00E08000BF60E62DE993
:1057F000F74F86B0044620680590B4F90810079862
:10580000A0EB0108B4F90A100898A0EB0109E0899F
:10581000B0F5807F13D1206B00FB08F0E16A01FB3B
:105820001901606A00EBA10BE06A00FB08F0216B34
:1058300001FB0901A06A00EBA10004902FE0A08900
:1058400080B9A06B00FB08F04FEA6018A06B00FB6A
:1058500009F04FEA6019606A00EB080BA06A48443F
:1058600004901CE0A06B00FB08F04FEA6018A06BEE
:1058700000FB09F04FEA6019206B00FB08F0E16AB9
:1058800001FB1901606A00EBA12BE06A00FB08F044
:10589000216B01FB0901A06A00EBA12004904FEAF3
:1058A0002B2604980712B4F90400B04203DC002050
:1058B00009B0BDE8F08F002E01DA0020F8E7B4F956
:1058C0000600B84201DC0020F2E7002F01DA0020D8
:1058D000EEE73420005DC0F3800050B33420005D5B
:1058E000C0F3400078B90225B4F904007843684356
:1058F00006FB050A059800EB0A012A4604F114008C
:1059000021F0FBFC2CE00325B4F904007843684344
:1059100006FB050A6A1E059800EB0A0104F1140053
:1059200021F0EBFC0AEB0500401E0599095CA1750E
:1059300016E04FF0000A0025208A03463AB231B241
:10594000019004F118001EF085F90290BDF80800DE
:10595000A0823AB231B204F118001EF0DBF8A07553
:105960003420005D00F00100B0B14FF47F40002111
:1059700000F47C4241EA5211C0F3C4021143019188
:10598000BDF8042011460291A08ABDF80810884293
:1059900001D100208CE700BFE07C08B9012087E737
:1059A0000FFA8BF1A187049801B2E18731B2402050
:1059B000015339B242200153C4F844A084F848503E
:1059C000204600F003F80390039871E72DE9F04FAB
:1059D0008DB00446D4F8009094F83C000C9094F8F4
:1059E0003E000B900C9870280BDA4FF0FF35B4F99D
:1059F00040002844002800DA00250C988030C7B207
:105A000013E00C9890280EDD0125B4F940002844DD
:105A1000B4F90410884200DB00250C98C0F1FF00A7
:105A20008030C7B201E00025FF270B9870280CDA00
:105A30004FF0FF36B4F942003044002800DA002667
:105A40000B98803000F0FF0815E00B9890280FDDD0
:105A50000126B4F942003044B4F90610884200DB54
:105A600000260B98C0F1FF00803000F0FF0802E034
:105A700000264FF0FF08A08A0A90A07D0690002023
:105A80000590049003903420005DC0F3800000284E
:105A90005BD094F84800626C00FB052000EB090124
:105AA000022209A821F029FCA28894F8480012FBE0
:105AB00000F2606C02FB060000EB0901022208A85C
:105AC00021F01BFCA28894F8480012FB00F2606CE5
:105AD00002FB060294F8480000FB052000EB0901D8
